{
	"contracts/PadiTokenStable.sol": {
		"PadiToken": {
			"abi": [
				{
					"inputs": [
						{
							"internalType": "address",
							"name": "_cusdAddress",
							"type": "address"
						},
						{
							"internalType": "address",
							"name": "_treasury",
							"type": "address"
						},
						{
							"internalType": "uint16",
							"name": "_mintFeeBps",
							"type": "uint16"
						},
						{
							"internalType": "uint16",
							"name": "_redeemFeeBps",
							"type": "uint16"
						}
					],
					"stateMutability": "nonpayable",
					"type": "constructor"
				},
				{
					"inputs": [
						{
							"internalType": "address",
							"name": "spender",
							"type": "address"
						},
						{
							"internalType": "uint256",
							"name": "allowance",
							"type": "uint256"
						},
						{
							"internalType": "uint256",
							"name": "needed",
							"type": "uint256"
						}
					],
					"name": "ERC20InsufficientAllowance",
					"type": "error"
				},
				{
					"inputs": [
						{
							"internalType": "address",
							"name": "sender",
							"type": "address"
						},
						{
							"internalType": "uint256",
							"name": "balance",
							"type": "uint256"
						},
						{
							"internalType": "uint256",
							"name": "needed",
							"type": "uint256"
						}
					],
					"name": "ERC20InsufficientBalance",
					"type": "error"
				},
				{
					"inputs": [
						{
							"internalType": "address",
							"name": "approver",
							"type": "address"
						}
					],
					"name": "ERC20InvalidApprover",
					"type": "error"
				},
				{
					"inputs": [
						{
							"internalType": "address",
							"name": "receiver",
							"type": "address"
						}
					],
					"name": "ERC20InvalidReceiver",
					"type": "error"
				},
				{
					"inputs": [
						{
							"internalType": "address",
							"name": "sender",
							"type": "address"
						}
					],
					"name": "ERC20InvalidSender",
					"type": "error"
				},
				{
					"inputs": [
						{
							"internalType": "address",
							"name": "spender",
							"type": "address"
						}
					],
					"name": "ERC20InvalidSpender",
					"type": "error"
				},
				{
					"inputs": [
						{
							"internalType": "address",
							"name": "owner",
							"type": "address"
						}
					],
					"name": "OwnableInvalidOwner",
					"type": "error"
				},
				{
					"inputs": [
						{
							"internalType": "address",
							"name": "account",
							"type": "address"
						}
					],
					"name": "OwnableUnauthorizedAccount",
					"type": "error"
				},
				{
					"inputs": [
						{
							"internalType": "address",
							"name": "token",
							"type": "address"
						}
					],
					"name": "SafeERC20FailedOperation",
					"type": "error"
				},
				{
					"anonymous": false,
					"inputs": [
						{
							"indexed": true,
							"internalType": "address",
							"name": "owner",
							"type": "address"
						},
						{
							"indexed": true,
							"internalType": "address",
							"name": "spender",
							"type": "address"
						},
						{
							"indexed": false,
							"internalType": "uint256",
							"name": "value",
							"type": "uint256"
						}
					],
					"name": "Approval",
					"type": "event"
				},
				{
					"anonymous": false,
					"inputs": [
						{
							"indexed": false,
							"internalType": "uint16",
							"name": "newMintFeeBps",
							"type": "uint16"
						},
						{
							"indexed": false,
							"internalType": "uint16",
							"name": "newRedeemFeeBps",
							"type": "uint16"
						}
					],
					"name": "FeesUpdated",
					"type": "event"
				},
				{
					"anonymous": false,
					"inputs": [
						{
							"indexed": true,
							"internalType": "address",
							"name": "to",
							"type": "address"
						},
						{
							"indexed": false,
							"internalType": "uint256",
							"name": "netAmount",
							"type": "uint256"
						},
						{
							"indexed": false,
							"internalType": "uint256",
							"name": "fee",
							"type": "uint256"
						}
					],
					"name": "Minted",
					"type": "event"
				},
				{
					"anonymous": false,
					"inputs": [
						{
							"indexed": true,
							"internalType": "address",
							"name": "previousOwner",
							"type": "address"
						},
						{
							"indexed": true,
							"internalType": "address",
							"name": "newOwner",
							"type": "address"
						}
					],
					"name": "OwnershipTransferred",
					"type": "event"
				},
				{
					"anonymous": false,
					"inputs": [
						{
							"indexed": false,
							"internalType": "address",
							"name": "account",
							"type": "address"
						}
					],
					"name": "Paused",
					"type": "event"
				},
				{
					"anonymous": false,
					"inputs": [
						{
							"indexed": true,
							"internalType": "address",
							"name": "from",
							"type": "address"
						},
						{
							"indexed": false,
							"internalType": "uint256",
							"name": "amount",
							"type": "uint256"
						},
						{
							"indexed": false,
							"internalType": "uint256",
							"name": "netCUSD",
							"type": "uint256"
						},
						{
							"indexed": false,
							"internalType": "uint256",
							"name": "fee",
							"type": "uint256"
						}
					],
					"name": "Redeemed",
					"type": "event"
				},
				{
					"anonymous": false,
					"inputs": [
						{
							"indexed": true,
							"internalType": "address",
							"name": "from",
							"type": "address"
						},
						{
							"indexed": true,
							"internalType": "address",
							"name": "to",
							"type": "address"
						},
						{
							"indexed": false,
							"internalType": "uint256",
							"name": "value",
							"type": "uint256"
						}
					],
					"name": "Transfer",
					"type": "event"
				},
				{
					"anonymous": false,
					"inputs": [
						{
							"indexed": false,
							"internalType": "address",
							"name": "newTreasury",
							"type": "address"
						}
					],
					"name": "TreasuryUpdated",
					"type": "event"
				},
				{
					"anonymous": false,
					"inputs": [
						{
							"indexed": false,
							"internalType": "address",
							"name": "account",
							"type": "address"
						}
					],
					"name": "Unpaused",
					"type": "event"
				},
				{
					"inputs": [],
					"name": "MAX_BPS",
					"outputs": [
						{
							"internalType": "uint16",
							"name": "",
							"type": "uint16"
						}
					],
					"stateMutability": "view",
					"type": "function"
				},
				{
					"inputs": [],
					"name": "MAX_SUPPLY",
					"outputs": [
						{
							"internalType": "uint256",
							"name": "",
							"type": "uint256"
						}
					],
					"stateMutability": "view",
					"type": "function"
				},
				{
					"inputs": [
						{
							"internalType": "address",
							"name": "owner",
							"type": "address"
						},
						{
							"internalType": "address",
							"name": "spender",
							"type": "address"
						}
					],
					"name": "allowance",
					"outputs": [
						{
							"internalType": "uint256",
							"name": "",
							"type": "uint256"
						}
					],
					"stateMutability": "view",
					"type": "function"
				},
				{
					"inputs": [
						{
							"internalType": "address",
							"name": "spender",
							"type": "address"
						},
						{
							"internalType": "uint256",
							"name": "value",
							"type": "uint256"
						}
					],
					"name": "approve",
					"outputs": [
						{
							"internalType": "bool",
							"name": "",
							"type": "bool"
						}
					],
					"stateMutability": "nonpayable",
					"type": "function"
				},
				{
					"inputs": [
						{
							"internalType": "address",
							"name": "account",
							"type": "address"
						}
					],
					"name": "balanceOf",
					"outputs": [
						{
							"internalType": "uint256",
							"name": "",
							"type": "uint256"
						}
					],
					"stateMutability": "view",
					"type": "function"
				},
				{
					"inputs": [],
					"name": "cusd",
					"outputs": [
						{
							"internalType": "contract IERC20",
							"name": "",
							"type": "address"
						}
					],
					"stateMutability": "view",
					"type": "function"
				},
				{
					"inputs": [],
					"name": "decimals",
					"outputs": [
						{
							"internalType": "uint8",
							"name": "",
							"type": "uint8"
						}
					],
					"stateMutability": "view",
					"type": "function"
				},
				{
					"inputs": [
						{
							"internalType": "uint256",
							"name": "amount",
							"type": "uint256"
						}
					],
					"name": "mint",
					"outputs": [],
					"stateMutability": "nonpayable",
					"type": "function"
				},
				{
					"inputs": [],
					"name": "mintFeeBps",
					"outputs": [
						{
							"internalType": "uint16",
							"name": "",
							"type": "uint16"
						}
					],
					"stateMutability": "view",
					"type": "function"
				},
				{
					"inputs": [],
					"name": "name",
					"outputs": [
						{
							"internalType": "string",
							"name": "",
							"type": "string"
						}
					],
					"stateMutability": "view",
					"type": "function"
				},
				{
					"inputs": [],
					"name": "owner",
					"outputs": [
						{
							"internalType": "address",
							"name": "",
							"type": "address"
						}
					],
					"stateMutability": "view",
					"type": "function"
				},
				{
					"inputs": [],
					"name": "pause",
					"outputs": [],
					"stateMutability": "nonpayable",
					"type": "function"
				},
				{
					"inputs": [],
					"name": "paused",
					"outputs": [
						{
							"internalType": "bool",
							"name": "",
							"type": "bool"
						}
					],
					"stateMutability": "view",
					"type": "function"
				},
				{
					"inputs": [
						{
							"internalType": "uint256",
							"name": "amount",
							"type": "uint256"
						}
					],
					"name": "redeem",
					"outputs": [],
					"stateMutability": "nonpayable",
					"type": "function"
				},
				{
					"inputs": [],
					"name": "redeemFeeBps",
					"outputs": [
						{
							"internalType": "uint16",
							"name": "",
							"type": "uint16"
						}
					],
					"stateMutability": "view",
					"type": "function"
				},
				{
					"inputs": [],
					"name": "renounceOwnership",
					"outputs": [],
					"stateMutability": "nonpayable",
					"type": "function"
				},
				{
					"inputs": [
						{
							"internalType": "uint16",
							"name": "_mintFeeBps",
							"type": "uint16"
						},
						{
							"internalType": "uint16",
							"name": "_redeemFeeBps",
							"type": "uint16"
						}
					],
					"name": "setFees",
					"outputs": [],
					"stateMutability": "nonpayable",
					"type": "function"
				},
				{
					"inputs": [
						{
							"internalType": "address",
							"name": "_treasury",
							"type": "address"
						}
					],
					"name": "setTreasury",
					"outputs": [],
					"stateMutability": "nonpayable",
					"type": "function"
				},
				{
					"inputs": [],
					"name": "symbol",
					"outputs": [
						{
							"internalType": "string",
							"name": "",
							"type": "string"
						}
					],
					"stateMutability": "view",
					"type": "function"
				},
				{
					"inputs": [],
					"name": "totalSupply",
					"outputs": [
						{
							"internalType": "uint256",
							"name": "",
							"type": "uint256"
						}
					],
					"stateMutability": "view",
					"type": "function"
				},
				{
					"inputs": [
						{
							"internalType": "address",
							"name": "to",
							"type": "address"
						},
						{
							"internalType": "uint256",
							"name": "value",
							"type": "uint256"
						}
					],
					"name": "transfer",
					"outputs": [
						{
							"internalType": "bool",
							"name": "",
							"type": "bool"
						}
					],
					"stateMutability": "nonpayable",
					"type": "function"
				},
				{
					"inputs": [
						{
							"internalType": "address",
							"name": "from",
							"type": "address"
						},
						{
							"internalType": "address",
							"name": "to",
							"type": "address"
						},
						{
							"internalType": "uint256",
							"name": "value",
							"type": "uint256"
						}
					],
					"name": "transferFrom",
					"outputs": [
						{
							"internalType": "bool",
							"name": "",
							"type": "bool"
						}
					],
					"stateMutability": "nonpayable",
					"type": "function"
				},
				{
					"inputs": [
						{
							"internalType": "address",
							"name": "newOwner",
							"type": "address"
						}
					],
					"name": "transferOwnership",
					"outputs": [],
					"stateMutability": "nonpayable",
					"type": "function"
				},
				{
					"inputs": [],
					"name": "treasury",
					"outputs": [
						{
							"internalType": "address",
							"name": "",
							"type": "address"
						}
					],
					"stateMutability": "view",
					"type": "function"
				},
				{
					"inputs": [],
					"name": "unpause",
					"outputs": [],
					"stateMutability": "nonpayable",
					"type": "function"
				}
			],
			"devdoc": {
				"details": "Fees accrue to a designated treasury; owner can update fees & treasury.",
				"errors": {
					"ERC20InsufficientAllowance(address,uint256,uint256)": [
						{
							"details": "Indicates a failure with the `spender`’s `allowance`. Used in transfers.",
							"params": {
								"allowance": "Amount of tokens a `spender` is allowed to operate with.",
								"needed": "Minimum amount required to perform a transfer.",
								"spender": "Address that may be allowed to operate on tokens without being their owner."
							}
						}
					],
					"ERC20InsufficientBalance(address,uint256,uint256)": [
						{
							"details": "Indicates an error related to the current `balance` of a `sender`. Used in transfers.",
							"params": {
								"balance": "Current balance for the interacting account.",
								"needed": "Minimum amount required to perform a transfer.",
								"sender": "Address whose tokens are being transferred."
							}
						}
					],
					"ERC20InvalidApprover(address)": [
						{
							"details": "Indicates a failure with the `approver` of a token to be approved. Used in approvals.",
							"params": {
								"approver": "Address initiating an approval operation."
							}
						}
					],
					"ERC20InvalidReceiver(address)": [
						{
							"details": "Indicates a failure with the token `receiver`. Used in transfers.",
							"params": {
								"receiver": "Address to which tokens are being transferred."
							}
						}
					],
					"ERC20InvalidSender(address)": [
						{
							"details": "Indicates a failure with the token `sender`. Used in transfers.",
							"params": {
								"sender": "Address whose tokens are being transferred."
							}
						}
					],
					"ERC20InvalidSpender(address)": [
						{
							"details": "Indicates a failure with the `spender` to be approved. Used in approvals.",
							"params": {
								"spender": "Address that may be allowed to operate on tokens without being their owner."
							}
						}
					],
					"OwnableInvalidOwner(address)": [
						{
							"details": "The owner is not a valid owner account. (eg. `address(0)`)"
						}
					],
					"OwnableUnauthorizedAccount(address)": [
						{
							"details": "The caller account is not authorized to perform an operation."
						}
					],
					"SafeERC20FailedOperation(address)": [
						{
							"details": "An operation with an ERC-20 token failed."
						}
					]
				},
				"events": {
					"Approval(address,address,uint256)": {
						"details": "Emitted when the allowance of a `spender` for an `owner` is set by a call to {approve}. `value` is the new allowance."
					},
					"FeesUpdated(uint16,uint16)": {
						"details": "Emitted when fees are updated"
					},
					"Minted(address,uint256,uint256)": {
						"details": "Emitted when PADI are minted: `to` receives `netAmount`, `fee` goes to `treasury`"
					},
					"Paused(address)": {
						"details": "Emitted when the pause is triggered by `account`."
					},
					"Redeemed(address,uint256,uint256,uint256)": {
						"details": "Emitted when PADI are redeemed: `from` burns `amount`, `netCUSD` returned, `fee` sent to `treasury`"
					},
					"Transfer(address,address,uint256)": {
						"details": "Emitted when `value` tokens are moved from one account (`from`) to another (`to`). Note that `value` may be zero."
					},
					"TreasuryUpdated(address)": {
						"details": "Emitted when treasury address is changed"
					},
					"Unpaused(address)": {
						"details": "Emitted when the pause is lifted by `account`."
					}
				},
				"kind": "dev",
				"methods": {
					"allowance(address,address)": {
						"details": "See {IERC20-allowance}."
					},
					"approve(address,uint256)": {
						"details": "See {IERC20-approve}. NOTE: If `value` is the maximum `uint256`, the allowance is not updated on `transferFrom`. This is semantically equivalent to an infinite approval. Requirements: - `spender` cannot be the zero address."
					},
					"balanceOf(address)": {
						"details": "See {IERC20-balanceOf}."
					},
					"constructor": {
						"params": {
							"_cusdAddress": "The deployed CUSD token address",
							"_mintFeeBps": "Initial mint fee (bps)",
							"_redeemFeeBps": "Initial redeem fee (bps)",
							"_treasury": "The address to collect fees"
						}
					},
					"decimals()": {
						"details": "Returns the number of decimals used to get its user representation. For example, if `decimals` equals `2`, a balance of `505` tokens should be displayed to a user as `5.05` (`505 / 10 ** 2`). Tokens usually opt for a value of 18, imitating the relationship between Ether and Wei. This is the default value returned by this function, unless it's overridden. NOTE: This information is only used for _display_ purposes: it in no way affects any of the arithmetic of the contract, including {IERC20-balanceOf} and {IERC20-transfer}."
					},
					"mint(uint256)": {
						"params": {
							"amount": "The gross amount of CUSD to deposit"
						}
					},
					"name()": {
						"details": "Returns the name of the token."
					},
					"owner()": {
						"details": "Returns the address of the current owner."
					},
					"paused()": {
						"details": "Returns true if the contract is paused, and false otherwise."
					},
					"redeem(uint256)": {
						"params": {
							"amount": "The gross amount of PADI to burn"
						}
					},
					"renounceOwnership()": {
						"details": "Leaves the contract without owner. It will not be possible to call `onlyOwner` functions. Can only be called by the current owner. NOTE: Renouncing ownership will leave the contract without an owner, thereby disabling any functionality that is only available to the owner."
					},
					"symbol()": {
						"details": "Returns the symbol of the token, usually a shorter version of the name."
					},
					"totalSupply()": {
						"details": "See {IERC20-totalSupply}."
					},
					"transfer(address,uint256)": {
						"details": "See {IERC20-transfer}. Requirements: - `to` cannot be the zero address. - the caller must have a balance of at least `value`."
					},
					"transferFrom(address,address,uint256)": {
						"details": "See {IERC20-transferFrom}. Skips emitting an {Approval} event indicating an allowance update. This is not required by the ERC. See {xref-ERC20-_approve-address-address-uint256-bool-}[_approve]. NOTE: Does not update the allowance if the current allowance is the maximum `uint256`. Requirements: - `from` and `to` cannot be the zero address. - `from` must have a balance of at least `value`. - the caller must have allowance for ``from``'s tokens of at least `value`."
					},
					"transferOwnership(address)": {
						"details": "Transfers ownership of the contract to a new account (`newOwner`). Can only be called by the current owner."
					}
				},
				"stateVariables": {
					"MAX_BPS": {
						"details": "Basis points denominator (100.00%)"
					}
				},
				"title": "Padi Token (PADI) — 1:1 CUSD‑backed, pausable, fee‑on‑mint/redeem",
				"version": 1
			},
			"evm": {
				"assembly": "    /* \"contracts/PadiTokenStable.sol\":607:5446  contract PadiToken is ERC20, Ownable, Pausable, ReentrancyGuard {... */\n  mstore(0x40, 0xa0)\n    /* \"contracts/PadiTokenStable.sol\":2104:2699  constructor(... */\n  callvalue\n  dup1\n  iszero\n  tag_1\n  jumpi\n  0x00\n  dup1\n  revert\ntag_1:\n  pop\n  mload(0x40)\n  sub(codesize, bytecodeSize)\n  dup1\n  bytecodeSize\n  dup4\n  codecopy\n  dup2\n  dup2\n  add\n  0x40\n  mstore\n  dup2\n  add\n  swap1\n  tag_2\n  swap2\n  swap1\n  tag_3\n  jump\t// in\ntag_2:\n    /* \"contracts/PadiTokenStable.sol\":2272:2282  msg.sender */\n  caller\n    /* \"@openzeppelin/contracts/token/ERC20/ERC20.sol\":1601:1714  constructor(string memory name_, string memory symbol_) {... */\n  mload(0x40)\n  dup1\n  0x40\n  add\n  0x40\n  mstore\n  dup1\n  0x0a\n  dup2\n  mstore\n  0x20\n  add\n  0x5061646920546f6b656e00000000000000000000000000000000000000000000\n  dup2\n  mstore\n  pop\n  mload(0x40)\n  dup1\n  0x40\n  add\n  0x40\n  mstore\n  dup1\n  0x04\n  dup2\n  mstore\n  0x20\n  add\n  0x5041444900000000000000000000000000000000000000000000000000000000\n  dup2\n  mstore\n  pop\n    /* \"@openzeppelin/contracts/token/ERC20/ERC20.sol\":1675:1680  name_ */\n  dup2\n    /* \"@openzeppelin/contracts/token/ERC20/ERC20.sol\":1667:1672  _name */\n  0x03\n    /* \"@openzeppelin/contracts/token/ERC20/ERC20.sol\":1667:1680  _name = name_ */\n  swap1\n  dup2\n  tag_10\n  swap2\n  swap1\n  tag_11\n  jump\t// in\ntag_10:\n  pop\n    /* \"@openzeppelin/contracts/token/ERC20/ERC20.sol\":1700:1707  symbol_ */\n  dup1\n    /* \"@openzeppelin/contracts/token/ERC20/ERC20.sol\":1690:1697  _symbol */\n  0x04\n    /* \"@openzeppelin/contracts/token/ERC20/ERC20.sol\":1690:1707  _symbol = symbol_ */\n  swap1\n  dup2\n  tag_12\n  swap2\n  swap1\n  tag_11\n  jump\t// in\ntag_12:\n  pop\n    /* \"@openzeppelin/contracts/token/ERC20/ERC20.sol\":1601:1714  constructor(string memory name_, string memory symbol_) {... */\n  pop\n  pop\n    /* \"@openzeppelin/contracts/access/Ownable.sol\":1297:1298  0 */\n  0x00\n    /* \"@openzeppelin/contracts/access/Ownable.sol\":1273:1299  initialOwner == address(0) */\n  0xffffffffffffffffffffffffffffffffffffffff\n  and\n    /* \"@openzeppelin/contracts/access/Ownable.sol\":1273:1285  initialOwner */\n  dup2\n    /* \"@openzeppelin/contracts/access/Ownable.sol\":1273:1299  initialOwner == address(0) */\n  0xffffffffffffffffffffffffffffffffffffffff\n  and\n  sub\n    /* \"@openzeppelin/contracts/access/Ownable.sol\":1269:1364  if (initialOwner == address(0)) {... */\n  tag_14\n  jumpi\n    /* \"@openzeppelin/contracts/access/Ownable.sol\":1350:1351  0 */\n  0x00\n    /* \"@openzeppelin/contracts/access/Ownable.sol\":1322:1353  OwnableInvalidOwner(address(0)) */\n  mload(0x40)\n  0x1e4fbdf700000000000000000000000000000000000000000000000000000000\n  dup2\n  mstore\n  0x04\n  add\n  tag_15\n  swap2\n  swap1\n  tag_16\n  jump\t// in\ntag_15:\n  mload(0x40)\n  dup1\n  swap2\n  sub\n  swap1\n  revert\n    /* \"@openzeppelin/contracts/access/Ownable.sol\":1269:1364  if (initialOwner == address(0)) {... */\ntag_14:\n    /* \"@openzeppelin/contracts/access/Ownable.sol\":1373:1405  _transferOwnership(initialOwner) */\n  tag_17\n    /* \"@openzeppelin/contracts/access/Ownable.sol\":1392:1404  initialOwner */\n  dup2\n    /* \"@openzeppelin/contracts/access/Ownable.sol\":1373:1391  _transferOwnership */\n  shl(0x20, tag_18)\n    /* \"@openzeppelin/contracts/access/Ownable.sol\":1373:1405  _transferOwnership(initialOwner) */\n  0x20\n  shr\n  jump\t// in\ntag_17:\n    /* \"@openzeppelin/contracts/access/Ownable.sol\":1225:1412  constructor(address initialOwner) {... */\n  pop\n    /* \"@openzeppelin/contracts/security/Pausable.sol\":1006:1011  false */\n  0x00\n    /* \"@openzeppelin/contracts/security/Pausable.sol\":996:1003  _paused */\n  0x05\n  0x14\n    /* \"@openzeppelin/contracts/security/Pausable.sol\":996:1011  _paused = false */\n  0x0100\n  exp\n  dup2\n  sload\n  dup2\n  0xff\n  mul\n  not\n  and\n  swap1\n  dup4\n  iszero\n  iszero\n  mul\n  or\n  swap1\n  sstore\n  pop\n    /* \"@openzeppelin/contracts/security/ReentrancyGuard.sol\":1716:1717  1 */\n  0x01\n    /* \"@openzeppelin/contracts/security/ReentrancyGuard.sol\":1821:1828  _status */\n  0x06\n    /* \"@openzeppelin/contracts/security/ReentrancyGuard.sol\":1821:1843  _status = _NOT_ENTERED */\n  dup2\n  swap1\n  sstore\n  pop\n    /* \"contracts/PadiTokenStable.sol\":2335:2336  0 */\n  0x00\n    /* \"contracts/PadiTokenStable.sol\":2311:2337  _cusdAddress != address(0) */\n  0xffffffffffffffffffffffffffffffffffffffff\n  and\n    /* \"contracts/PadiTokenStable.sol\":2311:2323  _cusdAddress */\n  dup5\n    /* \"contracts/PadiTokenStable.sol\":2311:2337  _cusdAddress != address(0) */\n  0xffffffffffffffffffffffffffffffffffffffff\n  and\n  sub\n    /* \"contracts/PadiTokenStable.sol\":2303:2362  require(_cusdAddress != address(0), \"Invalid CUSD address\") */\n  tag_22\n  jumpi\n  mload(0x40)\n  0x08c379a000000000000000000000000000000000000000000000000000000000\n  dup2\n  mstore\n  0x04\n  add\n  tag_23\n  swap1\n  tag_24\n  jump\t// in\ntag_23:\n  mload(0x40)\n  dup1\n  swap2\n  sub\n  swap1\n  revert\ntag_22:\n    /* \"contracts/PadiTokenStable.sol\":2401:2402  0 */\n  0x00\n    /* \"contracts/PadiTokenStable.sol\":2380:2403  _treasury != address(0) */\n  0xffffffffffffffffffffffffffffffffffffffff\n  and\n    /* \"contracts/PadiTokenStable.sol\":2380:2389  _treasury */\n  dup4\n    /* \"contracts/PadiTokenStable.sol\":2380:2403  _treasury != address(0) */\n  0xffffffffffffffffffffffffffffffffffffffff\n  and\n  sub\n    /* \"contracts/PadiTokenStable.sol\":2372:2424  require(_treasury != address(0), \"Invalid treasury\") */\n  tag_25\n  jumpi\n  mload(0x40)\n  0x08c379a000000000000000000000000000000000000000000000000000000000\n  dup2\n  mstore\n  0x04\n  add\n  tag_26\n  swap1\n  tag_27\n  jump\t// in\ntag_26:\n  mload(0x40)\n  dup1\n  swap2\n  sub\n  swap1\n  revert\ntag_25:\n    /* \"contracts/PadiTokenStable.sol\":969:975  10_000 */\n  0x2710\n    /* \"contracts/PadiTokenStable.sol\":2442:2464  _mintFeeBps <= MAX_BPS */\n  0xffff\n  and\n    /* \"contracts/PadiTokenStable.sol\":2442:2453  _mintFeeBps */\n  dup3\n    /* \"contracts/PadiTokenStable.sol\":2442:2464  _mintFeeBps <= MAX_BPS */\n  0xffff\n  and\n  gt\n  iszero\n    /* \"contracts/PadiTokenStable.sol\":2434:2486  require(_mintFeeBps <= MAX_BPS, \"Mint fee too high\") */\n  tag_28\n  jumpi\n  mload(0x40)\n  0x08c379a000000000000000000000000000000000000000000000000000000000\n  dup2\n  mstore\n  0x04\n  add\n  tag_29\n  swap1\n  tag_30\n  jump\t// in\ntag_29:\n  mload(0x40)\n  dup1\n  swap2\n  sub\n  swap1\n  revert\ntag_28:\n    /* \"contracts/PadiTokenStable.sol\":969:975  10_000 */\n  0x2710\n    /* \"contracts/PadiTokenStable.sol\":2504:2528  _redeemFeeBps <= MAX_BPS */\n  0xffff\n  and\n    /* \"contracts/PadiTokenStable.sol\":2504:2517  _redeemFeeBps */\n  dup2\n    /* \"contracts/PadiTokenStable.sol\":2504:2528  _redeemFeeBps <= MAX_BPS */\n  0xffff\n  and\n  gt\n  iszero\n    /* \"contracts/PadiTokenStable.sol\":2496:2552  require(_redeemFeeBps <= MAX_BPS, \"Redeem fee too high\") */\n  tag_31\n  jumpi\n  mload(0x40)\n  0x08c379a000000000000000000000000000000000000000000000000000000000\n  dup2\n  mstore\n  0x04\n  add\n  tag_32\n  swap1\n  tag_33\n  jump\t// in\ntag_32:\n  mload(0x40)\n  dup1\n  swap2\n  sub\n  swap1\n  revert\ntag_31:\n    /* \"contracts/PadiTokenStable.sol\":2577:2589  _cusdAddress */\n  dup4\n    /* \"contracts/PadiTokenStable.sol\":2563:2590  cusd = IERC20(_cusdAddress) */\n  0xffffffffffffffffffffffffffffffffffffffff\n  and\n  0x80\n  dup2\n  0xffffffffffffffffffffffffffffffffffffffff\n  and\n  dup2\n  mstore\n  pop\n  pop\n    /* \"contracts/PadiTokenStable.sol\":2611:2620  _treasury */\n  dup3\n    /* \"contracts/PadiTokenStable.sol\":2600:2608  treasury */\n  0x07\n  0x00\n    /* \"contracts/PadiTokenStable.sol\":2600:2620  treasury = _treasury */\n  0x0100\n  exp\n  dup2\n  sload\n  dup2\n  0xffffffffffffffffffffffffffffffffffffffff\n  mul\n  not\n  and\n  swap1\n  dup4\n  0xffffffffffffffffffffffffffffffffffffffff\n  and\n  mul\n  or\n  swap1\n  sstore\n  pop\n    /* \"contracts/PadiTokenStable.sol\":2643:2654  _mintFeeBps */\n  dup2\n    /* \"contracts/PadiTokenStable.sol\":2630:2640  mintFeeBps */\n  0x07\n  0x14\n    /* \"contracts/PadiTokenStable.sol\":2630:2654  mintFeeBps = _mintFeeBps */\n  0x0100\n  exp\n  dup2\n  sload\n  dup2\n  0xffff\n  mul\n  not\n  and\n  swap1\n  dup4\n  0xffff\n  and\n  mul\n  or\n  swap1\n  sstore\n  pop\n    /* \"contracts/PadiTokenStable.sol\":2679:2692  _redeemFeeBps */\n  dup1\n    /* \"contracts/PadiTokenStable.sol\":2664:2676  redeemFeeBps */\n  0x07\n  0x16\n    /* \"contracts/PadiTokenStable.sol\":2664:2692  redeemFeeBps = _redeemFeeBps */\n  0x0100\n  exp\n  dup2\n  sload\n  dup2\n  0xffff\n  mul\n  not\n  and\n  swap1\n  dup4\n  0xffff\n  and\n  mul\n  or\n  swap1\n  sstore\n  pop\n    /* \"contracts/PadiTokenStable.sol\":2104:2699  constructor(... */\n  pop\n  pop\n  pop\n  pop\n    /* \"contracts/PadiTokenStable.sol\":607:5446  contract PadiToken is ERC20, Ownable, Pausable, ReentrancyGuard {... */\n  jump(tag_34)\n    /* \"@openzeppelin/contracts/access/Ownable.sol\":2912:3099  function _transferOwnership(address newOwner) internal virtual {... */\ntag_18:\n    /* \"@openzeppelin/contracts/access/Ownable.sol\":2985:3001  address oldOwner */\n  0x00\n    /* \"@openzeppelin/contracts/access/Ownable.sol\":3004:3010  _owner */\n  0x05\n  0x00\n  swap1\n  sload\n  swap1\n  0x0100\n  exp\n  swap1\n  div\n  0xffffffffffffffffffffffffffffffffffffffff\n  and\n    /* \"@openzeppelin/contracts/access/Ownable.sol\":2985:3010  address oldOwner = _owner */\n  swap1\n  pop\n    /* \"@openzeppelin/contracts/access/Ownable.sol\":3029:3037  newOwner */\n  dup2\n    /* \"@openzeppelin/contracts/access/Ownable.sol\":3020:3026  _owner */\n  0x05\n  0x00\n    /* \"@openzeppelin/contracts/access/Ownable.sol\":3020:3037  _owner = newOwner */\n  0x0100\n  exp\n  dup2\n  sload\n  dup2\n  0xffffffffffffffffffffffffffffffffffffffff\n  mul\n  not\n  and\n  swap1\n  dup4\n  0xffffffffffffffffffffffffffffffffffffffff\n  and\n  mul\n  or\n  swap1\n  sstore\n  pop\n    /* \"@openzeppelin/contracts/access/Ownable.sol\":3083:3091  newOwner */\n  dup2\n    /* \"@openzeppelin/contracts/access/Ownable.sol\":3052:3092  OwnershipTransferred(oldOwner, newOwner) */\n  0xffffffffffffffffffffffffffffffffffffffff\n  and\n    /* \"@openzeppelin/contracts/access/Ownable.sol\":3073:3081  oldOwner */\n  dup2\n    /* \"@openzeppelin/contracts/access/Ownable.sol\":3052:3092  OwnershipTransferred(oldOwner, newOwner) */\n  0xffffffffffffffffffffffffffffffffffffffff\n  and\n  0x8be0079c531659141344cd1fd0a4f28419497f9722a3daafe3b4186f6b6457e0\n  mload(0x40)\n  mload(0x40)\n  dup1\n  swap2\n  sub\n  swap1\n  log3\n    /* \"@openzeppelin/contracts/access/Ownable.sol\":2975:3099  {... */\n  pop\n    /* \"@openzeppelin/contracts/access/Ownable.sol\":2912:3099  function _transferOwnership(address newOwner) internal virtual {... */\n  pop\n  jump\t// out\n    /* \"#utility.yul\":88:205   */\ntag_37:\n    /* \"#utility.yul\":197:198   */\n  0x00\n    /* \"#utility.yul\":194:195   */\n  dup1\n    /* \"#utility.yul\":187:199   */\n  revert\n    /* \"#utility.yul\":334:460   */\ntag_39:\n    /* \"#utility.yul\":371:378   */\n  0x00\n    /* \"#utility.yul\":411:453   */\n  0xffffffffffffffffffffffffffffffffffffffff\n    /* \"#utility.yul\":404:409   */\n  dup3\n    /* \"#utility.yul\":400:454   */\n  and\n    /* \"#utility.yul\":389:454   */\n  swap1\n  pop\n    /* \"#utility.yul\":334:460   */\n  swap2\n  swap1\n  pop\n  jump\t// out\n    /* \"#utility.yul\":466:562   */\ntag_40:\n    /* \"#utility.yul\":503:510   */\n  0x00\n    /* \"#utility.yul\":532:556   */\n  tag_82\n    /* \"#utility.yul\":550:555   */\n  dup3\n    /* \"#utility.yul\":532:556   */\n  tag_39\n  jump\t// in\ntag_82:\n    /* \"#utility.yul\":521:556   */\n  swap1\n  pop\n    /* \"#utility.yul\":466:562   */\n  swap2\n  swap1\n  pop\n  jump\t// out\n    /* \"#utility.yul\":568:690   */\ntag_41:\n    /* \"#utility.yul\":641:665   */\n  tag_84\n    /* \"#utility.yul\":659:664   */\n  dup2\n    /* \"#utility.yul\":641:665   */\n  tag_40\n  jump\t// in\ntag_84:\n    /* \"#utility.yul\":634:639   */\n  dup2\n    /* \"#utility.yul\":631:666   */\n  eq\n    /* \"#utility.yul\":621:684   */\n  tag_85\n  jumpi\n    /* \"#utility.yul\":680:681   */\n  0x00\n    /* \"#utility.yul\":677:678   */\n  dup1\n    /* \"#utility.yul\":670:682   */\n  revert\n    /* \"#utility.yul\":621:684   */\ntag_85:\n    /* \"#utility.yul\":568:690   */\n  pop\n  jump\t// out\n    /* \"#utility.yul\":696:839   */\ntag_42:\n    /* \"#utility.yul\":753:758   */\n  0x00\n    /* \"#utility.yul\":784:790   */\n  dup2\n    /* \"#utility.yul\":778:791   */\n  mload\n    /* \"#utility.yul\":769:791   */\n  swap1\n  pop\n    /* \"#utility.yul\":800:833   */\n  tag_87\n    /* \"#utility.yul\":827:832   */\n  dup2\n    /* \"#utility.yul\":800:833   */\n  tag_41\n  jump\t// in\ntag_87:\n    /* \"#utility.yul\":696:839   */\n  swap3\n  swap2\n  pop\n  pop\n  jump\t// out\n    /* \"#utility.yul\":845:934   */\ntag_43:\n    /* \"#utility.yul\":881:888   */\n  0x00\n    /* \"#utility.yul\":921:927   */\n  0xffff\n    /* \"#utility.yul\":914:919   */\n  dup3\n    /* \"#utility.yul\":910:928   */\n  and\n    /* \"#utility.yul\":899:928   */\n  swap1\n  pop\n    /* \"#utility.yul\":845:934   */\n  swap2\n  swap1\n  pop\n  jump\t// out\n    /* \"#utility.yul\":940:1060   */\ntag_44:\n    /* \"#utility.yul\":1012:1035   */\n  tag_90\n    /* \"#utility.yul\":1029:1034   */\n  dup2\n    /* \"#utility.yul\":1012:1035   */\n  tag_43\n  jump\t// in\ntag_90:\n    /* \"#utility.yul\":1005:1010   */\n  dup2\n    /* \"#utility.yul\":1002:1036   */\n  eq\n    /* \"#utility.yul\":992:1054   */\n  tag_91\n  jumpi\n    /* \"#utility.yul\":1050:1051   */\n  0x00\n    /* \"#utility.yul\":1047:1048   */\n  dup1\n    /* \"#utility.yul\":1040:1052   */\n  revert\n    /* \"#utility.yul\":992:1054   */\ntag_91:\n    /* \"#utility.yul\":940:1060   */\n  pop\n  jump\t// out\n    /* \"#utility.yul\":1066:1207   */\ntag_45:\n    /* \"#utility.yul\":1122:1127   */\n  0x00\n    /* \"#utility.yul\":1153:1159   */\n  dup2\n    /* \"#utility.yul\":1147:1160   */\n  mload\n    /* \"#utility.yul\":1138:1160   */\n  swap1\n  pop\n    /* \"#utility.yul\":1169:1201   */\n  tag_93\n    /* \"#utility.yul\":1195:1200   */\n  dup2\n    /* \"#utility.yul\":1169:1201   */\n  tag_44\n  jump\t// in\ntag_93:\n    /* \"#utility.yul\":1066:1207   */\n  swap3\n  swap2\n  pop\n  pop\n  jump\t// out\n    /* \"#utility.yul\":1213:2029   */\ntag_3:\n    /* \"#utility.yul\":1308:1314   */\n  0x00\n    /* \"#utility.yul\":1316:1322   */\n  dup1\n    /* \"#utility.yul\":1324:1330   */\n  0x00\n    /* \"#utility.yul\":1332:1338   */\n  dup1\n    /* \"#utility.yul\":1381:1384   */\n  0x80\n    /* \"#utility.yul\":1369:1378   */\n  dup6\n    /* \"#utility.yul\":1360:1367   */\n  dup8\n    /* \"#utility.yul\":1356:1379   */\n  sub\n    /* \"#utility.yul\":1352:1385   */\n  slt\n    /* \"#utility.yul\":1349:1469   */\n  iszero\n  tag_95\n  jumpi\n    /* \"#utility.yul\":1388:1467   */\n  tag_96\n  tag_37\n  jump\t// in\ntag_96:\n    /* \"#utility.yul\":1349:1469   */\ntag_95:\n    /* \"#utility.yul\":1508:1509   */\n  0x00\n    /* \"#utility.yul\":1533:1597   */\n  tag_97\n    /* \"#utility.yul\":1589:1596   */\n  dup8\n    /* \"#utility.yul\":1580:1586   */\n  dup3\n    /* \"#utility.yul\":1569:1578   */\n  dup9\n    /* \"#utility.yul\":1565:1587   */\n  add\n    /* \"#utility.yul\":1533:1597   */\n  tag_42\n  jump\t// in\ntag_97:\n    /* \"#utility.yul\":1523:1597   */\n  swap5\n  pop\n    /* \"#utility.yul\":1479:1607   */\n  pop\n    /* \"#utility.yul\":1646:1648   */\n  0x20\n    /* \"#utility.yul\":1672:1736   */\n  tag_98\n    /* \"#utility.yul\":1728:1735   */\n  dup8\n    /* \"#utility.yul\":1719:1725   */\n  dup3\n    /* \"#utility.yul\":1708:1717   */\n  dup9\n    /* \"#utility.yul\":1704:1726   */\n  add\n    /* \"#utility.yul\":1672:1736   */\n  tag_42\n  jump\t// in\ntag_98:\n    /* \"#utility.yul\":1662:1736   */\n  swap4\n  pop\n    /* \"#utility.yul\":1617:1746   */\n  pop\n    /* \"#utility.yul\":1785:1787   */\n  0x40\n    /* \"#utility.yul\":1811:1874   */\n  tag_99\n    /* \"#utility.yul\":1866:1873   */\n  dup8\n    /* \"#utility.yul\":1857:1863   */\n  dup3\n    /* \"#utility.yul\":1846:1855   */\n  dup9\n    /* \"#utility.yul\":1842:1864   */\n  add\n    /* \"#utility.yul\":1811:1874   */\n  tag_45\n  jump\t// in\ntag_99:\n    /* \"#utility.yul\":1801:1874   */\n  swap3\n  pop\n    /* \"#utility.yul\":1756:1884   */\n  pop\n    /* \"#utility.yul\":1923:1925   */\n  0x60\n    /* \"#utility.yul\":1949:2012   */\n  tag_100\n    /* \"#utility.yul\":2004:2011   */\n  dup8\n    /* \"#utility.yul\":1995:2001   */\n  dup3\n    /* \"#utility.yul\":1984:1993   */\n  dup9\n    /* \"#utility.yul\":1980:2002   */\n  add\n    /* \"#utility.yul\":1949:2012   */\n  tag_45\n  jump\t// in\ntag_100:\n    /* \"#utility.yul\":1939:2012   */\n  swap2\n  pop\n    /* \"#utility.yul\":1894:2022   */\n  pop\n    /* \"#utility.yul\":1213:2029   */\n  swap3\n  swap6\n  swap2\n  swap5\n  pop\n  swap3\n  pop\n  jump\t// out\n    /* \"#utility.yul\":2035:2134   */\ntag_46:\n    /* \"#utility.yul\":2087:2093   */\n  0x00\n    /* \"#utility.yul\":2121:2126   */\n  dup2\n    /* \"#utility.yul\":2115:2127   */\n  mload\n    /* \"#utility.yul\":2105:2127   */\n  swap1\n  pop\n    /* \"#utility.yul\":2035:2134   */\n  swap2\n  swap1\n  pop\n  jump\t// out\n    /* \"#utility.yul\":2140:2320   */\ntag_47:\n    /* \"#utility.yul\":2188:2265   */\n  0x4e487b7100000000000000000000000000000000000000000000000000000000\n    /* \"#utility.yul\":2185:2186   */\n  0x00\n    /* \"#utility.yul\":2178:2266   */\n  mstore\n    /* \"#utility.yul\":2285:2289   */\n  0x41\n    /* \"#utility.yul\":2282:2283   */\n  0x04\n    /* \"#utility.yul\":2275:2290   */\n  mstore\n    /* \"#utility.yul\":2309:2313   */\n  0x24\n    /* \"#utility.yul\":2306:2307   */\n  0x00\n    /* \"#utility.yul\":2299:2314   */\n  revert\n    /* \"#utility.yul\":2326:2506   */\ntag_48:\n    /* \"#utility.yul\":2374:2451   */\n  0x4e487b7100000000000000000000000000000000000000000000000000000000\n    /* \"#utility.yul\":2371:2372   */\n  0x00\n    /* \"#utility.yul\":2364:2452   */\n  mstore\n    /* \"#utility.yul\":2471:2475   */\n  0x22\n    /* \"#utility.yul\":2468:2469   */\n  0x04\n    /* \"#utility.yul\":2461:2476   */\n  mstore\n    /* \"#utility.yul\":2495:2499   */\n  0x24\n    /* \"#utility.yul\":2492:2493   */\n  0x00\n    /* \"#utility.yul\":2485:2500   */\n  revert\n    /* \"#utility.yul\":2512:2832   */\ntag_49:\n    /* \"#utility.yul\":2556:2562   */\n  0x00\n    /* \"#utility.yul\":2593:2594   */\n  0x02\n    /* \"#utility.yul\":2587:2591   */\n  dup3\n    /* \"#utility.yul\":2583:2595   */\n  div\n    /* \"#utility.yul\":2573:2595   */\n  swap1\n  pop\n    /* \"#utility.yul\":2640:2641   */\n  0x01\n    /* \"#utility.yul\":2634:2638   */\n  dup3\n    /* \"#utility.yul\":2630:2642   */\n  and\n    /* \"#utility.yul\":2661:2679   */\n  dup1\n    /* \"#utility.yul\":2651:2732   */\n  tag_105\n  jumpi\n    /* \"#utility.yul\":2717:2721   */\n  0x7f\n    /* \"#utility.yul\":2709:2715   */\n  dup3\n    /* \"#utility.yul\":2705:2722   */\n  and\n    /* \"#utility.yul\":2695:2722   */\n  swap2\n  pop\n    /* \"#utility.yul\":2651:2732   */\ntag_105:\n    /* \"#utility.yul\":2779:2781   */\n  0x20\n    /* \"#utility.yul\":2771:2777   */\n  dup3\n    /* \"#utility.yul\":2768:2782   */\n  lt\n    /* \"#utility.yul\":2748:2766   */\n  dup2\n    /* \"#utility.yul\":2745:2783   */\n  sub\n    /* \"#utility.yul\":2742:2826   */\n  tag_106\n  jumpi\n    /* \"#utility.yul\":2798:2816   */\n  tag_107\n  tag_48\n  jump\t// in\ntag_107:\n    /* \"#utility.yul\":2742:2826   */\ntag_106:\n    /* \"#utility.yul\":2563:2832   */\n  pop\n    /* \"#utility.yul\":2512:2832   */\n  swap2\n  swap1\n  pop\n  jump\t// out\n    /* \"#utility.yul\":2838:2979   */\ntag_50:\n    /* \"#utility.yul\":2887:2891   */\n  0x00\n    /* \"#utility.yul\":2910:2913   */\n  dup2\n    /* \"#utility.yul\":2902:2913   */\n  swap1\n  pop\n    /* \"#utility.yul\":2933:2936   */\n  dup2\n    /* \"#utility.yul\":2930:2931   */\n  0x00\n    /* \"#utility.yul\":2923:2937   */\n  mstore\n    /* \"#utility.yul\":2967:2971   */\n  0x20\n    /* \"#utility.yul\":2964:2965   */\n  0x00\n    /* \"#utility.yul\":2954:2972   */\n  keccak256\n    /* \"#utility.yul\":2946:2972   */\n  swap1\n  pop\n    /* \"#utility.yul\":2838:2979   */\n  swap2\n  swap1\n  pop\n  jump\t// out\n    /* \"#utility.yul\":2985:3078   */\ntag_51:\n    /* \"#utility.yul\":3022:3028   */\n  0x00\n    /* \"#utility.yul\":3069:3071   */\n  0x20\n    /* \"#utility.yul\":3064:3066   */\n  0x1f\n    /* \"#utility.yul\":3057:3062   */\n  dup4\n    /* \"#utility.yul\":3053:3067   */\n  add\n    /* \"#utility.yul\":3049:3072   */\n  div\n    /* \"#utility.yul\":3039:3072   */\n  swap1\n  pop\n    /* \"#utility.yul\":2985:3078   */\n  swap2\n  swap1\n  pop\n  jump\t// out\n    /* \"#utility.yul\":3084:3191   */\ntag_52:\n    /* \"#utility.yul\":3128:3136   */\n  0x00\n    /* \"#utility.yul\":3178:3183   */\n  dup3\n    /* \"#utility.yul\":3172:3176   */\n  dup3\n    /* \"#utility.yul\":3168:3184   */\n  shl\n    /* \"#utility.yul\":3147:3184   */\n  swap1\n  pop\n    /* \"#utility.yul\":3084:3191   */\n  swap3\n  swap2\n  pop\n  pop\n  jump\t// out\n    /* \"#utility.yul\":3197:3590   */\ntag_53:\n    /* \"#utility.yul\":3266:3272   */\n  0x00\n    /* \"#utility.yul\":3316:3317   */\n  0x08\n    /* \"#utility.yul\":3304:3314   */\n  dup4\n    /* \"#utility.yul\":3300:3318   */\n  mul\n    /* \"#utility.yul\":3339:3436   */\n  tag_112\n    /* \"#utility.yul\":3369:3435   */\n  0xffffffffffffffffffffffffffffffffffffffffffffffffffffffffffffffff\n    /* \"#utility.yul\":3358:3367   */\n  dup3\n    /* \"#utility.yul\":3339:3436   */\n  tag_52\n  jump\t// in\ntag_112:\n    /* \"#utility.yul\":3457:3496   */\n  tag_113\n    /* \"#utility.yul\":3487:3495   */\n  dup7\n    /* \"#utility.yul\":3476:3485   */\n  dup4\n    /* \"#utility.yul\":3457:3496   */\n  tag_52\n  jump\t// in\ntag_113:\n    /* \"#utility.yul\":3445:3496   */\n  swap6\n  pop\n    /* \"#utility.yul\":3529:3533   */\n  dup1\n    /* \"#utility.yul\":3525:3534   */\n  not\n    /* \"#utility.yul\":3518:3523   */\n  dup5\n    /* \"#utility.yul\":3514:3535   */\n  and\n    /* \"#utility.yul\":3505:3535   */\n  swap4\n  pop\n    /* \"#utility.yul\":3578:3582   */\n  dup1\n    /* \"#utility.yul\":3568:3576   */\n  dup7\n    /* \"#utility.yul\":3564:3583   */\n  and\n    /* \"#utility.yul\":3557:3562   */\n  dup5\n    /* \"#utility.yul\":3554:3584   */\n  or\n    /* \"#utility.yul\":3544:3584   */\n  swap3\n  pop\n    /* \"#utility.yul\":3273:3590   */\n  pop\n  pop\n    /* \"#utility.yul\":3197:3590   */\n  swap4\n  swap3\n  pop\n  pop\n  pop\n  jump\t// out\n    /* \"#utility.yul\":3596:3673   */\ntag_54:\n    /* \"#utility.yul\":3633:3640   */\n  0x00\n    /* \"#utility.yul\":3662:3667   */\n  dup2\n    /* \"#utility.yul\":3651:3667   */\n  swap1\n  pop\n    /* \"#utility.yul\":3596:3673   */\n  swap2\n  swap1\n  pop\n  jump\t// out\n    /* \"#utility.yul\":3679:3739   */\ntag_55:\n    /* \"#utility.yul\":3707:3710   */\n  0x00\n    /* \"#utility.yul\":3728:3733   */\n  dup2\n    /* \"#utility.yul\":3721:3733   */\n  swap1\n  pop\n    /* \"#utility.yul\":3679:3739   */\n  swap2\n  swap1\n  pop\n  jump\t// out\n    /* \"#utility.yul\":3745:3887   */\ntag_56:\n    /* \"#utility.yul\":3795:3804   */\n  0x00\n    /* \"#utility.yul\":3828:3881   */\n  tag_117\n    /* \"#utility.yul\":3846:3880   */\n  tag_118\n    /* \"#utility.yul\":3855:3879   */\n  tag_119\n    /* \"#utility.yul\":3873:3878   */\n  dup5\n    /* \"#utility.yul\":3855:3879   */\n  tag_54\n  jump\t// in\ntag_119:\n    /* \"#utility.yul\":3846:3880   */\n  tag_55\n  jump\t// in\ntag_118:\n    /* \"#utility.yul\":3828:3881   */\n  tag_54\n  jump\t// in\ntag_117:\n    /* \"#utility.yul\":3815:3881   */\n  swap1\n  pop\n    /* \"#utility.yul\":3745:3887   */\n  swap2\n  swap1\n  pop\n  jump\t// out\n    /* \"#utility.yul\":3893:3968   */\ntag_57:\n    /* \"#utility.yul\":3936:3939   */\n  0x00\n    /* \"#utility.yul\":3957:3962   */\n  dup2\n    /* \"#utility.yul\":3950:3962   */\n  swap1\n  pop\n    /* \"#utility.yul\":3893:3968   */\n  swap2\n  swap1\n  pop\n  jump\t// out\n    /* \"#utility.yul\":3974:4243   */\ntag_58:\n    /* \"#utility.yul\":4084:4123   */\n  tag_122\n    /* \"#utility.yul\":4115:4122   */\n  dup4\n    /* \"#utility.yul\":4084:4123   */\n  tag_56\n  jump\t// in\ntag_122:\n    /* \"#utility.yul\":4145:4236   */\n  tag_123\n    /* \"#utility.yul\":4194:4235   */\n  tag_124\n    /* \"#utility.yul\":4218:4234   */\n  dup3\n    /* \"#utility.yul\":4194:4235   */\n  tag_57\n  jump\t// in\ntag_124:\n    /* \"#utility.yul\":4186:4192   */\n  dup5\n    /* \"#utility.yul\":4179:4183   */\n  dup5\n    /* \"#utility.yul\":4173:4184   */\n  sload\n    /* \"#utility.yul\":4145:4236   */\n  tag_53\n  jump\t// in\ntag_123:\n    /* \"#utility.yul\":4139:4143   */\n  dup3\n    /* \"#utility.yul\":4132:4237   */\n  sstore\n    /* \"#utility.yul\":4050:4243   */\n  pop\n    /* \"#utility.yul\":3974:4243   */\n  pop\n  pop\n  pop\n  jump\t// out\n    /* \"#utility.yul\":4249:4322   */\ntag_59:\n    /* \"#utility.yul\":4294:4297   */\n  0x00\n    /* \"#utility.yul\":4249:4322   */\n  swap1\n  jump\t// out\n    /* \"#utility.yul\":4328:4517   */\ntag_60:\n    /* \"#utility.yul\":4405:4437   */\n  tag_127\n  tag_59\n  jump\t// in\ntag_127:\n    /* \"#utility.yul\":4446:4511   */\n  tag_128\n    /* \"#utility.yul\":4504:4510   */\n  dup2\n    /* \"#utility.yul\":4496:4502   */\n  dup5\n    /* \"#utility.yul\":4490:4494   */\n  dup5\n    /* \"#utility.yul\":4446:4511   */\n  tag_58\n  jump\t// in\ntag_128:\n    /* \"#utility.yul\":4381:4517   */\n  pop\n    /* \"#utility.yul\":4328:4517   */\n  pop\n  pop\n  jump\t// out\n    /* \"#utility.yul\":4523:4709   */\ntag_61:\n    /* \"#utility.yul\":4583:4703   */\ntag_130:\n    /* \"#utility.yul\":4600:4603   */\n  dup2\n    /* \"#utility.yul\":4593:4598   */\n  dup2\n    /* \"#utility.yul\":4590:4604   */\n  lt\n    /* \"#utility.yul\":4583:4703   */\n  iszero\n  tag_132\n  jumpi\n    /* \"#utility.yul\":4654:4693   */\n  tag_133\n    /* \"#utility.yul\":4691:4692   */\n  0x00\n    /* \"#utility.yul\":4684:4689   */\n  dup3\n    /* \"#utility.yul\":4654:4693   */\n  tag_60\n  jump\t// in\ntag_133:\n    /* \"#utility.yul\":4627:4628   */\n  0x01\n    /* \"#utility.yul\":4620:4625   */\n  dup2\n    /* \"#utility.yul\":4616:4629   */\n  add\n    /* \"#utility.yul\":4607:4629   */\n  swap1\n  pop\n    /* \"#utility.yul\":4583:4703   */\n  jump(tag_130)\ntag_132:\n    /* \"#utility.yul\":4523:4709   */\n  pop\n  pop\n  jump\t// out\n    /* \"#utility.yul\":4715:5258   */\ntag_62:\n    /* \"#utility.yul\":4816:4818   */\n  0x1f\n    /* \"#utility.yul\":4811:4814   */\n  dup3\n    /* \"#utility.yul\":4808:4819   */\n  gt\n    /* \"#utility.yul\":4805:5251   */\n  iszero\n  tag_135\n  jumpi\n    /* \"#utility.yul\":4850:4888   */\n  tag_136\n    /* \"#utility.yul\":4882:4887   */\n  dup2\n    /* \"#utility.yul\":4850:4888   */\n  tag_50\n  jump\t// in\ntag_136:\n    /* \"#utility.yul\":4934:4963   */\n  tag_137\n    /* \"#utility.yul\":4952:4962   */\n  dup5\n    /* \"#utility.yul\":4934:4963   */\n  tag_51\n  jump\t// in\ntag_137:\n    /* \"#utility.yul\":4924:4932   */\n  dup2\n    /* \"#utility.yul\":4920:4964   */\n  add\n    /* \"#utility.yul\":5117:5119   */\n  0x20\n    /* \"#utility.yul\":5105:5115   */\n  dup6\n    /* \"#utility.yul\":5102:5120   */\n  lt\n    /* \"#utility.yul\":5099:5148   */\n  iszero\n  tag_138\n  jumpi\n    /* \"#utility.yul\":5138:5146   */\n  dup2\n    /* \"#utility.yul\":5123:5146   */\n  swap1\n  pop\n    /* \"#utility.yul\":5099:5148   */\ntag_138:\n    /* \"#utility.yul\":5161:5241   */\n  tag_139\n    /* \"#utility.yul\":5217:5239   */\n  tag_140\n    /* \"#utility.yul\":5235:5238   */\n  dup6\n    /* \"#utility.yul\":5217:5239   */\n  tag_51\n  jump\t// in\ntag_140:\n    /* \"#utility.yul\":5207:5215   */\n  dup4\n    /* \"#utility.yul\":5203:5240   */\n  add\n    /* \"#utility.yul\":5190:5201   */\n  dup3\n    /* \"#utility.yul\":5161:5241   */\n  tag_61\n  jump\t// in\ntag_139:\n    /* \"#utility.yul\":4820:5251   */\n  pop\n  pop\n    /* \"#utility.yul\":4805:5251   */\ntag_135:\n    /* \"#utility.yul\":4715:5258   */\n  pop\n  pop\n  pop\n  jump\t// out\n    /* \"#utility.yul\":5264:5381   */\ntag_63:\n    /* \"#utility.yul\":5318:5326   */\n  0x00\n    /* \"#utility.yul\":5368:5373   */\n  dup3\n    /* \"#utility.yul\":5362:5366   */\n  dup3\n    /* \"#utility.yul\":5358:5374   */\n  shr\n    /* \"#utility.yul\":5337:5374   */\n  swap1\n  pop\n    /* \"#utility.yul\":5264:5381   */\n  swap3\n  swap2\n  pop\n  pop\n  jump\t// out\n    /* \"#utility.yul\":5387:5556   */\ntag_64:\n    /* \"#utility.yul\":5431:5437   */\n  0x00\n    /* \"#utility.yul\":5464:5515   */\n  tag_143\n    /* \"#utility.yul\":5512:5513   */\n  0x00\n    /* \"#utility.yul\":5508:5514   */\n  not\n    /* \"#utility.yul\":5500:5505   */\n  dup5\n    /* \"#utility.yul\":5497:5498   */\n  0x08\n    /* \"#utility.yul\":5493:5506   */\n  mul\n    /* \"#utility.yul\":5464:5515   */\n  tag_63\n  jump\t// in\ntag_143:\n    /* \"#utility.yul\":5460:5516   */\n  not\n    /* \"#utility.yul\":5545:5549   */\n  dup1\n    /* \"#utility.yul\":5539:5543   */\n  dup4\n    /* \"#utility.yul\":5535:5550   */\n  and\n    /* \"#utility.yul\":5525:5550   */\n  swap2\n  pop\n    /* \"#utility.yul\":5438:5556   */\n  pop\n    /* \"#utility.yul\":5387:5556   */\n  swap3\n  swap2\n  pop\n  pop\n  jump\t// out\n    /* \"#utility.yul\":5561:5856   */\ntag_65:\n    /* \"#utility.yul\":5637:5641   */\n  0x00\n    /* \"#utility.yul\":5783:5812   */\n  tag_145\n    /* \"#utility.yul\":5808:5811   */\n  dup4\n    /* \"#utility.yul\":5802:5806   */\n  dup4\n    /* \"#utility.yul\":5783:5812   */\n  tag_64\n  jump\t// in\ntag_145:\n    /* \"#utility.yul\":5775:5812   */\n  swap2\n  pop\n    /* \"#utility.yul\":5845:5848   */\n  dup3\n    /* \"#utility.yul\":5842:5843   */\n  0x02\n    /* \"#utility.yul\":5838:5849   */\n  mul\n    /* \"#utility.yul\":5832:5836   */\n  dup3\n    /* \"#utility.yul\":5829:5850   */\n  or\n    /* \"#utility.yul\":5821:5850   */\n  swap1\n  pop\n    /* \"#utility.yul\":5561:5856   */\n  swap3\n  swap2\n  pop\n  pop\n  jump\t// out\n    /* \"#utility.yul\":5861:7256   */\ntag_11:\n    /* \"#utility.yul\":5978:6015   */\n  tag_147\n    /* \"#utility.yul\":6011:6014   */\n  dup3\n    /* \"#utility.yul\":5978:6015   */\n  tag_46\n  jump\t// in\ntag_147:\n    /* \"#utility.yul\":6080:6098   */\n  0xffffffffffffffff\n    /* \"#utility.yul\":6072:6078   */\n  dup2\n    /* \"#utility.yul\":6069:6099   */\n  gt\n    /* \"#utility.yul\":6066:6122   */\n  iszero\n  tag_148\n  jumpi\n    /* \"#utility.yul\":6102:6120   */\n  tag_149\n  tag_47\n  jump\t// in\ntag_149:\n    /* \"#utility.yul\":6066:6122   */\ntag_148:\n    /* \"#utility.yul\":6146:6184   */\n  tag_150\n    /* \"#utility.yul\":6178:6182   */\n  dup3\n    /* \"#utility.yul\":6172:6183   */\n  sload\n    /* \"#utility.yul\":6146:6184   */\n  tag_49\n  jump\t// in\ntag_150:\n    /* \"#utility.yul\":6231:6298   */\n  tag_151\n    /* \"#utility.yul\":6291:6297   */\n  dup3\n    /* \"#utility.yul\":6283:6289   */\n  dup3\n    /* \"#utility.yul\":6277:6281   */\n  dup6\n    /* \"#utility.yul\":6231:6298   */\n  tag_62\n  jump\t// in\ntag_151:\n    /* \"#utility.yul\":6325:6326   */\n  0x00\n    /* \"#utility.yul\":6349:6353   */\n  0x20\n    /* \"#utility.yul\":6336:6353   */\n  swap1\n  pop\n    /* \"#utility.yul\":6381:6383   */\n  0x1f\n    /* \"#utility.yul\":6373:6379   */\n  dup4\n    /* \"#utility.yul\":6370:6384   */\n  gt\n    /* \"#utility.yul\":6398:6399   */\n  0x01\n    /* \"#utility.yul\":6393:7011   */\n  dup2\n  eq\n  tag_153\n  jumpi\n    /* \"#utility.yul\":7055:7056   */\n  0x00\n    /* \"#utility.yul\":7072:7078   */\n  dup5\n    /* \"#utility.yul\":7069:7146   */\n  iszero\n  tag_154\n  jumpi\n    /* \"#utility.yul\":7121:7130   */\n  dup3\n    /* \"#utility.yul\":7116:7119   */\n  dup8\n    /* \"#utility.yul\":7112:7131   */\n  add\n    /* \"#utility.yul\":7106:7132   */\n  mload\n    /* \"#utility.yul\":7097:7132   */\n  swap1\n  pop\n    /* \"#utility.yul\":7069:7146   */\ntag_154:\n    /* \"#utility.yul\":7172:7239   */\n  tag_155\n    /* \"#utility.yul\":7232:7238   */\n  dup6\n    /* \"#utility.yul\":7225:7230   */\n  dup3\n    /* \"#utility.yul\":7172:7239   */\n  tag_65\n  jump\t// in\ntag_155:\n    /* \"#utility.yul\":7166:7170   */\n  dup7\n    /* \"#utility.yul\":7159:7240   */\n  sstore\n    /* \"#utility.yul\":7028:7250   */\n  pop\n    /* \"#utility.yul\":6363:7250   */\n  jump(tag_152)\n    /* \"#utility.yul\":6393:7011   */\ntag_153:\n    /* \"#utility.yul\":6445:6449   */\n  0x1f\n    /* \"#utility.yul\":6441:6450   */\n  not\n    /* \"#utility.yul\":6433:6439   */\n  dup5\n    /* \"#utility.yul\":6429:6451   */\n  and\n    /* \"#utility.yul\":6479:6516   */\n  tag_156\n    /* \"#utility.yul\":6511:6515   */\n  dup7\n    /* \"#utility.yul\":6479:6516   */\n  tag_50\n  jump\t// in\ntag_156:\n    /* \"#utility.yul\":6538:6539   */\n  0x00\n    /* \"#utility.yul\":6552:6760   */\ntag_157:\n    /* \"#utility.yul\":6566:6573   */\n  dup3\n    /* \"#utility.yul\":6563:6564   */\n  dup2\n    /* \"#utility.yul\":6560:6574   */\n  lt\n    /* \"#utility.yul\":6552:6760   */\n  iszero\n  tag_159\n  jumpi\n    /* \"#utility.yul\":6645:6654   */\n  dup5\n    /* \"#utility.yul\":6640:6643   */\n  dup10\n    /* \"#utility.yul\":6636:6655   */\n  add\n    /* \"#utility.yul\":6630:6656   */\n  mload\n    /* \"#utility.yul\":6622:6628   */\n  dup3\n    /* \"#utility.yul\":6615:6657   */\n  sstore\n    /* \"#utility.yul\":6696:6697   */\n  0x01\n    /* \"#utility.yul\":6688:6694   */\n  dup3\n    /* \"#utility.yul\":6684:6698   */\n  add\n    /* \"#utility.yul\":6674:6698   */\n  swap2\n  pop\n    /* \"#utility.yul\":6743:6745   */\n  0x20\n    /* \"#utility.yul\":6732:6741   */\n  dup6\n    /* \"#utility.yul\":6728:6746   */\n  add\n    /* \"#utility.yul\":6715:6746   */\n  swap5\n  pop\n    /* \"#utility.yul\":6589:6593   */\n  0x20\n    /* \"#utility.yul\":6586:6587   */\n  dup2\n    /* \"#utility.yul\":6582:6594   */\n  add\n    /* \"#utility.yul\":6577:6594   */\n  swap1\n  pop\n    /* \"#utility.yul\":6552:6760   */\n  jump(tag_157)\ntag_159:\n    /* \"#utility.yul\":6788:6794   */\n  dup7\n    /* \"#utility.yul\":6779:6786   */\n  dup4\n    /* \"#utility.yul\":6776:6795   */\n  lt\n    /* \"#utility.yul\":6773:6952   */\n  iszero\n  tag_160\n  jumpi\n    /* \"#utility.yul\":6846:6855   */\n  dup5\n    /* \"#utility.yul\":6841:6844   */\n  dup10\n    /* \"#utility.yul\":6837:6856   */\n  add\n    /* \"#utility.yul\":6831:6857   */\n  mload\n    /* \"#utility.yul\":6889:6937   */\n  tag_161\n    /* \"#utility.yul\":6931:6935   */\n  0x1f\n    /* \"#utility.yul\":6923:6929   */\n  dup10\n    /* \"#utility.yul\":6919:6936   */\n  and\n    /* \"#utility.yul\":6908:6917   */\n  dup3\n    /* \"#utility.yul\":6889:6937   */\n  tag_64\n  jump\t// in\ntag_161:\n    /* \"#utility.yul\":6881:6887   */\n  dup4\n    /* \"#utility.yul\":6874:6938   */\n  sstore\n    /* \"#utility.yul\":6796:6952   */\n  pop\n    /* \"#utility.yul\":6773:6952   */\ntag_160:\n    /* \"#utility.yul\":6998:6999   */\n  0x01\n    /* \"#utility.yul\":6994:6995   */\n  0x02\n    /* \"#utility.yul\":6986:6992   */\n  dup9\n    /* \"#utility.yul\":6982:6996   */\n  mul\n    /* \"#utility.yul\":6978:7000   */\n  add\n    /* \"#utility.yul\":6972:6976   */\n  dup9\n    /* \"#utility.yul\":6965:7001   */\n  sstore\n    /* \"#utility.yul\":6400:7011   */\n  pop\n  pop\n  pop\n    /* \"#utility.yul\":6363:7250   */\ntag_152:\n  pop\n    /* \"#utility.yul\":5953:7256   */\n  pop\n  pop\n  pop\n    /* \"#utility.yul\":5861:7256   */\n  pop\n  pop\n  jump\t// out\n    /* \"#utility.yul\":7262:7380   */\ntag_66:\n    /* \"#utility.yul\":7349:7373   */\n  tag_163\n    /* \"#utility.yul\":7367:7372   */\n  dup2\n    /* \"#utility.yul\":7349:7373   */\n  tag_40\n  jump\t// in\ntag_163:\n    /* \"#utility.yul\":7344:7347   */\n  dup3\n    /* \"#utility.yul\":7337:7374   */\n  mstore\n    /* \"#utility.yul\":7262:7380   */\n  pop\n  pop\n  jump\t// out\n    /* \"#utility.yul\":7386:7608   */\ntag_16:\n    /* \"#utility.yul\":7479:7483   */\n  0x00\n    /* \"#utility.yul\":7517:7519   */\n  0x20\n    /* \"#utility.yul\":7506:7515   */\n  dup3\n    /* \"#utility.yul\":7502:7520   */\n  add\n    /* \"#utility.yul\":7494:7520   */\n  swap1\n  pop\n    /* \"#utility.yul\":7530:7601   */\n  tag_165\n    /* \"#utility.yul\":7598:7599   */\n  0x00\n    /* \"#utility.yul\":7587:7596   */\n  dup4\n    /* \"#utility.yul\":7583:7600   */\n  add\n    /* \"#utility.yul\":7574:7580   */\n  dup5\n    /* \"#utility.yul\":7530:7601   */\n  tag_66\n  jump\t// in\ntag_165:\n    /* \"#utility.yul\":7386:7608   */\n  swap3\n  swap2\n  pop\n  pop\n  jump\t// out\n    /* \"#utility.yul\":7614:7783   */\ntag_67:\n    /* \"#utility.yul\":7698:7709   */\n  0x00\n    /* \"#utility.yul\":7732:7738   */\n  dup3\n    /* \"#utility.yul\":7727:7730   */\n  dup3\n    /* \"#utility.yul\":7720:7739   */\n  mstore\n    /* \"#utility.yul\":7772:7776   */\n  0x20\n    /* \"#utility.yul\":7767:7770   */\n  dup3\n    /* \"#utility.yul\":7763:7777   */\n  add\n    /* \"#utility.yul\":7748:7777   */\n  swap1\n  pop\n    /* \"#utility.yul\":7614:7783   */\n  swap3\n  swap2\n  pop\n  pop\n  jump\t// out\n    /* \"#utility.yul\":7789:7959   */\ntag_68:\n    /* \"#utility.yul\":7929:7951   */\n  0x496e76616c696420435553442061646472657373000000000000000000000000\n    /* \"#utility.yul\":7925:7926   */\n  0x00\n    /* \"#utility.yul\":7917:7923   */\n  dup3\n    /* \"#utility.yul\":7913:7927   */\n  add\n    /* \"#utility.yul\":7906:7952   */\n  mstore\n    /* \"#utility.yul\":7789:7959   */\n  pop\n  jump\t// out\n    /* \"#utility.yul\":7965:8331   */\ntag_69:\n    /* \"#utility.yul\":8107:8110   */\n  0x00\n    /* \"#utility.yul\":8128:8195   */\n  tag_169\n    /* \"#utility.yul\":8192:8194   */\n  0x14\n    /* \"#utility.yul\":8187:8190   */\n  dup4\n    /* \"#utility.yul\":8128:8195   */\n  tag_67\n  jump\t// in\ntag_169:\n    /* \"#utility.yul\":8121:8195   */\n  swap2\n  pop\n    /* \"#utility.yul\":8204:8297   */\n  tag_170\n    /* \"#utility.yul\":8293:8296   */\n  dup3\n    /* \"#utility.yul\":8204:8297   */\n  tag_68\n  jump\t// in\ntag_170:\n    /* \"#utility.yul\":8322:8324   */\n  0x20\n    /* \"#utility.yul\":8317:8320   */\n  dup3\n    /* \"#utility.yul\":8313:8325   */\n  add\n    /* \"#utility.yul\":8306:8325   */\n  swap1\n  pop\n    /* \"#utility.yul\":7965:8331   */\n  swap2\n  swap1\n  pop\n  jump\t// out\n    /* \"#utility.yul\":8337:8756   */\ntag_24:\n    /* \"#utility.yul\":8503:8507   */\n  0x00\n    /* \"#utility.yul\":8541:8543   */\n  0x20\n    /* \"#utility.yul\":8530:8539   */\n  dup3\n    /* \"#utility.yul\":8526:8544   */\n  add\n    /* \"#utility.yul\":8518:8544   */\n  swap1\n  pop\n    /* \"#utility.yul\":8590:8599   */\n  dup2\n    /* \"#utility.yul\":8584:8588   */\n  dup2\n    /* \"#utility.yul\":8580:8600   */\n  sub\n    /* \"#utility.yul\":8576:8577   */\n  0x00\n    /* \"#utility.yul\":8565:8574   */\n  dup4\n    /* \"#utility.yul\":8561:8578   */\n  add\n    /* \"#utility.yul\":8554:8601   */\n  mstore\n    /* \"#utility.yul\":8618:8749   */\n  tag_172\n    /* \"#utility.yul\":8744:8748   */\n  dup2\n    /* \"#utility.yul\":8618:8749   */\n  tag_69\n  jump\t// in\ntag_172:\n    /* \"#utility.yul\":8610:8749   */\n  swap1\n  pop\n    /* \"#utility.yul\":8337:8756   */\n  swap2\n  swap1\n  pop\n  jump\t// out\n    /* \"#utility.yul\":8762:8928   */\ntag_70:\n    /* \"#utility.yul\":8902:8920   */\n  0x496e76616c696420747265617375727900000000000000000000000000000000\n    /* \"#utility.yul\":8898:8899   */\n  0x00\n    /* \"#utility.yul\":8890:8896   */\n  dup3\n    /* \"#utility.yul\":8886:8900   */\n  add\n    /* \"#utility.yul\":8879:8921   */\n  mstore\n    /* \"#utility.yul\":8762:8928   */\n  pop\n  jump\t// out\n    /* \"#utility.yul\":8934:9300   */\ntag_71:\n    /* \"#utility.yul\":9076:9079   */\n  0x00\n    /* \"#utility.yul\":9097:9164   */\n  tag_175\n    /* \"#utility.yul\":9161:9163   */\n  0x10\n    /* \"#utility.yul\":9156:9159   */\n  dup4\n    /* \"#utility.yul\":9097:9164   */\n  tag_67\n  jump\t// in\ntag_175:\n    /* \"#utility.yul\":9090:9164   */\n  swap2\n  pop\n    /* \"#utility.yul\":9173:9266   */\n  tag_176\n    /* \"#utility.yul\":9262:9265   */\n  dup3\n    /* \"#utility.yul\":9173:9266   */\n  tag_70\n  jump\t// in\ntag_176:\n    /* \"#utility.yul\":9291:9293   */\n  0x20\n    /* \"#utility.yul\":9286:9289   */\n  dup3\n    /* \"#utility.yul\":9282:9294   */\n  add\n    /* \"#utility.yul\":9275:9294   */\n  swap1\n  pop\n    /* \"#utility.yul\":8934:9300   */\n  swap2\n  swap1\n  pop\n  jump\t// out\n    /* \"#utility.yul\":9306:9725   */\ntag_27:\n    /* \"#utility.yul\":9472:9476   */\n  0x00\n    /* \"#utility.yul\":9510:9512   */\n  0x20\n    /* \"#utility.yul\":9499:9508   */\n  dup3\n    /* \"#utility.yul\":9495:9513   */\n  add\n    /* \"#utility.yul\":9487:9513   */\n  swap1\n  pop\n    /* \"#utility.yul\":9559:9568   */\n  dup2\n    /* \"#utility.yul\":9553:9557   */\n  dup2\n    /* \"#utility.yul\":9549:9569   */\n  sub\n    /* \"#utility.yul\":9545:9546   */\n  0x00\n    /* \"#utility.yul\":9534:9543   */\n  dup4\n    /* \"#utility.yul\":9530:9547   */\n  add\n    /* \"#utility.yul\":9523:9570   */\n  mstore\n    /* \"#utility.yul\":9587:9718   */\n  tag_178\n    /* \"#utility.yul\":9713:9717   */\n  dup2\n    /* \"#utility.yul\":9587:9718   */\n  tag_71\n  jump\t// in\ntag_178:\n    /* \"#utility.yul\":9579:9718   */\n  swap1\n  pop\n    /* \"#utility.yul\":9306:9725   */\n  swap2\n  swap1\n  pop\n  jump\t// out\n    /* \"#utility.yul\":9731:9898   */\ntag_72:\n    /* \"#utility.yul\":9871:9890   */\n  0x4d696e742066656520746f6f2068696768000000000000000000000000000000\n    /* \"#utility.yul\":9867:9868   */\n  0x00\n    /* \"#utility.yul\":9859:9865   */\n  dup3\n    /* \"#utility.yul\":9855:9869   */\n  add\n    /* \"#utility.yul\":9848:9891   */\n  mstore\n    /* \"#utility.yul\":9731:9898   */\n  pop\n  jump\t// out\n    /* \"#utility.yul\":9904:10270   */\ntag_73:\n    /* \"#utility.yul\":10046:10049   */\n  0x00\n    /* \"#utility.yul\":10067:10134   */\n  tag_181\n    /* \"#utility.yul\":10131:10133   */\n  0x11\n    /* \"#utility.yul\":10126:10129   */\n  dup4\n    /* \"#utility.yul\":10067:10134   */\n  tag_67\n  jump\t// in\ntag_181:\n    /* \"#utility.yul\":10060:10134   */\n  swap2\n  pop\n    /* \"#utility.yul\":10143:10236   */\n  tag_182\n    /* \"#utility.yul\":10232:10235   */\n  dup3\n    /* \"#utility.yul\":10143:10236   */\n  tag_72\n  jump\t// in\ntag_182:\n    /* \"#utility.yul\":10261:10263   */\n  0x20\n    /* \"#utility.yul\":10256:10259   */\n  dup3\n    /* \"#utility.yul\":10252:10264   */\n  add\n    /* \"#utility.yul\":10245:10264   */\n  swap1\n  pop\n    /* \"#utility.yul\":9904:10270   */\n  swap2\n  swap1\n  pop\n  jump\t// out\n    /* \"#utility.yul\":10276:10695   */\ntag_30:\n    /* \"#utility.yul\":10442:10446   */\n  0x00\n    /* \"#utility.yul\":10480:10482   */\n  0x20\n    /* \"#utility.yul\":10469:10478   */\n  dup3\n    /* \"#utility.yul\":10465:10483   */\n  add\n    /* \"#utility.yul\":10457:10483   */\n  swap1\n  pop\n    /* \"#utility.yul\":10529:10538   */\n  dup2\n    /* \"#utility.yul\":10523:10527   */\n  dup2\n    /* \"#utility.yul\":10519:10539   */\n  sub\n    /* \"#utility.yul\":10515:10516   */\n  0x00\n    /* \"#utility.yul\":10504:10513   */\n  dup4\n    /* \"#utility.yul\":10500:10517   */\n  add\n    /* \"#utility.yul\":10493:10540   */\n  mstore\n    /* \"#utility.yul\":10557:10688   */\n  tag_184\n    /* \"#utility.yul\":10683:10687   */\n  dup2\n    /* \"#utility.yul\":10557:10688   */\n  tag_73\n  jump\t// in\ntag_184:\n    /* \"#utility.yul\":10549:10688   */\n  swap1\n  pop\n    /* \"#utility.yul\":10276:10695   */\n  swap2\n  swap1\n  pop\n  jump\t// out\n    /* \"#utility.yul\":10701:10870   */\ntag_74:\n    /* \"#utility.yul\":10841:10862   */\n  0x52656465656d2066656520746f6f206869676800000000000000000000000000\n    /* \"#utility.yul\":10837:10838   */\n  0x00\n    /* \"#utility.yul\":10829:10835   */\n  dup3\n    /* \"#utility.yul\":10825:10839   */\n  add\n    /* \"#utility.yul\":10818:10863   */\n  mstore\n    /* \"#utility.yul\":10701:10870   */\n  pop\n  jump\t// out\n    /* \"#utility.yul\":10876:11242   */\ntag_75:\n    /* \"#utility.yul\":11018:11021   */\n  0x00\n    /* \"#utility.yul\":11039:11106   */\n  tag_187\n    /* \"#utility.yul\":11103:11105   */\n  0x13\n    /* \"#utility.yul\":11098:11101   */\n  dup4\n    /* \"#utility.yul\":11039:11106   */\n  tag_67\n  jump\t// in\ntag_187:\n    /* \"#utility.yul\":11032:11106   */\n  swap2\n  pop\n    /* \"#utility.yul\":11115:11208   */\n  tag_188\n    /* \"#utility.yul\":11204:11207   */\n  dup3\n    /* \"#utility.yul\":11115:11208   */\n  tag_74\n  jump\t// in\ntag_188:\n    /* \"#utility.yul\":11233:11235   */\n  0x20\n    /* \"#utility.yul\":11228:11231   */\n  dup3\n    /* \"#utility.yul\":11224:11236   */\n  add\n    /* \"#utility.yul\":11217:11236   */\n  swap1\n  pop\n    /* \"#utility.yul\":10876:11242   */\n  swap2\n  swap1\n  pop\n  jump\t// out\n    /* \"#utility.yul\":11248:11667   */\ntag_33:\n    /* \"#utility.yul\":11414:11418   */\n  0x00\n    /* \"#utility.yul\":11452:11454   */\n  0x20\n    /* \"#utility.yul\":11441:11450   */\n  dup3\n    /* \"#utility.yul\":11437:11455   */\n  add\n    /* \"#utility.yul\":11429:11455   */\n  swap1\n  pop\n    /* \"#utility.yul\":11501:11510   */\n  dup2\n    /* \"#utility.yul\":11495:11499   */\n  dup2\n    /* \"#utility.yul\":11491:11511   */\n  sub\n    /* \"#utility.yul\":11487:11488   */\n  0x00\n    /* \"#utility.yul\":11476:11485   */\n  dup4\n    /* \"#utility.yul\":11472:11489   */\n  add\n    /* \"#utility.yul\":11465:11512   */\n  mstore\n    /* \"#utility.yul\":11529:11660   */\n  tag_190\n    /* \"#utility.yul\":11655:11659   */\n  dup2\n    /* \"#utility.yul\":11529:11660   */\n  tag_75\n  jump\t// in\ntag_190:\n    /* \"#utility.yul\":11521:11660   */\n  swap1\n  pop\n    /* \"#utility.yul\":11248:11667   */\n  swap2\n  swap1\n  pop\n  jump\t// out\n    /* \"contracts/PadiTokenStable.sol\":607:5446  contract PadiToken is ERC20, Ownable, Pausable, ReentrancyGuard {... */\ntag_34:\n  mload(0x80)\n  codecopy(0x00, dataOffset(sub_0), dataSize(sub_0))\n  0x00\n  assignImmutable(\"0x9cb0b993ce3cc460071d556c01bf4adf48941df3146d18de5e970d113760be43\")\n  return(0x00, dataSize(sub_0))\nstop\n\nsub_0: assembly {\n        /* \"contracts/PadiTokenStable.sol\":607:5446  contract PadiToken is ERC20, Ownable, Pausable, ReentrancyGuard {... */\n      mstore(0x40, 0x80)\n      callvalue\n      dup1\n      iszero\n      tag_1\n      jumpi\n      0x00\n      dup1\n      revert\n    tag_1:\n      pop\n      jumpi(tag_2, lt(calldatasize, 0x04))\n      shr(0xe0, calldataload(0x00))\n      dup1\n      0x715018a6\n      gt\n      tag_28\n      jumpi\n      dup1\n      0xa0712d68\n      gt\n      tag_29\n      jumpi\n      dup1\n      0xdd62ed3e\n      gt\n      tag_30\n      jumpi\n      dup1\n      0xdd62ed3e\n      eq\n      tag_24\n      jumpi\n      dup1\n      0xf0f44260\n      eq\n      tag_25\n      jumpi\n      dup1\n      0xf2fde38b\n      eq\n      tag_26\n      jumpi\n      dup1\n      0xfd967f47\n      eq\n      tag_27\n      jumpi\n      jump(tag_2)\n    tag_30:\n      dup1\n      0xa0712d68\n      eq\n      tag_21\n      jumpi\n      dup1\n      0xa9059cbb\n      eq\n      tag_22\n      jumpi\n      dup1\n      0xdb006a75\n      eq\n      tag_23\n      jumpi\n      jump(tag_2)\n    tag_29:\n      dup1\n      0x715018a6\n      eq\n      tag_15\n      jumpi\n      dup1\n      0x8456cb59\n      eq\n      tag_16\n      jumpi\n      dup1\n      0x8da5cb5b\n      eq\n      tag_17\n      jumpi\n      dup1\n      0x95d89b41\n      eq\n      tag_18\n      jumpi\n      dup1\n      0x97c8bcc1\n      eq\n      tag_19\n      jumpi\n      dup1\n      0x9ef833d4\n      eq\n      tag_20\n      jumpi\n      jump(tag_2)\n    tag_28:\n      dup1\n      0x313ce567\n      gt\n      tag_31\n      jumpi\n      dup1\n      0x313ce567\n      eq\n      tag_9\n      jumpi\n      dup1\n      0x32cb6b0c\n      eq\n      tag_10\n      jumpi\n      dup1\n      0x3f4ba83a\n      eq\n      tag_11\n      jumpi\n      dup1\n      0x5c975abb\n      eq\n      tag_12\n      jumpi\n      dup1\n      0x61d027b3\n      eq\n      tag_13\n      jumpi\n      dup1\n      0x70a08231\n      eq\n      tag_14\n      jumpi\n      jump(tag_2)\n    tag_31:\n      dup1\n      0x06fdde03\n      eq\n      tag_3\n      jumpi\n      dup1\n      0x095ea7b3\n      eq\n      tag_4\n      jumpi\n      dup1\n      0x09f6442c\n      eq\n      tag_5\n      jumpi\n      dup1\n      0x0c577bdc\n      eq\n      tag_6\n      jumpi\n      dup1\n      0x18160ddd\n      eq\n      tag_7\n      jumpi\n      dup1\n      0x23b872dd\n      eq\n      tag_8\n      jumpi\n    tag_2:\n      0x00\n      dup1\n      revert\n        /* \"@openzeppelin/contracts/token/ERC20/ERC20.sol\":1779:1868  function name() public view virtual returns (string memory) {... */\n    tag_3:\n      tag_32\n      tag_33\n      jump\t// in\n    tag_32:\n      mload(0x40)\n      tag_34\n      swap2\n      swap1\n      tag_35\n      jump\t// in\n    tag_34:\n      mload(0x40)\n      dup1\n      swap2\n      sub\n      swap1\n      return\n        /* \"@openzeppelin/contracts/token/ERC20/ERC20.sol\":3998:4184  function approve(address spender, uint256 value) public virtual returns (bool) {... */\n    tag_4:\n      tag_36\n      0x04\n      dup1\n      calldatasize\n      sub\n      dup2\n      add\n      swap1\n      tag_37\n      swap2\n      swap1\n      tag_38\n      jump\t// in\n    tag_37:\n      tag_39\n      jump\t// in\n    tag_36:\n      mload(0x40)\n      tag_40\n      swap2\n      swap1\n      tag_41\n      jump\t// in\n    tag_40:\n      mload(0x40)\n      dup1\n      swap2\n      sub\n      swap1\n      return\n        /* \"contracts/PadiTokenStable.sol\":1122:1148  uint16 public redeemFeeBps */\n    tag_5:\n      tag_42\n      tag_43\n      jump\t// in\n    tag_42:\n      mload(0x40)\n      tag_44\n      swap2\n      swap1\n      tag_45\n      jump\t// in\n    tag_44:\n      mload(0x40)\n      dup1\n      swap2\n      sub\n      swap1\n      return\n        /* \"contracts/PadiTokenStable.sol\":771:799  IERC20 public immutable cusd */\n    tag_6:\n      tag_46\n      tag_47\n      jump\t// in\n    tag_46:\n      mload(0x40)\n      tag_48\n      swap2\n      swap1\n      tag_49\n      jump\t// in\n    tag_48:\n      mload(0x40)\n      dup1\n      swap2\n      sub\n      swap1\n      return\n        /* \"@openzeppelin/contracts/token/ERC20/ERC20.sol\":2849:2946  function totalSupply() public view virtual returns (uint256) {... */\n    tag_7:\n      tag_50\n      tag_51\n      jump\t// in\n    tag_50:\n      mload(0x40)\n      tag_52\n      swap2\n      swap1\n      tag_53\n      jump\t// in\n    tag_52:\n      mload(0x40)\n      dup1\n      swap2\n      sub\n      swap1\n      return\n        /* \"@openzeppelin/contracts/token/ERC20/ERC20.sol\":4776:5020  function transferFrom(address from, address to, uint256 value) public virtual returns (bool) {... */\n    tag_8:\n      tag_54\n      0x04\n      dup1\n      calldatasize\n      sub\n      dup2\n      add\n      swap1\n      tag_55\n      swap2\n      swap1\n      tag_56\n      jump\t// in\n    tag_55:\n      tag_57\n      jump\t// in\n    tag_54:\n      mload(0x40)\n      tag_58\n      swap2\n      swap1\n      tag_41\n      jump\t// in\n    tag_58:\n      mload(0x40)\n      dup1\n      swap2\n      sub\n      swap1\n      return\n        /* \"@openzeppelin/contracts/token/ERC20/ERC20.sol\":2707:2789  function decimals() public view virtual returns (uint8) {... */\n    tag_9:\n      tag_59\n      tag_60\n      jump\t// in\n    tag_59:\n      mload(0x40)\n      tag_61\n      swap2\n      swap1\n      tag_62\n      jump\t// in\n    tag_61:\n      mload(0x40)\n      dup1\n      swap2\n      sub\n      swap1\n      return\n        /* \"contracts/PadiTokenStable.sol\":1230:1289  uint256 public constant MAX_SUPPLY = 1_000_000_000 * 10**18 */\n    tag_10:\n      tag_63\n      tag_64\n      jump\t// in\n    tag_63:\n      mload(0x40)\n      tag_65\n      swap2\n      swap1\n      tag_53\n      jump\t// in\n    tag_65:\n      mload(0x40)\n      dup1\n      swap2\n      sub\n      swap1\n      return\n        /* \"contracts/PadiTokenStable.sol\":5062:5127  function unpause() external onlyOwner {... */\n    tag_11:\n      tag_66\n      tag_67\n      jump\t// in\n    tag_66:\n      stop\n        /* \"@openzeppelin/contracts/security/Pausable.sol\":1615:1699  function paused() public view virtual returns (bool) {... */\n    tag_12:\n      tag_68\n      tag_69\n      jump\t// in\n    tag_68:\n      mload(0x40)\n      tag_70\n      swap2\n      swap1\n      tag_41\n      jump\t// in\n    tag_70:\n      mload(0x40)\n      dup1\n      swap2\n      sub\n      swap1\n      return\n        /* \"contracts/PadiTokenStable.sol\":858:881  address public treasury */\n    tag_13:\n      tag_71\n      tag_72\n      jump\t// in\n    tag_71:\n      mload(0x40)\n      tag_73\n      swap2\n      swap1\n      tag_74\n      jump\t// in\n    tag_73:\n      mload(0x40)\n      dup1\n      swap2\n      sub\n      swap1\n      return\n        /* \"@openzeppelin/contracts/token/ERC20/ERC20.sol\":3004:3120  function balanceOf(address account) public view virtual returns (uint256) {... */\n    tag_14:\n      tag_75\n      0x04\n      dup1\n      calldatasize\n      sub\n      dup2\n      add\n      swap1\n      tag_76\n      swap2\n      swap1\n      tag_77\n      jump\t// in\n    tag_76:\n      tag_78\n      jump\t// in\n    tag_75:\n      mload(0x40)\n      tag_79\n      swap2\n      swap1\n      tag_53\n      jump\t// in\n    tag_79:\n      mload(0x40)\n      dup1\n      swap2\n      sub\n      swap1\n      return\n        /* \"@openzeppelin/contracts/access/Ownable.sol\":2293:2394  function renounceOwnership() public virtual onlyOwner {... */\n    tag_15:\n      tag_80\n      tag_81\n      jump\t// in\n    tag_80:\n      stop\n        /* \"contracts/PadiTokenStable.sol\":4937:4998  function pause() external onlyOwner {... */\n    tag_16:\n      tag_82\n      tag_83\n      jump\t// in\n    tag_82:\n      stop\n        /* \"@openzeppelin/contracts/access/Ownable.sol\":1638:1723  function owner() public view virtual returns (address) {... */\n    tag_17:\n      tag_84\n      tag_85\n      jump\t// in\n    tag_84:\n      mload(0x40)\n      tag_86\n      swap2\n      swap1\n      tag_74\n      jump\t// in\n    tag_86:\n      mload(0x40)\n      dup1\n      swap2\n      sub\n      swap1\n      return\n        /* \"@openzeppelin/contracts/token/ERC20/ERC20.sol\":1981:2074  function symbol() public view virtual returns (string memory) {... */\n    tag_18:\n      tag_87\n      tag_88\n      jump\t// in\n    tag_87:\n      mload(0x40)\n      tag_89\n      swap2\n      swap1\n      tag_35\n      jump\t// in\n    tag_89:\n      mload(0x40)\n      dup1\n      swap2\n      sub\n      swap1\n      return\n        /* \"contracts/PadiTokenStable.sol\":1044:1068  uint16 public mintFeeBps */\n    tag_19:\n      tag_90\n      tag_91\n      jump\t// in\n    tag_90:\n      mload(0x40)\n      tag_92\n      swap2\n      swap1\n      tag_45\n      jump\t// in\n    tag_92:\n      mload(0x40)\n      dup1\n      swap2\n      sub\n      swap1\n      return\n        /* \"contracts/PadiTokenStable.sol\":2764:3103  function setFees(uint16 _mintFeeBps, uint16 _redeemFeeBps) external onlyOwner {... */\n    tag_20:\n      tag_93\n      0x04\n      dup1\n      calldatasize\n      sub\n      dup2\n      add\n      swap1\n      tag_94\n      swap2\n      swap1\n      tag_95\n      jump\t// in\n    tag_94:\n      tag_96\n      jump\t// in\n    tag_93:\n      stop\n        /* \"contracts/PadiTokenStable.sol\":3495:4138  function mint(uint256 amount)... */\n    tag_21:\n      tag_97\n      0x04\n      dup1\n      calldatasize\n      sub\n      dup2\n      add\n      swap1\n      tag_98\n      swap2\n      swap1\n      tag_99\n      jump\t// in\n    tag_98:\n      tag_100\n      jump\t// in\n    tag_97:\n      stop\n        /* \"@openzeppelin/contracts/token/ERC20/ERC20.sol\":3315:3493  function transfer(address to, uint256 value) public virtual returns (bool) {... */\n    tag_22:\n      tag_101\n      0x04\n      dup1\n      calldatasize\n      sub\n      dup2\n      add\n      swap1\n      tag_102\n      swap2\n      swap1\n      tag_38\n      jump\t// in\n    tag_102:\n      tag_103\n      jump\t// in\n    tag_101:\n      mload(0x40)\n      tag_104\n      swap2\n      swap1\n      tag_41\n      jump\t// in\n    tag_104:\n      mload(0x40)\n      dup1\n      swap2\n      sub\n      swap1\n      return\n        /* \"contracts/PadiTokenStable.sol\":4269:4859  function redeem(uint256 amount)... */\n    tag_23:\n      tag_105\n      0x04\n      dup1\n      calldatasize\n      sub\n      dup2\n      add\n      swap1\n      tag_106\n      swap2\n      swap1\n      tag_99\n      jump\t// in\n    tag_106:\n      tag_107\n      jump\t// in\n    tag_105:\n      stop\n        /* \"@openzeppelin/contracts/token/ERC20/ERC20.sol\":3551:3691  function allowance(address owner, address spender) public view virtual returns (uint256) {... */\n    tag_24:\n      tag_108\n      0x04\n      dup1\n      calldatasize\n      sub\n      dup2\n      add\n      swap1\n      tag_109\n      swap2\n      swap1\n      tag_110\n      jump\t// in\n    tag_109:\n      tag_111\n      jump\t// in\n    tag_108:\n      mload(0x40)\n      tag_112\n      swap2\n      swap1\n      tag_53\n      jump\t// in\n    tag_112:\n      mload(0x40)\n      dup1\n      swap2\n      sub\n      swap1\n      return\n        /* \"contracts/PadiTokenStable.sol\":3166:3365  function setTreasury(address _treasury) external onlyOwner {... */\n    tag_25:\n      tag_113\n      0x04\n      dup1\n      calldatasize\n      sub\n      dup2\n      add\n      swap1\n      tag_114\n      swap2\n      swap1\n      tag_77\n      jump\t// in\n    tag_114:\n      tag_115\n      jump\t// in\n    tag_113:\n      stop\n        /* \"@openzeppelin/contracts/access/Ownable.sol\":2543:2758  function transferOwnership(address newOwner) public virtual onlyOwner {... */\n    tag_26:\n      tag_116\n      0x04\n      dup1\n      calldatasize\n      sub\n      dup2\n      add\n      swap1\n      tag_117\n      swap2\n      swap1\n      tag_77\n      jump\t// in\n    tag_117:\n      tag_118\n      jump\t// in\n    tag_116:\n      stop\n        /* \"contracts/PadiTokenStable.sol\":936:975  uint16 public constant MAX_BPS = 10_000 */\n    tag_27:\n      tag_119\n      tag_120\n      jump\t// in\n    tag_119:\n      mload(0x40)\n      tag_121\n      swap2\n      swap1\n      tag_45\n      jump\t// in\n    tag_121:\n      mload(0x40)\n      dup1\n      swap2\n      sub\n      swap1\n      return\n        /* \"@openzeppelin/contracts/token/ERC20/ERC20.sol\":1779:1868  function name() public view virtual returns (string memory) {... */\n    tag_33:\n        /* \"@openzeppelin/contracts/token/ERC20/ERC20.sol\":1824:1837  string memory */\n      0x60\n        /* \"@openzeppelin/contracts/token/ERC20/ERC20.sol\":1856:1861  _name */\n      0x03\n        /* \"@openzeppelin/contracts/token/ERC20/ERC20.sol\":1849:1861  return _name */\n      dup1\n      sload\n      tag_123\n      swap1\n      tag_124\n      jump\t// in\n    tag_123:\n      dup1\n      0x1f\n      add\n      0x20\n      dup1\n      swap2\n      div\n      mul\n      0x20\n      add\n      mload(0x40)\n      swap1\n      dup2\n      add\n      0x40\n      mstore\n      dup1\n      swap3\n      swap2\n      swap1\n      dup2\n      dup2\n      mstore\n      0x20\n      add\n      dup3\n      dup1\n      sload\n      tag_125\n      swap1\n      tag_124\n      jump\t// in\n    tag_125:\n      dup1\n      iszero\n      tag_126\n      jumpi\n      dup1\n      0x1f\n      lt\n      tag_127\n      jumpi\n      0x0100\n      dup1\n      dup4\n      sload\n      div\n      mul\n      dup4\n      mstore\n      swap2\n      0x20\n      add\n      swap2\n      jump(tag_126)\n    tag_127:\n      dup3\n      add\n      swap2\n      swap1\n      0x00\n      mstore\n      keccak256(0x00, 0x20)\n      swap1\n    tag_128:\n      dup2\n      sload\n      dup2\n      mstore\n      swap1\n      0x01\n      add\n      swap1\n      0x20\n      add\n      dup1\n      dup4\n      gt\n      tag_128\n      jumpi\n      dup3\n      swap1\n      sub\n      0x1f\n      and\n      dup3\n      add\n      swap2\n    tag_126:\n      pop\n      pop\n      pop\n      pop\n      pop\n      swap1\n      pop\n        /* \"@openzeppelin/contracts/token/ERC20/ERC20.sol\":1779:1868  function name() public view virtual returns (string memory) {... */\n      swap1\n      jump\t// out\n        /* \"@openzeppelin/contracts/token/ERC20/ERC20.sol\":3998:4184  function approve(address spender, uint256 value) public virtual returns (bool) {... */\n    tag_39:\n        /* \"@openzeppelin/contracts/token/ERC20/ERC20.sol\":4071:4075  bool */\n      0x00\n        /* \"@openzeppelin/contracts/token/ERC20/ERC20.sol\":4087:4100  address owner */\n      dup1\n        /* \"@openzeppelin/contracts/token/ERC20/ERC20.sol\":4103:4115  _msgSender() */\n      tag_130\n        /* \"@openzeppelin/contracts/token/ERC20/ERC20.sol\":4103:4113  _msgSender */\n      tag_131\n        /* \"@openzeppelin/contracts/token/ERC20/ERC20.sol\":4103:4115  _msgSender() */\n      jump\t// in\n    tag_130:\n        /* \"@openzeppelin/contracts/token/ERC20/ERC20.sol\":4087:4115  address owner = _msgSender() */\n      swap1\n      pop\n        /* \"@openzeppelin/contracts/token/ERC20/ERC20.sol\":4125:4156  _approve(owner, spender, value) */\n      tag_132\n        /* \"@openzeppelin/contracts/token/ERC20/ERC20.sol\":4134:4139  owner */\n      dup2\n        /* \"@openzeppelin/contracts/token/ERC20/ERC20.sol\":4141:4148  spender */\n      dup6\n        /* \"@openzeppelin/contracts/token/ERC20/ERC20.sol\":4150:4155  value */\n      dup6\n        /* \"@openzeppelin/contracts/token/ERC20/ERC20.sol\":4125:4133  _approve */\n      tag_133\n        /* \"@openzeppelin/contracts/token/ERC20/ERC20.sol\":4125:4156  _approve(owner, spender, value) */\n      jump\t// in\n    tag_132:\n        /* \"@openzeppelin/contracts/token/ERC20/ERC20.sol\":4173:4177  true */\n      0x01\n        /* \"@openzeppelin/contracts/token/ERC20/ERC20.sol\":4166:4177  return true */\n      swap2\n      pop\n      pop\n        /* \"@openzeppelin/contracts/token/ERC20/ERC20.sol\":3998:4184  function approve(address spender, uint256 value) public virtual returns (bool) {... */\n      swap3\n      swap2\n      pop\n      pop\n      jump\t// out\n        /* \"contracts/PadiTokenStable.sol\":1122:1148  uint16 public redeemFeeBps */\n    tag_43:\n      0x07\n      0x16\n      swap1\n      sload\n      swap1\n      0x0100\n      exp\n      swap1\n      div\n      0xffff\n      and\n      dup2\n      jump\t// out\n        /* \"contracts/PadiTokenStable.sol\":771:799  IERC20 public immutable cusd */\n    tag_47:\n      immutable(\"0x9cb0b993ce3cc460071d556c01bf4adf48941df3146d18de5e970d113760be43\")\n      dup2\n      jump\t// out\n        /* \"@openzeppelin/contracts/token/ERC20/ERC20.sol\":2849:2946  function totalSupply() public view virtual returns (uint256) {... */\n    tag_51:\n        /* \"@openzeppelin/contracts/token/ERC20/ERC20.sol\":2901:2908  uint256 */\n      0x00\n        /* \"@openzeppelin/contracts/token/ERC20/ERC20.sol\":2927:2939  _totalSupply */\n      sload(0x02)\n        /* \"@openzeppelin/contracts/token/ERC20/ERC20.sol\":2920:2939  return _totalSupply */\n      swap1\n      pop\n        /* \"@openzeppelin/contracts/token/ERC20/ERC20.sol\":2849:2946  function totalSupply() public view virtual returns (uint256) {... */\n      swap1\n      jump\t// out\n        /* \"@openzeppelin/contracts/token/ERC20/ERC20.sol\":4776:5020  function transferFrom(address from, address to, uint256 value) public virtual returns (bool) {... */\n    tag_57:\n        /* \"@openzeppelin/contracts/token/ERC20/ERC20.sol\":4863:4867  bool */\n      0x00\n        /* \"@openzeppelin/contracts/token/ERC20/ERC20.sol\":4879:4894  address spender */\n      dup1\n        /* \"@openzeppelin/contracts/token/ERC20/ERC20.sol\":4897:4909  _msgSender() */\n      tag_136\n        /* \"@openzeppelin/contracts/token/ERC20/ERC20.sol\":4897:4907  _msgSender */\n      tag_131\n        /* \"@openzeppelin/contracts/token/ERC20/ERC20.sol\":4897:4909  _msgSender() */\n      jump\t// in\n    tag_136:\n        /* \"@openzeppelin/contracts/token/ERC20/ERC20.sol\":4879:4909  address spender = _msgSender() */\n      swap1\n      pop\n        /* \"@openzeppelin/contracts/token/ERC20/ERC20.sol\":4919:4956  _spendAllowance(from, spender, value) */\n      tag_137\n        /* \"@openzeppelin/contracts/token/ERC20/ERC20.sol\":4935:4939  from */\n      dup6\n        /* \"@openzeppelin/contracts/token/ERC20/ERC20.sol\":4941:4948  spender */\n      dup3\n        /* \"@openzeppelin/contracts/token/ERC20/ERC20.sol\":4950:4955  value */\n      dup6\n        /* \"@openzeppelin/contracts/token/ERC20/ERC20.sol\":4919:4934  _spendAllowance */\n      tag_138\n        /* \"@openzeppelin/contracts/token/ERC20/ERC20.sol\":4919:4956  _spendAllowance(from, spender, value) */\n      jump\t// in\n    tag_137:\n        /* \"@openzeppelin/contracts/token/ERC20/ERC20.sol\":4966:4992  _transfer(from, to, value) */\n      tag_139\n        /* \"@openzeppelin/contracts/token/ERC20/ERC20.sol\":4976:4980  from */\n      dup6\n        /* \"@openzeppelin/contracts/token/ERC20/ERC20.sol\":4982:4984  to */\n      dup6\n        /* \"@openzeppelin/contracts/token/ERC20/ERC20.sol\":4986:4991  value */\n      dup6\n        /* \"@openzeppelin/contracts/token/ERC20/ERC20.sol\":4966:4975  _transfer */\n      tag_140\n        /* \"@openzeppelin/contracts/token/ERC20/ERC20.sol\":4966:4992  _transfer(from, to, value) */\n      jump\t// in\n    tag_139:\n        /* \"@openzeppelin/contracts/token/ERC20/ERC20.sol\":5009:5013  true */\n      0x01\n        /* \"@openzeppelin/contracts/token/ERC20/ERC20.sol\":5002:5013  return true */\n      swap2\n      pop\n      pop\n        /* \"@openzeppelin/contracts/token/ERC20/ERC20.sol\":4776:5020  function transferFrom(address from, address to, uint256 value) public virtual returns (bool) {... */\n      swap4\n      swap3\n      pop\n      pop\n      pop\n      jump\t// out\n        /* \"@openzeppelin/contracts/token/ERC20/ERC20.sol\":2707:2789  function decimals() public view virtual returns (uint8) {... */\n    tag_60:\n        /* \"@openzeppelin/contracts/token/ERC20/ERC20.sol\":2756:2761  uint8 */\n      0x00\n        /* \"@openzeppelin/contracts/token/ERC20/ERC20.sol\":2780:2782  18 */\n      0x12\n        /* \"@openzeppelin/contracts/token/ERC20/ERC20.sol\":2773:2782  return 18 */\n      swap1\n      pop\n        /* \"@openzeppelin/contracts/token/ERC20/ERC20.sol\":2707:2789  function decimals() public view virtual returns (uint8) {... */\n      swap1\n      jump\t// out\n        /* \"contracts/PadiTokenStable.sol\":1230:1289  uint256 public constant MAX_SUPPLY = 1_000_000_000 * 10**18 */\n    tag_64:\n        /* \"contracts/PadiTokenStable.sol\":1267:1289  1_000_000_000 * 10**18 */\n      0x033b2e3c9fd0803ce8000000\n        /* \"contracts/PadiTokenStable.sol\":1230:1289  uint256 public constant MAX_SUPPLY = 1_000_000_000 * 10**18 */\n      dup2\n      jump\t// out\n        /* \"contracts/PadiTokenStable.sol\":5062:5127  function unpause() external onlyOwner {... */\n    tag_67:\n        /* \"@openzeppelin/contracts/access/Ownable.sol\":1531:1544  _checkOwner() */\n      tag_143\n        /* \"@openzeppelin/contracts/access/Ownable.sol\":1531:1542  _checkOwner */\n      tag_144\n        /* \"@openzeppelin/contracts/access/Ownable.sol\":1531:1544  _checkOwner() */\n      jump\t// in\n    tag_143:\n        /* \"contracts/PadiTokenStable.sol\":5110:5120  _unpause() */\n      tag_146\n        /* \"contracts/PadiTokenStable.sol\":5110:5118  _unpause */\n      tag_147\n        /* \"contracts/PadiTokenStable.sol\":5110:5120  _unpause() */\n      jump\t// in\n    tag_146:\n        /* \"contracts/PadiTokenStable.sol\":5062:5127  function unpause() external onlyOwner {... */\n      jump\t// out\n        /* \"@openzeppelin/contracts/security/Pausable.sol\":1615:1699  function paused() public view virtual returns (bool) {... */\n    tag_69:\n        /* \"@openzeppelin/contracts/security/Pausable.sol\":1662:1666  bool */\n      0x00\n        /* \"@openzeppelin/contracts/security/Pausable.sol\":1685:1692  _paused */\n      0x05\n      0x14\n      swap1\n      sload\n      swap1\n      0x0100\n      exp\n      swap1\n      div\n      0xff\n      and\n        /* \"@openzeppelin/contracts/security/Pausable.sol\":1678:1692  return _paused */\n      swap1\n      pop\n        /* \"@openzeppelin/contracts/security/Pausable.sol\":1615:1699  function paused() public view virtual returns (bool) {... */\n      swap1\n      jump\t// out\n        /* \"contracts/PadiTokenStable.sol\":858:881  address public treasury */\n    tag_72:\n      0x07\n      0x00\n      swap1\n      sload\n      swap1\n      0x0100\n      exp\n      swap1\n      div\n      0xffffffffffffffffffffffffffffffffffffffff\n      and\n      dup2\n      jump\t// out\n        /* \"@openzeppelin/contracts/token/ERC20/ERC20.sol\":3004:3120  function balanceOf(address account) public view virtual returns (uint256) {... */\n    tag_78:\n        /* \"@openzeppelin/contracts/token/ERC20/ERC20.sol\":3069:3076  uint256 */\n      0x00\n        /* \"@openzeppelin/contracts/token/ERC20/ERC20.sol\":3095:3104  _balances */\n      dup1\n        /* \"@openzeppelin/contracts/token/ERC20/ERC20.sol\":3095:3113  _balances[account] */\n      0x00\n        /* \"@openzeppelin/contracts/token/ERC20/ERC20.sol\":3105:3112  account */\n      dup4\n        /* \"@openzeppelin/contracts/token/ERC20/ERC20.sol\":3095:3113  _balances[account] */\n      0xffffffffffffffffffffffffffffffffffffffff\n      and\n      0xffffffffffffffffffffffffffffffffffffffff\n      and\n      dup2\n      mstore\n      0x20\n      add\n      swap1\n      dup2\n      mstore\n      0x20\n      add\n      0x00\n      keccak256\n      sload\n        /* \"@openzeppelin/contracts/token/ERC20/ERC20.sol\":3088:3113  return _balances[account] */\n      swap1\n      pop\n        /* \"@openzeppelin/contracts/token/ERC20/ERC20.sol\":3004:3120  function balanceOf(address account) public view virtual returns (uint256) {... */\n      swap2\n      swap1\n      pop\n      jump\t// out\n        /* \"@openzeppelin/contracts/access/Ownable.sol\":2293:2394  function renounceOwnership() public virtual onlyOwner {... */\n    tag_81:\n        /* \"@openzeppelin/contracts/access/Ownable.sol\":1531:1544  _checkOwner() */\n      tag_151\n        /* \"@openzeppelin/contracts/access/Ownable.sol\":1531:1542  _checkOwner */\n      tag_144\n        /* \"@openzeppelin/contracts/access/Ownable.sol\":1531:1544  _checkOwner() */\n      jump\t// in\n    tag_151:\n        /* \"@openzeppelin/contracts/access/Ownable.sol\":2357:2387  _transferOwnership(address(0)) */\n      tag_153\n        /* \"@openzeppelin/contracts/access/Ownable.sol\":2384:2385  0 */\n      0x00\n        /* \"@openzeppelin/contracts/access/Ownable.sol\":2357:2375  _transferOwnership */\n      tag_154\n        /* \"@openzeppelin/contracts/access/Ownable.sol\":2357:2387  _transferOwnership(address(0)) */\n      jump\t// in\n    tag_153:\n        /* \"@openzeppelin/contracts/access/Ownable.sol\":2293:2394  function renounceOwnership() public virtual onlyOwner {... */\n      jump\t// out\n        /* \"contracts/PadiTokenStable.sol\":4937:4998  function pause() external onlyOwner {... */\n    tag_83:\n        /* \"@openzeppelin/contracts/access/Ownable.sol\":1531:1544  _checkOwner() */\n      tag_156\n        /* \"@openzeppelin/contracts/access/Ownable.sol\":1531:1542  _checkOwner */\n      tag_144\n        /* \"@openzeppelin/contracts/access/Ownable.sol\":1531:1544  _checkOwner() */\n      jump\t// in\n    tag_156:\n        /* \"contracts/PadiTokenStable.sol\":4983:4991  _pause() */\n      tag_158\n        /* \"contracts/PadiTokenStable.sol\":4983:4989  _pause */\n      tag_159\n        /* \"contracts/PadiTokenStable.sol\":4983:4991  _pause() */\n      jump\t// in\n    tag_158:\n        /* \"contracts/PadiTokenStable.sol\":4937:4998  function pause() external onlyOwner {... */\n      jump\t// out\n        /* \"@openzeppelin/contracts/access/Ownable.sol\":1638:1723  function owner() public view virtual returns (address) {... */\n    tag_85:\n        /* \"@openzeppelin/contracts/access/Ownable.sol\":1684:1691  address */\n      0x00\n        /* \"@openzeppelin/contracts/access/Ownable.sol\":1710:1716  _owner */\n      0x05\n      0x00\n      swap1\n      sload\n      swap1\n      0x0100\n      exp\n      swap1\n      div\n      0xffffffffffffffffffffffffffffffffffffffff\n      and\n        /* \"@openzeppelin/contracts/access/Ownable.sol\":1703:1716  return _owner */\n      swap1\n      pop\n        /* \"@openzeppelin/contracts/access/Ownable.sol\":1638:1723  function owner() public view virtual returns (address) {... */\n      swap1\n      jump\t// out\n        /* \"@openzeppelin/contracts/token/ERC20/ERC20.sol\":1981:2074  function symbol() public view virtual returns (string memory) {... */\n    tag_88:\n        /* \"@openzeppelin/contracts/token/ERC20/ERC20.sol\":2028:2041  string memory */\n      0x60\n        /* \"@openzeppelin/contracts/token/ERC20/ERC20.sol\":2060:2067  _symbol */\n      0x04\n        /* \"@openzeppelin/contracts/token/ERC20/ERC20.sol\":2053:2067  return _symbol */\n      dup1\n      sload\n      tag_162\n      swap1\n      tag_124\n      jump\t// in\n    tag_162:\n      dup1\n      0x1f\n      add\n      0x20\n      dup1\n      swap2\n      div\n      mul\n      0x20\n      add\n      mload(0x40)\n      swap1\n      dup2\n      add\n      0x40\n      mstore\n      dup1\n      swap3\n      swap2\n      swap1\n      dup2\n      dup2\n      mstore\n      0x20\n      add\n      dup3\n      dup1\n      sload\n      tag_163\n      swap1\n      tag_124\n      jump\t// in\n    tag_163:\n      dup1\n      iszero\n      tag_164\n      jumpi\n      dup1\n      0x1f\n      lt\n      tag_165\n      jumpi\n      0x0100\n      dup1\n      dup4\n      sload\n      div\n      mul\n      dup4\n      mstore\n      swap2\n      0x20\n      add\n      swap2\n      jump(tag_164)\n    tag_165:\n      dup3\n      add\n      swap2\n      swap1\n      0x00\n      mstore\n      keccak256(0x00, 0x20)\n      swap1\n    tag_166:\n      dup2\n      sload\n      dup2\n      mstore\n      swap1\n      0x01\n      add\n      swap1\n      0x20\n      add\n      dup1\n      dup4\n      gt\n      tag_166\n      jumpi\n      dup3\n      swap1\n      sub\n      0x1f\n      and\n      dup3\n      add\n      swap2\n    tag_164:\n      pop\n      pop\n      pop\n      pop\n      pop\n      swap1\n      pop\n        /* \"@openzeppelin/contracts/token/ERC20/ERC20.sol\":1981:2074  function symbol() public view virtual returns (string memory) {... */\n      swap1\n      jump\t// out\n        /* \"contracts/PadiTokenStable.sol\":1044:1068  uint16 public mintFeeBps */\n    tag_91:\n      0x07\n      0x14\n      swap1\n      sload\n      swap1\n      0x0100\n      exp\n      swap1\n      div\n      0xffff\n      and\n      dup2\n      jump\t// out\n        /* \"contracts/PadiTokenStable.sol\":2764:3103  function setFees(uint16 _mintFeeBps, uint16 _redeemFeeBps) external onlyOwner {... */\n    tag_96:\n        /* \"@openzeppelin/contracts/access/Ownable.sol\":1531:1544  _checkOwner() */\n      tag_168\n        /* \"@openzeppelin/contracts/access/Ownable.sol\":1531:1542  _checkOwner */\n      tag_144\n        /* \"@openzeppelin/contracts/access/Ownable.sol\":1531:1544  _checkOwner() */\n      jump\t// in\n    tag_168:\n        /* \"contracts/PadiTokenStable.sol\":969:975  10_000 */\n      0x2710\n        /* \"contracts/PadiTokenStable.sol\":2860:2882  _mintFeeBps <= MAX_BPS */\n      0xffff\n      and\n        /* \"contracts/PadiTokenStable.sol\":2860:2871  _mintFeeBps */\n      dup3\n        /* \"contracts/PadiTokenStable.sol\":2860:2882  _mintFeeBps <= MAX_BPS */\n      0xffff\n      and\n      gt\n      iszero\n        /* \"contracts/PadiTokenStable.sol\":2852:2904  require(_mintFeeBps <= MAX_BPS, \"Mint fee too high\") */\n      tag_170\n      jumpi\n      mload(0x40)\n      0x08c379a000000000000000000000000000000000000000000000000000000000\n      dup2\n      mstore\n      0x04\n      add\n      tag_171\n      swap1\n      tag_172\n      jump\t// in\n    tag_171:\n      mload(0x40)\n      dup1\n      swap2\n      sub\n      swap1\n      revert\n    tag_170:\n        /* \"contracts/PadiTokenStable.sol\":969:975  10_000 */\n      0x2710\n        /* \"contracts/PadiTokenStable.sol\":2922:2946  _redeemFeeBps <= MAX_BPS */\n      0xffff\n      and\n        /* \"contracts/PadiTokenStable.sol\":2922:2935  _redeemFeeBps */\n      dup2\n        /* \"contracts/PadiTokenStable.sol\":2922:2946  _redeemFeeBps <= MAX_BPS */\n      0xffff\n      and\n      gt\n      iszero\n        /* \"contracts/PadiTokenStable.sol\":2914:2970  require(_redeemFeeBps <= MAX_BPS, \"Redeem fee too high\") */\n      tag_173\n      jumpi\n      mload(0x40)\n      0x08c379a000000000000000000000000000000000000000000000000000000000\n      dup2\n      mstore\n      0x04\n      add\n      tag_174\n      swap1\n      tag_175\n      jump\t// in\n    tag_174:\n      mload(0x40)\n      dup1\n      swap2\n      sub\n      swap1\n      revert\n    tag_173:\n        /* \"contracts/PadiTokenStable.sol\":2993:3004  _mintFeeBps */\n      dup2\n        /* \"contracts/PadiTokenStable.sol\":2980:2990  mintFeeBps */\n      0x07\n      0x14\n        /* \"contracts/PadiTokenStable.sol\":2980:3004  mintFeeBps = _mintFeeBps */\n      0x0100\n      exp\n      dup2\n      sload\n      dup2\n      0xffff\n      mul\n      not\n      and\n      swap1\n      dup4\n      0xffff\n      and\n      mul\n      or\n      swap1\n      sstore\n      pop\n        /* \"contracts/PadiTokenStable.sol\":3029:3042  _redeemFeeBps */\n      dup1\n        /* \"contracts/PadiTokenStable.sol\":3014:3026  redeemFeeBps */\n      0x07\n      0x16\n        /* \"contracts/PadiTokenStable.sol\":3014:3042  redeemFeeBps = _redeemFeeBps */\n      0x0100\n      exp\n      dup2\n      sload\n      dup2\n      0xffff\n      mul\n      not\n      and\n      swap1\n      dup4\n      0xffff\n      and\n      mul\n      or\n      swap1\n      sstore\n      pop\n        /* \"contracts/PadiTokenStable.sol\":3057:3096  FeesUpdated(_mintFeeBps, _redeemFeeBps) */\n      0x2ac80c14c28700f7b5e36f947d572149fe2e3947bac32c3a8c098f3e03722c11\n        /* \"contracts/PadiTokenStable.sol\":3069:3080  _mintFeeBps */\n      dup3\n        /* \"contracts/PadiTokenStable.sol\":3082:3095  _redeemFeeBps */\n      dup3\n        /* \"contracts/PadiTokenStable.sol\":3057:3096  FeesUpdated(_mintFeeBps, _redeemFeeBps) */\n      mload(0x40)\n      tag_176\n      swap3\n      swap2\n      swap1\n      tag_177\n      jump\t// in\n    tag_176:\n      mload(0x40)\n      dup1\n      swap2\n      sub\n      swap1\n      log1\n        /* \"contracts/PadiTokenStable.sol\":2764:3103  function setFees(uint16 _mintFeeBps, uint16 _redeemFeeBps) external onlyOwner {... */\n      pop\n      pop\n      jump\t// out\n        /* \"contracts/PadiTokenStable.sol\":3495:4138  function mint(uint256 amount)... */\n    tag_100:\n        /* \"@openzeppelin/contracts/security/Pausable.sol\":1239:1258  _requireNotPaused() */\n      tag_179\n        /* \"@openzeppelin/contracts/security/Pausable.sol\":1239:1256  _requireNotPaused */\n      tag_180\n        /* \"@openzeppelin/contracts/security/Pausable.sol\":1239:1258  _requireNotPaused() */\n      jump\t// in\n    tag_179:\n        /* \"@openzeppelin/contracts/security/ReentrancyGuard.sol\":2261:2282  _nonReentrantBefore() */\n      tag_182\n        /* \"@openzeppelin/contracts/security/ReentrancyGuard.sol\":2261:2280  _nonReentrantBefore */\n      tag_183\n        /* \"@openzeppelin/contracts/security/ReentrancyGuard.sol\":2261:2282  _nonReentrantBefore() */\n      jump\t// in\n    tag_182:\n        /* \"contracts/PadiTokenStable.sol\":3616:3617  0 */\n      0x00\n        /* \"contracts/PadiTokenStable.sol\":3607:3613  amount */\n      dup2\n        /* \"contracts/PadiTokenStable.sol\":3607:3617  amount > 0 */\n      gt\n        /* \"contracts/PadiTokenStable.sol\":3599:3640  require(amount > 0, \"Amount must be > 0\") */\n      tag_185\n      jumpi\n      mload(0x40)\n      0x08c379a000000000000000000000000000000000000000000000000000000000\n      dup2\n      mstore\n      0x04\n      add\n      tag_186\n      swap1\n      tag_187\n      jump\t// in\n    tag_186:\n      mload(0x40)\n      dup1\n      swap2\n      sub\n      swap1\n      revert\n    tag_185:\n        /* \"contracts/PadiTokenStable.sol\":1267:1289  1_000_000_000 * 10**18 */\n      0x033b2e3c9fd0803ce8000000\n        /* \"contracts/PadiTokenStable.sol\":3674:3680  amount */\n      dup2\n        /* \"contracts/PadiTokenStable.sol\":3658:3671  totalSupply() */\n      tag_188\n        /* \"contracts/PadiTokenStable.sol\":3658:3669  totalSupply */\n      tag_51\n        /* \"contracts/PadiTokenStable.sol\":3658:3671  totalSupply() */\n      jump\t// in\n    tag_188:\n        /* \"contracts/PadiTokenStable.sol\":3658:3680  totalSupply() + amount */\n      tag_189\n      swap2\n      swap1\n      tag_190\n      jump\t// in\n    tag_189:\n        /* \"contracts/PadiTokenStable.sol\":3658:3694  totalSupply() + amount <= MAX_SUPPLY */\n      gt\n      iszero\n        /* \"contracts/PadiTokenStable.sol\":3650:3717  require(totalSupply() + amount <= MAX_SUPPLY, \"Exceeds max supply\") */\n      tag_191\n      jumpi\n      mload(0x40)\n      0x08c379a000000000000000000000000000000000000000000000000000000000\n      dup2\n      mstore\n      0x04\n      add\n      tag_192\n      swap1\n      tag_193\n      jump\t// in\n    tag_192:\n      mload(0x40)\n      dup1\n      swap2\n      sub\n      swap1\n      revert\n    tag_191:\n        /* \"contracts/PadiTokenStable.sol\":3758:3814  cusd.safeTransferFrom(msg.sender, address(this), amount) */\n      tag_194\n        /* \"contracts/PadiTokenStable.sol\":3780:3790  msg.sender */\n      caller\n        /* \"contracts/PadiTokenStable.sol\":3800:3804  this */\n      address\n        /* \"contracts/PadiTokenStable.sol\":3807:3813  amount */\n      dup4\n        /* \"contracts/PadiTokenStable.sol\":3758:3762  cusd */\n      immutable(\"0x9cb0b993ce3cc460071d556c01bf4adf48941df3146d18de5e970d113760be43\")\n        /* \"contracts/PadiTokenStable.sol\":3758:3779  cusd.safeTransferFrom */\n      0xffffffffffffffffffffffffffffffffffffffff\n      and\n      tag_195\n      swap1\n        /* \"contracts/PadiTokenStable.sol\":3758:3814  cusd.safeTransferFrom(msg.sender, address(this), amount) */\n      swap4\n      swap3\n      swap2\n      swap1\n      0xffffffff\n      and\n      jump\t// in\n    tag_194:\n        /* \"contracts/PadiTokenStable.sol\":3861:3872  uint256 fee */\n      0x00\n        /* \"contracts/PadiTokenStable.sol\":969:975  10_000 */\n      0x2710\n        /* \"contracts/PadiTokenStable.sol\":3875:3906  (amount * mintFeeBps) / MAX_BPS */\n      0xffff\n      and\n        /* \"contracts/PadiTokenStable.sol\":3885:3895  mintFeeBps */\n      0x07\n      0x14\n      swap1\n      sload\n      swap1\n      0x0100\n      exp\n      swap1\n      div\n      0xffff\n      and\n        /* \"contracts/PadiTokenStable.sol\":3876:3895  amount * mintFeeBps */\n      0xffff\n      and\n        /* \"contracts/PadiTokenStable.sol\":3876:3882  amount */\n      dup4\n        /* \"contracts/PadiTokenStable.sol\":3876:3895  amount * mintFeeBps */\n      tag_196\n      swap2\n      swap1\n      tag_197\n      jump\t// in\n    tag_196:\n        /* \"contracts/PadiTokenStable.sol\":3875:3906  (amount * mintFeeBps) / MAX_BPS */\n      tag_198\n      swap2\n      swap1\n      tag_199\n      jump\t// in\n    tag_198:\n        /* \"contracts/PadiTokenStable.sol\":3861:3906  uint256 fee = (amount * mintFeeBps) / MAX_BPS */\n      swap1\n      pop\n        /* \"contracts/PadiTokenStable.sol\":3916:3927  uint256 net */\n      0x00\n        /* \"contracts/PadiTokenStable.sol\":3939:3942  fee */\n      dup2\n        /* \"contracts/PadiTokenStable.sol\":3930:3936  amount */\n      dup4\n        /* \"contracts/PadiTokenStable.sol\":3930:3942  amount - fee */\n      tag_200\n      swap2\n      swap1\n      tag_201\n      jump\t// in\n    tag_200:\n        /* \"contracts/PadiTokenStable.sol\":3916:3942  uint256 net = amount - fee */\n      swap1\n      pop\n        /* \"contracts/PadiTokenStable.sol\":3998:4020  _mint(msg.sender, net) */\n      tag_202\n        /* \"contracts/PadiTokenStable.sol\":4004:4014  msg.sender */\n      caller\n        /* \"contracts/PadiTokenStable.sol\":4016:4019  net */\n      dup3\n        /* \"contracts/PadiTokenStable.sol\":3998:4003  _mint */\n      tag_203\n        /* \"contracts/PadiTokenStable.sol\":3998:4020  _mint(msg.sender, net) */\n      jump\t// in\n    tag_202:\n        /* \"contracts/PadiTokenStable.sol\":4040:4041  0 */\n      0x00\n        /* \"contracts/PadiTokenStable.sol\":4034:4037  fee */\n      dup3\n        /* \"contracts/PadiTokenStable.sol\":4034:4041  fee > 0 */\n      gt\n        /* \"contracts/PadiTokenStable.sol\":4030:4088  if (fee > 0) {... */\n      iszero\n      tag_204\n      jumpi\n        /* \"contracts/PadiTokenStable.sol\":4057:4077  _mint(treasury, fee) */\n      tag_205\n        /* \"contracts/PadiTokenStable.sol\":4063:4071  treasury */\n      0x07\n      0x00\n      swap1\n      sload\n      swap1\n      0x0100\n      exp\n      swap1\n      div\n      0xffffffffffffffffffffffffffffffffffffffff\n      and\n        /* \"contracts/PadiTokenStable.sol\":4073:4076  fee */\n      dup4\n        /* \"contracts/PadiTokenStable.sol\":4057:4062  _mint */\n      tag_203\n        /* \"contracts/PadiTokenStable.sol\":4057:4077  _mint(treasury, fee) */\n      jump\t// in\n    tag_205:\n        /* \"contracts/PadiTokenStable.sol\":4030:4088  if (fee > 0) {... */\n    tag_204:\n        /* \"contracts/PadiTokenStable.sol\":4110:4120  msg.sender */\n      caller\n        /* \"contracts/PadiTokenStable.sol\":4103:4131  Minted(msg.sender, net, fee) */\n      0xffffffffffffffffffffffffffffffffffffffff\n      and\n      0x25b428dfde728ccfaddad7e29e4ac23c24ed7fd1a6e3e3f91894a9a073f5dfff\n        /* \"contracts/PadiTokenStable.sol\":4122:4125  net */\n      dup3\n        /* \"contracts/PadiTokenStable.sol\":4127:4130  fee */\n      dup5\n        /* \"contracts/PadiTokenStable.sol\":4103:4131  Minted(msg.sender, net, fee) */\n      mload(0x40)\n      tag_206\n      swap3\n      swap2\n      swap1\n      tag_207\n      jump\t// in\n    tag_206:\n      mload(0x40)\n      dup1\n      swap2\n      sub\n      swap1\n      log2\n        /* \"contracts/PadiTokenStable.sol\":3589:4138  {... */\n      pop\n      pop\n        /* \"@openzeppelin/contracts/security/ReentrancyGuard.sol\":2303:2323  _nonReentrantAfter() */\n      tag_208\n        /* \"@openzeppelin/contracts/security/ReentrancyGuard.sol\":2303:2321  _nonReentrantAfter */\n      tag_209\n        /* \"@openzeppelin/contracts/security/ReentrancyGuard.sol\":2303:2323  _nonReentrantAfter() */\n      jump\t// in\n    tag_208:\n        /* \"contracts/PadiTokenStable.sol\":3495:4138  function mint(uint256 amount)... */\n      pop\n      jump\t// out\n        /* \"@openzeppelin/contracts/token/ERC20/ERC20.sol\":3315:3493  function transfer(address to, uint256 value) public virtual returns (bool) {... */\n    tag_103:\n        /* \"@openzeppelin/contracts/token/ERC20/ERC20.sol\":3384:3388  bool */\n      0x00\n        /* \"@openzeppelin/contracts/token/ERC20/ERC20.sol\":3400:3413  address owner */\n      dup1\n        /* \"@openzeppelin/contracts/token/ERC20/ERC20.sol\":3416:3428  _msgSender() */\n      tag_211\n        /* \"@openzeppelin/contracts/token/ERC20/ERC20.sol\":3416:3426  _msgSender */\n      tag_131\n        /* \"@openzeppelin/contracts/token/ERC20/ERC20.sol\":3416:3428  _msgSender() */\n      jump\t// in\n    tag_211:\n        /* \"@openzeppelin/contracts/token/ERC20/ERC20.sol\":3400:3428  address owner = _msgSender() */\n      swap1\n      pop\n        /* \"@openzeppelin/contracts/token/ERC20/ERC20.sol\":3438:3465  _transfer(owner, to, value) */\n      tag_212\n        /* \"@openzeppelin/contracts/token/ERC20/ERC20.sol\":3448:3453  owner */\n      dup2\n        /* \"@openzeppelin/contracts/token/ERC20/ERC20.sol\":3455:3457  to */\n      dup6\n        /* \"@openzeppelin/contracts/token/ERC20/ERC20.sol\":3459:3464  value */\n      dup6\n        /* \"@openzeppelin/contracts/token/ERC20/ERC20.sol\":3438:3447  _transfer */\n      tag_140\n        /* \"@openzeppelin/contracts/token/ERC20/ERC20.sol\":3438:3465  _transfer(owner, to, value) */\n      jump\t// in\n    tag_212:\n        /* \"@openzeppelin/contracts/token/ERC20/ERC20.sol\":3482:3486  true */\n      0x01\n        /* \"@openzeppelin/contracts/token/ERC20/ERC20.sol\":3475:3486  return true */\n      swap2\n      pop\n      pop\n        /* \"@openzeppelin/contracts/token/ERC20/ERC20.sol\":3315:3493  function transfer(address to, uint256 value) public virtual returns (bool) {... */\n      swap3\n      swap2\n      pop\n      pop\n      jump\t// out\n        /* \"contracts/PadiTokenStable.sol\":4269:4859  function redeem(uint256 amount)... */\n    tag_107:\n        /* \"@openzeppelin/contracts/security/Pausable.sol\":1239:1258  _requireNotPaused() */\n      tag_214\n        /* \"@openzeppelin/contracts/security/Pausable.sol\":1239:1256  _requireNotPaused */\n      tag_180\n        /* \"@openzeppelin/contracts/security/Pausable.sol\":1239:1258  _requireNotPaused() */\n      jump\t// in\n    tag_214:\n        /* \"@openzeppelin/contracts/security/ReentrancyGuard.sol\":2261:2282  _nonReentrantBefore() */\n      tag_216\n        /* \"@openzeppelin/contracts/security/ReentrancyGuard.sol\":2261:2280  _nonReentrantBefore */\n      tag_183\n        /* \"@openzeppelin/contracts/security/ReentrancyGuard.sol\":2261:2282  _nonReentrantBefore() */\n      jump\t// in\n    tag_216:\n        /* \"contracts/PadiTokenStable.sol\":4392:4393  0 */\n      0x00\n        /* \"contracts/PadiTokenStable.sol\":4383:4389  amount */\n      dup2\n        /* \"contracts/PadiTokenStable.sol\":4383:4393  amount > 0 */\n      gt\n        /* \"contracts/PadiTokenStable.sol\":4375:4416  require(amount > 0, \"Amount must be > 0\") */\n      tag_218\n      jumpi\n      mload(0x40)\n      0x08c379a000000000000000000000000000000000000000000000000000000000\n      dup2\n      mstore\n      0x04\n      add\n      tag_219\n      swap1\n      tag_187\n      jump\t// in\n    tag_219:\n      mload(0x40)\n      dup1\n      swap2\n      sub\n      swap1\n      revert\n    tag_218:\n        /* \"contracts/PadiTokenStable.sol\":4465:4476  uint256 fee */\n      0x00\n        /* \"contracts/PadiTokenStable.sol\":969:975  10_000 */\n      0x2710\n        /* \"contracts/PadiTokenStable.sol\":4479:4512  (amount * redeemFeeBps) / MAX_BPS */\n      0xffff\n      and\n        /* \"contracts/PadiTokenStable.sol\":4489:4501  redeemFeeBps */\n      0x07\n      0x16\n      swap1\n      sload\n      swap1\n      0x0100\n      exp\n      swap1\n      div\n      0xffff\n      and\n        /* \"contracts/PadiTokenStable.sol\":4480:4501  amount * redeemFeeBps */\n      0xffff\n      and\n        /* \"contracts/PadiTokenStable.sol\":4480:4486  amount */\n      dup4\n        /* \"contracts/PadiTokenStable.sol\":4480:4501  amount * redeemFeeBps */\n      tag_220\n      swap2\n      swap1\n      tag_197\n      jump\t// in\n    tag_220:\n        /* \"contracts/PadiTokenStable.sol\":4479:4512  (amount * redeemFeeBps) / MAX_BPS */\n      tag_221\n      swap2\n      swap1\n      tag_199\n      jump\t// in\n    tag_221:\n        /* \"contracts/PadiTokenStable.sol\":4465:4512  uint256 fee = (amount * redeemFeeBps) / MAX_BPS */\n      swap1\n      pop\n        /* \"contracts/PadiTokenStable.sol\":4522:4533  uint256 net */\n      0x00\n        /* \"contracts/PadiTokenStable.sol\":4545:4548  fee */\n      dup2\n        /* \"contracts/PadiTokenStable.sol\":4536:4542  amount */\n      dup4\n        /* \"contracts/PadiTokenStable.sol\":4536:4548  amount - fee */\n      tag_222\n      swap2\n      swap1\n      tag_201\n      jump\t// in\n    tag_222:\n        /* \"contracts/PadiTokenStable.sol\":4522:4548  uint256 net = amount - fee */\n      swap1\n      pop\n        /* \"contracts/PadiTokenStable.sol\":4598:4623  _burn(msg.sender, amount) */\n      tag_223\n        /* \"contracts/PadiTokenStable.sol\":4604:4614  msg.sender */\n      caller\n        /* \"contracts/PadiTokenStable.sol\":4616:4622  amount */\n      dup5\n        /* \"contracts/PadiTokenStable.sol\":4598:4603  _burn */\n      tag_224\n        /* \"contracts/PadiTokenStable.sol\":4598:4623  _burn(msg.sender, amount) */\n      jump\t// in\n    tag_223:\n        /* \"contracts/PadiTokenStable.sol\":4685:4719  cusd.safeTransfer(msg.sender, net) */\n      tag_225\n        /* \"contracts/PadiTokenStable.sol\":4703:4713  msg.sender */\n      caller\n        /* \"contracts/PadiTokenStable.sol\":4715:4718  net */\n      dup3\n        /* \"contracts/PadiTokenStable.sol\":4685:4689  cusd */\n      immutable(\"0x9cb0b993ce3cc460071d556c01bf4adf48941df3146d18de5e970d113760be43\")\n        /* \"contracts/PadiTokenStable.sol\":4685:4702  cusd.safeTransfer */\n      0xffffffffffffffffffffffffffffffffffffffff\n      and\n      tag_226\n      swap1\n        /* \"contracts/PadiTokenStable.sol\":4685:4719  cusd.safeTransfer(msg.sender, net) */\n      swap3\n      swap2\n      swap1\n      0xffffffff\n      and\n      jump\t// in\n    tag_225:\n        /* \"contracts/PadiTokenStable.sol\":4739:4740  0 */\n      0x00\n        /* \"contracts/PadiTokenStable.sol\":4733:4736  fee */\n      dup3\n        /* \"contracts/PadiTokenStable.sol\":4733:4740  fee > 0 */\n      gt\n        /* \"contracts/PadiTokenStable.sol\":4729:4799  if (fee > 0) {... */\n      iszero\n      tag_227\n      jumpi\n        /* \"contracts/PadiTokenStable.sol\":4756:4788  cusd.safeTransfer(treasury, fee) */\n      tag_228\n        /* \"contracts/PadiTokenStable.sol\":4774:4782  treasury */\n      0x07\n      0x00\n      swap1\n      sload\n      swap1\n      0x0100\n      exp\n      swap1\n      div\n      0xffffffffffffffffffffffffffffffffffffffff\n      and\n        /* \"contracts/PadiTokenStable.sol\":4784:4787  fee */\n      dup4\n        /* \"contracts/PadiTokenStable.sol\":4756:4760  cusd */\n      immutable(\"0x9cb0b993ce3cc460071d556c01bf4adf48941df3146d18de5e970d113760be43\")\n        /* \"contracts/PadiTokenStable.sol\":4756:4773  cusd.safeTransfer */\n      0xffffffffffffffffffffffffffffffffffffffff\n      and\n      tag_226\n      swap1\n        /* \"contracts/PadiTokenStable.sol\":4756:4788  cusd.safeTransfer(treasury, fee) */\n      swap3\n      swap2\n      swap1\n      0xffffffff\n      and\n      jump\t// in\n    tag_228:\n        /* \"contracts/PadiTokenStable.sol\":4729:4799  if (fee > 0) {... */\n    tag_227:\n        /* \"contracts/PadiTokenStable.sol\":4823:4833  msg.sender */\n      caller\n        /* \"contracts/PadiTokenStable.sol\":4814:4852  Redeemed(msg.sender, amount, net, fee) */\n      0xffffffffffffffffffffffffffffffffffffffff\n      and\n      0x484c40561359f3e3b8be9101897f8680aa82fbe1df9fd9038e0dbc6284032646\n        /* \"contracts/PadiTokenStable.sol\":4835:4841  amount */\n      dup5\n        /* \"contracts/PadiTokenStable.sol\":4843:4846  net */\n      dup4\n        /* \"contracts/PadiTokenStable.sol\":4848:4851  fee */\n      dup6\n        /* \"contracts/PadiTokenStable.sol\":4814:4852  Redeemed(msg.sender, amount, net, fee) */\n      mload(0x40)\n      tag_229\n      swap4\n      swap3\n      swap2\n      swap1\n      tag_230\n      jump\t// in\n    tag_229:\n      mload(0x40)\n      dup1\n      swap2\n      sub\n      swap1\n      log2\n        /* \"contracts/PadiTokenStable.sol\":4365:4859  {... */\n      pop\n      pop\n        /* \"@openzeppelin/contracts/security/ReentrancyGuard.sol\":2303:2323  _nonReentrantAfter() */\n      tag_231\n        /* \"@openzeppelin/contracts/security/ReentrancyGuard.sol\":2303:2321  _nonReentrantAfter */\n      tag_209\n        /* \"@openzeppelin/contracts/security/ReentrancyGuard.sol\":2303:2323  _nonReentrantAfter() */\n      jump\t// in\n    tag_231:\n        /* \"contracts/PadiTokenStable.sol\":4269:4859  function redeem(uint256 amount)... */\n      pop\n      jump\t// out\n        /* \"@openzeppelin/contracts/token/ERC20/ERC20.sol\":3551:3691  function allowance(address owner, address spender) public view virtual returns (uint256) {... */\n    tag_111:\n        /* \"@openzeppelin/contracts/token/ERC20/ERC20.sol\":3631:3638  uint256 */\n      0x00\n        /* \"@openzeppelin/contracts/token/ERC20/ERC20.sol\":3657:3668  _allowances */\n      0x01\n        /* \"@openzeppelin/contracts/token/ERC20/ERC20.sol\":3657:3675  _allowances[owner] */\n      0x00\n        /* \"@openzeppelin/contracts/token/ERC20/ERC20.sol\":3669:3674  owner */\n      dup5\n        /* \"@openzeppelin/contracts/token/ERC20/ERC20.sol\":3657:3675  _allowances[owner] */\n      0xffffffffffffffffffffffffffffffffffffffff\n      and\n      0xffffffffffffffffffffffffffffffffffffffff\n      and\n      dup2\n      mstore\n      0x20\n      add\n      swap1\n      dup2\n      mstore\n      0x20\n      add\n      0x00\n      keccak256\n        /* \"@openzeppelin/contracts/token/ERC20/ERC20.sol\":3657:3684  _allowances[owner][spender] */\n      0x00\n        /* \"@openzeppelin/contracts/token/ERC20/ERC20.sol\":3676:3683  spender */\n      dup4\n        /* \"@openzeppelin/contracts/token/ERC20/ERC20.sol\":3657:3684  _allowances[owner][spender] */\n      0xffffffffffffffffffffffffffffffffffffffff\n      and\n      0xffffffffffffffffffffffffffffffffffffffff\n      and\n      dup2\n      mstore\n      0x20\n      add\n      swap1\n      dup2\n      mstore\n      0x20\n      add\n      0x00\n      keccak256\n      sload\n        /* \"@openzeppelin/contracts/token/ERC20/ERC20.sol\":3650:3684  return _allowances[owner][spender] */\n      swap1\n      pop\n        /* \"@openzeppelin/contracts/token/ERC20/ERC20.sol\":3551:3691  function allowance(address owner, address spender) public view virtual returns (uint256) {... */\n      swap3\n      swap2\n      pop\n      pop\n      jump\t// out\n        /* \"contracts/PadiTokenStable.sol\":3166:3365  function setTreasury(address _treasury) external onlyOwner {... */\n    tag_115:\n        /* \"@openzeppelin/contracts/access/Ownable.sol\":1531:1544  _checkOwner() */\n      tag_234\n        /* \"@openzeppelin/contracts/access/Ownable.sol\":1531:1542  _checkOwner */\n      tag_144\n        /* \"@openzeppelin/contracts/access/Ownable.sol\":1531:1544  _checkOwner() */\n      jump\t// in\n    tag_234:\n        /* \"contracts/PadiTokenStable.sol\":3264:3265  0 */\n      0x00\n        /* \"contracts/PadiTokenStable.sol\":3243:3266  _treasury != address(0) */\n      0xffffffffffffffffffffffffffffffffffffffff\n      and\n        /* \"contracts/PadiTokenStable.sol\":3243:3252  _treasury */\n      dup2\n        /* \"contracts/PadiTokenStable.sol\":3243:3266  _treasury != address(0) */\n      0xffffffffffffffffffffffffffffffffffffffff\n      and\n      sub\n        /* \"contracts/PadiTokenStable.sol\":3235:3287  require(_treasury != address(0), \"Invalid treasury\") */\n      tag_236\n      jumpi\n      mload(0x40)\n      0x08c379a000000000000000000000000000000000000000000000000000000000\n      dup2\n      mstore\n      0x04\n      add\n      tag_237\n      swap1\n      tag_238\n      jump\t// in\n    tag_237:\n      mload(0x40)\n      dup1\n      swap2\n      sub\n      swap1\n      revert\n    tag_236:\n        /* \"contracts/PadiTokenStable.sol\":3308:3317  _treasury */\n      dup1\n        /* \"contracts/PadiTokenStable.sol\":3297:3305  treasury */\n      0x07\n      0x00\n        /* \"contracts/PadiTokenStable.sol\":3297:3317  treasury = _treasury */\n      0x0100\n      exp\n      dup2\n      sload\n      dup2\n      0xffffffffffffffffffffffffffffffffffffffff\n      mul\n      not\n      and\n      swap1\n      dup4\n      0xffffffffffffffffffffffffffffffffffffffff\n      and\n      mul\n      or\n      swap1\n      sstore\n      pop\n        /* \"contracts/PadiTokenStable.sol\":3332:3358  TreasuryUpdated(_treasury) */\n      0x7dae230f18360d76a040c81f050aa14eb9d6dc7901b20fc5d855e2a20fe814d1\n        /* \"contracts/PadiTokenStable.sol\":3348:3357  _treasury */\n      dup2\n        /* \"contracts/PadiTokenStable.sol\":3332:3358  TreasuryUpdated(_treasury) */\n      mload(0x40)\n      tag_239\n      swap2\n      swap1\n      tag_74\n      jump\t// in\n    tag_239:\n      mload(0x40)\n      dup1\n      swap2\n      sub\n      swap1\n      log1\n        /* \"contracts/PadiTokenStable.sol\":3166:3365  function setTreasury(address _treasury) external onlyOwner {... */\n      pop\n      jump\t// out\n        /* \"@openzeppelin/contracts/access/Ownable.sol\":2543:2758  function transferOwnership(address newOwner) public virtual onlyOwner {... */\n    tag_118:\n        /* \"@openzeppelin/contracts/access/Ownable.sol\":1531:1544  _checkOwner() */\n      tag_241\n        /* \"@openzeppelin/contracts/access/Ownable.sol\":1531:1542  _checkOwner */\n      tag_144\n        /* \"@openzeppelin/contracts/access/Ownable.sol\":1531:1544  _checkOwner() */\n      jump\t// in\n    tag_241:\n        /* \"@openzeppelin/contracts/access/Ownable.sol\":2647:2648  0 */\n      0x00\n        /* \"@openzeppelin/contracts/access/Ownable.sol\":2627:2649  newOwner == address(0) */\n      0xffffffffffffffffffffffffffffffffffffffff\n      and\n        /* \"@openzeppelin/contracts/access/Ownable.sol\":2627:2635  newOwner */\n      dup2\n        /* \"@openzeppelin/contracts/access/Ownable.sol\":2627:2649  newOwner == address(0) */\n      0xffffffffffffffffffffffffffffffffffffffff\n      and\n      sub\n        /* \"@openzeppelin/contracts/access/Ownable.sol\":2623:2714  if (newOwner == address(0)) {... */\n      tag_243\n      jumpi\n        /* \"@openzeppelin/contracts/access/Ownable.sol\":2700:2701  0 */\n      0x00\n        /* \"@openzeppelin/contracts/access/Ownable.sol\":2672:2703  OwnableInvalidOwner(address(0)) */\n      mload(0x40)\n      0x1e4fbdf700000000000000000000000000000000000000000000000000000000\n      dup2\n      mstore\n      0x04\n      add\n      tag_244\n      swap2\n      swap1\n      tag_74\n      jump\t// in\n    tag_244:\n      mload(0x40)\n      dup1\n      swap2\n      sub\n      swap1\n      revert\n        /* \"@openzeppelin/contracts/access/Ownable.sol\":2623:2714  if (newOwner == address(0)) {... */\n    tag_243:\n        /* \"@openzeppelin/contracts/access/Ownable.sol\":2723:2751  _transferOwnership(newOwner) */\n      tag_245\n        /* \"@openzeppelin/contracts/access/Ownable.sol\":2742:2750  newOwner */\n      dup2\n        /* \"@openzeppelin/contracts/access/Ownable.sol\":2723:2741  _transferOwnership */\n      tag_154\n        /* \"@openzeppelin/contracts/access/Ownable.sol\":2723:2751  _transferOwnership(newOwner) */\n      jump\t// in\n    tag_245:\n        /* \"@openzeppelin/contracts/access/Ownable.sol\":2543:2758  function transferOwnership(address newOwner) public virtual onlyOwner {... */\n      pop\n      jump\t// out\n        /* \"contracts/PadiTokenStable.sol\":936:975  uint16 public constant MAX_BPS = 10_000 */\n    tag_120:\n        /* \"contracts/PadiTokenStable.sol\":969:975  10_000 */\n      0x2710\n        /* \"contracts/PadiTokenStable.sol\":936:975  uint16 public constant MAX_BPS = 10_000 */\n      dup2\n      jump\t// out\n        /* \"@openzeppelin/contracts/utils/Context.sol\":656:752  function _msgSender() internal view virtual returns (address) {... */\n    tag_131:\n        /* \"@openzeppelin/contracts/utils/Context.sol\":709:716  address */\n      0x00\n        /* \"@openzeppelin/contracts/utils/Context.sol\":735:745  msg.sender */\n      caller\n        /* \"@openzeppelin/contracts/utils/Context.sol\":728:745  return msg.sender */\n      swap1\n      pop\n        /* \"@openzeppelin/contracts/utils/Context.sol\":656:752  function _msgSender() internal view virtual returns (address) {... */\n      swap1\n      jump\t// out\n        /* \"@openzeppelin/contracts/token/ERC20/ERC20.sol\":8726:8854  function _approve(address owner, address spender, uint256 value) internal {... */\n    tag_133:\n        /* \"@openzeppelin/contracts/token/ERC20/ERC20.sol\":8810:8847  _approve(owner, spender, value, true) */\n      tag_248\n        /* \"@openzeppelin/contracts/token/ERC20/ERC20.sol\":8819:8824  owner */\n      dup4\n        /* \"@openzeppelin/contracts/token/ERC20/ERC20.sol\":8826:8833  spender */\n      dup4\n        /* \"@openzeppelin/contracts/token/ERC20/ERC20.sol\":8835:8840  value */\n      dup4\n        /* \"@openzeppelin/contracts/token/ERC20/ERC20.sol\":8842:8846  true */\n      0x01\n        /* \"@openzeppelin/contracts/token/ERC20/ERC20.sol\":8810:8818  _approve */\n      tag_249\n        /* \"@openzeppelin/contracts/token/ERC20/ERC20.sol\":8810:8847  _approve(owner, spender, value, true) */\n      jump\t// in\n    tag_248:\n        /* \"@openzeppelin/contracts/token/ERC20/ERC20.sol\":8726:8854  function _approve(address owner, address spender, uint256 value) internal {... */\n      pop\n      pop\n      pop\n      jump\t// out\n        /* \"@openzeppelin/contracts/token/ERC20/ERC20.sol\":10415:10892  function _spendAllowance(address owner, address spender, uint256 value) internal virtual {... */\n    tag_138:\n        /* \"@openzeppelin/contracts/token/ERC20/ERC20.sol\":10514:10538  uint256 currentAllowance */\n      0x00\n        /* \"@openzeppelin/contracts/token/ERC20/ERC20.sol\":10541:10566  allowance(owner, spender) */\n      tag_251\n        /* \"@openzeppelin/contracts/token/ERC20/ERC20.sol\":10551:10556  owner */\n      dup5\n        /* \"@openzeppelin/contracts/token/ERC20/ERC20.sol\":10558:10565  spender */\n      dup5\n        /* \"@openzeppelin/contracts/token/ERC20/ERC20.sol\":10541:10550  allowance */\n      tag_111\n        /* \"@openzeppelin/contracts/token/ERC20/ERC20.sol\":10541:10566  allowance(owner, spender) */\n      jump\t// in\n    tag_251:\n        /* \"@openzeppelin/contracts/token/ERC20/ERC20.sol\":10514:10566  uint256 currentAllowance = allowance(owner, spender) */\n      swap1\n      pop\n        /* \"@openzeppelin/contracts/token/ERC20/ERC20.sol\":10600:10617  type(uint256).max */\n      0xffffffffffffffffffffffffffffffffffffffffffffffffffffffffffffffff\n        /* \"@openzeppelin/contracts/token/ERC20/ERC20.sol\":10580:10596  currentAllowance */\n      dup2\n        /* \"@openzeppelin/contracts/token/ERC20/ERC20.sol\":10580:10617  currentAllowance != type(uint256).max */\n      eq\n        /* \"@openzeppelin/contracts/token/ERC20/ERC20.sol\":10576:10886  if (currentAllowance != type(uint256).max) {... */\n      tag_252\n      jumpi\n        /* \"@openzeppelin/contracts/token/ERC20/ERC20.sol\":10656:10661  value */\n      dup2\n        /* \"@openzeppelin/contracts/token/ERC20/ERC20.sol\":10637:10653  currentAllowance */\n      dup2\n        /* \"@openzeppelin/contracts/token/ERC20/ERC20.sol\":10637:10661  currentAllowance < value */\n      lt\n        /* \"@openzeppelin/contracts/token/ERC20/ERC20.sol\":10633:10763  if (currentAllowance < value) {... */\n      iszero\n      tag_253\n      jumpi\n        /* \"@openzeppelin/contracts/token/ERC20/ERC20.sol\":10715:10722  spender */\n      dup3\n        /* \"@openzeppelin/contracts/token/ERC20/ERC20.sol\":10724:10740  currentAllowance */\n      dup2\n        /* \"@openzeppelin/contracts/token/ERC20/ERC20.sol\":10742:10747  value */\n      dup4\n        /* \"@openzeppelin/contracts/token/ERC20/ERC20.sol\":10688:10748  ERC20InsufficientAllowance(spender, currentAllowance, value) */\n      mload(0x40)\n      0xfb8f41b200000000000000000000000000000000000000000000000000000000\n      dup2\n      mstore\n      0x04\n      add\n      tag_254\n      swap4\n      swap3\n      swap2\n      swap1\n      tag_255\n      jump\t// in\n    tag_254:\n      mload(0x40)\n      dup1\n      swap2\n      sub\n      swap1\n      revert\n        /* \"@openzeppelin/contracts/token/ERC20/ERC20.sol\":10633:10763  if (currentAllowance < value) {... */\n    tag_253:\n        /* \"@openzeppelin/contracts/token/ERC20/ERC20.sol\":10804:10861  _approve(owner, spender, currentAllowance - value, false) */\n      tag_256\n        /* \"@openzeppelin/contracts/token/ERC20/ERC20.sol\":10813:10818  owner */\n      dup5\n        /* \"@openzeppelin/contracts/token/ERC20/ERC20.sol\":10820:10827  spender */\n      dup5\n        /* \"@openzeppelin/contracts/token/ERC20/ERC20.sol\":10848:10853  value */\n      dup5\n        /* \"@openzeppelin/contracts/token/ERC20/ERC20.sol\":10829:10845  currentAllowance */\n      dup5\n        /* \"@openzeppelin/contracts/token/ERC20/ERC20.sol\":10829:10853  currentAllowance - value */\n      sub\n        /* \"@openzeppelin/contracts/token/ERC20/ERC20.sol\":10855:10860  false */\n      0x00\n        /* \"@openzeppelin/contracts/token/ERC20/ERC20.sol\":10804:10812  _approve */\n      tag_249\n        /* \"@openzeppelin/contracts/token/ERC20/ERC20.sol\":10804:10861  _approve(owner, spender, currentAllowance - value, false) */\n      jump\t// in\n    tag_256:\n        /* \"@openzeppelin/contracts/token/ERC20/ERC20.sol\":10576:10886  if (currentAllowance != type(uint256).max) {... */\n    tag_252:\n        /* \"@openzeppelin/contracts/token/ERC20/ERC20.sol\":10504:10892  {... */\n      pop\n        /* \"@openzeppelin/contracts/token/ERC20/ERC20.sol\":10415:10892  function _spendAllowance(address owner, address spender, uint256 value) internal virtual {... */\n      pop\n      pop\n      pop\n      jump\t// out\n        /* \"@openzeppelin/contracts/token/ERC20/ERC20.sol\":5393:5693  function _transfer(address from, address to, uint256 value) internal {... */\n    tag_140:\n        /* \"@openzeppelin/contracts/token/ERC20/ERC20.sol\":5492:5493  0 */\n      0x00\n        /* \"@openzeppelin/contracts/token/ERC20/ERC20.sol\":5476:5494  from == address(0) */\n      0xffffffffffffffffffffffffffffffffffffffff\n      and\n        /* \"@openzeppelin/contracts/token/ERC20/ERC20.sol\":5476:5480  from */\n      dup4\n        /* \"@openzeppelin/contracts/token/ERC20/ERC20.sol\":5476:5494  from == address(0) */\n      0xffffffffffffffffffffffffffffffffffffffff\n      and\n      sub\n        /* \"@openzeppelin/contracts/token/ERC20/ERC20.sol\":5472:5558  if (from == address(0)) {... */\n      tag_258\n      jumpi\n        /* \"@openzeppelin/contracts/token/ERC20/ERC20.sol\":5544:5545  0 */\n      0x00\n        /* \"@openzeppelin/contracts/token/ERC20/ERC20.sol\":5517:5547  ERC20InvalidSender(address(0)) */\n      mload(0x40)\n      0x96c6fd1e00000000000000000000000000000000000000000000000000000000\n      dup2\n      mstore\n      0x04\n      add\n      tag_259\n      swap2\n      swap1\n      tag_74\n      jump\t// in\n    tag_259:\n      mload(0x40)\n      dup1\n      swap2\n      sub\n      swap1\n      revert\n        /* \"@openzeppelin/contracts/token/ERC20/ERC20.sol\":5472:5558  if (from == address(0)) {... */\n    tag_258:\n        /* \"@openzeppelin/contracts/token/ERC20/ERC20.sol\":5585:5586  0 */\n      0x00\n        /* \"@openzeppelin/contracts/token/ERC20/ERC20.sol\":5571:5587  to == address(0) */\n      0xffffffffffffffffffffffffffffffffffffffff\n      and\n        /* \"@openzeppelin/contracts/token/ERC20/ERC20.sol\":5571:5573  to */\n      dup3\n        /* \"@openzeppelin/contracts/token/ERC20/ERC20.sol\":5571:5587  to == address(0) */\n      0xffffffffffffffffffffffffffffffffffffffff\n      and\n      sub\n        /* \"@openzeppelin/contracts/token/ERC20/ERC20.sol\":5567:5653  if (to == address(0)) {... */\n      tag_260\n      jumpi\n        /* \"@openzeppelin/contracts/token/ERC20/ERC20.sol\":5639:5640  0 */\n      0x00\n        /* \"@openzeppelin/contracts/token/ERC20/ERC20.sol\":5610:5642  ERC20InvalidReceiver(address(0)) */\n      mload(0x40)\n      0xec442f0500000000000000000000000000000000000000000000000000000000\n      dup2\n      mstore\n      0x04\n      add\n      tag_261\n      swap2\n      swap1\n      tag_74\n      jump\t// in\n    tag_261:\n      mload(0x40)\n      dup1\n      swap2\n      sub\n      swap1\n      revert\n        /* \"@openzeppelin/contracts/token/ERC20/ERC20.sol\":5567:5653  if (to == address(0)) {... */\n    tag_260:\n        /* \"@openzeppelin/contracts/token/ERC20/ERC20.sol\":5662:5686  _update(from, to, value) */\n      tag_262\n        /* \"@openzeppelin/contracts/token/ERC20/ERC20.sol\":5670:5674  from */\n      dup4\n        /* \"@openzeppelin/contracts/token/ERC20/ERC20.sol\":5676:5678  to */\n      dup4\n        /* \"@openzeppelin/contracts/token/ERC20/ERC20.sol\":5680:5685  value */\n      dup4\n        /* \"@openzeppelin/contracts/token/ERC20/ERC20.sol\":5662:5669  _update */\n      tag_263\n        /* \"@openzeppelin/contracts/token/ERC20/ERC20.sol\":5662:5686  _update(from, to, value) */\n      jump\t// in\n    tag_262:\n        /* \"@openzeppelin/contracts/token/ERC20/ERC20.sol\":5393:5693  function _transfer(address from, address to, uint256 value) internal {... */\n      pop\n      pop\n      pop\n      jump\t// out\n        /* \"@openzeppelin/contracts/access/Ownable.sol\":1796:1958  function _checkOwner() internal view virtual {... */\n    tag_144:\n        /* \"@openzeppelin/contracts/access/Ownable.sol\":1866:1878  _msgSender() */\n      tag_265\n        /* \"@openzeppelin/contracts/access/Ownable.sol\":1866:1876  _msgSender */\n      tag_131\n        /* \"@openzeppelin/contracts/access/Ownable.sol\":1866:1878  _msgSender() */\n      jump\t// in\n    tag_265:\n        /* \"@openzeppelin/contracts/access/Ownable.sol\":1855:1878  owner() != _msgSender() */\n      0xffffffffffffffffffffffffffffffffffffffff\n      and\n        /* \"@openzeppelin/contracts/access/Ownable.sol\":1855:1862  owner() */\n      tag_266\n        /* \"@openzeppelin/contracts/access/Ownable.sol\":1855:1860  owner */\n      tag_85\n        /* \"@openzeppelin/contracts/access/Ownable.sol\":1855:1862  owner() */\n      jump\t// in\n    tag_266:\n        /* \"@openzeppelin/contracts/access/Ownable.sol\":1855:1878  owner() != _msgSender() */\n      0xffffffffffffffffffffffffffffffffffffffff\n      and\n      eq\n        /* \"@openzeppelin/contracts/access/Ownable.sol\":1851:1952  if (owner() != _msgSender()) {... */\n      tag_267\n      jumpi\n        /* \"@openzeppelin/contracts/access/Ownable.sol\":1928:1940  _msgSender() */\n      tag_268\n        /* \"@openzeppelin/contracts/access/Ownable.sol\":1928:1938  _msgSender */\n      tag_131\n        /* \"@openzeppelin/contracts/access/Ownable.sol\":1928:1940  _msgSender() */\n      jump\t// in\n    tag_268:\n        /* \"@openzeppelin/contracts/access/Ownable.sol\":1901:1941  OwnableUnauthorizedAccount(_msgSender()) */\n      mload(0x40)\n      0x118cdaa700000000000000000000000000000000000000000000000000000000\n      dup2\n      mstore\n      0x04\n      add\n      tag_269\n      swap2\n      swap1\n      tag_74\n      jump\t// in\n    tag_269:\n      mload(0x40)\n      dup1\n      swap2\n      sub\n      swap1\n      revert\n        /* \"@openzeppelin/contracts/access/Ownable.sol\":1851:1952  if (owner() != _msgSender()) {... */\n    tag_267:\n        /* \"@openzeppelin/contracts/access/Ownable.sol\":1796:1958  function _checkOwner() internal view virtual {... */\n      jump\t// out\n        /* \"@openzeppelin/contracts/security/Pausable.sol\":2433:2550  function _unpause() internal virtual whenPaused {... */\n    tag_147:\n        /* \"@openzeppelin/contracts/security/Pausable.sol\":1486:1502  _requirePaused() */\n      tag_271\n        /* \"@openzeppelin/contracts/security/Pausable.sol\":1486:1500  _requirePaused */\n      tag_272\n        /* \"@openzeppelin/contracts/security/Pausable.sol\":1486:1502  _requirePaused() */\n      jump\t// in\n    tag_271:\n        /* \"@openzeppelin/contracts/security/Pausable.sol\":2501:2506  false */\n      0x00\n        /* \"@openzeppelin/contracts/security/Pausable.sol\":2491:2498  _paused */\n      0x05\n      0x14\n        /* \"@openzeppelin/contracts/security/Pausable.sol\":2491:2506  _paused = false */\n      0x0100\n      exp\n      dup2\n      sload\n      dup2\n      0xff\n      mul\n      not\n      and\n      swap1\n      dup4\n      iszero\n      iszero\n      mul\n      or\n      swap1\n      sstore\n      pop\n        /* \"@openzeppelin/contracts/security/Pausable.sol\":2521:2543  Unpaused(_msgSender()) */\n      0x5db9ee0a495bf2e6ff9c91a7834c1ba4fdd244a5e8aa4e537bd38aeae4b073aa\n        /* \"@openzeppelin/contracts/security/Pausable.sol\":2530:2542  _msgSender() */\n      tag_274\n        /* \"@openzeppelin/contracts/security/Pausable.sol\":2530:2540  _msgSender */\n      tag_131\n        /* \"@openzeppelin/contracts/security/Pausable.sol\":2530:2542  _msgSender() */\n      jump\t// in\n    tag_274:\n        /* \"@openzeppelin/contracts/security/Pausable.sol\":2521:2543  Unpaused(_msgSender()) */\n      mload(0x40)\n      tag_275\n      swap2\n      swap1\n      tag_74\n      jump\t// in\n    tag_275:\n      mload(0x40)\n      dup1\n      swap2\n      sub\n      swap1\n      log1\n        /* \"@openzeppelin/contracts/security/Pausable.sol\":2433:2550  function _unpause() internal virtual whenPaused {... */\n      jump\t// out\n        /* \"@openzeppelin/contracts/access/Ownable.sol\":2912:3099  function _transferOwnership(address newOwner) internal virtual {... */\n    tag_154:\n        /* \"@openzeppelin/contracts/access/Ownable.sol\":2985:3001  address oldOwner */\n      0x00\n        /* \"@openzeppelin/contracts/access/Ownable.sol\":3004:3010  _owner */\n      0x05\n      0x00\n      swap1\n      sload\n      swap1\n      0x0100\n      exp\n      swap1\n      div\n      0xffffffffffffffffffffffffffffffffffffffff\n      and\n        /* \"@openzeppelin/contracts/access/Ownable.sol\":2985:3010  address oldOwner = _owner */\n      swap1\n      pop\n        /* \"@openzeppelin/contracts/access/Ownable.sol\":3029:3037  newOwner */\n      dup2\n        /* \"@openzeppelin/contracts/access/Ownable.sol\":3020:3026  _owner */\n      0x05\n      0x00\n        /* \"@openzeppelin/contracts/access/Ownable.sol\":3020:3037  _owner = newOwner */\n      0x0100\n      exp\n      dup2\n      sload\n      dup2\n      0xffffffffffffffffffffffffffffffffffffffff\n      mul\n      not\n      and\n      swap1\n      dup4\n      0xffffffffffffffffffffffffffffffffffffffff\n      and\n      mul\n      or\n      swap1\n      sstore\n      pop\n        /* \"@openzeppelin/contracts/access/Ownable.sol\":3083:3091  newOwner */\n      dup2\n        /* \"@openzeppelin/contracts/access/Ownable.sol\":3052:3092  OwnershipTransferred(oldOwner, newOwner) */\n      0xffffffffffffffffffffffffffffffffffffffff\n      and\n        /* \"@openzeppelin/contracts/access/Ownable.sol\":3073:3081  oldOwner */\n      dup2\n        /* \"@openzeppelin/contracts/access/Ownable.sol\":3052:3092  OwnershipTransferred(oldOwner, newOwner) */\n      0xffffffffffffffffffffffffffffffffffffffff\n      and\n      0x8be0079c531659141344cd1fd0a4f28419497f9722a3daafe3b4186f6b6457e0\n      mload(0x40)\n      mload(0x40)\n      dup1\n      swap2\n      sub\n      swap1\n      log3\n        /* \"@openzeppelin/contracts/access/Ownable.sol\":2975:3099  {... */\n      pop\n        /* \"@openzeppelin/contracts/access/Ownable.sol\":2912:3099  function _transferOwnership(address newOwner) internal virtual {... */\n      pop\n      jump\t// out\n        /* \"@openzeppelin/contracts/security/Pausable.sol\":2186:2301  function _pause() internal virtual whenNotPaused {... */\n    tag_159:\n        /* \"@openzeppelin/contracts/security/Pausable.sol\":1239:1258  _requireNotPaused() */\n      tag_278\n        /* \"@openzeppelin/contracts/security/Pausable.sol\":1239:1256  _requireNotPaused */\n      tag_180\n        /* \"@openzeppelin/contracts/security/Pausable.sol\":1239:1258  _requireNotPaused() */\n      jump\t// in\n    tag_278:\n        /* \"@openzeppelin/contracts/security/Pausable.sol\":2255:2259  true */\n      0x01\n        /* \"@openzeppelin/contracts/security/Pausable.sol\":2245:2252  _paused */\n      0x05\n      0x14\n        /* \"@openzeppelin/contracts/security/Pausable.sol\":2245:2259  _paused = true */\n      0x0100\n      exp\n      dup2\n      sload\n      dup2\n      0xff\n      mul\n      not\n      and\n      swap1\n      dup4\n      iszero\n      iszero\n      mul\n      or\n      swap1\n      sstore\n      pop\n        /* \"@openzeppelin/contracts/security/Pausable.sol\":2274:2294  Paused(_msgSender()) */\n      0x62e78cea01bee320cd4e420270b5ea74000d11b0c9f74754ebdbfc544b05a258\n        /* \"@openzeppelin/contracts/security/Pausable.sol\":2281:2293  _msgSender() */\n      tag_280\n        /* \"@openzeppelin/contracts/security/Pausable.sol\":2281:2291  _msgSender */\n      tag_131\n        /* \"@openzeppelin/contracts/security/Pausable.sol\":2281:2293  _msgSender() */\n      jump\t// in\n    tag_280:\n        /* \"@openzeppelin/contracts/security/Pausable.sol\":2274:2294  Paused(_msgSender()) */\n      mload(0x40)\n      tag_281\n      swap2\n      swap1\n      tag_74\n      jump\t// in\n    tag_281:\n      mload(0x40)\n      dup1\n      swap2\n      sub\n      swap1\n      log1\n        /* \"@openzeppelin/contracts/security/Pausable.sol\":2186:2301  function _pause() internal virtual whenNotPaused {... */\n      jump\t// out\n        /* \"@openzeppelin/contracts/security/Pausable.sol\":1767:1873  function _requireNotPaused() internal view virtual {... */\n    tag_180:\n        /* \"@openzeppelin/contracts/security/Pausable.sol\":1837:1845  paused() */\n      tag_283\n        /* \"@openzeppelin/contracts/security/Pausable.sol\":1837:1843  paused */\n      tag_69\n        /* \"@openzeppelin/contracts/security/Pausable.sol\":1837:1845  paused() */\n      jump\t// in\n    tag_283:\n        /* \"@openzeppelin/contracts/security/Pausable.sol\":1836:1845  !paused() */\n      iszero\n        /* \"@openzeppelin/contracts/security/Pausable.sol\":1828:1866  require(!paused(), \"Pausable: paused\") */\n      tag_284\n      jumpi\n      mload(0x40)\n      0x08c379a000000000000000000000000000000000000000000000000000000000\n      dup2\n      mstore\n      0x04\n      add\n      tag_285\n      swap1\n      tag_286\n      jump\t// in\n    tag_285:\n      mload(0x40)\n      dup1\n      swap2\n      sub\n      swap1\n      revert\n    tag_284:\n        /* \"@openzeppelin/contracts/security/Pausable.sol\":1767:1873  function _requireNotPaused() internal view virtual {... */\n      jump\t// out\n        /* \"@openzeppelin/contracts/security/ReentrancyGuard.sol\":2336:2623  function _nonReentrantBefore() private {... */\n    tag_183:\n        /* \"@openzeppelin/contracts/security/ReentrancyGuard.sol\":1759:1760  2 */\n      0x02\n        /* \"@openzeppelin/contracts/security/ReentrancyGuard.sol\":2468:2475  _status */\n      sload(0x06)\n        /* \"@openzeppelin/contracts/security/ReentrancyGuard.sol\":2468:2487  _status != _ENTERED */\n      sub\n        /* \"@openzeppelin/contracts/security/ReentrancyGuard.sol\":2460:2523  require(_status != _ENTERED, \"ReentrancyGuard: reentrant call\") */\n      tag_288\n      jumpi\n      mload(0x40)\n      0x08c379a000000000000000000000000000000000000000000000000000000000\n      dup2\n      mstore\n      0x04\n      add\n      tag_289\n      swap1\n      tag_290\n      jump\t// in\n    tag_289:\n      mload(0x40)\n      dup1\n      swap2\n      sub\n      swap1\n      revert\n    tag_288:\n        /* \"@openzeppelin/contracts/security/ReentrancyGuard.sol\":1759:1760  2 */\n      0x02\n        /* \"@openzeppelin/contracts/security/ReentrancyGuard.sol\":2598:2605  _status */\n      0x06\n        /* \"@openzeppelin/contracts/security/ReentrancyGuard.sol\":2598:2616  _status = _ENTERED */\n      dup2\n      swap1\n      sstore\n      pop\n        /* \"@openzeppelin/contracts/security/ReentrancyGuard.sol\":2336:2623  function _nonReentrantBefore() private {... */\n      jump\t// out\n        /* \"@openzeppelin/contracts/token/ERC20/utils/SafeERC20.sol\":1618:1806  function safeTransferFrom(IERC20 token, address from, address to, uint256 value) internal {... */\n    tag_195:\n        /* \"@openzeppelin/contracts/token/ERC20/utils/SafeERC20.sol\":1718:1799  _callOptionalReturn(token, abi.encodeCall(token.transferFrom, (from, to, value))) */\n      tag_292\n        /* \"@openzeppelin/contracts/token/ERC20/utils/SafeERC20.sol\":1738:1743  token */\n      dup5\n        /* \"@openzeppelin/contracts/token/ERC20/utils/SafeERC20.sol\":1760:1765  token */\n      dup6\n        /* \"@openzeppelin/contracts/token/ERC20/utils/SafeERC20.sol\":1760:1778  token.transferFrom */\n      0xffffffffffffffffffffffffffffffffffffffff\n      and\n      0x23b872dd\n        /* \"@openzeppelin/contracts/token/ERC20/utils/SafeERC20.sol\":1781:1785  from */\n      dup7\n        /* \"@openzeppelin/contracts/token/ERC20/utils/SafeERC20.sol\":1787:1789  to */\n      dup7\n        /* \"@openzeppelin/contracts/token/ERC20/utils/SafeERC20.sol\":1791:1796  value */\n      dup7\n        /* \"@openzeppelin/contracts/token/ERC20/utils/SafeERC20.sol\":1745:1798  abi.encodeCall(token.transferFrom, (from, to, value)) */\n      add(0x24, mload(0x40))\n      tag_293\n      swap4\n      swap3\n      swap2\n      swap1\n      tag_294\n      jump\t// in\n    tag_293:\n      mload(0x40)\n      0x20\n      dup2\n      dup4\n      sub\n      sub\n      dup2\n      mstore\n      swap1\n      0x40\n      mstore\n      swap2\n      pop\n      0xe0\n      shl\n      0x20\n      dup3\n      add\n      dup1\n      mload\n      0xffffffffffffffffffffffffffffffffffffffffffffffffffffffff\n      dup4\n      dup2\n      dup4\n      and\n      or\n      dup4\n      mstore\n      pop\n      pop\n      pop\n      pop\n        /* \"@openzeppelin/contracts/token/ERC20/utils/SafeERC20.sol\":1718:1737  _callOptionalReturn */\n      tag_295\n        /* \"@openzeppelin/contracts/token/ERC20/utils/SafeERC20.sol\":1718:1799  _callOptionalReturn(token, abi.encodeCall(token.transferFrom, (from, to, value))) */\n      jump\t// in\n    tag_292:\n        /* \"@openzeppelin/contracts/token/ERC20/utils/SafeERC20.sol\":1618:1806  function safeTransferFrom(IERC20 token, address from, address to, uint256 value) internal {... */\n      pop\n      pop\n      pop\n      pop\n      jump\t// out\n        /* \"@openzeppelin/contracts/token/ERC20/ERC20.sol\":7458:7666  function _mint(address account, uint256 value) internal {... */\n    tag_203:\n        /* \"@openzeppelin/contracts/token/ERC20/ERC20.sol\":7547:7548  0 */\n      0x00\n        /* \"@openzeppelin/contracts/token/ERC20/ERC20.sol\":7528:7549  account == address(0) */\n      0xffffffffffffffffffffffffffffffffffffffff\n      and\n        /* \"@openzeppelin/contracts/token/ERC20/ERC20.sol\":7528:7535  account */\n      dup3\n        /* \"@openzeppelin/contracts/token/ERC20/ERC20.sol\":7528:7549  account == address(0) */\n      0xffffffffffffffffffffffffffffffffffffffff\n      and\n      sub\n        /* \"@openzeppelin/contracts/token/ERC20/ERC20.sol\":7524:7615  if (account == address(0)) {... */\n      tag_297\n      jumpi\n        /* \"@openzeppelin/contracts/token/ERC20/ERC20.sol\":7601:7602  0 */\n      0x00\n        /* \"@openzeppelin/contracts/token/ERC20/ERC20.sol\":7572:7604  ERC20InvalidReceiver(address(0)) */\n      mload(0x40)\n      0xec442f0500000000000000000000000000000000000000000000000000000000\n      dup2\n      mstore\n      0x04\n      add\n      tag_298\n      swap2\n      swap1\n      tag_74\n      jump\t// in\n    tag_298:\n      mload(0x40)\n      dup1\n      swap2\n      sub\n      swap1\n      revert\n        /* \"@openzeppelin/contracts/token/ERC20/ERC20.sol\":7524:7615  if (account == address(0)) {... */\n    tag_297:\n        /* \"@openzeppelin/contracts/token/ERC20/ERC20.sol\":7624:7659  _update(address(0), account, value) */\n      tag_299\n        /* \"@openzeppelin/contracts/token/ERC20/ERC20.sol\":7640:7641  0 */\n      0x00\n        /* \"@openzeppelin/contracts/token/ERC20/ERC20.sol\":7644:7651  account */\n      dup4\n        /* \"@openzeppelin/contracts/token/ERC20/ERC20.sol\":7653:7658  value */\n      dup4\n        /* \"@openzeppelin/contracts/token/ERC20/ERC20.sol\":7624:7631  _update */\n      tag_263\n        /* \"@openzeppelin/contracts/token/ERC20/ERC20.sol\":7624:7659  _update(address(0), account, value) */\n      jump\t// in\n    tag_299:\n        /* \"@openzeppelin/contracts/token/ERC20/ERC20.sol\":7458:7666  function _mint(address account, uint256 value) internal {... */\n      pop\n      pop\n      jump\t// out\n        /* \"@openzeppelin/contracts/security/ReentrancyGuard.sol\":2629:2838  function _nonReentrantAfter() private {... */\n    tag_209:\n        /* \"@openzeppelin/contracts/security/ReentrancyGuard.sol\":1716:1717  1 */\n      0x01\n        /* \"@openzeppelin/contracts/security/ReentrancyGuard.sol\":2809:2816  _status */\n      0x06\n        /* \"@openzeppelin/contracts/security/ReentrancyGuard.sol\":2809:2831  _status = _NOT_ENTERED */\n      dup2\n      swap1\n      sstore\n      pop\n        /* \"@openzeppelin/contracts/security/ReentrancyGuard.sol\":2629:2838  function _nonReentrantAfter() private {... */\n      jump\t// out\n        /* \"@openzeppelin/contracts/token/ERC20/ERC20.sol\":7984:8190  function _burn(address account, uint256 value) internal {... */\n    tag_224:\n        /* \"@openzeppelin/contracts/token/ERC20/ERC20.sol\":8073:8074  0 */\n      0x00\n        /* \"@openzeppelin/contracts/token/ERC20/ERC20.sol\":8054:8075  account == address(0) */\n      0xffffffffffffffffffffffffffffffffffffffff\n      and\n        /* \"@openzeppelin/contracts/token/ERC20/ERC20.sol\":8054:8061  account */\n      dup3\n        /* \"@openzeppelin/contracts/token/ERC20/ERC20.sol\":8054:8075  account == address(0) */\n      0xffffffffffffffffffffffffffffffffffffffff\n      and\n      sub\n        /* \"@openzeppelin/contracts/token/ERC20/ERC20.sol\":8050:8139  if (account == address(0)) {... */\n      tag_302\n      jumpi\n        /* \"@openzeppelin/contracts/token/ERC20/ERC20.sol\":8125:8126  0 */\n      0x00\n        /* \"@openzeppelin/contracts/token/ERC20/ERC20.sol\":8098:8128  ERC20InvalidSender(address(0)) */\n      mload(0x40)\n      0x96c6fd1e00000000000000000000000000000000000000000000000000000000\n      dup2\n      mstore\n      0x04\n      add\n      tag_303\n      swap2\n      swap1\n      tag_74\n      jump\t// in\n    tag_303:\n      mload(0x40)\n      dup1\n      swap2\n      sub\n      swap1\n      revert\n        /* \"@openzeppelin/contracts/token/ERC20/ERC20.sol\":8050:8139  if (account == address(0)) {... */\n    tag_302:\n        /* \"@openzeppelin/contracts/token/ERC20/ERC20.sol\":8148:8183  _update(account, address(0), value) */\n      tag_304\n        /* \"@openzeppelin/contracts/token/ERC20/ERC20.sol\":8156:8163  account */\n      dup3\n        /* \"@openzeppelin/contracts/token/ERC20/ERC20.sol\":8173:8174  0 */\n      0x00\n        /* \"@openzeppelin/contracts/token/ERC20/ERC20.sol\":8177:8182  value */\n      dup4\n        /* \"@openzeppelin/contracts/token/ERC20/ERC20.sol\":8148:8155  _update */\n      tag_263\n        /* \"@openzeppelin/contracts/token/ERC20/ERC20.sol\":8148:8183  _update(account, address(0), value) */\n      jump\t// in\n    tag_304:\n        /* \"@openzeppelin/contracts/token/ERC20/ERC20.sol\":7984:8190  function _burn(address account, uint256 value) internal {... */\n      pop\n      pop\n      jump\t// out\n        /* \"@openzeppelin/contracts/token/ERC20/utils/SafeERC20.sol\":1219:1379  function safeTransfer(IERC20 token, address to, uint256 value) internal {... */\n    tag_226:\n        /* \"@openzeppelin/contracts/token/ERC20/utils/SafeERC20.sol\":1301:1372  _callOptionalReturn(token, abi.encodeCall(token.transfer, (to, value))) */\n      tag_306\n        /* \"@openzeppelin/contracts/token/ERC20/utils/SafeERC20.sol\":1321:1326  token */\n      dup4\n        /* \"@openzeppelin/contracts/token/ERC20/utils/SafeERC20.sol\":1343:1348  token */\n      dup5\n        /* \"@openzeppelin/contracts/token/ERC20/utils/SafeERC20.sol\":1343:1357  token.transfer */\n      0xffffffffffffffffffffffffffffffffffffffff\n      and\n      0xa9059cbb\n        /* \"@openzeppelin/contracts/token/ERC20/utils/SafeERC20.sol\":1360:1362  to */\n      dup6\n        /* \"@openzeppelin/contracts/token/ERC20/utils/SafeERC20.sol\":1364:1369  value */\n      dup6\n        /* \"@openzeppelin/contracts/token/ERC20/utils/SafeERC20.sol\":1328:1371  abi.encodeCall(token.transfer, (to, value)) */\n      add(0x24, mload(0x40))\n      tag_307\n      swap3\n      swap2\n      swap1\n      tag_308\n      jump\t// in\n    tag_307:\n      mload(0x40)\n      0x20\n      dup2\n      dup4\n      sub\n      sub\n      dup2\n      mstore\n      swap1\n      0x40\n      mstore\n      swap2\n      pop\n      0xe0\n      shl\n      0x20\n      dup3\n      add\n      dup1\n      mload\n      0xffffffffffffffffffffffffffffffffffffffffffffffffffffffff\n      dup4\n      dup2\n      dup4\n      and\n      or\n      dup4\n      mstore\n      pop\n      pop\n      pop\n      pop\n        /* \"@openzeppelin/contracts/token/ERC20/utils/SafeERC20.sol\":1301:1320  _callOptionalReturn */\n      tag_295\n        /* \"@openzeppelin/contracts/token/ERC20/utils/SafeERC20.sol\":1301:1372  _callOptionalReturn(token, abi.encodeCall(token.transfer, (to, value))) */\n      jump\t// in\n    tag_306:\n        /* \"@openzeppelin/contracts/token/ERC20/utils/SafeERC20.sol\":1219:1379  function safeTransfer(IERC20 token, address to, uint256 value) internal {... */\n      pop\n      pop\n      pop\n      jump\t// out\n        /* \"@openzeppelin/contracts/token/ERC20/ERC20.sol\":9701:10133  function _approve(address owner, address spender, uint256 value, bool emitEvent) internal virtual {... */\n    tag_249:\n        /* \"@openzeppelin/contracts/token/ERC20/ERC20.sol\":9830:9831  0 */\n      0x00\n        /* \"@openzeppelin/contracts/token/ERC20/ERC20.sol\":9813:9832  owner == address(0) */\n      0xffffffffffffffffffffffffffffffffffffffff\n      and\n        /* \"@openzeppelin/contracts/token/ERC20/ERC20.sol\":9813:9818  owner */\n      dup5\n        /* \"@openzeppelin/contracts/token/ERC20/ERC20.sol\":9813:9832  owner == address(0) */\n      0xffffffffffffffffffffffffffffffffffffffff\n      and\n      sub\n        /* \"@openzeppelin/contracts/token/ERC20/ERC20.sol\":9809:9898  if (owner == address(0)) {... */\n      tag_310\n      jumpi\n        /* \"@openzeppelin/contracts/token/ERC20/ERC20.sol\":9884:9885  0 */\n      0x00\n        /* \"@openzeppelin/contracts/token/ERC20/ERC20.sol\":9855:9887  ERC20InvalidApprover(address(0)) */\n      mload(0x40)\n      0xe602df0500000000000000000000000000000000000000000000000000000000\n      dup2\n      mstore\n      0x04\n      add\n      tag_311\n      swap2\n      swap1\n      tag_74\n      jump\t// in\n    tag_311:\n      mload(0x40)\n      dup1\n      swap2\n      sub\n      swap1\n      revert\n        /* \"@openzeppelin/contracts/token/ERC20/ERC20.sol\":9809:9898  if (owner == address(0)) {... */\n    tag_310:\n        /* \"@openzeppelin/contracts/token/ERC20/ERC20.sol\":9930:9931  0 */\n      0x00\n        /* \"@openzeppelin/contracts/token/ERC20/ERC20.sol\":9911:9932  spender == address(0) */\n      0xffffffffffffffffffffffffffffffffffffffff\n      and\n        /* \"@openzeppelin/contracts/token/ERC20/ERC20.sol\":9911:9918  spender */\n      dup4\n        /* \"@openzeppelin/contracts/token/ERC20/ERC20.sol\":9911:9932  spender == address(0) */\n      0xffffffffffffffffffffffffffffffffffffffff\n      and\n      sub\n        /* \"@openzeppelin/contracts/token/ERC20/ERC20.sol\":9907:9997  if (spender == address(0)) {... */\n      tag_312\n      jumpi\n        /* \"@openzeppelin/contracts/token/ERC20/ERC20.sol\":9983:9984  0 */\n      0x00\n        /* \"@openzeppelin/contracts/token/ERC20/ERC20.sol\":9955:9986  ERC20InvalidSpender(address(0)) */\n      mload(0x40)\n      0x94280d6200000000000000000000000000000000000000000000000000000000\n      dup2\n      mstore\n      0x04\n      add\n      tag_313\n      swap2\n      swap1\n      tag_74\n      jump\t// in\n    tag_313:\n      mload(0x40)\n      dup1\n      swap2\n      sub\n      swap1\n      revert\n        /* \"@openzeppelin/contracts/token/ERC20/ERC20.sol\":9907:9997  if (spender == address(0)) {... */\n    tag_312:\n        /* \"@openzeppelin/contracts/token/ERC20/ERC20.sol\":10036:10041  value */\n      dup2\n        /* \"@openzeppelin/contracts/token/ERC20/ERC20.sol\":10006:10017  _allowances */\n      0x01\n        /* \"@openzeppelin/contracts/token/ERC20/ERC20.sol\":10006:10024  _allowances[owner] */\n      0x00\n        /* \"@openzeppelin/contracts/token/ERC20/ERC20.sol\":10018:10023  owner */\n      dup7\n        /* \"@openzeppelin/contracts/token/ERC20/ERC20.sol\":10006:10024  _allowances[owner] */\n      0xffffffffffffffffffffffffffffffffffffffff\n      and\n      0xffffffffffffffffffffffffffffffffffffffff\n      and\n      dup2\n      mstore\n      0x20\n      add\n      swap1\n      dup2\n      mstore\n      0x20\n      add\n      0x00\n      keccak256\n        /* \"@openzeppelin/contracts/token/ERC20/ERC20.sol\":10006:10033  _allowances[owner][spender] */\n      0x00\n        /* \"@openzeppelin/contracts/token/ERC20/ERC20.sol\":10025:10032  spender */\n      dup6\n        /* \"@openzeppelin/contracts/token/ERC20/ERC20.sol\":10006:10033  _allowances[owner][spender] */\n      0xffffffffffffffffffffffffffffffffffffffff\n      and\n      0xffffffffffffffffffffffffffffffffffffffff\n      and\n      dup2\n      mstore\n      0x20\n      add\n      swap1\n      dup2\n      mstore\n      0x20\n      add\n      0x00\n      keccak256\n        /* \"@openzeppelin/contracts/token/ERC20/ERC20.sol\":10006:10041  _allowances[owner][spender] = value */\n      dup2\n      swap1\n      sstore\n      pop\n        /* \"@openzeppelin/contracts/token/ERC20/ERC20.sol\":10055:10064  emitEvent */\n      dup1\n        /* \"@openzeppelin/contracts/token/ERC20/ERC20.sol\":10051:10127  if (emitEvent) {... */\n      iszero\n      tag_314\n      jumpi\n        /* \"@openzeppelin/contracts/token/ERC20/ERC20.sol\":10101:10108  spender */\n      dup3\n        /* \"@openzeppelin/contracts/token/ERC20/ERC20.sol\":10085:10116  Approval(owner, spender, value) */\n      0xffffffffffffffffffffffffffffffffffffffff\n      and\n        /* \"@openzeppelin/contracts/token/ERC20/ERC20.sol\":10094:10099  owner */\n      dup5\n        /* \"@openzeppelin/contracts/token/ERC20/ERC20.sol\":10085:10116  Approval(owner, spender, value) */\n      0xffffffffffffffffffffffffffffffffffffffff\n      and\n      0x8c5be1e5ebec7d5bd14f71427d1e84f3dd0314c0f7b2291e5b200ac8c7c3b925\n        /* \"@openzeppelin/contracts/token/ERC20/ERC20.sol\":10110:10115  value */\n      dup5\n        /* \"@openzeppelin/contracts/token/ERC20/ERC20.sol\":10085:10116  Approval(owner, spender, value) */\n      mload(0x40)\n      tag_315\n      swap2\n      swap1\n      tag_53\n      jump\t// in\n    tag_315:\n      mload(0x40)\n      dup1\n      swap2\n      sub\n      swap1\n      log3\n        /* \"@openzeppelin/contracts/token/ERC20/ERC20.sol\":10051:10127  if (emitEvent) {... */\n    tag_314:\n        /* \"@openzeppelin/contracts/token/ERC20/ERC20.sol\":9701:10133  function _approve(address owner, address spender, uint256 value, bool emitEvent) internal virtual {... */\n      pop\n      pop\n      pop\n      pop\n      jump\t// out\n        /* \"@openzeppelin/contracts/token/ERC20/ERC20.sol\":6008:7115  function _update(address from, address to, uint256 value) internal virtual {... */\n    tag_263:\n        /* \"@openzeppelin/contracts/token/ERC20/ERC20.sol\":6113:6114  0 */\n      0x00\n        /* \"@openzeppelin/contracts/token/ERC20/ERC20.sol\":6097:6115  from == address(0) */\n      0xffffffffffffffffffffffffffffffffffffffff\n      and\n        /* \"@openzeppelin/contracts/token/ERC20/ERC20.sol\":6097:6101  from */\n      dup4\n        /* \"@openzeppelin/contracts/token/ERC20/ERC20.sol\":6097:6115  from == address(0) */\n      0xffffffffffffffffffffffffffffffffffffffff\n      and\n      sub\n        /* \"@openzeppelin/contracts/token/ERC20/ERC20.sol\":6093:6633  if (from == address(0)) {... */\n      tag_317\n      jumpi\n        /* \"@openzeppelin/contracts/token/ERC20/ERC20.sol\":6249:6254  value */\n      dup1\n        /* \"@openzeppelin/contracts/token/ERC20/ERC20.sol\":6233:6245  _totalSupply */\n      0x02\n      0x00\n        /* \"@openzeppelin/contracts/token/ERC20/ERC20.sol\":6233:6254  _totalSupply += value */\n      dup3\n      dup3\n      sload\n      tag_318\n      swap2\n      swap1\n      tag_190\n      jump\t// in\n    tag_318:\n      swap3\n      pop\n      pop\n      dup2\n      swap1\n      sstore\n      pop\n        /* \"@openzeppelin/contracts/token/ERC20/ERC20.sol\":6093:6633  if (from == address(0)) {... */\n      jump(tag_319)\n    tag_317:\n        /* \"@openzeppelin/contracts/token/ERC20/ERC20.sol\":6285:6304  uint256 fromBalance */\n      0x00\n        /* \"@openzeppelin/contracts/token/ERC20/ERC20.sol\":6307:6316  _balances */\n      dup1\n        /* \"@openzeppelin/contracts/token/ERC20/ERC20.sol\":6307:6322  _balances[from] */\n      0x00\n        /* \"@openzeppelin/contracts/token/ERC20/ERC20.sol\":6317:6321  from */\n      dup6\n        /* \"@openzeppelin/contracts/token/ERC20/ERC20.sol\":6307:6322  _balances[from] */\n      0xffffffffffffffffffffffffffffffffffffffff\n      and\n      0xffffffffffffffffffffffffffffffffffffffff\n      and\n      dup2\n      mstore\n      0x20\n      add\n      swap1\n      dup2\n      mstore\n      0x20\n      add\n      0x00\n      keccak256\n      sload\n        /* \"@openzeppelin/contracts/token/ERC20/ERC20.sol\":6285:6322  uint256 fromBalance = _balances[from] */\n      swap1\n      pop\n        /* \"@openzeppelin/contracts/token/ERC20/ERC20.sol\":6354:6359  value */\n      dup2\n        /* \"@openzeppelin/contracts/token/ERC20/ERC20.sol\":6340:6351  fromBalance */\n      dup2\n        /* \"@openzeppelin/contracts/token/ERC20/ERC20.sol\":6340:6359  fromBalance < value */\n      lt\n        /* \"@openzeppelin/contracts/token/ERC20/ERC20.sol\":6336:6451  if (fromBalance < value) {... */\n      iszero\n      tag_320\n      jumpi\n        /* \"@openzeppelin/contracts/token/ERC20/ERC20.sol\":6411:6415  from */\n      dup4\n        /* \"@openzeppelin/contracts/token/ERC20/ERC20.sol\":6417:6428  fromBalance */\n      dup2\n        /* \"@openzeppelin/contracts/token/ERC20/ERC20.sol\":6430:6435  value */\n      dup4\n        /* \"@openzeppelin/contracts/token/ERC20/ERC20.sol\":6386:6436  ERC20InsufficientBalance(from, fromBalance, value) */\n      mload(0x40)\n      0xe450d38c00000000000000000000000000000000000000000000000000000000\n      dup2\n      mstore\n      0x04\n      add\n      tag_321\n      swap4\n      swap3\n      swap2\n      swap1\n      tag_255\n      jump\t// in\n    tag_321:\n      mload(0x40)\n      dup1\n      swap2\n      sub\n      swap1\n      revert\n        /* \"@openzeppelin/contracts/token/ERC20/ERC20.sol\":6336:6451  if (fromBalance < value) {... */\n    tag_320:\n        /* \"@openzeppelin/contracts/token/ERC20/ERC20.sol\":6603:6608  value */\n      dup2\n        /* \"@openzeppelin/contracts/token/ERC20/ERC20.sol\":6589:6600  fromBalance */\n      dup2\n        /* \"@openzeppelin/contracts/token/ERC20/ERC20.sol\":6589:6608  fromBalance - value */\n      sub\n        /* \"@openzeppelin/contracts/token/ERC20/ERC20.sol\":6571:6580  _balances */\n      0x00\n        /* \"@openzeppelin/contracts/token/ERC20/ERC20.sol\":6571:6586  _balances[from] */\n      dup1\n        /* \"@openzeppelin/contracts/token/ERC20/ERC20.sol\":6581:6585  from */\n      dup7\n        /* \"@openzeppelin/contracts/token/ERC20/ERC20.sol\":6571:6586  _balances[from] */\n      0xffffffffffffffffffffffffffffffffffffffff\n      and\n      0xffffffffffffffffffffffffffffffffffffffff\n      and\n      dup2\n      mstore\n      0x20\n      add\n      swap1\n      dup2\n      mstore\n      0x20\n      add\n      0x00\n      keccak256\n        /* \"@openzeppelin/contracts/token/ERC20/ERC20.sol\":6571:6608  _balances[from] = fromBalance - value */\n      dup2\n      swap1\n      sstore\n      pop\n        /* \"@openzeppelin/contracts/token/ERC20/ERC20.sol\":6271:6633  {... */\n      pop\n        /* \"@openzeppelin/contracts/token/ERC20/ERC20.sol\":6093:6633  if (from == address(0)) {... */\n    tag_319:\n        /* \"@openzeppelin/contracts/token/ERC20/ERC20.sol\":6661:6662  0 */\n      0x00\n        /* \"@openzeppelin/contracts/token/ERC20/ERC20.sol\":6647:6663  to == address(0) */\n      0xffffffffffffffffffffffffffffffffffffffff\n      and\n        /* \"@openzeppelin/contracts/token/ERC20/ERC20.sol\":6647:6649  to */\n      dup3\n        /* \"@openzeppelin/contracts/token/ERC20/ERC20.sol\":6647:6663  to == address(0) */\n      0xffffffffffffffffffffffffffffffffffffffff\n      and\n      sub\n        /* \"@openzeppelin/contracts/token/ERC20/ERC20.sol\":6643:7068  if (to == address(0)) {... */\n      tag_322\n      jumpi\n        /* \"@openzeppelin/contracts/token/ERC20/ERC20.sol\":6826:6831  value */\n      dup1\n        /* \"@openzeppelin/contracts/token/ERC20/ERC20.sol\":6810:6822  _totalSupply */\n      0x02\n      0x00\n        /* \"@openzeppelin/contracts/token/ERC20/ERC20.sol\":6810:6831  _totalSupply -= value */\n      dup3\n      dup3\n      sload\n      sub\n      swap3\n      pop\n      pop\n      dup2\n      swap1\n      sstore\n      pop\n        /* \"@openzeppelin/contracts/token/ERC20/ERC20.sol\":6643:7068  if (to == address(0)) {... */\n      jump(tag_323)\n    tag_322:\n        /* \"@openzeppelin/contracts/token/ERC20/ERC20.sol\":7038:7043  value */\n      dup1\n        /* \"@openzeppelin/contracts/token/ERC20/ERC20.sol\":7021:7030  _balances */\n      0x00\n        /* \"@openzeppelin/contracts/token/ERC20/ERC20.sol\":7021:7034  _balances[to] */\n      dup1\n        /* \"@openzeppelin/contracts/token/ERC20/ERC20.sol\":7031:7033  to */\n      dup5\n        /* \"@openzeppelin/contracts/token/ERC20/ERC20.sol\":7021:7034  _balances[to] */\n      0xffffffffffffffffffffffffffffffffffffffff\n      and\n      0xffffffffffffffffffffffffffffffffffffffff\n      and\n      dup2\n      mstore\n      0x20\n      add\n      swap1\n      dup2\n      mstore\n      0x20\n      add\n      0x00\n      keccak256\n      0x00\n        /* \"@openzeppelin/contracts/token/ERC20/ERC20.sol\":7021:7043  _balances[to] += value */\n      dup3\n      dup3\n      sload\n      add\n      swap3\n      pop\n      pop\n      dup2\n      swap1\n      sstore\n      pop\n        /* \"@openzeppelin/contracts/token/ERC20/ERC20.sol\":6643:7068  if (to == address(0)) {... */\n    tag_323:\n        /* \"@openzeppelin/contracts/token/ERC20/ERC20.sol\":7098:7100  to */\n      dup2\n        /* \"@openzeppelin/contracts/token/ERC20/ERC20.sol\":7083:7108  Transfer(from, to, value) */\n      0xffffffffffffffffffffffffffffffffffffffff\n      and\n        /* \"@openzeppelin/contracts/token/ERC20/ERC20.sol\":7092:7096  from */\n      dup4\n        /* \"@openzeppelin/contracts/token/ERC20/ERC20.sol\":7083:7108  Transfer(from, to, value) */\n      0xffffffffffffffffffffffffffffffffffffffff\n      and\n      0xddf252ad1be2c89b69c2b068fc378daa952ba7f163c4a11628f55a4df523b3ef\n        /* \"@openzeppelin/contracts/token/ERC20/ERC20.sol\":7102:7107  value */\n      dup4\n        /* \"@openzeppelin/contracts/token/ERC20/ERC20.sol\":7083:7108  Transfer(from, to, value) */\n      mload(0x40)\n      tag_324\n      swap2\n      swap1\n      tag_53\n      jump\t// in\n    tag_324:\n      mload(0x40)\n      dup1\n      swap2\n      sub\n      swap1\n      log3\n        /* \"@openzeppelin/contracts/token/ERC20/ERC20.sol\":6008:7115  function _update(address from, address to, uint256 value) internal virtual {... */\n      pop\n      pop\n      pop\n      jump\t// out\n        /* \"@openzeppelin/contracts/security/Pausable.sol\":1945:2051  function _requirePaused() internal view virtual {... */\n    tag_272:\n        /* \"@openzeppelin/contracts/security/Pausable.sol\":2011:2019  paused() */\n      tag_326\n        /* \"@openzeppelin/contracts/security/Pausable.sol\":2011:2017  paused */\n      tag_69\n        /* \"@openzeppelin/contracts/security/Pausable.sol\":2011:2019  paused() */\n      jump\t// in\n    tag_326:\n        /* \"@openzeppelin/contracts/security/Pausable.sol\":2003:2044  require(paused(), \"Pausable: not paused\") */\n      tag_327\n      jumpi\n      mload(0x40)\n      0x08c379a000000000000000000000000000000000000000000000000000000000\n      dup2\n      mstore\n      0x04\n      add\n      tag_328\n      swap1\n      tag_329\n      jump\t// in\n    tag_328:\n      mload(0x40)\n      dup1\n      swap2\n      sub\n      swap1\n      revert\n    tag_327:\n        /* \"@openzeppelin/contracts/security/Pausable.sol\":1945:2051  function _requirePaused() internal view virtual {... */\n      jump\t// out\n        /* \"@openzeppelin/contracts/token/ERC20/utils/SafeERC20.sol\":7686:8406  function _callOptionalReturn(IERC20 token, bytes memory data) private {... */\n    tag_295:\n        /* \"@openzeppelin/contracts/token/ERC20/utils/SafeERC20.sol\":7766:7784  uint256 returnSize */\n      0x00\n        /* \"@openzeppelin/contracts/token/ERC20/utils/SafeERC20.sol\":7794:7813  uint256 returnValue */\n      dup1\n        /* \"@openzeppelin/contracts/token/ERC20/utils/SafeERC20.sol\":7932:7936  0x20 */\n      0x20\n        /* \"@openzeppelin/contracts/token/ERC20/utils/SafeERC20.sol\":7929:7930  0 */\n      0x00\n        /* \"@openzeppelin/contracts/token/ERC20/utils/SafeERC20.sol\":7922:7926  data */\n      dup5\n        /* \"@openzeppelin/contracts/token/ERC20/utils/SafeERC20.sol\":7916:7927  mload(data) */\n      mload\n        /* \"@openzeppelin/contracts/token/ERC20/utils/SafeERC20.sol\":7909:7913  0x20 */\n      0x20\n        /* \"@openzeppelin/contracts/token/ERC20/utils/SafeERC20.sol\":7903:7907  data */\n      dup7\n        /* \"@openzeppelin/contracts/token/ERC20/utils/SafeERC20.sol\":7899:7914  add(data, 0x20) */\n      add\n        /* \"@openzeppelin/contracts/token/ERC20/utils/SafeERC20.sol\":7896:7897  0 */\n      0x00\n        /* \"@openzeppelin/contracts/token/ERC20/utils/SafeERC20.sol\":7889:7894  token */\n      dup9\n        /* \"@openzeppelin/contracts/token/ERC20/utils/SafeERC20.sol\":7882:7887  gas() */\n      gas\n        /* \"@openzeppelin/contracts/token/ERC20/utils/SafeERC20.sol\":7877:7937  call(gas(), token, 0, add(data, 0x20), mload(data), 0, 0x20) */\n      call\n        /* \"@openzeppelin/contracts/token/ERC20/utils/SafeERC20.sol\":7989:7996  success */\n      dup1\n        /* \"@openzeppelin/contracts/token/ERC20/utils/SafeERC20.sol\":7979:8155  if iszero(success) {... */\n      tag_331\n      jumpi\n        /* \"@openzeppelin/contracts/token/ERC20/utils/SafeERC20.sol\":8033:8037  0x40 */\n      0x40\n        /* \"@openzeppelin/contracts/token/ERC20/utils/SafeERC20.sol\":8027:8038  mload(0x40) */\n      mload\n        /* \"@openzeppelin/contracts/token/ERC20/utils/SafeERC20.sol\":8078:8094  returndatasize() */\n      returndatasize\n        /* \"@openzeppelin/contracts/token/ERC20/utils/SafeERC20.sol\":8075:8076  0 */\n      0x00\n        /* \"@openzeppelin/contracts/token/ERC20/utils/SafeERC20.sol\":8070:8073  ptr */\n      dup3\n        /* \"@openzeppelin/contracts/token/ERC20/utils/SafeERC20.sol\":8055:8095  returndatacopy(ptr, 0, returndatasize()) */\n      returndatacopy\n        /* \"@openzeppelin/contracts/token/ERC20/utils/SafeERC20.sol\":8124:8140  returndatasize() */\n      returndatasize\n        /* \"@openzeppelin/contracts/token/ERC20/utils/SafeERC20.sol\":8119:8122  ptr */\n      dup2\n        /* \"@openzeppelin/contracts/token/ERC20/utils/SafeERC20.sol\":8112:8141  revert(ptr, returndatasize()) */\n      revert\n        /* \"@openzeppelin/contracts/token/ERC20/utils/SafeERC20.sol\":7979:8155  if iszero(success) {... */\n    tag_331:\n        /* \"@openzeppelin/contracts/token/ERC20/utils/SafeERC20.sol\":8182:8198  returndatasize() */\n      returndatasize\n        /* \"@openzeppelin/contracts/token/ERC20/utils/SafeERC20.sol\":8168:8198  returnSize := returndatasize() */\n      swap3\n      pop\n        /* \"@openzeppelin/contracts/token/ERC20/utils/SafeERC20.sol\":8232:8233  0 */\n      0x00\n        /* \"@openzeppelin/contracts/token/ERC20/utils/SafeERC20.sol\":8226:8234  mload(0) */\n      mload\n        /* \"@openzeppelin/contracts/token/ERC20/utils/SafeERC20.sol\":8211:8234  returnValue := mload(0) */\n      swap2\n      pop\n        /* \"@openzeppelin/contracts/token/ERC20/utils/SafeERC20.sol\":7848:8244  {... */\n      pop\n        /* \"@openzeppelin/contracts/token/ERC20/utils/SafeERC20.sol\":8272:8273  0 */\n      0x00\n        /* \"@openzeppelin/contracts/token/ERC20/utils/SafeERC20.sol\":8258:8268  returnSize */\n      dup3\n        /* \"@openzeppelin/contracts/token/ERC20/utils/SafeERC20.sol\":8258:8273  returnSize == 0 */\n      eq\n        /* \"@openzeppelin/contracts/token/ERC20/utils/SafeERC20.sol\":8258:8326  returnSize == 0 ? address(token).code.length == 0 : returnValue != 1 */\n      tag_332\n      jumpi\n        /* \"@openzeppelin/contracts/token/ERC20/utils/SafeERC20.sol\":8325:8326  1 */\n      0x01\n        /* \"@openzeppelin/contracts/token/ERC20/utils/SafeERC20.sol\":8310:8321  returnValue */\n      dup2\n        /* \"@openzeppelin/contracts/token/ERC20/utils/SafeERC20.sol\":8310:8326  returnValue != 1 */\n      eq\n      iszero\n        /* \"@openzeppelin/contracts/token/ERC20/utils/SafeERC20.sol\":8258:8326  returnSize == 0 ? address(token).code.length == 0 : returnValue != 1 */\n      jump(tag_333)\n    tag_332:\n        /* \"@openzeppelin/contracts/token/ERC20/utils/SafeERC20.sol\":8306:8307  0 */\n      0x00\n        /* \"@openzeppelin/contracts/token/ERC20/utils/SafeERC20.sol\":8284:8289  token */\n      dup5\n        /* \"@openzeppelin/contracts/token/ERC20/utils/SafeERC20.sol\":8276:8302  address(token).code.length */\n      0xffffffffffffffffffffffffffffffffffffffff\n      and\n      extcodesize\n        /* \"@openzeppelin/contracts/token/ERC20/utils/SafeERC20.sol\":8276:8307  address(token).code.length == 0 */\n      eq\n        /* \"@openzeppelin/contracts/token/ERC20/utils/SafeERC20.sol\":8258:8326  returnSize == 0 ? address(token).code.length == 0 : returnValue != 1 */\n    tag_333:\n        /* \"@openzeppelin/contracts/token/ERC20/utils/SafeERC20.sol\":8254:8400  if (returnSize == 0 ? address(token).code.length == 0 : returnValue != 1) {... */\n      iszero\n      tag_334\n      jumpi\n        /* \"@openzeppelin/contracts/token/ERC20/utils/SafeERC20.sol\":8382:8387  token */\n      dup4\n        /* \"@openzeppelin/contracts/token/ERC20/utils/SafeERC20.sol\":8349:8389  SafeERC20FailedOperation(address(token)) */\n      mload(0x40)\n      0x5274afe700000000000000000000000000000000000000000000000000000000\n      dup2\n      mstore\n      0x04\n      add\n      tag_335\n      swap2\n      swap1\n      tag_74\n      jump\t// in\n    tag_335:\n      mload(0x40)\n      dup1\n      swap2\n      sub\n      swap1\n      revert\n        /* \"@openzeppelin/contracts/token/ERC20/utils/SafeERC20.sol\":8254:8400  if (returnSize == 0 ? address(token).code.length == 0 : returnValue != 1) {... */\n    tag_334:\n        /* \"@openzeppelin/contracts/token/ERC20/utils/SafeERC20.sol\":7756:8406  {... */\n      pop\n      pop\n        /* \"@openzeppelin/contracts/token/ERC20/utils/SafeERC20.sol\":7686:8406  function _callOptionalReturn(IERC20 token, bytes memory data) private {... */\n      pop\n      pop\n      jump\t// out\n        /* \"#utility.yul\":7:106   */\n    tag_336:\n        /* \"#utility.yul\":59:65   */\n      0x00\n        /* \"#utility.yul\":93:98   */\n      dup2\n        /* \"#utility.yul\":87:99   */\n      mload\n        /* \"#utility.yul\":77:99   */\n      swap1\n      pop\n        /* \"#utility.yul\":7:106   */\n      swap2\n      swap1\n      pop\n      jump\t// out\n        /* \"#utility.yul\":112:281   */\n    tag_337:\n        /* \"#utility.yul\":196:207   */\n      0x00\n        /* \"#utility.yul\":230:236   */\n      dup3\n        /* \"#utility.yul\":225:228   */\n      dup3\n        /* \"#utility.yul\":218:237   */\n      mstore\n        /* \"#utility.yul\":270:274   */\n      0x20\n        /* \"#utility.yul\":265:268   */\n      dup3\n        /* \"#utility.yul\":261:275   */\n      add\n        /* \"#utility.yul\":246:275   */\n      swap1\n      pop\n        /* \"#utility.yul\":112:281   */\n      swap3\n      swap2\n      pop\n      pop\n      jump\t// out\n        /* \"#utility.yul\":287:426   */\n    tag_338:\n        /* \"#utility.yul\":376:382   */\n      dup3\n        /* \"#utility.yul\":371:374   */\n      dup2\n        /* \"#utility.yul\":366:369   */\n      dup4\n        /* \"#utility.yul\":360:383   */\n      mcopy\n        /* \"#utility.yul\":417:418   */\n      0x00\n        /* \"#utility.yul\":408:414   */\n      dup4\n        /* \"#utility.yul\":403:406   */\n      dup4\n        /* \"#utility.yul\":399:415   */\n      add\n        /* \"#utility.yul\":392:419   */\n      mstore\n        /* \"#utility.yul\":287:426   */\n      pop\n      pop\n      pop\n      jump\t// out\n        /* \"#utility.yul\":432:534   */\n    tag_339:\n        /* \"#utility.yul\":473:479   */\n      0x00\n        /* \"#utility.yul\":524:526   */\n      0x1f\n        /* \"#utility.yul\":520:527   */\n      not\n        /* \"#utility.yul\":515:517   */\n      0x1f\n        /* \"#utility.yul\":508:513   */\n      dup4\n        /* \"#utility.yul\":504:518   */\n      add\n        /* \"#utility.yul\":500:528   */\n      and\n        /* \"#utility.yul\":490:528   */\n      swap1\n      pop\n        /* \"#utility.yul\":432:534   */\n      swap2\n      swap1\n      pop\n      jump\t// out\n        /* \"#utility.yul\":540:917   */\n    tag_340:\n        /* \"#utility.yul\":628:631   */\n      0x00\n        /* \"#utility.yul\":656:695   */\n      tag_391\n        /* \"#utility.yul\":689:694   */\n      dup3\n        /* \"#utility.yul\":656:695   */\n      tag_336\n      jump\t// in\n    tag_391:\n        /* \"#utility.yul\":711:782   */\n      tag_392\n        /* \"#utility.yul\":775:781   */\n      dup2\n        /* \"#utility.yul\":770:773   */\n      dup6\n        /* \"#utility.yul\":711:782   */\n      tag_337\n      jump\t// in\n    tag_392:\n        /* \"#utility.yul\":704:782   */\n      swap4\n      pop\n        /* \"#utility.yul\":791:856   */\n      tag_393\n        /* \"#utility.yul\":849:855   */\n      dup2\n        /* \"#utility.yul\":844:847   */\n      dup6\n        /* \"#utility.yul\":837:841   */\n      0x20\n        /* \"#utility.yul\":830:835   */\n      dup7\n        /* \"#utility.yul\":826:842   */\n      add\n        /* \"#utility.yul\":791:856   */\n      tag_338\n      jump\t// in\n    tag_393:\n        /* \"#utility.yul\":881:910   */\n      tag_394\n        /* \"#utility.yul\":903:909   */\n      dup2\n        /* \"#utility.yul\":881:910   */\n      tag_339\n      jump\t// in\n    tag_394:\n        /* \"#utility.yul\":876:879   */\n      dup5\n        /* \"#utility.yul\":872:911   */\n      add\n        /* \"#utility.yul\":865:911   */\n      swap2\n      pop\n        /* \"#utility.yul\":632:917   */\n      pop\n        /* \"#utility.yul\":540:917   */\n      swap3\n      swap2\n      pop\n      pop\n      jump\t// out\n        /* \"#utility.yul\":923:1236   */\n    tag_35:\n        /* \"#utility.yul\":1036:1040   */\n      0x00\n        /* \"#utility.yul\":1074:1076   */\n      0x20\n        /* \"#utility.yul\":1063:1072   */\n      dup3\n        /* \"#utility.yul\":1059:1077   */\n      add\n        /* \"#utility.yul\":1051:1077   */\n      swap1\n      pop\n        /* \"#utility.yul\":1123:1132   */\n      dup2\n        /* \"#utility.yul\":1117:1121   */\n      dup2\n        /* \"#utility.yul\":1113:1133   */\n      sub\n        /* \"#utility.yul\":1109:1110   */\n      0x00\n        /* \"#utility.yul\":1098:1107   */\n      dup4\n        /* \"#utility.yul\":1094:1111   */\n      add\n        /* \"#utility.yul\":1087:1134   */\n      mstore\n        /* \"#utility.yul\":1151:1229   */\n      tag_396\n        /* \"#utility.yul\":1224:1228   */\n      dup2\n        /* \"#utility.yul\":1215:1221   */\n      dup5\n        /* \"#utility.yul\":1151:1229   */\n      tag_340\n      jump\t// in\n    tag_396:\n        /* \"#utility.yul\":1143:1229   */\n      swap1\n      pop\n        /* \"#utility.yul\":923:1236   */\n      swap3\n      swap2\n      pop\n      pop\n      jump\t// out\n        /* \"#utility.yul\":1323:1440   */\n    tag_342:\n        /* \"#utility.yul\":1432:1433   */\n      0x00\n        /* \"#utility.yul\":1429:1430   */\n      dup1\n        /* \"#utility.yul\":1422:1434   */\n      revert\n        /* \"#utility.yul\":1569:1695   */\n    tag_344:\n        /* \"#utility.yul\":1606:1613   */\n      0x00\n        /* \"#utility.yul\":1646:1688   */\n      0xffffffffffffffffffffffffffffffffffffffff\n        /* \"#utility.yul\":1639:1644   */\n      dup3\n        /* \"#utility.yul\":1635:1689   */\n      and\n        /* \"#utility.yul\":1624:1689   */\n      swap1\n      pop\n        /* \"#utility.yul\":1569:1695   */\n      swap2\n      swap1\n      pop\n      jump\t// out\n        /* \"#utility.yul\":1701:1797   */\n    tag_345:\n        /* \"#utility.yul\":1738:1745   */\n      0x00\n        /* \"#utility.yul\":1767:1791   */\n      tag_402\n        /* \"#utility.yul\":1785:1790   */\n      dup3\n        /* \"#utility.yul\":1767:1791   */\n      tag_344\n      jump\t// in\n    tag_402:\n        /* \"#utility.yul\":1756:1791   */\n      swap1\n      pop\n        /* \"#utility.yul\":1701:1797   */\n      swap2\n      swap1\n      pop\n      jump\t// out\n        /* \"#utility.yul\":1803:1925   */\n    tag_346:\n        /* \"#utility.yul\":1876:1900   */\n      tag_404\n        /* \"#utility.yul\":1894:1899   */\n      dup2\n        /* \"#utility.yul\":1876:1900   */\n      tag_345\n      jump\t// in\n    tag_404:\n        /* \"#utility.yul\":1869:1874   */\n      dup2\n        /* \"#utility.yul\":1866:1901   */\n      eq\n        /* \"#utility.yul\":1856:1919   */\n      tag_405\n      jumpi\n        /* \"#utility.yul\":1915:1916   */\n      0x00\n        /* \"#utility.yul\":1912:1913   */\n      dup1\n        /* \"#utility.yul\":1905:1917   */\n      revert\n        /* \"#utility.yul\":1856:1919   */\n    tag_405:\n        /* \"#utility.yul\":1803:1925   */\n      pop\n      jump\t// out\n        /* \"#utility.yul\":1931:2070   */\n    tag_347:\n        /* \"#utility.yul\":1977:1982   */\n      0x00\n        /* \"#utility.yul\":2015:2021   */\n      dup2\n        /* \"#utility.yul\":2002:2022   */\n      calldataload\n        /* \"#utility.yul\":1993:2022   */\n      swap1\n      pop\n        /* \"#utility.yul\":2031:2064   */\n      tag_407\n        /* \"#utility.yul\":2058:2063   */\n      dup2\n        /* \"#utility.yul\":2031:2064   */\n      tag_346\n      jump\t// in\n    tag_407:\n        /* \"#utility.yul\":1931:2070   */\n      swap3\n      swap2\n      pop\n      pop\n      jump\t// out\n        /* \"#utility.yul\":2076:2153   */\n    tag_348:\n        /* \"#utility.yul\":2113:2120   */\n      0x00\n        /* \"#utility.yul\":2142:2147   */\n      dup2\n        /* \"#utility.yul\":2131:2147   */\n      swap1\n      pop\n        /* \"#utility.yul\":2076:2153   */\n      swap2\n      swap1\n      pop\n      jump\t// out\n        /* \"#utility.yul\":2159:2281   */\n    tag_349:\n        /* \"#utility.yul\":2232:2256   */\n      tag_410\n        /* \"#utility.yul\":2250:2255   */\n      dup2\n        /* \"#utility.yul\":2232:2256   */\n      tag_348\n      jump\t// in\n    tag_410:\n        /* \"#utility.yul\":2225:2230   */\n      dup2\n        /* \"#utility.yul\":2222:2257   */\n      eq\n        /* \"#utility.yul\":2212:2275   */\n      tag_411\n      jumpi\n        /* \"#utility.yul\":2271:2272   */\n      0x00\n        /* \"#utility.yul\":2268:2269   */\n      dup1\n        /* \"#utility.yul\":2261:2273   */\n      revert\n        /* \"#utility.yul\":2212:2275   */\n    tag_411:\n        /* \"#utility.yul\":2159:2281   */\n      pop\n      jump\t// out\n        /* \"#utility.yul\":2287:2426   */\n    tag_350:\n        /* \"#utility.yul\":2333:2338   */\n      0x00\n        /* \"#utility.yul\":2371:2377   */\n      dup2\n        /* \"#utility.yul\":2358:2378   */\n      calldataload\n        /* \"#utility.yul\":2349:2378   */\n      swap1\n      pop\n        /* \"#utility.yul\":2387:2420   */\n      tag_413\n        /* \"#utility.yul\":2414:2419   */\n      dup2\n        /* \"#utility.yul\":2387:2420   */\n      tag_349\n      jump\t// in\n    tag_413:\n        /* \"#utility.yul\":2287:2426   */\n      swap3\n      swap2\n      pop\n      pop\n      jump\t// out\n        /* \"#utility.yul\":2432:2906   */\n    tag_38:\n        /* \"#utility.yul\":2500:2506   */\n      0x00\n        /* \"#utility.yul\":2508:2514   */\n      dup1\n        /* \"#utility.yul\":2557:2559   */\n      0x40\n        /* \"#utility.yul\":2545:2554   */\n      dup4\n        /* \"#utility.yul\":2536:2543   */\n      dup6\n        /* \"#utility.yul\":2532:2555   */\n      sub\n        /* \"#utility.yul\":2528:2560   */\n      slt\n        /* \"#utility.yul\":2525:2644   */\n      iszero\n      tag_415\n      jumpi\n        /* \"#utility.yul\":2563:2642   */\n      tag_416\n      tag_342\n      jump\t// in\n    tag_416:\n        /* \"#utility.yul\":2525:2644   */\n    tag_415:\n        /* \"#utility.yul\":2683:2684   */\n      0x00\n        /* \"#utility.yul\":2708:2761   */\n      tag_417\n        /* \"#utility.yul\":2753:2760   */\n      dup6\n        /* \"#utility.yul\":2744:2750   */\n      dup3\n        /* \"#utility.yul\":2733:2742   */\n      dup7\n        /* \"#utility.yul\":2729:2751   */\n      add\n        /* \"#utility.yul\":2708:2761   */\n      tag_347\n      jump\t// in\n    tag_417:\n        /* \"#utility.yul\":2698:2761   */\n      swap3\n      pop\n        /* \"#utility.yul\":2654:2771   */\n      pop\n        /* \"#utility.yul\":2810:2812   */\n      0x20\n        /* \"#utility.yul\":2836:2889   */\n      tag_418\n        /* \"#utility.yul\":2881:2888   */\n      dup6\n        /* \"#utility.yul\":2872:2878   */\n      dup3\n        /* \"#utility.yul\":2861:2870   */\n      dup7\n        /* \"#utility.yul\":2857:2879   */\n      add\n        /* \"#utility.yul\":2836:2889   */\n      tag_350\n      jump\t// in\n    tag_418:\n        /* \"#utility.yul\":2826:2889   */\n      swap2\n      pop\n        /* \"#utility.yul\":2781:2899   */\n      pop\n        /* \"#utility.yul\":2432:2906   */\n      swap3\n      pop\n      swap3\n      swap1\n      pop\n      jump\t// out\n        /* \"#utility.yul\":2912:3002   */\n    tag_351:\n        /* \"#utility.yul\":2946:2953   */\n      0x00\n        /* \"#utility.yul\":2989:2994   */\n      dup2\n        /* \"#utility.yul\":2982:2995   */\n      iszero\n        /* \"#utility.yul\":2975:2996   */\n      iszero\n        /* \"#utility.yul\":2964:2996   */\n      swap1\n      pop\n        /* \"#utility.yul\":2912:3002   */\n      swap2\n      swap1\n      pop\n      jump\t// out\n        /* \"#utility.yul\":3008:3117   */\n    tag_352:\n        /* \"#utility.yul\":3089:3110   */\n      tag_421\n        /* \"#utility.yul\":3104:3109   */\n      dup2\n        /* \"#utility.yul\":3089:3110   */\n      tag_351\n      jump\t// in\n    tag_421:\n        /* \"#utility.yul\":3084:3087   */\n      dup3\n        /* \"#utility.yul\":3077:3111   */\n      mstore\n        /* \"#utility.yul\":3008:3117   */\n      pop\n      pop\n      jump\t// out\n        /* \"#utility.yul\":3123:3333   */\n    tag_41:\n        /* \"#utility.yul\":3210:3214   */\n      0x00\n        /* \"#utility.yul\":3248:3250   */\n      0x20\n        /* \"#utility.yul\":3237:3246   */\n      dup3\n        /* \"#utility.yul\":3233:3251   */\n      add\n        /* \"#utility.yul\":3225:3251   */\n      swap1\n      pop\n        /* \"#utility.yul\":3261:3326   */\n      tag_423\n        /* \"#utility.yul\":3323:3324   */\n      0x00\n        /* \"#utility.yul\":3312:3321   */\n      dup4\n        /* \"#utility.yul\":3308:3325   */\n      add\n        /* \"#utility.yul\":3299:3305   */\n      dup5\n        /* \"#utility.yul\":3261:3326   */\n      tag_352\n      jump\t// in\n    tag_423:\n        /* \"#utility.yul\":3123:3333   */\n      swap3\n      swap2\n      pop\n      pop\n      jump\t// out\n        /* \"#utility.yul\":3339:3428   */\n    tag_353:\n        /* \"#utility.yul\":3375:3382   */\n      0x00\n        /* \"#utility.yul\":3415:3421   */\n      0xffff\n        /* \"#utility.yul\":3408:3413   */\n      dup3\n        /* \"#utility.yul\":3404:3422   */\n      and\n        /* \"#utility.yul\":3393:3422   */\n      swap1\n      pop\n        /* \"#utility.yul\":3339:3428   */\n      swap2\n      swap1\n      pop\n      jump\t// out\n        /* \"#utility.yul\":3434:3549   */\n    tag_354:\n        /* \"#utility.yul\":3519:3542   */\n      tag_426\n        /* \"#utility.yul\":3536:3541   */\n      dup2\n        /* \"#utility.yul\":3519:3542   */\n      tag_353\n      jump\t// in\n    tag_426:\n        /* \"#utility.yul\":3514:3517   */\n      dup3\n        /* \"#utility.yul\":3507:3543   */\n      mstore\n        /* \"#utility.yul\":3434:3549   */\n      pop\n      pop\n      jump\t// out\n        /* \"#utility.yul\":3555:3773   */\n    tag_45:\n        /* \"#utility.yul\":3646:3650   */\n      0x00\n        /* \"#utility.yul\":3684:3686   */\n      0x20\n        /* \"#utility.yul\":3673:3682   */\n      dup3\n        /* \"#utility.yul\":3669:3687   */\n      add\n        /* \"#utility.yul\":3661:3687   */\n      swap1\n      pop\n        /* \"#utility.yul\":3697:3766   */\n      tag_428\n        /* \"#utility.yul\":3763:3764   */\n      0x00\n        /* \"#utility.yul\":3752:3761   */\n      dup4\n        /* \"#utility.yul\":3748:3765   */\n      add\n        /* \"#utility.yul\":3739:3745   */\n      dup5\n        /* \"#utility.yul\":3697:3766   */\n      tag_354\n      jump\t// in\n    tag_428:\n        /* \"#utility.yul\":3555:3773   */\n      swap3\n      swap2\n      pop\n      pop\n      jump\t// out\n        /* \"#utility.yul\":3779:3839   */\n    tag_355:\n        /* \"#utility.yul\":3807:3810   */\n      0x00\n        /* \"#utility.yul\":3828:3833   */\n      dup2\n        /* \"#utility.yul\":3821:3833   */\n      swap1\n      pop\n        /* \"#utility.yul\":3779:3839   */\n      swap2\n      swap1\n      pop\n      jump\t// out\n        /* \"#utility.yul\":3845:3987   */\n    tag_356:\n        /* \"#utility.yul\":3895:3904   */\n      0x00\n        /* \"#utility.yul\":3928:3981   */\n      tag_431\n        /* \"#utility.yul\":3946:3980   */\n      tag_432\n        /* \"#utility.yul\":3955:3979   */\n      tag_433\n        /* \"#utility.yul\":3973:3978   */\n      dup5\n        /* \"#utility.yul\":3955:3979   */\n      tag_344\n      jump\t// in\n    tag_433:\n        /* \"#utility.yul\":3946:3980   */\n      tag_355\n      jump\t// in\n    tag_432:\n        /* \"#utility.yul\":3928:3981   */\n      tag_344\n      jump\t// in\n    tag_431:\n        /* \"#utility.yul\":3915:3981   */\n      swap1\n      pop\n        /* \"#utility.yul\":3845:3987   */\n      swap2\n      swap1\n      pop\n      jump\t// out\n        /* \"#utility.yul\":3993:4119   */\n    tag_357:\n        /* \"#utility.yul\":4043:4052   */\n      0x00\n        /* \"#utility.yul\":4076:4113   */\n      tag_435\n        /* \"#utility.yul\":4107:4112   */\n      dup3\n        /* \"#utility.yul\":4076:4113   */\n      tag_356\n      jump\t// in\n    tag_435:\n        /* \"#utility.yul\":4063:4113   */\n      swap1\n      pop\n        /* \"#utility.yul\":3993:4119   */\n      swap2\n      swap1\n      pop\n      jump\t// out\n        /* \"#utility.yul\":4125:4266   */\n    tag_358:\n        /* \"#utility.yul\":4190:4199   */\n      0x00\n        /* \"#utility.yul\":4223:4260   */\n      tag_437\n        /* \"#utility.yul\":4254:4259   */\n      dup3\n        /* \"#utility.yul\":4223:4260   */\n      tag_357\n      jump\t// in\n    tag_437:\n        /* \"#utility.yul\":4210:4260   */\n      swap1\n      pop\n        /* \"#utility.yul\":4125:4266   */\n      swap2\n      swap1\n      pop\n      jump\t// out\n        /* \"#utility.yul\":4272:4433   */\n    tag_359:\n        /* \"#utility.yul\":4374:4426   */\n      tag_439\n        /* \"#utility.yul\":4420:4425   */\n      dup2\n        /* \"#utility.yul\":4374:4426   */\n      tag_358\n      jump\t// in\n    tag_439:\n        /* \"#utility.yul\":4369:4372   */\n      dup3\n        /* \"#utility.yul\":4362:4427   */\n      mstore\n        /* \"#utility.yul\":4272:4433   */\n      pop\n      pop\n      jump\t// out\n        /* \"#utility.yul\":4439:4691   */\n    tag_49:\n        /* \"#utility.yul\":4547:4551   */\n      0x00\n        /* \"#utility.yul\":4585:4587   */\n      0x20\n        /* \"#utility.yul\":4574:4583   */\n      dup3\n        /* \"#utility.yul\":4570:4588   */\n      add\n        /* \"#utility.yul\":4562:4588   */\n      swap1\n      pop\n        /* \"#utility.yul\":4598:4684   */\n      tag_441\n        /* \"#utility.yul\":4681:4682   */\n      0x00\n        /* \"#utility.yul\":4670:4679   */\n      dup4\n        /* \"#utility.yul\":4666:4683   */\n      add\n        /* \"#utility.yul\":4657:4663   */\n      dup5\n        /* \"#utility.yul\":4598:4684   */\n      tag_359\n      jump\t// in\n    tag_441:\n        /* \"#utility.yul\":4439:4691   */\n      swap3\n      swap2\n      pop\n      pop\n      jump\t// out\n        /* \"#utility.yul\":4697:4815   */\n    tag_360:\n        /* \"#utility.yul\":4784:4808   */\n      tag_443\n        /* \"#utility.yul\":4802:4807   */\n      dup2\n        /* \"#utility.yul\":4784:4808   */\n      tag_348\n      jump\t// in\n    tag_443:\n        /* \"#utility.yul\":4779:4782   */\n      dup3\n        /* \"#utility.yul\":4772:4809   */\n      mstore\n        /* \"#utility.yul\":4697:4815   */\n      pop\n      pop\n      jump\t// out\n        /* \"#utility.yul\":4821:5043   */\n    tag_53:\n        /* \"#utility.yul\":4914:4918   */\n      0x00\n        /* \"#utility.yul\":4952:4954   */\n      0x20\n        /* \"#utility.yul\":4941:4950   */\n      dup3\n        /* \"#utility.yul\":4937:4955   */\n      add\n        /* \"#utility.yul\":4929:4955   */\n      swap1\n      pop\n        /* \"#utility.yul\":4965:5036   */\n      tag_445\n        /* \"#utility.yul\":5033:5034   */\n      0x00\n        /* \"#utility.yul\":5022:5031   */\n      dup4\n        /* \"#utility.yul\":5018:5035   */\n      add\n        /* \"#utility.yul\":5009:5015   */\n      dup5\n        /* \"#utility.yul\":4965:5036   */\n      tag_360\n      jump\t// in\n    tag_445:\n        /* \"#utility.yul\":4821:5043   */\n      swap3\n      swap2\n      pop\n      pop\n      jump\t// out\n        /* \"#utility.yul\":5049:5668   */\n    tag_56:\n        /* \"#utility.yul\":5126:5132   */\n      0x00\n        /* \"#utility.yul\":5134:5140   */\n      dup1\n        /* \"#utility.yul\":5142:5148   */\n      0x00\n        /* \"#utility.yul\":5191:5193   */\n      0x60\n        /* \"#utility.yul\":5179:5188   */\n      dup5\n        /* \"#utility.yul\":5170:5177   */\n      dup7\n        /* \"#utility.yul\":5166:5189   */\n      sub\n        /* \"#utility.yul\":5162:5194   */\n      slt\n        /* \"#utility.yul\":5159:5278   */\n      iszero\n      tag_447\n      jumpi\n        /* \"#utility.yul\":5197:5276   */\n      tag_448\n      tag_342\n      jump\t// in\n    tag_448:\n        /* \"#utility.yul\":5159:5278   */\n    tag_447:\n        /* \"#utility.yul\":5317:5318   */\n      0x00\n        /* \"#utility.yul\":5342:5395   */\n      tag_449\n        /* \"#utility.yul\":5387:5394   */\n      dup7\n        /* \"#utility.yul\":5378:5384   */\n      dup3\n        /* \"#utility.yul\":5367:5376   */\n      dup8\n        /* \"#utility.yul\":5363:5385   */\n      add\n        /* \"#utility.yul\":5342:5395   */\n      tag_347\n      jump\t// in\n    tag_449:\n        /* \"#utility.yul\":5332:5395   */\n      swap4\n      pop\n        /* \"#utility.yul\":5288:5405   */\n      pop\n        /* \"#utility.yul\":5444:5446   */\n      0x20\n        /* \"#utility.yul\":5470:5523   */\n      tag_450\n        /* \"#utility.yul\":5515:5522   */\n      dup7\n        /* \"#utility.yul\":5506:5512   */\n      dup3\n        /* \"#utility.yul\":5495:5504   */\n      dup8\n        /* \"#utility.yul\":5491:5513   */\n      add\n        /* \"#utility.yul\":5470:5523   */\n      tag_347\n      jump\t// in\n    tag_450:\n        /* \"#utility.yul\":5460:5523   */\n      swap3\n      pop\n        /* \"#utility.yul\":5415:5533   */\n      pop\n        /* \"#utility.yul\":5572:5574   */\n      0x40\n        /* \"#utility.yul\":5598:5651   */\n      tag_451\n        /* \"#utility.yul\":5643:5650   */\n      dup7\n        /* \"#utility.yul\":5634:5640   */\n      dup3\n        /* \"#utility.yul\":5623:5632   */\n      dup8\n        /* \"#utility.yul\":5619:5641   */\n      add\n        /* \"#utility.yul\":5598:5651   */\n      tag_350\n      jump\t// in\n    tag_451:\n        /* \"#utility.yul\":5588:5651   */\n      swap2\n      pop\n        /* \"#utility.yul\":5543:5661   */\n      pop\n        /* \"#utility.yul\":5049:5668   */\n      swap3\n      pop\n      swap3\n      pop\n      swap3\n      jump\t// out\n        /* \"#utility.yul\":5674:5760   */\n    tag_361:\n        /* \"#utility.yul\":5709:5716   */\n      0x00\n        /* \"#utility.yul\":5749:5753   */\n      0xff\n        /* \"#utility.yul\":5742:5747   */\n      dup3\n        /* \"#utility.yul\":5738:5754   */\n      and\n        /* \"#utility.yul\":5727:5754   */\n      swap1\n      pop\n        /* \"#utility.yul\":5674:5760   */\n      swap2\n      swap1\n      pop\n      jump\t// out\n        /* \"#utility.yul\":5766:5878   */\n    tag_362:\n        /* \"#utility.yul\":5849:5871   */\n      tag_454\n        /* \"#utility.yul\":5865:5870   */\n      dup2\n        /* \"#utility.yul\":5849:5871   */\n      tag_361\n      jump\t// in\n    tag_454:\n        /* \"#utility.yul\":5844:5847   */\n      dup3\n        /* \"#utility.yul\":5837:5872   */\n      mstore\n        /* \"#utility.yul\":5766:5878   */\n      pop\n      pop\n      jump\t// out\n        /* \"#utility.yul\":5884:6098   */\n    tag_62:\n        /* \"#utility.yul\":5973:5977   */\n      0x00\n        /* \"#utility.yul\":6011:6013   */\n      0x20\n        /* \"#utility.yul\":6000:6009   */\n      dup3\n        /* \"#utility.yul\":5996:6014   */\n      add\n        /* \"#utility.yul\":5988:6014   */\n      swap1\n      pop\n        /* \"#utility.yul\":6024:6091   */\n      tag_456\n        /* \"#utility.yul\":6088:6089   */\n      0x00\n        /* \"#utility.yul\":6077:6086   */\n      dup4\n        /* \"#utility.yul\":6073:6090   */\n      add\n        /* \"#utility.yul\":6064:6070   */\n      dup5\n        /* \"#utility.yul\":6024:6091   */\n      tag_362\n      jump\t// in\n    tag_456:\n        /* \"#utility.yul\":5884:6098   */\n      swap3\n      swap2\n      pop\n      pop\n      jump\t// out\n        /* \"#utility.yul\":6104:6222   */\n    tag_363:\n        /* \"#utility.yul\":6191:6215   */\n      tag_458\n        /* \"#utility.yul\":6209:6214   */\n      dup2\n        /* \"#utility.yul\":6191:6215   */\n      tag_345\n      jump\t// in\n    tag_458:\n        /* \"#utility.yul\":6186:6189   */\n      dup3\n        /* \"#utility.yul\":6179:6216   */\n      mstore\n        /* \"#utility.yul\":6104:6222   */\n      pop\n      pop\n      jump\t// out\n        /* \"#utility.yul\":6228:6450   */\n    tag_74:\n        /* \"#utility.yul\":6321:6325   */\n      0x00\n        /* \"#utility.yul\":6359:6361   */\n      0x20\n        /* \"#utility.yul\":6348:6357   */\n      dup3\n        /* \"#utility.yul\":6344:6362   */\n      add\n        /* \"#utility.yul\":6336:6362   */\n      swap1\n      pop\n        /* \"#utility.yul\":6372:6443   */\n      tag_460\n        /* \"#utility.yul\":6440:6441   */\n      0x00\n        /* \"#utility.yul\":6429:6438   */\n      dup4\n        /* \"#utility.yul\":6425:6442   */\n      add\n        /* \"#utility.yul\":6416:6422   */\n      dup5\n        /* \"#utility.yul\":6372:6443   */\n      tag_363\n      jump\t// in\n    tag_460:\n        /* \"#utility.yul\":6228:6450   */\n      swap3\n      swap2\n      pop\n      pop\n      jump\t// out\n        /* \"#utility.yul\":6456:6785   */\n    tag_77:\n        /* \"#utility.yul\":6515:6521   */\n      0x00\n        /* \"#utility.yul\":6564:6566   */\n      0x20\n        /* \"#utility.yul\":6552:6561   */\n      dup3\n        /* \"#utility.yul\":6543:6550   */\n      dup5\n        /* \"#utility.yul\":6539:6562   */\n      sub\n        /* \"#utility.yul\":6535:6567   */\n      slt\n        /* \"#utility.yul\":6532:6651   */\n      iszero\n      tag_462\n      jumpi\n        /* \"#utility.yul\":6570:6649   */\n      tag_463\n      tag_342\n      jump\t// in\n    tag_463:\n        /* \"#utility.yul\":6532:6651   */\n    tag_462:\n        /* \"#utility.yul\":6690:6691   */\n      0x00\n        /* \"#utility.yul\":6715:6768   */\n      tag_464\n        /* \"#utility.yul\":6760:6767   */\n      dup5\n        /* \"#utility.yul\":6751:6757   */\n      dup3\n        /* \"#utility.yul\":6740:6749   */\n      dup6\n        /* \"#utility.yul\":6736:6758   */\n      add\n        /* \"#utility.yul\":6715:6768   */\n      tag_347\n      jump\t// in\n    tag_464:\n        /* \"#utility.yul\":6705:6768   */\n      swap2\n      pop\n        /* \"#utility.yul\":6661:6778   */\n      pop\n        /* \"#utility.yul\":6456:6785   */\n      swap3\n      swap2\n      pop\n      pop\n      jump\t// out\n        /* \"#utility.yul\":6791:6911   */\n    tag_364:\n        /* \"#utility.yul\":6863:6886   */\n      tag_466\n        /* \"#utility.yul\":6880:6885   */\n      dup2\n        /* \"#utility.yul\":6863:6886   */\n      tag_353\n      jump\t// in\n    tag_466:\n        /* \"#utility.yul\":6856:6861   */\n      dup2\n        /* \"#utility.yul\":6853:6887   */\n      eq\n        /* \"#utility.yul\":6843:6905   */\n      tag_467\n      jumpi\n        /* \"#utility.yul\":6901:6902   */\n      0x00\n        /* \"#utility.yul\":6898:6899   */\n      dup1\n        /* \"#utility.yul\":6891:6903   */\n      revert\n        /* \"#utility.yul\":6843:6905   */\n    tag_467:\n        /* \"#utility.yul\":6791:6911   */\n      pop\n      jump\t// out\n        /* \"#utility.yul\":6917:7054   */\n    tag_365:\n        /* \"#utility.yul\":6962:6967   */\n      0x00\n        /* \"#utility.yul\":7000:7006   */\n      dup2\n        /* \"#utility.yul\":6987:7007   */\n      calldataload\n        /* \"#utility.yul\":6978:7007   */\n      swap1\n      pop\n        /* \"#utility.yul\":7016:7048   */\n      tag_469\n        /* \"#utility.yul\":7042:7047   */\n      dup2\n        /* \"#utility.yul\":7016:7048   */\n      tag_364\n      jump\t// in\n    tag_469:\n        /* \"#utility.yul\":6917:7054   */\n      swap3\n      swap2\n      pop\n      pop\n      jump\t// out\n        /* \"#utility.yul\":7060:7530   */\n    tag_95:\n        /* \"#utility.yul\":7126:7132   */\n      0x00\n        /* \"#utility.yul\":7134:7140   */\n      dup1\n        /* \"#utility.yul\":7183:7185   */\n      0x40\n        /* \"#utility.yul\":7171:7180   */\n      dup4\n        /* \"#utility.yul\":7162:7169   */\n      dup6\n        /* \"#utility.yul\":7158:7181   */\n      sub\n        /* \"#utility.yul\":7154:7186   */\n      slt\n        /* \"#utility.yul\":7151:7270   */\n      iszero\n      tag_471\n      jumpi\n        /* \"#utility.yul\":7189:7268   */\n      tag_472\n      tag_342\n      jump\t// in\n    tag_472:\n        /* \"#utility.yul\":7151:7270   */\n    tag_471:\n        /* \"#utility.yul\":7309:7310   */\n      0x00\n        /* \"#utility.yul\":7334:7386   */\n      tag_473\n        /* \"#utility.yul\":7378:7385   */\n      dup6\n        /* \"#utility.yul\":7369:7375   */\n      dup3\n        /* \"#utility.yul\":7358:7367   */\n      dup7\n        /* \"#utility.yul\":7354:7376   */\n      add\n        /* \"#utility.yul\":7334:7386   */\n      tag_365\n      jump\t// in\n    tag_473:\n        /* \"#utility.yul\":7324:7386   */\n      swap3\n      pop\n        /* \"#utility.yul\":7280:7396   */\n      pop\n        /* \"#utility.yul\":7435:7437   */\n      0x20\n        /* \"#utility.yul\":7461:7513   */\n      tag_474\n        /* \"#utility.yul\":7505:7512   */\n      dup6\n        /* \"#utility.yul\":7496:7502   */\n      dup3\n        /* \"#utility.yul\":7485:7494   */\n      dup7\n        /* \"#utility.yul\":7481:7503   */\n      add\n        /* \"#utility.yul\":7461:7513   */\n      tag_365\n      jump\t// in\n    tag_474:\n        /* \"#utility.yul\":7451:7513   */\n      swap2\n      pop\n        /* \"#utility.yul\":7406:7523   */\n      pop\n        /* \"#utility.yul\":7060:7530   */\n      swap3\n      pop\n      swap3\n      swap1\n      pop\n      jump\t// out\n        /* \"#utility.yul\":7536:7865   */\n    tag_99:\n        /* \"#utility.yul\":7595:7601   */\n      0x00\n        /* \"#utility.yul\":7644:7646   */\n      0x20\n        /* \"#utility.yul\":7632:7641   */\n      dup3\n        /* \"#utility.yul\":7623:7630   */\n      dup5\n        /* \"#utility.yul\":7619:7642   */\n      sub\n        /* \"#utility.yul\":7615:7647   */\n      slt\n        /* \"#utility.yul\":7612:7731   */\n      iszero\n      tag_476\n      jumpi\n        /* \"#utility.yul\":7650:7729   */\n      tag_477\n      tag_342\n      jump\t// in\n    tag_477:\n        /* \"#utility.yul\":7612:7731   */\n    tag_476:\n        /* \"#utility.yul\":7770:7771   */\n      0x00\n        /* \"#utility.yul\":7795:7848   */\n      tag_478\n        /* \"#utility.yul\":7840:7847   */\n      dup5\n        /* \"#utility.yul\":7831:7837   */\n      dup3\n        /* \"#utility.yul\":7820:7829   */\n      dup6\n        /* \"#utility.yul\":7816:7838   */\n      add\n        /* \"#utility.yul\":7795:7848   */\n      tag_350\n      jump\t// in\n    tag_478:\n        /* \"#utility.yul\":7785:7848   */\n      swap2\n      pop\n        /* \"#utility.yul\":7741:7858   */\n      pop\n        /* \"#utility.yul\":7536:7865   */\n      swap3\n      swap2\n      pop\n      pop\n      jump\t// out\n        /* \"#utility.yul\":7871:8345   */\n    tag_110:\n        /* \"#utility.yul\":7939:7945   */\n      0x00\n        /* \"#utility.yul\":7947:7953   */\n      dup1\n        /* \"#utility.yul\":7996:7998   */\n      0x40\n        /* \"#utility.yul\":7984:7993   */\n      dup4\n        /* \"#utility.yul\":7975:7982   */\n      dup6\n        /* \"#utility.yul\":7971:7994   */\n      sub\n        /* \"#utility.yul\":7967:7999   */\n      slt\n        /* \"#utility.yul\":7964:8083   */\n      iszero\n      tag_480\n      jumpi\n        /* \"#utility.yul\":8002:8081   */\n      tag_481\n      tag_342\n      jump\t// in\n    tag_481:\n        /* \"#utility.yul\":7964:8083   */\n    tag_480:\n        /* \"#utility.yul\":8122:8123   */\n      0x00\n        /* \"#utility.yul\":8147:8200   */\n      tag_482\n        /* \"#utility.yul\":8192:8199   */\n      dup6\n        /* \"#utility.yul\":8183:8189   */\n      dup3\n        /* \"#utility.yul\":8172:8181   */\n      dup7\n        /* \"#utility.yul\":8168:8190   */\n      add\n        /* \"#utility.yul\":8147:8200   */\n      tag_347\n      jump\t// in\n    tag_482:\n        /* \"#utility.yul\":8137:8200   */\n      swap3\n      pop\n        /* \"#utility.yul\":8093:8210   */\n      pop\n        /* \"#utility.yul\":8249:8251   */\n      0x20\n        /* \"#utility.yul\":8275:8328   */\n      tag_483\n        /* \"#utility.yul\":8320:8327   */\n      dup6\n        /* \"#utility.yul\":8311:8317   */\n      dup3\n        /* \"#utility.yul\":8300:8309   */\n      dup7\n        /* \"#utility.yul\":8296:8318   */\n      add\n        /* \"#utility.yul\":8275:8328   */\n      tag_347\n      jump\t// in\n    tag_483:\n        /* \"#utility.yul\":8265:8328   */\n      swap2\n      pop\n        /* \"#utility.yul\":8220:8338   */\n      pop\n        /* \"#utility.yul\":7871:8345   */\n      swap3\n      pop\n      swap3\n      swap1\n      pop\n      jump\t// out\n        /* \"#utility.yul\":8351:8531   */\n    tag_366:\n        /* \"#utility.yul\":8399:8476   */\n      0x4e487b7100000000000000000000000000000000000000000000000000000000\n        /* \"#utility.yul\":8396:8397   */\n      0x00\n        /* \"#utility.yul\":8389:8477   */\n      mstore\n        /* \"#utility.yul\":8496:8500   */\n      0x22\n        /* \"#utility.yul\":8493:8494   */\n      0x04\n        /* \"#utility.yul\":8486:8501   */\n      mstore\n        /* \"#utility.yul\":8520:8524   */\n      0x24\n        /* \"#utility.yul\":8517:8518   */\n      0x00\n        /* \"#utility.yul\":8510:8525   */\n      revert\n        /* \"#utility.yul\":8537:8857   */\n    tag_124:\n        /* \"#utility.yul\":8581:8587   */\n      0x00\n        /* \"#utility.yul\":8618:8619   */\n      0x02\n        /* \"#utility.yul\":8612:8616   */\n      dup3\n        /* \"#utility.yul\":8608:8620   */\n      div\n        /* \"#utility.yul\":8598:8620   */\n      swap1\n      pop\n        /* \"#utility.yul\":8665:8666   */\n      0x01\n        /* \"#utility.yul\":8659:8663   */\n      dup3\n        /* \"#utility.yul\":8655:8667   */\n      and\n        /* \"#utility.yul\":8686:8704   */\n      dup1\n        /* \"#utility.yul\":8676:8757   */\n      tag_486\n      jumpi\n        /* \"#utility.yul\":8742:8746   */\n      0x7f\n        /* \"#utility.yul\":8734:8740   */\n      dup3\n        /* \"#utility.yul\":8730:8747   */\n      and\n        /* \"#utility.yul\":8720:8747   */\n      swap2\n      pop\n        /* \"#utility.yul\":8676:8757   */\n    tag_486:\n        /* \"#utility.yul\":8804:8806   */\n      0x20\n        /* \"#utility.yul\":8796:8802   */\n      dup3\n        /* \"#utility.yul\":8793:8807   */\n      lt\n        /* \"#utility.yul\":8773:8791   */\n      dup2\n        /* \"#utility.yul\":8770:8808   */\n      sub\n        /* \"#utility.yul\":8767:8851   */\n      tag_487\n      jumpi\n        /* \"#utility.yul\":8823:8841   */\n      tag_488\n      tag_366\n      jump\t// in\n    tag_488:\n        /* \"#utility.yul\":8767:8851   */\n    tag_487:\n        /* \"#utility.yul\":8588:8857   */\n      pop\n        /* \"#utility.yul\":8537:8857   */\n      swap2\n      swap1\n      pop\n      jump\t// out\n        /* \"#utility.yul\":8863:9030   */\n    tag_367:\n        /* \"#utility.yul\":9003:9022   */\n      0x4d696e742066656520746f6f2068696768000000000000000000000000000000\n        /* \"#utility.yul\":8999:9000   */\n      0x00\n        /* \"#utility.yul\":8991:8997   */\n      dup3\n        /* \"#utility.yul\":8987:9001   */\n      add\n        /* \"#utility.yul\":8980:9023   */\n      mstore\n        /* \"#utility.yul\":8863:9030   */\n      pop\n      jump\t// out\n        /* \"#utility.yul\":9036:9402   */\n    tag_368:\n        /* \"#utility.yul\":9178:9181   */\n      0x00\n        /* \"#utility.yul\":9199:9266   */\n      tag_491\n        /* \"#utility.yul\":9263:9265   */\n      0x11\n        /* \"#utility.yul\":9258:9261   */\n      dup4\n        /* \"#utility.yul\":9199:9266   */\n      tag_337\n      jump\t// in\n    tag_491:\n        /* \"#utility.yul\":9192:9266   */\n      swap2\n      pop\n        /* \"#utility.yul\":9275:9368   */\n      tag_492\n        /* \"#utility.yul\":9364:9367   */\n      dup3\n        /* \"#utility.yul\":9275:9368   */\n      tag_367\n      jump\t// in\n    tag_492:\n        /* \"#utility.yul\":9393:9395   */\n      0x20\n        /* \"#utility.yul\":9388:9391   */\n      dup3\n        /* \"#utility.yul\":9384:9396   */\n      add\n        /* \"#utility.yul\":9377:9396   */\n      swap1\n      pop\n        /* \"#utility.yul\":9036:9402   */\n      swap2\n      swap1\n      pop\n      jump\t// out\n        /* \"#utility.yul\":9408:9827   */\n    tag_172:\n        /* \"#utility.yul\":9574:9578   */\n      0x00\n        /* \"#utility.yul\":9612:9614   */\n      0x20\n        /* \"#utility.yul\":9601:9610   */\n      dup3\n        /* \"#utility.yul\":9597:9615   */\n      add\n        /* \"#utility.yul\":9589:9615   */\n      swap1\n      pop\n        /* \"#utility.yul\":9661:9670   */\n      dup2\n        /* \"#utility.yul\":9655:9659   */\n      dup2\n        /* \"#utility.yul\":9651:9671   */\n      sub\n        /* \"#utility.yul\":9647:9648   */\n      0x00\n        /* \"#utility.yul\":9636:9645   */\n      dup4\n        /* \"#utility.yul\":9632:9649   */\n      add\n        /* \"#utility.yul\":9625:9672   */\n      mstore\n        /* \"#utility.yul\":9689:9820   */\n      tag_494\n        /* \"#utility.yul\":9815:9819   */\n      dup2\n        /* \"#utility.yul\":9689:9820   */\n      tag_368\n      jump\t// in\n    tag_494:\n        /* \"#utility.yul\":9681:9820   */\n      swap1\n      pop\n        /* \"#utility.yul\":9408:9827   */\n      swap2\n      swap1\n      pop\n      jump\t// out\n        /* \"#utility.yul\":9833:10002   */\n    tag_369:\n        /* \"#utility.yul\":9973:9994   */\n      0x52656465656d2066656520746f6f206869676800000000000000000000000000\n        /* \"#utility.yul\":9969:9970   */\n      0x00\n        /* \"#utility.yul\":9961:9967   */\n      dup3\n        /* \"#utility.yul\":9957:9971   */\n      add\n        /* \"#utility.yul\":9950:9995   */\n      mstore\n        /* \"#utility.yul\":9833:10002   */\n      pop\n      jump\t// out\n        /* \"#utility.yul\":10008:10374   */\n    tag_370:\n        /* \"#utility.yul\":10150:10153   */\n      0x00\n        /* \"#utility.yul\":10171:10238   */\n      tag_497\n        /* \"#utility.yul\":10235:10237   */\n      0x13\n        /* \"#utility.yul\":10230:10233   */\n      dup4\n        /* \"#utility.yul\":10171:10238   */\n      tag_337\n      jump\t// in\n    tag_497:\n        /* \"#utility.yul\":10164:10238   */\n      swap2\n      pop\n        /* \"#utility.yul\":10247:10340   */\n      tag_498\n        /* \"#utility.yul\":10336:10339   */\n      dup3\n        /* \"#utility.yul\":10247:10340   */\n      tag_369\n      jump\t// in\n    tag_498:\n        /* \"#utility.yul\":10365:10367   */\n      0x20\n        /* \"#utility.yul\":10360:10363   */\n      dup3\n        /* \"#utility.yul\":10356:10368   */\n      add\n        /* \"#utility.yul\":10349:10368   */\n      swap1\n      pop\n        /* \"#utility.yul\":10008:10374   */\n      swap2\n      swap1\n      pop\n      jump\t// out\n        /* \"#utility.yul\":10380:10799   */\n    tag_175:\n        /* \"#utility.yul\":10546:10550   */\n      0x00\n        /* \"#utility.yul\":10584:10586   */\n      0x20\n        /* \"#utility.yul\":10573:10582   */\n      dup3\n        /* \"#utility.yul\":10569:10587   */\n      add\n        /* \"#utility.yul\":10561:10587   */\n      swap1\n      pop\n        /* \"#utility.yul\":10633:10642   */\n      dup2\n        /* \"#utility.yul\":10627:10631   */\n      dup2\n        /* \"#utility.yul\":10623:10643   */\n      sub\n        /* \"#utility.yul\":10619:10620   */\n      0x00\n        /* \"#utility.yul\":10608:10617   */\n      dup4\n        /* \"#utility.yul\":10604:10621   */\n      add\n        /* \"#utility.yul\":10597:10644   */\n      mstore\n        /* \"#utility.yul\":10661:10792   */\n      tag_500\n        /* \"#utility.yul\":10787:10791   */\n      dup2\n        /* \"#utility.yul\":10661:10792   */\n      tag_370\n      jump\t// in\n    tag_500:\n        /* \"#utility.yul\":10653:10792   */\n      swap1\n      pop\n        /* \"#utility.yul\":10380:10799   */\n      swap2\n      swap1\n      pop\n      jump\t// out\n        /* \"#utility.yul\":10805:11129   */\n    tag_177:\n        /* \"#utility.yul\":10922:10926   */\n      0x00\n        /* \"#utility.yul\":10960:10962   */\n      0x40\n        /* \"#utility.yul\":10949:10958   */\n      dup3\n        /* \"#utility.yul\":10945:10963   */\n      add\n        /* \"#utility.yul\":10937:10963   */\n      swap1\n      pop\n        /* \"#utility.yul\":10973:11042   */\n      tag_502\n        /* \"#utility.yul\":11039:11040   */\n      0x00\n        /* \"#utility.yul\":11028:11037   */\n      dup4\n        /* \"#utility.yul\":11024:11041   */\n      add\n        /* \"#utility.yul\":11015:11021   */\n      dup6\n        /* \"#utility.yul\":10973:11042   */\n      tag_354\n      jump\t// in\n    tag_502:\n        /* \"#utility.yul\":11052:11122   */\n      tag_503\n        /* \"#utility.yul\":11118:11120   */\n      0x20\n        /* \"#utility.yul\":11107:11116   */\n      dup4\n        /* \"#utility.yul\":11103:11121   */\n      add\n        /* \"#utility.yul\":11094:11100   */\n      dup5\n        /* \"#utility.yul\":11052:11122   */\n      tag_354\n      jump\t// in\n    tag_503:\n        /* \"#utility.yul\":10805:11129   */\n      swap4\n      swap3\n      pop\n      pop\n      pop\n      jump\t// out\n        /* \"#utility.yul\":11135:11303   */\n    tag_371:\n        /* \"#utility.yul\":11275:11295   */\n      0x416d6f756e74206d757374206265203e20300000000000000000000000000000\n        /* \"#utility.yul\":11271:11272   */\n      0x00\n        /* \"#utility.yul\":11263:11269   */\n      dup3\n        /* \"#utility.yul\":11259:11273   */\n      add\n        /* \"#utility.yul\":11252:11296   */\n      mstore\n        /* \"#utility.yul\":11135:11303   */\n      pop\n      jump\t// out\n        /* \"#utility.yul\":11309:11675   */\n    tag_372:\n        /* \"#utility.yul\":11451:11454   */\n      0x00\n        /* \"#utility.yul\":11472:11539   */\n      tag_506\n        /* \"#utility.yul\":11536:11538   */\n      0x12\n        /* \"#utility.yul\":11531:11534   */\n      dup4\n        /* \"#utility.yul\":11472:11539   */\n      tag_337\n      jump\t// in\n    tag_506:\n        /* \"#utility.yul\":11465:11539   */\n      swap2\n      pop\n        /* \"#utility.yul\":11548:11641   */\n      tag_507\n        /* \"#utility.yul\":11637:11640   */\n      dup3\n        /* \"#utility.yul\":11548:11641   */\n      tag_371\n      jump\t// in\n    tag_507:\n        /* \"#utility.yul\":11666:11668   */\n      0x20\n        /* \"#utility.yul\":11661:11664   */\n      dup3\n        /* \"#utility.yul\":11657:11669   */\n      add\n        /* \"#utility.yul\":11650:11669   */\n      swap1\n      pop\n        /* \"#utility.yul\":11309:11675   */\n      swap2\n      swap1\n      pop\n      jump\t// out\n        /* \"#utility.yul\":11681:12100   */\n    tag_187:\n        /* \"#utility.yul\":11847:11851   */\n      0x00\n        /* \"#utility.yul\":11885:11887   */\n      0x20\n        /* \"#utility.yul\":11874:11883   */\n      dup3\n        /* \"#utility.yul\":11870:11888   */\n      add\n        /* \"#utility.yul\":11862:11888   */\n      swap1\n      pop\n        /* \"#utility.yul\":11934:11943   */\n      dup2\n        /* \"#utility.yul\":11928:11932   */\n      dup2\n        /* \"#utility.yul\":11924:11944   */\n      sub\n        /* \"#utility.yul\":11920:11921   */\n      0x00\n        /* \"#utility.yul\":11909:11918   */\n      dup4\n        /* \"#utility.yul\":11905:11922   */\n      add\n        /* \"#utility.yul\":11898:11945   */\n      mstore\n        /* \"#utility.yul\":11962:12093   */\n      tag_509\n        /* \"#utility.yul\":12088:12092   */\n      dup2\n        /* \"#utility.yul\":11962:12093   */\n      tag_372\n      jump\t// in\n    tag_509:\n        /* \"#utility.yul\":11954:12093   */\n      swap1\n      pop\n        /* \"#utility.yul\":11681:12100   */\n      swap2\n      swap1\n      pop\n      jump\t// out\n        /* \"#utility.yul\":12106:12286   */\n    tag_373:\n        /* \"#utility.yul\":12154:12231   */\n      0x4e487b7100000000000000000000000000000000000000000000000000000000\n        /* \"#utility.yul\":12151:12152   */\n      0x00\n        /* \"#utility.yul\":12144:12232   */\n      mstore\n        /* \"#utility.yul\":12251:12255   */\n      0x11\n        /* \"#utility.yul\":12248:12249   */\n      0x04\n        /* \"#utility.yul\":12241:12256   */\n      mstore\n        /* \"#utility.yul\":12275:12279   */\n      0x24\n        /* \"#utility.yul\":12272:12273   */\n      0x00\n        /* \"#utility.yul\":12265:12280   */\n      revert\n        /* \"#utility.yul\":12292:12483   */\n    tag_190:\n        /* \"#utility.yul\":12332:12335   */\n      0x00\n        /* \"#utility.yul\":12351:12371   */\n      tag_512\n        /* \"#utility.yul\":12369:12370   */\n      dup3\n        /* \"#utility.yul\":12351:12371   */\n      tag_348\n      jump\t// in\n    tag_512:\n        /* \"#utility.yul\":12346:12371   */\n      swap2\n      pop\n        /* \"#utility.yul\":12385:12405   */\n      tag_513\n        /* \"#utility.yul\":12403:12404   */\n      dup4\n        /* \"#utility.yul\":12385:12405   */\n      tag_348\n      jump\t// in\n    tag_513:\n        /* \"#utility.yul\":12380:12405   */\n      swap3\n      pop\n        /* \"#utility.yul\":12428:12429   */\n      dup3\n        /* \"#utility.yul\":12425:12426   */\n      dup3\n        /* \"#utility.yul\":12421:12430   */\n      add\n        /* \"#utility.yul\":12414:12430   */\n      swap1\n      pop\n        /* \"#utility.yul\":12449:12452   */\n      dup1\n        /* \"#utility.yul\":12446:12447   */\n      dup3\n        /* \"#utility.yul\":12443:12453   */\n      gt\n        /* \"#utility.yul\":12440:12476   */\n      iszero\n      tag_514\n      jumpi\n        /* \"#utility.yul\":12456:12474   */\n      tag_515\n      tag_373\n      jump\t// in\n    tag_515:\n        /* \"#utility.yul\":12440:12476   */\n    tag_514:\n        /* \"#utility.yul\":12292:12483   */\n      swap3\n      swap2\n      pop\n      pop\n      jump\t// out\n        /* \"#utility.yul\":12489:12657   */\n    tag_374:\n        /* \"#utility.yul\":12629:12649   */\n      0x45786365656473206d617820737570706c790000000000000000000000000000\n        /* \"#utility.yul\":12625:12626   */\n      0x00\n        /* \"#utility.yul\":12617:12623   */\n      dup3\n        /* \"#utility.yul\":12613:12627   */\n      add\n        /* \"#utility.yul\":12606:12650   */\n      mstore\n        /* \"#utility.yul\":12489:12657   */\n      pop\n      jump\t// out\n        /* \"#utility.yul\":12663:13029   */\n    tag_375:\n        /* \"#utility.yul\":12805:12808   */\n      0x00\n        /* \"#utility.yul\":12826:12893   */\n      tag_518\n        /* \"#utility.yul\":12890:12892   */\n      0x12\n        /* \"#utility.yul\":12885:12888   */\n      dup4\n        /* \"#utility.yul\":12826:12893   */\n      tag_337\n      jump\t// in\n    tag_518:\n        /* \"#utility.yul\":12819:12893   */\n      swap2\n      pop\n        /* \"#utility.yul\":12902:12995   */\n      tag_519\n        /* \"#utility.yul\":12991:12994   */\n      dup3\n        /* \"#utility.yul\":12902:12995   */\n      tag_374\n      jump\t// in\n    tag_519:\n        /* \"#utility.yul\":13020:13022   */\n      0x20\n        /* \"#utility.yul\":13015:13018   */\n      dup3\n        /* \"#utility.yul\":13011:13023   */\n      add\n        /* \"#utility.yul\":13004:13023   */\n      swap1\n      pop\n        /* \"#utility.yul\":12663:13029   */\n      swap2\n      swap1\n      pop\n      jump\t// out\n        /* \"#utility.yul\":13035:13454   */\n    tag_193:\n        /* \"#utility.yul\":13201:13205   */\n      0x00\n        /* \"#utility.yul\":13239:13241   */\n      0x20\n        /* \"#utility.yul\":13228:13237   */\n      dup3\n        /* \"#utility.yul\":13224:13242   */\n      add\n        /* \"#utility.yul\":13216:13242   */\n      swap1\n      pop\n        /* \"#utility.yul\":13288:13297   */\n      dup2\n        /* \"#utility.yul\":13282:13286   */\n      dup2\n        /* \"#utility.yul\":13278:13298   */\n      sub\n        /* \"#utility.yul\":13274:13275   */\n      0x00\n        /* \"#utility.yul\":13263:13272   */\n      dup4\n        /* \"#utility.yul\":13259:13276   */\n      add\n        /* \"#utility.yul\":13252:13299   */\n      mstore\n        /* \"#utility.yul\":13316:13447   */\n      tag_521\n        /* \"#utility.yul\":13442:13446   */\n      dup2\n        /* \"#utility.yul\":13316:13447   */\n      tag_375\n      jump\t// in\n    tag_521:\n        /* \"#utility.yul\":13308:13447   */\n      swap1\n      pop\n        /* \"#utility.yul\":13035:13454   */\n      swap2\n      swap1\n      pop\n      jump\t// out\n        /* \"#utility.yul\":13460:13870   */\n    tag_197:\n        /* \"#utility.yul\":13500:13507   */\n      0x00\n        /* \"#utility.yul\":13523:13543   */\n      tag_523\n        /* \"#utility.yul\":13541:13542   */\n      dup3\n        /* \"#utility.yul\":13523:13543   */\n      tag_348\n      jump\t// in\n    tag_523:\n        /* \"#utility.yul\":13518:13543   */\n      swap2\n      pop\n        /* \"#utility.yul\":13557:13577   */\n      tag_524\n        /* \"#utility.yul\":13575:13576   */\n      dup4\n        /* \"#utility.yul\":13557:13577   */\n      tag_348\n      jump\t// in\n    tag_524:\n        /* \"#utility.yul\":13552:13577   */\n      swap3\n      pop\n        /* \"#utility.yul\":13612:13613   */\n      dup3\n        /* \"#utility.yul\":13609:13610   */\n      dup3\n        /* \"#utility.yul\":13605:13614   */\n      mul\n        /* \"#utility.yul\":13634:13664   */\n      tag_525\n        /* \"#utility.yul\":13652:13663   */\n      dup2\n        /* \"#utility.yul\":13634:13664   */\n      tag_348\n      jump\t// in\n    tag_525:\n        /* \"#utility.yul\":13623:13664   */\n      swap2\n      pop\n        /* \"#utility.yul\":13813:13814   */\n      dup3\n        /* \"#utility.yul\":13804:13811   */\n      dup3\n        /* \"#utility.yul\":13800:13815   */\n      div\n        /* \"#utility.yul\":13797:13798   */\n      dup5\n        /* \"#utility.yul\":13794:13816   */\n      eq\n        /* \"#utility.yul\":13774:13775   */\n      dup4\n        /* \"#utility.yul\":13767:13776   */\n      iszero\n        /* \"#utility.yul\":13747:13830   */\n      or\n        /* \"#utility.yul\":13724:13863   */\n      tag_526\n      jumpi\n        /* \"#utility.yul\":13843:13861   */\n      tag_527\n      tag_373\n      jump\t// in\n    tag_527:\n        /* \"#utility.yul\":13724:13863   */\n    tag_526:\n        /* \"#utility.yul\":13508:13870   */\n      pop\n        /* \"#utility.yul\":13460:13870   */\n      swap3\n      swap2\n      pop\n      pop\n      jump\t// out\n        /* \"#utility.yul\":13876:14056   */\n    tag_376:\n        /* \"#utility.yul\":13924:14001   */\n      0x4e487b7100000000000000000000000000000000000000000000000000000000\n        /* \"#utility.yul\":13921:13922   */\n      0x00\n        /* \"#utility.yul\":13914:14002   */\n      mstore\n        /* \"#utility.yul\":14021:14025   */\n      0x12\n        /* \"#utility.yul\":14018:14019   */\n      0x04\n        /* \"#utility.yul\":14011:14026   */\n      mstore\n        /* \"#utility.yul\":14045:14049   */\n      0x24\n        /* \"#utility.yul\":14042:14043   */\n      0x00\n        /* \"#utility.yul\":14035:14050   */\n      revert\n        /* \"#utility.yul\":14062:14247   */\n    tag_199:\n        /* \"#utility.yul\":14102:14103   */\n      0x00\n        /* \"#utility.yul\":14119:14139   */\n      tag_530\n        /* \"#utility.yul\":14137:14138   */\n      dup3\n        /* \"#utility.yul\":14119:14139   */\n      tag_348\n      jump\t// in\n    tag_530:\n        /* \"#utility.yul\":14114:14139   */\n      swap2\n      pop\n        /* \"#utility.yul\":14153:14173   */\n      tag_531\n        /* \"#utility.yul\":14171:14172   */\n      dup4\n        /* \"#utility.yul\":14153:14173   */\n      tag_348\n      jump\t// in\n    tag_531:\n        /* \"#utility.yul\":14148:14173   */\n      swap3\n      pop\n        /* \"#utility.yul\":14192:14193   */\n      dup3\n        /* \"#utility.yul\":14182:14217   */\n      tag_532\n      jumpi\n        /* \"#utility.yul\":14197:14215   */\n      tag_533\n      tag_376\n      jump\t// in\n    tag_533:\n        /* \"#utility.yul\":14182:14217   */\n    tag_532:\n        /* \"#utility.yul\":14239:14240   */\n      dup3\n        /* \"#utility.yul\":14236:14237   */\n      dup3\n        /* \"#utility.yul\":14232:14241   */\n      div\n        /* \"#utility.yul\":14227:14241   */\n      swap1\n      pop\n        /* \"#utility.yul\":14062:14247   */\n      swap3\n      swap2\n      pop\n      pop\n      jump\t// out\n        /* \"#utility.yul\":14253:14447   */\n    tag_201:\n        /* \"#utility.yul\":14293:14297   */\n      0x00\n        /* \"#utility.yul\":14313:14333   */\n      tag_535\n        /* \"#utility.yul\":14331:14332   */\n      dup3\n        /* \"#utility.yul\":14313:14333   */\n      tag_348\n      jump\t// in\n    tag_535:\n        /* \"#utility.yul\":14308:14333   */\n      swap2\n      pop\n        /* \"#utility.yul\":14347:14367   */\n      tag_536\n        /* \"#utility.yul\":14365:14366   */\n      dup4\n        /* \"#utility.yul\":14347:14367   */\n      tag_348\n      jump\t// in\n    tag_536:\n        /* \"#utility.yul\":14342:14367   */\n      swap3\n      pop\n        /* \"#utility.yul\":14391:14392   */\n      dup3\n        /* \"#utility.yul\":14388:14389   */\n      dup3\n        /* \"#utility.yul\":14384:14393   */\n      sub\n        /* \"#utility.yul\":14376:14393   */\n      swap1\n      pop\n        /* \"#utility.yul\":14415:14416   */\n      dup2\n        /* \"#utility.yul\":14409:14413   */\n      dup2\n        /* \"#utility.yul\":14406:14417   */\n      gt\n        /* \"#utility.yul\":14403:14440   */\n      iszero\n      tag_537\n      jumpi\n        /* \"#utility.yul\":14420:14438   */\n      tag_538\n      tag_373\n      jump\t// in\n    tag_538:\n        /* \"#utility.yul\":14403:14440   */\n    tag_537:\n        /* \"#utility.yul\":14253:14447   */\n      swap3\n      swap2\n      pop\n      pop\n      jump\t// out\n        /* \"#utility.yul\":14453:14785   */\n    tag_207:\n        /* \"#utility.yul\":14574:14578   */\n      0x00\n        /* \"#utility.yul\":14612:14614   */\n      0x40\n        /* \"#utility.yul\":14601:14610   */\n      dup3\n        /* \"#utility.yul\":14597:14615   */\n      add\n        /* \"#utility.yul\":14589:14615   */\n      swap1\n      pop\n        /* \"#utility.yul\":14625:14696   */\n      tag_540\n        /* \"#utility.yul\":14693:14694   */\n      0x00\n        /* \"#utility.yul\":14682:14691   */\n      dup4\n        /* \"#utility.yul\":14678:14695   */\n      add\n        /* \"#utility.yul\":14669:14675   */\n      dup6\n        /* \"#utility.yul\":14625:14696   */\n      tag_360\n      jump\t// in\n    tag_540:\n        /* \"#utility.yul\":14706:14778   */\n      tag_541\n        /* \"#utility.yul\":14774:14776   */\n      0x20\n        /* \"#utility.yul\":14763:14772   */\n      dup4\n        /* \"#utility.yul\":14759:14777   */\n      add\n        /* \"#utility.yul\":14750:14756   */\n      dup5\n        /* \"#utility.yul\":14706:14778   */\n      tag_360\n      jump\t// in\n    tag_541:\n        /* \"#utility.yul\":14453:14785   */\n      swap4\n      swap3\n      pop\n      pop\n      pop\n      jump\t// out\n        /* \"#utility.yul\":14791:15233   */\n    tag_230:\n        /* \"#utility.yul\":14940:14944   */\n      0x00\n        /* \"#utility.yul\":14978:14980   */\n      0x60\n        /* \"#utility.yul\":14967:14976   */\n      dup3\n        /* \"#utility.yul\":14963:14981   */\n      add\n        /* \"#utility.yul\":14955:14981   */\n      swap1\n      pop\n        /* \"#utility.yul\":14991:15062   */\n      tag_543\n        /* \"#utility.yul\":15059:15060   */\n      0x00\n        /* \"#utility.yul\":15048:15057   */\n      dup4\n        /* \"#utility.yul\":15044:15061   */\n      add\n        /* \"#utility.yul\":15035:15041   */\n      dup7\n        /* \"#utility.yul\":14991:15062   */\n      tag_360\n      jump\t// in\n    tag_543:\n        /* \"#utility.yul\":15072:15144   */\n      tag_544\n        /* \"#utility.yul\":15140:15142   */\n      0x20\n        /* \"#utility.yul\":15129:15138   */\n      dup4\n        /* \"#utility.yul\":15125:15143   */\n      add\n        /* \"#utility.yul\":15116:15122   */\n      dup6\n        /* \"#utility.yul\":15072:15144   */\n      tag_360\n      jump\t// in\n    tag_544:\n        /* \"#utility.yul\":15154:15226   */\n      tag_545\n        /* \"#utility.yul\":15222:15224   */\n      0x40\n        /* \"#utility.yul\":15211:15220   */\n      dup4\n        /* \"#utility.yul\":15207:15225   */\n      add\n        /* \"#utility.yul\":15198:15204   */\n      dup5\n        /* \"#utility.yul\":15154:15226   */\n      tag_360\n      jump\t// in\n    tag_545:\n        /* \"#utility.yul\":14791:15233   */\n      swap5\n      swap4\n      pop\n      pop\n      pop\n      pop\n      jump\t// out\n        /* \"#utility.yul\":15239:15405   */\n    tag_377:\n        /* \"#utility.yul\":15379:15397   */\n      0x496e76616c696420747265617375727900000000000000000000000000000000\n        /* \"#utility.yul\":15375:15376   */\n      0x00\n        /* \"#utility.yul\":15367:15373   */\n      dup3\n        /* \"#utility.yul\":15363:15377   */\n      add\n        /* \"#utility.yul\":15356:15398   */\n      mstore\n        /* \"#utility.yul\":15239:15405   */\n      pop\n      jump\t// out\n        /* \"#utility.yul\":15411:15777   */\n    tag_378:\n        /* \"#utility.yul\":15553:15556   */\n      0x00\n        /* \"#utility.yul\":15574:15641   */\n      tag_548\n        /* \"#utility.yul\":15638:15640   */\n      0x10\n        /* \"#utility.yul\":15633:15636   */\n      dup4\n        /* \"#utility.yul\":15574:15641   */\n      tag_337\n      jump\t// in\n    tag_548:\n        /* \"#utility.yul\":15567:15641   */\n      swap2\n      pop\n        /* \"#utility.yul\":15650:15743   */\n      tag_549\n        /* \"#utility.yul\":15739:15742   */\n      dup3\n        /* \"#utility.yul\":15650:15743   */\n      tag_377\n      jump\t// in\n    tag_549:\n        /* \"#utility.yul\":15768:15770   */\n      0x20\n        /* \"#utility.yul\":15763:15766   */\n      dup3\n        /* \"#utility.yul\":15759:15771   */\n      add\n        /* \"#utility.yul\":15752:15771   */\n      swap1\n      pop\n        /* \"#utility.yul\":15411:15777   */\n      swap2\n      swap1\n      pop\n      jump\t// out\n        /* \"#utility.yul\":15783:16202   */\n    tag_238:\n        /* \"#utility.yul\":15949:15953   */\n      0x00\n        /* \"#utility.yul\":15987:15989   */\n      0x20\n        /* \"#utility.yul\":15976:15985   */\n      dup3\n        /* \"#utility.yul\":15972:15990   */\n      add\n        /* \"#utility.yul\":15964:15990   */\n      swap1\n      pop\n        /* \"#utility.yul\":16036:16045   */\n      dup2\n        /* \"#utility.yul\":16030:16034   */\n      dup2\n        /* \"#utility.yul\":16026:16046   */\n      sub\n        /* \"#utility.yul\":16022:16023   */\n      0x00\n        /* \"#utility.yul\":16011:16020   */\n      dup4\n        /* \"#utility.yul\":16007:16024   */\n      add\n        /* \"#utility.yul\":16000:16047   */\n      mstore\n        /* \"#utility.yul\":16064:16195   */\n      tag_551\n        /* \"#utility.yul\":16190:16194   */\n      dup2\n        /* \"#utility.yul\":16064:16195   */\n      tag_378\n      jump\t// in\n    tag_551:\n        /* \"#utility.yul\":16056:16195   */\n      swap1\n      pop\n        /* \"#utility.yul\":15783:16202   */\n      swap2\n      swap1\n      pop\n      jump\t// out\n        /* \"#utility.yul\":16208:16650   */\n    tag_255:\n        /* \"#utility.yul\":16357:16361   */\n      0x00\n        /* \"#utility.yul\":16395:16397   */\n      0x60\n        /* \"#utility.yul\":16384:16393   */\n      dup3\n        /* \"#utility.yul\":16380:16398   */\n      add\n        /* \"#utility.yul\":16372:16398   */\n      swap1\n      pop\n        /* \"#utility.yul\":16408:16479   */\n      tag_553\n        /* \"#utility.yul\":16476:16477   */\n      0x00\n        /* \"#utility.yul\":16465:16474   */\n      dup4\n        /* \"#utility.yul\":16461:16478   */\n      add\n        /* \"#utility.yul\":16452:16458   */\n      dup7\n        /* \"#utility.yul\":16408:16479   */\n      tag_363\n      jump\t// in\n    tag_553:\n        /* \"#utility.yul\":16489:16561   */\n      tag_554\n        /* \"#utility.yul\":16557:16559   */\n      0x20\n        /* \"#utility.yul\":16546:16555   */\n      dup4\n        /* \"#utility.yul\":16542:16560   */\n      add\n        /* \"#utility.yul\":16533:16539   */\n      dup6\n        /* \"#utility.yul\":16489:16561   */\n      tag_360\n      jump\t// in\n    tag_554:\n        /* \"#utility.yul\":16571:16643   */\n      tag_555\n        /* \"#utility.yul\":16639:16641   */\n      0x40\n        /* \"#utility.yul\":16628:16637   */\n      dup4\n        /* \"#utility.yul\":16624:16642   */\n      add\n        /* \"#utility.yul\":16615:16621   */\n      dup5\n        /* \"#utility.yul\":16571:16643   */\n      tag_360\n      jump\t// in\n    tag_555:\n        /* \"#utility.yul\":16208:16650   */\n      swap5\n      swap4\n      pop\n      pop\n      pop\n      pop\n      jump\t// out\n        /* \"#utility.yul\":16656:16822   */\n    tag_379:\n        /* \"#utility.yul\":16796:16814   */\n      0x5061757361626c653a2070617573656400000000000000000000000000000000\n        /* \"#utility.yul\":16792:16793   */\n      0x00\n        /* \"#utility.yul\":16784:16790   */\n      dup3\n        /* \"#utility.yul\":16780:16794   */\n      add\n        /* \"#utility.yul\":16773:16815   */\n      mstore\n        /* \"#utility.yul\":16656:16822   */\n      pop\n      jump\t// out\n        /* \"#utility.yul\":16828:17194   */\n    tag_380:\n        /* \"#utility.yul\":16970:16973   */\n      0x00\n        /* \"#utility.yul\":16991:17058   */\n      tag_558\n        /* \"#utility.yul\":17055:17057   */\n      0x10\n        /* \"#utility.yul\":17050:17053   */\n      dup4\n        /* \"#utility.yul\":16991:17058   */\n      tag_337\n      jump\t// in\n    tag_558:\n        /* \"#utility.yul\":16984:17058   */\n      swap2\n      pop\n        /* \"#utility.yul\":17067:17160   */\n      tag_559\n        /* \"#utility.yul\":17156:17159   */\n      dup3\n        /* \"#utility.yul\":17067:17160   */\n      tag_379\n      jump\t// in\n    tag_559:\n        /* \"#utility.yul\":17185:17187   */\n      0x20\n        /* \"#utility.yul\":17180:17183   */\n      dup3\n        /* \"#utility.yul\":17176:17188   */\n      add\n        /* \"#utility.yul\":17169:17188   */\n      swap1\n      pop\n        /* \"#utility.yul\":16828:17194   */\n      swap2\n      swap1\n      pop\n      jump\t// out\n        /* \"#utility.yul\":17200:17619   */\n    tag_286:\n        /* \"#utility.yul\":17366:17370   */\n      0x00\n        /* \"#utility.yul\":17404:17406   */\n      0x20\n        /* \"#utility.yul\":17393:17402   */\n      dup3\n        /* \"#utility.yul\":17389:17407   */\n      add\n        /* \"#utility.yul\":17381:17407   */\n      swap1\n      pop\n        /* \"#utility.yul\":17453:17462   */\n      dup2\n        /* \"#utility.yul\":17447:17451   */\n      dup2\n        /* \"#utility.yul\":17443:17463   */\n      sub\n        /* \"#utility.yul\":17439:17440   */\n      0x00\n        /* \"#utility.yul\":17428:17437   */\n      dup4\n        /* \"#utility.yul\":17424:17441   */\n      add\n        /* \"#utility.yul\":17417:17464   */\n      mstore\n        /* \"#utility.yul\":17481:17612   */\n      tag_561\n        /* \"#utility.yul\":17607:17611   */\n      dup2\n        /* \"#utility.yul\":17481:17612   */\n      tag_380\n      jump\t// in\n    tag_561:\n        /* \"#utility.yul\":17473:17612   */\n      swap1\n      pop\n        /* \"#utility.yul\":17200:17619   */\n      swap2\n      swap1\n      pop\n      jump\t// out\n        /* \"#utility.yul\":17625:17806   */\n    tag_381:\n        /* \"#utility.yul\":17765:17798   */\n      0x5265656e7472616e637947756172643a207265656e7472616e742063616c6c00\n        /* \"#utility.yul\":17761:17762   */\n      0x00\n        /* \"#utility.yul\":17753:17759   */\n      dup3\n        /* \"#utility.yul\":17749:17763   */\n      add\n        /* \"#utility.yul\":17742:17799   */\n      mstore\n        /* \"#utility.yul\":17625:17806   */\n      pop\n      jump\t// out\n        /* \"#utility.yul\":17812:18178   */\n    tag_382:\n        /* \"#utility.yul\":17954:17957   */\n      0x00\n        /* \"#utility.yul\":17975:18042   */\n      tag_564\n        /* \"#utility.yul\":18039:18041   */\n      0x1f\n        /* \"#utility.yul\":18034:18037   */\n      dup4\n        /* \"#utility.yul\":17975:18042   */\n      tag_337\n      jump\t// in\n    tag_564:\n        /* \"#utility.yul\":17968:18042   */\n      swap2\n      pop\n        /* \"#utility.yul\":18051:18144   */\n      tag_565\n        /* \"#utility.yul\":18140:18143   */\n      dup3\n        /* \"#utility.yul\":18051:18144   */\n      tag_381\n      jump\t// in\n    tag_565:\n        /* \"#utility.yul\":18169:18171   */\n      0x20\n        /* \"#utility.yul\":18164:18167   */\n      dup3\n        /* \"#utility.yul\":18160:18172   */\n      add\n        /* \"#utility.yul\":18153:18172   */\n      swap1\n      pop\n        /* \"#utility.yul\":17812:18178   */\n      swap2\n      swap1\n      pop\n      jump\t// out\n        /* \"#utility.yul\":18184:18603   */\n    tag_290:\n        /* \"#utility.yul\":18350:18354   */\n      0x00\n        /* \"#utility.yul\":18388:18390   */\n      0x20\n        /* \"#utility.yul\":18377:18386   */\n      dup3\n        /* \"#utility.yul\":18373:18391   */\n      add\n        /* \"#utility.yul\":18365:18391   */\n      swap1\n      pop\n        /* \"#utility.yul\":18437:18446   */\n      dup2\n        /* \"#utility.yul\":18431:18435   */\n      dup2\n        /* \"#utility.yul\":18427:18447   */\n      sub\n        /* \"#utility.yul\":18423:18424   */\n      0x00\n        /* \"#utility.yul\":18412:18421   */\n      dup4\n        /* \"#utility.yul\":18408:18425   */\n      add\n        /* \"#utility.yul\":18401:18448   */\n      mstore\n        /* \"#utility.yul\":18465:18596   */\n      tag_567\n        /* \"#utility.yul\":18591:18595   */\n      dup2\n        /* \"#utility.yul\":18465:18596   */\n      tag_382\n      jump\t// in\n    tag_567:\n        /* \"#utility.yul\":18457:18596   */\n      swap1\n      pop\n        /* \"#utility.yul\":18184:18603   */\n      swap2\n      swap1\n      pop\n      jump\t// out\n        /* \"#utility.yul\":18609:19051   */\n    tag_294:\n        /* \"#utility.yul\":18758:18762   */\n      0x00\n        /* \"#utility.yul\":18796:18798   */\n      0x60\n        /* \"#utility.yul\":18785:18794   */\n      dup3\n        /* \"#utility.yul\":18781:18799   */\n      add\n        /* \"#utility.yul\":18773:18799   */\n      swap1\n      pop\n        /* \"#utility.yul\":18809:18880   */\n      tag_569\n        /* \"#utility.yul\":18877:18878   */\n      0x00\n        /* \"#utility.yul\":18866:18875   */\n      dup4\n        /* \"#utility.yul\":18862:18879   */\n      add\n        /* \"#utility.yul\":18853:18859   */\n      dup7\n        /* \"#utility.yul\":18809:18880   */\n      tag_363\n      jump\t// in\n    tag_569:\n        /* \"#utility.yul\":18890:18962   */\n      tag_570\n        /* \"#utility.yul\":18958:18960   */\n      0x20\n        /* \"#utility.yul\":18947:18956   */\n      dup4\n        /* \"#utility.yul\":18943:18961   */\n      add\n        /* \"#utility.yul\":18934:18940   */\n      dup6\n        /* \"#utility.yul\":18890:18962   */\n      tag_363\n      jump\t// in\n    tag_570:\n        /* \"#utility.yul\":18972:19044   */\n      tag_571\n        /* \"#utility.yul\":19040:19042   */\n      0x40\n        /* \"#utility.yul\":19029:19038   */\n      dup4\n        /* \"#utility.yul\":19025:19043   */\n      add\n        /* \"#utility.yul\":19016:19022   */\n      dup5\n        /* \"#utility.yul\":18972:19044   */\n      tag_360\n      jump\t// in\n    tag_571:\n        /* \"#utility.yul\":18609:19051   */\n      swap5\n      swap4\n      pop\n      pop\n      pop\n      pop\n      jump\t// out\n        /* \"#utility.yul\":19057:19389   */\n    tag_308:\n        /* \"#utility.yul\":19178:19182   */\n      0x00\n        /* \"#utility.yul\":19216:19218   */\n      0x40\n        /* \"#utility.yul\":19205:19214   */\n      dup3\n        /* \"#utility.yul\":19201:19219   */\n      add\n        /* \"#utility.yul\":19193:19219   */\n      swap1\n      pop\n        /* \"#utility.yul\":19229:19300   */\n      tag_573\n        /* \"#utility.yul\":19297:19298   */\n      0x00\n        /* \"#utility.yul\":19286:19295   */\n      dup4\n        /* \"#utility.yul\":19282:19299   */\n      add\n        /* \"#utility.yul\":19273:19279   */\n      dup6\n        /* \"#utility.yul\":19229:19300   */\n      tag_363\n      jump\t// in\n    tag_573:\n        /* \"#utility.yul\":19310:19382   */\n      tag_574\n        /* \"#utility.yul\":19378:19380   */\n      0x20\n        /* \"#utility.yul\":19367:19376   */\n      dup4\n        /* \"#utility.yul\":19363:19381   */\n      add\n        /* \"#utility.yul\":19354:19360   */\n      dup5\n        /* \"#utility.yul\":19310:19382   */\n      tag_360\n      jump\t// in\n    tag_574:\n        /* \"#utility.yul\":19057:19389   */\n      swap4\n      swap3\n      pop\n      pop\n      pop\n      jump\t// out\n        /* \"#utility.yul\":19395:19565   */\n    tag_383:\n        /* \"#utility.yul\":19535:19557   */\n      0x5061757361626c653a206e6f7420706175736564000000000000000000000000\n        /* \"#utility.yul\":19531:19532   */\n      0x00\n        /* \"#utility.yul\":19523:19529   */\n      dup3\n        /* \"#utility.yul\":19519:19533   */\n      add\n        /* \"#utility.yul\":19512:19558   */\n      mstore\n        /* \"#utility.yul\":19395:19565   */\n      pop\n      jump\t// out\n        /* \"#utility.yul\":19571:19937   */\n    tag_384:\n        /* \"#utility.yul\":19713:19716   */\n      0x00\n        /* \"#utility.yul\":19734:19801   */\n      tag_577\n        /* \"#utility.yul\":19798:19800   */\n      0x14\n        /* \"#utility.yul\":19793:19796   */\n      dup4\n        /* \"#utility.yul\":19734:19801   */\n      tag_337\n      jump\t// in\n    tag_577:\n        /* \"#utility.yul\":19727:19801   */\n      swap2\n      pop\n        /* \"#utility.yul\":19810:19903   */\n      tag_578\n        /* \"#utility.yul\":19899:19902   */\n      dup3\n        /* \"#utility.yul\":19810:19903   */\n      tag_383\n      jump\t// in\n    tag_578:\n        /* \"#utility.yul\":19928:19930   */\n      0x20\n        /* \"#utility.yul\":19923:19926   */\n      dup3\n        /* \"#utility.yul\":19919:19931   */\n      add\n        /* \"#utility.yul\":19912:19931   */\n      swap1\n      pop\n        /* \"#utility.yul\":19571:19937   */\n      swap2\n      swap1\n      pop\n      jump\t// out\n        /* \"#utility.yul\":19943:20362   */\n    tag_329:\n        /* \"#utility.yul\":20109:20113   */\n      0x00\n        /* \"#utility.yul\":20147:20149   */\n      0x20\n        /* \"#utility.yul\":20136:20145   */\n      dup3\n        /* \"#utility.yul\":20132:20150   */\n      add\n        /* \"#utility.yul\":20124:20150   */\n      swap1\n      pop\n        /* \"#utility.yul\":20196:20205   */\n      dup2\n        /* \"#utility.yul\":20190:20194   */\n      dup2\n        /* \"#utility.yul\":20186:20206   */\n      sub\n        /* \"#utility.yul\":20182:20183   */\n      0x00\n        /* \"#utility.yul\":20171:20180   */\n      dup4\n        /* \"#utility.yul\":20167:20184   */\n      add\n        /* \"#utility.yul\":20160:20207   */\n      mstore\n        /* \"#utility.yul\":20224:20355   */\n      tag_580\n        /* \"#utility.yul\":20350:20354   */\n      dup2\n        /* \"#utility.yul\":20224:20355   */\n      tag_384\n      jump\t// in\n    tag_580:\n        /* \"#utility.yul\":20216:20355   */\n      swap1\n      pop\n        /* \"#utility.yul\":19943:20362   */\n      swap2\n      swap1\n      pop\n      jump\t// out\n\n    auxdata: 0xa264697066735822122078a243665dadd9c7bff54dc5b192d101192b6720b707f1b847b4dd41c79c7d8a64736f6c634300081a0033\n}\n",
				"bytecode": {
					"linkReferences": {},
					"object": "60a060405234801561000f575f80fd5b50604051612d9a380380612d9a833981810160405281019061003191906104e7565b336040518060400160405280600a81526020017f5061646920546f6b656e000000000000000000000000000000000000000000008152506040518060400160405280600481526020017f504144490000000000000000000000000000000000000000000000000000000081525081600390816100ad9190610785565b5080600490816100bd9190610785565b5050505f73ffffffffffffffffffffffffffffffffffffffff168173ffffffffffffffffffffffffffffffffffffffff1603610130575f6040517f1e4fbdf70000000000000000000000000000000000000000000000000000000081526004016101279190610863565b60405180910390fd5b61013f8161038f60201b60201c565b505f600560146101000a81548160ff02191690831515021790555060016006819055505f73ffffffffffffffffffffffffffffffffffffffff168473ffffffffffffffffffffffffffffffffffffffff16036101d0576040517f08c379a00000000000000000000000000000000000000000000000000000000081526004016101c7906108d6565b60405180910390fd5b5f73ffffffffffffffffffffffffffffffffffffffff168373ffffffffffffffffffffffffffffffffffffffff160361023e576040517f08c379a00000000000000000000000000000000000000000000000000000000081526004016102359061093e565b60405180910390fd5b61271061ffff168261ffff16111561028b576040517f08c379a0000000000000000000000000000000000000000000000000000000008152600401610282906109a6565b60405180910390fd5b61271061ffff168161ffff1611156102d8576040517f08c379a00000000000000000000000000000000000000000000000000000000081526004016102cf90610a0e565b60405180910390fd5b8373ffffffffffffffffffffffffffffffffffffffff1660808173ffffffffffffffffffffffffffffffffffffffff16815250508260075f6101000a81548173ffffffffffffffffffffffffffffffffffffffff021916908373ffffffffffffffffffffffffffffffffffffffff16021790555081600760146101000a81548161ffff021916908361ffff16021790555080600760166101000a81548161ffff021916908361ffff16021790555050505050610a2c565b5f60055f9054906101000a900473ffffffffffffffffffffffffffffffffffffffff1690508160055f6101000a81548173ffffffffffffffffffffffffffffffffffffffff021916908373ffffffffffffffffffffffffffffffffffffffff1602179055508173ffffffffffffffffffffffffffffffffffffffff168173ffffffffffffffffffffffffffffffffffffffff167f8be0079c531659141344cd1fd0a4f28419497f9722a3daafe3b4186f6b6457e060405160405180910390a35050565b5f80fd5b5f73ffffffffffffffffffffffffffffffffffffffff82169050919050565b5f61047f82610456565b9050919050565b61048f81610475565b8114610499575f80fd5b50565b5f815190506104aa81610486565b92915050565b5f61ffff82169050919050565b6104c6816104b0565b81146104d0575f80fd5b50565b5f815190506104e1816104bd565b92915050565b5f805f80608085870312156104ff576104fe610452565b5b5f61050c8782880161049c565b945050602061051d8782880161049c565b935050604061052e878288016104d3565b925050606061053f878288016104d3565b91505092959194509250565b5f81519050919050565b7f4e487b71000000000000000000000000000000000000000000000000000000005f52604160045260245ffd5b7f4e487b71000000000000000000000000000000000000000000000000000000005f52602260045260245ffd5b5f60028204905060018216806105c657607f821691505b6020821081036105d9576105d8610582565b5b50919050565b5f819050815f5260205f209050919050565b5f6020601f8301049050919050565b5f82821b905092915050565b5f6008830261063b7fffffffffffffffffffffffffffffffffffffffffffffffffffffffffffffffff82610600565b6106458683610600565b95508019841693508086168417925050509392505050565b5f819050919050565b5f819050919050565b5f61068961068461067f8461065d565b610666565b61065d565b9050919050565b5f819050919050565b6106a28361066f565b6106b66106ae82610690565b84845461060c565b825550505050565b5f90565b6106ca6106be565b6106d5818484610699565b505050565b5b818110156106f8576106ed5f826106c2565b6001810190506106db565b5050565b601f82111561073d5761070e816105df565b610717846105f1565b81016020851015610726578190505b61073a610732856105f1565b8301826106da565b50505b505050565b5f82821c905092915050565b5f61075d5f1984600802610742565b1980831691505092915050565b5f610775838361074e565b9150826002028217905092915050565b61078e8261054b565b67ffffffffffffffff8111156107a7576107a6610555565b5b6107b182546105af565b6107bc8282856106fc565b5f60209050601f8311600181146107ed575f84156107db578287015190505b6107e5858261076a565b86555061084c565b601f1984166107fb866105df565b5f5b82811015610822578489015182556001820191506020850194506020810190506107fd565b8683101561083f578489015161083b601f89168261074e565b8355505b6001600288020188555050505b505050505050565b61085d81610475565b82525050565b5f6020820190506108765f830184610854565b92915050565b5f82825260208201905092915050565b7f496e76616c6964204355534420616464726573730000000000000000000000005f82015250565b5f6108c060148361087c565b91506108cb8261088c565b602082019050919050565b5f6020820190508181035f8301526108ed816108b4565b9050919050565b7f496e76616c6964207472656173757279000000000000000000000000000000005f82015250565b5f61092860108361087c565b9150610933826108f4565b602082019050919050565b5f6020820190508181035f8301526109558161091c565b9050919050565b7f4d696e742066656520746f6f20686967680000000000000000000000000000005f82015250565b5f61099060118361087c565b915061099b8261095c565b602082019050919050565b5f6020820190508181035f8301526109bd81610984565b9050919050565b7f52656465656d2066656520746f6f2068696768000000000000000000000000005f82015250565b5f6109f860138361087c565b9150610a03826109c4565b602082019050919050565b5f6020820190508181035f830152610a25816109ec565b9050919050565b608051612341610a595f395f818161053f0152818161090701528181610af20152610b6601526123415ff3fe608060405234801561000f575f80fd5b5060043610610171575f3560e01c8063715018a6116100dc578063a0712d6811610095578063dd62ed3e1161006f578063dd62ed3e146103f1578063f0f4426014610421578063f2fde38b1461043d578063fd967f471461045957610171565b8063a0712d6814610389578063a9059cbb146103a5578063db006a75146103d557610171565b8063715018a6146102ff5780638456cb59146103095780638da5cb5b1461031357806395d89b411461033157806397c8bcc11461034f5780639ef833d41461036d57610171565b8063313ce5671161012e578063313ce5671461024d57806332cb6b0c1461026b5780633f4ba83a146102895780635c975abb1461029357806361d027b3146102b157806370a08231146102cf57610171565b806306fdde0314610175578063095ea7b31461019357806309f6442c146101c35780630c577bdc146101e157806318160ddd146101ff57806323b872dd1461021d575b5f80fd5b61017d610477565b60405161018a919061198e565b60405180910390f35b6101ad60048036038101906101a89190611a3f565b610507565b6040516101ba9190611a97565b60405180910390f35b6101cb610529565b6040516101d89190611acc565b60405180910390f35b6101e961053d565b6040516101f69190611b40565b60405180910390f35b610207610561565b6040516102149190611b68565b60405180910390f35b61023760048036038101906102329190611b81565b61056a565b6040516102449190611a97565b60405180910390f35b610255610598565b6040516102629190611bec565b60405180910390f35b6102736105a0565b6040516102809190611b68565b60405180910390f35b6102916105b0565b005b61029b6105c2565b6040516102a89190611a97565b60405180910390f35b6102b96105d8565b6040516102c69190611c14565b60405180910390f35b6102e960048036038101906102e49190611c2d565b6105fd565b6040516102f69190611b68565b60405180910390f35b610307610642565b005b610311610655565b005b61031b610667565b6040516103289190611c14565b60405180910390f35b61033961068f565b604051610346919061198e565b60405180910390f35b61035761071f565b6040516103649190611acc565b60405180910390f35b61038760048036038101906103829190611c82565b610733565b005b6103a3600480360381019061039e9190611cc0565b61084c565b005b6103bf60048036038101906103ba9190611a3f565b610a2a565b6040516103cc9190611a97565b60405180910390f35b6103ef60048036038101906103ea9190611cc0565b610a4c565b005b61040b60048036038101906104069190611ceb565b610c0a565b6040516104189190611b68565b60405180910390f35b61043b60048036038101906104369190611c2d565b610c8c565b005b61045760048036038101906104529190611c2d565b610d7c565b005b610461610e00565b60405161046e9190611acc565b60405180910390f35b60606003805461048690611d56565b80601f01602080910402602001604051908101604052809291908181526020018280546104b290611d56565b80156104fd5780601f106104d4576101008083540402835291602001916104fd565b820191905f5260205f20905b8154815290600101906020018083116104e057829003601f168201915b5050505050905090565b5f80610511610e06565b905061051e818585610e0d565b600191505092915050565b600760169054906101000a900461ffff1681565b7f000000000000000000000000000000000000000000000000000000000000000081565b5f600254905090565b5f80610574610e06565b9050610581858285610e1f565b61058c858585610eb1565b60019150509392505050565b5f6012905090565b6b033b2e3c9fd0803ce800000081565b6105b8610fa1565b6105c0611028565b565b5f600560149054906101000a900460ff16905090565b60075f9054906101000a900473ffffffffffffffffffffffffffffffffffffffff1681565b5f805f8373ffffffffffffffffffffffffffffffffffffffff1673ffffffffffffffffffffffffffffffffffffffff1681526020019081526020015f20549050919050565b61064a610fa1565b6106535f61108a565b565b61065d610fa1565b61066561114d565b565b5f60055f9054906101000a900473ffffffffffffffffffffffffffffffffffffffff16905090565b60606004805461069e90611d56565b80601f01602080910402602001604051908101604052809291908181526020018280546106ca90611d56565b80156107155780601f106106ec57610100808354040283529160200191610715565b820191905f5260205f20905b8154815290600101906020018083116106f857829003601f168201915b5050505050905090565b600760149054906101000a900461ffff1681565b61073b610fa1565b61271061ffff168261ffff161115610788576040517f08c379a000000000000000000000000000000000000000000000000000000000815260040161077f90611dd0565b60405180910390fd5b61271061ffff168161ffff1611156107d5576040517f08c379a00000000000000000000000000000000000000000000000000000000081526004016107cc90611e38565b60405180910390fd5b81600760146101000a81548161ffff021916908361ffff16021790555080600760166101000a81548161ffff021916908361ffff1602179055507f2ac80c14c28700f7b5e36f947d572149fe2e3947bac32c3a8c098f3e03722c118282604051610840929190611e56565b60405180910390a15050565b6108546111b0565b61085c6111fa565b5f811161089e576040517f08c379a000000000000000000000000000000000000000000000000000000000815260040161089590611ec7565b60405180910390fd5b6b033b2e3c9fd0803ce8000000816108b4610561565b6108be9190611f12565b11156108ff576040517f08c379a00000000000000000000000000000000000000000000000000000000081526004016108f690611f8f565b60405180910390fd5b61094c3330837f000000000000000000000000000000000000000000000000000000000000000073ffffffffffffffffffffffffffffffffffffffff16611249909392919063ffffffff16565b5f61271061ffff16600760149054906101000a900461ffff1661ffff16836109749190611fad565b61097e919061201b565b90505f818361098d919061204b565b905061099933826112cb565b5f8211156109cd576109cc60075f9054906101000a900473ffffffffffffffffffffffffffffffffffffffff16836112cb565b5b3373ffffffffffffffffffffffffffffffffffffffff167f25b428dfde728ccfaddad7e29e4ac23c24ed7fd1a6e3e3f91894a9a073f5dfff8284604051610a1592919061207e565b60405180910390a25050610a2761134a565b50565b5f80610a34610e06565b9050610a41818585610eb1565b600191505092915050565b610a546111b0565b610a5c6111fa565b5f8111610a9e576040517f08c379a0000000000000000000000000000000000000000000000000000000008152600401610a9590611ec7565b60405180910390fd5b5f61271061ffff16600760169054906101000a900461ffff1661ffff1683610ac69190611fad565b610ad0919061201b565b90505f8183610adf919061204b565b9050610aeb3384611354565b610b3633827f000000000000000000000000000000000000000000000000000000000000000073ffffffffffffffffffffffffffffffffffffffff166113d39092919063ffffffff16565b5f821115610bab57610baa60075f9054906101000a900473ffffffffffffffffffffffffffffffffffffffff16837f000000000000000000000000000000000000000000000000000000000000000073ffffffffffffffffffffffffffffffffffffffff166113d39092919063ffffffff16565b5b3373ffffffffffffffffffffffffffffffffffffffff167f484c40561359f3e3b8be9101897f8680aa82fbe1df9fd9038e0dbc6284032646848385604051610bf5939291906120a5565b60405180910390a25050610c0761134a565b50565b5f60015f8473ffffffffffffffffffffffffffffffffffffffff1673ffffffffffffffffffffffffffffffffffffffff1681526020019081526020015f205f8373ffffffffffffffffffffffffffffffffffffffff1673ffffffffffffffffffffffffffffffffffffffff1681526020019081526020015f2054905092915050565b610c94610fa1565b5f73ffffffffffffffffffffffffffffffffffffffff168173ffffffffffffffffffffffffffffffffffffffff1603610d02576040517f08c379a0000000000000000000000000000000000000000000000000000000008152600401610cf990612124565b60405180910390fd5b8060075f6101000a81548173ffffffffffffffffffffffffffffffffffffffff021916908373ffffffffffffffffffffffffffffffffffffffff1602179055507f7dae230f18360d76a040c81f050aa14eb9d6dc7901b20fc5d855e2a20fe814d181604051610d719190611c14565b60405180910390a150565b610d84610fa1565b5f73ffffffffffffffffffffffffffffffffffffffff168173ffffffffffffffffffffffffffffffffffffffff1603610df4575f6040517f1e4fbdf7000000000000000000000000000000000000000000000000000000008152600401610deb9190611c14565b60405180910390fd5b610dfd8161108a565b50565b61271081565b5f33905090565b610e1a8383836001611452565b505050565b5f610e2a8484610c0a565b90507fffffffffffffffffffffffffffffffffffffffffffffffffffffffffffffffff8114610eab5781811015610e9c578281836040517ffb8f41b2000000000000000000000000000000000000000000000000000000008152600401610e9393929190612142565b60405180910390fd5b610eaa84848484035f611452565b5b50505050565b5f73ffffffffffffffffffffffffffffffffffffffff168373ffffffffffffffffffffffffffffffffffffffff1603610f21575f6040517f96c6fd1e000000000000000000000000000000000000000000000000000000008152600401610f189190611c14565b60405180910390fd5b5f73ffffffffffffffffffffffffffffffffffffffff168273ffffffffffffffffffffffffffffffffffffffff1603610f91575f6040517fec442f05000000000000000000000000000000000000000000000000000000008152600401610f889190611c14565b60405180910390fd5b610f9c838383611621565b505050565b610fa9610e06565b73ffffffffffffffffffffffffffffffffffffffff16610fc7610667565b73ffffffffffffffffffffffffffffffffffffffff161461102657610fea610e06565b6040517f118cdaa700000000000000000000000000000000000000000000000000000000815260040161101d9190611c14565b60405180910390fd5b565b61103061183a565b5f600560146101000a81548160ff0219169083151502179055507f5db9ee0a495bf2e6ff9c91a7834c1ba4fdd244a5e8aa4e537bd38aeae4b073aa611073610e06565b6040516110809190611c14565b60405180910390a1565b5f60055f9054906101000a900473ffffffffffffffffffffffffffffffffffffffff1690508160055f6101000a81548173ffffffffffffffffffffffffffffffffffffffff021916908373ffffffffffffffffffffffffffffffffffffffff1602179055508173ffffffffffffffffffffffffffffffffffffffff168173ffffffffffffffffffffffffffffffffffffffff167f8be0079c531659141344cd1fd0a4f28419497f9722a3daafe3b4186f6b6457e060405160405180910390a35050565b6111556111b0565b6001600560146101000a81548160ff0219169083151502179055507f62e78cea01bee320cd4e420270b5ea74000d11b0c9f74754ebdbfc544b05a258611199610e06565b6040516111a69190611c14565b60405180910390a1565b6111b86105c2565b156111f8576040517f08c379a00000000000000000000000000000000000000000000000000000000081526004016111ef906121c1565b60405180910390fd5b565b60026006540361123f576040517f08c379a000000000000000000000000000000000000000000000000000000000815260040161123690612229565b60405180910390fd5b6002600681905550565b6112c5848573ffffffffffffffffffffffffffffffffffffffff166323b872dd86868660405160240161127e93929190612247565b604051602081830303815290604052915060e01b6020820180517bffffffffffffffffffffffffffffffffffffffffffffffffffffffff8381831617835250505050611883565b50505050565b5f73ffffffffffffffffffffffffffffffffffffffff168273ffffffffffffffffffffffffffffffffffffffff160361133b575f6040517fec442f050000000000000000000000000000000000000000000000000000000081526004016113329190611c14565b60405180910390fd5b6113465f8383611621565b5050565b6001600681905550565b5f73ffffffffffffffffffffffffffffffffffffffff168273ffffffffffffffffffffffffffffffffffffffff16036113c4575f6040517f96c6fd1e0000000000000000000000000000000000000000000000000000000081526004016113bb9190611c14565b60405180910390fd5b6113cf825f83611621565b5050565b61144d838473ffffffffffffffffffffffffffffffffffffffff1663a9059cbb858560405160240161140692919061227c565b604051602081830303815290604052915060e01b6020820180517bffffffffffffffffffffffffffffffffffffffffffffffffffffffff8381831617835250505050611883565b505050565b5f73ffffffffffffffffffffffffffffffffffffffff168473ffffffffffffffffffffffffffffffffffffffff16036114c2575f6040517fe602df050000000000000000000000000000000000000000000000000000000081526004016114b99190611c14565b60405180910390fd5b5f73ffffffffffffffffffffffffffffffffffffffff168373ffffffffffffffffffffffffffffffffffffffff1603611532575f6040517f94280d620000000000000000000000000000000000000000000000000000000081526004016115299190611c14565b60405180910390fd5b8160015f8673ffffffffffffffffffffffffffffffffffffffff1673ffffffffffffffffffffffffffffffffffffffff1681526020019081526020015f205f8573ffffffffffffffffffffffffffffffffffffffff1673ffffffffffffffffffffffffffffffffffffffff1681526020019081526020015f2081905550801561161b578273ffffffffffffffffffffffffffffffffffffffff168473ffffffffffffffffffffffffffffffffffffffff167f8c5be1e5ebec7d5bd14f71427d1e84f3dd0314c0f7b2291e5b200ac8c7c3b925846040516116129190611b68565b60405180910390a35b50505050565b5f73ffffffffffffffffffffffffffffffffffffffff168373ffffffffffffffffffffffffffffffffffffffff1603611671578060025f8282546116659190611f12565b9250508190555061173f565b5f805f8573ffffffffffffffffffffffffffffffffffffffff1673ffffffffffffffffffffffffffffffffffffffff1681526020019081526020015f20549050818110156116fa578381836040517fe450d38c0000000000000000000000000000000000000000000000000000000081526004016116f193929190612142565b60405180910390fd5b8181035f808673ffffffffffffffffffffffffffffffffffffffff1673ffffffffffffffffffffffffffffffffffffffff1681526020019081526020015f2081905550505b5f73ffffffffffffffffffffffffffffffffffffffff168273ffffffffffffffffffffffffffffffffffffffff1603611786578060025f82825403925050819055506117d0565b805f808473ffffffffffffffffffffffffffffffffffffffff1673ffffffffffffffffffffffffffffffffffffffff1681526020019081526020015f205f82825401925050819055505b8173ffffffffffffffffffffffffffffffffffffffff168373ffffffffffffffffffffffffffffffffffffffff167fddf252ad1be2c89b69c2b068fc378daa952ba7f163c4a11628f55a4df523b3ef8360405161182d9190611b68565b60405180910390a3505050565b6118426105c2565b611881576040517f08c379a0000000000000000000000000000000000000000000000000000000008152600401611878906122ed565b60405180910390fd5b565b5f8060205f8451602086015f885af1806118a2576040513d5f823e3d81fd5b3d92505f519150505f82146118bb5760018114156118d6565b5f8473ffffffffffffffffffffffffffffffffffffffff163b145b1561191857836040517f5274afe700000000000000000000000000000000000000000000000000000000815260040161190f9190611c14565b60405180910390fd5b50505050565b5f81519050919050565b5f82825260208201905092915050565b8281835e5f83830152505050565b5f601f19601f8301169050919050565b5f6119608261191e565b61196a8185611928565b935061197a818560208601611938565b61198381611946565b840191505092915050565b5f6020820190508181035f8301526119a68184611956565b905092915050565b5f80fd5b5f73ffffffffffffffffffffffffffffffffffffffff82169050919050565b5f6119db826119b2565b9050919050565b6119eb816119d1565b81146119f5575f80fd5b50565b5f81359050611a06816119e2565b92915050565b5f819050919050565b611a1e81611a0c565b8114611a28575f80fd5b50565b5f81359050611a3981611a15565b92915050565b5f8060408385031215611a5557611a546119ae565b5b5f611a62858286016119f8565b9250506020611a7385828601611a2b565b9150509250929050565b5f8115159050919050565b611a9181611a7d565b82525050565b5f602082019050611aaa5f830184611a88565b92915050565b5f61ffff82169050919050565b611ac681611ab0565b82525050565b5f602082019050611adf5f830184611abd565b92915050565b5f819050919050565b5f611b08611b03611afe846119b2565b611ae5565b6119b2565b9050919050565b5f611b1982611aee565b9050919050565b5f611b2a82611b0f565b9050919050565b611b3a81611b20565b82525050565b5f602082019050611b535f830184611b31565b92915050565b611b6281611a0c565b82525050565b5f602082019050611b7b5f830184611b59565b92915050565b5f805f60608486031215611b9857611b976119ae565b5b5f611ba5868287016119f8565b9350506020611bb6868287016119f8565b9250506040611bc786828701611a2b565b9150509250925092565b5f60ff82169050919050565b611be681611bd1565b82525050565b5f602082019050611bff5f830184611bdd565b92915050565b611c0e816119d1565b82525050565b5f602082019050611c275f830184611c05565b92915050565b5f60208284031215611c4257611c416119ae565b5b5f611c4f848285016119f8565b91505092915050565b611c6181611ab0565b8114611c6b575f80fd5b50565b5f81359050611c7c81611c58565b92915050565b5f8060408385031215611c9857611c976119ae565b5b5f611ca585828601611c6e565b9250506020611cb685828601611c6e565b9150509250929050565b5f60208284031215611cd557611cd46119ae565b5b5f611ce284828501611a2b565b91505092915050565b5f8060408385031215611d0157611d006119ae565b5b5f611d0e858286016119f8565b9250506020611d1f858286016119f8565b9150509250929050565b7f4e487b71000000000000000000000000000000000000000000000000000000005f52602260045260245ffd5b5f6002820490506001821680611d6d57607f821691505b602082108103611d8057611d7f611d29565b5b50919050565b7f4d696e742066656520746f6f20686967680000000000000000000000000000005f82015250565b5f611dba601183611928565b9150611dc582611d86565b602082019050919050565b5f6020820190508181035f830152611de781611dae565b9050919050565b7f52656465656d2066656520746f6f2068696768000000000000000000000000005f82015250565b5f611e22601383611928565b9150611e2d82611dee565b602082019050919050565b5f6020820190508181035f830152611e4f81611e16565b9050919050565b5f604082019050611e695f830185611abd565b611e766020830184611abd565b9392505050565b7f416d6f756e74206d757374206265203e203000000000000000000000000000005f82015250565b5f611eb1601283611928565b9150611ebc82611e7d565b602082019050919050565b5f6020820190508181035f830152611ede81611ea5565b9050919050565b7f4e487b71000000000000000000000000000000000000000000000000000000005f52601160045260245ffd5b5f611f1c82611a0c565b9150611f2783611a0c565b9250828201905080821115611f3f57611f3e611ee5565b5b92915050565b7f45786365656473206d617820737570706c7900000000000000000000000000005f82015250565b5f611f79601283611928565b9150611f8482611f45565b602082019050919050565b5f6020820190508181035f830152611fa681611f6d565b9050919050565b5f611fb782611a0c565b9150611fc283611a0c565b9250828202611fd081611a0c565b91508282048414831517611fe757611fe6611ee5565b5b5092915050565b7f4e487b71000000000000000000000000000000000000000000000000000000005f52601260045260245ffd5b5f61202582611a0c565b915061203083611a0c565b9250826120405761203f611fee565b5b828204905092915050565b5f61205582611a0c565b915061206083611a0c565b925082820390508181111561207857612077611ee5565b5b92915050565b5f6040820190506120915f830185611b59565b61209e6020830184611b59565b9392505050565b5f6060820190506120b85f830186611b59565b6120c56020830185611b59565b6120d26040830184611b59565b949350505050565b7f496e76616c6964207472656173757279000000000000000000000000000000005f82015250565b5f61210e601083611928565b9150612119826120da565b602082019050919050565b5f6020820190508181035f83015261213b81612102565b9050919050565b5f6060820190506121555f830186611c05565b6121626020830185611b59565b61216f6040830184611b59565b949350505050565b7f5061757361626c653a20706175736564000000000000000000000000000000005f82015250565b5f6121ab601083611928565b91506121b682612177565b602082019050919050565b5f6020820190508181035f8301526121d88161219f565b9050919050565b7f5265656e7472616e637947756172643a207265656e7472616e742063616c6c005f82015250565b5f612213601f83611928565b915061221e826121df565b602082019050919050565b5f6020820190508181035f83015261224081612207565b9050919050565b5f60608201905061225a5f830186611c05565b6122676020830185611c05565b6122746040830184611b59565b949350505050565b5f60408201905061228f5f830185611c05565b61229c6020830184611b59565b9392505050565b7f5061757361626c653a206e6f74207061757365640000000000000000000000005f82015250565b5f6122d7601483611928565b91506122e2826122a3565b602082019050919050565b5f6020820190508181035f830152612304816122cb565b905091905056fea264697066735822122078a243665dadd9c7bff54dc5b192d101192b6720b707f1b847b4dd41c79c7d8a64736f6c634300081a0033",
					"opcodes": "PUSH1 0xA0 PUSH1 0x40 MSTORE CALLVALUE DUP1 ISZERO PUSH2 0xF JUMPI PUSH0 DUP1 REVERT JUMPDEST POP PUSH1 0x40 MLOAD PUSH2 0x2D9A CODESIZE SUB DUP1 PUSH2 0x2D9A DUP4 CODECOPY DUP2 DUP2 ADD PUSH1 0x40 MSTORE DUP2 ADD SWAP1 PUSH2 0x31 SWAP2 SWAP1 PUSH2 0x4E7 JUMP JUMPDEST CALLER PUSH1 0x40 MLOAD DUP1 PUSH1 0x40 ADD PUSH1 0x40 MSTORE DUP1 PUSH1 0xA DUP2 MSTORE PUSH1 0x20 ADD PUSH32 0x5061646920546F6B656E00000000000000000000000000000000000000000000 DUP2 MSTORE POP PUSH1 0x40 MLOAD DUP1 PUSH1 0x40 ADD PUSH1 0x40 MSTORE DUP1 PUSH1 0x4 DUP2 MSTORE PUSH1 0x20 ADD PUSH32 0x5041444900000000000000000000000000000000000000000000000000000000 DUP2 MSTORE POP DUP2 PUSH1 0x3 SWAP1 DUP2 PUSH2 0xAD SWAP2 SWAP1 PUSH2 0x785 JUMP JUMPDEST POP DUP1 PUSH1 0x4 SWAP1 DUP2 PUSH2 0xBD SWAP2 SWAP1 PUSH2 0x785 JUMP JUMPDEST POP POP POP PUSH0 PUSH20 0xFFFFFFFFFFFFFFFFFFFFFFFFFFFFFFFFFFFFFFFF AND DUP2 PUSH20 0xFFFFFFFFFFFFFFFFFFFFFFFFFFFFFFFFFFFFFFFF AND SUB PUSH2 0x130 JUMPI PUSH0 PUSH1 0x40 MLOAD PUSH32 0x1E4FBDF700000000000000000000000000000000000000000000000000000000 DUP2 MSTORE PUSH1 0x4 ADD PUSH2 0x127 SWAP2 SWAP1 PUSH2 0x863 JUMP JUMPDEST PUSH1 0x40 MLOAD DUP1 SWAP2 SUB SWAP1 REVERT JUMPDEST PUSH2 0x13F DUP2 PUSH2 0x38F PUSH1 0x20 SHL PUSH1 0x20 SHR JUMP JUMPDEST POP PUSH0 PUSH1 0x5 PUSH1 0x14 PUSH2 0x100 EXP DUP2 SLOAD DUP2 PUSH1 0xFF MUL NOT AND SWAP1 DUP4 ISZERO ISZERO MUL OR SWAP1 SSTORE POP PUSH1 0x1 PUSH1 0x6 DUP2 SWAP1 SSTORE POP PUSH0 PUSH20 0xFFFFFFFFFFFFFFFFFFFFFFFFFFFFFFFFFFFFFFFF AND DUP5 PUSH20 0xFFFFFFFFFFFFFFFFFFFFFFFFFFFFFFFFFFFFFFFF AND SUB PUSH2 0x1D0 JUMPI PUSH1 0x40 MLOAD PUSH32 0x8C379A000000000000000000000000000000000000000000000000000000000 DUP2 MSTORE PUSH1 0x4 ADD PUSH2 0x1C7 SWAP1 PUSH2 0x8D6 JUMP JUMPDEST PUSH1 0x40 MLOAD DUP1 SWAP2 SUB SWAP1 REVERT JUMPDEST PUSH0 PUSH20 0xFFFFFFFFFFFFFFFFFFFFFFFFFFFFFFFFFFFFFFFF AND DUP4 PUSH20 0xFFFFFFFFFFFFFFFFFFFFFFFFFFFFFFFFFFFFFFFF AND SUB PUSH2 0x23E JUMPI PUSH1 0x40 MLOAD PUSH32 0x8C379A000000000000000000000000000000000000000000000000000000000 DUP2 MSTORE PUSH1 0x4 ADD PUSH2 0x235 SWAP1 PUSH2 0x93E JUMP JUMPDEST PUSH1 0x40 MLOAD DUP1 SWAP2 SUB SWAP1 REVERT JUMPDEST PUSH2 0x2710 PUSH2 0xFFFF AND DUP3 PUSH2 0xFFFF AND GT ISZERO PUSH2 0x28B JUMPI PUSH1 0x40 MLOAD PUSH32 0x8C379A000000000000000000000000000000000000000000000000000000000 DUP2 MSTORE PUSH1 0x4 ADD PUSH2 0x282 SWAP1 PUSH2 0x9A6 JUMP JUMPDEST PUSH1 0x40 MLOAD DUP1 SWAP2 SUB SWAP1 REVERT JUMPDEST PUSH2 0x2710 PUSH2 0xFFFF AND DUP2 PUSH2 0xFFFF AND GT ISZERO PUSH2 0x2D8 JUMPI PUSH1 0x40 MLOAD PUSH32 0x8C379A000000000000000000000000000000000000000000000000000000000 DUP2 MSTORE PUSH1 0x4 ADD PUSH2 0x2CF SWAP1 PUSH2 0xA0E JUMP JUMPDEST PUSH1 0x40 MLOAD DUP1 SWAP2 SUB SWAP1 REVERT JUMPDEST DUP4 PUSH20 0xFFFFFFFFFFFFFFFFFFFFFFFFFFFFFFFFFFFFFFFF AND PUSH1 0x80 DUP2 PUSH20 0xFFFFFFFFFFFFFFFFFFFFFFFFFFFFFFFFFFFFFFFF AND DUP2 MSTORE POP POP DUP3 PUSH1 0x7 PUSH0 PUSH2 0x100 EXP DUP2 SLOAD DUP2 PUSH20 0xFFFFFFFFFFFFFFFFFFFFFFFFFFFFFFFFFFFFFFFF MUL NOT AND SWAP1 DUP4 PUSH20 0xFFFFFFFFFFFFFFFFFFFFFFFFFFFFFFFFFFFFFFFF AND MUL OR SWAP1 SSTORE POP DUP2 PUSH1 0x7 PUSH1 0x14 PUSH2 0x100 EXP DUP2 SLOAD DUP2 PUSH2 0xFFFF MUL NOT AND SWAP1 DUP4 PUSH2 0xFFFF AND MUL OR SWAP1 SSTORE POP DUP1 PUSH1 0x7 PUSH1 0x16 PUSH2 0x100 EXP DUP2 SLOAD DUP2 PUSH2 0xFFFF MUL NOT AND SWAP1 DUP4 PUSH2 0xFFFF AND MUL OR SWAP1 SSTORE POP POP POP POP POP PUSH2 0xA2C JUMP JUMPDEST PUSH0 PUSH1 0x5 PUSH0 SWAP1 SLOAD SWAP1 PUSH2 0x100 EXP SWAP1 DIV PUSH20 0xFFFFFFFFFFFFFFFFFFFFFFFFFFFFFFFFFFFFFFFF AND SWAP1 POP DUP2 PUSH1 0x5 PUSH0 PUSH2 0x100 EXP DUP2 SLOAD DUP2 PUSH20 0xFFFFFFFFFFFFFFFFFFFFFFFFFFFFFFFFFFFFFFFF MUL NOT AND SWAP1 DUP4 PUSH20 0xFFFFFFFFFFFFFFFFFFFFFFFFFFFFFFFFFFFFFFFF AND MUL OR SWAP1 SSTORE POP DUP2 PUSH20 0xFFFFFFFFFFFFFFFFFFFFFFFFFFFFFFFFFFFFFFFF AND DUP2 PUSH20 0xFFFFFFFFFFFFFFFFFFFFFFFFFFFFFFFFFFFFFFFF AND PUSH32 0x8BE0079C531659141344CD1FD0A4F28419497F9722A3DAAFE3B4186F6B6457E0 PUSH1 0x40 MLOAD PUSH1 0x40 MLOAD DUP1 SWAP2 SUB SWAP1 LOG3 POP POP JUMP JUMPDEST PUSH0 DUP1 REVERT JUMPDEST PUSH0 PUSH20 0xFFFFFFFFFFFFFFFFFFFFFFFFFFFFFFFFFFFFFFFF DUP3 AND SWAP1 POP SWAP2 SWAP1 POP JUMP JUMPDEST PUSH0 PUSH2 0x47F DUP3 PUSH2 0x456 JUMP JUMPDEST SWAP1 POP SWAP2 SWAP1 POP JUMP JUMPDEST PUSH2 0x48F DUP2 PUSH2 0x475 JUMP JUMPDEST DUP2 EQ PUSH2 0x499 JUMPI PUSH0 DUP1 REVERT JUMPDEST POP JUMP JUMPDEST PUSH0 DUP2 MLOAD SWAP1 POP PUSH2 0x4AA DUP2 PUSH2 0x486 JUMP JUMPDEST SWAP3 SWAP2 POP POP JUMP JUMPDEST PUSH0 PUSH2 0xFFFF DUP3 AND SWAP1 POP SWAP2 SWAP1 POP JUMP JUMPDEST PUSH2 0x4C6 DUP2 PUSH2 0x4B0 JUMP JUMPDEST DUP2 EQ PUSH2 0x4D0 JUMPI PUSH0 DUP1 REVERT JUMPDEST POP JUMP JUMPDEST PUSH0 DUP2 MLOAD SWAP1 POP PUSH2 0x4E1 DUP2 PUSH2 0x4BD JUMP JUMPDEST SWAP3 SWAP2 POP POP JUMP JUMPDEST PUSH0 DUP1 PUSH0 DUP1 PUSH1 0x80 DUP6 DUP8 SUB SLT ISZERO PUSH2 0x4FF JUMPI PUSH2 0x4FE PUSH2 0x452 JUMP JUMPDEST JUMPDEST PUSH0 PUSH2 0x50C DUP8 DUP3 DUP9 ADD PUSH2 0x49C JUMP JUMPDEST SWAP5 POP POP PUSH1 0x20 PUSH2 0x51D DUP8 DUP3 DUP9 ADD PUSH2 0x49C JUMP JUMPDEST SWAP4 POP POP PUSH1 0x40 PUSH2 0x52E DUP8 DUP3 DUP9 ADD PUSH2 0x4D3 JUMP JUMPDEST SWAP3 POP POP PUSH1 0x60 PUSH2 0x53F DUP8 DUP3 DUP9 ADD PUSH2 0x4D3 JUMP JUMPDEST SWAP2 POP POP SWAP3 SWAP6 SWAP2 SWAP5 POP SWAP3 POP JUMP JUMPDEST PUSH0 DUP2 MLOAD SWAP1 POP SWAP2 SWAP1 POP JUMP JUMPDEST PUSH32 0x4E487B7100000000000000000000000000000000000000000000000000000000 PUSH0 MSTORE PUSH1 0x41 PUSH1 0x4 MSTORE PUSH1 0x24 PUSH0 REVERT JUMPDEST PUSH32 0x4E487B7100000000000000000000000000000000000000000000000000000000 PUSH0 MSTORE PUSH1 0x22 PUSH1 0x4 MSTORE PUSH1 0x24 PUSH0 REVERT JUMPDEST PUSH0 PUSH1 0x2 DUP3 DIV SWAP1 POP PUSH1 0x1 DUP3 AND DUP1 PUSH2 0x5C6 JUMPI PUSH1 0x7F DUP3 AND SWAP2 POP JUMPDEST PUSH1 0x20 DUP3 LT DUP2 SUB PUSH2 0x5D9 JUMPI PUSH2 0x5D8 PUSH2 0x582 JUMP JUMPDEST JUMPDEST POP SWAP2 SWAP1 POP JUMP JUMPDEST PUSH0 DUP2 SWAP1 POP DUP2 PUSH0 MSTORE PUSH1 0x20 PUSH0 KECCAK256 SWAP1 POP SWAP2 SWAP1 POP JUMP JUMPDEST PUSH0 PUSH1 0x20 PUSH1 0x1F DUP4 ADD DIV SWAP1 POP SWAP2 SWAP1 POP JUMP JUMPDEST PUSH0 DUP3 DUP3 SHL SWAP1 POP SWAP3 SWAP2 POP POP JUMP JUMPDEST PUSH0 PUSH1 0x8 DUP4 MUL PUSH2 0x63B PUSH32 0xFFFFFFFFFFFFFFFFFFFFFFFFFFFFFFFFFFFFFFFFFFFFFFFFFFFFFFFFFFFFFFFF DUP3 PUSH2 0x600 JUMP JUMPDEST PUSH2 0x645 DUP7 DUP4 PUSH2 0x600 JUMP JUMPDEST SWAP6 POP DUP1 NOT DUP5 AND SWAP4 POP DUP1 DUP7 AND DUP5 OR SWAP3 POP POP POP SWAP4 SWAP3 POP POP POP JUMP JUMPDEST PUSH0 DUP2 SWAP1 POP SWAP2 SWAP1 POP JUMP JUMPDEST PUSH0 DUP2 SWAP1 POP SWAP2 SWAP1 POP JUMP JUMPDEST PUSH0 PUSH2 0x689 PUSH2 0x684 PUSH2 0x67F DUP5 PUSH2 0x65D JUMP JUMPDEST PUSH2 0x666 JUMP JUMPDEST PUSH2 0x65D JUMP JUMPDEST SWAP1 POP SWAP2 SWAP1 POP JUMP JUMPDEST PUSH0 DUP2 SWAP1 POP SWAP2 SWAP1 POP JUMP JUMPDEST PUSH2 0x6A2 DUP4 PUSH2 0x66F JUMP JUMPDEST PUSH2 0x6B6 PUSH2 0x6AE DUP3 PUSH2 0x690 JUMP JUMPDEST DUP5 DUP5 SLOAD PUSH2 0x60C JUMP JUMPDEST DUP3 SSTORE POP POP POP POP JUMP JUMPDEST PUSH0 SWAP1 JUMP JUMPDEST PUSH2 0x6CA PUSH2 0x6BE JUMP JUMPDEST PUSH2 0x6D5 DUP2 DUP5 DUP5 PUSH2 0x699 JUMP JUMPDEST POP POP POP JUMP JUMPDEST JUMPDEST DUP2 DUP2 LT ISZERO PUSH2 0x6F8 JUMPI PUSH2 0x6ED PUSH0 DUP3 PUSH2 0x6C2 JUMP JUMPDEST PUSH1 0x1 DUP2 ADD SWAP1 POP PUSH2 0x6DB JUMP JUMPDEST POP POP JUMP JUMPDEST PUSH1 0x1F DUP3 GT ISZERO PUSH2 0x73D JUMPI PUSH2 0x70E DUP2 PUSH2 0x5DF JUMP JUMPDEST PUSH2 0x717 DUP5 PUSH2 0x5F1 JUMP JUMPDEST DUP2 ADD PUSH1 0x20 DUP6 LT ISZERO PUSH2 0x726 JUMPI DUP2 SWAP1 POP JUMPDEST PUSH2 0x73A PUSH2 0x732 DUP6 PUSH2 0x5F1 JUMP JUMPDEST DUP4 ADD DUP3 PUSH2 0x6DA JUMP JUMPDEST POP POP JUMPDEST POP POP POP JUMP JUMPDEST PUSH0 DUP3 DUP3 SHR SWAP1 POP SWAP3 SWAP2 POP POP JUMP JUMPDEST PUSH0 PUSH2 0x75D PUSH0 NOT DUP5 PUSH1 0x8 MUL PUSH2 0x742 JUMP JUMPDEST NOT DUP1 DUP4 AND SWAP2 POP POP SWAP3 SWAP2 POP POP JUMP JUMPDEST PUSH0 PUSH2 0x775 DUP4 DUP4 PUSH2 0x74E JUMP JUMPDEST SWAP2 POP DUP3 PUSH1 0x2 MUL DUP3 OR SWAP1 POP SWAP3 SWAP2 POP POP JUMP JUMPDEST PUSH2 0x78E DUP3 PUSH2 0x54B JUMP JUMPDEST PUSH8 0xFFFFFFFFFFFFFFFF DUP2 GT ISZERO PUSH2 0x7A7 JUMPI PUSH2 0x7A6 PUSH2 0x555 JUMP JUMPDEST JUMPDEST PUSH2 0x7B1 DUP3 SLOAD PUSH2 0x5AF JUMP JUMPDEST PUSH2 0x7BC DUP3 DUP3 DUP6 PUSH2 0x6FC JUMP JUMPDEST PUSH0 PUSH1 0x20 SWAP1 POP PUSH1 0x1F DUP4 GT PUSH1 0x1 DUP2 EQ PUSH2 0x7ED JUMPI PUSH0 DUP5 ISZERO PUSH2 0x7DB JUMPI DUP3 DUP8 ADD MLOAD SWAP1 POP JUMPDEST PUSH2 0x7E5 DUP6 DUP3 PUSH2 0x76A JUMP JUMPDEST DUP7 SSTORE POP PUSH2 0x84C JUMP JUMPDEST PUSH1 0x1F NOT DUP5 AND PUSH2 0x7FB DUP7 PUSH2 0x5DF JUMP JUMPDEST PUSH0 JUMPDEST DUP3 DUP2 LT ISZERO PUSH2 0x822 JUMPI DUP5 DUP10 ADD MLOAD DUP3 SSTORE PUSH1 0x1 DUP3 ADD SWAP2 POP PUSH1 0x20 DUP6 ADD SWAP5 POP PUSH1 0x20 DUP2 ADD SWAP1 POP PUSH2 0x7FD JUMP JUMPDEST DUP7 DUP4 LT ISZERO PUSH2 0x83F JUMPI DUP5 DUP10 ADD MLOAD PUSH2 0x83B PUSH1 0x1F DUP10 AND DUP3 PUSH2 0x74E JUMP JUMPDEST DUP4 SSTORE POP JUMPDEST PUSH1 0x1 PUSH1 0x2 DUP9 MUL ADD DUP9 SSTORE POP POP POP JUMPDEST POP POP POP POP POP POP JUMP JUMPDEST PUSH2 0x85D DUP2 PUSH2 0x475 JUMP JUMPDEST DUP3 MSTORE POP POP JUMP JUMPDEST PUSH0 PUSH1 0x20 DUP3 ADD SWAP1 POP PUSH2 0x876 PUSH0 DUP4 ADD DUP5 PUSH2 0x854 JUMP JUMPDEST SWAP3 SWAP2 POP POP JUMP JUMPDEST PUSH0 DUP3 DUP3 MSTORE PUSH1 0x20 DUP3 ADD SWAP1 POP SWAP3 SWAP2 POP POP JUMP JUMPDEST PUSH32 0x496E76616C696420435553442061646472657373000000000000000000000000 PUSH0 DUP3 ADD MSTORE POP JUMP JUMPDEST PUSH0 PUSH2 0x8C0 PUSH1 0x14 DUP4 PUSH2 0x87C JUMP JUMPDEST SWAP2 POP PUSH2 0x8CB DUP3 PUSH2 0x88C JUMP JUMPDEST PUSH1 0x20 DUP3 ADD SWAP1 POP SWAP2 SWAP1 POP JUMP JUMPDEST PUSH0 PUSH1 0x20 DUP3 ADD SWAP1 POP DUP2 DUP2 SUB PUSH0 DUP4 ADD MSTORE PUSH2 0x8ED DUP2 PUSH2 0x8B4 JUMP JUMPDEST SWAP1 POP SWAP2 SWAP1 POP JUMP JUMPDEST PUSH32 0x496E76616C696420747265617375727900000000000000000000000000000000 PUSH0 DUP3 ADD MSTORE POP JUMP JUMPDEST PUSH0 PUSH2 0x928 PUSH1 0x10 DUP4 PUSH2 0x87C JUMP JUMPDEST SWAP2 POP PUSH2 0x933 DUP3 PUSH2 0x8F4 JUMP JUMPDEST PUSH1 0x20 DUP3 ADD SWAP1 POP SWAP2 SWAP1 POP JUMP JUMPDEST PUSH0 PUSH1 0x20 DUP3 ADD SWAP1 POP DUP2 DUP2 SUB PUSH0 DUP4 ADD MSTORE PUSH2 0x955 DUP2 PUSH2 0x91C JUMP JUMPDEST SWAP1 POP SWAP2 SWAP1 POP JUMP JUMPDEST PUSH32 0x4D696E742066656520746F6F2068696768000000000000000000000000000000 PUSH0 DUP3 ADD MSTORE POP JUMP JUMPDEST PUSH0 PUSH2 0x990 PUSH1 0x11 DUP4 PUSH2 0x87C JUMP JUMPDEST SWAP2 POP PUSH2 0x99B DUP3 PUSH2 0x95C JUMP JUMPDEST PUSH1 0x20 DUP3 ADD SWAP1 POP SWAP2 SWAP1 POP JUMP JUMPDEST PUSH0 PUSH1 0x20 DUP3 ADD SWAP1 POP DUP2 DUP2 SUB PUSH0 DUP4 ADD MSTORE PUSH2 0x9BD DUP2 PUSH2 0x984 JUMP JUMPDEST SWAP1 POP SWAP2 SWAP1 POP JUMP JUMPDEST PUSH32 0x52656465656D2066656520746F6F206869676800000000000000000000000000 PUSH0 DUP3 ADD MSTORE POP JUMP JUMPDEST PUSH0 PUSH2 0x9F8 PUSH1 0x13 DUP4 PUSH2 0x87C JUMP JUMPDEST SWAP2 POP PUSH2 0xA03 DUP3 PUSH2 0x9C4 JUMP JUMPDEST PUSH1 0x20 DUP3 ADD SWAP1 POP SWAP2 SWAP1 POP JUMP JUMPDEST PUSH0 PUSH1 0x20 DUP3 ADD SWAP1 POP DUP2 DUP2 SUB PUSH0 DUP4 ADD MSTORE PUSH2 0xA25 DUP2 PUSH2 0x9EC JUMP JUMPDEST SWAP1 POP SWAP2 SWAP1 POP JUMP JUMPDEST PUSH1 0x80 MLOAD PUSH2 0x2341 PUSH2 0xA59 PUSH0 CODECOPY PUSH0 DUP2 DUP2 PUSH2 0x53F ADD MSTORE DUP2 DUP2 PUSH2 0x907 ADD MSTORE DUP2 DUP2 PUSH2 0xAF2 ADD MSTORE PUSH2 0xB66 ADD MSTORE PUSH2 0x2341 PUSH0 RETURN INVALID PUSH1 0x80 PUSH1 0x40 MSTORE CALLVALUE DUP1 ISZERO PUSH2 0xF JUMPI PUSH0 DUP1 REVERT JUMPDEST POP PUSH1 0x4 CALLDATASIZE LT PUSH2 0x171 JUMPI PUSH0 CALLDATALOAD PUSH1 0xE0 SHR DUP1 PUSH4 0x715018A6 GT PUSH2 0xDC JUMPI DUP1 PUSH4 0xA0712D68 GT PUSH2 0x95 JUMPI DUP1 PUSH4 0xDD62ED3E GT PUSH2 0x6F JUMPI DUP1 PUSH4 0xDD62ED3E EQ PUSH2 0x3F1 JUMPI DUP1 PUSH4 0xF0F44260 EQ PUSH2 0x421 JUMPI DUP1 PUSH4 0xF2FDE38B EQ PUSH2 0x43D JUMPI DUP1 PUSH4 0xFD967F47 EQ PUSH2 0x459 JUMPI PUSH2 0x171 JUMP JUMPDEST DUP1 PUSH4 0xA0712D68 EQ PUSH2 0x389 JUMPI DUP1 PUSH4 0xA9059CBB EQ PUSH2 0x3A5 JUMPI DUP1 PUSH4 0xDB006A75 EQ PUSH2 0x3D5 JUMPI PUSH2 0x171 JUMP JUMPDEST DUP1 PUSH4 0x715018A6 EQ PUSH2 0x2FF JUMPI DUP1 PUSH4 0x8456CB59 EQ PUSH2 0x309 JUMPI DUP1 PUSH4 0x8DA5CB5B EQ PUSH2 0x313 JUMPI DUP1 PUSH4 0x95D89B41 EQ PUSH2 0x331 JUMPI DUP1 PUSH4 0x97C8BCC1 EQ PUSH2 0x34F JUMPI DUP1 PUSH4 0x9EF833D4 EQ PUSH2 0x36D JUMPI PUSH2 0x171 JUMP JUMPDEST DUP1 PUSH4 0x313CE567 GT PUSH2 0x12E JUMPI DUP1 PUSH4 0x313CE567 EQ PUSH2 0x24D JUMPI DUP1 PUSH4 0x32CB6B0C EQ PUSH2 0x26B JUMPI DUP1 PUSH4 0x3F4BA83A EQ PUSH2 0x289 JUMPI DUP1 PUSH4 0x5C975ABB EQ PUSH2 0x293 JUMPI DUP1 PUSH4 0x61D027B3 EQ PUSH2 0x2B1 JUMPI DUP1 PUSH4 0x70A08231 EQ PUSH2 0x2CF JUMPI PUSH2 0x171 JUMP JUMPDEST DUP1 PUSH4 0x6FDDE03 EQ PUSH2 0x175 JUMPI DUP1 PUSH4 0x95EA7B3 EQ PUSH2 0x193 JUMPI DUP1 PUSH4 0x9F6442C EQ PUSH2 0x1C3 JUMPI DUP1 PUSH4 0xC577BDC EQ PUSH2 0x1E1 JUMPI DUP1 PUSH4 0x18160DDD EQ PUSH2 0x1FF JUMPI DUP1 PUSH4 0x23B872DD EQ PUSH2 0x21D JUMPI JUMPDEST PUSH0 DUP1 REVERT JUMPDEST PUSH2 0x17D PUSH2 0x477 JUMP JUMPDEST PUSH1 0x40 MLOAD PUSH2 0x18A SWAP2 SWAP1 PUSH2 0x198E JUMP JUMPDEST PUSH1 0x40 MLOAD DUP1 SWAP2 SUB SWAP1 RETURN JUMPDEST PUSH2 0x1AD PUSH1 0x4 DUP1 CALLDATASIZE SUB DUP2 ADD SWAP1 PUSH2 0x1A8 SWAP2 SWAP1 PUSH2 0x1A3F JUMP JUMPDEST PUSH2 0x507 JUMP JUMPDEST PUSH1 0x40 MLOAD PUSH2 0x1BA SWAP2 SWAP1 PUSH2 0x1A97 JUMP JUMPDEST PUSH1 0x40 MLOAD DUP1 SWAP2 SUB SWAP1 RETURN JUMPDEST PUSH2 0x1CB PUSH2 0x529 JUMP JUMPDEST PUSH1 0x40 MLOAD PUSH2 0x1D8 SWAP2 SWAP1 PUSH2 0x1ACC JUMP JUMPDEST PUSH1 0x40 MLOAD DUP1 SWAP2 SUB SWAP1 RETURN JUMPDEST PUSH2 0x1E9 PUSH2 0x53D JUMP JUMPDEST PUSH1 0x40 MLOAD PUSH2 0x1F6 SWAP2 SWAP1 PUSH2 0x1B40 JUMP JUMPDEST PUSH1 0x40 MLOAD DUP1 SWAP2 SUB SWAP1 RETURN JUMPDEST PUSH2 0x207 PUSH2 0x561 JUMP JUMPDEST PUSH1 0x40 MLOAD PUSH2 0x214 SWAP2 SWAP1 PUSH2 0x1B68 JUMP JUMPDEST PUSH1 0x40 MLOAD DUP1 SWAP2 SUB SWAP1 RETURN JUMPDEST PUSH2 0x237 PUSH1 0x4 DUP1 CALLDATASIZE SUB DUP2 ADD SWAP1 PUSH2 0x232 SWAP2 SWAP1 PUSH2 0x1B81 JUMP JUMPDEST PUSH2 0x56A JUMP JUMPDEST PUSH1 0x40 MLOAD PUSH2 0x244 SWAP2 SWAP1 PUSH2 0x1A97 JUMP JUMPDEST PUSH1 0x40 MLOAD DUP1 SWAP2 SUB SWAP1 RETURN JUMPDEST PUSH2 0x255 PUSH2 0x598 JUMP JUMPDEST PUSH1 0x40 MLOAD PUSH2 0x262 SWAP2 SWAP1 PUSH2 0x1BEC JUMP JUMPDEST PUSH1 0x40 MLOAD DUP1 SWAP2 SUB SWAP1 RETURN JUMPDEST PUSH2 0x273 PUSH2 0x5A0 JUMP JUMPDEST PUSH1 0x40 MLOAD PUSH2 0x280 SWAP2 SWAP1 PUSH2 0x1B68 JUMP JUMPDEST PUSH1 0x40 MLOAD DUP1 SWAP2 SUB SWAP1 RETURN JUMPDEST PUSH2 0x291 PUSH2 0x5B0 JUMP JUMPDEST STOP JUMPDEST PUSH2 0x29B PUSH2 0x5C2 JUMP JUMPDEST PUSH1 0x40 MLOAD PUSH2 0x2A8 SWAP2 SWAP1 PUSH2 0x1A97 JUMP JUMPDEST PUSH1 0x40 MLOAD DUP1 SWAP2 SUB SWAP1 RETURN JUMPDEST PUSH2 0x2B9 PUSH2 0x5D8 JUMP JUMPDEST PUSH1 0x40 MLOAD PUSH2 0x2C6 SWAP2 SWAP1 PUSH2 0x1C14 JUMP JUMPDEST PUSH1 0x40 MLOAD DUP1 SWAP2 SUB SWAP1 RETURN JUMPDEST PUSH2 0x2E9 PUSH1 0x4 DUP1 CALLDATASIZE SUB DUP2 ADD SWAP1 PUSH2 0x2E4 SWAP2 SWAP1 PUSH2 0x1C2D JUMP JUMPDEST PUSH2 0x5FD JUMP JUMPDEST PUSH1 0x40 MLOAD PUSH2 0x2F6 SWAP2 SWAP1 PUSH2 0x1B68 JUMP JUMPDEST PUSH1 0x40 MLOAD DUP1 SWAP2 SUB SWAP1 RETURN JUMPDEST PUSH2 0x307 PUSH2 0x642 JUMP JUMPDEST STOP JUMPDEST PUSH2 0x311 PUSH2 0x655 JUMP JUMPDEST STOP JUMPDEST PUSH2 0x31B PUSH2 0x667 JUMP JUMPDEST PUSH1 0x40 MLOAD PUSH2 0x328 SWAP2 SWAP1 PUSH2 0x1C14 JUMP JUMPDEST PUSH1 0x40 MLOAD DUP1 SWAP2 SUB SWAP1 RETURN JUMPDEST PUSH2 0x339 PUSH2 0x68F JUMP JUMPDEST PUSH1 0x40 MLOAD PUSH2 0x346 SWAP2 SWAP1 PUSH2 0x198E JUMP JUMPDEST PUSH1 0x40 MLOAD DUP1 SWAP2 SUB SWAP1 RETURN JUMPDEST PUSH2 0x357 PUSH2 0x71F JUMP JUMPDEST PUSH1 0x40 MLOAD PUSH2 0x364 SWAP2 SWAP1 PUSH2 0x1ACC JUMP JUMPDEST PUSH1 0x40 MLOAD DUP1 SWAP2 SUB SWAP1 RETURN JUMPDEST PUSH2 0x387 PUSH1 0x4 DUP1 CALLDATASIZE SUB DUP2 ADD SWAP1 PUSH2 0x382 SWAP2 SWAP1 PUSH2 0x1C82 JUMP JUMPDEST PUSH2 0x733 JUMP JUMPDEST STOP JUMPDEST PUSH2 0x3A3 PUSH1 0x4 DUP1 CALLDATASIZE SUB DUP2 ADD SWAP1 PUSH2 0x39E SWAP2 SWAP1 PUSH2 0x1CC0 JUMP JUMPDEST PUSH2 0x84C JUMP JUMPDEST STOP JUMPDEST PUSH2 0x3BF PUSH1 0x4 DUP1 CALLDATASIZE SUB DUP2 ADD SWAP1 PUSH2 0x3BA SWAP2 SWAP1 PUSH2 0x1A3F JUMP JUMPDEST PUSH2 0xA2A JUMP JUMPDEST PUSH1 0x40 MLOAD PUSH2 0x3CC SWAP2 SWAP1 PUSH2 0x1A97 JUMP JUMPDEST PUSH1 0x40 MLOAD DUP1 SWAP2 SUB SWAP1 RETURN JUMPDEST PUSH2 0x3EF PUSH1 0x4 DUP1 CALLDATASIZE SUB DUP2 ADD SWAP1 PUSH2 0x3EA SWAP2 SWAP1 PUSH2 0x1CC0 JUMP JUMPDEST PUSH2 0xA4C JUMP JUMPDEST STOP JUMPDEST PUSH2 0x40B PUSH1 0x4 DUP1 CALLDATASIZE SUB DUP2 ADD SWAP1 PUSH2 0x406 SWAP2 SWAP1 PUSH2 0x1CEB JUMP JUMPDEST PUSH2 0xC0A JUMP JUMPDEST PUSH1 0x40 MLOAD PUSH2 0x418 SWAP2 SWAP1 PUSH2 0x1B68 JUMP JUMPDEST PUSH1 0x40 MLOAD DUP1 SWAP2 SUB SWAP1 RETURN JUMPDEST PUSH2 0x43B PUSH1 0x4 DUP1 CALLDATASIZE SUB DUP2 ADD SWAP1 PUSH2 0x436 SWAP2 SWAP1 PUSH2 0x1C2D JUMP JUMPDEST PUSH2 0xC8C JUMP JUMPDEST STOP JUMPDEST PUSH2 0x457 PUSH1 0x4 DUP1 CALLDATASIZE SUB DUP2 ADD SWAP1 PUSH2 0x452 SWAP2 SWAP1 PUSH2 0x1C2D JUMP JUMPDEST PUSH2 0xD7C JUMP JUMPDEST STOP JUMPDEST PUSH2 0x461 PUSH2 0xE00 JUMP JUMPDEST PUSH1 0x40 MLOAD PUSH2 0x46E SWAP2 SWAP1 PUSH2 0x1ACC JUMP JUMPDEST PUSH1 0x40 MLOAD DUP1 SWAP2 SUB SWAP1 RETURN JUMPDEST PUSH1 0x60 PUSH1 0x3 DUP1 SLOAD PUSH2 0x486 SWAP1 PUSH2 0x1D56 JUMP JUMPDEST DUP1 PUSH1 0x1F ADD PUSH1 0x20 DUP1 SWAP2 DIV MUL PUSH1 0x20 ADD PUSH1 0x40 MLOAD SWAP1 DUP2 ADD PUSH1 0x40 MSTORE DUP1 SWAP3 SWAP2 SWAP1 DUP2 DUP2 MSTORE PUSH1 0x20 ADD DUP3 DUP1 SLOAD PUSH2 0x4B2 SWAP1 PUSH2 0x1D56 JUMP JUMPDEST DUP1 ISZERO PUSH2 0x4FD JUMPI DUP1 PUSH1 0x1F LT PUSH2 0x4D4 JUMPI PUSH2 0x100 DUP1 DUP4 SLOAD DIV MUL DUP4 MSTORE SWAP2 PUSH1 0x20 ADD SWAP2 PUSH2 0x4FD JUMP JUMPDEST DUP3 ADD SWAP2 SWAP1 PUSH0 MSTORE PUSH1 0x20 PUSH0 KECCAK256 SWAP1 JUMPDEST DUP2 SLOAD DUP2 MSTORE SWAP1 PUSH1 0x1 ADD SWAP1 PUSH1 0x20 ADD DUP1 DUP4 GT PUSH2 0x4E0 JUMPI DUP3 SWAP1 SUB PUSH1 0x1F AND DUP3 ADD SWAP2 JUMPDEST POP POP POP POP POP SWAP1 POP SWAP1 JUMP JUMPDEST PUSH0 DUP1 PUSH2 0x511 PUSH2 0xE06 JUMP JUMPDEST SWAP1 POP PUSH2 0x51E DUP2 DUP6 DUP6 PUSH2 0xE0D JUMP JUMPDEST PUSH1 0x1 SWAP2 POP POP SWAP3 SWAP2 POP POP JUMP JUMPDEST PUSH1 0x7 PUSH1 0x16 SWAP1 SLOAD SWAP1 PUSH2 0x100 EXP SWAP1 DIV PUSH2 0xFFFF AND DUP2 JUMP JUMPDEST PUSH32 0x0 DUP2 JUMP JUMPDEST PUSH0 PUSH1 0x2 SLOAD SWAP1 POP SWAP1 JUMP JUMPDEST PUSH0 DUP1 PUSH2 0x574 PUSH2 0xE06 JUMP JUMPDEST SWAP1 POP PUSH2 0x581 DUP6 DUP3 DUP6 PUSH2 0xE1F JUMP JUMPDEST PUSH2 0x58C DUP6 DUP6 DUP6 PUSH2 0xEB1 JUMP JUMPDEST PUSH1 0x1 SWAP2 POP POP SWAP4 SWAP3 POP POP POP JUMP JUMPDEST PUSH0 PUSH1 0x12 SWAP1 POP SWAP1 JUMP JUMPDEST PUSH12 0x33B2E3C9FD0803CE8000000 DUP2 JUMP JUMPDEST PUSH2 0x5B8 PUSH2 0xFA1 JUMP JUMPDEST PUSH2 0x5C0 PUSH2 0x1028 JUMP JUMPDEST JUMP JUMPDEST PUSH0 PUSH1 0x5 PUSH1 0x14 SWAP1 SLOAD SWAP1 PUSH2 0x100 EXP SWAP1 DIV PUSH1 0xFF AND SWAP1 POP SWAP1 JUMP JUMPDEST PUSH1 0x7 PUSH0 SWAP1 SLOAD SWAP1 PUSH2 0x100 EXP SWAP1 DIV PUSH20 0xFFFFFFFFFFFFFFFFFFFFFFFFFFFFFFFFFFFFFFFF AND DUP2 JUMP JUMPDEST PUSH0 DUP1 PUSH0 DUP4 PUSH20 0xFFFFFFFFFFFFFFFFFFFFFFFFFFFFFFFFFFFFFFFF AND PUSH20 0xFFFFFFFFFFFFFFFFFFFFFFFFFFFFFFFFFFFFFFFF AND DUP2 MSTORE PUSH1 0x20 ADD SWAP1 DUP2 MSTORE PUSH1 0x20 ADD PUSH0 KECCAK256 SLOAD SWAP1 POP SWAP2 SWAP1 POP JUMP JUMPDEST PUSH2 0x64A PUSH2 0xFA1 JUMP JUMPDEST PUSH2 0x653 PUSH0 PUSH2 0x108A JUMP JUMPDEST JUMP JUMPDEST PUSH2 0x65D PUSH2 0xFA1 JUMP JUMPDEST PUSH2 0x665 PUSH2 0x114D JUMP JUMPDEST JUMP JUMPDEST PUSH0 PUSH1 0x5 PUSH0 SWAP1 SLOAD SWAP1 PUSH2 0x100 EXP SWAP1 DIV PUSH20 0xFFFFFFFFFFFFFFFFFFFFFFFFFFFFFFFFFFFFFFFF AND SWAP1 POP SWAP1 JUMP JUMPDEST PUSH1 0x60 PUSH1 0x4 DUP1 SLOAD PUSH2 0x69E SWAP1 PUSH2 0x1D56 JUMP JUMPDEST DUP1 PUSH1 0x1F ADD PUSH1 0x20 DUP1 SWAP2 DIV MUL PUSH1 0x20 ADD PUSH1 0x40 MLOAD SWAP1 DUP2 ADD PUSH1 0x40 MSTORE DUP1 SWAP3 SWAP2 SWAP1 DUP2 DUP2 MSTORE PUSH1 0x20 ADD DUP3 DUP1 SLOAD PUSH2 0x6CA SWAP1 PUSH2 0x1D56 JUMP JUMPDEST DUP1 ISZERO PUSH2 0x715 JUMPI DUP1 PUSH1 0x1F LT PUSH2 0x6EC JUMPI PUSH2 0x100 DUP1 DUP4 SLOAD DIV MUL DUP4 MSTORE SWAP2 PUSH1 0x20 ADD SWAP2 PUSH2 0x715 JUMP JUMPDEST DUP3 ADD SWAP2 SWAP1 PUSH0 MSTORE PUSH1 0x20 PUSH0 KECCAK256 SWAP1 JUMPDEST DUP2 SLOAD DUP2 MSTORE SWAP1 PUSH1 0x1 ADD SWAP1 PUSH1 0x20 ADD DUP1 DUP4 GT PUSH2 0x6F8 JUMPI DUP3 SWAP1 SUB PUSH1 0x1F AND DUP3 ADD SWAP2 JUMPDEST POP POP POP POP POP SWAP1 POP SWAP1 JUMP JUMPDEST PUSH1 0x7 PUSH1 0x14 SWAP1 SLOAD SWAP1 PUSH2 0x100 EXP SWAP1 DIV PUSH2 0xFFFF AND DUP2 JUMP JUMPDEST PUSH2 0x73B PUSH2 0xFA1 JUMP JUMPDEST PUSH2 0x2710 PUSH2 0xFFFF AND DUP3 PUSH2 0xFFFF AND GT ISZERO PUSH2 0x788 JUMPI PUSH1 0x40 MLOAD PUSH32 0x8C379A000000000000000000000000000000000000000000000000000000000 DUP2 MSTORE PUSH1 0x4 ADD PUSH2 0x77F SWAP1 PUSH2 0x1DD0 JUMP JUMPDEST PUSH1 0x40 MLOAD DUP1 SWAP2 SUB SWAP1 REVERT JUMPDEST PUSH2 0x2710 PUSH2 0xFFFF AND DUP2 PUSH2 0xFFFF AND GT ISZERO PUSH2 0x7D5 JUMPI PUSH1 0x40 MLOAD PUSH32 0x8C379A000000000000000000000000000000000000000000000000000000000 DUP2 MSTORE PUSH1 0x4 ADD PUSH2 0x7CC SWAP1 PUSH2 0x1E38 JUMP JUMPDEST PUSH1 0x40 MLOAD DUP1 SWAP2 SUB SWAP1 REVERT JUMPDEST DUP2 PUSH1 0x7 PUSH1 0x14 PUSH2 0x100 EXP DUP2 SLOAD DUP2 PUSH2 0xFFFF MUL NOT AND SWAP1 DUP4 PUSH2 0xFFFF AND MUL OR SWAP1 SSTORE POP DUP1 PUSH1 0x7 PUSH1 0x16 PUSH2 0x100 EXP DUP2 SLOAD DUP2 PUSH2 0xFFFF MUL NOT AND SWAP1 DUP4 PUSH2 0xFFFF AND MUL OR SWAP1 SSTORE POP PUSH32 0x2AC80C14C28700F7B5E36F947D572149FE2E3947BAC32C3A8C098F3E03722C11 DUP3 DUP3 PUSH1 0x40 MLOAD PUSH2 0x840 SWAP3 SWAP2 SWAP1 PUSH2 0x1E56 JUMP JUMPDEST PUSH1 0x40 MLOAD DUP1 SWAP2 SUB SWAP1 LOG1 POP POP JUMP JUMPDEST PUSH2 0x854 PUSH2 0x11B0 JUMP JUMPDEST PUSH2 0x85C PUSH2 0x11FA JUMP JUMPDEST PUSH0 DUP2 GT PUSH2 0x89E JUMPI PUSH1 0x40 MLOAD PUSH32 0x8C379A000000000000000000000000000000000000000000000000000000000 DUP2 MSTORE PUSH1 0x4 ADD PUSH2 0x895 SWAP1 PUSH2 0x1EC7 JUMP JUMPDEST PUSH1 0x40 MLOAD DUP1 SWAP2 SUB SWAP1 REVERT JUMPDEST PUSH12 0x33B2E3C9FD0803CE8000000 DUP2 PUSH2 0x8B4 PUSH2 0x561 JUMP JUMPDEST PUSH2 0x8BE SWAP2 SWAP1 PUSH2 0x1F12 JUMP JUMPDEST GT ISZERO PUSH2 0x8FF JUMPI PUSH1 0x40 MLOAD PUSH32 0x8C379A000000000000000000000000000000000000000000000000000000000 DUP2 MSTORE PUSH1 0x4 ADD PUSH2 0x8F6 SWAP1 PUSH2 0x1F8F JUMP JUMPDEST PUSH1 0x40 MLOAD DUP1 SWAP2 SUB SWAP1 REVERT JUMPDEST PUSH2 0x94C CALLER ADDRESS DUP4 PUSH32 0x0 PUSH20 0xFFFFFFFFFFFFFFFFFFFFFFFFFFFFFFFFFFFFFFFF AND PUSH2 0x1249 SWAP1 SWAP4 SWAP3 SWAP2 SWAP1 PUSH4 0xFFFFFFFF AND JUMP JUMPDEST PUSH0 PUSH2 0x2710 PUSH2 0xFFFF AND PUSH1 0x7 PUSH1 0x14 SWAP1 SLOAD SWAP1 PUSH2 0x100 EXP SWAP1 DIV PUSH2 0xFFFF AND PUSH2 0xFFFF AND DUP4 PUSH2 0x974 SWAP2 SWAP1 PUSH2 0x1FAD JUMP JUMPDEST PUSH2 0x97E SWAP2 SWAP1 PUSH2 0x201B JUMP JUMPDEST SWAP1 POP PUSH0 DUP2 DUP4 PUSH2 0x98D SWAP2 SWAP1 PUSH2 0x204B JUMP JUMPDEST SWAP1 POP PUSH2 0x999 CALLER DUP3 PUSH2 0x12CB JUMP JUMPDEST PUSH0 DUP3 GT ISZERO PUSH2 0x9CD JUMPI PUSH2 0x9CC PUSH1 0x7 PUSH0 SWAP1 SLOAD SWAP1 PUSH2 0x100 EXP SWAP1 DIV PUSH20 0xFFFFFFFFFFFFFFFFFFFFFFFFFFFFFFFFFFFFFFFF AND DUP4 PUSH2 0x12CB JUMP JUMPDEST JUMPDEST CALLER PUSH20 0xFFFFFFFFFFFFFFFFFFFFFFFFFFFFFFFFFFFFFFFF AND PUSH32 0x25B428DFDE728CCFADDAD7E29E4AC23C24ED7FD1A6E3E3F91894A9A073F5DFFF DUP3 DUP5 PUSH1 0x40 MLOAD PUSH2 0xA15 SWAP3 SWAP2 SWAP1 PUSH2 0x207E JUMP JUMPDEST PUSH1 0x40 MLOAD DUP1 SWAP2 SUB SWAP1 LOG2 POP POP PUSH2 0xA27 PUSH2 0x134A JUMP JUMPDEST POP JUMP JUMPDEST PUSH0 DUP1 PUSH2 0xA34 PUSH2 0xE06 JUMP JUMPDEST SWAP1 POP PUSH2 0xA41 DUP2 DUP6 DUP6 PUSH2 0xEB1 JUMP JUMPDEST PUSH1 0x1 SWAP2 POP POP SWAP3 SWAP2 POP POP JUMP JUMPDEST PUSH2 0xA54 PUSH2 0x11B0 JUMP JUMPDEST PUSH2 0xA5C PUSH2 0x11FA JUMP JUMPDEST PUSH0 DUP2 GT PUSH2 0xA9E JUMPI PUSH1 0x40 MLOAD PUSH32 0x8C379A000000000000000000000000000000000000000000000000000000000 DUP2 MSTORE PUSH1 0x4 ADD PUSH2 0xA95 SWAP1 PUSH2 0x1EC7 JUMP JUMPDEST PUSH1 0x40 MLOAD DUP1 SWAP2 SUB SWAP1 REVERT JUMPDEST PUSH0 PUSH2 0x2710 PUSH2 0xFFFF AND PUSH1 0x7 PUSH1 0x16 SWAP1 SLOAD SWAP1 PUSH2 0x100 EXP SWAP1 DIV PUSH2 0xFFFF AND PUSH2 0xFFFF AND DUP4 PUSH2 0xAC6 SWAP2 SWAP1 PUSH2 0x1FAD JUMP JUMPDEST PUSH2 0xAD0 SWAP2 SWAP1 PUSH2 0x201B JUMP JUMPDEST SWAP1 POP PUSH0 DUP2 DUP4 PUSH2 0xADF SWAP2 SWAP1 PUSH2 0x204B JUMP JUMPDEST SWAP1 POP PUSH2 0xAEB CALLER DUP5 PUSH2 0x1354 JUMP JUMPDEST PUSH2 0xB36 CALLER DUP3 PUSH32 0x0 PUSH20 0xFFFFFFFFFFFFFFFFFFFFFFFFFFFFFFFFFFFFFFFF AND PUSH2 0x13D3 SWAP1 SWAP3 SWAP2 SWAP1 PUSH4 0xFFFFFFFF AND JUMP JUMPDEST PUSH0 DUP3 GT ISZERO PUSH2 0xBAB JUMPI PUSH2 0xBAA PUSH1 0x7 PUSH0 SWAP1 SLOAD SWAP1 PUSH2 0x100 EXP SWAP1 DIV PUSH20 0xFFFFFFFFFFFFFFFFFFFFFFFFFFFFFFFFFFFFFFFF AND DUP4 PUSH32 0x0 PUSH20 0xFFFFFFFFFFFFFFFFFFFFFFFFFFFFFFFFFFFFFFFF AND PUSH2 0x13D3 SWAP1 SWAP3 SWAP2 SWAP1 PUSH4 0xFFFFFFFF AND JUMP JUMPDEST JUMPDEST CALLER PUSH20 0xFFFFFFFFFFFFFFFFFFFFFFFFFFFFFFFFFFFFFFFF AND PUSH32 0x484C40561359F3E3B8BE9101897F8680AA82FBE1DF9FD9038E0DBC6284032646 DUP5 DUP4 DUP6 PUSH1 0x40 MLOAD PUSH2 0xBF5 SWAP4 SWAP3 SWAP2 SWAP1 PUSH2 0x20A5 JUMP JUMPDEST PUSH1 0x40 MLOAD DUP1 SWAP2 SUB SWAP1 LOG2 POP POP PUSH2 0xC07 PUSH2 0x134A JUMP JUMPDEST POP JUMP JUMPDEST PUSH0 PUSH1 0x1 PUSH0 DUP5 PUSH20 0xFFFFFFFFFFFFFFFFFFFFFFFFFFFFFFFFFFFFFFFF AND PUSH20 0xFFFFFFFFFFFFFFFFFFFFFFFFFFFFFFFFFFFFFFFF AND DUP2 MSTORE PUSH1 0x20 ADD SWAP1 DUP2 MSTORE PUSH1 0x20 ADD PUSH0 KECCAK256 PUSH0 DUP4 PUSH20 0xFFFFFFFFFFFFFFFFFFFFFFFFFFFFFFFFFFFFFFFF AND PUSH20 0xFFFFFFFFFFFFFFFFFFFFFFFFFFFFFFFFFFFFFFFF AND DUP2 MSTORE PUSH1 0x20 ADD SWAP1 DUP2 MSTORE PUSH1 0x20 ADD PUSH0 KECCAK256 SLOAD SWAP1 POP SWAP3 SWAP2 POP POP JUMP JUMPDEST PUSH2 0xC94 PUSH2 0xFA1 JUMP JUMPDEST PUSH0 PUSH20 0xFFFFFFFFFFFFFFFFFFFFFFFFFFFFFFFFFFFFFFFF AND DUP2 PUSH20 0xFFFFFFFFFFFFFFFFFFFFFFFFFFFFFFFFFFFFFFFF AND SUB PUSH2 0xD02 JUMPI PUSH1 0x40 MLOAD PUSH32 0x8C379A000000000000000000000000000000000000000000000000000000000 DUP2 MSTORE PUSH1 0x4 ADD PUSH2 0xCF9 SWAP1 PUSH2 0x2124 JUMP JUMPDEST PUSH1 0x40 MLOAD DUP1 SWAP2 SUB SWAP1 REVERT JUMPDEST DUP1 PUSH1 0x7 PUSH0 PUSH2 0x100 EXP DUP2 SLOAD DUP2 PUSH20 0xFFFFFFFFFFFFFFFFFFFFFFFFFFFFFFFFFFFFFFFF MUL NOT AND SWAP1 DUP4 PUSH20 0xFFFFFFFFFFFFFFFFFFFFFFFFFFFFFFFFFFFFFFFF AND MUL OR SWAP1 SSTORE POP PUSH32 0x7DAE230F18360D76A040C81F050AA14EB9D6DC7901B20FC5D855E2A20FE814D1 DUP2 PUSH1 0x40 MLOAD PUSH2 0xD71 SWAP2 SWAP1 PUSH2 0x1C14 JUMP JUMPDEST PUSH1 0x40 MLOAD DUP1 SWAP2 SUB SWAP1 LOG1 POP JUMP JUMPDEST PUSH2 0xD84 PUSH2 0xFA1 JUMP JUMPDEST PUSH0 PUSH20 0xFFFFFFFFFFFFFFFFFFFFFFFFFFFFFFFFFFFFFFFF AND DUP2 PUSH20 0xFFFFFFFFFFFFFFFFFFFFFFFFFFFFFFFFFFFFFFFF AND SUB PUSH2 0xDF4 JUMPI PUSH0 PUSH1 0x40 MLOAD PUSH32 0x1E4FBDF700000000000000000000000000000000000000000000000000000000 DUP2 MSTORE PUSH1 0x4 ADD PUSH2 0xDEB SWAP2 SWAP1 PUSH2 0x1C14 JUMP JUMPDEST PUSH1 0x40 MLOAD DUP1 SWAP2 SUB SWAP1 REVERT JUMPDEST PUSH2 0xDFD DUP2 PUSH2 0x108A JUMP JUMPDEST POP JUMP JUMPDEST PUSH2 0x2710 DUP2 JUMP JUMPDEST PUSH0 CALLER SWAP1 POP SWAP1 JUMP JUMPDEST PUSH2 0xE1A DUP4 DUP4 DUP4 PUSH1 0x1 PUSH2 0x1452 JUMP JUMPDEST POP POP POP JUMP JUMPDEST PUSH0 PUSH2 0xE2A DUP5 DUP5 PUSH2 0xC0A JUMP JUMPDEST SWAP1 POP PUSH32 0xFFFFFFFFFFFFFFFFFFFFFFFFFFFFFFFFFFFFFFFFFFFFFFFFFFFFFFFFFFFFFFFF DUP2 EQ PUSH2 0xEAB JUMPI DUP2 DUP2 LT ISZERO PUSH2 0xE9C JUMPI DUP3 DUP2 DUP4 PUSH1 0x40 MLOAD PUSH32 0xFB8F41B200000000000000000000000000000000000000000000000000000000 DUP2 MSTORE PUSH1 0x4 ADD PUSH2 0xE93 SWAP4 SWAP3 SWAP2 SWAP1 PUSH2 0x2142 JUMP JUMPDEST PUSH1 0x40 MLOAD DUP1 SWAP2 SUB SWAP1 REVERT JUMPDEST PUSH2 0xEAA DUP5 DUP5 DUP5 DUP5 SUB PUSH0 PUSH2 0x1452 JUMP JUMPDEST JUMPDEST POP POP POP POP JUMP JUMPDEST PUSH0 PUSH20 0xFFFFFFFFFFFFFFFFFFFFFFFFFFFFFFFFFFFFFFFF AND DUP4 PUSH20 0xFFFFFFFFFFFFFFFFFFFFFFFFFFFFFFFFFFFFFFFF AND SUB PUSH2 0xF21 JUMPI PUSH0 PUSH1 0x40 MLOAD PUSH32 0x96C6FD1E00000000000000000000000000000000000000000000000000000000 DUP2 MSTORE PUSH1 0x4 ADD PUSH2 0xF18 SWAP2 SWAP1 PUSH2 0x1C14 JUMP JUMPDEST PUSH1 0x40 MLOAD DUP1 SWAP2 SUB SWAP1 REVERT JUMPDEST PUSH0 PUSH20 0xFFFFFFFFFFFFFFFFFFFFFFFFFFFFFFFFFFFFFFFF AND DUP3 PUSH20 0xFFFFFFFFFFFFFFFFFFFFFFFFFFFFFFFFFFFFFFFF AND SUB PUSH2 0xF91 JUMPI PUSH0 PUSH1 0x40 MLOAD PUSH32 0xEC442F0500000000000000000000000000000000000000000000000000000000 DUP2 MSTORE PUSH1 0x4 ADD PUSH2 0xF88 SWAP2 SWAP1 PUSH2 0x1C14 JUMP JUMPDEST PUSH1 0x40 MLOAD DUP1 SWAP2 SUB SWAP1 REVERT JUMPDEST PUSH2 0xF9C DUP4 DUP4 DUP4 PUSH2 0x1621 JUMP JUMPDEST POP POP POP JUMP JUMPDEST PUSH2 0xFA9 PUSH2 0xE06 JUMP JUMPDEST PUSH20 0xFFFFFFFFFFFFFFFFFFFFFFFFFFFFFFFFFFFFFFFF AND PUSH2 0xFC7 PUSH2 0x667 JUMP JUMPDEST PUSH20 0xFFFFFFFFFFFFFFFFFFFFFFFFFFFFFFFFFFFFFFFF AND EQ PUSH2 0x1026 JUMPI PUSH2 0xFEA PUSH2 0xE06 JUMP JUMPDEST PUSH1 0x40 MLOAD PUSH32 0x118CDAA700000000000000000000000000000000000000000000000000000000 DUP2 MSTORE PUSH1 0x4 ADD PUSH2 0x101D SWAP2 SWAP1 PUSH2 0x1C14 JUMP JUMPDEST PUSH1 0x40 MLOAD DUP1 SWAP2 SUB SWAP1 REVERT JUMPDEST JUMP JUMPDEST PUSH2 0x1030 PUSH2 0x183A JUMP JUMPDEST PUSH0 PUSH1 0x5 PUSH1 0x14 PUSH2 0x100 EXP DUP2 SLOAD DUP2 PUSH1 0xFF MUL NOT AND SWAP1 DUP4 ISZERO ISZERO MUL OR SWAP1 SSTORE POP PUSH32 0x5DB9EE0A495BF2E6FF9C91A7834C1BA4FDD244A5E8AA4E537BD38AEAE4B073AA PUSH2 0x1073 PUSH2 0xE06 JUMP JUMPDEST PUSH1 0x40 MLOAD PUSH2 0x1080 SWAP2 SWAP1 PUSH2 0x1C14 JUMP JUMPDEST PUSH1 0x40 MLOAD DUP1 SWAP2 SUB SWAP1 LOG1 JUMP JUMPDEST PUSH0 PUSH1 0x5 PUSH0 SWAP1 SLOAD SWAP1 PUSH2 0x100 EXP SWAP1 DIV PUSH20 0xFFFFFFFFFFFFFFFFFFFFFFFFFFFFFFFFFFFFFFFF AND SWAP1 POP DUP2 PUSH1 0x5 PUSH0 PUSH2 0x100 EXP DUP2 SLOAD DUP2 PUSH20 0xFFFFFFFFFFFFFFFFFFFFFFFFFFFFFFFFFFFFFFFF MUL NOT AND SWAP1 DUP4 PUSH20 0xFFFFFFFFFFFFFFFFFFFFFFFFFFFFFFFFFFFFFFFF AND MUL OR SWAP1 SSTORE POP DUP2 PUSH20 0xFFFFFFFFFFFFFFFFFFFFFFFFFFFFFFFFFFFFFFFF AND DUP2 PUSH20 0xFFFFFFFFFFFFFFFFFFFFFFFFFFFFFFFFFFFFFFFF AND PUSH32 0x8BE0079C531659141344CD1FD0A4F28419497F9722A3DAAFE3B4186F6B6457E0 PUSH1 0x40 MLOAD PUSH1 0x40 MLOAD DUP1 SWAP2 SUB SWAP1 LOG3 POP POP JUMP JUMPDEST PUSH2 0x1155 PUSH2 0x11B0 JUMP JUMPDEST PUSH1 0x1 PUSH1 0x5 PUSH1 0x14 PUSH2 0x100 EXP DUP2 SLOAD DUP2 PUSH1 0xFF MUL NOT AND SWAP1 DUP4 ISZERO ISZERO MUL OR SWAP1 SSTORE POP PUSH32 0x62E78CEA01BEE320CD4E420270B5EA74000D11B0C9F74754EBDBFC544B05A258 PUSH2 0x1199 PUSH2 0xE06 JUMP JUMPDEST PUSH1 0x40 MLOAD PUSH2 0x11A6 SWAP2 SWAP1 PUSH2 0x1C14 JUMP JUMPDEST PUSH1 0x40 MLOAD DUP1 SWAP2 SUB SWAP1 LOG1 JUMP JUMPDEST PUSH2 0x11B8 PUSH2 0x5C2 JUMP JUMPDEST ISZERO PUSH2 0x11F8 JUMPI PUSH1 0x40 MLOAD PUSH32 0x8C379A000000000000000000000000000000000000000000000000000000000 DUP2 MSTORE PUSH1 0x4 ADD PUSH2 0x11EF SWAP1 PUSH2 0x21C1 JUMP JUMPDEST PUSH1 0x40 MLOAD DUP1 SWAP2 SUB SWAP1 REVERT JUMPDEST JUMP JUMPDEST PUSH1 0x2 PUSH1 0x6 SLOAD SUB PUSH2 0x123F JUMPI PUSH1 0x40 MLOAD PUSH32 0x8C379A000000000000000000000000000000000000000000000000000000000 DUP2 MSTORE PUSH1 0x4 ADD PUSH2 0x1236 SWAP1 PUSH2 0x2229 JUMP JUMPDEST PUSH1 0x40 MLOAD DUP1 SWAP2 SUB SWAP1 REVERT JUMPDEST PUSH1 0x2 PUSH1 0x6 DUP2 SWAP1 SSTORE POP JUMP JUMPDEST PUSH2 0x12C5 DUP5 DUP6 PUSH20 0xFFFFFFFFFFFFFFFFFFFFFFFFFFFFFFFFFFFFFFFF AND PUSH4 0x23B872DD DUP7 DUP7 DUP7 PUSH1 0x40 MLOAD PUSH1 0x24 ADD PUSH2 0x127E SWAP4 SWAP3 SWAP2 SWAP1 PUSH2 0x2247 JUMP JUMPDEST PUSH1 0x40 MLOAD PUSH1 0x20 DUP2 DUP4 SUB SUB DUP2 MSTORE SWAP1 PUSH1 0x40 MSTORE SWAP2 POP PUSH1 0xE0 SHL PUSH1 0x20 DUP3 ADD DUP1 MLOAD PUSH28 0xFFFFFFFFFFFFFFFFFFFFFFFFFFFFFFFFFFFFFFFFFFFFFFFFFFFFFFFF DUP4 DUP2 DUP4 AND OR DUP4 MSTORE POP POP POP POP PUSH2 0x1883 JUMP JUMPDEST POP POP POP POP JUMP JUMPDEST PUSH0 PUSH20 0xFFFFFFFFFFFFFFFFFFFFFFFFFFFFFFFFFFFFFFFF AND DUP3 PUSH20 0xFFFFFFFFFFFFFFFFFFFFFFFFFFFFFFFFFFFFFFFF AND SUB PUSH2 0x133B JUMPI PUSH0 PUSH1 0x40 MLOAD PUSH32 0xEC442F0500000000000000000000000000000000000000000000000000000000 DUP2 MSTORE PUSH1 0x4 ADD PUSH2 0x1332 SWAP2 SWAP1 PUSH2 0x1C14 JUMP JUMPDEST PUSH1 0x40 MLOAD DUP1 SWAP2 SUB SWAP1 REVERT JUMPDEST PUSH2 0x1346 PUSH0 DUP4 DUP4 PUSH2 0x1621 JUMP JUMPDEST POP POP JUMP JUMPDEST PUSH1 0x1 PUSH1 0x6 DUP2 SWAP1 SSTORE POP JUMP JUMPDEST PUSH0 PUSH20 0xFFFFFFFFFFFFFFFFFFFFFFFFFFFFFFFFFFFFFFFF AND DUP3 PUSH20 0xFFFFFFFFFFFFFFFFFFFFFFFFFFFFFFFFFFFFFFFF AND SUB PUSH2 0x13C4 JUMPI PUSH0 PUSH1 0x40 MLOAD PUSH32 0x96C6FD1E00000000000000000000000000000000000000000000000000000000 DUP2 MSTORE PUSH1 0x4 ADD PUSH2 0x13BB SWAP2 SWAP1 PUSH2 0x1C14 JUMP JUMPDEST PUSH1 0x40 MLOAD DUP1 SWAP2 SUB SWAP1 REVERT JUMPDEST PUSH2 0x13CF DUP3 PUSH0 DUP4 PUSH2 0x1621 JUMP JUMPDEST POP POP JUMP JUMPDEST PUSH2 0x144D DUP4 DUP5 PUSH20 0xFFFFFFFFFFFFFFFFFFFFFFFFFFFFFFFFFFFFFFFF AND PUSH4 0xA9059CBB DUP6 DUP6 PUSH1 0x40 MLOAD PUSH1 0x24 ADD PUSH2 0x1406 SWAP3 SWAP2 SWAP1 PUSH2 0x227C JUMP JUMPDEST PUSH1 0x40 MLOAD PUSH1 0x20 DUP2 DUP4 SUB SUB DUP2 MSTORE SWAP1 PUSH1 0x40 MSTORE SWAP2 POP PUSH1 0xE0 SHL PUSH1 0x20 DUP3 ADD DUP1 MLOAD PUSH28 0xFFFFFFFFFFFFFFFFFFFFFFFFFFFFFFFFFFFFFFFFFFFFFFFFFFFFFFFF DUP4 DUP2 DUP4 AND OR DUP4 MSTORE POP POP POP POP PUSH2 0x1883 JUMP JUMPDEST POP POP POP JUMP JUMPDEST PUSH0 PUSH20 0xFFFFFFFFFFFFFFFFFFFFFFFFFFFFFFFFFFFFFFFF AND DUP5 PUSH20 0xFFFFFFFFFFFFFFFFFFFFFFFFFFFFFFFFFFFFFFFF AND SUB PUSH2 0x14C2 JUMPI PUSH0 PUSH1 0x40 MLOAD PUSH32 0xE602DF0500000000000000000000000000000000000000000000000000000000 DUP2 MSTORE PUSH1 0x4 ADD PUSH2 0x14B9 SWAP2 SWAP1 PUSH2 0x1C14 JUMP JUMPDEST PUSH1 0x40 MLOAD DUP1 SWAP2 SUB SWAP1 REVERT JUMPDEST PUSH0 PUSH20 0xFFFFFFFFFFFFFFFFFFFFFFFFFFFFFFFFFFFFFFFF AND DUP4 PUSH20 0xFFFFFFFFFFFFFFFFFFFFFFFFFFFFFFFFFFFFFFFF AND SUB PUSH2 0x1532 JUMPI PUSH0 PUSH1 0x40 MLOAD PUSH32 0x94280D6200000000000000000000000000000000000000000000000000000000 DUP2 MSTORE PUSH1 0x4 ADD PUSH2 0x1529 SWAP2 SWAP1 PUSH2 0x1C14 JUMP JUMPDEST PUSH1 0x40 MLOAD DUP1 SWAP2 SUB SWAP1 REVERT JUMPDEST DUP2 PUSH1 0x1 PUSH0 DUP7 PUSH20 0xFFFFFFFFFFFFFFFFFFFFFFFFFFFFFFFFFFFFFFFF AND PUSH20 0xFFFFFFFFFFFFFFFFFFFFFFFFFFFFFFFFFFFFFFFF AND DUP2 MSTORE PUSH1 0x20 ADD SWAP1 DUP2 MSTORE PUSH1 0x20 ADD PUSH0 KECCAK256 PUSH0 DUP6 PUSH20 0xFFFFFFFFFFFFFFFFFFFFFFFFFFFFFFFFFFFFFFFF AND PUSH20 0xFFFFFFFFFFFFFFFFFFFFFFFFFFFFFFFFFFFFFFFF AND DUP2 MSTORE PUSH1 0x20 ADD SWAP1 DUP2 MSTORE PUSH1 0x20 ADD PUSH0 KECCAK256 DUP2 SWAP1 SSTORE POP DUP1 ISZERO PUSH2 0x161B JUMPI DUP3 PUSH20 0xFFFFFFFFFFFFFFFFFFFFFFFFFFFFFFFFFFFFFFFF AND DUP5 PUSH20 0xFFFFFFFFFFFFFFFFFFFFFFFFFFFFFFFFFFFFFFFF AND PUSH32 0x8C5BE1E5EBEC7D5BD14F71427D1E84F3DD0314C0F7B2291E5B200AC8C7C3B925 DUP5 PUSH1 0x40 MLOAD PUSH2 0x1612 SWAP2 SWAP1 PUSH2 0x1B68 JUMP JUMPDEST PUSH1 0x40 MLOAD DUP1 SWAP2 SUB SWAP1 LOG3 JUMPDEST POP POP POP POP JUMP JUMPDEST PUSH0 PUSH20 0xFFFFFFFFFFFFFFFFFFFFFFFFFFFFFFFFFFFFFFFF AND DUP4 PUSH20 0xFFFFFFFFFFFFFFFFFFFFFFFFFFFFFFFFFFFFFFFF AND SUB PUSH2 0x1671 JUMPI DUP1 PUSH1 0x2 PUSH0 DUP3 DUP3 SLOAD PUSH2 0x1665 SWAP2 SWAP1 PUSH2 0x1F12 JUMP JUMPDEST SWAP3 POP POP DUP2 SWAP1 SSTORE POP PUSH2 0x173F JUMP JUMPDEST PUSH0 DUP1 PUSH0 DUP6 PUSH20 0xFFFFFFFFFFFFFFFFFFFFFFFFFFFFFFFFFFFFFFFF AND PUSH20 0xFFFFFFFFFFFFFFFFFFFFFFFFFFFFFFFFFFFFFFFF AND DUP2 MSTORE PUSH1 0x20 ADD SWAP1 DUP2 MSTORE PUSH1 0x20 ADD PUSH0 KECCAK256 SLOAD SWAP1 POP DUP2 DUP2 LT ISZERO PUSH2 0x16FA JUMPI DUP4 DUP2 DUP4 PUSH1 0x40 MLOAD PUSH32 0xE450D38C00000000000000000000000000000000000000000000000000000000 DUP2 MSTORE PUSH1 0x4 ADD PUSH2 0x16F1 SWAP4 SWAP3 SWAP2 SWAP1 PUSH2 0x2142 JUMP JUMPDEST PUSH1 0x40 MLOAD DUP1 SWAP2 SUB SWAP1 REVERT JUMPDEST DUP2 DUP2 SUB PUSH0 DUP1 DUP7 PUSH20 0xFFFFFFFFFFFFFFFFFFFFFFFFFFFFFFFFFFFFFFFF AND PUSH20 0xFFFFFFFFFFFFFFFFFFFFFFFFFFFFFFFFFFFFFFFF AND DUP2 MSTORE PUSH1 0x20 ADD SWAP1 DUP2 MSTORE PUSH1 0x20 ADD PUSH0 KECCAK256 DUP2 SWAP1 SSTORE POP POP JUMPDEST PUSH0 PUSH20 0xFFFFFFFFFFFFFFFFFFFFFFFFFFFFFFFFFFFFFFFF AND DUP3 PUSH20 0xFFFFFFFFFFFFFFFFFFFFFFFFFFFFFFFFFFFFFFFF AND SUB PUSH2 0x1786 JUMPI DUP1 PUSH1 0x2 PUSH0 DUP3 DUP3 SLOAD SUB SWAP3 POP POP DUP2 SWAP1 SSTORE POP PUSH2 0x17D0 JUMP JUMPDEST DUP1 PUSH0 DUP1 DUP5 PUSH20 0xFFFFFFFFFFFFFFFFFFFFFFFFFFFFFFFFFFFFFFFF AND PUSH20 0xFFFFFFFFFFFFFFFFFFFFFFFFFFFFFFFFFFFFFFFF AND DUP2 MSTORE PUSH1 0x20 ADD SWAP1 DUP2 MSTORE PUSH1 0x20 ADD PUSH0 KECCAK256 PUSH0 DUP3 DUP3 SLOAD ADD SWAP3 POP POP DUP2 SWAP1 SSTORE POP JUMPDEST DUP2 PUSH20 0xFFFFFFFFFFFFFFFFFFFFFFFFFFFFFFFFFFFFFFFF AND DUP4 PUSH20 0xFFFFFFFFFFFFFFFFFFFFFFFFFFFFFFFFFFFFFFFF AND PUSH32 0xDDF252AD1BE2C89B69C2B068FC378DAA952BA7F163C4A11628F55A4DF523B3EF DUP4 PUSH1 0x40 MLOAD PUSH2 0x182D SWAP2 SWAP1 PUSH2 0x1B68 JUMP JUMPDEST PUSH1 0x40 MLOAD DUP1 SWAP2 SUB SWAP1 LOG3 POP POP POP JUMP JUMPDEST PUSH2 0x1842 PUSH2 0x5C2 JUMP JUMPDEST PUSH2 0x1881 JUMPI PUSH1 0x40 MLOAD PUSH32 0x8C379A000000000000000000000000000000000000000000000000000000000 DUP2 MSTORE PUSH1 0x4 ADD PUSH2 0x1878 SWAP1 PUSH2 0x22ED JUMP JUMPDEST PUSH1 0x40 MLOAD DUP1 SWAP2 SUB SWAP1 REVERT JUMPDEST JUMP JUMPDEST PUSH0 DUP1 PUSH1 0x20 PUSH0 DUP5 MLOAD PUSH1 0x20 DUP7 ADD PUSH0 DUP9 GAS CALL DUP1 PUSH2 0x18A2 JUMPI PUSH1 0x40 MLOAD RETURNDATASIZE PUSH0 DUP3 RETURNDATACOPY RETURNDATASIZE DUP2 REVERT JUMPDEST RETURNDATASIZE SWAP3 POP PUSH0 MLOAD SWAP2 POP POP PUSH0 DUP3 EQ PUSH2 0x18BB JUMPI PUSH1 0x1 DUP2 EQ ISZERO PUSH2 0x18D6 JUMP JUMPDEST PUSH0 DUP5 PUSH20 0xFFFFFFFFFFFFFFFFFFFFFFFFFFFFFFFFFFFFFFFF AND EXTCODESIZE EQ JUMPDEST ISZERO PUSH2 0x1918 JUMPI DUP4 PUSH1 0x40 MLOAD PUSH32 0x5274AFE700000000000000000000000000000000000000000000000000000000 DUP2 MSTORE PUSH1 0x4 ADD PUSH2 0x190F SWAP2 SWAP1 PUSH2 0x1C14 JUMP JUMPDEST PUSH1 0x40 MLOAD DUP1 SWAP2 SUB SWAP1 REVERT JUMPDEST POP POP POP POP JUMP JUMPDEST PUSH0 DUP2 MLOAD SWAP1 POP SWAP2 SWAP1 POP JUMP JUMPDEST PUSH0 DUP3 DUP3 MSTORE PUSH1 0x20 DUP3 ADD SWAP1 POP SWAP3 SWAP2 POP POP JUMP JUMPDEST DUP3 DUP2 DUP4 MCOPY PUSH0 DUP4 DUP4 ADD MSTORE POP POP POP JUMP JUMPDEST PUSH0 PUSH1 0x1F NOT PUSH1 0x1F DUP4 ADD AND SWAP1 POP SWAP2 SWAP1 POP JUMP JUMPDEST PUSH0 PUSH2 0x1960 DUP3 PUSH2 0x191E JUMP JUMPDEST PUSH2 0x196A DUP2 DUP6 PUSH2 0x1928 JUMP JUMPDEST SWAP4 POP PUSH2 0x197A DUP2 DUP6 PUSH1 0x20 DUP7 ADD PUSH2 0x1938 JUMP JUMPDEST PUSH2 0x1983 DUP2 PUSH2 0x1946 JUMP JUMPDEST DUP5 ADD SWAP2 POP POP SWAP3 SWAP2 POP POP JUMP JUMPDEST PUSH0 PUSH1 0x20 DUP3 ADD SWAP1 POP DUP2 DUP2 SUB PUSH0 DUP4 ADD MSTORE PUSH2 0x19A6 DUP2 DUP5 PUSH2 0x1956 JUMP JUMPDEST SWAP1 POP SWAP3 SWAP2 POP POP JUMP JUMPDEST PUSH0 DUP1 REVERT JUMPDEST PUSH0 PUSH20 0xFFFFFFFFFFFFFFFFFFFFFFFFFFFFFFFFFFFFFFFF DUP3 AND SWAP1 POP SWAP2 SWAP1 POP JUMP JUMPDEST PUSH0 PUSH2 0x19DB DUP3 PUSH2 0x19B2 JUMP JUMPDEST SWAP1 POP SWAP2 SWAP1 POP JUMP JUMPDEST PUSH2 0x19EB DUP2 PUSH2 0x19D1 JUMP JUMPDEST DUP2 EQ PUSH2 0x19F5 JUMPI PUSH0 DUP1 REVERT JUMPDEST POP JUMP JUMPDEST PUSH0 DUP2 CALLDATALOAD SWAP1 POP PUSH2 0x1A06 DUP2 PUSH2 0x19E2 JUMP JUMPDEST SWAP3 SWAP2 POP POP JUMP JUMPDEST PUSH0 DUP2 SWAP1 POP SWAP2 SWAP1 POP JUMP JUMPDEST PUSH2 0x1A1E DUP2 PUSH2 0x1A0C JUMP JUMPDEST DUP2 EQ PUSH2 0x1A28 JUMPI PUSH0 DUP1 REVERT JUMPDEST POP JUMP JUMPDEST PUSH0 DUP2 CALLDATALOAD SWAP1 POP PUSH2 0x1A39 DUP2 PUSH2 0x1A15 JUMP JUMPDEST SWAP3 SWAP2 POP POP JUMP JUMPDEST PUSH0 DUP1 PUSH1 0x40 DUP4 DUP6 SUB SLT ISZERO PUSH2 0x1A55 JUMPI PUSH2 0x1A54 PUSH2 0x19AE JUMP JUMPDEST JUMPDEST PUSH0 PUSH2 0x1A62 DUP6 DUP3 DUP7 ADD PUSH2 0x19F8 JUMP JUMPDEST SWAP3 POP POP PUSH1 0x20 PUSH2 0x1A73 DUP6 DUP3 DUP7 ADD PUSH2 0x1A2B JUMP JUMPDEST SWAP2 POP POP SWAP3 POP SWAP3 SWAP1 POP JUMP JUMPDEST PUSH0 DUP2 ISZERO ISZERO SWAP1 POP SWAP2 SWAP1 POP JUMP JUMPDEST PUSH2 0x1A91 DUP2 PUSH2 0x1A7D JUMP JUMPDEST DUP3 MSTORE POP POP JUMP JUMPDEST PUSH0 PUSH1 0x20 DUP3 ADD SWAP1 POP PUSH2 0x1AAA PUSH0 DUP4 ADD DUP5 PUSH2 0x1A88 JUMP JUMPDEST SWAP3 SWAP2 POP POP JUMP JUMPDEST PUSH0 PUSH2 0xFFFF DUP3 AND SWAP1 POP SWAP2 SWAP1 POP JUMP JUMPDEST PUSH2 0x1AC6 DUP2 PUSH2 0x1AB0 JUMP JUMPDEST DUP3 MSTORE POP POP JUMP JUMPDEST PUSH0 PUSH1 0x20 DUP3 ADD SWAP1 POP PUSH2 0x1ADF PUSH0 DUP4 ADD DUP5 PUSH2 0x1ABD JUMP JUMPDEST SWAP3 SWAP2 POP POP JUMP JUMPDEST PUSH0 DUP2 SWAP1 POP SWAP2 SWAP1 POP JUMP JUMPDEST PUSH0 PUSH2 0x1B08 PUSH2 0x1B03 PUSH2 0x1AFE DUP5 PUSH2 0x19B2 JUMP JUMPDEST PUSH2 0x1AE5 JUMP JUMPDEST PUSH2 0x19B2 JUMP JUMPDEST SWAP1 POP SWAP2 SWAP1 POP JUMP JUMPDEST PUSH0 PUSH2 0x1B19 DUP3 PUSH2 0x1AEE JUMP JUMPDEST SWAP1 POP SWAP2 SWAP1 POP JUMP JUMPDEST PUSH0 PUSH2 0x1B2A DUP3 PUSH2 0x1B0F JUMP JUMPDEST SWAP1 POP SWAP2 SWAP1 POP JUMP JUMPDEST PUSH2 0x1B3A DUP2 PUSH2 0x1B20 JUMP JUMPDEST DUP3 MSTORE POP POP JUMP JUMPDEST PUSH0 PUSH1 0x20 DUP3 ADD SWAP1 POP PUSH2 0x1B53 PUSH0 DUP4 ADD DUP5 PUSH2 0x1B31 JUMP JUMPDEST SWAP3 SWAP2 POP POP JUMP JUMPDEST PUSH2 0x1B62 DUP2 PUSH2 0x1A0C JUMP JUMPDEST DUP3 MSTORE POP POP JUMP JUMPDEST PUSH0 PUSH1 0x20 DUP3 ADD SWAP1 POP PUSH2 0x1B7B PUSH0 DUP4 ADD DUP5 PUSH2 0x1B59 JUMP JUMPDEST SWAP3 SWAP2 POP POP JUMP JUMPDEST PUSH0 DUP1 PUSH0 PUSH1 0x60 DUP5 DUP7 SUB SLT ISZERO PUSH2 0x1B98 JUMPI PUSH2 0x1B97 PUSH2 0x19AE JUMP JUMPDEST JUMPDEST PUSH0 PUSH2 0x1BA5 DUP7 DUP3 DUP8 ADD PUSH2 0x19F8 JUMP JUMPDEST SWAP4 POP POP PUSH1 0x20 PUSH2 0x1BB6 DUP7 DUP3 DUP8 ADD PUSH2 0x19F8 JUMP JUMPDEST SWAP3 POP POP PUSH1 0x40 PUSH2 0x1BC7 DUP7 DUP3 DUP8 ADD PUSH2 0x1A2B JUMP JUMPDEST SWAP2 POP POP SWAP3 POP SWAP3 POP SWAP3 JUMP JUMPDEST PUSH0 PUSH1 0xFF DUP3 AND SWAP1 POP SWAP2 SWAP1 POP JUMP JUMPDEST PUSH2 0x1BE6 DUP2 PUSH2 0x1BD1 JUMP JUMPDEST DUP3 MSTORE POP POP JUMP JUMPDEST PUSH0 PUSH1 0x20 DUP3 ADD SWAP1 POP PUSH2 0x1BFF PUSH0 DUP4 ADD DUP5 PUSH2 0x1BDD JUMP JUMPDEST SWAP3 SWAP2 POP POP JUMP JUMPDEST PUSH2 0x1C0E DUP2 PUSH2 0x19D1 JUMP JUMPDEST DUP3 MSTORE POP POP JUMP JUMPDEST PUSH0 PUSH1 0x20 DUP3 ADD SWAP1 POP PUSH2 0x1C27 PUSH0 DUP4 ADD DUP5 PUSH2 0x1C05 JUMP JUMPDEST SWAP3 SWAP2 POP POP JUMP JUMPDEST PUSH0 PUSH1 0x20 DUP3 DUP5 SUB SLT ISZERO PUSH2 0x1C42 JUMPI PUSH2 0x1C41 PUSH2 0x19AE JUMP JUMPDEST JUMPDEST PUSH0 PUSH2 0x1C4F DUP5 DUP3 DUP6 ADD PUSH2 0x19F8 JUMP JUMPDEST SWAP2 POP POP SWAP3 SWAP2 POP POP JUMP JUMPDEST PUSH2 0x1C61 DUP2 PUSH2 0x1AB0 JUMP JUMPDEST DUP2 EQ PUSH2 0x1C6B JUMPI PUSH0 DUP1 REVERT JUMPDEST POP JUMP JUMPDEST PUSH0 DUP2 CALLDATALOAD SWAP1 POP PUSH2 0x1C7C DUP2 PUSH2 0x1C58 JUMP JUMPDEST SWAP3 SWAP2 POP POP JUMP JUMPDEST PUSH0 DUP1 PUSH1 0x40 DUP4 DUP6 SUB SLT ISZERO PUSH2 0x1C98 JUMPI PUSH2 0x1C97 PUSH2 0x19AE JUMP JUMPDEST JUMPDEST PUSH0 PUSH2 0x1CA5 DUP6 DUP3 DUP7 ADD PUSH2 0x1C6E JUMP JUMPDEST SWAP3 POP POP PUSH1 0x20 PUSH2 0x1CB6 DUP6 DUP3 DUP7 ADD PUSH2 0x1C6E JUMP JUMPDEST SWAP2 POP POP SWAP3 POP SWAP3 SWAP1 POP JUMP JUMPDEST PUSH0 PUSH1 0x20 DUP3 DUP5 SUB SLT ISZERO PUSH2 0x1CD5 JUMPI PUSH2 0x1CD4 PUSH2 0x19AE JUMP JUMPDEST JUMPDEST PUSH0 PUSH2 0x1CE2 DUP5 DUP3 DUP6 ADD PUSH2 0x1A2B JUMP JUMPDEST SWAP2 POP POP SWAP3 SWAP2 POP POP JUMP JUMPDEST PUSH0 DUP1 PUSH1 0x40 DUP4 DUP6 SUB SLT ISZERO PUSH2 0x1D01 JUMPI PUSH2 0x1D00 PUSH2 0x19AE JUMP JUMPDEST JUMPDEST PUSH0 PUSH2 0x1D0E DUP6 DUP3 DUP7 ADD PUSH2 0x19F8 JUMP JUMPDEST SWAP3 POP POP PUSH1 0x20 PUSH2 0x1D1F DUP6 DUP3 DUP7 ADD PUSH2 0x19F8 JUMP JUMPDEST SWAP2 POP POP SWAP3 POP SWAP3 SWAP1 POP JUMP JUMPDEST PUSH32 0x4E487B7100000000000000000000000000000000000000000000000000000000 PUSH0 MSTORE PUSH1 0x22 PUSH1 0x4 MSTORE PUSH1 0x24 PUSH0 REVERT JUMPDEST PUSH0 PUSH1 0x2 DUP3 DIV SWAP1 POP PUSH1 0x1 DUP3 AND DUP1 PUSH2 0x1D6D JUMPI PUSH1 0x7F DUP3 AND SWAP2 POP JUMPDEST PUSH1 0x20 DUP3 LT DUP2 SUB PUSH2 0x1D80 JUMPI PUSH2 0x1D7F PUSH2 0x1D29 JUMP JUMPDEST JUMPDEST POP SWAP2 SWAP1 POP JUMP JUMPDEST PUSH32 0x4D696E742066656520746F6F2068696768000000000000000000000000000000 PUSH0 DUP3 ADD MSTORE POP JUMP JUMPDEST PUSH0 PUSH2 0x1DBA PUSH1 0x11 DUP4 PUSH2 0x1928 JUMP JUMPDEST SWAP2 POP PUSH2 0x1DC5 DUP3 PUSH2 0x1D86 JUMP JUMPDEST PUSH1 0x20 DUP3 ADD SWAP1 POP SWAP2 SWAP1 POP JUMP JUMPDEST PUSH0 PUSH1 0x20 DUP3 ADD SWAP1 POP DUP2 DUP2 SUB PUSH0 DUP4 ADD MSTORE PUSH2 0x1DE7 DUP2 PUSH2 0x1DAE JUMP JUMPDEST SWAP1 POP SWAP2 SWAP1 POP JUMP JUMPDEST PUSH32 0x52656465656D2066656520746F6F206869676800000000000000000000000000 PUSH0 DUP3 ADD MSTORE POP JUMP JUMPDEST PUSH0 PUSH2 0x1E22 PUSH1 0x13 DUP4 PUSH2 0x1928 JUMP JUMPDEST SWAP2 POP PUSH2 0x1E2D DUP3 PUSH2 0x1DEE JUMP JUMPDEST PUSH1 0x20 DUP3 ADD SWAP1 POP SWAP2 SWAP1 POP JUMP JUMPDEST PUSH0 PUSH1 0x20 DUP3 ADD SWAP1 POP DUP2 DUP2 SUB PUSH0 DUP4 ADD MSTORE PUSH2 0x1E4F DUP2 PUSH2 0x1E16 JUMP JUMPDEST SWAP1 POP SWAP2 SWAP1 POP JUMP JUMPDEST PUSH0 PUSH1 0x40 DUP3 ADD SWAP1 POP PUSH2 0x1E69 PUSH0 DUP4 ADD DUP6 PUSH2 0x1ABD JUMP JUMPDEST PUSH2 0x1E76 PUSH1 0x20 DUP4 ADD DUP5 PUSH2 0x1ABD JUMP JUMPDEST SWAP4 SWAP3 POP POP POP JUMP JUMPDEST PUSH32 0x416D6F756E74206D757374206265203E20300000000000000000000000000000 PUSH0 DUP3 ADD MSTORE POP JUMP JUMPDEST PUSH0 PUSH2 0x1EB1 PUSH1 0x12 DUP4 PUSH2 0x1928 JUMP JUMPDEST SWAP2 POP PUSH2 0x1EBC DUP3 PUSH2 0x1E7D JUMP JUMPDEST PUSH1 0x20 DUP3 ADD SWAP1 POP SWAP2 SWAP1 POP JUMP JUMPDEST PUSH0 PUSH1 0x20 DUP3 ADD SWAP1 POP DUP2 DUP2 SUB PUSH0 DUP4 ADD MSTORE PUSH2 0x1EDE DUP2 PUSH2 0x1EA5 JUMP JUMPDEST SWAP1 POP SWAP2 SWAP1 POP JUMP JUMPDEST PUSH32 0x4E487B7100000000000000000000000000000000000000000000000000000000 PUSH0 MSTORE PUSH1 0x11 PUSH1 0x4 MSTORE PUSH1 0x24 PUSH0 REVERT JUMPDEST PUSH0 PUSH2 0x1F1C DUP3 PUSH2 0x1A0C JUMP JUMPDEST SWAP2 POP PUSH2 0x1F27 DUP4 PUSH2 0x1A0C JUMP JUMPDEST SWAP3 POP DUP3 DUP3 ADD SWAP1 POP DUP1 DUP3 GT ISZERO PUSH2 0x1F3F JUMPI PUSH2 0x1F3E PUSH2 0x1EE5 JUMP JUMPDEST JUMPDEST SWAP3 SWAP2 POP POP JUMP JUMPDEST PUSH32 0x45786365656473206D617820737570706C790000000000000000000000000000 PUSH0 DUP3 ADD MSTORE POP JUMP JUMPDEST PUSH0 PUSH2 0x1F79 PUSH1 0x12 DUP4 PUSH2 0x1928 JUMP JUMPDEST SWAP2 POP PUSH2 0x1F84 DUP3 PUSH2 0x1F45 JUMP JUMPDEST PUSH1 0x20 DUP3 ADD SWAP1 POP SWAP2 SWAP1 POP JUMP JUMPDEST PUSH0 PUSH1 0x20 DUP3 ADD SWAP1 POP DUP2 DUP2 SUB PUSH0 DUP4 ADD MSTORE PUSH2 0x1FA6 DUP2 PUSH2 0x1F6D JUMP JUMPDEST SWAP1 POP SWAP2 SWAP1 POP JUMP JUMPDEST PUSH0 PUSH2 0x1FB7 DUP3 PUSH2 0x1A0C JUMP JUMPDEST SWAP2 POP PUSH2 0x1FC2 DUP4 PUSH2 0x1A0C JUMP JUMPDEST SWAP3 POP DUP3 DUP3 MUL PUSH2 0x1FD0 DUP2 PUSH2 0x1A0C JUMP JUMPDEST SWAP2 POP DUP3 DUP3 DIV DUP5 EQ DUP4 ISZERO OR PUSH2 0x1FE7 JUMPI PUSH2 0x1FE6 PUSH2 0x1EE5 JUMP JUMPDEST JUMPDEST POP SWAP3 SWAP2 POP POP JUMP JUMPDEST PUSH32 0x4E487B7100000000000000000000000000000000000000000000000000000000 PUSH0 MSTORE PUSH1 0x12 PUSH1 0x4 MSTORE PUSH1 0x24 PUSH0 REVERT JUMPDEST PUSH0 PUSH2 0x2025 DUP3 PUSH2 0x1A0C JUMP JUMPDEST SWAP2 POP PUSH2 0x2030 DUP4 PUSH2 0x1A0C JUMP JUMPDEST SWAP3 POP DUP3 PUSH2 0x2040 JUMPI PUSH2 0x203F PUSH2 0x1FEE JUMP JUMPDEST JUMPDEST DUP3 DUP3 DIV SWAP1 POP SWAP3 SWAP2 POP POP JUMP JUMPDEST PUSH0 PUSH2 0x2055 DUP3 PUSH2 0x1A0C JUMP JUMPDEST SWAP2 POP PUSH2 0x2060 DUP4 PUSH2 0x1A0C JUMP JUMPDEST SWAP3 POP DUP3 DUP3 SUB SWAP1 POP DUP2 DUP2 GT ISZERO PUSH2 0x2078 JUMPI PUSH2 0x2077 PUSH2 0x1EE5 JUMP JUMPDEST JUMPDEST SWAP3 SWAP2 POP POP JUMP JUMPDEST PUSH0 PUSH1 0x40 DUP3 ADD SWAP1 POP PUSH2 0x2091 PUSH0 DUP4 ADD DUP6 PUSH2 0x1B59 JUMP JUMPDEST PUSH2 0x209E PUSH1 0x20 DUP4 ADD DUP5 PUSH2 0x1B59 JUMP JUMPDEST SWAP4 SWAP3 POP POP POP JUMP JUMPDEST PUSH0 PUSH1 0x60 DUP3 ADD SWAP1 POP PUSH2 0x20B8 PUSH0 DUP4 ADD DUP7 PUSH2 0x1B59 JUMP JUMPDEST PUSH2 0x20C5 PUSH1 0x20 DUP4 ADD DUP6 PUSH2 0x1B59 JUMP JUMPDEST PUSH2 0x20D2 PUSH1 0x40 DUP4 ADD DUP5 PUSH2 0x1B59 JUMP JUMPDEST SWAP5 SWAP4 POP POP POP POP JUMP JUMPDEST PUSH32 0x496E76616C696420747265617375727900000000000000000000000000000000 PUSH0 DUP3 ADD MSTORE POP JUMP JUMPDEST PUSH0 PUSH2 0x210E PUSH1 0x10 DUP4 PUSH2 0x1928 JUMP JUMPDEST SWAP2 POP PUSH2 0x2119 DUP3 PUSH2 0x20DA JUMP JUMPDEST PUSH1 0x20 DUP3 ADD SWAP1 POP SWAP2 SWAP1 POP JUMP JUMPDEST PUSH0 PUSH1 0x20 DUP3 ADD SWAP1 POP DUP2 DUP2 SUB PUSH0 DUP4 ADD MSTORE PUSH2 0x213B DUP2 PUSH2 0x2102 JUMP JUMPDEST SWAP1 POP SWAP2 SWAP1 POP JUMP JUMPDEST PUSH0 PUSH1 0x60 DUP3 ADD SWAP1 POP PUSH2 0x2155 PUSH0 DUP4 ADD DUP7 PUSH2 0x1C05 JUMP JUMPDEST PUSH2 0x2162 PUSH1 0x20 DUP4 ADD DUP6 PUSH2 0x1B59 JUMP JUMPDEST PUSH2 0x216F PUSH1 0x40 DUP4 ADD DUP5 PUSH2 0x1B59 JUMP JUMPDEST SWAP5 SWAP4 POP POP POP POP JUMP JUMPDEST PUSH32 0x5061757361626C653A2070617573656400000000000000000000000000000000 PUSH0 DUP3 ADD MSTORE POP JUMP JUMPDEST PUSH0 PUSH2 0x21AB PUSH1 0x10 DUP4 PUSH2 0x1928 JUMP JUMPDEST SWAP2 POP PUSH2 0x21B6 DUP3 PUSH2 0x2177 JUMP JUMPDEST PUSH1 0x20 DUP3 ADD SWAP1 POP SWAP2 SWAP1 POP JUMP JUMPDEST PUSH0 PUSH1 0x20 DUP3 ADD SWAP1 POP DUP2 DUP2 SUB PUSH0 DUP4 ADD MSTORE PUSH2 0x21D8 DUP2 PUSH2 0x219F JUMP JUMPDEST SWAP1 POP SWAP2 SWAP1 POP JUMP JUMPDEST PUSH32 0x5265656E7472616E637947756172643A207265656E7472616E742063616C6C00 PUSH0 DUP3 ADD MSTORE POP JUMP JUMPDEST PUSH0 PUSH2 0x2213 PUSH1 0x1F DUP4 PUSH2 0x1928 JUMP JUMPDEST SWAP2 POP PUSH2 0x221E DUP3 PUSH2 0x21DF JUMP JUMPDEST PUSH1 0x20 DUP3 ADD SWAP1 POP SWAP2 SWAP1 POP JUMP JUMPDEST PUSH0 PUSH1 0x20 DUP3 ADD SWAP1 POP DUP2 DUP2 SUB PUSH0 DUP4 ADD MSTORE PUSH2 0x2240 DUP2 PUSH2 0x2207 JUMP JUMPDEST SWAP1 POP SWAP2 SWAP1 POP JUMP JUMPDEST PUSH0 PUSH1 0x60 DUP3 ADD SWAP1 POP PUSH2 0x225A PUSH0 DUP4 ADD DUP7 PUSH2 0x1C05 JUMP JUMPDEST PUSH2 0x2267 PUSH1 0x20 DUP4 ADD DUP6 PUSH2 0x1C05 JUMP JUMPDEST PUSH2 0x2274 PUSH1 0x40 DUP4 ADD DUP5 PUSH2 0x1B59 JUMP JUMPDEST SWAP5 SWAP4 POP POP POP POP JUMP JUMPDEST PUSH0 PUSH1 0x40 DUP3 ADD SWAP1 POP PUSH2 0x228F PUSH0 DUP4 ADD DUP6 PUSH2 0x1C05 JUMP JUMPDEST PUSH2 0x229C PUSH1 0x20 DUP4 ADD DUP5 PUSH2 0x1B59 JUMP JUMPDEST SWAP4 SWAP3 POP POP POP JUMP JUMPDEST PUSH32 0x5061757361626C653A206E6F7420706175736564000000000000000000000000 PUSH0 DUP3 ADD MSTORE POP JUMP JUMPDEST PUSH0 PUSH2 0x22D7 PUSH1 0x14 DUP4 PUSH2 0x1928 JUMP JUMPDEST SWAP2 POP PUSH2 0x22E2 DUP3 PUSH2 0x22A3 JUMP JUMPDEST PUSH1 0x20 DUP3 ADD SWAP1 POP SWAP2 SWAP1 POP JUMP JUMPDEST PUSH0 PUSH1 0x20 DUP3 ADD SWAP1 POP DUP2 DUP2 SUB PUSH0 DUP4 ADD MSTORE PUSH2 0x2304 DUP2 PUSH2 0x22CB JUMP JUMPDEST SWAP1 POP SWAP2 SWAP1 POP JUMP INVALID LOG2 PUSH5 0x6970667358 0x22 SLT KECCAK256 PUSH25 0xA243665DADD9C7BFF54DC5B192D101192B6720B707F1B847B4 0xDD COINBASE 0xC7 SWAP13 PUSH30 0x8A64736F6C634300081A0033000000000000000000000000000000000000 "
				},
				"gasEstimates": {
					"creation": {
						"codeDepositCost": "1805000",
						"executionCost": "infinite",
						"totalCost": "infinite"
					},
					"external": {
						"MAX_BPS()": "441",
						"MAX_SUPPLY()": "370",
						"allowance(address,address)": "infinite",
						"approve(address,uint256)": "infinite",
						"balanceOf(address)": "2962",
						"cusd()": "infinite",
						"decimals()": "361",
						"mint(uint256)": "infinite",
						"mintFeeBps()": "2628",
						"name()": "infinite",
						"owner()": "2582",
						"pause()": "infinite",
						"paused()": "2613",
						"redeem(uint256)": "infinite",
						"redeemFeeBps()": "2585",
						"renounceOwnership()": "infinite",
						"setFees(uint16,uint16)": "infinite",
						"setTreasury(address)": "infinite",
						"symbol()": "infinite",
						"totalSupply()": "2544",
						"transfer(address,uint256)": "infinite",
						"transferFrom(address,address,uint256)": "infinite",
						"transferOwnership(address)": "infinite",
						"treasury()": "2619",
						"unpause()": "infinite"
					}
				},
				"methodIdentifiers": {
					"MAX_BPS()": "fd967f47",
					"MAX_SUPPLY()": "32cb6b0c",
					"allowance(address,address)": "dd62ed3e",
					"approve(address,uint256)": "095ea7b3",
					"balanceOf(address)": "70a08231",
					"cusd()": "0c577bdc",
					"decimals()": "313ce567",
					"mint(uint256)": "a0712d68",
					"mintFeeBps()": "97c8bcc1",
					"name()": "06fdde03",
					"owner()": "8da5cb5b",
					"pause()": "8456cb59",
					"paused()": "5c975abb",
					"redeem(uint256)": "db006a75",
					"redeemFeeBps()": "09f6442c",
					"renounceOwnership()": "715018a6",
					"setFees(uint16,uint16)": "9ef833d4",
					"setTreasury(address)": "f0f44260",
					"symbol()": "95d89b41",
					"totalSupply()": "18160ddd",
					"transfer(address,uint256)": "a9059cbb",
					"transferFrom(address,address,uint256)": "23b872dd",
					"transferOwnership(address)": "f2fde38b",
					"treasury()": "61d027b3",
					"unpause()": "3f4ba83a"
				}
			},
			"storageLayout": {
				"storage": [
					{
						"astId": 570,
						"contract": "contracts/PadiTokenStable.sol:PadiToken",
						"label": "_balances",
						"offset": 0,
						"slot": "0",
						"type": "t_mapping(t_address,t_uint256)"
					},
					{
						"astId": 576,
						"contract": "contracts/PadiTokenStable.sol:PadiToken",
						"label": "_allowances",
						"offset": 0,
						"slot": "1",
						"type": "t_mapping(t_address,t_mapping(t_address,t_uint256))"
					},
					{
						"astId": 578,
						"contract": "contracts/PadiTokenStable.sol:PadiToken",
						"label": "_totalSupply",
						"offset": 0,
						"slot": "2",
						"type": "t_uint256"
					},
					{
						"astId": 580,
						"contract": "contracts/PadiTokenStable.sol:PadiToken",
						"label": "_name",
						"offset": 0,
						"slot": "3",
						"type": "t_string_storage"
					},
					{
						"astId": 582,
						"contract": "contracts/PadiTokenStable.sol:PadiToken",
						"label": "_symbol",
						"offset": 0,
						"slot": "4",
						"type": "t_string_storage"
					},
					{
						"astId": 8,
						"contract": "contracts/PadiTokenStable.sol:PadiToken",
						"label": "_owner",
						"offset": 0,
						"slot": "5",
						"type": "t_address"
					},
					{
						"astId": 392,
						"contract": "contracts/PadiTokenStable.sol:PadiToken",
						"label": "_paused",
						"offset": 20,
						"slot": "5",
						"type": "t_bool"
					},
					{
						"astId": 493,
						"contract": "contracts/PadiTokenStable.sol:PadiToken",
						"label": "_status",
						"offset": 0,
						"slot": "6",
						"type": "t_uint256"
					},
					{
						"astId": 1644,
						"contract": "contracts/PadiTokenStable.sol:PadiToken",
						"label": "treasury",
						"offset": 0,
						"slot": "7",
						"type": "t_address"
					},
					{
						"astId": 1651,
						"contract": "contracts/PadiTokenStable.sol:PadiToken",
						"label": "mintFeeBps",
						"offset": 20,
						"slot": "7",
						"type": "t_uint16"
					},
					{
						"astId": 1654,
						"contract": "contracts/PadiTokenStable.sol:PadiToken",
						"label": "redeemFeeBps",
						"offset": 22,
						"slot": "7",
						"type": "t_uint16"
					}
				],
				"types": {
					"t_address": {
						"encoding": "inplace",
						"label": "address",
						"numberOfBytes": "20"
					},
					"t_bool": {
						"encoding": "inplace",
						"label": "bool",
						"numberOfBytes": "1"
					},
					"t_mapping(t_address,t_mapping(t_address,t_uint256))": {
						"encoding": "mapping",
						"key": "t_address",
						"label": "mapping(address => mapping(address => uint256))",
						"numberOfBytes": "32",
						"value": "t_mapping(t_address,t_uint256)"
					},
					"t_mapping(t_address,t_uint256)": {
						"encoding": "mapping",
						"key": "t_address",
						"label": "mapping(address => uint256)",
						"numberOfBytes": "32",
						"value": "t_uint256"
					},
					"t_string_storage": {
						"encoding": "bytes",
						"label": "string",
						"numberOfBytes": "32"
					},
					"t_uint16": {
						"encoding": "inplace",
						"label": "uint16",
						"numberOfBytes": "2"
					},
					"t_uint256": {
						"encoding": "inplace",
						"label": "uint256",
						"numberOfBytes": "32"
					}
				}
			},
			"userdoc": {
				"kind": "user",
				"methods": {
					"MAX_SUPPLY()": {
						"notice": "Maximum PADI that can ever exist (1 billion * 10⁻¹⁸)"
					},
					"cusd()": {
						"notice": "Celo Stable USD (CUSD) token on Celo Mainnet"
					},
					"mint(uint256)": {
						"notice": "Lock CUSD and mint PADI, after deducting mint fee"
					},
					"mintFeeBps()": {
						"notice": "Fee on mint, in basis points (e.g. 2 = 0.02%)"
					},
					"pause()": {
						"notice": "Pause minting & redemption in an emergency (only owner)"
					},
					"redeem(uint256)": {
						"notice": "Burn PADI and redeem CUSD, after deducting redeem fee"
					},
					"redeemFeeBps()": {
						"notice": "Fee on redeem, in basis points"
					},
					"setFees(uint16,uint16)": {
						"notice": "Update the mint & redeem fees (only owner)"
					},
					"setTreasury(address)": {
						"notice": "Change the treasury address (only owner)"
					},
					"treasury()": {
						"notice": "Address that receives protocol fees"
					},
					"unpause()": {
						"notice": "Unpause minting & redemption (only owner)"
					}
				},
				"notice": "Mint and redeem at exactly 1 CUSD per PADI, minus a small protocol fee.",
				"version": 1
			}
		}
	}
}