{
	"data": {
		"bytecode": {
			"linkReferences": {},
			"object": "608060405260016002556001600355600160045534801561001e575f80fd5b50335f73ffffffffffffffffffffffffffffffffffffffff168173ffffffffffffffffffffffffffffffffffffffff1603610090575f6040517f1e4fbdf700000000000000000000000000000000000000000000000000000000815260040161008791906101a5565b60405180910390fd5b61009f816100a560201b60201c565b506101be565b5f805f9054906101000a900473ffffffffffffffffffffffffffffffffffffffff169050815f806101000a81548173ffffffffffffffffffffffffffffffffffffffff021916908373ffffffffffffffffffffffffffffffffffffffff1602179055508173ffffffffffffffffffffffffffffffffffffffff168173ffffffffffffffffffffffffffffffffffffffff167f8be0079c531659141344cd1fd0a4f28419497f9722a3daafe3b4186f6b6457e060405160405180910390a35050565b5f73ffffffffffffffffffffffffffffffffffffffff82169050919050565b5f61018f82610166565b9050919050565b61019f81610185565b82525050565b5f6020820190506101b85f830184610196565b92915050565b614d5d806101cb5f395ff3fe608060405234801561000f575f80fd5b50600436106101c2575f3560e01c80638bfeffe5116100f7578063af947d0511610095578063f09790dd1161006f578063f09790dd14610555578063f2fde38b14610585578063f47be477146105a1578063fbbca380146105bd576101c2565b8063af947d05146104eb578063c0a4775314610507578063e0ecef9214610537576101c2565b8063a230c524116100d1578063a230c52414610451578063a599681f14610481578063a6c6a8f31461049d578063ae99004c146104cd576101c2565b80638bfeffe5146103cd5780638c2f59e4146103fe5780638da5cb5b14610433576101c2565b80635939a84e11610164578063845000011161013e578063845000011461032657806384dc08061461034257806384e49bce14610360578063872ea68a14610397576101c2565b80635939a84e146102ce5780636350eae8146102fe578063715018a61461031c576101c2565b80631ed9772f116101a05780631ed9772f14610232578063213b6360146102665780633b9cccf014610282578063554ae5671461029e576101c2565b806308ae4b0c146101c65780630b98d45a146101f65780630fd1966814610214575b5f80fd5b6101e060048036038101906101db91906128ef565b6105ed565b6040516101ed9190612a64565b60405180910390f35b6101fe6107b5565b60405161020b9190612a93565b60405180910390f35b61021c610860565b6040516102299190612a93565b60405180910390f35b61024c600480360381019061024791906128ef565b610866565b60405161025d959493929190612b12565b60405180910390f35b610280600480360381019061027b9190612bb6565b610949565b005b61029c600480360381019061029791906128ef565b610acf565b005b6102b860048036038101906102b391906128ef565b610b88565b6040516102c59190612d45565b60405180910390f35b6102e860048036038101906102e391906128ef565b610d47565b6040516102f59190612d65565b60405180910390f35b610306610d99565b6040516103139190612a93565b60405180910390f35b610324610d9f565b005b610340600480360381019061033b9190612d9c565b610db2565b005b61034a611009565b6040516103579190612a93565b60405180910390f35b61037a60048036038101906103759190612de3565b6110b4565b60405161038e989796959493929190612e0e565b60405180910390f35b6103b160048036038101906103ac91906128ef565b6111c8565b6040516103c49796959493929190612e91565b60405180910390f35b6103e760048036038101906103e291906128ef565b6112d6565b6040516103f5929190612f71565b60405180910390f35b61041860048036038101906104139190612de3565b6113fc565b60405161042a96959493929190613019565b60405180910390f35b61043b611505565b604051610448919061307f565b60405180910390f35b61046b600480360381019061046691906128ef565b61152c565b6040516104789190612d65565b60405180910390f35b61049b600480360381019061049691906130b7565b61157e565b005b6104b760048036038101906104b29190612de3565b6116e1565b6040516104c491906133a5565b60405180910390f35b6104d5611b87565b6040516104e29190612a93565b60405180910390f35b610505600480360381019061050091906133e3565b611b8d565b005b610521600480360381019061051c91906128ef565b611dea565b60405161052e9190612d65565b60405180910390f35b61053f611e07565b60405161054c919061307f565b60405180910390f35b61056f600480360381019061056a9190612de3565b611e2c565b60405161057c91906134d7565b60405180910390f35b61059f600480360381019061059a91906128ef565b611fd3565b005b6105bb60048036038101906105b69190613516565b612057565b005b6105d760048036038101906105d291906128ef565b612321565b6040516105e49190612d65565b60405180910390f35b6105f56126f4565b60055f8373ffffffffffffffffffffffffffffffffffffffff1673ffffffffffffffffffffffffffffffffffffffff1681526020019081526020015f206040518060e00160405290815f82015f9054906101000a900473ffffffffffffffffffffffffffffffffffffffff1673ffffffffffffffffffffffffffffffffffffffff1673ffffffffffffffffffffffffffffffffffffffff168152602001600182015f9054906101000a900473ffffffffffffffffffffffffffffffffffffffff1673ffffffffffffffffffffffffffffffffffffffff1673ffffffffffffffffffffffffffffffffffffffff168152602001600282015481526020016003820180546107009061358a565b80601f016020809104026020016040519081016040528092919081815260200182805461072c9061358a565b80156107775780601f1061074e57610100808354040283529160200191610777565b820191905f5260205f20905b81548152906001019060200180831161075a57829003601f168201915b505050505081526020016004820154815260200160058201548152602001600682015f9054906101000a900460ff1615151515815250509050919050565b5f60015f9054906101000a900473ffffffffffffffffffffffffffffffffffffffff1673ffffffffffffffffffffffffffffffffffffffff163373ffffffffffffffffffffffffffffffffffffffff1614610845576040517f08c379a000000000000000000000000000000000000000000000000000000000815260040161083c90613604565b60405180910390fd5b60045f8154809291906108579061364f565b91905055905090565b60045481565b6006602052805f5260405f205f91509050805f015f9054906101000a900473ffffffffffffffffffffffffffffffffffffffff16908060020180546108aa9061358a565b80601f01602080910402602001604051908101604052809291908181526020018280546108d69061358a565b80156109215780601f106108f857610100808354040283529160200191610921565b820191905f5260205f20905b81548152906001019060200180831161090457829003601f168201915b505050505090806003015490806004015490806005015f9054906101000a900460ff16905085565b60015f9054906101000a900473ffffffffffffffffffffffffffffffffffffffff1673ffffffffffffffffffffffffffffffffffffffff163373ffffffffffffffffffffffffffffffffffffffff16146109d8576040517f08c379a00000000000000000000000000000000000000000000000000000000081526004016109cf90613604565b60405180910390fd5b5f60085f8481526020019081526020015f2090505f815f015403610a31576040517f08c379a0000000000000000000000000000000000000000000000000000000008152600401610a28906136e0565b60405180910390fd5b8060050182908060018154018082558091505060019003905f5260205f2090600402015f909190919091508181610a689190614003565b5050815f016020810190610a7c91906128ef565b73ffffffffffffffffffffffffffffffffffffffff16837f37b3e104208f85d1df430bbefbe3fee48f2b666f587576036f4d60ef673af50c42604051610ac29190612a93565b60405180910390a3505050565b610ad761233e565b5f73ffffffffffffffffffffffffffffffffffffffff168173ffffffffffffffffffffffffffffffffffffffff1603610b45576040517f08c379a0000000000000000000000000000000000000000000000000000000008152600401610b3c9061405b565b60405180910390fd5b8060015f6101000a81548173ffffffffffffffffffffffffffffffffffffffff021916908373ffffffffffffffffffffffffffffffffffffffff16021790555050565b610b90612759565b60065f8373ffffffffffffffffffffffffffffffffffffffff1673ffffffffffffffffffffffffffffffffffffffff1681526020019081526020015f206040518060c00160405290815f82015f9054906101000a900473ffffffffffffffffffffffffffffffffffffffff1673ffffffffffffffffffffffffffffffffffffffff1673ffffffffffffffffffffffffffffffffffffffff16815260200160018201805480602002602001604051908101604052809291908181526020018280548015610c7957602002820191905f5260205f20905b815481526020019060010190808311610c65575b50505050508152602001600282018054610c929061358a565b80601f0160208091040260200160405190810160405280929190818152602001828054610cbe9061358a565b8015610d095780601f10610ce057610100808354040283529160200191610d09565b820191905f5260205f20905b815481529060010190602001808311610cec57829003601f168201915b505050505081526020016003820154815260200160048201548152602001600582015f9054906101000a900460ff1615151515815250509050919050565b5f600a5f8373ffffffffffffffffffffffffffffffffffffffff1673ffffffffffffffffffffffffffffffffffffffff1681526020019081526020015f205f9054906101000a900460ff169050919050565b60035481565b610da761233e565b610db05f6123c5565b565b60015f9054906101000a900473ffffffffffffffffffffffffffffffffffffffff1673ffffffffffffffffffffffffffffffffffffffff163373ffffffffffffffffffffffffffffffffffffffff1614610e41576040517f08c379a0000000000000000000000000000000000000000000000000000000008152600401610e3890613604565b60405180910390fd5b5f73ffffffffffffffffffffffffffffffffffffffff16815f016020810190610e6a91906128ef565b73ffffffffffffffffffffffffffffffffffffffff1603610ec0576040517f08c379a0000000000000000000000000000000000000000000000000000000008152600401610eb7906140c3565b60405180910390fd5b8060065f835f016020810190610ed691906128ef565b73ffffffffffffffffffffffffffffffffffffffff1673ffffffffffffffffffffffffffffffffffffffff1681526020019081526020015f208181610f1b91906143e2565b9050508060a0016020810190610f319190614404565b600a5f835f016020810190610f4691906128ef565b73ffffffffffffffffffffffffffffffffffffffff1673ffffffffffffffffffffffffffffffffffffffff1681526020019081526020015f205f6101000a81548160ff021916908315150217905550805f016020810190610fa791906128ef565b73ffffffffffffffffffffffffffffffffffffffff167f59f9be63244670bcbd7b4ada776836c9e0dc14f711cae29fa2e2f527d4f7e3b18260a0016020810190610ff19190614404565b604051610ffe9190612d65565b60405180910390a250565b5f60015f9054906101000a900473ffffffffffffffffffffffffffffffffffffffff1673ffffffffffffffffffffffffffffffffffffffff163373ffffffffffffffffffffffffffffffffffffffff1614611099576040517f08c379a000000000000000000000000000000000000000000000000000000000815260040161109090613604565b60405180910390fd5b60035f8154809291906110ab9061364f565b91905055905090565b6007602052805f5260405f205f91509050805f015490806001015f9054906101000a900473ffffffffffffffffffffffffffffffffffffffff1690806002015f9054906101000a900473ffffffffffffffffffffffffffffffffffffffff16908060030180546111239061358a565b80601f016020809104026020016040519081016040528092919081815260200182805461114f9061358a565b801561119a5780601f106111715761010080835404028352916020019161119a565b820191905f5260205f20905b81548152906001019060200180831161117d57829003601f168201915b505050505090806004015490806005015490806006015f9054906101000a900460ff16908060070154905088565b6005602052805f5260405f205f91509050805f015f9054906101000a900473ffffffffffffffffffffffffffffffffffffffff1690806001015f9054906101000a900473ffffffffffffffffffffffffffffffffffffffff16908060020154908060030180546112379061358a565b80601f01602080910402602001604051908101604052809291908181526020018280546112639061358a565b80156112ae5780601f10611285576101008083540402835291602001916112ae565b820191905f5260205f20905b81548152906001019060200180831161129157829003601f168201915b505050505090806004015490806005015490806006015f9054906101000a900460ff16905087565b606080600b5f8473ffffffffffffffffffffffffffffffffffffffff1673ffffffffffffffffffffffffffffffffffffffff1681526020019081526020015f20600c5f8573ffffffffffffffffffffffffffffffffffffffff1673ffffffffffffffffffffffffffffffffffffffff1681526020019081526020015f208180548060200260200160405190810160405280929190818152602001828054801561139c57602002820191905f5260205f20905b815481526020019060010190808311611388575b50505050509150808054806020026020016040519081016040528092919081815260200182805480156113ec57602002820191905f5260205f20905b8154815260200190600101908083116113d8575b5050505050905091509150915091565b6008602052805f5260405f205f91509050805f015490806001015f9054906101000a900473ffffffffffffffffffffffffffffffffffffffff16908060020180546114469061358a565b80601f01602080910402602001604051908101604052809291908181526020018280546114729061358a565b80156114bd5780601f10611494576101008083540402835291602001916114bd565b820191905f5260205f20905b8154815290600101906020018083116114a057829003601f168201915b505050505090806003015490806004015f9054906101000a900460ff16908060040160019054906101000a900473ffffffffffffffffffffffffffffffffffffffff16905086565b5f805f9054906101000a900473ffffffffffffffffffffffffffffffffffffffff16905090565b5f60095f8373ffffffffffffffffffffffffffffffffffffffff1673ffffffffffffffffffffffffffffffffffffffff1681526020019081526020015f205f9054906101000a900460ff169050919050565b60015f9054906101000a900473ffffffffffffffffffffffffffffffffffffffff1673ffffffffffffffffffffffffffffffffffffffff163373ffffffffffffffffffffffffffffffffffffffff161461160d576040517f08c379a000000000000000000000000000000000000000000000000000000000815260040161160490613604565b60405180910390fd5b5f815f013503611652576040517f08c379a000000000000000000000000000000000000000000000000000000000815260040161164990614479565b60405180910390fd5b8060085f835f013581526020019081526020015f20818161167391906148b6565b90505080602001602081019061168991906128ef565b73ffffffffffffffffffffffffffffffffffffffff16815f01357f159eae2587974b857c8b28d8d49d8cca50cc87fc9b0bd9bd76467f77aaf5c8b683606001356040516116d69190612a93565b60405180910390a350565b6116e96127a3565b60085f8381526020019081526020015f20604051806101000160405290815f8201548152602001600182015f9054906101000a900473ffffffffffffffffffffffffffffffffffffffff1673ffffffffffffffffffffffffffffffffffffffff1673ffffffffffffffffffffffffffffffffffffffff1681526020016002820180546117749061358a565b80601f01602080910402602001604051908101604052809291908181526020018280546117a09061358a565b80156117eb5780601f106117c2576101008083540402835291602001916117eb565b820191905f5260205f20905b8154815290600101906020018083116117ce57829003601f168201915b5050505050815260200160038201548152602001600482015f9054906101000a900460ff16600281111561182257611821612fa6565b5b600281111561183457611833612fa6565b5b81526020016004820160019054906101000a900473ffffffffffffffffffffffffffffffffffffffff1673ffffffffffffffffffffffffffffffffffffffff1673ffffffffffffffffffffffffffffffffffffffff16815260200160058201805480602002602001604051908101604052809291908181526020015f905b82821015611aa4578382905f5260205f2090600402016040518060800160405290815f82015f9054906101000a900473ffffffffffffffffffffffffffffffffffffffff1673ffffffffffffffffffffffffffffffffffffffff1673ffffffffffffffffffffffffffffffffffffffff168152602001600182015481526020016002820180546119419061358a565b80601f016020809104026020016040519081016040528092919081815260200182805461196d9061358a565b80156119b85780601f1061198f576101008083540402835291602001916119b8565b820191905f5260205f20905b81548152906001019060200180831161199b57829003601f168201915b5050505050815260200160038201805480602002602001604051908101604052809291908181526020015f905b82821015611a8d578382905f5260205f20018054611a029061358a565b80601f0160208091040260200160405190810160405280929190818152602001828054611a2e9061358a565b8015611a795780601f10611a5057610100808354040283529160200191611a79565b820191905f5260205f20905b815481529060010190602001808311611a5c57829003601f168201915b5050505050815260200190600101906119e5565b5050505081525050815260200190600101906118b2565b50505050815260200160068201805480602002602001604051908101604052809291908181526020015f905b82821015611b78578382905f5260205f20018054611aed9061358a565b80601f0160208091040260200160405190810160405280929190818152602001828054611b199061358a565b8015611b645780601f10611b3b57610100808354040283529160200191611b64565b820191905f5260205f20905b815481529060010190602001808311611b4757829003601f168201915b505050505081526020019060010190611ad0565b50505050815250509050919050565b60025481565b60015f9054906101000a900473ffffffffffffffffffffffffffffffffffffffff1673ffffffffffffffffffffffffffffffffffffffff163373ffffffffffffffffffffffffffffffffffffffff1614611c1c576040517f08c379a0000000000000000000000000000000000000000000000000000000008152600401611c1390613604565b60405180910390fd5b5f73ffffffffffffffffffffffffffffffffffffffff16815f016020810190611c4591906128ef565b73ffffffffffffffffffffffffffffffffffffffff1603611c9b576040517f08c379a0000000000000000000000000000000000000000000000000000000008152600401611c929061490e565b60405180910390fd5b8060055f835f016020810190611cb191906128ef565b73ffffffffffffffffffffffffffffffffffffffff1673ffffffffffffffffffffffffffffffffffffffff1681526020019081526020015f208181611cf69190614a15565b9050508060c0016020810190611d0c9190614404565b60095f835f016020810190611d2191906128ef565b73ffffffffffffffffffffffffffffffffffffffff1673ffffffffffffffffffffffffffffffffffffffff1681526020019081526020015f205f6101000a81548160ff021916908315150217905550805f016020810190611d8291906128ef565b73ffffffffffffffffffffffffffffffffffffffff167fd923ad306578f213c8e617f9102c59f7dc3f7a3c22f77ee29ac695de0ede78f682604001358360c0016020810190611dd19190614404565b604051611ddf929190614a23565b60405180910390a250565b600a602052805f5260405f205f915054906101000a900460ff1681565b60015f9054906101000a900473ffffffffffffffffffffffffffffffffffffffff1681565b611e34612821565b60075f8381526020019081526020015f20604051806101000160405290815f8201548152602001600182015f9054906101000a900473ffffffffffffffffffffffffffffffffffffffff1673ffffffffffffffffffffffffffffffffffffffff1673ffffffffffffffffffffffffffffffffffffffff168152602001600282015f9054906101000a900473ffffffffffffffffffffffffffffffffffffffff1673ffffffffffffffffffffffffffffffffffffffff1673ffffffffffffffffffffffffffffffffffffffff168152602001600382018054611f149061358a565b80601f0160208091040260200160405190810160405280929190818152602001828054611f409061358a565b8015611f8b5780601f10611f6257610100808354040283529160200191611f8b565b820191905f5260205f20905b815481529060010190602001808311611f6e57829003601f168201915b505050505081526020016004820154815260200160058201548152602001600682015f9054906101000a900460ff161515151581526020016007820154815250509050919050565b611fdb61233e565b5f73ffffffffffffffffffffffffffffffffffffffff168173ffffffffffffffffffffffffffffffffffffffff160361204b575f6040517f1e4fbdf7000000000000000000000000000000000000000000000000000000008152600401612042919061307f565b60405180910390fd5b612054816123c5565b50565b60015f9054906101000a900473ffffffffffffffffffffffffffffffffffffffff1673ffffffffffffffffffffffffffffffffffffffff163373ffffffffffffffffffffffffffffffffffffffff16146120e6576040517f08c379a00000000000000000000000000000000000000000000000000000000081526004016120dd90613604565b60405180910390fd5b5f815f01350361212b576040517f08c379a000000000000000000000000000000000000000000000000000000000815260040161212290614a94565b60405180910390fd5b5f73ffffffffffffffffffffffffffffffffffffffff1681602001602081019061215591906128ef565b73ffffffffffffffffffffffffffffffffffffffff16036121ab576040517f08c379a00000000000000000000000000000000000000000000000000000000081526004016121a290614afc565b60405180910390fd5b5f73ffffffffffffffffffffffffffffffffffffffff168160400160208101906121d591906128ef565b73ffffffffffffffffffffffffffffffffffffffff160361222b576040517f08c379a000000000000000000000000000000000000000000000000000000000815260040161222290614b64565b60405180910390fd5b8060c001602081019061223e9190614404565b156122515761224c81612486565b61225b565b61225a81612607565b5b8060075f835f013581526020019081526020015f20818161227c9190614c8c565b90505080604001602081019061229291906128ef565b73ffffffffffffffffffffffffffffffffffffffff168160200160208101906122bb91906128ef565b73ffffffffffffffffffffffffffffffffffffffff16825f01357f3087c877b53a5024e8f601ea7f932c61bd51c5b78d732358bdab9821c26e67f58460c00160208101906123099190614404565b6040516123169190612d65565b60405180910390a450565b6009602052805f5260405f205f915054906101000a900460ff1681565b612346612697565b73ffffffffffffffffffffffffffffffffffffffff16612364611505565b73ffffffffffffffffffffffffffffffffffffffff16146123c357612387612697565b6040517f118cdaa70000000000000000000000000000000000000000000000000000000081526004016123ba919061307f565b60405180910390fd5b565b5f805f9054906101000a900473ffffffffffffffffffffffffffffffffffffffff169050815f806101000a81548173ffffffffffffffffffffffffffffffffffffffff021916908373ffffffffffffffffffffffffffffffffffffffff1602179055508173ffffffffffffffffffffffffffffffffffffffff168173ffffffffffffffffffffffffffffffffffffffff167f8be0079c531659141344cd1fd0a4f28419497f9722a3daafe3b4186f6b6457e060405160405180910390a35050565b5f600b5f83604001602081019061249d91906128ef565b73ffffffffffffffffffffffffffffffffffffffff1673ffffffffffffffffffffffffffffffffffffffff1681526020019081526020015f2090505f5b818054905081101561258c57825f01358282815481106124fd576124fc614c9a565b5b905f5260205f2001540361257f57816001838054905061251d9190614cc7565b8154811061252e5761252d614c9a565b5b905f5260205f20015482828154811061254a57612549614c9a565b5b905f5260205f2001819055508180548061256757612566614cfa565b5b600190038181905f5260205f20015f9055905561258c565b80806001019150506124da565b50600c5f8360400160208101906125a391906128ef565b73ffffffffffffffffffffffffffffffffffffffff1673ffffffffffffffffffffffffffffffffffffffff1681526020019081526020015f20825f0135908060018154018082558091505060019003905f5260205f20015f90919091909150555050565b5f600b5f83604001602081019061261e91906128ef565b73ffffffffffffffffffffffffffffffffffffffff1673ffffffffffffffffffffffffffffffffffffffff1681526020019081526020015f20905061266681835f013561269e565b6126935780825f0135908060018154018082558091505060019003905f5260205f20015f90919091909150555b5050565b5f33905090565b5f805f90505b83805490508110156126e957828482815481106126c4576126c3614c9a565b5b905f5260205f200154036126dc5760019150506126ee565b80806001019150506126a4565b505f90505b92915050565b6040518060e001604052805f73ffffffffffffffffffffffffffffffffffffffff1681526020015f73ffffffffffffffffffffffffffffffffffffffff1681526020015f8152602001606081526020015f81526020015f81526020015f151581525090565b6040518060c001604052805f73ffffffffffffffffffffffffffffffffffffffff16815260200160608152602001606081526020015f81526020015f81526020015f151581525090565b6040518061010001604052805f81526020015f73ffffffffffffffffffffffffffffffffffffffff168152602001606081526020015f81526020015f60028111156127f1576127f0612fa6565b5b81526020015f73ffffffffffffffffffffffffffffffffffffffff16815260200160608152602001606081525090565b6040518061010001604052805f81526020015f73ffffffffffffffffffffffffffffffffffffffff1681526020015f73ffffffffffffffffffffffffffffffffffffffff168152602001606081526020015f81526020015f81526020015f151581526020015f81525090565b5f80fd5b5f80fd5b5f73ffffffffffffffffffffffffffffffffffffffff82169050919050565b5f6128be82612895565b9050919050565b6128ce816128b4565b81146128d8575f80fd5b50565b5f813590506128e9816128c5565b92915050565b5f602082840312156129045761290361288d565b5b5f612911848285016128db565b91505092915050565b612923816128b4565b82525050565b5f819050919050565b61293b81612929565b82525050565b5f81519050919050565b5f82825260208201905092915050565b8281835e5f83830152505050565b5f601f19601f8301169050919050565b5f61298382612941565b61298d818561294b565b935061299d81856020860161295b565b6129a681612969565b840191505092915050565b5f8115159050919050565b6129c5816129b1565b82525050565b5f60e083015f8301516129e05f86018261291a565b5060208301516129f3602086018261291a565b506040830151612a066040860182612932565b5060608301518482036060860152612a1e8282612979565b9150506080830151612a336080860182612932565b5060a0830151612a4660a0860182612932565b5060c0830151612a5960c08601826129bc565b508091505092915050565b5f6020820190508181035f830152612a7c81846129cb565b905092915050565b612a8d81612929565b82525050565b5f602082019050612aa65f830184612a84565b92915050565b612ab5816128b4565b82525050565b5f82825260208201905092915050565b5f612ad582612941565b612adf8185612abb565b9350612aef81856020860161295b565b612af881612969565b840191505092915050565b612b0c816129b1565b82525050565b5f60a082019050612b255f830188612aac565b8181036020830152612b378187612acb565b9050612b466040830186612a84565b612b536060830185612a84565b612b606080830184612b03565b9695505050505050565b612b7381612929565b8114612b7d575f80fd5b50565b5f81359050612b8e81612b6a565b92915050565b5f80fd5b5f60808284031215612bad57612bac612b94565b5b81905092915050565b5f8060408385031215612bcc57612bcb61288d565b5b5f612bd985828601612b80565b925050602083013567ffffffffffffffff811115612bfa57612bf9612891565b5b612c0685828601612b98565b9150509250929050565b5f81519050919050565b5f82825260208201905092915050565b5f819050602082019050919050565b5f612c448383612932565b60208301905092915050565b5f602082019050919050565b5f612c6682612c10565b612c708185612c1a565b9350612c7b83612c2a565b805f5b83811015612cab578151612c928882612c39565b9750612c9d83612c50565b925050600181019050612c7e565b5085935050505092915050565b5f60c083015f830151612ccd5f86018261291a565b5060208301518482036020860152612ce58282612c5c565b91505060408301518482036040860152612cff8282612979565b9150506060830151612d146060860182612932565b506080830151612d276080860182612932565b5060a0830151612d3a60a08601826129bc565b508091505092915050565b5f6020820190508181035f830152612d5d8184612cb8565b905092915050565b5f602082019050612d785f830184612b03565b92915050565b5f60c08284031215612d9357612d92612b94565b5b81905092915050565b5f60208284031215612db157612db061288d565b5b5f82013567ffffffffffffffff811115612dce57612dcd612891565b5b612dda84828501612d7e565b91505092915050565b5f60208284031215612df857612df761288d565b5b5f612e0584828501612b80565b91505092915050565b5f61010082019050612e225f83018b612a84565b612e2f602083018a612aac565b612e3c6040830189612aac565b8181036060830152612e4e8188612acb565b9050612e5d6080830187612a84565b612e6a60a0830186612a84565b612e7760c0830185612b03565b612e8460e0830184612a84565b9998505050505050505050565b5f60e082019050612ea45f83018a612aac565b612eb16020830189612aac565b612ebe6040830188612a84565b8181036060830152612ed08187612acb565b9050612edf6080830186612a84565b612eec60a0830185612a84565b612ef960c0830184612b03565b98975050505050505050565b5f82825260208201905092915050565b5f612f1f82612c10565b612f298185612f05565b9350612f3483612c2a565b805f5b83811015612f64578151612f4b8882612c39565b9750612f5683612c50565b925050600181019050612f37565b5085935050505092915050565b5f6040820190508181035f830152612f898185612f15565b90508181036020830152612f9d8184612f15565b90509392505050565b7f4e487b71000000000000000000000000000000000000000000000000000000005f52602160045260245ffd5b60038110612fe457612fe3612fa6565b5b50565b5f819050612ff482612fd3565b919050565b5f61300382612fe7565b9050919050565b61301381612ff9565b82525050565b5f60c08201905061302c5f830189612a84565b6130396020830188612aac565b818103604083015261304b8187612acb565b905061305a6060830186612a84565b613067608083018561300a565b61307460a0830184612aac565b979650505050505050565b5f6020820190506130925f830184612aac565b92915050565b5f61010082840312156130ae576130ad612b94565b5b81905092915050565b5f602082840312156130cc576130cb61288d565b5b5f82013567ffffffffffffffff8111156130e9576130e8612891565b5b6130f584828501613098565b91505092915050565b61310781612ff9565b82525050565b5f81519050919050565b5f82825260208201905092915050565b5f819050602082019050919050565b5f81519050919050565b5f82825260208201905092915050565b5f819050602082019050919050565b5f61316a8383612979565b905092915050565b5f602082019050919050565b5f61318882613136565b6131928185613140565b9350836020820285016131a485613150565b805f5b858110156131df57848403895281516131c0858261315f565b94506131cb83613172565b925060208a019950506001810190506131a7565b50829750879550505050505092915050565b5f608083015f8301516132065f86018261291a565b5060208301516132196020860182612932565b50604083015184820360408601526132318282612979565b9150506060830151848203606086015261324b828261317e565b9150508091505092915050565b5f61326383836131f1565b905092915050565b5f602082019050919050565b5f6132818261310d565b61328b8185613117565b93508360208202850161329d85613127565b805f5b858110156132d857848403895281516132b98582613258565b94506132c48361326b565b925060208a019950506001810190506132a0565b50829750879550505050505092915050565b5f61010083015f8301516133005f860182612932565b506020830151613313602086018261291a565b506040830151848203604086015261332b8282612979565b91505060608301516133406060860182612932565b50608083015161335360808601826130fe565b5060a083015161336660a086018261291a565b5060c083015184820360c086015261337e8282613277565b91505060e083015184820360e0860152613398828261317e565b9150508091505092915050565b5f6020820190508181035f8301526133bd81846132ea565b905092915050565b5f60e082840312156133da576133d9612b94565b5b81905092915050565b5f602082840312156133f8576133f761288d565b5b5f82013567ffffffffffffffff81111561341557613414612891565b5b613421848285016133c5565b91505092915050565b5f61010083015f8301516134405f860182612932565b506020830151613453602086018261291a565b506040830151613466604086018261291a565b506060830151848203606086015261347e8282612979565b91505060808301516134936080860182612932565b5060a08301516134a660a0860182612932565b5060c08301516134b960c08601826129bc565b5060e08301516134cc60e0860182612932565b508091505092915050565b5f6020820190508181035f8301526134ef818461342a565b905092915050565b5f610100828403121561350d5761350c612b94565b5b81905092915050565b5f6020828403121561352b5761352a61288d565b5b5f82013567ffffffffffffffff81111561354857613547612891565b5b613554848285016134f7565b91505092915050565b7f4e487b71000000000000000000000000000000000000000000000000000000005f52602260045260245ffd5b5f60028204905060018216806135a157607f821691505b6020821081036135b4576135b361355d565b5b50919050565b7f556e617574686f72697a656420616363657373000000000000000000000000005f82015250565b5f6135ee601383612abb565b91506135f9826135ba565b602082019050919050565b5f6020820190508181035f83015261361b816135e2565b9050919050565b7f4e487b71000000000000000000000000000000000000000000000000000000005f52601160045260245ffd5b5f61365982612929565b91507fffffffffffffffffffffffffffffffffffffffffffffffffffffffffffffffff820361368b5761368a613622565b5b600182019050919050565b7f496e636964656e7420646f6573206e6f742065786973740000000000000000005f82015250565b5f6136ca601783612abb565b91506136d582613696565b602082019050919050565b5f6020820190508181035f8301526136f7816136be565b9050919050565b7f4e487b71000000000000000000000000000000000000000000000000000000005f525f60045260245ffd5b5f8135613736816128c5565b80915050919050565b5f815f1b9050919050565b5f73ffffffffffffffffffffffffffffffffffffffff6137698461373f565b9350801983169250808416831791505092915050565b5f819050919050565b5f6137a261379d61379884612895565b61377f565b612895565b9050919050565b5f6137b382613788565b9050919050565b5f6137c4826137a9565b9050919050565b5f819050919050565b6137dd826137ba565b6137f06137e9826137cb565b835461374a565b8255505050565b5f813561380381612b6a565b80915050919050565b5f7fffffffffffffffffffffffffffffffffffffffffffffffffffffffffffffffff6138378461373f565b9350801983169250808416831791505092915050565b5f61386761386261385d84612929565b61377f565b612929565b9050919050565b5f819050919050565b6138808261384d565b61389361388c8261386e565b835461380c565b8255505050565b5f80fd5b5f80fd5b5f80fd5b5f80833560016020038436030381126138c2576138c161389a565b5b80840192508235915067ffffffffffffffff8211156138e4576138e361389e565b5b602083019250600182023603831315613900576138ff6138a2565b5b509250929050565b5f82905092915050565b7f4e487b71000000000000000000000000000000000000000000000000000000005f52604160045260245ffd5b5f819050815f5260205f209050919050565b5f6020601f8301049050919050565b5f82821b905092915050565b5f6008830261399b7fffffffffffffffffffffffffffffffffffffffffffffffffffffffffffffffff82613960565b6139a58683613960565b95508019841693508086168417925050509392505050565b6139c68361384d565b6139da6139d28261386e565b84845461396c565b825550505050565b5f90565b6139ee6139e2565b6139f98184846139bd565b505050565b5b81811015613a1c57613a115f826139e6565b6001810190506139ff565b5050565b601f821115613a6157613a328161393f565b613a3b84613951565b81016020851015613a4a578190505b613a5e613a5685613951565b8301826139fe565b50505b505050565b5f82821c905092915050565b5f613a815f1984600802613a66565b1980831691505092915050565b5f613a998383613a72565b9150826002028217905092915050565b613ab38383613908565b67ffffffffffffffff811115613acc57613acb613912565b5b613ad6825461358a565b613ae1828285613a20565b5f601f831160018114613b0e575f8415613afc578287013590505b613b068582613a8e565b865550613b6d565b601f198416613b1c8661393f565b5f5b82811015613b4357848901358255600182019150602085019450602081019050613b1e565b86831015613b605784890135613b5c601f891682613a72565b8355505b6001600288020188555050505b50505050505050565b613b81838383613aa9565b505050565b5f8083356001602003843603038112613ba257613ba161389a565b5b80840192508235915067ffffffffffffffff821115613bc457613bc361389e565b5b602083019250602082023603831315613be057613bdf6138a2565b5b509250929050565b5f819050919050565b5f81549050919050565b5f613c0582612929565b9150613c1083612929565b9250828202613c1e81612929565b91508282048414831517613c3557613c34613622565b5b5092915050565b5f8190506001806001038301049050919050565b5f819050815f5260205f209050919050565b613c927fffffffffffffffffffffffffffffffffffffffffffffffffffffffffffffffff83602003600802613a66565b815481168255505050565b613ca68161393f565b613cb1838254613a8e565b8083555f825550505050565b602084105f8114613d1757601f841160018114613ce557613cde8685613a8e565b8355613d11565b613cee8361393f565b613d05613cfa87613951565b8201600183016139fe565b613d0f8785613c9d565b505b50613d64565b613d208261393f565b613d2986613951565b8101601f87168015613d4357613d428160018403613c62565b5b613d57613d4f88613951565b8401836139fe565b6001886002021785555050505b5050505050565b68010000000000000000841115613d8557613d84613912565b5b602083105f8114613dce57602085105f8114613dac57613da58685613a8e565b8355613dc8565b8360ff1916935083613dbd8461393f565b556001866002020183555b50613dd8565b6001856002020182555b5050505050565b8054613dea8161358a565b80841115613dff57613dfe84828486613d6b565b5b80841015613e1457613e1384828486613cbd565b5b50505050565b5b81811015613e3857613e2d5f826139e6565b600181019050613e1b565b5050565b613e465f82613ddf565b50565b5f8214613e5957613e586136fe565b5b613e6281613e3c565b5050565b5b81811015613e8457613e795f82613e49565b600181019050613e67565b5050565b81831015613ec157613e9982613c3c565b613ea284613c3c565b613eab83613c50565b818101838201613ebb8183613e66565b50505050505b505050565b68010000000000000000821115613ee057613edf613912565b5b613ee981613bf1565b828255613ef7838284613e88565b505050565b5f82905092915050565b613f108383613efc565b613f1a8183613ec6565b613f2383613be8565b613f2c83613c50565b5f5b83811015613f6457613f4083876138a6565b613f4b818386613b76565b6020850194506001840193505050600181019050613f2e565b50505050505050565b613f78838383613f06565b505050565b5f81015f830180613f8d8161372a565b9050613f9981846137d4565b505050600181016020830180613fae816137f7565b9050613fba8184613877565b5050506002810160408301613fcf81856138a6565b613fda818386613b76565b505050506003810160608301613ff08185613b86565b613ffb818386613f6d565b505050505050565b61400d8282613f7d565b5050565b7f496e76616c69642070726f746f636f6c206164647265737300000000000000005f82015250565b5f614045601883612abb565b915061405082614011565b602082019050919050565b5f6020820190508181035f83015261407281614039565b9050919050565b7f496e76616c6964206c61777965722061646472657373000000000000000000005f82015250565b5f6140ad601683612abb565b91506140b882614079565b602082019050919050565b5f6020820190508181035f8301526140da816140a1565b9050919050565b5f80833560016020038436030381126140fd576140fc61389a565b5b80840192508235915067ffffffffffffffff82111561411f5761411e61389e565b5b60208301925060208202360383131561413b5761413a6138a2565b5b509250929050565b5f81549050919050565b5f8190506001806001038301049050919050565b5f819050815f5260205f209050919050565b818310156141ac576141848261414d565b61418d8461414d565b61419683614161565b8181018382016141a68183613e1a565b50505050505b505050565b680100000000000000008211156141cb576141ca613912565b5b6141d481614143565b8282556141e2838284614173565b505050565b5f82905092915050565b5f819050919050565b61420483836141e7565b67ffffffffffffffff81111561421d5761421c613912565b5b61422781836141b1565b614230836141f1565b61423983614161565b600183045f5b81811015614276575f614251856137f7565b61425a8161386e565b809250602087019650505080828501555060018101905061423f565b5050505050505050565b61428b8383836141fa565b505050565b614299816129b1565b81146142a3575f80fd5b50565b5f81356142b281614290565b80915050919050565b5f60ff6142c78461373f565b9350801983169250808416831791505092915050565b5f6142e7826129b1565b9050919050565b5f819050919050565b614300826142dd565b61431361430c826142ee565b83546142bb565b8255505050565b5f81015f83018061432a8161372a565b905061433681846137d4565b505050600181016020830161434b81856140e1565b614356818386614280565b50505050600281016040830161436c81856138a6565b614377818386613b76565b5050505060038101606083018061438d816137f7565b90506143998184613877565b5050506004810160808301806143ae816137f7565b90506143ba8184613877565b5050506005810160a08301806143cf816142a6565b90506143db81846142f7565b5050505050565b6143ec828261431a565b5050565b5f813590506143fe81614290565b92915050565b5f602082840312156144195761441861288d565b5b5f614426848285016143f0565b91505092915050565b7f496e76616c696420696e636964656e74206964000000000000000000000000005f82015250565b5f614463601383612abb565b915061446e8261442f565b602082019050919050565b5f6020820190508181035f83015261449081614457565b9050919050565b600381106144a3575f80fd5b50565b5f81356144b281614497565b80915050919050565b5f6144c582612fe7565b9050919050565b5f819050919050565b6144de826144bb565b6144f16144ea826144cc565b83546142bb565b8255505050565b5f8160081b9050919050565b5f74ffffffffffffffffffffffffffffffffffffffff00614524846144f8565b9350801983169250808416831791505092915050565b614543826137ba565b61455661454f826137cb565b8354614504565b8255505050565b5f80833560016020038436030381126145795761457861389a565b5b80840192508235915067ffffffffffffffff82111561459b5761459a61389e565b5b6020830192506020820236038313156145b7576145b66138a2565b5b509250929050565b5f819050919050565b5f823560016080038336030381126145e3576145e261389a565b5b80830191505092915050565b5f81549050919050565b5f819050614608826004613bfb565b9050919050565b5f819050815f5260205f209050919050565b61462b5f82613ec6565b50565b5f821461463e5761463d6136fe565b5b61464781614621565b5050565b5f8082015561465d5f600183016139e6565b61466a5f60028301613e49565b6146775f6003830161462e565b50565b5f821461468a576146896136fe565b5b6146938161464b565b5050565b5b818110156146b5576146aa5f8261467a565b600481019050614698565b5050565b818310156146f2576146ca826145f9565b6146d3846145f9565b6146dc8361460f565b8181018382016146ec8183614697565b50505050505b505050565b6801000000000000000082111561471157614710613912565b5b61471a816145ef565b8282556147288382846146b9565b505050565b5f82905092915050565b614741838361472d565b61474b81836146f7565b614754836145bf565b61475d8361460f565b5f5b838110156147935761477183876145c8565b61477b8184614003565b6020840193506004830192505060018101905061475f565b50505050505050565b6147a7838383614737565b505050565b5f81015f8301806147bc816137f7565b90506147c88184613877565b5050506001810160208301806147dd8161372a565b90506147e981846137d4565b50505060028101604083016147fe81856138a6565b614809818386613b76565b5050505060038101606083018061481f816137f7565b905061482b8184613877565b505050600481016080830180614840816144a6565b905061484c81846144d5565b5050506004810160a08301806148618161372a565b905061486d818461453a565b5050506005810160c08301614882818561455d565b61488d81838661479c565b505050506006810160e083016148a38185613b86565b6148ae818386613f6d565b505050505050565b6148c082826147ac565b5050565b7f496e76616c6964206d656d6265722061646472657373000000000000000000005f82015250565b5f6148f8601683612abb565b9150614903826148c4565b602082019050919050565b5f6020820190508181035f830152614925816148ec565b9050919050565b5f81015f83018061493c8161372a565b905061494881846137d4565b50505060018101602083018061495d8161372a565b905061496981846137d4565b50505060028101604083018061497e816137f7565b905061498a8184613877565b505050600381016060830161499f81856138a6565b6149aa818386613b76565b505050506004810160808301806149c0816137f7565b90506149cc8184613877565b5050506005810160a08301806149e1816137f7565b90506149ed8184613877565b5050506006810160c0830180614a02816142a6565b9050614a0e81846142f7565b5050505050565b614a1f828261492c565b5050565b5f604082019050614a365f830185612a84565b614a436020830184612b03565b9392505050565b7f496e76616c6964206361736520494400000000000000000000000000000000005f82015250565b5f614a7e600f83612abb565b9150614a8982614a4a565b602082019050919050565b5f6020820190508181035f830152614aab81614a72565b9050919050565b7f496e76616c6964206d656d6265720000000000000000000000000000000000005f82015250565b5f614ae6600e83612abb565b9150614af182614ab2565b602082019050919050565b5f6020820190508181035f830152614b1381614ada565b9050919050565b7f496e76616c6964206c61777965720000000000000000000000000000000000005f82015250565b5f614b4e600e83612abb565b9150614b5982614b1a565b602082019050919050565b5f6020820190508181035f830152614b7b81614b42565b9050919050565b5f81015f830180614b92816137f7565b9050614b9e8184613877565b505050600181016020830180614bb38161372a565b9050614bbf81846137d4565b505050600281016040830180614bd48161372a565b9050614be081846137d4565b5050506003810160608301614bf581856138a6565b614c00818386613b76565b50505050600481016080830180614c16816137f7565b9050614c228184613877565b5050506005810160a0830180614c37816137f7565b9050614c438184613877565b5050506006810160c0830180614c58816142a6565b9050614c6481846142f7565b5050506007810160e0830180614c79816137f7565b9050614c858184613877565b5050505050565b614c968282614b82565b5050565b7f4e487b71000000000000000000000000000000000000000000000000000000005f52603260045260245ffd5b5f614cd182612929565b9150614cdc83612929565b9250828203905081811115614cf457614cf3613622565b5b92915050565b7f4e487b71000000000000000000000000000000000000000000000000000000005f52603160045260245ffdfea26469706673582212201a194bdfa16a021647b42c8ee2c6d967beb644ca2be4d6869824be767ba09e4764736f6c634300081a0033",
			"opcodes": "PUSH1 0x80 PUSH1 0x40 MSTORE PUSH1 0x1 PUSH1 0x2 SSTORE PUSH1 0x1 PUSH1 0x3 SSTORE PUSH1 0x1 PUSH1 0x4 SSTORE CALLVALUE DUP1 ISZERO PUSH2 0x1E JUMPI PUSH0 DUP1 REVERT JUMPDEST POP CALLER PUSH0 PUSH20 0xFFFFFFFFFFFFFFFFFFFFFFFFFFFFFFFFFFFFFFFF AND DUP2 PUSH20 0xFFFFFFFFFFFFFFFFFFFFFFFFFFFFFFFFFFFFFFFF AND SUB PUSH2 0x90 JUMPI PUSH0 PUSH1 0x40 MLOAD PUSH32 0x1E4FBDF700000000000000000000000000000000000000000000000000000000 DUP2 MSTORE PUSH1 0x4 ADD PUSH2 0x87 SWAP2 SWAP1 PUSH2 0x1A5 JUMP JUMPDEST PUSH1 0x40 MLOAD DUP1 SWAP2 SUB SWAP1 REVERT JUMPDEST PUSH2 0x9F DUP2 PUSH2 0xA5 PUSH1 0x20 SHL PUSH1 0x20 SHR JUMP JUMPDEST POP PUSH2 0x1BE JUMP JUMPDEST PUSH0 DUP1 PUSH0 SWAP1 SLOAD SWAP1 PUSH2 0x100 EXP SWAP1 DIV PUSH20 0xFFFFFFFFFFFFFFFFFFFFFFFFFFFFFFFFFFFFFFFF AND SWAP1 POP DUP2 PUSH0 DUP1 PUSH2 0x100 EXP DUP2 SLOAD DUP2 PUSH20 0xFFFFFFFFFFFFFFFFFFFFFFFFFFFFFFFFFFFFFFFF MUL NOT AND SWAP1 DUP4 PUSH20 0xFFFFFFFFFFFFFFFFFFFFFFFFFFFFFFFFFFFFFFFF AND MUL OR SWAP1 SSTORE POP DUP2 PUSH20 0xFFFFFFFFFFFFFFFFFFFFFFFFFFFFFFFFFFFFFFFF AND DUP2 PUSH20 0xFFFFFFFFFFFFFFFFFFFFFFFFFFFFFFFFFFFFFFFF AND PUSH32 0x8BE0079C531659141344CD1FD0A4F28419497F9722A3DAAFE3B4186F6B6457E0 PUSH1 0x40 MLOAD PUSH1 0x40 MLOAD DUP1 SWAP2 SUB SWAP1 LOG3 POP POP JUMP JUMPDEST PUSH0 PUSH20 0xFFFFFFFFFFFFFFFFFFFFFFFFFFFFFFFFFFFFFFFF DUP3 AND SWAP1 POP SWAP2 SWAP1 POP JUMP JUMPDEST PUSH0 PUSH2 0x18F DUP3 PUSH2 0x166 JUMP JUMPDEST SWAP1 POP SWAP2 SWAP1 POP JUMP JUMPDEST PUSH2 0x19F DUP2 PUSH2 0x185 JUMP JUMPDEST DUP3 MSTORE POP POP JUMP JUMPDEST PUSH0 PUSH1 0x20 DUP3 ADD SWAP1 POP PUSH2 0x1B8 PUSH0 DUP4 ADD DUP5 PUSH2 0x196 JUMP JUMPDEST SWAP3 SWAP2 POP POP JUMP JUMPDEST PUSH2 0x4D5D DUP1 PUSH2 0x1CB PUSH0 CODECOPY PUSH0 RETURN INVALID PUSH1 0x80 PUSH1 0x40 MSTORE CALLVALUE DUP1 ISZERO PUSH2 0xF JUMPI PUSH0 DUP1 REVERT JUMPDEST POP PUSH1 0x4 CALLDATASIZE LT PUSH2 0x1C2 JUMPI PUSH0 CALLDATALOAD PUSH1 0xE0 SHR DUP1 PUSH4 0x8BFEFFE5 GT PUSH2 0xF7 JUMPI DUP1 PUSH4 0xAF947D05 GT PUSH2 0x95 JUMPI DUP1 PUSH4 0xF09790DD GT PUSH2 0x6F JUMPI DUP1 PUSH4 0xF09790DD EQ PUSH2 0x555 JUMPI DUP1 PUSH4 0xF2FDE38B EQ PUSH2 0x585 JUMPI DUP1 PUSH4 0xF47BE477 EQ PUSH2 0x5A1 JUMPI DUP1 PUSH4 0xFBBCA380 EQ PUSH2 0x5BD JUMPI PUSH2 0x1C2 JUMP JUMPDEST DUP1 PUSH4 0xAF947D05 EQ PUSH2 0x4EB JUMPI DUP1 PUSH4 0xC0A47753 EQ PUSH2 0x507 JUMPI DUP1 PUSH4 0xE0ECEF92 EQ PUSH2 0x537 JUMPI PUSH2 0x1C2 JUMP JUMPDEST DUP1 PUSH4 0xA230C524 GT PUSH2 0xD1 JUMPI DUP1 PUSH4 0xA230C524 EQ PUSH2 0x451 JUMPI DUP1 PUSH4 0xA599681F EQ PUSH2 0x481 JUMPI DUP1 PUSH4 0xA6C6A8F3 EQ PUSH2 0x49D JUMPI DUP1 PUSH4 0xAE99004C EQ PUSH2 0x4CD JUMPI PUSH2 0x1C2 JUMP JUMPDEST DUP1 PUSH4 0x8BFEFFE5 EQ PUSH2 0x3CD JUMPI DUP1 PUSH4 0x8C2F59E4 EQ PUSH2 0x3FE JUMPI DUP1 PUSH4 0x8DA5CB5B EQ PUSH2 0x433 JUMPI PUSH2 0x1C2 JUMP JUMPDEST DUP1 PUSH4 0x5939A84E GT PUSH2 0x164 JUMPI DUP1 PUSH4 0x84500001 GT PUSH2 0x13E JUMPI DUP1 PUSH4 0x84500001 EQ PUSH2 0x326 JUMPI DUP1 PUSH4 0x84DC0806 EQ PUSH2 0x342 JUMPI DUP1 PUSH4 0x84E49BCE EQ PUSH2 0x360 JUMPI DUP1 PUSH4 0x872EA68A EQ PUSH2 0x397 JUMPI PUSH2 0x1C2 JUMP JUMPDEST DUP1 PUSH4 0x5939A84E EQ PUSH2 0x2CE JUMPI DUP1 PUSH4 0x6350EAE8 EQ PUSH2 0x2FE JUMPI DUP1 PUSH4 0x715018A6 EQ PUSH2 0x31C JUMPI PUSH2 0x1C2 JUMP JUMPDEST DUP1 PUSH4 0x1ED9772F GT PUSH2 0x1A0 JUMPI DUP1 PUSH4 0x1ED9772F EQ PUSH2 0x232 JUMPI DUP1 PUSH4 0x213B6360 EQ PUSH2 0x266 JUMPI DUP1 PUSH4 0x3B9CCCF0 EQ PUSH2 0x282 JUMPI DUP1 PUSH4 0x554AE567 EQ PUSH2 0x29E JUMPI PUSH2 0x1C2 JUMP JUMPDEST DUP1 PUSH4 0x8AE4B0C EQ PUSH2 0x1C6 JUMPI DUP1 PUSH4 0xB98D45A EQ PUSH2 0x1F6 JUMPI DUP1 PUSH4 0xFD19668 EQ PUSH2 0x214 JUMPI JUMPDEST PUSH0 DUP1 REVERT JUMPDEST PUSH2 0x1E0 PUSH1 0x4 DUP1 CALLDATASIZE SUB DUP2 ADD SWAP1 PUSH2 0x1DB SWAP2 SWAP1 PUSH2 0x28EF JUMP JUMPDEST PUSH2 0x5ED JUMP JUMPDEST PUSH1 0x40 MLOAD PUSH2 0x1ED SWAP2 SWAP1 PUSH2 0x2A64 JUMP JUMPDEST PUSH1 0x40 MLOAD DUP1 SWAP2 SUB SWAP1 RETURN JUMPDEST PUSH2 0x1FE PUSH2 0x7B5 JUMP JUMPDEST PUSH1 0x40 MLOAD PUSH2 0x20B SWAP2 SWAP1 PUSH2 0x2A93 JUMP JUMPDEST PUSH1 0x40 MLOAD DUP1 SWAP2 SUB SWAP1 RETURN JUMPDEST PUSH2 0x21C PUSH2 0x860 JUMP JUMPDEST PUSH1 0x40 MLOAD PUSH2 0x229 SWAP2 SWAP1 PUSH2 0x2A93 JUMP JUMPDEST PUSH1 0x40 MLOAD DUP1 SWAP2 SUB SWAP1 RETURN JUMPDEST PUSH2 0x24C PUSH1 0x4 DUP1 CALLDATASIZE SUB DUP2 ADD SWAP1 PUSH2 0x247 SWAP2 SWAP1 PUSH2 0x28EF JUMP JUMPDEST PUSH2 0x866 JUMP JUMPDEST PUSH1 0x40 MLOAD PUSH2 0x25D SWAP6 SWAP5 SWAP4 SWAP3 SWAP2 SWAP1 PUSH2 0x2B12 JUMP JUMPDEST PUSH1 0x40 MLOAD DUP1 SWAP2 SUB SWAP1 RETURN JUMPDEST PUSH2 0x280 PUSH1 0x4 DUP1 CALLDATASIZE SUB DUP2 ADD SWAP1 PUSH2 0x27B SWAP2 SWAP1 PUSH2 0x2BB6 JUMP JUMPDEST PUSH2 0x949 JUMP JUMPDEST STOP JUMPDEST PUSH2 0x29C PUSH1 0x4 DUP1 CALLDATASIZE SUB DUP2 ADD SWAP1 PUSH2 0x297 SWAP2 SWAP1 PUSH2 0x28EF JUMP JUMPDEST PUSH2 0xACF JUMP JUMPDEST STOP JUMPDEST PUSH2 0x2B8 PUSH1 0x4 DUP1 CALLDATASIZE SUB DUP2 ADD SWAP1 PUSH2 0x2B3 SWAP2 SWAP1 PUSH2 0x28EF JUMP JUMPDEST PUSH2 0xB88 JUMP JUMPDEST PUSH1 0x40 MLOAD PUSH2 0x2C5 SWAP2 SWAP1 PUSH2 0x2D45 JUMP JUMPDEST PUSH1 0x40 MLOAD DUP1 SWAP2 SUB SWAP1 RETURN JUMPDEST PUSH2 0x2E8 PUSH1 0x4 DUP1 CALLDATASIZE SUB DUP2 ADD SWAP1 PUSH2 0x2E3 SWAP2 SWAP1 PUSH2 0x28EF JUMP JUMPDEST PUSH2 0xD47 JUMP JUMPDEST PUSH1 0x40 MLOAD PUSH2 0x2F5 SWAP2 SWAP1 PUSH2 0x2D65 JUMP JUMPDEST PUSH1 0x40 MLOAD DUP1 SWAP2 SUB SWAP1 RETURN JUMPDEST PUSH2 0x306 PUSH2 0xD99 JUMP JUMPDEST PUSH1 0x40 MLOAD PUSH2 0x313 SWAP2 SWAP1 PUSH2 0x2A93 JUMP JUMPDEST PUSH1 0x40 MLOAD DUP1 SWAP2 SUB SWAP1 RETURN JUMPDEST PUSH2 0x324 PUSH2 0xD9F JUMP JUMPDEST STOP JUMPDEST PUSH2 0x340 PUSH1 0x4 DUP1 CALLDATASIZE SUB DUP2 ADD SWAP1 PUSH2 0x33B SWAP2 SWAP1 PUSH2 0x2D9C JUMP JUMPDEST PUSH2 0xDB2 JUMP JUMPDEST STOP JUMPDEST PUSH2 0x34A PUSH2 0x1009 JUMP JUMPDEST PUSH1 0x40 MLOAD PUSH2 0x357 SWAP2 SWAP1 PUSH2 0x2A93 JUMP JUMPDEST PUSH1 0x40 MLOAD DUP1 SWAP2 SUB SWAP1 RETURN JUMPDEST PUSH2 0x37A PUSH1 0x4 DUP1 CALLDATASIZE SUB DUP2 ADD SWAP1 PUSH2 0x375 SWAP2 SWAP1 PUSH2 0x2DE3 JUMP JUMPDEST PUSH2 0x10B4 JUMP JUMPDEST PUSH1 0x40 MLOAD PUSH2 0x38E SWAP9 SWAP8 SWAP7 SWAP6 SWAP5 SWAP4 SWAP3 SWAP2 SWAP1 PUSH2 0x2E0E JUMP JUMPDEST PUSH1 0x40 MLOAD DUP1 SWAP2 SUB SWAP1 RETURN JUMPDEST PUSH2 0x3B1 PUSH1 0x4 DUP1 CALLDATASIZE SUB DUP2 ADD SWAP1 PUSH2 0x3AC SWAP2 SWAP1 PUSH2 0x28EF JUMP JUMPDEST PUSH2 0x11C8 JUMP JUMPDEST PUSH1 0x40 MLOAD PUSH2 0x3C4 SWAP8 SWAP7 SWAP6 SWAP5 SWAP4 SWAP3 SWAP2 SWAP1 PUSH2 0x2E91 JUMP JUMPDEST PUSH1 0x40 MLOAD DUP1 SWAP2 SUB SWAP1 RETURN JUMPDEST PUSH2 0x3E7 PUSH1 0x4 DUP1 CALLDATASIZE SUB DUP2 ADD SWAP1 PUSH2 0x3E2 SWAP2 SWAP1 PUSH2 0x28EF JUMP JUMPDEST PUSH2 0x12D6 JUMP JUMPDEST PUSH1 0x40 MLOAD PUSH2 0x3F5 SWAP3 SWAP2 SWAP1 PUSH2 0x2F71 JUMP JUMPDEST PUSH1 0x40 MLOAD DUP1 SWAP2 SUB SWAP1 RETURN JUMPDEST PUSH2 0x418 PUSH1 0x4 DUP1 CALLDATASIZE SUB DUP2 ADD SWAP1 PUSH2 0x413 SWAP2 SWAP1 PUSH2 0x2DE3 JUMP JUMPDEST PUSH2 0x13FC JUMP JUMPDEST PUSH1 0x40 MLOAD PUSH2 0x42A SWAP7 SWAP6 SWAP5 SWAP4 SWAP3 SWAP2 SWAP1 PUSH2 0x3019 JUMP JUMPDEST PUSH1 0x40 MLOAD DUP1 SWAP2 SUB SWAP1 RETURN JUMPDEST PUSH2 0x43B PUSH2 0x1505 JUMP JUMPDEST PUSH1 0x40 MLOAD PUSH2 0x448 SWAP2 SWAP1 PUSH2 0x307F JUMP JUMPDEST PUSH1 0x40 MLOAD DUP1 SWAP2 SUB SWAP1 RETURN JUMPDEST PUSH2 0x46B PUSH1 0x4 DUP1 CALLDATASIZE SUB DUP2 ADD SWAP1 PUSH2 0x466 SWAP2 SWAP1 PUSH2 0x28EF JUMP JUMPDEST PUSH2 0x152C JUMP JUMPDEST PUSH1 0x40 MLOAD PUSH2 0x478 SWAP2 SWAP1 PUSH2 0x2D65 JUMP JUMPDEST PUSH1 0x40 MLOAD DUP1 SWAP2 SUB SWAP1 RETURN JUMPDEST PUSH2 0x49B PUSH1 0x4 DUP1 CALLDATASIZE SUB DUP2 ADD SWAP1 PUSH2 0x496 SWAP2 SWAP1 PUSH2 0x30B7 JUMP JUMPDEST PUSH2 0x157E JUMP JUMPDEST STOP JUMPDEST PUSH2 0x4B7 PUSH1 0x4 DUP1 CALLDATASIZE SUB DUP2 ADD SWAP1 PUSH2 0x4B2 SWAP2 SWAP1 PUSH2 0x2DE3 JUMP JUMPDEST PUSH2 0x16E1 JUMP JUMPDEST PUSH1 0x40 MLOAD PUSH2 0x4C4 SWAP2 SWAP1 PUSH2 0x33A5 JUMP JUMPDEST PUSH1 0x40 MLOAD DUP1 SWAP2 SUB SWAP1 RETURN JUMPDEST PUSH2 0x4D5 PUSH2 0x1B87 JUMP JUMPDEST PUSH1 0x40 MLOAD PUSH2 0x4E2 SWAP2 SWAP1 PUSH2 0x2A93 JUMP JUMPDEST PUSH1 0x40 MLOAD DUP1 SWAP2 SUB SWAP1 RETURN JUMPDEST PUSH2 0x505 PUSH1 0x4 DUP1 CALLDATASIZE SUB DUP2 ADD SWAP1 PUSH2 0x500 SWAP2 SWAP1 PUSH2 0x33E3 JUMP JUMPDEST PUSH2 0x1B8D JUMP JUMPDEST STOP JUMPDEST PUSH2 0x521 PUSH1 0x4 DUP1 CALLDATASIZE SUB DUP2 ADD SWAP1 PUSH2 0x51C SWAP2 SWAP1 PUSH2 0x28EF JUMP JUMPDEST PUSH2 0x1DEA JUMP JUMPDEST PUSH1 0x40 MLOAD PUSH2 0x52E SWAP2 SWAP1 PUSH2 0x2D65 JUMP JUMPDEST PUSH1 0x40 MLOAD DUP1 SWAP2 SUB SWAP1 RETURN JUMPDEST PUSH2 0x53F PUSH2 0x1E07 JUMP JUMPDEST PUSH1 0x40 MLOAD PUSH2 0x54C SWAP2 SWAP1 PUSH2 0x307F JUMP JUMPDEST PUSH1 0x40 MLOAD DUP1 SWAP2 SUB SWAP1 RETURN JUMPDEST PUSH2 0x56F PUSH1 0x4 DUP1 CALLDATASIZE SUB DUP2 ADD SWAP1 PUSH2 0x56A SWAP2 SWAP1 PUSH2 0x2DE3 JUMP JUMPDEST PUSH2 0x1E2C JUMP JUMPDEST PUSH1 0x40 MLOAD PUSH2 0x57C SWAP2 SWAP1 PUSH2 0x34D7 JUMP JUMPDEST PUSH1 0x40 MLOAD DUP1 SWAP2 SUB SWAP1 RETURN JUMPDEST PUSH2 0x59F PUSH1 0x4 DUP1 CALLDATASIZE SUB DUP2 ADD SWAP1 PUSH2 0x59A SWAP2 SWAP1 PUSH2 0x28EF JUMP JUMPDEST PUSH2 0x1FD3 JUMP JUMPDEST STOP JUMPDEST PUSH2 0x5BB PUSH1 0x4 DUP1 CALLDATASIZE SUB DUP2 ADD SWAP1 PUSH2 0x5B6 SWAP2 SWAP1 PUSH2 0x3516 JUMP JUMPDEST PUSH2 0x2057 JUMP JUMPDEST STOP JUMPDEST PUSH2 0x5D7 PUSH1 0x4 DUP1 CALLDATASIZE SUB DUP2 ADD SWAP1 PUSH2 0x5D2 SWAP2 SWAP1 PUSH2 0x28EF JUMP JUMPDEST PUSH2 0x2321 JUMP JUMPDEST PUSH1 0x40 MLOAD PUSH2 0x5E4 SWAP2 SWAP1 PUSH2 0x2D65 JUMP JUMPDEST PUSH1 0x40 MLOAD DUP1 SWAP2 SUB SWAP1 RETURN JUMPDEST PUSH2 0x5F5 PUSH2 0x26F4 JUMP JUMPDEST PUSH1 0x5 PUSH0 DUP4 PUSH20 0xFFFFFFFFFFFFFFFFFFFFFFFFFFFFFFFFFFFFFFFF AND PUSH20 0xFFFFFFFFFFFFFFFFFFFFFFFFFFFFFFFFFFFFFFFF AND DUP2 MSTORE PUSH1 0x20 ADD SWAP1 DUP2 MSTORE PUSH1 0x20 ADD PUSH0 KECCAK256 PUSH1 0x40 MLOAD DUP1 PUSH1 0xE0 ADD PUSH1 0x40 MSTORE SWAP1 DUP2 PUSH0 DUP3 ADD PUSH0 SWAP1 SLOAD SWAP1 PUSH2 0x100 EXP SWAP1 DIV PUSH20 0xFFFFFFFFFFFFFFFFFFFFFFFFFFFFFFFFFFFFFFFF AND PUSH20 0xFFFFFFFFFFFFFFFFFFFFFFFFFFFFFFFFFFFFFFFF AND PUSH20 0xFFFFFFFFFFFFFFFFFFFFFFFFFFFFFFFFFFFFFFFF AND DUP2 MSTORE PUSH1 0x20 ADD PUSH1 0x1 DUP3 ADD PUSH0 SWAP1 SLOAD SWAP1 PUSH2 0x100 EXP SWAP1 DIV PUSH20 0xFFFFFFFFFFFFFFFFFFFFFFFFFFFFFFFFFFFFFFFF AND PUSH20 0xFFFFFFFFFFFFFFFFFFFFFFFFFFFFFFFFFFFFFFFF AND PUSH20 0xFFFFFFFFFFFFFFFFFFFFFFFFFFFFFFFFFFFFFFFF AND DUP2 MSTORE PUSH1 0x20 ADD PUSH1 0x2 DUP3 ADD SLOAD DUP2 MSTORE PUSH1 0x20 ADD PUSH1 0x3 DUP3 ADD DUP1 SLOAD PUSH2 0x700 SWAP1 PUSH2 0x358A JUMP JUMPDEST DUP1 PUSH1 0x1F ADD PUSH1 0x20 DUP1 SWAP2 DIV MUL PUSH1 0x20 ADD PUSH1 0x40 MLOAD SWAP1 DUP2 ADD PUSH1 0x40 MSTORE DUP1 SWAP3 SWAP2 SWAP1 DUP2 DUP2 MSTORE PUSH1 0x20 ADD DUP3 DUP1 SLOAD PUSH2 0x72C SWAP1 PUSH2 0x358A JUMP JUMPDEST DUP1 ISZERO PUSH2 0x777 JUMPI DUP1 PUSH1 0x1F LT PUSH2 0x74E JUMPI PUSH2 0x100 DUP1 DUP4 SLOAD DIV MUL DUP4 MSTORE SWAP2 PUSH1 0x20 ADD SWAP2 PUSH2 0x777 JUMP JUMPDEST DUP3 ADD SWAP2 SWAP1 PUSH0 MSTORE PUSH1 0x20 PUSH0 KECCAK256 SWAP1 JUMPDEST DUP2 SLOAD DUP2 MSTORE SWAP1 PUSH1 0x1 ADD SWAP1 PUSH1 0x20 ADD DUP1 DUP4 GT PUSH2 0x75A JUMPI DUP3 SWAP1 SUB PUSH1 0x1F AND DUP3 ADD SWAP2 JUMPDEST POP POP POP POP POP DUP2 MSTORE PUSH1 0x20 ADD PUSH1 0x4 DUP3 ADD SLOAD DUP2 MSTORE PUSH1 0x20 ADD PUSH1 0x5 DUP3 ADD SLOAD DUP2 MSTORE PUSH1 0x20 ADD PUSH1 0x6 DUP3 ADD PUSH0 SWAP1 SLOAD SWAP1 PUSH2 0x100 EXP SWAP1 DIV PUSH1 0xFF AND ISZERO ISZERO ISZERO ISZERO DUP2 MSTORE POP POP SWAP1 POP SWAP2 SWAP1 POP JUMP JUMPDEST PUSH0 PUSH1 0x1 PUSH0 SWAP1 SLOAD SWAP1 PUSH2 0x100 EXP SWAP1 DIV PUSH20 0xFFFFFFFFFFFFFFFFFFFFFFFFFFFFFFFFFFFFFFFF AND PUSH20 0xFFFFFFFFFFFFFFFFFFFFFFFFFFFFFFFFFFFFFFFF AND CALLER PUSH20 0xFFFFFFFFFFFFFFFFFFFFFFFFFFFFFFFFFFFFFFFF AND EQ PUSH2 0x845 JUMPI PUSH1 0x40 MLOAD PUSH32 0x8C379A000000000000000000000000000000000000000000000000000000000 DUP2 MSTORE PUSH1 0x4 ADD PUSH2 0x83C SWAP1 PUSH2 0x3604 JUMP JUMPDEST PUSH1 0x40 MLOAD DUP1 SWAP2 SUB SWAP1 REVERT JUMPDEST PUSH1 0x4 PUSH0 DUP2 SLOAD DUP1 SWAP3 SWAP2 SWAP1 PUSH2 0x857 SWAP1 PUSH2 0x364F JUMP JUMPDEST SWAP2 SWAP1 POP SSTORE SWAP1 POP SWAP1 JUMP JUMPDEST PUSH1 0x4 SLOAD DUP2 JUMP JUMPDEST PUSH1 0x6 PUSH1 0x20 MSTORE DUP1 PUSH0 MSTORE PUSH1 0x40 PUSH0 KECCAK256 PUSH0 SWAP2 POP SWAP1 POP DUP1 PUSH0 ADD PUSH0 SWAP1 SLOAD SWAP1 PUSH2 0x100 EXP SWAP1 DIV PUSH20 0xFFFFFFFFFFFFFFFFFFFFFFFFFFFFFFFFFFFFFFFF AND SWAP1 DUP1 PUSH1 0x2 ADD DUP1 SLOAD PUSH2 0x8AA SWAP1 PUSH2 0x358A JUMP JUMPDEST DUP1 PUSH1 0x1F ADD PUSH1 0x20 DUP1 SWAP2 DIV MUL PUSH1 0x20 ADD PUSH1 0x40 MLOAD SWAP1 DUP2 ADD PUSH1 0x40 MSTORE DUP1 SWAP3 SWAP2 SWAP1 DUP2 DUP2 MSTORE PUSH1 0x20 ADD DUP3 DUP1 SLOAD PUSH2 0x8D6 SWAP1 PUSH2 0x358A JUMP JUMPDEST DUP1 ISZERO PUSH2 0x921 JUMPI DUP1 PUSH1 0x1F LT PUSH2 0x8F8 JUMPI PUSH2 0x100 DUP1 DUP4 SLOAD DIV MUL DUP4 MSTORE SWAP2 PUSH1 0x20 ADD SWAP2 PUSH2 0x921 JUMP JUMPDEST DUP3 ADD SWAP2 SWAP1 PUSH0 MSTORE PUSH1 0x20 PUSH0 KECCAK256 SWAP1 JUMPDEST DUP2 SLOAD DUP2 MSTORE SWAP1 PUSH1 0x1 ADD SWAP1 PUSH1 0x20 ADD DUP1 DUP4 GT PUSH2 0x904 JUMPI DUP3 SWAP1 SUB PUSH1 0x1F AND DUP3 ADD SWAP2 JUMPDEST POP POP POP POP POP SWAP1 DUP1 PUSH1 0x3 ADD SLOAD SWAP1 DUP1 PUSH1 0x4 ADD SLOAD SWAP1 DUP1 PUSH1 0x5 ADD PUSH0 SWAP1 SLOAD SWAP1 PUSH2 0x100 EXP SWAP1 DIV PUSH1 0xFF AND SWAP1 POP DUP6 JUMP JUMPDEST PUSH1 0x1 PUSH0 SWAP1 SLOAD SWAP1 PUSH2 0x100 EXP SWAP1 DIV PUSH20 0xFFFFFFFFFFFFFFFFFFFFFFFFFFFFFFFFFFFFFFFF AND PUSH20 0xFFFFFFFFFFFFFFFFFFFFFFFFFFFFFFFFFFFFFFFF AND CALLER PUSH20 0xFFFFFFFFFFFFFFFFFFFFFFFFFFFFFFFFFFFFFFFF AND EQ PUSH2 0x9D8 JUMPI PUSH1 0x40 MLOAD PUSH32 0x8C379A000000000000000000000000000000000000000000000000000000000 DUP2 MSTORE PUSH1 0x4 ADD PUSH2 0x9CF SWAP1 PUSH2 0x3604 JUMP JUMPDEST PUSH1 0x40 MLOAD DUP1 SWAP2 SUB SWAP1 REVERT JUMPDEST PUSH0 PUSH1 0x8 PUSH0 DUP5 DUP2 MSTORE PUSH1 0x20 ADD SWAP1 DUP2 MSTORE PUSH1 0x20 ADD PUSH0 KECCAK256 SWAP1 POP PUSH0 DUP2 PUSH0 ADD SLOAD SUB PUSH2 0xA31 JUMPI PUSH1 0x40 MLOAD PUSH32 0x8C379A000000000000000000000000000000000000000000000000000000000 DUP2 MSTORE PUSH1 0x4 ADD PUSH2 0xA28 SWAP1 PUSH2 0x36E0 JUMP JUMPDEST PUSH1 0x40 MLOAD DUP1 SWAP2 SUB SWAP1 REVERT JUMPDEST DUP1 PUSH1 0x5 ADD DUP3 SWAP1 DUP1 PUSH1 0x1 DUP2 SLOAD ADD DUP1 DUP3 SSTORE DUP1 SWAP2 POP POP PUSH1 0x1 SWAP1 SUB SWAP1 PUSH0 MSTORE PUSH1 0x20 PUSH0 KECCAK256 SWAP1 PUSH1 0x4 MUL ADD PUSH0 SWAP1 SWAP2 SWAP1 SWAP2 SWAP1 SWAP2 POP DUP2 DUP2 PUSH2 0xA68 SWAP2 SWAP1 PUSH2 0x4003 JUMP JUMPDEST POP POP DUP2 PUSH0 ADD PUSH1 0x20 DUP2 ADD SWAP1 PUSH2 0xA7C SWAP2 SWAP1 PUSH2 0x28EF JUMP JUMPDEST PUSH20 0xFFFFFFFFFFFFFFFFFFFFFFFFFFFFFFFFFFFFFFFF AND DUP4 PUSH32 0x37B3E104208F85D1DF430BBEFBE3FEE48F2B666F587576036F4D60EF673AF50C TIMESTAMP PUSH1 0x40 MLOAD PUSH2 0xAC2 SWAP2 SWAP1 PUSH2 0x2A93 JUMP JUMPDEST PUSH1 0x40 MLOAD DUP1 SWAP2 SUB SWAP1 LOG3 POP POP POP JUMP JUMPDEST PUSH2 0xAD7 PUSH2 0x233E JUMP JUMPDEST PUSH0 PUSH20 0xFFFFFFFFFFFFFFFFFFFFFFFFFFFFFFFFFFFFFFFF AND DUP2 PUSH20 0xFFFFFFFFFFFFFFFFFFFFFFFFFFFFFFFFFFFFFFFF AND SUB PUSH2 0xB45 JUMPI PUSH1 0x40 MLOAD PUSH32 0x8C379A000000000000000000000000000000000000000000000000000000000 DUP2 MSTORE PUSH1 0x4 ADD PUSH2 0xB3C SWAP1 PUSH2 0x405B JUMP JUMPDEST PUSH1 0x40 MLOAD DUP1 SWAP2 SUB SWAP1 REVERT JUMPDEST DUP1 PUSH1 0x1 PUSH0 PUSH2 0x100 EXP DUP2 SLOAD DUP2 PUSH20 0xFFFFFFFFFFFFFFFFFFFFFFFFFFFFFFFFFFFFFFFF MUL NOT AND SWAP1 DUP4 PUSH20 0xFFFFFFFFFFFFFFFFFFFFFFFFFFFFFFFFFFFFFFFF AND MUL OR SWAP1 SSTORE POP POP JUMP JUMPDEST PUSH2 0xB90 PUSH2 0x2759 JUMP JUMPDEST PUSH1 0x6 PUSH0 DUP4 PUSH20 0xFFFFFFFFFFFFFFFFFFFFFFFFFFFFFFFFFFFFFFFF AND PUSH20 0xFFFFFFFFFFFFFFFFFFFFFFFFFFFFFFFFFFFFFFFF AND DUP2 MSTORE PUSH1 0x20 ADD SWAP1 DUP2 MSTORE PUSH1 0x20 ADD PUSH0 KECCAK256 PUSH1 0x40 MLOAD DUP1 PUSH1 0xC0 ADD PUSH1 0x40 MSTORE SWAP1 DUP2 PUSH0 DUP3 ADD PUSH0 SWAP1 SLOAD SWAP1 PUSH2 0x100 EXP SWAP1 DIV PUSH20 0xFFFFFFFFFFFFFFFFFFFFFFFFFFFFFFFFFFFFFFFF AND PUSH20 0xFFFFFFFFFFFFFFFFFFFFFFFFFFFFFFFFFFFFFFFF AND PUSH20 0xFFFFFFFFFFFFFFFFFFFFFFFFFFFFFFFFFFFFFFFF AND DUP2 MSTORE PUSH1 0x20 ADD PUSH1 0x1 DUP3 ADD DUP1 SLOAD DUP1 PUSH1 0x20 MUL PUSH1 0x20 ADD PUSH1 0x40 MLOAD SWAP1 DUP2 ADD PUSH1 0x40 MSTORE DUP1 SWAP3 SWAP2 SWAP1 DUP2 DUP2 MSTORE PUSH1 0x20 ADD DUP3 DUP1 SLOAD DUP1 ISZERO PUSH2 0xC79 JUMPI PUSH1 0x20 MUL DUP3 ADD SWAP2 SWAP1 PUSH0 MSTORE PUSH1 0x20 PUSH0 KECCAK256 SWAP1 JUMPDEST DUP2 SLOAD DUP2 MSTORE PUSH1 0x20 ADD SWAP1 PUSH1 0x1 ADD SWAP1 DUP1 DUP4 GT PUSH2 0xC65 JUMPI JUMPDEST POP POP POP POP POP DUP2 MSTORE PUSH1 0x20 ADD PUSH1 0x2 DUP3 ADD DUP1 SLOAD PUSH2 0xC92 SWAP1 PUSH2 0x358A JUMP JUMPDEST DUP1 PUSH1 0x1F ADD PUSH1 0x20 DUP1 SWAP2 DIV MUL PUSH1 0x20 ADD PUSH1 0x40 MLOAD SWAP1 DUP2 ADD PUSH1 0x40 MSTORE DUP1 SWAP3 SWAP2 SWAP1 DUP2 DUP2 MSTORE PUSH1 0x20 ADD DUP3 DUP1 SLOAD PUSH2 0xCBE SWAP1 PUSH2 0x358A JUMP JUMPDEST DUP1 ISZERO PUSH2 0xD09 JUMPI DUP1 PUSH1 0x1F LT PUSH2 0xCE0 JUMPI PUSH2 0x100 DUP1 DUP4 SLOAD DIV MUL DUP4 MSTORE SWAP2 PUSH1 0x20 ADD SWAP2 PUSH2 0xD09 JUMP JUMPDEST DUP3 ADD SWAP2 SWAP1 PUSH0 MSTORE PUSH1 0x20 PUSH0 KECCAK256 SWAP1 JUMPDEST DUP2 SLOAD DUP2 MSTORE SWAP1 PUSH1 0x1 ADD SWAP1 PUSH1 0x20 ADD DUP1 DUP4 GT PUSH2 0xCEC JUMPI DUP3 SWAP1 SUB PUSH1 0x1F AND DUP3 ADD SWAP2 JUMPDEST POP POP POP POP POP DUP2 MSTORE PUSH1 0x20 ADD PUSH1 0x3 DUP3 ADD SLOAD DUP2 MSTORE PUSH1 0x20 ADD PUSH1 0x4 DUP3 ADD SLOAD DUP2 MSTORE PUSH1 0x20 ADD PUSH1 0x5 DUP3 ADD PUSH0 SWAP1 SLOAD SWAP1 PUSH2 0x100 EXP SWAP1 DIV PUSH1 0xFF AND ISZERO ISZERO ISZERO ISZERO DUP2 MSTORE POP POP SWAP1 POP SWAP2 SWAP1 POP JUMP JUMPDEST PUSH0 PUSH1 0xA PUSH0 DUP4 PUSH20 0xFFFFFFFFFFFFFFFFFFFFFFFFFFFFFFFFFFFFFFFF AND PUSH20 0xFFFFFFFFFFFFFFFFFFFFFFFFFFFFFFFFFFFFFFFF AND DUP2 MSTORE PUSH1 0x20 ADD SWAP1 DUP2 MSTORE PUSH1 0x20 ADD PUSH0 KECCAK256 PUSH0 SWAP1 SLOAD SWAP1 PUSH2 0x100 EXP SWAP1 DIV PUSH1 0xFF AND SWAP1 POP SWAP2 SWAP1 POP JUMP JUMPDEST PUSH1 0x3 SLOAD DUP2 JUMP JUMPDEST PUSH2 0xDA7 PUSH2 0x233E JUMP JUMPDEST PUSH2 0xDB0 PUSH0 PUSH2 0x23C5 JUMP JUMPDEST JUMP JUMPDEST PUSH1 0x1 PUSH0 SWAP1 SLOAD SWAP1 PUSH2 0x100 EXP SWAP1 DIV PUSH20 0xFFFFFFFFFFFFFFFFFFFFFFFFFFFFFFFFFFFFFFFF AND PUSH20 0xFFFFFFFFFFFFFFFFFFFFFFFFFFFFFFFFFFFFFFFF AND CALLER PUSH20 0xFFFFFFFFFFFFFFFFFFFFFFFFFFFFFFFFFFFFFFFF AND EQ PUSH2 0xE41 JUMPI PUSH1 0x40 MLOAD PUSH32 0x8C379A000000000000000000000000000000000000000000000000000000000 DUP2 MSTORE PUSH1 0x4 ADD PUSH2 0xE38 SWAP1 PUSH2 0x3604 JUMP JUMPDEST PUSH1 0x40 MLOAD DUP1 SWAP2 SUB SWAP1 REVERT JUMPDEST PUSH0 PUSH20 0xFFFFFFFFFFFFFFFFFFFFFFFFFFFFFFFFFFFFFFFF AND DUP2 PUSH0 ADD PUSH1 0x20 DUP2 ADD SWAP1 PUSH2 0xE6A SWAP2 SWAP1 PUSH2 0x28EF JUMP JUMPDEST PUSH20 0xFFFFFFFFFFFFFFFFFFFFFFFFFFFFFFFFFFFFFFFF AND SUB PUSH2 0xEC0 JUMPI PUSH1 0x40 MLOAD PUSH32 0x8C379A000000000000000000000000000000000000000000000000000000000 DUP2 MSTORE PUSH1 0x4 ADD PUSH2 0xEB7 SWAP1 PUSH2 0x40C3 JUMP JUMPDEST PUSH1 0x40 MLOAD DUP1 SWAP2 SUB SWAP1 REVERT JUMPDEST DUP1 PUSH1 0x6 PUSH0 DUP4 PUSH0 ADD PUSH1 0x20 DUP2 ADD SWAP1 PUSH2 0xED6 SWAP2 SWAP1 PUSH2 0x28EF JUMP JUMPDEST PUSH20 0xFFFFFFFFFFFFFFFFFFFFFFFFFFFFFFFFFFFFFFFF AND PUSH20 0xFFFFFFFFFFFFFFFFFFFFFFFFFFFFFFFFFFFFFFFF AND DUP2 MSTORE PUSH1 0x20 ADD SWAP1 DUP2 MSTORE PUSH1 0x20 ADD PUSH0 KECCAK256 DUP2 DUP2 PUSH2 0xF1B SWAP2 SWAP1 PUSH2 0x43E2 JUMP JUMPDEST SWAP1 POP POP DUP1 PUSH1 0xA0 ADD PUSH1 0x20 DUP2 ADD SWAP1 PUSH2 0xF31 SWAP2 SWAP1 PUSH2 0x4404 JUMP JUMPDEST PUSH1 0xA PUSH0 DUP4 PUSH0 ADD PUSH1 0x20 DUP2 ADD SWAP1 PUSH2 0xF46 SWAP2 SWAP1 PUSH2 0x28EF JUMP JUMPDEST PUSH20 0xFFFFFFFFFFFFFFFFFFFFFFFFFFFFFFFFFFFFFFFF AND PUSH20 0xFFFFFFFFFFFFFFFFFFFFFFFFFFFFFFFFFFFFFFFF AND DUP2 MSTORE PUSH1 0x20 ADD SWAP1 DUP2 MSTORE PUSH1 0x20 ADD PUSH0 KECCAK256 PUSH0 PUSH2 0x100 EXP DUP2 SLOAD DUP2 PUSH1 0xFF MUL NOT AND SWAP1 DUP4 ISZERO ISZERO MUL OR SWAP1 SSTORE POP DUP1 PUSH0 ADD PUSH1 0x20 DUP2 ADD SWAP1 PUSH2 0xFA7 SWAP2 SWAP1 PUSH2 0x28EF JUMP JUMPDEST PUSH20 0xFFFFFFFFFFFFFFFFFFFFFFFFFFFFFFFFFFFFFFFF AND PUSH32 0x59F9BE63244670BCBD7B4ADA776836C9E0DC14F711CAE29FA2E2F527D4F7E3B1 DUP3 PUSH1 0xA0 ADD PUSH1 0x20 DUP2 ADD SWAP1 PUSH2 0xFF1 SWAP2 SWAP1 PUSH2 0x4404 JUMP JUMPDEST PUSH1 0x40 MLOAD PUSH2 0xFFE SWAP2 SWAP1 PUSH2 0x2D65 JUMP JUMPDEST PUSH1 0x40 MLOAD DUP1 SWAP2 SUB SWAP1 LOG2 POP JUMP JUMPDEST PUSH0 PUSH1 0x1 PUSH0 SWAP1 SLOAD SWAP1 PUSH2 0x100 EXP SWAP1 DIV PUSH20 0xFFFFFFFFFFFFFFFFFFFFFFFFFFFFFFFFFFFFFFFF AND PUSH20 0xFFFFFFFFFFFFFFFFFFFFFFFFFFFFFFFFFFFFFFFF AND CALLER PUSH20 0xFFFFFFFFFFFFFFFFFFFFFFFFFFFFFFFFFFFFFFFF AND EQ PUSH2 0x1099 JUMPI PUSH1 0x40 MLOAD PUSH32 0x8C379A000000000000000000000000000000000000000000000000000000000 DUP2 MSTORE PUSH1 0x4 ADD PUSH2 0x1090 SWAP1 PUSH2 0x3604 JUMP JUMPDEST PUSH1 0x40 MLOAD DUP1 SWAP2 SUB SWAP1 REVERT JUMPDEST PUSH1 0x3 PUSH0 DUP2 SLOAD DUP1 SWAP3 SWAP2 SWAP1 PUSH2 0x10AB SWAP1 PUSH2 0x364F JUMP JUMPDEST SWAP2 SWAP1 POP SSTORE SWAP1 POP SWAP1 JUMP JUMPDEST PUSH1 0x7 PUSH1 0x20 MSTORE DUP1 PUSH0 MSTORE PUSH1 0x40 PUSH0 KECCAK256 PUSH0 SWAP2 POP SWAP1 POP DUP1 PUSH0 ADD SLOAD SWAP1 DUP1 PUSH1 0x1 ADD PUSH0 SWAP1 SLOAD SWAP1 PUSH2 0x100 EXP SWAP1 DIV PUSH20 0xFFFFFFFFFFFFFFFFFFFFFFFFFFFFFFFFFFFFFFFF AND SWAP1 DUP1 PUSH1 0x2 ADD PUSH0 SWAP1 SLOAD SWAP1 PUSH2 0x100 EXP SWAP1 DIV PUSH20 0xFFFFFFFFFFFFFFFFFFFFFFFFFFFFFFFFFFFFFFFF AND SWAP1 DUP1 PUSH1 0x3 ADD DUP1 SLOAD PUSH2 0x1123 SWAP1 PUSH2 0x358A JUMP JUMPDEST DUP1 PUSH1 0x1F ADD PUSH1 0x20 DUP1 SWAP2 DIV MUL PUSH1 0x20 ADD PUSH1 0x40 MLOAD SWAP1 DUP2 ADD PUSH1 0x40 MSTORE DUP1 SWAP3 SWAP2 SWAP1 DUP2 DUP2 MSTORE PUSH1 0x20 ADD DUP3 DUP1 SLOAD PUSH2 0x114F SWAP1 PUSH2 0x358A JUMP JUMPDEST DUP1 ISZERO PUSH2 0x119A JUMPI DUP1 PUSH1 0x1F LT PUSH2 0x1171 JUMPI PUSH2 0x100 DUP1 DUP4 SLOAD DIV MUL DUP4 MSTORE SWAP2 PUSH1 0x20 ADD SWAP2 PUSH2 0x119A JUMP JUMPDEST DUP3 ADD SWAP2 SWAP1 PUSH0 MSTORE PUSH1 0x20 PUSH0 KECCAK256 SWAP1 JUMPDEST DUP2 SLOAD DUP2 MSTORE SWAP1 PUSH1 0x1 ADD SWAP1 PUSH1 0x20 ADD DUP1 DUP4 GT PUSH2 0x117D JUMPI DUP3 SWAP1 SUB PUSH1 0x1F AND DUP3 ADD SWAP2 JUMPDEST POP POP POP POP POP SWAP1 DUP1 PUSH1 0x4 ADD SLOAD SWAP1 DUP1 PUSH1 0x5 ADD SLOAD SWAP1 DUP1 PUSH1 0x6 ADD PUSH0 SWAP1 SLOAD SWAP1 PUSH2 0x100 EXP SWAP1 DIV PUSH1 0xFF AND SWAP1 DUP1 PUSH1 0x7 ADD SLOAD SWAP1 POP DUP9 JUMP JUMPDEST PUSH1 0x5 PUSH1 0x20 MSTORE DUP1 PUSH0 MSTORE PUSH1 0x40 PUSH0 KECCAK256 PUSH0 SWAP2 POP SWAP1 POP DUP1 PUSH0 ADD PUSH0 SWAP1 SLOAD SWAP1 PUSH2 0x100 EXP SWAP1 DIV PUSH20 0xFFFFFFFFFFFFFFFFFFFFFFFFFFFFFFFFFFFFFFFF AND SWAP1 DUP1 PUSH1 0x1 ADD PUSH0 SWAP1 SLOAD SWAP1 PUSH2 0x100 EXP SWAP1 DIV PUSH20 0xFFFFFFFFFFFFFFFFFFFFFFFFFFFFFFFFFFFFFFFF AND SWAP1 DUP1 PUSH1 0x2 ADD SLOAD SWAP1 DUP1 PUSH1 0x3 ADD DUP1 SLOAD PUSH2 0x1237 SWAP1 PUSH2 0x358A JUMP JUMPDEST DUP1 PUSH1 0x1F ADD PUSH1 0x20 DUP1 SWAP2 DIV MUL PUSH1 0x20 ADD PUSH1 0x40 MLOAD SWAP1 DUP2 ADD PUSH1 0x40 MSTORE DUP1 SWAP3 SWAP2 SWAP1 DUP2 DUP2 MSTORE PUSH1 0x20 ADD DUP3 DUP1 SLOAD PUSH2 0x1263 SWAP1 PUSH2 0x358A JUMP JUMPDEST DUP1 ISZERO PUSH2 0x12AE JUMPI DUP1 PUSH1 0x1F LT PUSH2 0x1285 JUMPI PUSH2 0x100 DUP1 DUP4 SLOAD DIV MUL DUP4 MSTORE SWAP2 PUSH1 0x20 ADD SWAP2 PUSH2 0x12AE JUMP JUMPDEST DUP3 ADD SWAP2 SWAP1 PUSH0 MSTORE PUSH1 0x20 PUSH0 KECCAK256 SWAP1 JUMPDEST DUP2 SLOAD DUP2 MSTORE SWAP1 PUSH1 0x1 ADD SWAP1 PUSH1 0x20 ADD DUP1 DUP4 GT PUSH2 0x1291 JUMPI DUP3 SWAP1 SUB PUSH1 0x1F AND DUP3 ADD SWAP2 JUMPDEST POP POP POP POP POP SWAP1 DUP1 PUSH1 0x4 ADD SLOAD SWAP1 DUP1 PUSH1 0x5 ADD SLOAD SWAP1 DUP1 PUSH1 0x6 ADD PUSH0 SWAP1 SLOAD SWAP1 PUSH2 0x100 EXP SWAP1 DIV PUSH1 0xFF AND SWAP1 POP DUP8 JUMP JUMPDEST PUSH1 0x60 DUP1 PUSH1 0xB PUSH0 DUP5 PUSH20 0xFFFFFFFFFFFFFFFFFFFFFFFFFFFFFFFFFFFFFFFF AND PUSH20 0xFFFFFFFFFFFFFFFFFFFFFFFFFFFFFFFFFFFFFFFF AND DUP2 MSTORE PUSH1 0x20 ADD SWAP1 DUP2 MSTORE PUSH1 0x20 ADD PUSH0 KECCAK256 PUSH1 0xC PUSH0 DUP6 PUSH20 0xFFFFFFFFFFFFFFFFFFFFFFFFFFFFFFFFFFFFFFFF AND PUSH20 0xFFFFFFFFFFFFFFFFFFFFFFFFFFFFFFFFFFFFFFFF AND DUP2 MSTORE PUSH1 0x20 ADD SWAP1 DUP2 MSTORE PUSH1 0x20 ADD PUSH0 KECCAK256 DUP2 DUP1 SLOAD DUP1 PUSH1 0x20 MUL PUSH1 0x20 ADD PUSH1 0x40 MLOAD SWAP1 DUP2 ADD PUSH1 0x40 MSTORE DUP1 SWAP3 SWAP2 SWAP1 DUP2 DUP2 MSTORE PUSH1 0x20 ADD DUP3 DUP1 SLOAD DUP1 ISZERO PUSH2 0x139C JUMPI PUSH1 0x20 MUL DUP3 ADD SWAP2 SWAP1 PUSH0 MSTORE PUSH1 0x20 PUSH0 KECCAK256 SWAP1 JUMPDEST DUP2 SLOAD DUP2 MSTORE PUSH1 0x20 ADD SWAP1 PUSH1 0x1 ADD SWAP1 DUP1 DUP4 GT PUSH2 0x1388 JUMPI JUMPDEST POP POP POP POP POP SWAP2 POP DUP1 DUP1 SLOAD DUP1 PUSH1 0x20 MUL PUSH1 0x20 ADD PUSH1 0x40 MLOAD SWAP1 DUP2 ADD PUSH1 0x40 MSTORE DUP1 SWAP3 SWAP2 SWAP1 DUP2 DUP2 MSTORE PUSH1 0x20 ADD DUP3 DUP1 SLOAD DUP1 ISZERO PUSH2 0x13EC JUMPI PUSH1 0x20 MUL DUP3 ADD SWAP2 SWAP1 PUSH0 MSTORE PUSH1 0x20 PUSH0 KECCAK256 SWAP1 JUMPDEST DUP2 SLOAD DUP2 MSTORE PUSH1 0x20 ADD SWAP1 PUSH1 0x1 ADD SWAP1 DUP1 DUP4 GT PUSH2 0x13D8 JUMPI JUMPDEST POP POP POP POP POP SWAP1 POP SWAP2 POP SWAP2 POP SWAP2 POP SWAP2 JUMP JUMPDEST PUSH1 0x8 PUSH1 0x20 MSTORE DUP1 PUSH0 MSTORE PUSH1 0x40 PUSH0 KECCAK256 PUSH0 SWAP2 POP SWAP1 POP DUP1 PUSH0 ADD SLOAD SWAP1 DUP1 PUSH1 0x1 ADD PUSH0 SWAP1 SLOAD SWAP1 PUSH2 0x100 EXP SWAP1 DIV PUSH20 0xFFFFFFFFFFFFFFFFFFFFFFFFFFFFFFFFFFFFFFFF AND SWAP1 DUP1 PUSH1 0x2 ADD DUP1 SLOAD PUSH2 0x1446 SWAP1 PUSH2 0x358A JUMP JUMPDEST DUP1 PUSH1 0x1F ADD PUSH1 0x20 DUP1 SWAP2 DIV MUL PUSH1 0x20 ADD PUSH1 0x40 MLOAD SWAP1 DUP2 ADD PUSH1 0x40 MSTORE DUP1 SWAP3 SWAP2 SWAP1 DUP2 DUP2 MSTORE PUSH1 0x20 ADD DUP3 DUP1 SLOAD PUSH2 0x1472 SWAP1 PUSH2 0x358A JUMP JUMPDEST DUP1 ISZERO PUSH2 0x14BD JUMPI DUP1 PUSH1 0x1F LT PUSH2 0x1494 JUMPI PUSH2 0x100 DUP1 DUP4 SLOAD DIV MUL DUP4 MSTORE SWAP2 PUSH1 0x20 ADD SWAP2 PUSH2 0x14BD JUMP JUMPDEST DUP3 ADD SWAP2 SWAP1 PUSH0 MSTORE PUSH1 0x20 PUSH0 KECCAK256 SWAP1 JUMPDEST DUP2 SLOAD DUP2 MSTORE SWAP1 PUSH1 0x1 ADD SWAP1 PUSH1 0x20 ADD DUP1 DUP4 GT PUSH2 0x14A0 JUMPI DUP3 SWAP1 SUB PUSH1 0x1F AND DUP3 ADD SWAP2 JUMPDEST POP POP POP POP POP SWAP1 DUP1 PUSH1 0x3 ADD SLOAD SWAP1 DUP1 PUSH1 0x4 ADD PUSH0 SWAP1 SLOAD SWAP1 PUSH2 0x100 EXP SWAP1 DIV PUSH1 0xFF AND SWAP1 DUP1 PUSH1 0x4 ADD PUSH1 0x1 SWAP1 SLOAD SWAP1 PUSH2 0x100 EXP SWAP1 DIV PUSH20 0xFFFFFFFFFFFFFFFFFFFFFFFFFFFFFFFFFFFFFFFF AND SWAP1 POP DUP7 JUMP JUMPDEST PUSH0 DUP1 PUSH0 SWAP1 SLOAD SWAP1 PUSH2 0x100 EXP SWAP1 DIV PUSH20 0xFFFFFFFFFFFFFFFFFFFFFFFFFFFFFFFFFFFFFFFF AND SWAP1 POP SWAP1 JUMP JUMPDEST PUSH0 PUSH1 0x9 PUSH0 DUP4 PUSH20 0xFFFFFFFFFFFFFFFFFFFFFFFFFFFFFFFFFFFFFFFF AND PUSH20 0xFFFFFFFFFFFFFFFFFFFFFFFFFFFFFFFFFFFFFFFF AND DUP2 MSTORE PUSH1 0x20 ADD SWAP1 DUP2 MSTORE PUSH1 0x20 ADD PUSH0 KECCAK256 PUSH0 SWAP1 SLOAD SWAP1 PUSH2 0x100 EXP SWAP1 DIV PUSH1 0xFF AND SWAP1 POP SWAP2 SWAP1 POP JUMP JUMPDEST PUSH1 0x1 PUSH0 SWAP1 SLOAD SWAP1 PUSH2 0x100 EXP SWAP1 DIV PUSH20 0xFFFFFFFFFFFFFFFFFFFFFFFFFFFFFFFFFFFFFFFF AND PUSH20 0xFFFFFFFFFFFFFFFFFFFFFFFFFFFFFFFFFFFFFFFF AND CALLER PUSH20 0xFFFFFFFFFFFFFFFFFFFFFFFFFFFFFFFFFFFFFFFF AND EQ PUSH2 0x160D JUMPI PUSH1 0x40 MLOAD PUSH32 0x8C379A000000000000000000000000000000000000000000000000000000000 DUP2 MSTORE PUSH1 0x4 ADD PUSH2 0x1604 SWAP1 PUSH2 0x3604 JUMP JUMPDEST PUSH1 0x40 MLOAD DUP1 SWAP2 SUB SWAP1 REVERT JUMPDEST PUSH0 DUP2 PUSH0 ADD CALLDATALOAD SUB PUSH2 0x1652 JUMPI PUSH1 0x40 MLOAD PUSH32 0x8C379A000000000000000000000000000000000000000000000000000000000 DUP2 MSTORE PUSH1 0x4 ADD PUSH2 0x1649 SWAP1 PUSH2 0x4479 JUMP JUMPDEST PUSH1 0x40 MLOAD DUP1 SWAP2 SUB SWAP1 REVERT JUMPDEST DUP1 PUSH1 0x8 PUSH0 DUP4 PUSH0 ADD CALLDATALOAD DUP2 MSTORE PUSH1 0x20 ADD SWAP1 DUP2 MSTORE PUSH1 0x20 ADD PUSH0 KECCAK256 DUP2 DUP2 PUSH2 0x1673 SWAP2 SWAP1 PUSH2 0x48B6 JUMP JUMPDEST SWAP1 POP POP DUP1 PUSH1 0x20 ADD PUSH1 0x20 DUP2 ADD SWAP1 PUSH2 0x1689 SWAP2 SWAP1 PUSH2 0x28EF JUMP JUMPDEST PUSH20 0xFFFFFFFFFFFFFFFFFFFFFFFFFFFFFFFFFFFFFFFF AND DUP2 PUSH0 ADD CALLDATALOAD PUSH32 0x159EAE2587974B857C8B28D8D49D8CCA50CC87FC9B0BD9BD76467F77AAF5C8B6 DUP4 PUSH1 0x60 ADD CALLDATALOAD PUSH1 0x40 MLOAD PUSH2 0x16D6 SWAP2 SWAP1 PUSH2 0x2A93 JUMP JUMPDEST PUSH1 0x40 MLOAD DUP1 SWAP2 SUB SWAP1 LOG3 POP JUMP JUMPDEST PUSH2 0x16E9 PUSH2 0x27A3 JUMP JUMPDEST PUSH1 0x8 PUSH0 DUP4 DUP2 MSTORE PUSH1 0x20 ADD SWAP1 DUP2 MSTORE PUSH1 0x20 ADD PUSH0 KECCAK256 PUSH1 0x40 MLOAD DUP1 PUSH2 0x100 ADD PUSH1 0x40 MSTORE SWAP1 DUP2 PUSH0 DUP3 ADD SLOAD DUP2 MSTORE PUSH1 0x20 ADD PUSH1 0x1 DUP3 ADD PUSH0 SWAP1 SLOAD SWAP1 PUSH2 0x100 EXP SWAP1 DIV PUSH20 0xFFFFFFFFFFFFFFFFFFFFFFFFFFFFFFFFFFFFFFFF AND PUSH20 0xFFFFFFFFFFFFFFFFFFFFFFFFFFFFFFFFFFFFFFFF AND PUSH20 0xFFFFFFFFFFFFFFFFFFFFFFFFFFFFFFFFFFFFFFFF AND DUP2 MSTORE PUSH1 0x20 ADD PUSH1 0x2 DUP3 ADD DUP1 SLOAD PUSH2 0x1774 SWAP1 PUSH2 0x358A JUMP JUMPDEST DUP1 PUSH1 0x1F ADD PUSH1 0x20 DUP1 SWAP2 DIV MUL PUSH1 0x20 ADD PUSH1 0x40 MLOAD SWAP1 DUP2 ADD PUSH1 0x40 MSTORE DUP1 SWAP3 SWAP2 SWAP1 DUP2 DUP2 MSTORE PUSH1 0x20 ADD DUP3 DUP1 SLOAD PUSH2 0x17A0 SWAP1 PUSH2 0x358A JUMP JUMPDEST DUP1 ISZERO PUSH2 0x17EB JUMPI DUP1 PUSH1 0x1F LT PUSH2 0x17C2 JUMPI PUSH2 0x100 DUP1 DUP4 SLOAD DIV MUL DUP4 MSTORE SWAP2 PUSH1 0x20 ADD SWAP2 PUSH2 0x17EB JUMP JUMPDEST DUP3 ADD SWAP2 SWAP1 PUSH0 MSTORE PUSH1 0x20 PUSH0 KECCAK256 SWAP1 JUMPDEST DUP2 SLOAD DUP2 MSTORE SWAP1 PUSH1 0x1 ADD SWAP1 PUSH1 0x20 ADD DUP1 DUP4 GT PUSH2 0x17CE JUMPI DUP3 SWAP1 SUB PUSH1 0x1F AND DUP3 ADD SWAP2 JUMPDEST POP POP POP POP POP DUP2 MSTORE PUSH1 0x20 ADD PUSH1 0x3 DUP3 ADD SLOAD DUP2 MSTORE PUSH1 0x20 ADD PUSH1 0x4 DUP3 ADD PUSH0 SWAP1 SLOAD SWAP1 PUSH2 0x100 EXP SWAP1 DIV PUSH1 0xFF AND PUSH1 0x2 DUP2 GT ISZERO PUSH2 0x1822 JUMPI PUSH2 0x1821 PUSH2 0x2FA6 JUMP JUMPDEST JUMPDEST PUSH1 0x2 DUP2 GT ISZERO PUSH2 0x1834 JUMPI PUSH2 0x1833 PUSH2 0x2FA6 JUMP JUMPDEST JUMPDEST DUP2 MSTORE PUSH1 0x20 ADD PUSH1 0x4 DUP3 ADD PUSH1 0x1 SWAP1 SLOAD SWAP1 PUSH2 0x100 EXP SWAP1 DIV PUSH20 0xFFFFFFFFFFFFFFFFFFFFFFFFFFFFFFFFFFFFFFFF AND PUSH20 0xFFFFFFFFFFFFFFFFFFFFFFFFFFFFFFFFFFFFFFFF AND PUSH20 0xFFFFFFFFFFFFFFFFFFFFFFFFFFFFFFFFFFFFFFFF AND DUP2 MSTORE PUSH1 0x20 ADD PUSH1 0x5 DUP3 ADD DUP1 SLOAD DUP1 PUSH1 0x20 MUL PUSH1 0x20 ADD PUSH1 0x40 MLOAD SWAP1 DUP2 ADD PUSH1 0x40 MSTORE DUP1 SWAP3 SWAP2 SWAP1 DUP2 DUP2 MSTORE PUSH1 0x20 ADD PUSH0 SWAP1 JUMPDEST DUP3 DUP3 LT ISZERO PUSH2 0x1AA4 JUMPI DUP4 DUP3 SWAP1 PUSH0 MSTORE PUSH1 0x20 PUSH0 KECCAK256 SWAP1 PUSH1 0x4 MUL ADD PUSH1 0x40 MLOAD DUP1 PUSH1 0x80 ADD PUSH1 0x40 MSTORE SWAP1 DUP2 PUSH0 DUP3 ADD PUSH0 SWAP1 SLOAD SWAP1 PUSH2 0x100 EXP SWAP1 DIV PUSH20 0xFFFFFFFFFFFFFFFFFFFFFFFFFFFFFFFFFFFFFFFF AND PUSH20 0xFFFFFFFFFFFFFFFFFFFFFFFFFFFFFFFFFFFFFFFF AND PUSH20 0xFFFFFFFFFFFFFFFFFFFFFFFFFFFFFFFFFFFFFFFF AND DUP2 MSTORE PUSH1 0x20 ADD PUSH1 0x1 DUP3 ADD SLOAD DUP2 MSTORE PUSH1 0x20 ADD PUSH1 0x2 DUP3 ADD DUP1 SLOAD PUSH2 0x1941 SWAP1 PUSH2 0x358A JUMP JUMPDEST DUP1 PUSH1 0x1F ADD PUSH1 0x20 DUP1 SWAP2 DIV MUL PUSH1 0x20 ADD PUSH1 0x40 MLOAD SWAP1 DUP2 ADD PUSH1 0x40 MSTORE DUP1 SWAP3 SWAP2 SWAP1 DUP2 DUP2 MSTORE PUSH1 0x20 ADD DUP3 DUP1 SLOAD PUSH2 0x196D SWAP1 PUSH2 0x358A JUMP JUMPDEST DUP1 ISZERO PUSH2 0x19B8 JUMPI DUP1 PUSH1 0x1F LT PUSH2 0x198F JUMPI PUSH2 0x100 DUP1 DUP4 SLOAD DIV MUL DUP4 MSTORE SWAP2 PUSH1 0x20 ADD SWAP2 PUSH2 0x19B8 JUMP JUMPDEST DUP3 ADD SWAP2 SWAP1 PUSH0 MSTORE PUSH1 0x20 PUSH0 KECCAK256 SWAP1 JUMPDEST DUP2 SLOAD DUP2 MSTORE SWAP1 PUSH1 0x1 ADD SWAP1 PUSH1 0x20 ADD DUP1 DUP4 GT PUSH2 0x199B JUMPI DUP3 SWAP1 SUB PUSH1 0x1F AND DUP3 ADD SWAP2 JUMPDEST POP POP POP POP POP DUP2 MSTORE PUSH1 0x20 ADD PUSH1 0x3 DUP3 ADD DUP1 SLOAD DUP1 PUSH1 0x20 MUL PUSH1 0x20 ADD PUSH1 0x40 MLOAD SWAP1 DUP2 ADD PUSH1 0x40 MSTORE DUP1 SWAP3 SWAP2 SWAP1 DUP2 DUP2 MSTORE PUSH1 0x20 ADD PUSH0 SWAP1 JUMPDEST DUP3 DUP3 LT ISZERO PUSH2 0x1A8D JUMPI DUP4 DUP3 SWAP1 PUSH0 MSTORE PUSH1 0x20 PUSH0 KECCAK256 ADD DUP1 SLOAD PUSH2 0x1A02 SWAP1 PUSH2 0x358A JUMP JUMPDEST DUP1 PUSH1 0x1F ADD PUSH1 0x20 DUP1 SWAP2 DIV MUL PUSH1 0x20 ADD PUSH1 0x40 MLOAD SWAP1 DUP2 ADD PUSH1 0x40 MSTORE DUP1 SWAP3 SWAP2 SWAP1 DUP2 DUP2 MSTORE PUSH1 0x20 ADD DUP3 DUP1 SLOAD PUSH2 0x1A2E SWAP1 PUSH2 0x358A JUMP JUMPDEST DUP1 ISZERO PUSH2 0x1A79 JUMPI DUP1 PUSH1 0x1F LT PUSH2 0x1A50 JUMPI PUSH2 0x100 DUP1 DUP4 SLOAD DIV MUL DUP4 MSTORE SWAP2 PUSH1 0x20 ADD SWAP2 PUSH2 0x1A79 JUMP JUMPDEST DUP3 ADD SWAP2 SWAP1 PUSH0 MSTORE PUSH1 0x20 PUSH0 KECCAK256 SWAP1 JUMPDEST DUP2 SLOAD DUP2 MSTORE SWAP1 PUSH1 0x1 ADD SWAP1 PUSH1 0x20 ADD DUP1 DUP4 GT PUSH2 0x1A5C JUMPI DUP3 SWAP1 SUB PUSH1 0x1F AND DUP3 ADD SWAP2 JUMPDEST POP POP POP POP POP DUP2 MSTORE PUSH1 0x20 ADD SWAP1 PUSH1 0x1 ADD SWAP1 PUSH2 0x19E5 JUMP JUMPDEST POP POP POP POP DUP2 MSTORE POP POP DUP2 MSTORE PUSH1 0x20 ADD SWAP1 PUSH1 0x1 ADD SWAP1 PUSH2 0x18B2 JUMP JUMPDEST POP POP POP POP DUP2 MSTORE PUSH1 0x20 ADD PUSH1 0x6 DUP3 ADD DUP1 SLOAD DUP1 PUSH1 0x20 MUL PUSH1 0x20 ADD PUSH1 0x40 MLOAD SWAP1 DUP2 ADD PUSH1 0x40 MSTORE DUP1 SWAP3 SWAP2 SWAP1 DUP2 DUP2 MSTORE PUSH1 0x20 ADD PUSH0 SWAP1 JUMPDEST DUP3 DUP3 LT ISZERO PUSH2 0x1B78 JUMPI DUP4 DUP3 SWAP1 PUSH0 MSTORE PUSH1 0x20 PUSH0 KECCAK256 ADD DUP1 SLOAD PUSH2 0x1AED SWAP1 PUSH2 0x358A JUMP JUMPDEST DUP1 PUSH1 0x1F ADD PUSH1 0x20 DUP1 SWAP2 DIV MUL PUSH1 0x20 ADD PUSH1 0x40 MLOAD SWAP1 DUP2 ADD PUSH1 0x40 MSTORE DUP1 SWAP3 SWAP2 SWAP1 DUP2 DUP2 MSTORE PUSH1 0x20 ADD DUP3 DUP1 SLOAD PUSH2 0x1B19 SWAP1 PUSH2 0x358A JUMP JUMPDEST DUP1 ISZERO PUSH2 0x1B64 JUMPI DUP1 PUSH1 0x1F LT PUSH2 0x1B3B JUMPI PUSH2 0x100 DUP1 DUP4 SLOAD DIV MUL DUP4 MSTORE SWAP2 PUSH1 0x20 ADD SWAP2 PUSH2 0x1B64 JUMP JUMPDEST DUP3 ADD SWAP2 SWAP1 PUSH0 MSTORE PUSH1 0x20 PUSH0 KECCAK256 SWAP1 JUMPDEST DUP2 SLOAD DUP2 MSTORE SWAP1 PUSH1 0x1 ADD SWAP1 PUSH1 0x20 ADD DUP1 DUP4 GT PUSH2 0x1B47 JUMPI DUP3 SWAP1 SUB PUSH1 0x1F AND DUP3 ADD SWAP2 JUMPDEST POP POP POP POP POP DUP2 MSTORE PUSH1 0x20 ADD SWAP1 PUSH1 0x1 ADD SWAP1 PUSH2 0x1AD0 JUMP JUMPDEST POP POP POP POP DUP2 MSTORE POP POP SWAP1 POP SWAP2 SWAP1 POP JUMP JUMPDEST PUSH1 0x2 SLOAD DUP2 JUMP JUMPDEST PUSH1 0x1 PUSH0 SWAP1 SLOAD SWAP1 PUSH2 0x100 EXP SWAP1 DIV PUSH20 0xFFFFFFFFFFFFFFFFFFFFFFFFFFFFFFFFFFFFFFFF AND PUSH20 0xFFFFFFFFFFFFFFFFFFFFFFFFFFFFFFFFFFFFFFFF AND CALLER PUSH20 0xFFFFFFFFFFFFFFFFFFFFFFFFFFFFFFFFFFFFFFFF AND EQ PUSH2 0x1C1C JUMPI PUSH1 0x40 MLOAD PUSH32 0x8C379A000000000000000000000000000000000000000000000000000000000 DUP2 MSTORE PUSH1 0x4 ADD PUSH2 0x1C13 SWAP1 PUSH2 0x3604 JUMP JUMPDEST PUSH1 0x40 MLOAD DUP1 SWAP2 SUB SWAP1 REVERT JUMPDEST PUSH0 PUSH20 0xFFFFFFFFFFFFFFFFFFFFFFFFFFFFFFFFFFFFFFFF AND DUP2 PUSH0 ADD PUSH1 0x20 DUP2 ADD SWAP1 PUSH2 0x1C45 SWAP2 SWAP1 PUSH2 0x28EF JUMP JUMPDEST PUSH20 0xFFFFFFFFFFFFFFFFFFFFFFFFFFFFFFFFFFFFFFFF AND SUB PUSH2 0x1C9B JUMPI PUSH1 0x40 MLOAD PUSH32 0x8C379A000000000000000000000000000000000000000000000000000000000 DUP2 MSTORE PUSH1 0x4 ADD PUSH2 0x1C92 SWAP1 PUSH2 0x490E JUMP JUMPDEST PUSH1 0x40 MLOAD DUP1 SWAP2 SUB SWAP1 REVERT JUMPDEST DUP1 PUSH1 0x5 PUSH0 DUP4 PUSH0 ADD PUSH1 0x20 DUP2 ADD SWAP1 PUSH2 0x1CB1 SWAP2 SWAP1 PUSH2 0x28EF JUMP JUMPDEST PUSH20 0xFFFFFFFFFFFFFFFFFFFFFFFFFFFFFFFFFFFFFFFF AND PUSH20 0xFFFFFFFFFFFFFFFFFFFFFFFFFFFFFFFFFFFFFFFF AND DUP2 MSTORE PUSH1 0x20 ADD SWAP1 DUP2 MSTORE PUSH1 0x20 ADD PUSH0 KECCAK256 DUP2 DUP2 PUSH2 0x1CF6 SWAP2 SWAP1 PUSH2 0x4A15 JUMP JUMPDEST SWAP1 POP POP DUP1 PUSH1 0xC0 ADD PUSH1 0x20 DUP2 ADD SWAP1 PUSH2 0x1D0C SWAP2 SWAP1 PUSH2 0x4404 JUMP JUMPDEST PUSH1 0x9 PUSH0 DUP4 PUSH0 ADD PUSH1 0x20 DUP2 ADD SWAP1 PUSH2 0x1D21 SWAP2 SWAP1 PUSH2 0x28EF JUMP JUMPDEST PUSH20 0xFFFFFFFFFFFFFFFFFFFFFFFFFFFFFFFFFFFFFFFF AND PUSH20 0xFFFFFFFFFFFFFFFFFFFFFFFFFFFFFFFFFFFFFFFF AND DUP2 MSTORE PUSH1 0x20 ADD SWAP1 DUP2 MSTORE PUSH1 0x20 ADD PUSH0 KECCAK256 PUSH0 PUSH2 0x100 EXP DUP2 SLOAD DUP2 PUSH1 0xFF MUL NOT AND SWAP1 DUP4 ISZERO ISZERO MUL OR SWAP1 SSTORE POP DUP1 PUSH0 ADD PUSH1 0x20 DUP2 ADD SWAP1 PUSH2 0x1D82 SWAP2 SWAP1 PUSH2 0x28EF JUMP JUMPDEST PUSH20 0xFFFFFFFFFFFFFFFFFFFFFFFFFFFFFFFFFFFFFFFF AND PUSH32 0xD923AD306578F213C8E617F9102C59F7DC3F7A3C22F77EE29AC695DE0EDE78F6 DUP3 PUSH1 0x40 ADD CALLDATALOAD DUP4 PUSH1 0xC0 ADD PUSH1 0x20 DUP2 ADD SWAP1 PUSH2 0x1DD1 SWAP2 SWAP1 PUSH2 0x4404 JUMP JUMPDEST PUSH1 0x40 MLOAD PUSH2 0x1DDF SWAP3 SWAP2 SWAP1 PUSH2 0x4A23 JUMP JUMPDEST PUSH1 0x40 MLOAD DUP1 SWAP2 SUB SWAP1 LOG2 POP JUMP JUMPDEST PUSH1 0xA PUSH1 0x20 MSTORE DUP1 PUSH0 MSTORE PUSH1 0x40 PUSH0 KECCAK256 PUSH0 SWAP2 POP SLOAD SWAP1 PUSH2 0x100 EXP SWAP1 DIV PUSH1 0xFF AND DUP2 JUMP JUMPDEST PUSH1 0x1 PUSH0 SWAP1 SLOAD SWAP1 PUSH2 0x100 EXP SWAP1 DIV PUSH20 0xFFFFFFFFFFFFFFFFFFFFFFFFFFFFFFFFFFFFFFFF AND DUP2 JUMP JUMPDEST PUSH2 0x1E34 PUSH2 0x2821 JUMP JUMPDEST PUSH1 0x7 PUSH0 DUP4 DUP2 MSTORE PUSH1 0x20 ADD SWAP1 DUP2 MSTORE PUSH1 0x20 ADD PUSH0 KECCAK256 PUSH1 0x40 MLOAD DUP1 PUSH2 0x100 ADD PUSH1 0x40 MSTORE SWAP1 DUP2 PUSH0 DUP3 ADD SLOAD DUP2 MSTORE PUSH1 0x20 ADD PUSH1 0x1 DUP3 ADD PUSH0 SWAP1 SLOAD SWAP1 PUSH2 0x100 EXP SWAP1 DIV PUSH20 0xFFFFFFFFFFFFFFFFFFFFFFFFFFFFFFFFFFFFFFFF AND PUSH20 0xFFFFFFFFFFFFFFFFFFFFFFFFFFFFFFFFFFFFFFFF AND PUSH20 0xFFFFFFFFFFFFFFFFFFFFFFFFFFFFFFFFFFFFFFFF AND DUP2 MSTORE PUSH1 0x20 ADD PUSH1 0x2 DUP3 ADD PUSH0 SWAP1 SLOAD SWAP1 PUSH2 0x100 EXP SWAP1 DIV PUSH20 0xFFFFFFFFFFFFFFFFFFFFFFFFFFFFFFFFFFFFFFFF AND PUSH20 0xFFFFFFFFFFFFFFFFFFFFFFFFFFFFFFFFFFFFFFFF AND PUSH20 0xFFFFFFFFFFFFFFFFFFFFFFFFFFFFFFFFFFFFFFFF AND DUP2 MSTORE PUSH1 0x20 ADD PUSH1 0x3 DUP3 ADD DUP1 SLOAD PUSH2 0x1F14 SWAP1 PUSH2 0x358A JUMP JUMPDEST DUP1 PUSH1 0x1F ADD PUSH1 0x20 DUP1 SWAP2 DIV MUL PUSH1 0x20 ADD PUSH1 0x40 MLOAD SWAP1 DUP2 ADD PUSH1 0x40 MSTORE DUP1 SWAP3 SWAP2 SWAP1 DUP2 DUP2 MSTORE PUSH1 0x20 ADD DUP3 DUP1 SLOAD PUSH2 0x1F40 SWAP1 PUSH2 0x358A JUMP JUMPDEST DUP1 ISZERO PUSH2 0x1F8B JUMPI DUP1 PUSH1 0x1F LT PUSH2 0x1F62 JUMPI PUSH2 0x100 DUP1 DUP4 SLOAD DIV MUL DUP4 MSTORE SWAP2 PUSH1 0x20 ADD SWAP2 PUSH2 0x1F8B JUMP JUMPDEST DUP3 ADD SWAP2 SWAP1 PUSH0 MSTORE PUSH1 0x20 PUSH0 KECCAK256 SWAP1 JUMPDEST DUP2 SLOAD DUP2 MSTORE SWAP1 PUSH1 0x1 ADD SWAP1 PUSH1 0x20 ADD DUP1 DUP4 GT PUSH2 0x1F6E JUMPI DUP3 SWAP1 SUB PUSH1 0x1F AND DUP3 ADD SWAP2 JUMPDEST POP POP POP POP POP DUP2 MSTORE PUSH1 0x20 ADD PUSH1 0x4 DUP3 ADD SLOAD DUP2 MSTORE PUSH1 0x20 ADD PUSH1 0x5 DUP3 ADD SLOAD DUP2 MSTORE PUSH1 0x20 ADD PUSH1 0x6 DUP3 ADD PUSH0 SWAP1 SLOAD SWAP1 PUSH2 0x100 EXP SWAP1 DIV PUSH1 0xFF AND ISZERO ISZERO ISZERO ISZERO DUP2 MSTORE PUSH1 0x20 ADD PUSH1 0x7 DUP3 ADD SLOAD DUP2 MSTORE POP POP SWAP1 POP SWAP2 SWAP1 POP JUMP JUMPDEST PUSH2 0x1FDB PUSH2 0x233E JUMP JUMPDEST PUSH0 PUSH20 0xFFFFFFFFFFFFFFFFFFFFFFFFFFFFFFFFFFFFFFFF AND DUP2 PUSH20 0xFFFFFFFFFFFFFFFFFFFFFFFFFFFFFFFFFFFFFFFF AND SUB PUSH2 0x204B JUMPI PUSH0 PUSH1 0x40 MLOAD PUSH32 0x1E4FBDF700000000000000000000000000000000000000000000000000000000 DUP2 MSTORE PUSH1 0x4 ADD PUSH2 0x2042 SWAP2 SWAP1 PUSH2 0x307F JUMP JUMPDEST PUSH1 0x40 MLOAD DUP1 SWAP2 SUB SWAP1 REVERT JUMPDEST PUSH2 0x2054 DUP2 PUSH2 0x23C5 JUMP JUMPDEST POP JUMP JUMPDEST PUSH1 0x1 PUSH0 SWAP1 SLOAD SWAP1 PUSH2 0x100 EXP SWAP1 DIV PUSH20 0xFFFFFFFFFFFFFFFFFFFFFFFFFFFFFFFFFFFFFFFF AND PUSH20 0xFFFFFFFFFFFFFFFFFFFFFFFFFFFFFFFFFFFFFFFF AND CALLER PUSH20 0xFFFFFFFFFFFFFFFFFFFFFFFFFFFFFFFFFFFFFFFF AND EQ PUSH2 0x20E6 JUMPI PUSH1 0x40 MLOAD PUSH32 0x8C379A000000000000000000000000000000000000000000000000000000000 DUP2 MSTORE PUSH1 0x4 ADD PUSH2 0x20DD SWAP1 PUSH2 0x3604 JUMP JUMPDEST PUSH1 0x40 MLOAD DUP1 SWAP2 SUB SWAP1 REVERT JUMPDEST PUSH0 DUP2 PUSH0 ADD CALLDATALOAD SUB PUSH2 0x212B JUMPI PUSH1 0x40 MLOAD PUSH32 0x8C379A000000000000000000000000000000000000000000000000000000000 DUP2 MSTORE PUSH1 0x4 ADD PUSH2 0x2122 SWAP1 PUSH2 0x4A94 JUMP JUMPDEST PUSH1 0x40 MLOAD DUP1 SWAP2 SUB SWAP1 REVERT JUMPDEST PUSH0 PUSH20 0xFFFFFFFFFFFFFFFFFFFFFFFFFFFFFFFFFFFFFFFF AND DUP2 PUSH1 0x20 ADD PUSH1 0x20 DUP2 ADD SWAP1 PUSH2 0x2155 SWAP2 SWAP1 PUSH2 0x28EF JUMP JUMPDEST PUSH20 0xFFFFFFFFFFFFFFFFFFFFFFFFFFFFFFFFFFFFFFFF AND SUB PUSH2 0x21AB JUMPI PUSH1 0x40 MLOAD PUSH32 0x8C379A000000000000000000000000000000000000000000000000000000000 DUP2 MSTORE PUSH1 0x4 ADD PUSH2 0x21A2 SWAP1 PUSH2 0x4AFC JUMP JUMPDEST PUSH1 0x40 MLOAD DUP1 SWAP2 SUB SWAP1 REVERT JUMPDEST PUSH0 PUSH20 0xFFFFFFFFFFFFFFFFFFFFFFFFFFFFFFFFFFFFFFFF AND DUP2 PUSH1 0x40 ADD PUSH1 0x20 DUP2 ADD SWAP1 PUSH2 0x21D5 SWAP2 SWAP1 PUSH2 0x28EF JUMP JUMPDEST PUSH20 0xFFFFFFFFFFFFFFFFFFFFFFFFFFFFFFFFFFFFFFFF AND SUB PUSH2 0x222B JUMPI PUSH1 0x40 MLOAD PUSH32 0x8C379A000000000000000000000000000000000000000000000000000000000 DUP2 MSTORE PUSH1 0x4 ADD PUSH2 0x2222 SWAP1 PUSH2 0x4B64 JUMP JUMPDEST PUSH1 0x40 MLOAD DUP1 SWAP2 SUB SWAP1 REVERT JUMPDEST DUP1 PUSH1 0xC0 ADD PUSH1 0x20 DUP2 ADD SWAP1 PUSH2 0x223E SWAP2 SWAP1 PUSH2 0x4404 JUMP JUMPDEST ISZERO PUSH2 0x2251 JUMPI PUSH2 0x224C DUP2 PUSH2 0x2486 JUMP JUMPDEST PUSH2 0x225B JUMP JUMPDEST PUSH2 0x225A DUP2 PUSH2 0x2607 JUMP JUMPDEST JUMPDEST DUP1 PUSH1 0x7 PUSH0 DUP4 PUSH0 ADD CALLDATALOAD DUP2 MSTORE PUSH1 0x20 ADD SWAP1 DUP2 MSTORE PUSH1 0x20 ADD PUSH0 KECCAK256 DUP2 DUP2 PUSH2 0x227C SWAP2 SWAP1 PUSH2 0x4C8C JUMP JUMPDEST SWAP1 POP POP DUP1 PUSH1 0x40 ADD PUSH1 0x20 DUP2 ADD SWAP1 PUSH2 0x2292 SWAP2 SWAP1 PUSH2 0x28EF JUMP JUMPDEST PUSH20 0xFFFFFFFFFFFFFFFFFFFFFFFFFFFFFFFFFFFFFFFF AND DUP2 PUSH1 0x20 ADD PUSH1 0x20 DUP2 ADD SWAP1 PUSH2 0x22BB SWAP2 SWAP1 PUSH2 0x28EF JUMP JUMPDEST PUSH20 0xFFFFFFFFFFFFFFFFFFFFFFFFFFFFFFFFFFFFFFFF AND DUP3 PUSH0 ADD CALLDATALOAD PUSH32 0x3087C877B53A5024E8F601EA7F932C61BD51C5B78D732358BDAB9821C26E67F5 DUP5 PUSH1 0xC0 ADD PUSH1 0x20 DUP2 ADD SWAP1 PUSH2 0x2309 SWAP2 SWAP1 PUSH2 0x4404 JUMP JUMPDEST PUSH1 0x40 MLOAD PUSH2 0x2316 SWAP2 SWAP1 PUSH2 0x2D65 JUMP JUMPDEST PUSH1 0x40 MLOAD DUP1 SWAP2 SUB SWAP1 LOG4 POP JUMP JUMPDEST PUSH1 0x9 PUSH1 0x20 MSTORE DUP1 PUSH0 MSTORE PUSH1 0x40 PUSH0 KECCAK256 PUSH0 SWAP2 POP SLOAD SWAP1 PUSH2 0x100 EXP SWAP1 DIV PUSH1 0xFF AND DUP2 JUMP JUMPDEST PUSH2 0x2346 PUSH2 0x2697 JUMP JUMPDEST PUSH20 0xFFFFFFFFFFFFFFFFFFFFFFFFFFFFFFFFFFFFFFFF AND PUSH2 0x2364 PUSH2 0x1505 JUMP JUMPDEST PUSH20 0xFFFFFFFFFFFFFFFFFFFFFFFFFFFFFFFFFFFFFFFF AND EQ PUSH2 0x23C3 JUMPI PUSH2 0x2387 PUSH2 0x2697 JUMP JUMPDEST PUSH1 0x40 MLOAD PUSH32 0x118CDAA700000000000000000000000000000000000000000000000000000000 DUP2 MSTORE PUSH1 0x4 ADD PUSH2 0x23BA SWAP2 SWAP1 PUSH2 0x307F JUMP JUMPDEST PUSH1 0x40 MLOAD DUP1 SWAP2 SUB SWAP1 REVERT JUMPDEST JUMP JUMPDEST PUSH0 DUP1 PUSH0 SWAP1 SLOAD SWAP1 PUSH2 0x100 EXP SWAP1 DIV PUSH20 0xFFFFFFFFFFFFFFFFFFFFFFFFFFFFFFFFFFFFFFFF AND SWAP1 POP DUP2 PUSH0 DUP1 PUSH2 0x100 EXP DUP2 SLOAD DUP2 PUSH20 0xFFFFFFFFFFFFFFFFFFFFFFFFFFFFFFFFFFFFFFFF MUL NOT AND SWAP1 DUP4 PUSH20 0xFFFFFFFFFFFFFFFFFFFFFFFFFFFFFFFFFFFFFFFF AND MUL OR SWAP1 SSTORE POP DUP2 PUSH20 0xFFFFFFFFFFFFFFFFFFFFFFFFFFFFFFFFFFFFFFFF AND DUP2 PUSH20 0xFFFFFFFFFFFFFFFFFFFFFFFFFFFFFFFFFFFFFFFF AND PUSH32 0x8BE0079C531659141344CD1FD0A4F28419497F9722A3DAAFE3B4186F6B6457E0 PUSH1 0x40 MLOAD PUSH1 0x40 MLOAD DUP1 SWAP2 SUB SWAP1 LOG3 POP POP JUMP JUMPDEST PUSH0 PUSH1 0xB PUSH0 DUP4 PUSH1 0x40 ADD PUSH1 0x20 DUP2 ADD SWAP1 PUSH2 0x249D SWAP2 SWAP1 PUSH2 0x28EF JUMP JUMPDEST PUSH20 0xFFFFFFFFFFFFFFFFFFFFFFFFFFFFFFFFFFFFFFFF AND PUSH20 0xFFFFFFFFFFFFFFFFFFFFFFFFFFFFFFFFFFFFFFFF AND DUP2 MSTORE PUSH1 0x20 ADD SWAP1 DUP2 MSTORE PUSH1 0x20 ADD PUSH0 KECCAK256 SWAP1 POP PUSH0 JUMPDEST DUP2 DUP1 SLOAD SWAP1 POP DUP2 LT ISZERO PUSH2 0x258C JUMPI DUP3 PUSH0 ADD CALLDATALOAD DUP3 DUP3 DUP2 SLOAD DUP2 LT PUSH2 0x24FD JUMPI PUSH2 0x24FC PUSH2 0x4C9A JUMP JUMPDEST JUMPDEST SWAP1 PUSH0 MSTORE PUSH1 0x20 PUSH0 KECCAK256 ADD SLOAD SUB PUSH2 0x257F JUMPI DUP2 PUSH1 0x1 DUP4 DUP1 SLOAD SWAP1 POP PUSH2 0x251D SWAP2 SWAP1 PUSH2 0x4CC7 JUMP JUMPDEST DUP2 SLOAD DUP2 LT PUSH2 0x252E JUMPI PUSH2 0x252D PUSH2 0x4C9A JUMP JUMPDEST JUMPDEST SWAP1 PUSH0 MSTORE PUSH1 0x20 PUSH0 KECCAK256 ADD SLOAD DUP3 DUP3 DUP2 SLOAD DUP2 LT PUSH2 0x254A JUMPI PUSH2 0x2549 PUSH2 0x4C9A JUMP JUMPDEST JUMPDEST SWAP1 PUSH0 MSTORE PUSH1 0x20 PUSH0 KECCAK256 ADD DUP2 SWAP1 SSTORE POP DUP2 DUP1 SLOAD DUP1 PUSH2 0x2567 JUMPI PUSH2 0x2566 PUSH2 0x4CFA JUMP JUMPDEST JUMPDEST PUSH1 0x1 SWAP1 SUB DUP2 DUP2 SWAP1 PUSH0 MSTORE PUSH1 0x20 PUSH0 KECCAK256 ADD PUSH0 SWAP1 SSTORE SWAP1 SSTORE PUSH2 0x258C JUMP JUMPDEST DUP1 DUP1 PUSH1 0x1 ADD SWAP2 POP POP PUSH2 0x24DA JUMP JUMPDEST POP PUSH1 0xC PUSH0 DUP4 PUSH1 0x40 ADD PUSH1 0x20 DUP2 ADD SWAP1 PUSH2 0x25A3 SWAP2 SWAP1 PUSH2 0x28EF JUMP JUMPDEST PUSH20 0xFFFFFFFFFFFFFFFFFFFFFFFFFFFFFFFFFFFFFFFF AND PUSH20 0xFFFFFFFFFFFFFFFFFFFFFFFFFFFFFFFFFFFFFFFF AND DUP2 MSTORE PUSH1 0x20 ADD SWAP1 DUP2 MSTORE PUSH1 0x20 ADD PUSH0 KECCAK256 DUP3 PUSH0 ADD CALLDATALOAD SWAP1 DUP1 PUSH1 0x1 DUP2 SLOAD ADD DUP1 DUP3 SSTORE DUP1 SWAP2 POP POP PUSH1 0x1 SWAP1 SUB SWAP1 PUSH0 MSTORE PUSH1 0x20 PUSH0 KECCAK256 ADD PUSH0 SWAP1 SWAP2 SWAP1 SWAP2 SWAP1 SWAP2 POP SSTORE POP POP JUMP JUMPDEST PUSH0 PUSH1 0xB PUSH0 DUP4 PUSH1 0x40 ADD PUSH1 0x20 DUP2 ADD SWAP1 PUSH2 0x261E SWAP2 SWAP1 PUSH2 0x28EF JUMP JUMPDEST PUSH20 0xFFFFFFFFFFFFFFFFFFFFFFFFFFFFFFFFFFFFFFFF AND PUSH20 0xFFFFFFFFFFFFFFFFFFFFFFFFFFFFFFFFFFFFFFFF AND DUP2 MSTORE PUSH1 0x20 ADD SWAP1 DUP2 MSTORE PUSH1 0x20 ADD PUSH0 KECCAK256 SWAP1 POP PUSH2 0x2666 DUP2 DUP4 PUSH0 ADD CALLDATALOAD PUSH2 0x269E JUMP JUMPDEST PUSH2 0x2693 JUMPI DUP1 DUP3 PUSH0 ADD CALLDATALOAD SWAP1 DUP1 PUSH1 0x1 DUP2 SLOAD ADD DUP1 DUP3 SSTORE DUP1 SWAP2 POP POP PUSH1 0x1 SWAP1 SUB SWAP1 PUSH0 MSTORE PUSH1 0x20 PUSH0 KECCAK256 ADD PUSH0 SWAP1 SWAP2 SWAP1 SWAP2 SWAP1 SWAP2 POP SSTORE JUMPDEST POP POP JUMP JUMPDEST PUSH0 CALLER SWAP1 POP SWAP1 JUMP JUMPDEST PUSH0 DUP1 PUSH0 SWAP1 POP JUMPDEST DUP4 DUP1 SLOAD SWAP1 POP DUP2 LT ISZERO PUSH2 0x26E9 JUMPI DUP3 DUP5 DUP3 DUP2 SLOAD DUP2 LT PUSH2 0x26C4 JUMPI PUSH2 0x26C3 PUSH2 0x4C9A JUMP JUMPDEST JUMPDEST SWAP1 PUSH0 MSTORE PUSH1 0x20 PUSH0 KECCAK256 ADD SLOAD SUB PUSH2 0x26DC JUMPI PUSH1 0x1 SWAP2 POP POP PUSH2 0x26EE JUMP JUMPDEST DUP1 DUP1 PUSH1 0x1 ADD SWAP2 POP POP PUSH2 0x26A4 JUMP JUMPDEST POP PUSH0 SWAP1 POP JUMPDEST SWAP3 SWAP2 POP POP JUMP JUMPDEST PUSH1 0x40 MLOAD DUP1 PUSH1 0xE0 ADD PUSH1 0x40 MSTORE DUP1 PUSH0 PUSH20 0xFFFFFFFFFFFFFFFFFFFFFFFFFFFFFFFFFFFFFFFF AND DUP2 MSTORE PUSH1 0x20 ADD PUSH0 PUSH20 0xFFFFFFFFFFFFFFFFFFFFFFFFFFFFFFFFFFFFFFFF AND DUP2 MSTORE PUSH1 0x20 ADD PUSH0 DUP2 MSTORE PUSH1 0x20 ADD PUSH1 0x60 DUP2 MSTORE PUSH1 0x20 ADD PUSH0 DUP2 MSTORE PUSH1 0x20 ADD PUSH0 DUP2 MSTORE PUSH1 0x20 ADD PUSH0 ISZERO ISZERO DUP2 MSTORE POP SWAP1 JUMP JUMPDEST PUSH1 0x40 MLOAD DUP1 PUSH1 0xC0 ADD PUSH1 0x40 MSTORE DUP1 PUSH0 PUSH20 0xFFFFFFFFFFFFFFFFFFFFFFFFFFFFFFFFFFFFFFFF AND DUP2 MSTORE PUSH1 0x20 ADD PUSH1 0x60 DUP2 MSTORE PUSH1 0x20 ADD PUSH1 0x60 DUP2 MSTORE PUSH1 0x20 ADD PUSH0 DUP2 MSTORE PUSH1 0x20 ADD PUSH0 DUP2 MSTORE PUSH1 0x20 ADD PUSH0 ISZERO ISZERO DUP2 MSTORE POP SWAP1 JUMP JUMPDEST PUSH1 0x40 MLOAD DUP1 PUSH2 0x100 ADD PUSH1 0x40 MSTORE DUP1 PUSH0 DUP2 MSTORE PUSH1 0x20 ADD PUSH0 PUSH20 0xFFFFFFFFFFFFFFFFFFFFFFFFFFFFFFFFFFFFFFFF AND DUP2 MSTORE PUSH1 0x20 ADD PUSH1 0x60 DUP2 MSTORE PUSH1 0x20 ADD PUSH0 DUP2 MSTORE PUSH1 0x20 ADD PUSH0 PUSH1 0x2 DUP2 GT ISZERO PUSH2 0x27F1 JUMPI PUSH2 0x27F0 PUSH2 0x2FA6 JUMP JUMPDEST JUMPDEST DUP2 MSTORE PUSH1 0x20 ADD PUSH0 PUSH20 0xFFFFFFFFFFFFFFFFFFFFFFFFFFFFFFFFFFFFFFFF AND DUP2 MSTORE PUSH1 0x20 ADD PUSH1 0x60 DUP2 MSTORE PUSH1 0x20 ADD PUSH1 0x60 DUP2 MSTORE POP SWAP1 JUMP JUMPDEST PUSH1 0x40 MLOAD DUP1 PUSH2 0x100 ADD PUSH1 0x40 MSTORE DUP1 PUSH0 DUP2 MSTORE PUSH1 0x20 ADD PUSH0 PUSH20 0xFFFFFFFFFFFFFFFFFFFFFFFFFFFFFFFFFFFFFFFF AND DUP2 MSTORE PUSH1 0x20 ADD PUSH0 PUSH20 0xFFFFFFFFFFFFFFFFFFFFFFFFFFFFFFFFFFFFFFFF AND DUP2 MSTORE PUSH1 0x20 ADD PUSH1 0x60 DUP2 MSTORE PUSH1 0x20 ADD PUSH0 DUP2 MSTORE PUSH1 0x20 ADD PUSH0 DUP2 MSTORE PUSH1 0x20 ADD PUSH0 ISZERO ISZERO DUP2 MSTORE PUSH1 0x20 ADD PUSH0 DUP2 MSTORE POP SWAP1 JUMP JUMPDEST PUSH0 DUP1 REVERT JUMPDEST PUSH0 DUP1 REVERT JUMPDEST PUSH0 PUSH20 0xFFFFFFFFFFFFFFFFFFFFFFFFFFFFFFFFFFFFFFFF DUP3 AND SWAP1 POP SWAP2 SWAP1 POP JUMP JUMPDEST PUSH0 PUSH2 0x28BE DUP3 PUSH2 0x2895 JUMP JUMPDEST SWAP1 POP SWAP2 SWAP1 POP JUMP JUMPDEST PUSH2 0x28CE DUP2 PUSH2 0x28B4 JUMP JUMPDEST DUP2 EQ PUSH2 0x28D8 JUMPI PUSH0 DUP1 REVERT JUMPDEST POP JUMP JUMPDEST PUSH0 DUP2 CALLDATALOAD SWAP1 POP PUSH2 0x28E9 DUP2 PUSH2 0x28C5 JUMP JUMPDEST SWAP3 SWAP2 POP POP JUMP JUMPDEST PUSH0 PUSH1 0x20 DUP3 DUP5 SUB SLT ISZERO PUSH2 0x2904 JUMPI PUSH2 0x2903 PUSH2 0x288D JUMP JUMPDEST JUMPDEST PUSH0 PUSH2 0x2911 DUP5 DUP3 DUP6 ADD PUSH2 0x28DB JUMP JUMPDEST SWAP2 POP POP SWAP3 SWAP2 POP POP JUMP JUMPDEST PUSH2 0x2923 DUP2 PUSH2 0x28B4 JUMP JUMPDEST DUP3 MSTORE POP POP JUMP JUMPDEST PUSH0 DUP2 SWAP1 POP SWAP2 SWAP1 POP JUMP JUMPDEST PUSH2 0x293B DUP2 PUSH2 0x2929 JUMP JUMPDEST DUP3 MSTORE POP POP JUMP JUMPDEST PUSH0 DUP2 MLOAD SWAP1 POP SWAP2 SWAP1 POP JUMP JUMPDEST PUSH0 DUP3 DUP3 MSTORE PUSH1 0x20 DUP3 ADD SWAP1 POP SWAP3 SWAP2 POP POP JUMP JUMPDEST DUP3 DUP2 DUP4 MCOPY PUSH0 DUP4 DUP4 ADD MSTORE POP POP POP JUMP JUMPDEST PUSH0 PUSH1 0x1F NOT PUSH1 0x1F DUP4 ADD AND SWAP1 POP SWAP2 SWAP1 POP JUMP JUMPDEST PUSH0 PUSH2 0x2983 DUP3 PUSH2 0x2941 JUMP JUMPDEST PUSH2 0x298D DUP2 DUP6 PUSH2 0x294B JUMP JUMPDEST SWAP4 POP PUSH2 0x299D DUP2 DUP6 PUSH1 0x20 DUP7 ADD PUSH2 0x295B JUMP JUMPDEST PUSH2 0x29A6 DUP2 PUSH2 0x2969 JUMP JUMPDEST DUP5 ADD SWAP2 POP POP SWAP3 SWAP2 POP POP JUMP JUMPDEST PUSH0 DUP2 ISZERO ISZERO SWAP1 POP SWAP2 SWAP1 POP JUMP JUMPDEST PUSH2 0x29C5 DUP2 PUSH2 0x29B1 JUMP JUMPDEST DUP3 MSTORE POP POP JUMP JUMPDEST PUSH0 PUSH1 0xE0 DUP4 ADD PUSH0 DUP4 ADD MLOAD PUSH2 0x29E0 PUSH0 DUP7 ADD DUP3 PUSH2 0x291A JUMP JUMPDEST POP PUSH1 0x20 DUP4 ADD MLOAD PUSH2 0x29F3 PUSH1 0x20 DUP7 ADD DUP3 PUSH2 0x291A JUMP JUMPDEST POP PUSH1 0x40 DUP4 ADD MLOAD PUSH2 0x2A06 PUSH1 0x40 DUP7 ADD DUP3 PUSH2 0x2932 JUMP JUMPDEST POP PUSH1 0x60 DUP4 ADD MLOAD DUP5 DUP3 SUB PUSH1 0x60 DUP7 ADD MSTORE PUSH2 0x2A1E DUP3 DUP3 PUSH2 0x2979 JUMP JUMPDEST SWAP2 POP POP PUSH1 0x80 DUP4 ADD MLOAD PUSH2 0x2A33 PUSH1 0x80 DUP7 ADD DUP3 PUSH2 0x2932 JUMP JUMPDEST POP PUSH1 0xA0 DUP4 ADD MLOAD PUSH2 0x2A46 PUSH1 0xA0 DUP7 ADD DUP3 PUSH2 0x2932 JUMP JUMPDEST POP PUSH1 0xC0 DUP4 ADD MLOAD PUSH2 0x2A59 PUSH1 0xC0 DUP7 ADD DUP3 PUSH2 0x29BC JUMP JUMPDEST POP DUP1 SWAP2 POP POP SWAP3 SWAP2 POP POP JUMP JUMPDEST PUSH0 PUSH1 0x20 DUP3 ADD SWAP1 POP DUP2 DUP2 SUB PUSH0 DUP4 ADD MSTORE PUSH2 0x2A7C DUP2 DUP5 PUSH2 0x29CB JUMP JUMPDEST SWAP1 POP SWAP3 SWAP2 POP POP JUMP JUMPDEST PUSH2 0x2A8D DUP2 PUSH2 0x2929 JUMP JUMPDEST DUP3 MSTORE POP POP JUMP JUMPDEST PUSH0 PUSH1 0x20 DUP3 ADD SWAP1 POP PUSH2 0x2AA6 PUSH0 DUP4 ADD DUP5 PUSH2 0x2A84 JUMP JUMPDEST SWAP3 SWAP2 POP POP JUMP JUMPDEST PUSH2 0x2AB5 DUP2 PUSH2 0x28B4 JUMP JUMPDEST DUP3 MSTORE POP POP JUMP JUMPDEST PUSH0 DUP3 DUP3 MSTORE PUSH1 0x20 DUP3 ADD SWAP1 POP SWAP3 SWAP2 POP POP JUMP JUMPDEST PUSH0 PUSH2 0x2AD5 DUP3 PUSH2 0x2941 JUMP JUMPDEST PUSH2 0x2ADF DUP2 DUP6 PUSH2 0x2ABB JUMP JUMPDEST SWAP4 POP PUSH2 0x2AEF DUP2 DUP6 PUSH1 0x20 DUP7 ADD PUSH2 0x295B JUMP JUMPDEST PUSH2 0x2AF8 DUP2 PUSH2 0x2969 JUMP JUMPDEST DUP5 ADD SWAP2 POP POP SWAP3 SWAP2 POP POP JUMP JUMPDEST PUSH2 0x2B0C DUP2 PUSH2 0x29B1 JUMP JUMPDEST DUP3 MSTORE POP POP JUMP JUMPDEST PUSH0 PUSH1 0xA0 DUP3 ADD SWAP1 POP PUSH2 0x2B25 PUSH0 DUP4 ADD DUP9 PUSH2 0x2AAC JUMP JUMPDEST DUP2 DUP2 SUB PUSH1 0x20 DUP4 ADD MSTORE PUSH2 0x2B37 DUP2 DUP8 PUSH2 0x2ACB JUMP JUMPDEST SWAP1 POP PUSH2 0x2B46 PUSH1 0x40 DUP4 ADD DUP7 PUSH2 0x2A84 JUMP JUMPDEST PUSH2 0x2B53 PUSH1 0x60 DUP4 ADD DUP6 PUSH2 0x2A84 JUMP JUMPDEST PUSH2 0x2B60 PUSH1 0x80 DUP4 ADD DUP5 PUSH2 0x2B03 JUMP JUMPDEST SWAP7 SWAP6 POP POP POP POP POP POP JUMP JUMPDEST PUSH2 0x2B73 DUP2 PUSH2 0x2929 JUMP JUMPDEST DUP2 EQ PUSH2 0x2B7D JUMPI PUSH0 DUP1 REVERT JUMPDEST POP JUMP JUMPDEST PUSH0 DUP2 CALLDATALOAD SWAP1 POP PUSH2 0x2B8E DUP2 PUSH2 0x2B6A JUMP JUMPDEST SWAP3 SWAP2 POP POP JUMP JUMPDEST PUSH0 DUP1 REVERT JUMPDEST PUSH0 PUSH1 0x80 DUP3 DUP5 SUB SLT ISZERO PUSH2 0x2BAD JUMPI PUSH2 0x2BAC PUSH2 0x2B94 JUMP JUMPDEST JUMPDEST DUP2 SWAP1 POP SWAP3 SWAP2 POP POP JUMP JUMPDEST PUSH0 DUP1 PUSH1 0x40 DUP4 DUP6 SUB SLT ISZERO PUSH2 0x2BCC JUMPI PUSH2 0x2BCB PUSH2 0x288D JUMP JUMPDEST JUMPDEST PUSH0 PUSH2 0x2BD9 DUP6 DUP3 DUP7 ADD PUSH2 0x2B80 JUMP JUMPDEST SWAP3 POP POP PUSH1 0x20 DUP4 ADD CALLDATALOAD PUSH8 0xFFFFFFFFFFFFFFFF DUP2 GT ISZERO PUSH2 0x2BFA JUMPI PUSH2 0x2BF9 PUSH2 0x2891 JUMP JUMPDEST JUMPDEST PUSH2 0x2C06 DUP6 DUP3 DUP7 ADD PUSH2 0x2B98 JUMP JUMPDEST SWAP2 POP POP SWAP3 POP SWAP3 SWAP1 POP JUMP JUMPDEST PUSH0 DUP2 MLOAD SWAP1 POP SWAP2 SWAP1 POP JUMP JUMPDEST PUSH0 DUP3 DUP3 MSTORE PUSH1 0x20 DUP3 ADD SWAP1 POP SWAP3 SWAP2 POP POP JUMP JUMPDEST PUSH0 DUP2 SWAP1 POP PUSH1 0x20 DUP3 ADD SWAP1 POP SWAP2 SWAP1 POP JUMP JUMPDEST PUSH0 PUSH2 0x2C44 DUP4 DUP4 PUSH2 0x2932 JUMP JUMPDEST PUSH1 0x20 DUP4 ADD SWAP1 POP SWAP3 SWAP2 POP POP JUMP JUMPDEST PUSH0 PUSH1 0x20 DUP3 ADD SWAP1 POP SWAP2 SWAP1 POP JUMP JUMPDEST PUSH0 PUSH2 0x2C66 DUP3 PUSH2 0x2C10 JUMP JUMPDEST PUSH2 0x2C70 DUP2 DUP6 PUSH2 0x2C1A JUMP JUMPDEST SWAP4 POP PUSH2 0x2C7B DUP4 PUSH2 0x2C2A JUMP JUMPDEST DUP1 PUSH0 JUMPDEST DUP4 DUP2 LT ISZERO PUSH2 0x2CAB JUMPI DUP2 MLOAD PUSH2 0x2C92 DUP9 DUP3 PUSH2 0x2C39 JUMP JUMPDEST SWAP8 POP PUSH2 0x2C9D DUP4 PUSH2 0x2C50 JUMP JUMPDEST SWAP3 POP POP PUSH1 0x1 DUP2 ADD SWAP1 POP PUSH2 0x2C7E JUMP JUMPDEST POP DUP6 SWAP4 POP POP POP POP SWAP3 SWAP2 POP POP JUMP JUMPDEST PUSH0 PUSH1 0xC0 DUP4 ADD PUSH0 DUP4 ADD MLOAD PUSH2 0x2CCD PUSH0 DUP7 ADD DUP3 PUSH2 0x291A JUMP JUMPDEST POP PUSH1 0x20 DUP4 ADD MLOAD DUP5 DUP3 SUB PUSH1 0x20 DUP7 ADD MSTORE PUSH2 0x2CE5 DUP3 DUP3 PUSH2 0x2C5C JUMP JUMPDEST SWAP2 POP POP PUSH1 0x40 DUP4 ADD MLOAD DUP5 DUP3 SUB PUSH1 0x40 DUP7 ADD MSTORE PUSH2 0x2CFF DUP3 DUP3 PUSH2 0x2979 JUMP JUMPDEST SWAP2 POP POP PUSH1 0x60 DUP4 ADD MLOAD PUSH2 0x2D14 PUSH1 0x60 DUP7 ADD DUP3 PUSH2 0x2932 JUMP JUMPDEST POP PUSH1 0x80 DUP4 ADD MLOAD PUSH2 0x2D27 PUSH1 0x80 DUP7 ADD DUP3 PUSH2 0x2932 JUMP JUMPDEST POP PUSH1 0xA0 DUP4 ADD MLOAD PUSH2 0x2D3A PUSH1 0xA0 DUP7 ADD DUP3 PUSH2 0x29BC JUMP JUMPDEST POP DUP1 SWAP2 POP POP SWAP3 SWAP2 POP POP JUMP JUMPDEST PUSH0 PUSH1 0x20 DUP3 ADD SWAP1 POP DUP2 DUP2 SUB PUSH0 DUP4 ADD MSTORE PUSH2 0x2D5D DUP2 DUP5 PUSH2 0x2CB8 JUMP JUMPDEST SWAP1 POP SWAP3 SWAP2 POP POP JUMP JUMPDEST PUSH0 PUSH1 0x20 DUP3 ADD SWAP1 POP PUSH2 0x2D78 PUSH0 DUP4 ADD DUP5 PUSH2 0x2B03 JUMP JUMPDEST SWAP3 SWAP2 POP POP JUMP JUMPDEST PUSH0 PUSH1 0xC0 DUP3 DUP5 SUB SLT ISZERO PUSH2 0x2D93 JUMPI PUSH2 0x2D92 PUSH2 0x2B94 JUMP JUMPDEST JUMPDEST DUP2 SWAP1 POP SWAP3 SWAP2 POP POP JUMP JUMPDEST PUSH0 PUSH1 0x20 DUP3 DUP5 SUB SLT ISZERO PUSH2 0x2DB1 JUMPI PUSH2 0x2DB0 PUSH2 0x288D JUMP JUMPDEST JUMPDEST PUSH0 DUP3 ADD CALLDATALOAD PUSH8 0xFFFFFFFFFFFFFFFF DUP2 GT ISZERO PUSH2 0x2DCE JUMPI PUSH2 0x2DCD PUSH2 0x2891 JUMP JUMPDEST JUMPDEST PUSH2 0x2DDA DUP5 DUP3 DUP6 ADD PUSH2 0x2D7E JUMP JUMPDEST SWAP2 POP POP SWAP3 SWAP2 POP POP JUMP JUMPDEST PUSH0 PUSH1 0x20 DUP3 DUP5 SUB SLT ISZERO PUSH2 0x2DF8 JUMPI PUSH2 0x2DF7 PUSH2 0x288D JUMP JUMPDEST JUMPDEST PUSH0 PUSH2 0x2E05 DUP5 DUP3 DUP6 ADD PUSH2 0x2B80 JUMP JUMPDEST SWAP2 POP POP SWAP3 SWAP2 POP POP JUMP JUMPDEST PUSH0 PUSH2 0x100 DUP3 ADD SWAP1 POP PUSH2 0x2E22 PUSH0 DUP4 ADD DUP12 PUSH2 0x2A84 JUMP JUMPDEST PUSH2 0x2E2F PUSH1 0x20 DUP4 ADD DUP11 PUSH2 0x2AAC JUMP JUMPDEST PUSH2 0x2E3C PUSH1 0x40 DUP4 ADD DUP10 PUSH2 0x2AAC JUMP JUMPDEST DUP2 DUP2 SUB PUSH1 0x60 DUP4 ADD MSTORE PUSH2 0x2E4E DUP2 DUP9 PUSH2 0x2ACB JUMP JUMPDEST SWAP1 POP PUSH2 0x2E5D PUSH1 0x80 DUP4 ADD DUP8 PUSH2 0x2A84 JUMP JUMPDEST PUSH2 0x2E6A PUSH1 0xA0 DUP4 ADD DUP7 PUSH2 0x2A84 JUMP JUMPDEST PUSH2 0x2E77 PUSH1 0xC0 DUP4 ADD DUP6 PUSH2 0x2B03 JUMP JUMPDEST PUSH2 0x2E84 PUSH1 0xE0 DUP4 ADD DUP5 PUSH2 0x2A84 JUMP JUMPDEST SWAP10 SWAP9 POP POP POP POP POP POP POP POP POP JUMP JUMPDEST PUSH0 PUSH1 0xE0 DUP3 ADD SWAP1 POP PUSH2 0x2EA4 PUSH0 DUP4 ADD DUP11 PUSH2 0x2AAC JUMP JUMPDEST PUSH2 0x2EB1 PUSH1 0x20 DUP4 ADD DUP10 PUSH2 0x2AAC JUMP JUMPDEST PUSH2 0x2EBE PUSH1 0x40 DUP4 ADD DUP9 PUSH2 0x2A84 JUMP JUMPDEST DUP2 DUP2 SUB PUSH1 0x60 DUP4 ADD MSTORE PUSH2 0x2ED0 DUP2 DUP8 PUSH2 0x2ACB JUMP JUMPDEST SWAP1 POP PUSH2 0x2EDF PUSH1 0x80 DUP4 ADD DUP7 PUSH2 0x2A84 JUMP JUMPDEST PUSH2 0x2EEC PUSH1 0xA0 DUP4 ADD DUP6 PUSH2 0x2A84 JUMP JUMPDEST PUSH2 0x2EF9 PUSH1 0xC0 DUP4 ADD DUP5 PUSH2 0x2B03 JUMP JUMPDEST SWAP9 SWAP8 POP POP POP POP POP POP POP POP JUMP JUMPDEST PUSH0 DUP3 DUP3 MSTORE PUSH1 0x20 DUP3 ADD SWAP1 POP SWAP3 SWAP2 POP POP JUMP JUMPDEST PUSH0 PUSH2 0x2F1F DUP3 PUSH2 0x2C10 JUMP JUMPDEST PUSH2 0x2F29 DUP2 DUP6 PUSH2 0x2F05 JUMP JUMPDEST SWAP4 POP PUSH2 0x2F34 DUP4 PUSH2 0x2C2A JUMP JUMPDEST DUP1 PUSH0 JUMPDEST DUP4 DUP2 LT ISZERO PUSH2 0x2F64 JUMPI DUP2 MLOAD PUSH2 0x2F4B DUP9 DUP3 PUSH2 0x2C39 JUMP JUMPDEST SWAP8 POP PUSH2 0x2F56 DUP4 PUSH2 0x2C50 JUMP JUMPDEST SWAP3 POP POP PUSH1 0x1 DUP2 ADD SWAP1 POP PUSH2 0x2F37 JUMP JUMPDEST POP DUP6 SWAP4 POP POP POP POP SWAP3 SWAP2 POP POP JUMP JUMPDEST PUSH0 PUSH1 0x40 DUP3 ADD SWAP1 POP DUP2 DUP2 SUB PUSH0 DUP4 ADD MSTORE PUSH2 0x2F89 DUP2 DUP6 PUSH2 0x2F15 JUMP JUMPDEST SWAP1 POP DUP2 DUP2 SUB PUSH1 0x20 DUP4 ADD MSTORE PUSH2 0x2F9D DUP2 DUP5 PUSH2 0x2F15 JUMP JUMPDEST SWAP1 POP SWAP4 SWAP3 POP POP POP JUMP JUMPDEST PUSH32 0x4E487B7100000000000000000000000000000000000000000000000000000000 PUSH0 MSTORE PUSH1 0x21 PUSH1 0x4 MSTORE PUSH1 0x24 PUSH0 REVERT JUMPDEST PUSH1 0x3 DUP2 LT PUSH2 0x2FE4 JUMPI PUSH2 0x2FE3 PUSH2 0x2FA6 JUMP JUMPDEST JUMPDEST POP JUMP JUMPDEST PUSH0 DUP2 SWAP1 POP PUSH2 0x2FF4 DUP3 PUSH2 0x2FD3 JUMP JUMPDEST SWAP2 SWAP1 POP JUMP JUMPDEST PUSH0 PUSH2 0x3003 DUP3 PUSH2 0x2FE7 JUMP JUMPDEST SWAP1 POP SWAP2 SWAP1 POP JUMP JUMPDEST PUSH2 0x3013 DUP2 PUSH2 0x2FF9 JUMP JUMPDEST DUP3 MSTORE POP POP JUMP JUMPDEST PUSH0 PUSH1 0xC0 DUP3 ADD SWAP1 POP PUSH2 0x302C PUSH0 DUP4 ADD DUP10 PUSH2 0x2A84 JUMP JUMPDEST PUSH2 0x3039 PUSH1 0x20 DUP4 ADD DUP9 PUSH2 0x2AAC JUMP JUMPDEST DUP2 DUP2 SUB PUSH1 0x40 DUP4 ADD MSTORE PUSH2 0x304B DUP2 DUP8 PUSH2 0x2ACB JUMP JUMPDEST SWAP1 POP PUSH2 0x305A PUSH1 0x60 DUP4 ADD DUP7 PUSH2 0x2A84 JUMP JUMPDEST PUSH2 0x3067 PUSH1 0x80 DUP4 ADD DUP6 PUSH2 0x300A JUMP JUMPDEST PUSH2 0x3074 PUSH1 0xA0 DUP4 ADD DUP5 PUSH2 0x2AAC JUMP JUMPDEST SWAP8 SWAP7 POP POP POP POP POP POP POP JUMP JUMPDEST PUSH0 PUSH1 0x20 DUP3 ADD SWAP1 POP PUSH2 0x3092 PUSH0 DUP4 ADD DUP5 PUSH2 0x2AAC JUMP JUMPDEST SWAP3 SWAP2 POP POP JUMP JUMPDEST PUSH0 PUSH2 0x100 DUP3 DUP5 SUB SLT ISZERO PUSH2 0x30AE JUMPI PUSH2 0x30AD PUSH2 0x2B94 JUMP JUMPDEST JUMPDEST DUP2 SWAP1 POP SWAP3 SWAP2 POP POP JUMP JUMPDEST PUSH0 PUSH1 0x20 DUP3 DUP5 SUB SLT ISZERO PUSH2 0x30CC JUMPI PUSH2 0x30CB PUSH2 0x288D JUMP JUMPDEST JUMPDEST PUSH0 DUP3 ADD CALLDATALOAD PUSH8 0xFFFFFFFFFFFFFFFF DUP2 GT ISZERO PUSH2 0x30E9 JUMPI PUSH2 0x30E8 PUSH2 0x2891 JUMP JUMPDEST JUMPDEST PUSH2 0x30F5 DUP5 DUP3 DUP6 ADD PUSH2 0x3098 JUMP JUMPDEST SWAP2 POP POP SWAP3 SWAP2 POP POP JUMP JUMPDEST PUSH2 0x3107 DUP2 PUSH2 0x2FF9 JUMP JUMPDEST DUP3 MSTORE POP POP JUMP JUMPDEST PUSH0 DUP2 MLOAD SWAP1 POP SWAP2 SWAP1 POP JUMP JUMPDEST PUSH0 DUP3 DUP3 MSTORE PUSH1 0x20 DUP3 ADD SWAP1 POP SWAP3 SWAP2 POP POP JUMP JUMPDEST PUSH0 DUP2 SWAP1 POP PUSH1 0x20 DUP3 ADD SWAP1 POP SWAP2 SWAP1 POP JUMP JUMPDEST PUSH0 DUP2 MLOAD SWAP1 POP SWAP2 SWAP1 POP JUMP JUMPDEST PUSH0 DUP3 DUP3 MSTORE PUSH1 0x20 DUP3 ADD SWAP1 POP SWAP3 SWAP2 POP POP JUMP JUMPDEST PUSH0 DUP2 SWAP1 POP PUSH1 0x20 DUP3 ADD SWAP1 POP SWAP2 SWAP1 POP JUMP JUMPDEST PUSH0 PUSH2 0x316A DUP4 DUP4 PUSH2 0x2979 JUMP JUMPDEST SWAP1 POP SWAP3 SWAP2 POP POP JUMP JUMPDEST PUSH0 PUSH1 0x20 DUP3 ADD SWAP1 POP SWAP2 SWAP1 POP JUMP JUMPDEST PUSH0 PUSH2 0x3188 DUP3 PUSH2 0x3136 JUMP JUMPDEST PUSH2 0x3192 DUP2 DUP6 PUSH2 0x3140 JUMP JUMPDEST SWAP4 POP DUP4 PUSH1 0x20 DUP3 MUL DUP6 ADD PUSH2 0x31A4 DUP6 PUSH2 0x3150 JUMP JUMPDEST DUP1 PUSH0 JUMPDEST DUP6 DUP2 LT ISZERO PUSH2 0x31DF JUMPI DUP5 DUP5 SUB DUP10 MSTORE DUP2 MLOAD PUSH2 0x31C0 DUP6 DUP3 PUSH2 0x315F JUMP JUMPDEST SWAP5 POP PUSH2 0x31CB DUP4 PUSH2 0x3172 JUMP JUMPDEST SWAP3 POP PUSH1 0x20 DUP11 ADD SWAP10 POP POP PUSH1 0x1 DUP2 ADD SWAP1 POP PUSH2 0x31A7 JUMP JUMPDEST POP DUP3 SWAP8 POP DUP8 SWAP6 POP POP POP POP POP POP SWAP3 SWAP2 POP POP JUMP JUMPDEST PUSH0 PUSH1 0x80 DUP4 ADD PUSH0 DUP4 ADD MLOAD PUSH2 0x3206 PUSH0 DUP7 ADD DUP3 PUSH2 0x291A JUMP JUMPDEST POP PUSH1 0x20 DUP4 ADD MLOAD PUSH2 0x3219 PUSH1 0x20 DUP7 ADD DUP3 PUSH2 0x2932 JUMP JUMPDEST POP PUSH1 0x40 DUP4 ADD MLOAD DUP5 DUP3 SUB PUSH1 0x40 DUP7 ADD MSTORE PUSH2 0x3231 DUP3 DUP3 PUSH2 0x2979 JUMP JUMPDEST SWAP2 POP POP PUSH1 0x60 DUP4 ADD MLOAD DUP5 DUP3 SUB PUSH1 0x60 DUP7 ADD MSTORE PUSH2 0x324B DUP3 DUP3 PUSH2 0x317E JUMP JUMPDEST SWAP2 POP POP DUP1 SWAP2 POP POP SWAP3 SWAP2 POP POP JUMP JUMPDEST PUSH0 PUSH2 0x3263 DUP4 DUP4 PUSH2 0x31F1 JUMP JUMPDEST SWAP1 POP SWAP3 SWAP2 POP POP JUMP JUMPDEST PUSH0 PUSH1 0x20 DUP3 ADD SWAP1 POP SWAP2 SWAP1 POP JUMP JUMPDEST PUSH0 PUSH2 0x3281 DUP3 PUSH2 0x310D JUMP JUMPDEST PUSH2 0x328B DUP2 DUP6 PUSH2 0x3117 JUMP JUMPDEST SWAP4 POP DUP4 PUSH1 0x20 DUP3 MUL DUP6 ADD PUSH2 0x329D DUP6 PUSH2 0x3127 JUMP JUMPDEST DUP1 PUSH0 JUMPDEST DUP6 DUP2 LT ISZERO PUSH2 0x32D8 JUMPI DUP5 DUP5 SUB DUP10 MSTORE DUP2 MLOAD PUSH2 0x32B9 DUP6 DUP3 PUSH2 0x3258 JUMP JUMPDEST SWAP5 POP PUSH2 0x32C4 DUP4 PUSH2 0x326B JUMP JUMPDEST SWAP3 POP PUSH1 0x20 DUP11 ADD SWAP10 POP POP PUSH1 0x1 DUP2 ADD SWAP1 POP PUSH2 0x32A0 JUMP JUMPDEST POP DUP3 SWAP8 POP DUP8 SWAP6 POP POP POP POP POP POP SWAP3 SWAP2 POP POP JUMP JUMPDEST PUSH0 PUSH2 0x100 DUP4 ADD PUSH0 DUP4 ADD MLOAD PUSH2 0x3300 PUSH0 DUP7 ADD DUP3 PUSH2 0x2932 JUMP JUMPDEST POP PUSH1 0x20 DUP4 ADD MLOAD PUSH2 0x3313 PUSH1 0x20 DUP7 ADD DUP3 PUSH2 0x291A JUMP JUMPDEST POP PUSH1 0x40 DUP4 ADD MLOAD DUP5 DUP3 SUB PUSH1 0x40 DUP7 ADD MSTORE PUSH2 0x332B DUP3 DUP3 PUSH2 0x2979 JUMP JUMPDEST SWAP2 POP POP PUSH1 0x60 DUP4 ADD MLOAD PUSH2 0x3340 PUSH1 0x60 DUP7 ADD DUP3 PUSH2 0x2932 JUMP JUMPDEST POP PUSH1 0x80 DUP4 ADD MLOAD PUSH2 0x3353 PUSH1 0x80 DUP7 ADD DUP3 PUSH2 0x30FE JUMP JUMPDEST POP PUSH1 0xA0 DUP4 ADD MLOAD PUSH2 0x3366 PUSH1 0xA0 DUP7 ADD DUP3 PUSH2 0x291A JUMP JUMPDEST POP PUSH1 0xC0 DUP4 ADD MLOAD DUP5 DUP3 SUB PUSH1 0xC0 DUP7 ADD MSTORE PUSH2 0x337E DUP3 DUP3 PUSH2 0x3277 JUMP JUMPDEST SWAP2 POP POP PUSH1 0xE0 DUP4 ADD MLOAD DUP5 DUP3 SUB PUSH1 0xE0 DUP7 ADD MSTORE PUSH2 0x3398 DUP3 DUP3 PUSH2 0x317E JUMP JUMPDEST SWAP2 POP POP DUP1 SWAP2 POP POP SWAP3 SWAP2 POP POP JUMP JUMPDEST PUSH0 PUSH1 0x20 DUP3 ADD SWAP1 POP DUP2 DUP2 SUB PUSH0 DUP4 ADD MSTORE PUSH2 0x33BD DUP2 DUP5 PUSH2 0x32EA JUMP JUMPDEST SWAP1 POP SWAP3 SWAP2 POP POP JUMP JUMPDEST PUSH0 PUSH1 0xE0 DUP3 DUP5 SUB SLT ISZERO PUSH2 0x33DA JUMPI PUSH2 0x33D9 PUSH2 0x2B94 JUMP JUMPDEST JUMPDEST DUP2 SWAP1 POP SWAP3 SWAP2 POP POP JUMP JUMPDEST PUSH0 PUSH1 0x20 DUP3 DUP5 SUB SLT ISZERO PUSH2 0x33F8 JUMPI PUSH2 0x33F7 PUSH2 0x288D JUMP JUMPDEST JUMPDEST PUSH0 DUP3 ADD CALLDATALOAD PUSH8 0xFFFFFFFFFFFFFFFF DUP2 GT ISZERO PUSH2 0x3415 JUMPI PUSH2 0x3414 PUSH2 0x2891 JUMP JUMPDEST JUMPDEST PUSH2 0x3421 DUP5 DUP3 DUP6 ADD PUSH2 0x33C5 JUMP JUMPDEST SWAP2 POP POP SWAP3 SWAP2 POP POP JUMP JUMPDEST PUSH0 PUSH2 0x100 DUP4 ADD PUSH0 DUP4 ADD MLOAD PUSH2 0x3440 PUSH0 DUP7 ADD DUP3 PUSH2 0x2932 JUMP JUMPDEST POP PUSH1 0x20 DUP4 ADD MLOAD PUSH2 0x3453 PUSH1 0x20 DUP7 ADD DUP3 PUSH2 0x291A JUMP JUMPDEST POP PUSH1 0x40 DUP4 ADD MLOAD PUSH2 0x3466 PUSH1 0x40 DUP7 ADD DUP3 PUSH2 0x291A JUMP JUMPDEST POP PUSH1 0x60 DUP4 ADD MLOAD DUP5 DUP3 SUB PUSH1 0x60 DUP7 ADD MSTORE PUSH2 0x347E DUP3 DUP3 PUSH2 0x2979 JUMP JUMPDEST SWAP2 POP POP PUSH1 0x80 DUP4 ADD MLOAD PUSH2 0x3493 PUSH1 0x80 DUP7 ADD DUP3 PUSH2 0x2932 JUMP JUMPDEST POP PUSH1 0xA0 DUP4 ADD MLOAD PUSH2 0x34A6 PUSH1 0xA0 DUP7 ADD DUP3 PUSH2 0x2932 JUMP JUMPDEST POP PUSH1 0xC0 DUP4 ADD MLOAD PUSH2 0x34B9 PUSH1 0xC0 DUP7 ADD DUP3 PUSH2 0x29BC JUMP JUMPDEST POP PUSH1 0xE0 DUP4 ADD MLOAD PUSH2 0x34CC PUSH1 0xE0 DUP7 ADD DUP3 PUSH2 0x2932 JUMP JUMPDEST POP DUP1 SWAP2 POP POP SWAP3 SWAP2 POP POP JUMP JUMPDEST PUSH0 PUSH1 0x20 DUP3 ADD SWAP1 POP DUP2 DUP2 SUB PUSH0 DUP4 ADD MSTORE PUSH2 0x34EF DUP2 DUP5 PUSH2 0x342A JUMP JUMPDEST SWAP1 POP SWAP3 SWAP2 POP POP JUMP JUMPDEST PUSH0 PUSH2 0x100 DUP3 DUP5 SUB SLT ISZERO PUSH2 0x350D JUMPI PUSH2 0x350C PUSH2 0x2B94 JUMP JUMPDEST JUMPDEST DUP2 SWAP1 POP SWAP3 SWAP2 POP POP JUMP JUMPDEST PUSH0 PUSH1 0x20 DUP3 DUP5 SUB SLT ISZERO PUSH2 0x352B JUMPI PUSH2 0x352A PUSH2 0x288D JUMP JUMPDEST JUMPDEST PUSH0 DUP3 ADD CALLDATALOAD PUSH8 0xFFFFFFFFFFFFFFFF DUP2 GT ISZERO PUSH2 0x3548 JUMPI PUSH2 0x3547 PUSH2 0x2891 JUMP JUMPDEST JUMPDEST PUSH2 0x3554 DUP5 DUP3 DUP6 ADD PUSH2 0x34F7 JUMP JUMPDEST SWAP2 POP POP SWAP3 SWAP2 POP POP JUMP JUMPDEST PUSH32 0x4E487B7100000000000000000000000000000000000000000000000000000000 PUSH0 MSTORE PUSH1 0x22 PUSH1 0x4 MSTORE PUSH1 0x24 PUSH0 REVERT JUMPDEST PUSH0 PUSH1 0x2 DUP3 DIV SWAP1 POP PUSH1 0x1 DUP3 AND DUP1 PUSH2 0x35A1 JUMPI PUSH1 0x7F DUP3 AND SWAP2 POP JUMPDEST PUSH1 0x20 DUP3 LT DUP2 SUB PUSH2 0x35B4 JUMPI PUSH2 0x35B3 PUSH2 0x355D JUMP JUMPDEST JUMPDEST POP SWAP2 SWAP1 POP JUMP JUMPDEST PUSH32 0x556E617574686F72697A65642061636365737300000000000000000000000000 PUSH0 DUP3 ADD MSTORE POP JUMP JUMPDEST PUSH0 PUSH2 0x35EE PUSH1 0x13 DUP4 PUSH2 0x2ABB JUMP JUMPDEST SWAP2 POP PUSH2 0x35F9 DUP3 PUSH2 0x35BA JUMP JUMPDEST PUSH1 0x20 DUP3 ADD SWAP1 POP SWAP2 SWAP1 POP JUMP JUMPDEST PUSH0 PUSH1 0x20 DUP3 ADD SWAP1 POP DUP2 DUP2 SUB PUSH0 DUP4 ADD MSTORE PUSH2 0x361B DUP2 PUSH2 0x35E2 JUMP JUMPDEST SWAP1 POP SWAP2 SWAP1 POP JUMP JUMPDEST PUSH32 0x4E487B7100000000000000000000000000000000000000000000000000000000 PUSH0 MSTORE PUSH1 0x11 PUSH1 0x4 MSTORE PUSH1 0x24 PUSH0 REVERT JUMPDEST PUSH0 PUSH2 0x3659 DUP3 PUSH2 0x2929 JUMP JUMPDEST SWAP2 POP PUSH32 0xFFFFFFFFFFFFFFFFFFFFFFFFFFFFFFFFFFFFFFFFFFFFFFFFFFFFFFFFFFFFFFFF DUP3 SUB PUSH2 0x368B JUMPI PUSH2 0x368A PUSH2 0x3622 JUMP JUMPDEST JUMPDEST PUSH1 0x1 DUP3 ADD SWAP1 POP SWAP2 SWAP1 POP JUMP JUMPDEST PUSH32 0x496E636964656E7420646F6573206E6F74206578697374000000000000000000 PUSH0 DUP3 ADD MSTORE POP JUMP JUMPDEST PUSH0 PUSH2 0x36CA PUSH1 0x17 DUP4 PUSH2 0x2ABB JUMP JUMPDEST SWAP2 POP PUSH2 0x36D5 DUP3 PUSH2 0x3696 JUMP JUMPDEST PUSH1 0x20 DUP3 ADD SWAP1 POP SWAP2 SWAP1 POP JUMP JUMPDEST PUSH0 PUSH1 0x20 DUP3 ADD SWAP1 POP DUP2 DUP2 SUB PUSH0 DUP4 ADD MSTORE PUSH2 0x36F7 DUP2 PUSH2 0x36BE JUMP JUMPDEST SWAP1 POP SWAP2 SWAP1 POP JUMP JUMPDEST PUSH32 0x4E487B7100000000000000000000000000000000000000000000000000000000 PUSH0 MSTORE PUSH0 PUSH1 0x4 MSTORE PUSH1 0x24 PUSH0 REVERT JUMPDEST PUSH0 DUP2 CALLDATALOAD PUSH2 0x3736 DUP2 PUSH2 0x28C5 JUMP JUMPDEST DUP1 SWAP2 POP POP SWAP2 SWAP1 POP JUMP JUMPDEST PUSH0 DUP2 PUSH0 SHL SWAP1 POP SWAP2 SWAP1 POP JUMP JUMPDEST PUSH0 PUSH20 0xFFFFFFFFFFFFFFFFFFFFFFFFFFFFFFFFFFFFFFFF PUSH2 0x3769 DUP5 PUSH2 0x373F JUMP JUMPDEST SWAP4 POP DUP1 NOT DUP4 AND SWAP3 POP DUP1 DUP5 AND DUP4 OR SWAP2 POP POP SWAP3 SWAP2 POP POP JUMP JUMPDEST PUSH0 DUP2 SWAP1 POP SWAP2 SWAP1 POP JUMP JUMPDEST PUSH0 PUSH2 0x37A2 PUSH2 0x379D PUSH2 0x3798 DUP5 PUSH2 0x2895 JUMP JUMPDEST PUSH2 0x377F JUMP JUMPDEST PUSH2 0x2895 JUMP JUMPDEST SWAP1 POP SWAP2 SWAP1 POP JUMP JUMPDEST PUSH0 PUSH2 0x37B3 DUP3 PUSH2 0x3788 JUMP JUMPDEST SWAP1 POP SWAP2 SWAP1 POP JUMP JUMPDEST PUSH0 PUSH2 0x37C4 DUP3 PUSH2 0x37A9 JUMP JUMPDEST SWAP1 POP SWAP2 SWAP1 POP JUMP JUMPDEST PUSH0 DUP2 SWAP1 POP SWAP2 SWAP1 POP JUMP JUMPDEST PUSH2 0x37DD DUP3 PUSH2 0x37BA JUMP JUMPDEST PUSH2 0x37F0 PUSH2 0x37E9 DUP3 PUSH2 0x37CB JUMP JUMPDEST DUP4 SLOAD PUSH2 0x374A JUMP JUMPDEST DUP3 SSTORE POP POP POP JUMP JUMPDEST PUSH0 DUP2 CALLDATALOAD PUSH2 0x3803 DUP2 PUSH2 0x2B6A JUMP JUMPDEST DUP1 SWAP2 POP POP SWAP2 SWAP1 POP JUMP JUMPDEST PUSH0 PUSH32 0xFFFFFFFFFFFFFFFFFFFFFFFFFFFFFFFFFFFFFFFFFFFFFFFFFFFFFFFFFFFFFFFF PUSH2 0x3837 DUP5 PUSH2 0x373F JUMP JUMPDEST SWAP4 POP DUP1 NOT DUP4 AND SWAP3 POP DUP1 DUP5 AND DUP4 OR SWAP2 POP POP SWAP3 SWAP2 POP POP JUMP JUMPDEST PUSH0 PUSH2 0x3867 PUSH2 0x3862 PUSH2 0x385D DUP5 PUSH2 0x2929 JUMP JUMPDEST PUSH2 0x377F JUMP JUMPDEST PUSH2 0x2929 JUMP JUMPDEST SWAP1 POP SWAP2 SWAP1 POP JUMP JUMPDEST PUSH0 DUP2 SWAP1 POP SWAP2 SWAP1 POP JUMP JUMPDEST PUSH2 0x3880 DUP3 PUSH2 0x384D JUMP JUMPDEST PUSH2 0x3893 PUSH2 0x388C DUP3 PUSH2 0x386E JUMP JUMPDEST DUP4 SLOAD PUSH2 0x380C JUMP JUMPDEST DUP3 SSTORE POP POP POP JUMP JUMPDEST PUSH0 DUP1 REVERT JUMPDEST PUSH0 DUP1 REVERT JUMPDEST PUSH0 DUP1 REVERT JUMPDEST PUSH0 DUP1 DUP4 CALLDATALOAD PUSH1 0x1 PUSH1 0x20 SUB DUP5 CALLDATASIZE SUB SUB DUP2 SLT PUSH2 0x38C2 JUMPI PUSH2 0x38C1 PUSH2 0x389A JUMP JUMPDEST JUMPDEST DUP1 DUP5 ADD SWAP3 POP DUP3 CALLDATALOAD SWAP2 POP PUSH8 0xFFFFFFFFFFFFFFFF DUP3 GT ISZERO PUSH2 0x38E4 JUMPI PUSH2 0x38E3 PUSH2 0x389E JUMP JUMPDEST JUMPDEST PUSH1 0x20 DUP4 ADD SWAP3 POP PUSH1 0x1 DUP3 MUL CALLDATASIZE SUB DUP4 SGT ISZERO PUSH2 0x3900 JUMPI PUSH2 0x38FF PUSH2 0x38A2 JUMP JUMPDEST JUMPDEST POP SWAP3 POP SWAP3 SWAP1 POP JUMP JUMPDEST PUSH0 DUP3 SWAP1 POP SWAP3 SWAP2 POP POP JUMP JUMPDEST PUSH32 0x4E487B7100000000000000000000000000000000000000000000000000000000 PUSH0 MSTORE PUSH1 0x41 PUSH1 0x4 MSTORE PUSH1 0x24 PUSH0 REVERT JUMPDEST PUSH0 DUP2 SWAP1 POP DUP2 PUSH0 MSTORE PUSH1 0x20 PUSH0 KECCAK256 SWAP1 POP SWAP2 SWAP1 POP JUMP JUMPDEST PUSH0 PUSH1 0x20 PUSH1 0x1F DUP4 ADD DIV SWAP1 POP SWAP2 SWAP1 POP JUMP JUMPDEST PUSH0 DUP3 DUP3 SHL SWAP1 POP SWAP3 SWAP2 POP POP JUMP JUMPDEST PUSH0 PUSH1 0x8 DUP4 MUL PUSH2 0x399B PUSH32 0xFFFFFFFFFFFFFFFFFFFFFFFFFFFFFFFFFFFFFFFFFFFFFFFFFFFFFFFFFFFFFFFF DUP3 PUSH2 0x3960 JUMP JUMPDEST PUSH2 0x39A5 DUP7 DUP4 PUSH2 0x3960 JUMP JUMPDEST SWAP6 POP DUP1 NOT DUP5 AND SWAP4 POP DUP1 DUP7 AND DUP5 OR SWAP3 POP POP POP SWAP4 SWAP3 POP POP POP JUMP JUMPDEST PUSH2 0x39C6 DUP4 PUSH2 0x384D JUMP JUMPDEST PUSH2 0x39DA PUSH2 0x39D2 DUP3 PUSH2 0x386E JUMP JUMPDEST DUP5 DUP5 SLOAD PUSH2 0x396C JUMP JUMPDEST DUP3 SSTORE POP POP POP POP JUMP JUMPDEST PUSH0 SWAP1 JUMP JUMPDEST PUSH2 0x39EE PUSH2 0x39E2 JUMP JUMPDEST PUSH2 0x39F9 DUP2 DUP5 DUP5 PUSH2 0x39BD JUMP JUMPDEST POP POP POP JUMP JUMPDEST JUMPDEST DUP2 DUP2 LT ISZERO PUSH2 0x3A1C JUMPI PUSH2 0x3A11 PUSH0 DUP3 PUSH2 0x39E6 JUMP JUMPDEST PUSH1 0x1 DUP2 ADD SWAP1 POP PUSH2 0x39FF JUMP JUMPDEST POP POP JUMP JUMPDEST PUSH1 0x1F DUP3 GT ISZERO PUSH2 0x3A61 JUMPI PUSH2 0x3A32 DUP2 PUSH2 0x393F JUMP JUMPDEST PUSH2 0x3A3B DUP5 PUSH2 0x3951 JUMP JUMPDEST DUP2 ADD PUSH1 0x20 DUP6 LT ISZERO PUSH2 0x3A4A JUMPI DUP2 SWAP1 POP JUMPDEST PUSH2 0x3A5E PUSH2 0x3A56 DUP6 PUSH2 0x3951 JUMP JUMPDEST DUP4 ADD DUP3 PUSH2 0x39FE JUMP JUMPDEST POP POP JUMPDEST POP POP POP JUMP JUMPDEST PUSH0 DUP3 DUP3 SHR SWAP1 POP SWAP3 SWAP2 POP POP JUMP JUMPDEST PUSH0 PUSH2 0x3A81 PUSH0 NOT DUP5 PUSH1 0x8 MUL PUSH2 0x3A66 JUMP JUMPDEST NOT DUP1 DUP4 AND SWAP2 POP POP SWAP3 SWAP2 POP POP JUMP JUMPDEST PUSH0 PUSH2 0x3A99 DUP4 DUP4 PUSH2 0x3A72 JUMP JUMPDEST SWAP2 POP DUP3 PUSH1 0x2 MUL DUP3 OR SWAP1 POP SWAP3 SWAP2 POP POP JUMP JUMPDEST PUSH2 0x3AB3 DUP4 DUP4 PUSH2 0x3908 JUMP JUMPDEST PUSH8 0xFFFFFFFFFFFFFFFF DUP2 GT ISZERO PUSH2 0x3ACC JUMPI PUSH2 0x3ACB PUSH2 0x3912 JUMP JUMPDEST JUMPDEST PUSH2 0x3AD6 DUP3 SLOAD PUSH2 0x358A JUMP JUMPDEST PUSH2 0x3AE1 DUP3 DUP3 DUP6 PUSH2 0x3A20 JUMP JUMPDEST PUSH0 PUSH1 0x1F DUP4 GT PUSH1 0x1 DUP2 EQ PUSH2 0x3B0E JUMPI PUSH0 DUP5 ISZERO PUSH2 0x3AFC JUMPI DUP3 DUP8 ADD CALLDATALOAD SWAP1 POP JUMPDEST PUSH2 0x3B06 DUP6 DUP3 PUSH2 0x3A8E JUMP JUMPDEST DUP7 SSTORE POP PUSH2 0x3B6D JUMP JUMPDEST PUSH1 0x1F NOT DUP5 AND PUSH2 0x3B1C DUP7 PUSH2 0x393F JUMP JUMPDEST PUSH0 JUMPDEST DUP3 DUP2 LT ISZERO PUSH2 0x3B43 JUMPI DUP5 DUP10 ADD CALLDATALOAD DUP3 SSTORE PUSH1 0x1 DUP3 ADD SWAP2 POP PUSH1 0x20 DUP6 ADD SWAP5 POP PUSH1 0x20 DUP2 ADD SWAP1 POP PUSH2 0x3B1E JUMP JUMPDEST DUP7 DUP4 LT ISZERO PUSH2 0x3B60 JUMPI DUP5 DUP10 ADD CALLDATALOAD PUSH2 0x3B5C PUSH1 0x1F DUP10 AND DUP3 PUSH2 0x3A72 JUMP JUMPDEST DUP4 SSTORE POP JUMPDEST PUSH1 0x1 PUSH1 0x2 DUP9 MUL ADD DUP9 SSTORE POP POP POP JUMPDEST POP POP POP POP POP POP POP JUMP JUMPDEST PUSH2 0x3B81 DUP4 DUP4 DUP4 PUSH2 0x3AA9 JUMP JUMPDEST POP POP POP JUMP JUMPDEST PUSH0 DUP1 DUP4 CALLDATALOAD PUSH1 0x1 PUSH1 0x20 SUB DUP5 CALLDATASIZE SUB SUB DUP2 SLT PUSH2 0x3BA2 JUMPI PUSH2 0x3BA1 PUSH2 0x389A JUMP JUMPDEST JUMPDEST DUP1 DUP5 ADD SWAP3 POP DUP3 CALLDATALOAD SWAP2 POP PUSH8 0xFFFFFFFFFFFFFFFF DUP3 GT ISZERO PUSH2 0x3BC4 JUMPI PUSH2 0x3BC3 PUSH2 0x389E JUMP JUMPDEST JUMPDEST PUSH1 0x20 DUP4 ADD SWAP3 POP PUSH1 0x20 DUP3 MUL CALLDATASIZE SUB DUP4 SGT ISZERO PUSH2 0x3BE0 JUMPI PUSH2 0x3BDF PUSH2 0x38A2 JUMP JUMPDEST JUMPDEST POP SWAP3 POP SWAP3 SWAP1 POP JUMP JUMPDEST PUSH0 DUP2 SWAP1 POP SWAP2 SWAP1 POP JUMP JUMPDEST PUSH0 DUP2 SLOAD SWAP1 POP SWAP2 SWAP1 POP JUMP JUMPDEST PUSH0 PUSH2 0x3C05 DUP3 PUSH2 0x2929 JUMP JUMPDEST SWAP2 POP PUSH2 0x3C10 DUP4 PUSH2 0x2929 JUMP JUMPDEST SWAP3 POP DUP3 DUP3 MUL PUSH2 0x3C1E DUP2 PUSH2 0x2929 JUMP JUMPDEST SWAP2 POP DUP3 DUP3 DIV DUP5 EQ DUP4 ISZERO OR PUSH2 0x3C35 JUMPI PUSH2 0x3C34 PUSH2 0x3622 JUMP JUMPDEST JUMPDEST POP SWAP3 SWAP2 POP POP JUMP JUMPDEST PUSH0 DUP2 SWAP1 POP PUSH1 0x1 DUP1 PUSH1 0x1 SUB DUP4 ADD DIV SWAP1 POP SWAP2 SWAP1 POP JUMP JUMPDEST PUSH0 DUP2 SWAP1 POP DUP2 PUSH0 MSTORE PUSH1 0x20 PUSH0 KECCAK256 SWAP1 POP SWAP2 SWAP1 POP JUMP JUMPDEST PUSH2 0x3C92 PUSH32 0xFFFFFFFFFFFFFFFFFFFFFFFFFFFFFFFFFFFFFFFFFFFFFFFFFFFFFFFFFFFFFFFF DUP4 PUSH1 0x20 SUB PUSH1 0x8 MUL PUSH2 0x3A66 JUMP JUMPDEST DUP2 SLOAD DUP2 AND DUP3 SSTORE POP POP POP JUMP JUMPDEST PUSH2 0x3CA6 DUP2 PUSH2 0x393F JUMP JUMPDEST PUSH2 0x3CB1 DUP4 DUP3 SLOAD PUSH2 0x3A8E JUMP JUMPDEST DUP1 DUP4 SSTORE PUSH0 DUP3 SSTORE POP POP POP POP JUMP JUMPDEST PUSH1 0x20 DUP5 LT PUSH0 DUP2 EQ PUSH2 0x3D17 JUMPI PUSH1 0x1F DUP5 GT PUSH1 0x1 DUP2 EQ PUSH2 0x3CE5 JUMPI PUSH2 0x3CDE DUP7 DUP6 PUSH2 0x3A8E JUMP JUMPDEST DUP4 SSTORE PUSH2 0x3D11 JUMP JUMPDEST PUSH2 0x3CEE DUP4 PUSH2 0x393F JUMP JUMPDEST PUSH2 0x3D05 PUSH2 0x3CFA DUP8 PUSH2 0x3951 JUMP JUMPDEST DUP3 ADD PUSH1 0x1 DUP4 ADD PUSH2 0x39FE JUMP JUMPDEST PUSH2 0x3D0F DUP8 DUP6 PUSH2 0x3C9D JUMP JUMPDEST POP JUMPDEST POP PUSH2 0x3D64 JUMP JUMPDEST PUSH2 0x3D20 DUP3 PUSH2 0x393F JUMP JUMPDEST PUSH2 0x3D29 DUP7 PUSH2 0x3951 JUMP JUMPDEST DUP2 ADD PUSH1 0x1F DUP8 AND DUP1 ISZERO PUSH2 0x3D43 JUMPI PUSH2 0x3D42 DUP2 PUSH1 0x1 DUP5 SUB PUSH2 0x3C62 JUMP JUMPDEST JUMPDEST PUSH2 0x3D57 PUSH2 0x3D4F DUP9 PUSH2 0x3951 JUMP JUMPDEST DUP5 ADD DUP4 PUSH2 0x39FE JUMP JUMPDEST PUSH1 0x1 DUP9 PUSH1 0x2 MUL OR DUP6 SSTORE POP POP POP JUMPDEST POP POP POP POP POP JUMP JUMPDEST PUSH9 0x10000000000000000 DUP5 GT ISZERO PUSH2 0x3D85 JUMPI PUSH2 0x3D84 PUSH2 0x3912 JUMP JUMPDEST JUMPDEST PUSH1 0x20 DUP4 LT PUSH0 DUP2 EQ PUSH2 0x3DCE JUMPI PUSH1 0x20 DUP6 LT PUSH0 DUP2 EQ PUSH2 0x3DAC JUMPI PUSH2 0x3DA5 DUP7 DUP6 PUSH2 0x3A8E JUMP JUMPDEST DUP4 SSTORE PUSH2 0x3DC8 JUMP JUMPDEST DUP4 PUSH1 0xFF NOT AND SWAP4 POP DUP4 PUSH2 0x3DBD DUP5 PUSH2 0x393F JUMP JUMPDEST SSTORE PUSH1 0x1 DUP7 PUSH1 0x2 MUL ADD DUP4 SSTORE JUMPDEST POP PUSH2 0x3DD8 JUMP JUMPDEST PUSH1 0x1 DUP6 PUSH1 0x2 MUL ADD DUP3 SSTORE JUMPDEST POP POP POP POP POP JUMP JUMPDEST DUP1 SLOAD PUSH2 0x3DEA DUP2 PUSH2 0x358A JUMP JUMPDEST DUP1 DUP5 GT ISZERO PUSH2 0x3DFF JUMPI PUSH2 0x3DFE DUP5 DUP3 DUP5 DUP7 PUSH2 0x3D6B JUMP JUMPDEST JUMPDEST DUP1 DUP5 LT ISZERO PUSH2 0x3E14 JUMPI PUSH2 0x3E13 DUP5 DUP3 DUP5 DUP7 PUSH2 0x3CBD JUMP JUMPDEST JUMPDEST POP POP POP POP JUMP JUMPDEST JUMPDEST DUP2 DUP2 LT ISZERO PUSH2 0x3E38 JUMPI PUSH2 0x3E2D PUSH0 DUP3 PUSH2 0x39E6 JUMP JUMPDEST PUSH1 0x1 DUP2 ADD SWAP1 POP PUSH2 0x3E1B JUMP JUMPDEST POP POP JUMP JUMPDEST PUSH2 0x3E46 PUSH0 DUP3 PUSH2 0x3DDF JUMP JUMPDEST POP JUMP JUMPDEST PUSH0 DUP3 EQ PUSH2 0x3E59 JUMPI PUSH2 0x3E58 PUSH2 0x36FE JUMP JUMPDEST JUMPDEST PUSH2 0x3E62 DUP2 PUSH2 0x3E3C JUMP JUMPDEST POP POP JUMP JUMPDEST JUMPDEST DUP2 DUP2 LT ISZERO PUSH2 0x3E84 JUMPI PUSH2 0x3E79 PUSH0 DUP3 PUSH2 0x3E49 JUMP JUMPDEST PUSH1 0x1 DUP2 ADD SWAP1 POP PUSH2 0x3E67 JUMP JUMPDEST POP POP JUMP JUMPDEST DUP2 DUP4 LT ISZERO PUSH2 0x3EC1 JUMPI PUSH2 0x3E99 DUP3 PUSH2 0x3C3C JUMP JUMPDEST PUSH2 0x3EA2 DUP5 PUSH2 0x3C3C JUMP JUMPDEST PUSH2 0x3EAB DUP4 PUSH2 0x3C50 JUMP JUMPDEST DUP2 DUP2 ADD DUP4 DUP3 ADD PUSH2 0x3EBB DUP2 DUP4 PUSH2 0x3E66 JUMP JUMPDEST POP POP POP POP POP JUMPDEST POP POP POP JUMP JUMPDEST PUSH9 0x10000000000000000 DUP3 GT ISZERO PUSH2 0x3EE0 JUMPI PUSH2 0x3EDF PUSH2 0x3912 JUMP JUMPDEST JUMPDEST PUSH2 0x3EE9 DUP2 PUSH2 0x3BF1 JUMP JUMPDEST DUP3 DUP3 SSTORE PUSH2 0x3EF7 DUP4 DUP3 DUP5 PUSH2 0x3E88 JUMP JUMPDEST POP POP POP JUMP JUMPDEST PUSH0 DUP3 SWAP1 POP SWAP3 SWAP2 POP POP JUMP JUMPDEST PUSH2 0x3F10 DUP4 DUP4 PUSH2 0x3EFC JUMP JUMPDEST PUSH2 0x3F1A DUP2 DUP4 PUSH2 0x3EC6 JUMP JUMPDEST PUSH2 0x3F23 DUP4 PUSH2 0x3BE8 JUMP JUMPDEST PUSH2 0x3F2C DUP4 PUSH2 0x3C50 JUMP JUMPDEST PUSH0 JUMPDEST DUP4 DUP2 LT ISZERO PUSH2 0x3F64 JUMPI PUSH2 0x3F40 DUP4 DUP8 PUSH2 0x38A6 JUMP JUMPDEST PUSH2 0x3F4B DUP2 DUP4 DUP7 PUSH2 0x3B76 JUMP JUMPDEST PUSH1 0x20 DUP6 ADD SWAP5 POP PUSH1 0x1 DUP5 ADD SWAP4 POP POP POP PUSH1 0x1 DUP2 ADD SWAP1 POP PUSH2 0x3F2E JUMP JUMPDEST POP POP POP POP POP POP POP JUMP JUMPDEST PUSH2 0x3F78 DUP4 DUP4 DUP4 PUSH2 0x3F06 JUMP JUMPDEST POP POP POP JUMP JUMPDEST PUSH0 DUP2 ADD PUSH0 DUP4 ADD DUP1 PUSH2 0x3F8D DUP2 PUSH2 0x372A JUMP JUMPDEST SWAP1 POP PUSH2 0x3F99 DUP2 DUP5 PUSH2 0x37D4 JUMP JUMPDEST POP POP POP PUSH1 0x1 DUP2 ADD PUSH1 0x20 DUP4 ADD DUP1 PUSH2 0x3FAE DUP2 PUSH2 0x37F7 JUMP JUMPDEST SWAP1 POP PUSH2 0x3FBA DUP2 DUP5 PUSH2 0x3877 JUMP JUMPDEST POP POP POP PUSH1 0x2 DUP2 ADD PUSH1 0x40 DUP4 ADD PUSH2 0x3FCF DUP2 DUP6 PUSH2 0x38A6 JUMP JUMPDEST PUSH2 0x3FDA DUP2 DUP4 DUP7 PUSH2 0x3B76 JUMP JUMPDEST POP POP POP POP PUSH1 0x3 DUP2 ADD PUSH1 0x60 DUP4 ADD PUSH2 0x3FF0 DUP2 DUP6 PUSH2 0x3B86 JUMP JUMPDEST PUSH2 0x3FFB DUP2 DUP4 DUP7 PUSH2 0x3F6D JUMP JUMPDEST POP POP POP POP POP POP JUMP JUMPDEST PUSH2 0x400D DUP3 DUP3 PUSH2 0x3F7D JUMP JUMPDEST POP POP JUMP JUMPDEST PUSH32 0x496E76616C69642070726F746F636F6C20616464726573730000000000000000 PUSH0 DUP3 ADD MSTORE POP JUMP JUMPDEST PUSH0 PUSH2 0x4045 PUSH1 0x18 DUP4 PUSH2 0x2ABB JUMP JUMPDEST SWAP2 POP PUSH2 0x4050 DUP3 PUSH2 0x4011 JUMP JUMPDEST PUSH1 0x20 DUP3 ADD SWAP1 POP SWAP2 SWAP1 POP JUMP JUMPDEST PUSH0 PUSH1 0x20 DUP3 ADD SWAP1 POP DUP2 DUP2 SUB PUSH0 DUP4 ADD MSTORE PUSH2 0x4072 DUP2 PUSH2 0x4039 JUMP JUMPDEST SWAP1 POP SWAP2 SWAP1 POP JUMP JUMPDEST PUSH32 0x496E76616C6964206C6177796572206164647265737300000000000000000000 PUSH0 DUP3 ADD MSTORE POP JUMP JUMPDEST PUSH0 PUSH2 0x40AD PUSH1 0x16 DUP4 PUSH2 0x2ABB JUMP JUMPDEST SWAP2 POP PUSH2 0x40B8 DUP3 PUSH2 0x4079 JUMP JUMPDEST PUSH1 0x20 DUP3 ADD SWAP1 POP SWAP2 SWAP1 POP JUMP JUMPDEST PUSH0 PUSH1 0x20 DUP3 ADD SWAP1 POP DUP2 DUP2 SUB PUSH0 DUP4 ADD MSTORE PUSH2 0x40DA DUP2 PUSH2 0x40A1 JUMP JUMPDEST SWAP1 POP SWAP2 SWAP1 POP JUMP JUMPDEST PUSH0 DUP1 DUP4 CALLDATALOAD PUSH1 0x1 PUSH1 0x20 SUB DUP5 CALLDATASIZE SUB SUB DUP2 SLT PUSH2 0x40FD JUMPI PUSH2 0x40FC PUSH2 0x389A JUMP JUMPDEST JUMPDEST DUP1 DUP5 ADD SWAP3 POP DUP3 CALLDATALOAD SWAP2 POP PUSH8 0xFFFFFFFFFFFFFFFF DUP3 GT ISZERO PUSH2 0x411F JUMPI PUSH2 0x411E PUSH2 0x389E JUMP JUMPDEST JUMPDEST PUSH1 0x20 DUP4 ADD SWAP3 POP PUSH1 0x20 DUP3 MUL CALLDATASIZE SUB DUP4 SGT ISZERO PUSH2 0x413B JUMPI PUSH2 0x413A PUSH2 0x38A2 JUMP JUMPDEST JUMPDEST POP SWAP3 POP SWAP3 SWAP1 POP JUMP JUMPDEST PUSH0 DUP2 SLOAD SWAP1 POP SWAP2 SWAP1 POP JUMP JUMPDEST PUSH0 DUP2 SWAP1 POP PUSH1 0x1 DUP1 PUSH1 0x1 SUB DUP4 ADD DIV SWAP1 POP SWAP2 SWAP1 POP JUMP JUMPDEST PUSH0 DUP2 SWAP1 POP DUP2 PUSH0 MSTORE PUSH1 0x20 PUSH0 KECCAK256 SWAP1 POP SWAP2 SWAP1 POP JUMP JUMPDEST DUP2 DUP4 LT ISZERO PUSH2 0x41AC JUMPI PUSH2 0x4184 DUP3 PUSH2 0x414D JUMP JUMPDEST PUSH2 0x418D DUP5 PUSH2 0x414D JUMP JUMPDEST PUSH2 0x4196 DUP4 PUSH2 0x4161 JUMP JUMPDEST DUP2 DUP2 ADD DUP4 DUP3 ADD PUSH2 0x41A6 DUP2 DUP4 PUSH2 0x3E1A JUMP JUMPDEST POP POP POP POP POP JUMPDEST POP POP POP JUMP JUMPDEST PUSH9 0x10000000000000000 DUP3 GT ISZERO PUSH2 0x41CB JUMPI PUSH2 0x41CA PUSH2 0x3912 JUMP JUMPDEST JUMPDEST PUSH2 0x41D4 DUP2 PUSH2 0x4143 JUMP JUMPDEST DUP3 DUP3 SSTORE PUSH2 0x41E2 DUP4 DUP3 DUP5 PUSH2 0x4173 JUMP JUMPDEST POP POP POP JUMP JUMPDEST PUSH0 DUP3 SWAP1 POP SWAP3 SWAP2 POP POP JUMP JUMPDEST PUSH0 DUP2 SWAP1 POP SWAP2 SWAP1 POP JUMP JUMPDEST PUSH2 0x4204 DUP4 DUP4 PUSH2 0x41E7 JUMP JUMPDEST PUSH8 0xFFFFFFFFFFFFFFFF DUP2 GT ISZERO PUSH2 0x421D JUMPI PUSH2 0x421C PUSH2 0x3912 JUMP JUMPDEST JUMPDEST PUSH2 0x4227 DUP2 DUP4 PUSH2 0x41B1 JUMP JUMPDEST PUSH2 0x4230 DUP4 PUSH2 0x41F1 JUMP JUMPDEST PUSH2 0x4239 DUP4 PUSH2 0x4161 JUMP JUMPDEST PUSH1 0x1 DUP4 DIV PUSH0 JUMPDEST DUP2 DUP2 LT ISZERO PUSH2 0x4276 JUMPI PUSH0 PUSH2 0x4251 DUP6 PUSH2 0x37F7 JUMP JUMPDEST PUSH2 0x425A DUP2 PUSH2 0x386E JUMP JUMPDEST DUP1 SWAP3 POP PUSH1 0x20 DUP8 ADD SWAP7 POP POP POP DUP1 DUP3 DUP6 ADD SSTORE POP PUSH1 0x1 DUP2 ADD SWAP1 POP PUSH2 0x423F JUMP JUMPDEST POP POP POP POP POP POP POP POP JUMP JUMPDEST PUSH2 0x428B DUP4 DUP4 DUP4 PUSH2 0x41FA JUMP JUMPDEST POP POP POP JUMP JUMPDEST PUSH2 0x4299 DUP2 PUSH2 0x29B1 JUMP JUMPDEST DUP2 EQ PUSH2 0x42A3 JUMPI PUSH0 DUP1 REVERT JUMPDEST POP JUMP JUMPDEST PUSH0 DUP2 CALLDATALOAD PUSH2 0x42B2 DUP2 PUSH2 0x4290 JUMP JUMPDEST DUP1 SWAP2 POP POP SWAP2 SWAP1 POP JUMP JUMPDEST PUSH0 PUSH1 0xFF PUSH2 0x42C7 DUP5 PUSH2 0x373F JUMP JUMPDEST SWAP4 POP DUP1 NOT DUP4 AND SWAP3 POP DUP1 DUP5 AND DUP4 OR SWAP2 POP POP SWAP3 SWAP2 POP POP JUMP JUMPDEST PUSH0 PUSH2 0x42E7 DUP3 PUSH2 0x29B1 JUMP JUMPDEST SWAP1 POP SWAP2 SWAP1 POP JUMP JUMPDEST PUSH0 DUP2 SWAP1 POP SWAP2 SWAP1 POP JUMP JUMPDEST PUSH2 0x4300 DUP3 PUSH2 0x42DD JUMP JUMPDEST PUSH2 0x4313 PUSH2 0x430C DUP3 PUSH2 0x42EE JUMP JUMPDEST DUP4 SLOAD PUSH2 0x42BB JUMP JUMPDEST DUP3 SSTORE POP POP POP JUMP JUMPDEST PUSH0 DUP2 ADD PUSH0 DUP4 ADD DUP1 PUSH2 0x432A DUP2 PUSH2 0x372A JUMP JUMPDEST SWAP1 POP PUSH2 0x4336 DUP2 DUP5 PUSH2 0x37D4 JUMP JUMPDEST POP POP POP PUSH1 0x1 DUP2 ADD PUSH1 0x20 DUP4 ADD PUSH2 0x434B DUP2 DUP6 PUSH2 0x40E1 JUMP JUMPDEST PUSH2 0x4356 DUP2 DUP4 DUP7 PUSH2 0x4280 JUMP JUMPDEST POP POP POP POP PUSH1 0x2 DUP2 ADD PUSH1 0x40 DUP4 ADD PUSH2 0x436C DUP2 DUP6 PUSH2 0x38A6 JUMP JUMPDEST PUSH2 0x4377 DUP2 DUP4 DUP7 PUSH2 0x3B76 JUMP JUMPDEST POP POP POP POP PUSH1 0x3 DUP2 ADD PUSH1 0x60 DUP4 ADD DUP1 PUSH2 0x438D DUP2 PUSH2 0x37F7 JUMP JUMPDEST SWAP1 POP PUSH2 0x4399 DUP2 DUP5 PUSH2 0x3877 JUMP JUMPDEST POP POP POP PUSH1 0x4 DUP2 ADD PUSH1 0x80 DUP4 ADD DUP1 PUSH2 0x43AE DUP2 PUSH2 0x37F7 JUMP JUMPDEST SWAP1 POP PUSH2 0x43BA DUP2 DUP5 PUSH2 0x3877 JUMP JUMPDEST POP POP POP PUSH1 0x5 DUP2 ADD PUSH1 0xA0 DUP4 ADD DUP1 PUSH2 0x43CF DUP2 PUSH2 0x42A6 JUMP JUMPDEST SWAP1 POP PUSH2 0x43DB DUP2 DUP5 PUSH2 0x42F7 JUMP JUMPDEST POP POP POP POP POP JUMP JUMPDEST PUSH2 0x43EC DUP3 DUP3 PUSH2 0x431A JUMP JUMPDEST POP POP JUMP JUMPDEST PUSH0 DUP2 CALLDATALOAD SWAP1 POP PUSH2 0x43FE DUP2 PUSH2 0x4290 JUMP JUMPDEST SWAP3 SWAP2 POP POP JUMP JUMPDEST PUSH0 PUSH1 0x20 DUP3 DUP5 SUB SLT ISZERO PUSH2 0x4419 JUMPI PUSH2 0x4418 PUSH2 0x288D JUMP JUMPDEST JUMPDEST PUSH0 PUSH2 0x4426 DUP5 DUP3 DUP6 ADD PUSH2 0x43F0 JUMP JUMPDEST SWAP2 POP POP SWAP3 SWAP2 POP POP JUMP JUMPDEST PUSH32 0x496E76616C696420696E636964656E7420696400000000000000000000000000 PUSH0 DUP3 ADD MSTORE POP JUMP JUMPDEST PUSH0 PUSH2 0x4463 PUSH1 0x13 DUP4 PUSH2 0x2ABB JUMP JUMPDEST SWAP2 POP PUSH2 0x446E DUP3 PUSH2 0x442F JUMP JUMPDEST PUSH1 0x20 DUP3 ADD SWAP1 POP SWAP2 SWAP1 POP JUMP JUMPDEST PUSH0 PUSH1 0x20 DUP3 ADD SWAP1 POP DUP2 DUP2 SUB PUSH0 DUP4 ADD MSTORE PUSH2 0x4490 DUP2 PUSH2 0x4457 JUMP JUMPDEST SWAP1 POP SWAP2 SWAP1 POP JUMP JUMPDEST PUSH1 0x3 DUP2 LT PUSH2 0x44A3 JUMPI PUSH0 DUP1 REVERT JUMPDEST POP JUMP JUMPDEST PUSH0 DUP2 CALLDATALOAD PUSH2 0x44B2 DUP2 PUSH2 0x4497 JUMP JUMPDEST DUP1 SWAP2 POP POP SWAP2 SWAP1 POP JUMP JUMPDEST PUSH0 PUSH2 0x44C5 DUP3 PUSH2 0x2FE7 JUMP JUMPDEST SWAP1 POP SWAP2 SWAP1 POP JUMP JUMPDEST PUSH0 DUP2 SWAP1 POP SWAP2 SWAP1 POP JUMP JUMPDEST PUSH2 0x44DE DUP3 PUSH2 0x44BB JUMP JUMPDEST PUSH2 0x44F1 PUSH2 0x44EA DUP3 PUSH2 0x44CC JUMP JUMPDEST DUP4 SLOAD PUSH2 0x42BB JUMP JUMPDEST DUP3 SSTORE POP POP POP JUMP JUMPDEST PUSH0 DUP2 PUSH1 0x8 SHL SWAP1 POP SWAP2 SWAP1 POP JUMP JUMPDEST PUSH0 PUSH21 0xFFFFFFFFFFFFFFFFFFFFFFFFFFFFFFFFFFFFFFFF00 PUSH2 0x4524 DUP5 PUSH2 0x44F8 JUMP JUMPDEST SWAP4 POP DUP1 NOT DUP4 AND SWAP3 POP DUP1 DUP5 AND DUP4 OR SWAP2 POP POP SWAP3 SWAP2 POP POP JUMP JUMPDEST PUSH2 0x4543 DUP3 PUSH2 0x37BA JUMP JUMPDEST PUSH2 0x4556 PUSH2 0x454F DUP3 PUSH2 0x37CB JUMP JUMPDEST DUP4 SLOAD PUSH2 0x4504 JUMP JUMPDEST DUP3 SSTORE POP POP POP JUMP JUMPDEST PUSH0 DUP1 DUP4 CALLDATALOAD PUSH1 0x1 PUSH1 0x20 SUB DUP5 CALLDATASIZE SUB SUB DUP2 SLT PUSH2 0x4579 JUMPI PUSH2 0x4578 PUSH2 0x389A JUMP JUMPDEST JUMPDEST DUP1 DUP5 ADD SWAP3 POP DUP3 CALLDATALOAD SWAP2 POP PUSH8 0xFFFFFFFFFFFFFFFF DUP3 GT ISZERO PUSH2 0x459B JUMPI PUSH2 0x459A PUSH2 0x389E JUMP JUMPDEST JUMPDEST PUSH1 0x20 DUP4 ADD SWAP3 POP PUSH1 0x20 DUP3 MUL CALLDATASIZE SUB DUP4 SGT ISZERO PUSH2 0x45B7 JUMPI PUSH2 0x45B6 PUSH2 0x38A2 JUMP JUMPDEST JUMPDEST POP SWAP3 POP SWAP3 SWAP1 POP JUMP JUMPDEST PUSH0 DUP2 SWAP1 POP SWAP2 SWAP1 POP JUMP JUMPDEST PUSH0 DUP3 CALLDATALOAD PUSH1 0x1 PUSH1 0x80 SUB DUP4 CALLDATASIZE SUB SUB DUP2 SLT PUSH2 0x45E3 JUMPI PUSH2 0x45E2 PUSH2 0x389A JUMP JUMPDEST JUMPDEST DUP1 DUP4 ADD SWAP2 POP POP SWAP3 SWAP2 POP POP JUMP JUMPDEST PUSH0 DUP2 SLOAD SWAP1 POP SWAP2 SWAP1 POP JUMP JUMPDEST PUSH0 DUP2 SWAP1 POP PUSH2 0x4608 DUP3 PUSH1 0x4 PUSH2 0x3BFB JUMP JUMPDEST SWAP1 POP SWAP2 SWAP1 POP JUMP JUMPDEST PUSH0 DUP2 SWAP1 POP DUP2 PUSH0 MSTORE PUSH1 0x20 PUSH0 KECCAK256 SWAP1 POP SWAP2 SWAP1 POP JUMP JUMPDEST PUSH2 0x462B PUSH0 DUP3 PUSH2 0x3EC6 JUMP JUMPDEST POP JUMP JUMPDEST PUSH0 DUP3 EQ PUSH2 0x463E JUMPI PUSH2 0x463D PUSH2 0x36FE JUMP JUMPDEST JUMPDEST PUSH2 0x4647 DUP2 PUSH2 0x4621 JUMP JUMPDEST POP POP JUMP JUMPDEST PUSH0 DUP1 DUP3 ADD SSTORE PUSH2 0x465D PUSH0 PUSH1 0x1 DUP4 ADD PUSH2 0x39E6 JUMP JUMPDEST PUSH2 0x466A PUSH0 PUSH1 0x2 DUP4 ADD PUSH2 0x3E49 JUMP JUMPDEST PUSH2 0x4677 PUSH0 PUSH1 0x3 DUP4 ADD PUSH2 0x462E JUMP JUMPDEST POP JUMP JUMPDEST PUSH0 DUP3 EQ PUSH2 0x468A JUMPI PUSH2 0x4689 PUSH2 0x36FE JUMP JUMPDEST JUMPDEST PUSH2 0x4693 DUP2 PUSH2 0x464B JUMP JUMPDEST POP POP JUMP JUMPDEST JUMPDEST DUP2 DUP2 LT ISZERO PUSH2 0x46B5 JUMPI PUSH2 0x46AA PUSH0 DUP3 PUSH2 0x467A JUMP JUMPDEST PUSH1 0x4 DUP2 ADD SWAP1 POP PUSH2 0x4698 JUMP JUMPDEST POP POP JUMP JUMPDEST DUP2 DUP4 LT ISZERO PUSH2 0x46F2 JUMPI PUSH2 0x46CA DUP3 PUSH2 0x45F9 JUMP JUMPDEST PUSH2 0x46D3 DUP5 PUSH2 0x45F9 JUMP JUMPDEST PUSH2 0x46DC DUP4 PUSH2 0x460F JUMP JUMPDEST DUP2 DUP2 ADD DUP4 DUP3 ADD PUSH2 0x46EC DUP2 DUP4 PUSH2 0x4697 JUMP JUMPDEST POP POP POP POP POP JUMPDEST POP POP POP JUMP JUMPDEST PUSH9 0x10000000000000000 DUP3 GT ISZERO PUSH2 0x4711 JUMPI PUSH2 0x4710 PUSH2 0x3912 JUMP JUMPDEST JUMPDEST PUSH2 0x471A DUP2 PUSH2 0x45EF JUMP JUMPDEST DUP3 DUP3 SSTORE PUSH2 0x4728 DUP4 DUP3 DUP5 PUSH2 0x46B9 JUMP JUMPDEST POP POP POP JUMP JUMPDEST PUSH0 DUP3 SWAP1 POP SWAP3 SWAP2 POP POP JUMP JUMPDEST PUSH2 0x4741 DUP4 DUP4 PUSH2 0x472D JUMP JUMPDEST PUSH2 0x474B DUP2 DUP4 PUSH2 0x46F7 JUMP JUMPDEST PUSH2 0x4754 DUP4 PUSH2 0x45BF JUMP JUMPDEST PUSH2 0x475D DUP4 PUSH2 0x460F JUMP JUMPDEST PUSH0 JUMPDEST DUP4 DUP2 LT ISZERO PUSH2 0x4793 JUMPI PUSH2 0x4771 DUP4 DUP8 PUSH2 0x45C8 JUMP JUMPDEST PUSH2 0x477B DUP2 DUP5 PUSH2 0x4003 JUMP JUMPDEST PUSH1 0x20 DUP5 ADD SWAP4 POP PUSH1 0x4 DUP4 ADD SWAP3 POP POP PUSH1 0x1 DUP2 ADD SWAP1 POP PUSH2 0x475F JUMP JUMPDEST POP POP POP POP POP POP POP JUMP JUMPDEST PUSH2 0x47A7 DUP4 DUP4 DUP4 PUSH2 0x4737 JUMP JUMPDEST POP POP POP JUMP JUMPDEST PUSH0 DUP2 ADD PUSH0 DUP4 ADD DUP1 PUSH2 0x47BC DUP2 PUSH2 0x37F7 JUMP JUMPDEST SWAP1 POP PUSH2 0x47C8 DUP2 DUP5 PUSH2 0x3877 JUMP JUMPDEST POP POP POP PUSH1 0x1 DUP2 ADD PUSH1 0x20 DUP4 ADD DUP1 PUSH2 0x47DD DUP2 PUSH2 0x372A JUMP JUMPDEST SWAP1 POP PUSH2 0x47E9 DUP2 DUP5 PUSH2 0x37D4 JUMP JUMPDEST POP POP POP PUSH1 0x2 DUP2 ADD PUSH1 0x40 DUP4 ADD PUSH2 0x47FE DUP2 DUP6 PUSH2 0x38A6 JUMP JUMPDEST PUSH2 0x4809 DUP2 DUP4 DUP7 PUSH2 0x3B76 JUMP JUMPDEST POP POP POP POP PUSH1 0x3 DUP2 ADD PUSH1 0x60 DUP4 ADD DUP1 PUSH2 0x481F DUP2 PUSH2 0x37F7 JUMP JUMPDEST SWAP1 POP PUSH2 0x482B DUP2 DUP5 PUSH2 0x3877 JUMP JUMPDEST POP POP POP PUSH1 0x4 DUP2 ADD PUSH1 0x80 DUP4 ADD DUP1 PUSH2 0x4840 DUP2 PUSH2 0x44A6 JUMP JUMPDEST SWAP1 POP PUSH2 0x484C DUP2 DUP5 PUSH2 0x44D5 JUMP JUMPDEST POP POP POP PUSH1 0x4 DUP2 ADD PUSH1 0xA0 DUP4 ADD DUP1 PUSH2 0x4861 DUP2 PUSH2 0x372A JUMP JUMPDEST SWAP1 POP PUSH2 0x486D DUP2 DUP5 PUSH2 0x453A JUMP JUMPDEST POP POP POP PUSH1 0x5 DUP2 ADD PUSH1 0xC0 DUP4 ADD PUSH2 0x4882 DUP2 DUP6 PUSH2 0x455D JUMP JUMPDEST PUSH2 0x488D DUP2 DUP4 DUP7 PUSH2 0x479C JUMP JUMPDEST POP POP POP POP PUSH1 0x6 DUP2 ADD PUSH1 0xE0 DUP4 ADD PUSH2 0x48A3 DUP2 DUP6 PUSH2 0x3B86 JUMP JUMPDEST PUSH2 0x48AE DUP2 DUP4 DUP7 PUSH2 0x3F6D JUMP JUMPDEST POP POP POP POP POP POP JUMP JUMPDEST PUSH2 0x48C0 DUP3 DUP3 PUSH2 0x47AC JUMP JUMPDEST POP POP JUMP JUMPDEST PUSH32 0x496E76616C6964206D656D626572206164647265737300000000000000000000 PUSH0 DUP3 ADD MSTORE POP JUMP JUMPDEST PUSH0 PUSH2 0x48F8 PUSH1 0x16 DUP4 PUSH2 0x2ABB JUMP JUMPDEST SWAP2 POP PUSH2 0x4903 DUP3 PUSH2 0x48C4 JUMP JUMPDEST PUSH1 0x20 DUP3 ADD SWAP1 POP SWAP2 SWAP1 POP JUMP JUMPDEST PUSH0 PUSH1 0x20 DUP3 ADD SWAP1 POP DUP2 DUP2 SUB PUSH0 DUP4 ADD MSTORE PUSH2 0x4925 DUP2 PUSH2 0x48EC JUMP JUMPDEST SWAP1 POP SWAP2 SWAP1 POP JUMP JUMPDEST PUSH0 DUP2 ADD PUSH0 DUP4 ADD DUP1 PUSH2 0x493C DUP2 PUSH2 0x372A JUMP JUMPDEST SWAP1 POP PUSH2 0x4948 DUP2 DUP5 PUSH2 0x37D4 JUMP JUMPDEST POP POP POP PUSH1 0x1 DUP2 ADD PUSH1 0x20 DUP4 ADD DUP1 PUSH2 0x495D DUP2 PUSH2 0x372A JUMP JUMPDEST SWAP1 POP PUSH2 0x4969 DUP2 DUP5 PUSH2 0x37D4 JUMP JUMPDEST POP POP POP PUSH1 0x2 DUP2 ADD PUSH1 0x40 DUP4 ADD DUP1 PUSH2 0x497E DUP2 PUSH2 0x37F7 JUMP JUMPDEST SWAP1 POP PUSH2 0x498A DUP2 DUP5 PUSH2 0x3877 JUMP JUMPDEST POP POP POP PUSH1 0x3 DUP2 ADD PUSH1 0x60 DUP4 ADD PUSH2 0x499F DUP2 DUP6 PUSH2 0x38A6 JUMP JUMPDEST PUSH2 0x49AA DUP2 DUP4 DUP7 PUSH2 0x3B76 JUMP JUMPDEST POP POP POP POP PUSH1 0x4 DUP2 ADD PUSH1 0x80 DUP4 ADD DUP1 PUSH2 0x49C0 DUP2 PUSH2 0x37F7 JUMP JUMPDEST SWAP1 POP PUSH2 0x49CC DUP2 DUP5 PUSH2 0x3877 JUMP JUMPDEST POP POP POP PUSH1 0x5 DUP2 ADD PUSH1 0xA0 DUP4 ADD DUP1 PUSH2 0x49E1 DUP2 PUSH2 0x37F7 JUMP JUMPDEST SWAP1 POP PUSH2 0x49ED DUP2 DUP5 PUSH2 0x3877 JUMP JUMPDEST POP POP POP PUSH1 0x6 DUP2 ADD PUSH1 0xC0 DUP4 ADD DUP1 PUSH2 0x4A02 DUP2 PUSH2 0x42A6 JUMP JUMPDEST SWAP1 POP PUSH2 0x4A0E DUP2 DUP5 PUSH2 0x42F7 JUMP JUMPDEST POP POP POP POP POP JUMP JUMPDEST PUSH2 0x4A1F DUP3 DUP3 PUSH2 0x492C JUMP JUMPDEST POP POP JUMP JUMPDEST PUSH0 PUSH1 0x40 DUP3 ADD SWAP1 POP PUSH2 0x4A36 PUSH0 DUP4 ADD DUP6 PUSH2 0x2A84 JUMP JUMPDEST PUSH2 0x4A43 PUSH1 0x20 DUP4 ADD DUP5 PUSH2 0x2B03 JUMP JUMPDEST SWAP4 SWAP3 POP POP POP JUMP JUMPDEST PUSH32 0x496E76616C696420636173652049440000000000000000000000000000000000 PUSH0 DUP3 ADD MSTORE POP JUMP JUMPDEST PUSH0 PUSH2 0x4A7E PUSH1 0xF DUP4 PUSH2 0x2ABB JUMP JUMPDEST SWAP2 POP PUSH2 0x4A89 DUP3 PUSH2 0x4A4A JUMP JUMPDEST PUSH1 0x20 DUP3 ADD SWAP1 POP SWAP2 SWAP1 POP JUMP JUMPDEST PUSH0 PUSH1 0x20 DUP3 ADD SWAP1 POP DUP2 DUP2 SUB PUSH0 DUP4 ADD MSTORE PUSH2 0x4AAB DUP2 PUSH2 0x4A72 JUMP JUMPDEST SWAP1 POP SWAP2 SWAP1 POP JUMP JUMPDEST PUSH32 0x496E76616C6964206D656D626572000000000000000000000000000000000000 PUSH0 DUP3 ADD MSTORE POP JUMP JUMPDEST PUSH0 PUSH2 0x4AE6 PUSH1 0xE DUP4 PUSH2 0x2ABB JUMP JUMPDEST SWAP2 POP PUSH2 0x4AF1 DUP3 PUSH2 0x4AB2 JUMP JUMPDEST PUSH1 0x20 DUP3 ADD SWAP1 POP SWAP2 SWAP1 POP JUMP JUMPDEST PUSH0 PUSH1 0x20 DUP3 ADD SWAP1 POP DUP2 DUP2 SUB PUSH0 DUP4 ADD MSTORE PUSH2 0x4B13 DUP2 PUSH2 0x4ADA JUMP JUMPDEST SWAP1 POP SWAP2 SWAP1 POP JUMP JUMPDEST PUSH32 0x496E76616C6964206C6177796572000000000000000000000000000000000000 PUSH0 DUP3 ADD MSTORE POP JUMP JUMPDEST PUSH0 PUSH2 0x4B4E PUSH1 0xE DUP4 PUSH2 0x2ABB JUMP JUMPDEST SWAP2 POP PUSH2 0x4B59 DUP3 PUSH2 0x4B1A JUMP JUMPDEST PUSH1 0x20 DUP3 ADD SWAP1 POP SWAP2 SWAP1 POP JUMP JUMPDEST PUSH0 PUSH1 0x20 DUP3 ADD SWAP1 POP DUP2 DUP2 SUB PUSH0 DUP4 ADD MSTORE PUSH2 0x4B7B DUP2 PUSH2 0x4B42 JUMP JUMPDEST SWAP1 POP SWAP2 SWAP1 POP JUMP JUMPDEST PUSH0 DUP2 ADD PUSH0 DUP4 ADD DUP1 PUSH2 0x4B92 DUP2 PUSH2 0x37F7 JUMP JUMPDEST SWAP1 POP PUSH2 0x4B9E DUP2 DUP5 PUSH2 0x3877 JUMP JUMPDEST POP POP POP PUSH1 0x1 DUP2 ADD PUSH1 0x20 DUP4 ADD DUP1 PUSH2 0x4BB3 DUP2 PUSH2 0x372A JUMP JUMPDEST SWAP1 POP PUSH2 0x4BBF DUP2 DUP5 PUSH2 0x37D4 JUMP JUMPDEST POP POP POP PUSH1 0x2 DUP2 ADD PUSH1 0x40 DUP4 ADD DUP1 PUSH2 0x4BD4 DUP2 PUSH2 0x372A JUMP JUMPDEST SWAP1 POP PUSH2 0x4BE0 DUP2 DUP5 PUSH2 0x37D4 JUMP JUMPDEST POP POP POP PUSH1 0x3 DUP2 ADD PUSH1 0x60 DUP4 ADD PUSH2 0x4BF5 DUP2 DUP6 PUSH2 0x38A6 JUMP JUMPDEST PUSH2 0x4C00 DUP2 DUP4 DUP7 PUSH2 0x3B76 JUMP JUMPDEST POP POP POP POP PUSH1 0x4 DUP2 ADD PUSH1 0x80 DUP4 ADD DUP1 PUSH2 0x4C16 DUP2 PUSH2 0x37F7 JUMP JUMPDEST SWAP1 POP PUSH2 0x4C22 DUP2 DUP5 PUSH2 0x3877 JUMP JUMPDEST POP POP POP PUSH1 0x5 DUP2 ADD PUSH1 0xA0 DUP4 ADD DUP1 PUSH2 0x4C37 DUP2 PUSH2 0x37F7 JUMP JUMPDEST SWAP1 POP PUSH2 0x4C43 DUP2 DUP5 PUSH2 0x3877 JUMP JUMPDEST POP POP POP PUSH1 0x6 DUP2 ADD PUSH1 0xC0 DUP4 ADD DUP1 PUSH2 0x4C58 DUP2 PUSH2 0x42A6 JUMP JUMPDEST SWAP1 POP PUSH2 0x4C64 DUP2 DUP5 PUSH2 0x42F7 JUMP JUMPDEST POP POP POP PUSH1 0x7 DUP2 ADD PUSH1 0xE0 DUP4 ADD DUP1 PUSH2 0x4C79 DUP2 PUSH2 0x37F7 JUMP JUMPDEST SWAP1 POP PUSH2 0x4C85 DUP2 DUP5 PUSH2 0x3877 JUMP JUMPDEST POP POP POP POP POP JUMP JUMPDEST PUSH2 0x4C96 DUP3 DUP3 PUSH2 0x4B82 JUMP JUMPDEST POP POP JUMP JUMPDEST PUSH32 0x4E487B7100000000000000000000000000000000000000000000000000000000 PUSH0 MSTORE PUSH1 0x32 PUSH1 0x4 MSTORE PUSH1 0x24 PUSH0 REVERT JUMPDEST PUSH0 PUSH2 0x4CD1 DUP3 PUSH2 0x2929 JUMP JUMPDEST SWAP2 POP PUSH2 0x4CDC DUP4 PUSH2 0x2929 JUMP JUMPDEST SWAP3 POP DUP3 DUP3 SUB SWAP1 POP DUP2 DUP2 GT ISZERO PUSH2 0x4CF4 JUMPI PUSH2 0x4CF3 PUSH2 0x3622 JUMP JUMPDEST JUMPDEST SWAP3 SWAP2 POP POP JUMP JUMPDEST PUSH32 0x4E487B7100000000000000000000000000000000000000000000000000000000 PUSH0 MSTORE PUSH1 0x31 PUSH1 0x4 MSTORE PUSH1 0x24 PUSH0 REVERT INVALID LOG2 PUSH5 0x6970667358 0x22 SLT KECCAK256 BYTE NOT 0x4B 0xDF LOG1 PUSH11 0x21647B42C8EE2C6D967BE 0xB6 PREVRANDAO 0xCA 0x2B 0xE4 0xD6 DUP7 SWAP9 0x24 0xBE PUSH23 0x7BA09E4764736F6C634300081A00330000000000000000 "
		},
		"gasEstimates": {
			"creation": {
				"codeDepositCost": "3961000",
				"executionCost": "infinite",
				"totalCost": "infinite"
			},
			"external": {
				"addCorroboratorToIncident(uint256,(address,uint256,string,string[]))": "infinite",
				"addOrUpdateCase((uint256,address,address,string,uint256,uint256,bool,uint256))": "infinite",
				"addOrUpdateIncident((uint256,address,string,uint256,uint8,address,(address,uint256,string,string[])[],string[]))": "infinite",
				"addOrUpdateLawyer((address,uint256[],string,uint256,uint256,bool))": "infinite",
				"addOrUpdateMember((address,address,uint256,string,uint256,uint256,bool))": "infinite",
				"cases(uint256)": "infinite",
				"casesMap(uint256)": "infinite",
				"getAndIncrementCaseId()": "infinite",
				"getAndIncrementIncidentId()": "infinite",
				"getLawyerCases(address)": "infinite",
				"incidents(uint256)": "infinite",
				"incidentsMap(uint256)": "infinite",
				"initializeProtocol(address)": "infinite",
				"isLawyer(address)": "2916",
				"isLawyerMap(address)": "2900",
				"isMember(address)": "2915",
				"isMemberMap(address)": "2943",
				"lawyers(address)": "infinite",
				"lawyersMap(address)": "infinite",
				"members(address)": "infinite",
				"membersMap(address)": "infinite",
				"nextCaseId()": "2493",
				"nextIncidentId()": "2516",
				"nextMemberId()": "2536",
				"owner()": "2605",
				"padiProtocol()": "2597",
				"renounceOwnership()": "infinite",
				"transferOwnership(address)": "infinite"
			},
			"internal": {
				"_addToOpenCases(struct PadiTypes.Case calldata)": "infinite",
				"_existsInArray(uint256[] storage pointer,uint256)": "infinite",
				"_moveCaseToClosed(struct PadiTypes.Case calldata)": "infinite"
			}
		},
		"methodIdentifiers": {
			"addCorroboratorToIncident(uint256,(address,uint256,string,string[]))": "213b6360",
			"addOrUpdateCase((uint256,address,address,string,uint256,uint256,bool,uint256))": "f47be477",
			"addOrUpdateIncident((uint256,address,string,uint256,uint8,address,(address,uint256,string,string[])[],string[]))": "a599681f",
			"addOrUpdateLawyer((address,uint256[],string,uint256,uint256,bool))": "84500001",
			"addOrUpdateMember((address,address,uint256,string,uint256,uint256,bool))": "af947d05",
			"cases(uint256)": "f09790dd",
			"casesMap(uint256)": "84e49bce",
			"getAndIncrementCaseId()": "84dc0806",
			"getAndIncrementIncidentId()": "0b98d45a",
			"getLawyerCases(address)": "8bfeffe5",
			"incidents(uint256)": "a6c6a8f3",
			"incidentsMap(uint256)": "8c2f59e4",
			"initializeProtocol(address)": "3b9cccf0",
			"isLawyer(address)": "5939a84e",
			"isLawyerMap(address)": "c0a47753",
			"isMember(address)": "a230c524",
			"isMemberMap(address)": "fbbca380",
			"lawyers(address)": "554ae567",
			"lawyersMap(address)": "1ed9772f",
			"members(address)": "08ae4b0c",
			"membersMap(address)": "872ea68a",
			"nextCaseId()": "6350eae8",
			"nextIncidentId()": "0fd19668",
			"nextMemberId()": "ae99004c",
			"owner()": "8da5cb5b",
			"padiProtocol()": "e0ecef92",
			"renounceOwnership()": "715018a6",
			"transferOwnership(address)": "f2fde38b"
		}
	},
	"abi": [
		{
			"inputs": [],
			"stateMutability": "nonpayable",
			"type": "constructor"
		},
		{
			"inputs": [
				{
					"internalType": "address",
					"name": "owner",
					"type": "address"
				}
			],
			"name": "OwnableInvalidOwner",
			"type": "error"
		},
		{
			"inputs": [
				{
					"internalType": "address",
					"name": "account",
					"type": "address"
				}
			],
			"name": "OwnableUnauthorizedAccount",
			"type": "error"
		},
		{
			"anonymous": false,
			"inputs": [
				{
					"indexed": true,
					"internalType": "uint256",
					"name": "caseId",
					"type": "uint256"
				},
				{
					"indexed": true,
					"internalType": "address",
					"name": "member",
					"type": "address"
				},
				{
					"indexed": true,
					"internalType": "address",
					"name": "lawyer",
					"type": "address"
				},
				{
					"indexed": false,
					"internalType": "bool",
					"name": "resolved",
					"type": "bool"
				}
			],
			"name": "CaseUpdated",
			"type": "event"
		},
		{
			"anonymous": false,
			"inputs": [
				{
					"indexed": true,
					"internalType": "uint256",
					"name": "incidentId",
					"type": "uint256"
				},
				{
					"indexed": true,
					"internalType": "address",
					"name": "corroborator",
					"type": "address"
				},
				{
					"indexed": false,
					"internalType": "uint256",
					"name": "timestamp",
					"type": "uint256"
				}
			],
			"name": "CorroborationAdded",
			"type": "event"
		},
		{
			"anonymous": false,
			"inputs": [
				{
					"indexed": true,
					"internalType": "uint256",
					"name": "incidentId",
					"type": "uint256"
				},
				{
					"indexed": true,
					"internalType": "address",
					"name": "reporter",
					"type": "address"
				},
				{
					"indexed": false,
					"internalType": "uint256",
					"name": "timestamp",
					"type": "uint256"
				}
			],
			"name": "IncidentReported",
			"type": "event"
		},
		{
			"anonymous": false,
			"inputs": [
				{
					"indexed": true,
					"internalType": "address",
					"name": "wallet",
					"type": "address"
				},
				{
					"indexed": false,
					"internalType": "bool",
					"name": "active",
					"type": "bool"
				}
			],
			"name": "LawyerUpdated",
			"type": "event"
		},
		{
			"anonymous": false,
			"inputs": [
				{
					"indexed": true,
					"internalType": "address",
					"name": "wallet",
					"type": "address"
				},
				{
					"indexed": false,
					"internalType": "uint256",
					"name": "nftId",
					"type": "uint256"
				},
				{
					"indexed": false,
					"internalType": "bool",
					"name": "active",
					"type": "bool"
				}
			],
			"name": "MemberUpdated",
			"type": "event"
		},
		{
			"anonymous": false,
			"inputs": [
				{
					"indexed": true,
					"internalType": "address",
					"name": "previousOwner",
					"type": "address"
				},
				{
					"indexed": true,
					"internalType": "address",
					"name": "newOwner",
					"type": "address"
				}
			],
			"name": "OwnershipTransferred",
			"type": "event"
		},
		{
			"inputs": [
				{
					"internalType": "uint256",
					"name": "incidentId",
					"type": "uint256"
				},
				{
					"components": [
						{
							"internalType": "address",
							"name": "member",
							"type": "address"
						},
						{
							"internalType": "uint256",
							"name": "timestamp",
							"type": "uint256"
						},
						{
							"internalType": "string",
							"name": "comment",
							"type": "string"
						},
						{
							"internalType": "string[]",
							"name": "mediaURIs",
							"type": "string[]"
						}
					],
					"internalType": "struct PadiTypes.Corroborator",
					"name": "corroborator",
					"type": "tuple"
				}
			],
			"name": "addCorroboratorToIncident",
			"outputs": [],
			"stateMutability": "nonpayable",
			"type": "function"
		},
		{
			"inputs": [
				{
					"components": [
						{
							"internalType": "uint256",
							"name": "id",
							"type": "uint256"
						},
						{
							"internalType": "address",
							"name": "member",
							"type": "address"
						},
						{
							"internalType": "address",
							"name": "lawyer",
							"type": "address"
						},
						{
							"internalType": "string",
							"name": "descriptionMetadata",
							"type": "string"
						},
						{
							"internalType": "uint256",
							"name": "creationDate",
							"type": "uint256"
						},
						{
							"internalType": "uint256",
							"name": "resolutionDate",
							"type": "uint256"
						},
						{
							"internalType": "bool",
							"name": "resolved",
							"type": "bool"
						},
						{
							"internalType": "uint256",
							"name": "rewardAmount",
							"type": "uint256"
						}
					],
					"internalType": "struct PadiTypes.Case",
					"name": "_case",
					"type": "tuple"
				}
			],
			"name": "addOrUpdateCase",
			"outputs": [],
			"stateMutability": "nonpayable",
			"type": "function"
		},
		{
			"inputs": [
				{
					"components": [
						{
							"internalType": "uint256",
							"name": "id",
							"type": "uint256"
						},
						{
							"internalType": "address",
							"name": "reporter",
							"type": "address"
						},
						{
							"internalType": "string",
							"name": "descriptionMetadata",
							"type": "string"
						},
						{
							"internalType": "uint256",
							"name": "timestamp",
							"type": "uint256"
						},
						{
							"internalType": "enum PadiTypes.VerificationStatus",
							"name": "status",
							"type": "uint8"
						},
						{
							"internalType": "address",
							"name": "verifiedBy",
							"type": "address"
						},
						{
							"components": [
								{
									"internalType": "address",
									"name": "member",
									"type": "address"
								},
								{
									"internalType": "uint256",
									"name": "timestamp",
									"type": "uint256"
								},
								{
									"internalType": "string",
									"name": "comment",
									"type": "string"
								},
								{
									"internalType": "string[]",
									"name": "mediaURIs",
									"type": "string[]"
								}
							],
							"internalType": "struct PadiTypes.Corroborator[]",
							"name": "corroborators",
							"type": "tuple[]"
						},
						{
							"internalType": "string[]",
							"name": "mediaURIs",
							"type": "string[]"
						}
					],
					"internalType": "struct PadiTypes.Incident",
					"name": "incident",
					"type": "tuple"
				}
			],
			"name": "addOrUpdateIncident",
			"outputs": [],
			"stateMutability": "nonpayable",
			"type": "function"
		},
		{
			"inputs": [
				{
					"components": [
						{
							"internalType": "address",
							"name": "wallet",
							"type": "address"
						},
						{
							"internalType": "uint256[]",
							"name": "caseIds",
							"type": "uint256[]"
						},
						{
							"internalType": "string",
							"name": "profileURI",
							"type": "string"
						},
						{
							"internalType": "uint256",
							"name": "joinDate",
							"type": "uint256"
						},
						{
							"internalType": "uint256",
							"name": "totalRewards",
							"type": "uint256"
						},
						{
							"internalType": "bool",
							"name": "active",
							"type": "bool"
						}
					],
					"internalType": "struct PadiTypes.Lawyer",
					"name": "lawyer",
					"type": "tuple"
				}
			],
			"name": "addOrUpdateLawyer",
			"outputs": [],
			"stateMutability": "nonpayable",
			"type": "function"
		},
		{
			"inputs": [
				{
					"components": [
						{
							"internalType": "address",
							"name": "wallet",
							"type": "address"
						},
						{
							"internalType": "address",
							"name": "representative",
							"type": "address"
						},
						{
							"internalType": "uint256",
							"name": "nftId",
							"type": "uint256"
						},
						{
							"internalType": "string",
							"name": "metadataURI",
							"type": "string"
						},
						{
							"internalType": "uint256",
							"name": "joinDate",
							"type": "uint256"
						},
						{
							"internalType": "uint256",
							"name": "totalCases",
							"type": "uint256"
						},
						{
							"internalType": "bool",
							"name": "active",
							"type": "bool"
						}
					],
					"internalType": "struct PadiTypes.Member",
					"name": "member",
					"type": "tuple"
				}
			],
			"name": "addOrUpdateMember",
			"outputs": [],
			"stateMutability": "nonpayable",
			"type": "function"
		},
		{
			"inputs": [
				{
					"internalType": "uint256",
					"name": "caseId",
					"type": "uint256"
				}
			],
			"name": "cases",
			"outputs": [
				{
					"components": [
						{
							"internalType": "uint256",
							"name": "id",
							"type": "uint256"
						},
						{
							"internalType": "address",
							"name": "member",
							"type": "address"
						},
						{
							"internalType": "address",
							"name": "lawyer",
							"type": "address"
						},
						{
							"internalType": "string",
							"name": "descriptionMetadata",
							"type": "string"
						},
						{
							"internalType": "uint256",
							"name": "creationDate",
							"type": "uint256"
						},
						{
							"internalType": "uint256",
							"name": "resolutionDate",
							"type": "uint256"
						},
						{
							"internalType": "bool",
							"name": "resolved",
							"type": "bool"
						},
						{
							"internalType": "uint256",
							"name": "rewardAmount",
							"type": "uint256"
						}
					],
					"internalType": "struct PadiTypes.Case",
					"name": "",
					"type": "tuple"
				}
			],
			"stateMutability": "view",
			"type": "function"
		},
		{
			"inputs": [
				{
					"internalType": "uint256",
					"name": "",
					"type": "uint256"
				}
			],
			"name": "casesMap",
			"outputs": [
				{
					"internalType": "uint256",
					"name": "id",
					"type": "uint256"
				},
				{
					"internalType": "address",
					"name": "member",
					"type": "address"
				},
				{
					"internalType": "address",
					"name": "lawyer",
					"type": "address"
				},
				{
					"internalType": "string",
					"name": "descriptionMetadata",
					"type": "string"
				},
				{
					"internalType": "uint256",
					"name": "creationDate",
					"type": "uint256"
				},
				{
					"internalType": "uint256",
					"name": "resolutionDate",
					"type": "uint256"
				},
				{
					"internalType": "bool",
					"name": "resolved",
					"type": "bool"
				},
				{
					"internalType": "uint256",
					"name": "rewardAmount",
					"type": "uint256"
				}
			],
			"stateMutability": "view",
			"type": "function"
		},
		{
			"inputs": [],
			"name": "getAndIncrementCaseId",
			"outputs": [
				{
					"internalType": "uint256",
					"name": "",
					"type": "uint256"
				}
			],
			"stateMutability": "nonpayable",
			"type": "function"
		},
		{
			"inputs": [],
			"name": "getAndIncrementIncidentId",
			"outputs": [
				{
					"internalType": "uint256",
					"name": "",
					"type": "uint256"
				}
			],
			"stateMutability": "nonpayable",
			"type": "function"
		},
		{
			"inputs": [
				{
					"internalType": "address",
					"name": "lawyer",
					"type": "address"
				}
			],
			"name": "getLawyerCases",
			"outputs": [
				{
					"internalType": "uint256[]",
					"name": "open",
					"type": "uint256[]"
				},
				{
					"internalType": "uint256[]",
					"name": "closed",
					"type": "uint256[]"
				}
			],
			"stateMutability": "view",
			"type": "function"
		},
		{
			"inputs": [
				{
					"internalType": "uint256",
					"name": "incidentId",
					"type": "uint256"
				}
			],
			"name": "incidents",
			"outputs": [
				{
					"components": [
						{
							"internalType": "uint256",
							"name": "id",
							"type": "uint256"
						},
						{
							"internalType": "address",
							"name": "reporter",
							"type": "address"
						},
						{
							"internalType": "string",
							"name": "descriptionMetadata",
							"type": "string"
						},
						{
							"internalType": "uint256",
							"name": "timestamp",
							"type": "uint256"
						},
						{
							"internalType": "enum PadiTypes.VerificationStatus",
							"name": "status",
							"type": "uint8"
						},
						{
							"internalType": "address",
							"name": "verifiedBy",
							"type": "address"
						},
						{
							"components": [
								{
									"internalType": "address",
									"name": "member",
									"type": "address"
								},
								{
									"internalType": "uint256",
									"name": "timestamp",
									"type": "uint256"
								},
								{
									"internalType": "string",
									"name": "comment",
									"type": "string"
								},
								{
									"internalType": "string[]",
									"name": "mediaURIs",
									"type": "string[]"
								}
							],
							"internalType": "struct PadiTypes.Corroborator[]",
							"name": "corroborators",
							"type": "tuple[]"
						},
						{
							"internalType": "string[]",
							"name": "mediaURIs",
							"type": "string[]"
						}
					],
					"internalType": "struct PadiTypes.Incident",
					"name": "",
					"type": "tuple"
				}
			],
			"stateMutability": "view",
			"type": "function"
		},
		{
			"inputs": [
				{
					"internalType": "uint256",
					"name": "",
					"type": "uint256"
				}
			],
			"name": "incidentsMap",
			"outputs": [
				{
					"internalType": "uint256",
					"name": "id",
					"type": "uint256"
				},
				{
					"internalType": "address",
					"name": "reporter",
					"type": "address"
				},
				{
					"internalType": "string",
					"name": "descriptionMetadata",
					"type": "string"
				},
				{
					"internalType": "uint256",
					"name": "timestamp",
					"type": "uint256"
				},
				{
					"internalType": "enum PadiTypes.VerificationStatus",
					"name": "status",
					"type": "uint8"
				},
				{
					"internalType": "address",
					"name": "verifiedBy",
					"type": "address"
				}
			],
			"stateMutability": "view",
			"type": "function"
		},
		{
			"inputs": [
				{
					"internalType": "address",
					"name": "_padiProtocol",
					"type": "address"
				}
			],
			"name": "initializeProtocol",
			"outputs": [],
			"stateMutability": "nonpayable",
			"type": "function"
		},
		{
			"inputs": [
				{
					"internalType": "address",
					"name": "user",
					"type": "address"
				}
			],
			"name": "isLawyer",
			"outputs": [
				{
					"internalType": "bool",
					"name": "",
					"type": "bool"
				}
			],
			"stateMutability": "view",
			"type": "function"
		},
		{
			"inputs": [
				{
					"internalType": "address",
					"name": "",
					"type": "address"
				}
			],
			"name": "isLawyerMap",
			"outputs": [
				{
					"internalType": "bool",
					"name": "",
					"type": "bool"
				}
			],
			"stateMutability": "view",
			"type": "function"
		},
		{
			"inputs": [
				{
					"internalType": "address",
					"name": "user",
					"type": "address"
				}
			],
			"name": "isMember",
			"outputs": [
				{
					"internalType": "bool",
					"name": "",
					"type": "bool"
				}
			],
			"stateMutability": "view",
			"type": "function"
		},
		{
			"inputs": [
				{
					"internalType": "address",
					"name": "",
					"type": "address"
				}
			],
			"name": "isMemberMap",
			"outputs": [
				{
					"internalType": "bool",
					"name": "",
					"type": "bool"
				}
			],
			"stateMutability": "view",
			"type": "function"
		},
		{
			"inputs": [
				{
					"internalType": "address",
					"name": "lawyerAddress",
					"type": "address"
				}
			],
			"name": "lawyers",
			"outputs": [
				{
					"components": [
						{
							"internalType": "address",
							"name": "wallet",
							"type": "address"
						},
						{
							"internalType": "uint256[]",
							"name": "caseIds",
							"type": "uint256[]"
						},
						{
							"internalType": "string",
							"name": "profileURI",
							"type": "string"
						},
						{
							"internalType": "uint256",
							"name": "joinDate",
							"type": "uint256"
						},
						{
							"internalType": "uint256",
							"name": "totalRewards",
							"type": "uint256"
						},
						{
							"internalType": "bool",
							"name": "active",
							"type": "bool"
						}
					],
					"internalType": "struct PadiTypes.Lawyer",
					"name": "",
					"type": "tuple"
				}
			],
			"stateMutability": "view",
			"type": "function"
		},
		{
			"inputs": [
				{
					"internalType": "address",
					"name": "",
					"type": "address"
				}
			],
			"name": "lawyersMap",
			"outputs": [
				{
					"internalType": "address",
					"name": "wallet",
					"type": "address"
				},
				{
					"internalType": "string",
					"name": "profileURI",
					"type": "string"
				},
				{
					"internalType": "uint256",
					"name": "joinDate",
					"type": "uint256"
				},
				{
					"internalType": "uint256",
					"name": "totalRewards",
					"type": "uint256"
				},
				{
					"internalType": "bool",
					"name": "active",
					"type": "bool"
				}
			],
			"stateMutability": "view",
			"type": "function"
		},
		{
			"inputs": [
				{
					"internalType": "address",
					"name": "memberAddress",
					"type": "address"
				}
			],
			"name": "members",
			"outputs": [
				{
					"components": [
						{
							"internalType": "address",
							"name": "wallet",
							"type": "address"
						},
						{
							"internalType": "address",
							"name": "representative",
							"type": "address"
						},
						{
							"internalType": "uint256",
							"name": "nftId",
							"type": "uint256"
						},
						{
							"internalType": "string",
							"name": "metadataURI",
							"type": "string"
						},
						{
							"internalType": "uint256",
							"name": "joinDate",
							"type": "uint256"
						},
						{
							"internalType": "uint256",
							"name": "totalCases",
							"type": "uint256"
						},
						{
							"internalType": "bool",
							"name": "active",
							"type": "bool"
						}
					],
					"internalType": "struct PadiTypes.Member",
					"name": "",
					"type": "tuple"
				}
			],
			"stateMutability": "view",
			"type": "function"
		},
		{
			"inputs": [
				{
					"internalType": "address",
					"name": "",
					"type": "address"
				}
			],
			"name": "membersMap",
			"outputs": [
				{
					"internalType": "address",
					"name": "wallet",
					"type": "address"
				},
				{
					"internalType": "address",
					"name": "representative",
					"type": "address"
				},
				{
					"internalType": "uint256",
					"name": "nftId",
					"type": "uint256"
				},
				{
					"internalType": "string",
					"name": "metadataURI",
					"type": "string"
				},
				{
					"internalType": "uint256",
					"name": "joinDate",
					"type": "uint256"
				},
				{
					"internalType": "uint256",
					"name": "totalCases",
					"type": "uint256"
				},
				{
					"internalType": "bool",
					"name": "active",
					"type": "bool"
				}
			],
			"stateMutability": "view",
			"type": "function"
		},
		{
			"inputs": [],
			"name": "nextCaseId",
			"outputs": [
				{
					"internalType": "uint256",
					"name": "",
					"type": "uint256"
				}
			],
			"stateMutability": "view",
			"type": "function"
		},
		{
			"inputs": [],
			"name": "nextIncidentId",
			"outputs": [
				{
					"internalType": "uint256",
					"name": "",
					"type": "uint256"
				}
			],
			"stateMutability": "view",
			"type": "function"
		},
		{
			"inputs": [],
			"name": "nextMemberId",
			"outputs": [
				{
					"internalType": "uint256",
					"name": "",
					"type": "uint256"
				}
			],
			"stateMutability": "view",
			"type": "function"
		},
		{
			"inputs": [],
			"name": "owner",
			"outputs": [
				{
					"internalType": "address",
					"name": "",
					"type": "address"
				}
			],
			"stateMutability": "view",
			"type": "function"
		},
		{
			"inputs": [],
			"name": "padiProtocol",
			"outputs": [
				{
					"internalType": "address",
					"name": "",
					"type": "address"
				}
			],
			"stateMutability": "view",
			"type": "function"
		},
		{
			"inputs": [],
			"name": "renounceOwnership",
			"outputs": [],
			"stateMutability": "nonpayable",
			"type": "function"
		},
		{
			"inputs": [
				{
					"internalType": "address",
					"name": "newOwner",
					"type": "address"
				}
			],
			"name": "transferOwnership",
			"outputs": [],
			"stateMutability": "nonpayable",
			"type": "function"
		}
	]
}