{
	"data": {
		"bytecode": {
			"linkReferences": {},
			"object": "60806040526001600a55348015610014575f80fd5b50604051614a27380380614a278339818101604052810190610036919061032d565b336040518060400160405280600f81526020017f50616469204d656d6265727368697000000000000000000000000000000000008152506040518060400160405280600481526020017f5041444900000000000000000000000000000000000000000000000000000000815250815f90816100b191906105b7565b5080600190816100c191906105b7565b5050505f73ffffffffffffffffffffffffffffffffffffffff168173ffffffffffffffffffffffffffffffffffffffff1603610134575f6040517f1e4fbdf700000000000000000000000000000000000000000000000000000000815260040161012b9190610695565b60405180910390fd5b6101438161020c60201b60201c565b508260075f6101000a81548173ffffffffffffffffffffffffffffffffffffffff021916908373ffffffffffffffffffffffffffffffffffffffff1602179055508160085f6101000a81548173ffffffffffffffffffffffffffffffffffffffff021916908373ffffffffffffffffffffffffffffffffffffffff1602179055508060095f6101000a81548173ffffffffffffffffffffffffffffffffffffffff021916908373ffffffffffffffffffffffffffffffffffffffff1602179055505050506106ae565b5f60065f9054906101000a900473ffffffffffffffffffffffffffffffffffffffff1690508160065f6101000a81548173ffffffffffffffffffffffffffffffffffffffff021916908373ffffffffffffffffffffffffffffffffffffffff1602179055508173ffffffffffffffffffffffffffffffffffffffff168173ffffffffffffffffffffffffffffffffffffffff167f8be0079c531659141344cd1fd0a4f28419497f9722a3daafe3b4186f6b6457e060405160405180910390a35050565b5f80fd5b5f73ffffffffffffffffffffffffffffffffffffffff82169050919050565b5f6102fc826102d3565b9050919050565b61030c816102f2565b8114610316575f80fd5b50565b5f8151905061032781610303565b92915050565b5f805f60608486031215610344576103436102cf565b5b5f61035186828701610319565b935050602061036286828701610319565b925050604061037386828701610319565b9150509250925092565b5f81519050919050565b7f4e487b71000000000000000000000000000000000000000000000000000000005f52604160045260245ffd5b7f4e487b71000000000000000000000000000000000000000000000000000000005f52602260045260245ffd5b5f60028204905060018216806103f857607f821691505b60208210810361040b5761040a6103b4565b5b50919050565b5f819050815f5260205f209050919050565b5f6020601f8301049050919050565b5f82821b905092915050565b5f6008830261046d7fffffffffffffffffffffffffffffffffffffffffffffffffffffffffffffffff82610432565b6104778683610432565b95508019841693508086168417925050509392505050565b5f819050919050565b5f819050919050565b5f6104bb6104b66104b18461048f565b610498565b61048f565b9050919050565b5f819050919050565b6104d4836104a1565b6104e86104e0826104c2565b84845461043e565b825550505050565b5f90565b6104fc6104f0565b6105078184846104cb565b505050565b5b8181101561052a5761051f5f826104f4565b60018101905061050d565b5050565b601f82111561056f5761054081610411565b61054984610423565b81016020851015610558578190505b61056c61056485610423565b83018261050c565b50505b505050565b5f82821c905092915050565b5f61058f5f1984600802610574565b1980831691505092915050565b5f6105a78383610580565b9150826002028217905092915050565b6105c08261037d565b67ffffffffffffffff8111156105d9576105d8610387565b5b6105e382546103e1565b6105ee82828561052e565b5f60209050601f83116001811461061f575f841561060d578287015190505b610617858261059c565b86555061067e565b601f19841661062d86610411565b5f5b828110156106545784890151825560018201915060208501945060208101905061062f565b86831015610671578489015161066d601f891682610580565b8355505b6001600288020188555050505b505050505050565b61068f816102f2565b82525050565b5f6020820190506106a85f830184610686565b92915050565b61436c806106bb5f395ff3fe608060405234801561000f575f80fd5b50600436106101a7575f3560e01c8063715018a6116100f7578063c02b2dd611610095578063e1a9abf11161006f578063e1a9abf11461048d578063e985e9c5146104bd578063edd501fa146104ed578063f2fde38b1461051d576101a7565b8063c02b2dd614610425578063c87b56dd14610441578063ca259ed214610471576101a7565b806395d89b41116100d157806395d89b41146103b157806399bb9350146103cf578063a22cb465146103ed578063b88d4fde14610409576101a7565b8063715018a61461036d5780638baa5d8b146103775780638da5cb5b14610393576101a7565b80633013ce291161016457806342842e0e1161013e57806342842e0e146102d55780636352211e146102f15780636a326ab11461032157806370a082311461033d576101a7565b80633013ce291461027f5780633d3bd4881461029d5780634158c1b5146102b9576101a7565b806301ffc9a7146101ab57806306fdde03146101db578063081812fc146101f9578063095ea7b31461022957806311ce02671461024557806323b872dd14610263575b5f80fd5b6101c560048036038101906101c09190612c94565b610539565b6040516101d29190612cd9565b60405180910390f35b6101e361061a565b6040516101f09190612d62565b60405180910390f35b610213600480360381019061020e9190612db5565b6106a9565b6040516102209190612e1f565b60405180910390f35b610243600480360381019061023e9190612e62565b6106c4565b005b61024d6106da565b60405161025a9190612efb565b60405180910390f35b61027d60048036038101906102789190612f14565b6106ff565b005b6102876107fe565b6040516102949190612f84565b60405180910390f35b6102b760048036038101906102b29190612db5565b610823565b005b6102d360048036038101906102ce9190612f9d565b610e7f565b005b6102ef60048036038101906102ea9190612f14565b611090565b005b61030b60048036038101906103069190612db5565b6110af565b6040516103189190612e1f565b60405180910390f35b61033b60048036038101906103369190612fdb565b6110c0565b005b61035760048036038101906103529190612fdb565b61110b565b6040516103649190613015565b60405180910390f35b6103756111c1565b005b610391600480360381019061038c919061308f565b6111d4565b005b61039b6113e7565b6040516103a89190612e1f565b60405180910390f35b6103b961140f565b6040516103c69190612d62565b60405180910390f35b6103d761149f565b6040516103e49190612e1f565b60405180910390f35b6104076004803603810190610402919061312a565b6114c4565b005b610423600480360381019061041e9190613290565b6114da565b005b61043f600480360381019061043a919061308f565b6114ff565b005b61045b60048036038101906104569190612db5565b611814565b6040516104689190612d62565b60405180910390f35b61048b60048036038101906104869190613310565b61187a565b005b6104a760048036038101906104a29190612fdb565b6119e3565b6040516104b49190613424565b60405180910390f35b6104d760048036038101906104d29190612f9d565b611a8e565b6040516104e49190612cd9565b60405180910390f35b61050760048036038101906105029190612fdb565b611b1c565b6040516105149190612e1f565b60405180910390f35b61053760048036038101906105329190612fdb565b611bc4565b005b5f7f80ac58cd000000000000000000000000000000000000000000000000000000007bffffffffffffffffffffffffffffffffffffffffffffffffffffffff1916827bffffffffffffffffffffffffffffffffffffffffffffffffffffffff1916148061060357507f5b5e139f000000000000000000000000000000000000000000000000000000007bffffffffffffffffffffffffffffffffffffffffffffffffffffffff1916827bffffffffffffffffffffffffffffffffffffffffffffffffffffffff1916145b80610613575061061282611c48565b5b9050919050565b60605f805461062890613471565b80601f016020809104026020016040519081016040528092919081815260200182805461065490613471565b801561069f5780601f106106765761010080835404028352916020019161069f565b820191905f5260205f20905b81548152906001019060200180831161068257829003601f168201915b5050505050905090565b5f6106b382611cb1565b506106bd82611d37565b9050919050565b6106d682826106d1611d70565b611d77565b5050565b60075f9054906101000a900473ffffffffffffffffffffffffffffffffffffffff1681565b5f73ffffffffffffffffffffffffffffffffffffffff168273ffffffffffffffffffffffffffffffffffffffff160361076f575f6040517f64a0ae920000000000000000000000000000000000000000000000000000000081526004016107669190612e1f565b60405180910390fd5b5f610782838361077d611d70565b611d89565b90508373ffffffffffffffffffffffffffffffffffffffff168173ffffffffffffffffffffffffffffffffffffffff16146107f8578382826040517f64283d7b0000000000000000000000000000000000000000000000000000000081526004016107ef939291906134a1565b60405180910390fd5b50505050565b60085f9054906101000a900473ffffffffffffffffffffffffffffffffffffffff1681565b3360075f9054906101000a900473ffffffffffffffffffffffffffffffffffffffff1673ffffffffffffffffffffffffffffffffffffffff16635939a84e826040518263ffffffff1660e01b815260040161087e9190612e1f565b602060405180830381865afa158015610899573d5f803e3d5ffd5b505050506040513d601f19601f820116820180604052508101906108bd91906134ea565b6108fc576040517f08c379a00000000000000000000000000000000000000000000000000000000081526004016108f39061355f565b60405180910390fd5b5f60075f9054906101000a900473ffffffffffffffffffffffffffffffffffffffff1673ffffffffffffffffffffffffffffffffffffffff1663554ae567836040518263ffffffff1660e01b81526004016109579190612e1f565b5f60405180830381865afa158015610971573d5f803e3d5ffd5b505050506040513d5f823e3d601f19601f8201168201806040525081019061099991906137e0565b90508060a001516109df576040517f08c379a00000000000000000000000000000000000000000000000000000000081526004016109d690613871565b60405180910390fd5b5f60075f9054906101000a900473ffffffffffffffffffffffffffffffffffffffff1673ffffffffffffffffffffffffffffffffffffffff1663f09790dd856040518263ffffffff1660e01b8152600401610a3a9190613015565b5f60405180830381865afa158015610a54573d5f803e3d5ffd5b505050506040513d5f823e3d601f19601f82011682018060405250810190610a7c9190613972565b90503373ffffffffffffffffffffffffffffffffffffffff16816040015173ffffffffffffffffffffffffffffffffffffffff1614610af0576040517f08c379a0000000000000000000000000000000000000000000000000000000008152600401610ae790613a03565b60405180910390fd5b8060c0015115610b35576040517f08c379a0000000000000000000000000000000000000000000000000000000008152600401610b2c90613a6b565b60405180910390fd5b60018160c0019015159081151581525050428160a001818152505060075f9054906101000a900473ffffffffffffffffffffffffffffffffffffffff1673ffffffffffffffffffffffffffffffffffffffff1663f47be477826040518263ffffffff1660e01b8152600401610baa9190613b9c565b5f604051808303815f87803b158015610bc1575f80fd5b505af1158015610bd3573d5f803e3d5ffd5b505050505f60075f9054906101000a900473ffffffffffffffffffffffffffffffffffffffff1673ffffffffffffffffffffffffffffffffffffffff1663554ae567336040518263ffffffff1660e01b8152600401610c329190612e1f565b5f60405180830381865afa158015610c4c573d5f803e3d5ffd5b505050506040513d5f823e3d601f19601f82011682018060405250810190610c7491906137e0565b90505f816020015190505f60018251610c8d9190613be9565b67ffffffffffffffff811115610ca657610ca561316c565b5b604051908082528060200260200182016040528015610cd45781602001602082028036833780820191505090505b5090505f805b8351811015610d5057838181518110610cf657610cf5613c1c565b5b6020026020010151838281518110610d1157610d10613c1c565b5b60200260200101818152505088848281518110610d3157610d30613c1c565b5b602002602001015103610d4357600191505b8080600101915050610cda565b5080610d78578782845181518110610d6b57610d6a613c1c565b5b6020026020010181815250505b8184602001819052508460e0015184608001818151610d979190613be9565b9150818152505060075f9054906101000a900473ffffffffffffffffffffffffffffffffffffffff1673ffffffffffffffffffffffffffffffffffffffff166384500001856040518263ffffffff1660e01b8152600401610df89190613d42565b5f604051808303815f87803b158015610e0f575f80fd5b505af1158015610e21573d5f803e3d5ffd5b50505050610e75338660e0015160085f9054906101000a900473ffffffffffffffffffffffffffffffffffffffff1673ffffffffffffffffffffffffffffffffffffffff16611f949092919063ffffffff16565b5050505050505050565b818073ffffffffffffffffffffffffffffffffffffffff163373ffffffffffffffffffffffffffffffffffffffff161480610eed5750610ebe81611b1c565b73ffffffffffffffffffffffffffffffffffffffff163373ffffffffffffffffffffffffffffffffffffffff16145b610f2c576040517f08c379a0000000000000000000000000000000000000000000000000000000008152600401610f2390613dd2565b60405180910390fd5b5f60075f9054906101000a900473ffffffffffffffffffffffffffffffffffffffff1673ffffffffffffffffffffffffffffffffffffffff166308ae4b0c856040518263ffffffff1660e01b8152600401610f879190612e1f565b5f60405180830381865afa158015610fa1573d5f803e3d5ffd5b505050506040513d5f823e3d601f19601f82011682018060405250810190610fc99190613ebd565b905082816020019073ffffffffffffffffffffffffffffffffffffffff16908173ffffffffffffffffffffffffffffffffffffffff168152505060075f9054906101000a900473ffffffffffffffffffffffffffffffffffffffff1673ffffffffffffffffffffffffffffffffffffffff1663af947d05826040518263ffffffff1660e01b815260040161105d9190613f9d565b5f604051808303815f87803b158015611074575f80fd5b505af1158015611086573d5f803e3d5ffd5b5050505050505050565b6110aa83838360405180602001604052805f8152506114da565b505050565b5f6110b982611cb1565b9050919050565b6110c8612013565b8060085f6101000a81548173ffffffffffffffffffffffffffffffffffffffff021916908373ffffffffffffffffffffffffffffffffffffffff16021790555050565b5f8073ffffffffffffffffffffffffffffffffffffffff168273ffffffffffffffffffffffffffffffffffffffff160361117c575f6040517f89c62b640000000000000000000000000000000000000000000000000000000081526004016111739190612e1f565b60405180910390fd5b60035f8373ffffffffffffffffffffffffffffffffffffffff1673ffffffffffffffffffffffffffffffffffffffff1681526020019081526020015f20549050919050565b6111c9612013565b6111d25f61209a565b565b5f6111de8561110b565b1461121e576040517f08c379a000000000000000000000000000000000000000000000000000000000815260040161121590614007565b60405180910390fd5b61128d3360095f9054906101000a900473ffffffffffffffffffffffffffffffffffffffff168360085f9054906101000a900473ffffffffffffffffffffffffffffffffffffffff1673ffffffffffffffffffffffffffffffffffffffff1661215d909392919063ffffffff16565b5f600a5f8154809291906112a090614025565b9190505590506112b085826121df565b5f6040518060e001604052808773ffffffffffffffffffffffffffffffffffffffff1681526020015f73ffffffffffffffffffffffffffffffffffffffff16815260200183815260200186868080601f0160208091040260200160405190810160405280939291908181526020018383808284375f81840152601f19601f8201169050808301925050505050505081526020014281526020015f815260200160011515815250905060075f9054906101000a900473ffffffffffffffffffffffffffffffffffffffff1673ffffffffffffffffffffffffffffffffffffffff1663af947d05826040518263ffffffff1660e01b81526004016113b29190613f9d565b5f604051808303815f87803b1580156113c9575f80fd5b505af11580156113db573d5f803e3d5ffd5b50505050505050505050565b5f60065f9054906101000a900473ffffffffffffffffffffffffffffffffffffffff16905090565b60606001805461141e90613471565b80601f016020809104026020016040519081016040528092919081815260200182805461144a90613471565b80156114955780601f1061146c57610100808354040283529160200191611495565b820191905f5260205f20905b81548152906001019060200180831161147857829003601f168201915b5050505050905090565b60095f9054906101000a900473ffffffffffffffffffffffffffffffffffffffff1681565b6114d66114cf611d70565b83836122d2565b5050565b6114e58484846106ff565b6114f96114f0611d70565b8585858561243b565b50505050565b338073ffffffffffffffffffffffffffffffffffffffff163373ffffffffffffffffffffffffffffffffffffffff16148061156d575061153e81611b1c565b73ffffffffffffffffffffffffffffffffffffffff163373ffffffffffffffffffffffffffffffffffffffff16145b6115ac576040517f08c379a00000000000000000000000000000000000000000000000000000000081526004016115a390613dd2565b60405180910390fd5b5f6115b63361110b565b116115f6576040517f08c379a00000000000000000000000000000000000000000000000000000000081526004016115ed906140b6565b60405180910390fd5b5f60075f9054906101000a900473ffffffffffffffffffffffffffffffffffffffff1673ffffffffffffffffffffffffffffffffffffffff166384dc08066040518163ffffffff1660e01b81526004016020604051808303815f875af1158015611662573d5f803e3d5ffd5b505050506040513d601f19601f8201168201806040525081019061168691906140d4565b90505f6040518061010001604052808381526020013373ffffffffffffffffffffffffffffffffffffffff1681526020018873ffffffffffffffffffffffffffffffffffffffff16815260200187878080601f0160208091040260200160405190810160405280939291908181526020018383808284375f81840152601f19601f8201169050808301925050505050505081526020014281526020015f81526020015f1515815260200185815250905060075f9054906101000a900473ffffffffffffffffffffffffffffffffffffffff1673ffffffffffffffffffffffffffffffffffffffff1663f47be477826040518263ffffffff1660e01b81526004016117909190613b9c565b5f604051808303815f87803b1580156117a7575f80fd5b505af11580156117b9573d5f803e3d5ffd5b5050505061180b33308660085f9054906101000a900473ffffffffffffffffffffffffffffffffffffffff1673ffffffffffffffffffffffffffffffffffffffff1661215d909392919063ffffffff16565b50505050505050565b606061181f82611cb1565b505f6118296125e7565b90505f8151116118475760405180602001604052805f815250611872565b80611851846125fd565b604051602001611862929190614139565b6040516020818303038152906040525b915050919050565b611882612013565b5f6040518060c001604052808573ffffffffffffffffffffffffffffffffffffffff1681526020015f67ffffffffffffffff8111156118c4576118c361316c565b5b6040519080825280602002602001820160405280156118f25781602001602082028036833780820191505090505b50815260200184848080601f0160208091040260200160405190810160405280939291908181526020018383808284375f81840152601f19601f8201169050808301925050505050505081526020014281526020015f815260200160011515815250905060075f9054906101000a900473ffffffffffffffffffffffffffffffffffffffff1673ffffffffffffffffffffffffffffffffffffffff166384500001826040518263ffffffff1660e01b81526004016119b09190613d42565b5f604051808303815f87803b1580156119c7575f80fd5b505af11580156119d9573d5f803e3d5ffd5b5050505050505050565b60605f60075f9054906101000a900473ffffffffffffffffffffffffffffffffffffffff1673ffffffffffffffffffffffffffffffffffffffff16638bfeffe5846040518263ffffffff1660e01b8152600401611a409190612e1f565b5f60405180830381865afa158015611a5a573d5f803e3d5ffd5b505050506040513d5f823e3d601f19601f82011682018060405250810190611a82919061415c565b50905080915050919050565b5f60055f8473ffffffffffffffffffffffffffffffffffffffff1673ffffffffffffffffffffffffffffffffffffffff1681526020019081526020015f205f8373ffffffffffffffffffffffffffffffffffffffff1673ffffffffffffffffffffffffffffffffffffffff1681526020019081526020015f205f9054906101000a900460ff16905092915050565b5f60075f9054906101000a900473ffffffffffffffffffffffffffffffffffffffff1673ffffffffffffffffffffffffffffffffffffffff166308ae4b0c836040518263ffffffff1660e01b8152600401611b779190612e1f565b5f60405180830381865afa158015611b91573d5f803e3d5ffd5b505050506040513d5f823e3d601f19601f82011682018060405250810190611bb99190613ebd565b602001519050919050565b611bcc612013565b5f73ffffffffffffffffffffffffffffffffffffffff168173ffffffffffffffffffffffffffffffffffffffff1603611c3c575f6040517f1e4fbdf7000000000000000000000000000000000000000000000000000000008152600401611c339190612e1f565b60405180910390fd5b611c458161209a565b50565b5f7f01ffc9a7000000000000000000000000000000000000000000000000000000007bffffffffffffffffffffffffffffffffffffffffffffffffffffffff1916827bffffffffffffffffffffffffffffffffffffffffffffffffffffffff1916149050919050565b5f80611cbc836126c7565b90505f73ffffffffffffffffffffffffffffffffffffffff168173ffffffffffffffffffffffffffffffffffffffff1603611d2e57826040517f7e273289000000000000000000000000000000000000000000000000000000008152600401611d259190613015565b60405180910390fd5b80915050919050565b5f60045f8381526020019081526020015f205f9054906101000a900473ffffffffffffffffffffffffffffffffffffffff169050919050565b5f33905090565b611d848383836001612700565b505050565b5f80611d94846126c7565b90505f73ffffffffffffffffffffffffffffffffffffffff168373ffffffffffffffffffffffffffffffffffffffff1614611dd557611dd48184866128bf565b5b5f73ffffffffffffffffffffffffffffffffffffffff168173ffffffffffffffffffffffffffffffffffffffff1614611e6057611e145f855f80612700565b600160035f8373ffffffffffffffffffffffffffffffffffffffff1673ffffffffffffffffffffffffffffffffffffffff1681526020019081526020015f205f82825403925050819055505b5f73ffffffffffffffffffffffffffffffffffffffff168573ffffffffffffffffffffffffffffffffffffffff1614611edf57600160035f8773ffffffffffffffffffffffffffffffffffffffff1673ffffffffffffffffffffffffffffffffffffffff1681526020019081526020015f205f82825401925050819055505b8460025f8681526020019081526020015f205f6101000a81548173ffffffffffffffffffffffffffffffffffffffff021916908373ffffffffffffffffffffffffffffffffffffffff160217905550838573ffffffffffffffffffffffffffffffffffffffff168273ffffffffffffffffffffffffffffffffffffffff167fddf252ad1be2c89b69c2b068fc378daa952ba7f163c4a11628f55a4df523b3ef60405160405180910390a4809150509392505050565b61200e838473ffffffffffffffffffffffffffffffffffffffff1663a9059cbb8585604051602401611fc79291906141d2565b604051602081830303815290604052915060e01b6020820180517bffffffffffffffffffffffffffffffffffffffffffffffffffffffff8381831617835250505050612982565b505050565b61201b611d70565b73ffffffffffffffffffffffffffffffffffffffff166120396113e7565b73ffffffffffffffffffffffffffffffffffffffff16146120985761205c611d70565b6040517f118cdaa700000000000000000000000000000000000000000000000000000000815260040161208f9190612e1f565b60405180910390fd5b565b5f60065f9054906101000a900473ffffffffffffffffffffffffffffffffffffffff1690508160065f6101000a81548173ffffffffffffffffffffffffffffffffffffffff021916908373ffffffffffffffffffffffffffffffffffffffff1602179055508173ffffffffffffffffffffffffffffffffffffffff168173ffffffffffffffffffffffffffffffffffffffff167f8be0079c531659141344cd1fd0a4f28419497f9722a3daafe3b4186f6b6457e060405160405180910390a35050565b6121d9848573ffffffffffffffffffffffffffffffffffffffff166323b872dd868686604051602401612192939291906141f9565b604051602081830303815290604052915060e01b6020820180517bffffffffffffffffffffffffffffffffffffffffffffffffffffffff8381831617835250505050612982565b50505050565b5f73ffffffffffffffffffffffffffffffffffffffff168273ffffffffffffffffffffffffffffffffffffffff160361224f575f6040517f64a0ae920000000000000000000000000000000000000000000000000000000081526004016122469190612e1f565b60405180910390fd5b5f61225b83835f611d89565b90505f73ffffffffffffffffffffffffffffffffffffffff168173ffffffffffffffffffffffffffffffffffffffff16146122cd575f6040517f73c6ac6e0000000000000000000000000000000000000000000000000000000081526004016122c49190612e1f565b60405180910390fd5b505050565b5f73ffffffffffffffffffffffffffffffffffffffff168273ffffffffffffffffffffffffffffffffffffffff160361234257816040517f5b08ba180000000000000000000000000000000000000000000000000000000081526004016123399190612e1f565b60405180910390fd5b8060055f8573ffffffffffffffffffffffffffffffffffffffff1673ffffffffffffffffffffffffffffffffffffffff1681526020019081526020015f205f8473ffffffffffffffffffffffffffffffffffffffff1673ffffffffffffffffffffffffffffffffffffffff1681526020019081526020015f205f6101000a81548160ff0219169083151502179055508173ffffffffffffffffffffffffffffffffffffffff168373ffffffffffffffffffffffffffffffffffffffff167f17307eab39ab6107e8899845ad3d59bd9653f200f220920489ca2b5937696c318360405161242e9190612cd9565b60405180910390a3505050565b5f8373ffffffffffffffffffffffffffffffffffffffff163b11156125e0578273ffffffffffffffffffffffffffffffffffffffff1663150b7a02868685856040518563ffffffff1660e01b81526004016124999493929190614280565b6020604051808303815f875af19250505080156124d457506040513d601f19601f820116820180604052508101906124d191906142de565b60015b612555573d805f8114612502576040519150601f19603f3d011682016040523d82523d5f602084013e612507565b606091505b505f81510361254d57836040517f64a0ae920000000000000000000000000000000000000000000000000000000081526004016125449190612e1f565b60405180910390fd5b805181602001fd5b63150b7a0260e01b7bffffffffffffffffffffffffffffffffffffffffffffffffffffffff1916817bffffffffffffffffffffffffffffffffffffffffffffffffffffffff1916146125de57836040517f64a0ae920000000000000000000000000000000000000000000000000000000081526004016125d59190612e1f565b60405180910390fd5b505b5050505050565b606060405180602001604052805f815250905090565b60605f600161260b84612a1d565b0190505f8167ffffffffffffffff8111156126295761262861316c565b5b6040519080825280601f01601f19166020018201604052801561265b5781602001600182028036833780820191505090505b5090505f82602001820190505b6001156126bc578080600190039150507f3031323334353637383961626364656600000000000000000000000000000000600a86061a8153600a85816126b1576126b0614309565b5b0494505f8503612668575b819350505050919050565b5f60025f8381526020019081526020015f205f9054906101000a900473ffffffffffffffffffffffffffffffffffffffff169050919050565b808061273857505f73ffffffffffffffffffffffffffffffffffffffff168273ffffffffffffffffffffffffffffffffffffffff1614155b1561286a575f61274784611cb1565b90505f73ffffffffffffffffffffffffffffffffffffffff168373ffffffffffffffffffffffffffffffffffffffff16141580156127b157508273ffffffffffffffffffffffffffffffffffffffff168173ffffffffffffffffffffffffffffffffffffffff1614155b80156127c457506127c28184611a8e565b155b1561280657826040517fa9fbf51f0000000000000000000000000000000000000000000000000000000081526004016127fd9190612e1f565b60405180910390fd5b811561286857838573ffffffffffffffffffffffffffffffffffffffff168273ffffffffffffffffffffffffffffffffffffffff167f8c5be1e5ebec7d5bd14f71427d1e84f3dd0314c0f7b2291e5b200ac8c7c3b92560405160405180910390a45b505b8360045f8581526020019081526020015f205f6101000a81548173ffffffffffffffffffffffffffffffffffffffff021916908373ffffffffffffffffffffffffffffffffffffffff16021790555050505050565b6128ca838383612b6e565b61297d575f73ffffffffffffffffffffffffffffffffffffffff168373ffffffffffffffffffffffffffffffffffffffff160361293e57806040517f7e2732890000000000000000000000000000000000000000000000000000000081526004016129359190613015565b60405180910390fd5b81816040517f177e802f0000000000000000000000000000000000000000000000000000000081526004016129749291906141d2565b60405180910390fd5b505050565b5f8060205f8451602086015f885af1806129a1576040513d5f823e3d81fd5b3d92505f519150505f82146129ba5760018114156129d5565b5f8473ffffffffffffffffffffffffffffffffffffffff163b145b15612a1757836040517f5274afe7000000000000000000000000000000000000000000000000000000008152600401612a0e9190612e1f565b60405180910390fd5b50505050565b5f805f90507a184f03e93ff9f4daa797ed6e38ed64bf6a1f0100000000000000008310612a79577a184f03e93ff9f4daa797ed6e38ed64bf6a1f0100000000000000008381612a6f57612a6e614309565b5b0492506040810190505b6d04ee2d6d415b85acef81000000008310612ab6576d04ee2d6d415b85acef81000000008381612aac57612aab614309565b5b0492506020810190505b662386f26fc100008310612ae557662386f26fc100008381612adb57612ada614309565b5b0492506010810190505b6305f5e1008310612b0e576305f5e1008381612b0457612b03614309565b5b0492506008810190505b6127108310612b33576127108381612b2957612b28614309565b5b0492506004810190505b60648310612b565760648381612b4c57612b4b614309565b5b0492506002810190505b600a8310612b65576001810190505b80915050919050565b5f8073ffffffffffffffffffffffffffffffffffffffff168373ffffffffffffffffffffffffffffffffffffffff1614158015612c2557508273ffffffffffffffffffffffffffffffffffffffff168473ffffffffffffffffffffffffffffffffffffffff161480612be65750612be58484611a8e565b5b80612c2457508273ffffffffffffffffffffffffffffffffffffffff16612c0c83611d37565b73ffffffffffffffffffffffffffffffffffffffff16145b5b90509392505050565b5f604051905090565b5f80fd5b5f80fd5b5f7fffffffff0000000000000000000000000000000000000000000000000000000082169050919050565b612c7381612c3f565b8114612c7d575f80fd5b50565b5f81359050612c8e81612c6a565b92915050565b5f60208284031215612ca957612ca8612c37565b5b5f612cb684828501612c80565b91505092915050565b5f8115159050919050565b612cd381612cbf565b82525050565b5f602082019050612cec5f830184612cca565b92915050565b5f81519050919050565b5f82825260208201905092915050565b8281835e5f83830152505050565b5f601f19601f8301169050919050565b5f612d3482612cf2565b612d3e8185612cfc565b9350612d4e818560208601612d0c565b612d5781612d1a565b840191505092915050565b5f6020820190508181035f830152612d7a8184612d2a565b905092915050565b5f819050919050565b612d9481612d82565b8114612d9e575f80fd5b50565b5f81359050612daf81612d8b565b92915050565b5f60208284031215612dca57612dc9612c37565b5b5f612dd784828501612da1565b91505092915050565b5f73ffffffffffffffffffffffffffffffffffffffff82169050919050565b5f612e0982612de0565b9050919050565b612e1981612dff565b82525050565b5f602082019050612e325f830184612e10565b92915050565b612e4181612dff565b8114612e4b575f80fd5b50565b5f81359050612e5c81612e38565b92915050565b5f8060408385031215612e7857612e77612c37565b5b5f612e8585828601612e4e565b9250506020612e9685828601612da1565b9150509250929050565b5f819050919050565b5f612ec3612ebe612eb984612de0565b612ea0565b612de0565b9050919050565b5f612ed482612ea9565b9050919050565b5f612ee582612eca565b9050919050565b612ef581612edb565b82525050565b5f602082019050612f0e5f830184612eec565b92915050565b5f805f60608486031215612f2b57612f2a612c37565b5b5f612f3886828701612e4e565b9350506020612f4986828701612e4e565b9250506040612f5a86828701612da1565b9150509250925092565b5f612f6e82612eca565b9050919050565b612f7e81612f64565b82525050565b5f602082019050612f975f830184612f75565b92915050565b5f8060408385031215612fb357612fb2612c37565b5b5f612fc085828601612e4e565b9250506020612fd185828601612e4e565b9150509250929050565b5f60208284031215612ff057612fef612c37565b5b5f612ffd84828501612e4e565b91505092915050565b61300f81612d82565b82525050565b5f6020820190506130285f830184613006565b92915050565b5f80fd5b5f80fd5b5f80fd5b5f8083601f84011261304f5761304e61302e565b5b8235905067ffffffffffffffff81111561306c5761306b613032565b5b60208301915083600182028301111561308857613087613036565b5b9250929050565b5f805f80606085870312156130a7576130a6612c37565b5b5f6130b487828801612e4e565b945050602085013567ffffffffffffffff8111156130d5576130d4612c3b565b5b6130e18782880161303a565b935093505060406130f487828801612da1565b91505092959194509250565b61310981612cbf565b8114613113575f80fd5b50565b5f8135905061312481613100565b92915050565b5f80604083850312156131405761313f612c37565b5b5f61314d85828601612e4e565b925050602061315e85828601613116565b9150509250929050565b5f80fd5b7f4e487b71000000000000000000000000000000000000000000000000000000005f52604160045260245ffd5b6131a282612d1a565b810181811067ffffffffffffffff821117156131c1576131c061316c565b5b80604052505050565b5f6131d3612c2e565b90506131df8282613199565b919050565b5f67ffffffffffffffff8211156131fe576131fd61316c565b5b61320782612d1a565b9050602081019050919050565b828183375f83830152505050565b5f61323461322f846131e4565b6131ca565b9050828152602081018484840111156132505761324f613168565b5b61325b848285613214565b509392505050565b5f82601f8301126132775761327661302e565b5b8135613287848260208601613222565b91505092915050565b5f805f80608085870312156132a8576132a7612c37565b5b5f6132b587828801612e4e565b94505060206132c687828801612e4e565b93505060406132d787828801612da1565b925050606085013567ffffffffffffffff8111156132f8576132f7612c3b565b5b61330487828801613263565b91505092959194509250565b5f805f6040848603121561332757613326612c37565b5b5f61333486828701612e4e565b935050602084013567ffffffffffffffff81111561335557613354612c3b565b5b6133618682870161303a565b92509250509250925092565b5f81519050919050565b5f82825260208201905092915050565b5f819050602082019050919050565b61339f81612d82565b82525050565b5f6133b08383613396565b60208301905092915050565b5f602082019050919050565b5f6133d28261336d565b6133dc8185613377565b93506133e783613387565b805f5b838110156134175781516133fe88826133a5565b9750613409836133bc565b9250506001810190506133ea565b5085935050505092915050565b5f6020820190508181035f83015261343c81846133c8565b905092915050565b7f4e487b71000000000000000000000000000000000000000000000000000000005f52602260045260245ffd5b5f600282049050600182168061348857607f821691505b60208210810361349b5761349a613444565b5b50919050565b5f6060820190506134b45f830186612e10565b6134c16020830185613006565b6134ce6040830184612e10565b949350505050565b5f815190506134e481613100565b92915050565b5f602082840312156134ff576134fe612c37565b5b5f61350c848285016134d6565b91505092915050565b7f4e6f742072656769737465726564206c617779657200000000000000000000005f82015250565b5f613549601583612cfc565b915061355482613515565b602082019050919050565b5f6020820190508181035f8301526135768161353d565b9050919050565b5f80fd5b5f80fd5b5f8151905061359381612e38565b92915050565b5f67ffffffffffffffff8211156135b3576135b261316c565b5b602082029050602081019050919050565b5f815190506135d281612d8b565b92915050565b5f6135ea6135e584613599565b6131ca565b9050808382526020820190506020840283018581111561360d5761360c613036565b5b835b81811015613636578061362288826135c4565b84526020840193505060208101905061360f565b5050509392505050565b5f82601f8301126136545761365361302e565b5b81516136648482602086016135d8565b91505092915050565b5f67ffffffffffffffff8211156136875761368661316c565b5b61369082612d1a565b9050602081019050919050565b5f6136af6136aa8461366d565b6131ca565b9050828152602081018484840111156136cb576136ca613168565b5b6136d6848285612d0c565b509392505050565b5f82601f8301126136f2576136f161302e565b5b815161370284826020860161369d565b91505092915050565b5f60c082840312156137205761371f61357d565b5b61372a60c06131ca565b90505f61373984828501613585565b5f83015250602082015167ffffffffffffffff81111561375c5761375b613581565b5b61376884828501613640565b602083015250604082015167ffffffffffffffff81111561378c5761378b613581565b5b613798848285016136de565b60408301525060606137ac848285016135c4565b60608301525060806137c0848285016135c4565b60808301525060a06137d4848285016134d6565b60a08301525092915050565b5f602082840312156137f5576137f4612c37565b5b5f82015167ffffffffffffffff81111561381257613811612c3b565b5b61381e8482850161370b565b91505092915050565b7f4c617779657220696e61637469766500000000000000000000000000000000005f82015250565b5f61385b600f83612cfc565b915061386682613827565b602082019050919050565b5f6020820190508181035f8301526138888161384f565b9050919050565b5f61010082840312156138a5576138a461357d565b5b6138b06101006131ca565b90505f6138bf848285016135c4565b5f8301525060206138d284828501613585565b60208301525060406138e684828501613585565b604083015250606082015167ffffffffffffffff81111561390a57613909613581565b5b613916848285016136de565b606083015250608061392a848285016135c4565b60808301525060a061393e848285016135c4565b60a08301525060c0613952848285016134d6565b60c08301525060e0613966848285016135c4565b60e08301525092915050565b5f6020828403121561398757613986612c37565b5b5f82015167ffffffffffffffff8111156139a4576139a3612c3b565b5b6139b08482850161388f565b91505092915050565b7f43617365206e6f742061737369676e656420746f206c617779657200000000005f82015250565b5f6139ed601b83612cfc565b91506139f8826139b9565b602082019050919050565b5f6020820190508181035f830152613a1a816139e1565b9050919050565b7f4361736520616c7265616479207265736f6c76656400000000000000000000005f82015250565b5f613a55601583612cfc565b9150613a6082613a21565b602082019050919050565b5f6020820190508181035f830152613a8281613a49565b9050919050565b613a9281612dff565b82525050565b5f82825260208201905092915050565b5f613ab282612cf2565b613abc8185613a98565b9350613acc818560208601612d0c565b613ad581612d1a565b840191505092915050565b613ae981612cbf565b82525050565b5f61010083015f830151613b055f860182613396565b506020830151613b186020860182613a89565b506040830151613b2b6040860182613a89565b5060608301518482036060860152613b438282613aa8565b9150506080830151613b586080860182613396565b5060a0830151613b6b60a0860182613396565b5060c0830151613b7e60c0860182613ae0565b5060e0830151613b9160e0860182613396565b508091505092915050565b5f6020820190508181035f830152613bb48184613aef565b905092915050565b7f4e487b71000000000000000000000000000000000000000000000000000000005f52601160045260245ffd5b5f613bf382612d82565b9150613bfe83612d82565b9250828201905080821115613c1657613c15613bbc565b5b92915050565b7f4e487b71000000000000000000000000000000000000000000000000000000005f52603260045260245ffd5b5f82825260208201905092915050565b5f613c638261336d565b613c6d8185613c49565b9350613c7883613387565b805f5b83811015613ca8578151613c8f88826133a5565b9750613c9a836133bc565b925050600181019050613c7b565b5085935050505092915050565b5f60c083015f830151613cca5f860182613a89565b5060208301518482036020860152613ce28282613c59565b91505060408301518482036040860152613cfc8282613aa8565b9150506060830151613d116060860182613396565b506080830151613d246080860182613396565b5060a0830151613d3760a0860182613ae0565b508091505092915050565b5f6020820190508181035f830152613d5a8184613cb5565b905092915050565b7f556e617574686f72697a65643a204e6f74206d656d626572206f7220726570725f8201527f6573656e74617469766500000000000000000000000000000000000000000000602082015250565b5f613dbc602a83612cfc565b9150613dc782613d62565b604082019050919050565b5f6020820190508181035f830152613de981613db0565b9050919050565b5f60e08284031215613e0557613e0461357d565b5b613e0f60e06131ca565b90505f613e1e84828501613585565b5f830152506020613e3184828501613585565b6020830152506040613e45848285016135c4565b604083015250606082015167ffffffffffffffff811115613e6957613e68613581565b5b613e75848285016136de565b6060830152506080613e89848285016135c4565b60808301525060a0613e9d848285016135c4565b60a08301525060c0613eb1848285016134d6565b60c08301525092915050565b5f60208284031215613ed257613ed1612c37565b5b5f82015167ffffffffffffffff811115613eef57613eee612c3b565b5b613efb84828501613df0565b91505092915050565b5f60e083015f830151613f195f860182613a89565b506020830151613f2c6020860182613a89565b506040830151613f3f6040860182613396565b5060608301518482036060860152613f578282613aa8565b9150506080830151613f6c6080860182613396565b5060a0830151613f7f60a0860182613396565b5060c0830151613f9260c0860182613ae0565b508091505092915050565b5f6020820190508181035f830152613fb58184613f04565b905092915050565b7f416c726561647920686173206d656d62657273686970204e46540000000000005f82015250565b5f613ff1601a83612cfc565b9150613ffc82613fbd565b602082019050919050565b5f6020820190508181035f83015261401e81613fe5565b9050919050565b5f61402f82612d82565b91507fffffffffffffffffffffffffffffffffffffffffffffffffffffffffffffffff820361406157614060613bbc565b5b600182019050919050565b7f4d656d62657273686970204e46542072657175697265640000000000000000005f82015250565b5f6140a0601783612cfc565b91506140ab8261406c565b602082019050919050565b5f6020820190508181035f8301526140cd81614094565b9050919050565b5f602082840312156140e9576140e8612c37565b5b5f6140f6848285016135c4565b91505092915050565b5f81905092915050565b5f61411382612cf2565b61411d81856140ff565b935061412d818560208601612d0c565b80840191505092915050565b5f6141448285614109565b91506141508284614109565b91508190509392505050565b5f806040838503121561417257614171612c37565b5b5f83015167ffffffffffffffff81111561418f5761418e612c3b565b5b61419b85828601613640565b925050602083015167ffffffffffffffff8111156141bc576141bb612c3b565b5b6141c885828601613640565b9150509250929050565b5f6040820190506141e55f830185612e10565b6141f26020830184613006565b9392505050565b5f60608201905061420c5f830186612e10565b6142196020830185612e10565b6142266040830184613006565b949350505050565b5f81519050919050565b5f82825260208201905092915050565b5f6142528261422e565b61425c8185614238565b935061426c818560208601612d0c565b61427581612d1a565b840191505092915050565b5f6080820190506142935f830187612e10565b6142a06020830186612e10565b6142ad6040830185613006565b81810360608301526142bf8184614248565b905095945050505050565b5f815190506142d881612c6a565b92915050565b5f602082840312156142f3576142f2612c37565b5b5f614300848285016142ca565b91505092915050565b7f4e487b71000000000000000000000000000000000000000000000000000000005f52601260045260245ffdfea2646970667358221220b789e92b9a4bb46006c65905dd1fbd603fd371f3073f38552e30806030e5142164736f6c634300081a0033",
			"opcodes": "PUSH1 0x80 PUSH1 0x40 MSTORE PUSH1 0x1 PUSH1 0xA SSTORE CALLVALUE DUP1 ISZERO PUSH2 0x14 JUMPI PUSH0 DUP1 REVERT JUMPDEST POP PUSH1 0x40 MLOAD PUSH2 0x4A27 CODESIZE SUB DUP1 PUSH2 0x4A27 DUP4 CODECOPY DUP2 DUP2 ADD PUSH1 0x40 MSTORE DUP2 ADD SWAP1 PUSH2 0x36 SWAP2 SWAP1 PUSH2 0x32D JUMP JUMPDEST CALLER PUSH1 0x40 MLOAD DUP1 PUSH1 0x40 ADD PUSH1 0x40 MSTORE DUP1 PUSH1 0xF DUP2 MSTORE PUSH1 0x20 ADD PUSH32 0x50616469204D656D626572736869700000000000000000000000000000000000 DUP2 MSTORE POP PUSH1 0x40 MLOAD DUP1 PUSH1 0x40 ADD PUSH1 0x40 MSTORE DUP1 PUSH1 0x4 DUP2 MSTORE PUSH1 0x20 ADD PUSH32 0x5041444900000000000000000000000000000000000000000000000000000000 DUP2 MSTORE POP DUP2 PUSH0 SWAP1 DUP2 PUSH2 0xB1 SWAP2 SWAP1 PUSH2 0x5B7 JUMP JUMPDEST POP DUP1 PUSH1 0x1 SWAP1 DUP2 PUSH2 0xC1 SWAP2 SWAP1 PUSH2 0x5B7 JUMP JUMPDEST POP POP POP PUSH0 PUSH20 0xFFFFFFFFFFFFFFFFFFFFFFFFFFFFFFFFFFFFFFFF AND DUP2 PUSH20 0xFFFFFFFFFFFFFFFFFFFFFFFFFFFFFFFFFFFFFFFF AND SUB PUSH2 0x134 JUMPI PUSH0 PUSH1 0x40 MLOAD PUSH32 0x1E4FBDF700000000000000000000000000000000000000000000000000000000 DUP2 MSTORE PUSH1 0x4 ADD PUSH2 0x12B SWAP2 SWAP1 PUSH2 0x695 JUMP JUMPDEST PUSH1 0x40 MLOAD DUP1 SWAP2 SUB SWAP1 REVERT JUMPDEST PUSH2 0x143 DUP2 PUSH2 0x20C PUSH1 0x20 SHL PUSH1 0x20 SHR JUMP JUMPDEST POP DUP3 PUSH1 0x7 PUSH0 PUSH2 0x100 EXP DUP2 SLOAD DUP2 PUSH20 0xFFFFFFFFFFFFFFFFFFFFFFFFFFFFFFFFFFFFFFFF MUL NOT AND SWAP1 DUP4 PUSH20 0xFFFFFFFFFFFFFFFFFFFFFFFFFFFFFFFFFFFFFFFF AND MUL OR SWAP1 SSTORE POP DUP2 PUSH1 0x8 PUSH0 PUSH2 0x100 EXP DUP2 SLOAD DUP2 PUSH20 0xFFFFFFFFFFFFFFFFFFFFFFFFFFFFFFFFFFFFFFFF MUL NOT AND SWAP1 DUP4 PUSH20 0xFFFFFFFFFFFFFFFFFFFFFFFFFFFFFFFFFFFFFFFF AND MUL OR SWAP1 SSTORE POP DUP1 PUSH1 0x9 PUSH0 PUSH2 0x100 EXP DUP2 SLOAD DUP2 PUSH20 0xFFFFFFFFFFFFFFFFFFFFFFFFFFFFFFFFFFFFFFFF MUL NOT AND SWAP1 DUP4 PUSH20 0xFFFFFFFFFFFFFFFFFFFFFFFFFFFFFFFFFFFFFFFF AND MUL OR SWAP1 SSTORE POP POP POP POP PUSH2 0x6AE JUMP JUMPDEST PUSH0 PUSH1 0x6 PUSH0 SWAP1 SLOAD SWAP1 PUSH2 0x100 EXP SWAP1 DIV PUSH20 0xFFFFFFFFFFFFFFFFFFFFFFFFFFFFFFFFFFFFFFFF AND SWAP1 POP DUP2 PUSH1 0x6 PUSH0 PUSH2 0x100 EXP DUP2 SLOAD DUP2 PUSH20 0xFFFFFFFFFFFFFFFFFFFFFFFFFFFFFFFFFFFFFFFF MUL NOT AND SWAP1 DUP4 PUSH20 0xFFFFFFFFFFFFFFFFFFFFFFFFFFFFFFFFFFFFFFFF AND MUL OR SWAP1 SSTORE POP DUP2 PUSH20 0xFFFFFFFFFFFFFFFFFFFFFFFFFFFFFFFFFFFFFFFF AND DUP2 PUSH20 0xFFFFFFFFFFFFFFFFFFFFFFFFFFFFFFFFFFFFFFFF AND PUSH32 0x8BE0079C531659141344CD1FD0A4F28419497F9722A3DAAFE3B4186F6B6457E0 PUSH1 0x40 MLOAD PUSH1 0x40 MLOAD DUP1 SWAP2 SUB SWAP1 LOG3 POP POP JUMP JUMPDEST PUSH0 DUP1 REVERT JUMPDEST PUSH0 PUSH20 0xFFFFFFFFFFFFFFFFFFFFFFFFFFFFFFFFFFFFFFFF DUP3 AND SWAP1 POP SWAP2 SWAP1 POP JUMP JUMPDEST PUSH0 PUSH2 0x2FC DUP3 PUSH2 0x2D3 JUMP JUMPDEST SWAP1 POP SWAP2 SWAP1 POP JUMP JUMPDEST PUSH2 0x30C DUP2 PUSH2 0x2F2 JUMP JUMPDEST DUP2 EQ PUSH2 0x316 JUMPI PUSH0 DUP1 REVERT JUMPDEST POP JUMP JUMPDEST PUSH0 DUP2 MLOAD SWAP1 POP PUSH2 0x327 DUP2 PUSH2 0x303 JUMP JUMPDEST SWAP3 SWAP2 POP POP JUMP JUMPDEST PUSH0 DUP1 PUSH0 PUSH1 0x60 DUP5 DUP7 SUB SLT ISZERO PUSH2 0x344 JUMPI PUSH2 0x343 PUSH2 0x2CF JUMP JUMPDEST JUMPDEST PUSH0 PUSH2 0x351 DUP7 DUP3 DUP8 ADD PUSH2 0x319 JUMP JUMPDEST SWAP4 POP POP PUSH1 0x20 PUSH2 0x362 DUP7 DUP3 DUP8 ADD PUSH2 0x319 JUMP JUMPDEST SWAP3 POP POP PUSH1 0x40 PUSH2 0x373 DUP7 DUP3 DUP8 ADD PUSH2 0x319 JUMP JUMPDEST SWAP2 POP POP SWAP3 POP SWAP3 POP SWAP3 JUMP JUMPDEST PUSH0 DUP2 MLOAD SWAP1 POP SWAP2 SWAP1 POP JUMP JUMPDEST PUSH32 0x4E487B7100000000000000000000000000000000000000000000000000000000 PUSH0 MSTORE PUSH1 0x41 PUSH1 0x4 MSTORE PUSH1 0x24 PUSH0 REVERT JUMPDEST PUSH32 0x4E487B7100000000000000000000000000000000000000000000000000000000 PUSH0 MSTORE PUSH1 0x22 PUSH1 0x4 MSTORE PUSH1 0x24 PUSH0 REVERT JUMPDEST PUSH0 PUSH1 0x2 DUP3 DIV SWAP1 POP PUSH1 0x1 DUP3 AND DUP1 PUSH2 0x3F8 JUMPI PUSH1 0x7F DUP3 AND SWAP2 POP JUMPDEST PUSH1 0x20 DUP3 LT DUP2 SUB PUSH2 0x40B JUMPI PUSH2 0x40A PUSH2 0x3B4 JUMP JUMPDEST JUMPDEST POP SWAP2 SWAP1 POP JUMP JUMPDEST PUSH0 DUP2 SWAP1 POP DUP2 PUSH0 MSTORE PUSH1 0x20 PUSH0 KECCAK256 SWAP1 POP SWAP2 SWAP1 POP JUMP JUMPDEST PUSH0 PUSH1 0x20 PUSH1 0x1F DUP4 ADD DIV SWAP1 POP SWAP2 SWAP1 POP JUMP JUMPDEST PUSH0 DUP3 DUP3 SHL SWAP1 POP SWAP3 SWAP2 POP POP JUMP JUMPDEST PUSH0 PUSH1 0x8 DUP4 MUL PUSH2 0x46D PUSH32 0xFFFFFFFFFFFFFFFFFFFFFFFFFFFFFFFFFFFFFFFFFFFFFFFFFFFFFFFFFFFFFFFF DUP3 PUSH2 0x432 JUMP JUMPDEST PUSH2 0x477 DUP7 DUP4 PUSH2 0x432 JUMP JUMPDEST SWAP6 POP DUP1 NOT DUP5 AND SWAP4 POP DUP1 DUP7 AND DUP5 OR SWAP3 POP POP POP SWAP4 SWAP3 POP POP POP JUMP JUMPDEST PUSH0 DUP2 SWAP1 POP SWAP2 SWAP1 POP JUMP JUMPDEST PUSH0 DUP2 SWAP1 POP SWAP2 SWAP1 POP JUMP JUMPDEST PUSH0 PUSH2 0x4BB PUSH2 0x4B6 PUSH2 0x4B1 DUP5 PUSH2 0x48F JUMP JUMPDEST PUSH2 0x498 JUMP JUMPDEST PUSH2 0x48F JUMP JUMPDEST SWAP1 POP SWAP2 SWAP1 POP JUMP JUMPDEST PUSH0 DUP2 SWAP1 POP SWAP2 SWAP1 POP JUMP JUMPDEST PUSH2 0x4D4 DUP4 PUSH2 0x4A1 JUMP JUMPDEST PUSH2 0x4E8 PUSH2 0x4E0 DUP3 PUSH2 0x4C2 JUMP JUMPDEST DUP5 DUP5 SLOAD PUSH2 0x43E JUMP JUMPDEST DUP3 SSTORE POP POP POP POP JUMP JUMPDEST PUSH0 SWAP1 JUMP JUMPDEST PUSH2 0x4FC PUSH2 0x4F0 JUMP JUMPDEST PUSH2 0x507 DUP2 DUP5 DUP5 PUSH2 0x4CB JUMP JUMPDEST POP POP POP JUMP JUMPDEST JUMPDEST DUP2 DUP2 LT ISZERO PUSH2 0x52A JUMPI PUSH2 0x51F PUSH0 DUP3 PUSH2 0x4F4 JUMP JUMPDEST PUSH1 0x1 DUP2 ADD SWAP1 POP PUSH2 0x50D JUMP JUMPDEST POP POP JUMP JUMPDEST PUSH1 0x1F DUP3 GT ISZERO PUSH2 0x56F JUMPI PUSH2 0x540 DUP2 PUSH2 0x411 JUMP JUMPDEST PUSH2 0x549 DUP5 PUSH2 0x423 JUMP JUMPDEST DUP2 ADD PUSH1 0x20 DUP6 LT ISZERO PUSH2 0x558 JUMPI DUP2 SWAP1 POP JUMPDEST PUSH2 0x56C PUSH2 0x564 DUP6 PUSH2 0x423 JUMP JUMPDEST DUP4 ADD DUP3 PUSH2 0x50C JUMP JUMPDEST POP POP JUMPDEST POP POP POP JUMP JUMPDEST PUSH0 DUP3 DUP3 SHR SWAP1 POP SWAP3 SWAP2 POP POP JUMP JUMPDEST PUSH0 PUSH2 0x58F PUSH0 NOT DUP5 PUSH1 0x8 MUL PUSH2 0x574 JUMP JUMPDEST NOT DUP1 DUP4 AND SWAP2 POP POP SWAP3 SWAP2 POP POP JUMP JUMPDEST PUSH0 PUSH2 0x5A7 DUP4 DUP4 PUSH2 0x580 JUMP JUMPDEST SWAP2 POP DUP3 PUSH1 0x2 MUL DUP3 OR SWAP1 POP SWAP3 SWAP2 POP POP JUMP JUMPDEST PUSH2 0x5C0 DUP3 PUSH2 0x37D JUMP JUMPDEST PUSH8 0xFFFFFFFFFFFFFFFF DUP2 GT ISZERO PUSH2 0x5D9 JUMPI PUSH2 0x5D8 PUSH2 0x387 JUMP JUMPDEST JUMPDEST PUSH2 0x5E3 DUP3 SLOAD PUSH2 0x3E1 JUMP JUMPDEST PUSH2 0x5EE DUP3 DUP3 DUP6 PUSH2 0x52E JUMP JUMPDEST PUSH0 PUSH1 0x20 SWAP1 POP PUSH1 0x1F DUP4 GT PUSH1 0x1 DUP2 EQ PUSH2 0x61F JUMPI PUSH0 DUP5 ISZERO PUSH2 0x60D JUMPI DUP3 DUP8 ADD MLOAD SWAP1 POP JUMPDEST PUSH2 0x617 DUP6 DUP3 PUSH2 0x59C JUMP JUMPDEST DUP7 SSTORE POP PUSH2 0x67E JUMP JUMPDEST PUSH1 0x1F NOT DUP5 AND PUSH2 0x62D DUP7 PUSH2 0x411 JUMP JUMPDEST PUSH0 JUMPDEST DUP3 DUP2 LT ISZERO PUSH2 0x654 JUMPI DUP5 DUP10 ADD MLOAD DUP3 SSTORE PUSH1 0x1 DUP3 ADD SWAP2 POP PUSH1 0x20 DUP6 ADD SWAP5 POP PUSH1 0x20 DUP2 ADD SWAP1 POP PUSH2 0x62F JUMP JUMPDEST DUP7 DUP4 LT ISZERO PUSH2 0x671 JUMPI DUP5 DUP10 ADD MLOAD PUSH2 0x66D PUSH1 0x1F DUP10 AND DUP3 PUSH2 0x580 JUMP JUMPDEST DUP4 SSTORE POP JUMPDEST PUSH1 0x1 PUSH1 0x2 DUP9 MUL ADD DUP9 SSTORE POP POP POP JUMPDEST POP POP POP POP POP POP JUMP JUMPDEST PUSH2 0x68F DUP2 PUSH2 0x2F2 JUMP JUMPDEST DUP3 MSTORE POP POP JUMP JUMPDEST PUSH0 PUSH1 0x20 DUP3 ADD SWAP1 POP PUSH2 0x6A8 PUSH0 DUP4 ADD DUP5 PUSH2 0x686 JUMP JUMPDEST SWAP3 SWAP2 POP POP JUMP JUMPDEST PUSH2 0x436C DUP1 PUSH2 0x6BB PUSH0 CODECOPY PUSH0 RETURN INVALID PUSH1 0x80 PUSH1 0x40 MSTORE CALLVALUE DUP1 ISZERO PUSH2 0xF JUMPI PUSH0 DUP1 REVERT JUMPDEST POP PUSH1 0x4 CALLDATASIZE LT PUSH2 0x1A7 JUMPI PUSH0 CALLDATALOAD PUSH1 0xE0 SHR DUP1 PUSH4 0x715018A6 GT PUSH2 0xF7 JUMPI DUP1 PUSH4 0xC02B2DD6 GT PUSH2 0x95 JUMPI DUP1 PUSH4 0xE1A9ABF1 GT PUSH2 0x6F JUMPI DUP1 PUSH4 0xE1A9ABF1 EQ PUSH2 0x48D JUMPI DUP1 PUSH4 0xE985E9C5 EQ PUSH2 0x4BD JUMPI DUP1 PUSH4 0xEDD501FA EQ PUSH2 0x4ED JUMPI DUP1 PUSH4 0xF2FDE38B EQ PUSH2 0x51D JUMPI PUSH2 0x1A7 JUMP JUMPDEST DUP1 PUSH4 0xC02B2DD6 EQ PUSH2 0x425 JUMPI DUP1 PUSH4 0xC87B56DD EQ PUSH2 0x441 JUMPI DUP1 PUSH4 0xCA259ED2 EQ PUSH2 0x471 JUMPI PUSH2 0x1A7 JUMP JUMPDEST DUP1 PUSH4 0x95D89B41 GT PUSH2 0xD1 JUMPI DUP1 PUSH4 0x95D89B41 EQ PUSH2 0x3B1 JUMPI DUP1 PUSH4 0x99BB9350 EQ PUSH2 0x3CF JUMPI DUP1 PUSH4 0xA22CB465 EQ PUSH2 0x3ED JUMPI DUP1 PUSH4 0xB88D4FDE EQ PUSH2 0x409 JUMPI PUSH2 0x1A7 JUMP JUMPDEST DUP1 PUSH4 0x715018A6 EQ PUSH2 0x36D JUMPI DUP1 PUSH4 0x8BAA5D8B EQ PUSH2 0x377 JUMPI DUP1 PUSH4 0x8DA5CB5B EQ PUSH2 0x393 JUMPI PUSH2 0x1A7 JUMP JUMPDEST DUP1 PUSH4 0x3013CE29 GT PUSH2 0x164 JUMPI DUP1 PUSH4 0x42842E0E GT PUSH2 0x13E JUMPI DUP1 PUSH4 0x42842E0E EQ PUSH2 0x2D5 JUMPI DUP1 PUSH4 0x6352211E EQ PUSH2 0x2F1 JUMPI DUP1 PUSH4 0x6A326AB1 EQ PUSH2 0x321 JUMPI DUP1 PUSH4 0x70A08231 EQ PUSH2 0x33D JUMPI PUSH2 0x1A7 JUMP JUMPDEST DUP1 PUSH4 0x3013CE29 EQ PUSH2 0x27F JUMPI DUP1 PUSH4 0x3D3BD488 EQ PUSH2 0x29D JUMPI DUP1 PUSH4 0x4158C1B5 EQ PUSH2 0x2B9 JUMPI PUSH2 0x1A7 JUMP JUMPDEST DUP1 PUSH4 0x1FFC9A7 EQ PUSH2 0x1AB JUMPI DUP1 PUSH4 0x6FDDE03 EQ PUSH2 0x1DB JUMPI DUP1 PUSH4 0x81812FC EQ PUSH2 0x1F9 JUMPI DUP1 PUSH4 0x95EA7B3 EQ PUSH2 0x229 JUMPI DUP1 PUSH4 0x11CE0267 EQ PUSH2 0x245 JUMPI DUP1 PUSH4 0x23B872DD EQ PUSH2 0x263 JUMPI JUMPDEST PUSH0 DUP1 REVERT JUMPDEST PUSH2 0x1C5 PUSH1 0x4 DUP1 CALLDATASIZE SUB DUP2 ADD SWAP1 PUSH2 0x1C0 SWAP2 SWAP1 PUSH2 0x2C94 JUMP JUMPDEST PUSH2 0x539 JUMP JUMPDEST PUSH1 0x40 MLOAD PUSH2 0x1D2 SWAP2 SWAP1 PUSH2 0x2CD9 JUMP JUMPDEST PUSH1 0x40 MLOAD DUP1 SWAP2 SUB SWAP1 RETURN JUMPDEST PUSH2 0x1E3 PUSH2 0x61A JUMP JUMPDEST PUSH1 0x40 MLOAD PUSH2 0x1F0 SWAP2 SWAP1 PUSH2 0x2D62 JUMP JUMPDEST PUSH1 0x40 MLOAD DUP1 SWAP2 SUB SWAP1 RETURN JUMPDEST PUSH2 0x213 PUSH1 0x4 DUP1 CALLDATASIZE SUB DUP2 ADD SWAP1 PUSH2 0x20E SWAP2 SWAP1 PUSH2 0x2DB5 JUMP JUMPDEST PUSH2 0x6A9 JUMP JUMPDEST PUSH1 0x40 MLOAD PUSH2 0x220 SWAP2 SWAP1 PUSH2 0x2E1F JUMP JUMPDEST PUSH1 0x40 MLOAD DUP1 SWAP2 SUB SWAP1 RETURN JUMPDEST PUSH2 0x243 PUSH1 0x4 DUP1 CALLDATASIZE SUB DUP2 ADD SWAP1 PUSH2 0x23E SWAP2 SWAP1 PUSH2 0x2E62 JUMP JUMPDEST PUSH2 0x6C4 JUMP JUMPDEST STOP JUMPDEST PUSH2 0x24D PUSH2 0x6DA JUMP JUMPDEST PUSH1 0x40 MLOAD PUSH2 0x25A SWAP2 SWAP1 PUSH2 0x2EFB JUMP JUMPDEST PUSH1 0x40 MLOAD DUP1 SWAP2 SUB SWAP1 RETURN JUMPDEST PUSH2 0x27D PUSH1 0x4 DUP1 CALLDATASIZE SUB DUP2 ADD SWAP1 PUSH2 0x278 SWAP2 SWAP1 PUSH2 0x2F14 JUMP JUMPDEST PUSH2 0x6FF JUMP JUMPDEST STOP JUMPDEST PUSH2 0x287 PUSH2 0x7FE JUMP JUMPDEST PUSH1 0x40 MLOAD PUSH2 0x294 SWAP2 SWAP1 PUSH2 0x2F84 JUMP JUMPDEST PUSH1 0x40 MLOAD DUP1 SWAP2 SUB SWAP1 RETURN JUMPDEST PUSH2 0x2B7 PUSH1 0x4 DUP1 CALLDATASIZE SUB DUP2 ADD SWAP1 PUSH2 0x2B2 SWAP2 SWAP1 PUSH2 0x2DB5 JUMP JUMPDEST PUSH2 0x823 JUMP JUMPDEST STOP JUMPDEST PUSH2 0x2D3 PUSH1 0x4 DUP1 CALLDATASIZE SUB DUP2 ADD SWAP1 PUSH2 0x2CE SWAP2 SWAP1 PUSH2 0x2F9D JUMP JUMPDEST PUSH2 0xE7F JUMP JUMPDEST STOP JUMPDEST PUSH2 0x2EF PUSH1 0x4 DUP1 CALLDATASIZE SUB DUP2 ADD SWAP1 PUSH2 0x2EA SWAP2 SWAP1 PUSH2 0x2F14 JUMP JUMPDEST PUSH2 0x1090 JUMP JUMPDEST STOP JUMPDEST PUSH2 0x30B PUSH1 0x4 DUP1 CALLDATASIZE SUB DUP2 ADD SWAP1 PUSH2 0x306 SWAP2 SWAP1 PUSH2 0x2DB5 JUMP JUMPDEST PUSH2 0x10AF JUMP JUMPDEST PUSH1 0x40 MLOAD PUSH2 0x318 SWAP2 SWAP1 PUSH2 0x2E1F JUMP JUMPDEST PUSH1 0x40 MLOAD DUP1 SWAP2 SUB SWAP1 RETURN JUMPDEST PUSH2 0x33B PUSH1 0x4 DUP1 CALLDATASIZE SUB DUP2 ADD SWAP1 PUSH2 0x336 SWAP2 SWAP1 PUSH2 0x2FDB JUMP JUMPDEST PUSH2 0x10C0 JUMP JUMPDEST STOP JUMPDEST PUSH2 0x357 PUSH1 0x4 DUP1 CALLDATASIZE SUB DUP2 ADD SWAP1 PUSH2 0x352 SWAP2 SWAP1 PUSH2 0x2FDB JUMP JUMPDEST PUSH2 0x110B JUMP JUMPDEST PUSH1 0x40 MLOAD PUSH2 0x364 SWAP2 SWAP1 PUSH2 0x3015 JUMP JUMPDEST PUSH1 0x40 MLOAD DUP1 SWAP2 SUB SWAP1 RETURN JUMPDEST PUSH2 0x375 PUSH2 0x11C1 JUMP JUMPDEST STOP JUMPDEST PUSH2 0x391 PUSH1 0x4 DUP1 CALLDATASIZE SUB DUP2 ADD SWAP1 PUSH2 0x38C SWAP2 SWAP1 PUSH2 0x308F JUMP JUMPDEST PUSH2 0x11D4 JUMP JUMPDEST STOP JUMPDEST PUSH2 0x39B PUSH2 0x13E7 JUMP JUMPDEST PUSH1 0x40 MLOAD PUSH2 0x3A8 SWAP2 SWAP1 PUSH2 0x2E1F JUMP JUMPDEST PUSH1 0x40 MLOAD DUP1 SWAP2 SUB SWAP1 RETURN JUMPDEST PUSH2 0x3B9 PUSH2 0x140F JUMP JUMPDEST PUSH1 0x40 MLOAD PUSH2 0x3C6 SWAP2 SWAP1 PUSH2 0x2D62 JUMP JUMPDEST PUSH1 0x40 MLOAD DUP1 SWAP2 SUB SWAP1 RETURN JUMPDEST PUSH2 0x3D7 PUSH2 0x149F JUMP JUMPDEST PUSH1 0x40 MLOAD PUSH2 0x3E4 SWAP2 SWAP1 PUSH2 0x2E1F JUMP JUMPDEST PUSH1 0x40 MLOAD DUP1 SWAP2 SUB SWAP1 RETURN JUMPDEST PUSH2 0x407 PUSH1 0x4 DUP1 CALLDATASIZE SUB DUP2 ADD SWAP1 PUSH2 0x402 SWAP2 SWAP1 PUSH2 0x312A JUMP JUMPDEST PUSH2 0x14C4 JUMP JUMPDEST STOP JUMPDEST PUSH2 0x423 PUSH1 0x4 DUP1 CALLDATASIZE SUB DUP2 ADD SWAP1 PUSH2 0x41E SWAP2 SWAP1 PUSH2 0x3290 JUMP JUMPDEST PUSH2 0x14DA JUMP JUMPDEST STOP JUMPDEST PUSH2 0x43F PUSH1 0x4 DUP1 CALLDATASIZE SUB DUP2 ADD SWAP1 PUSH2 0x43A SWAP2 SWAP1 PUSH2 0x308F JUMP JUMPDEST PUSH2 0x14FF JUMP JUMPDEST STOP JUMPDEST PUSH2 0x45B PUSH1 0x4 DUP1 CALLDATASIZE SUB DUP2 ADD SWAP1 PUSH2 0x456 SWAP2 SWAP1 PUSH2 0x2DB5 JUMP JUMPDEST PUSH2 0x1814 JUMP JUMPDEST PUSH1 0x40 MLOAD PUSH2 0x468 SWAP2 SWAP1 PUSH2 0x2D62 JUMP JUMPDEST PUSH1 0x40 MLOAD DUP1 SWAP2 SUB SWAP1 RETURN JUMPDEST PUSH2 0x48B PUSH1 0x4 DUP1 CALLDATASIZE SUB DUP2 ADD SWAP1 PUSH2 0x486 SWAP2 SWAP1 PUSH2 0x3310 JUMP JUMPDEST PUSH2 0x187A JUMP JUMPDEST STOP JUMPDEST PUSH2 0x4A7 PUSH1 0x4 DUP1 CALLDATASIZE SUB DUP2 ADD SWAP1 PUSH2 0x4A2 SWAP2 SWAP1 PUSH2 0x2FDB JUMP JUMPDEST PUSH2 0x19E3 JUMP JUMPDEST PUSH1 0x40 MLOAD PUSH2 0x4B4 SWAP2 SWAP1 PUSH2 0x3424 JUMP JUMPDEST PUSH1 0x40 MLOAD DUP1 SWAP2 SUB SWAP1 RETURN JUMPDEST PUSH2 0x4D7 PUSH1 0x4 DUP1 CALLDATASIZE SUB DUP2 ADD SWAP1 PUSH2 0x4D2 SWAP2 SWAP1 PUSH2 0x2F9D JUMP JUMPDEST PUSH2 0x1A8E JUMP JUMPDEST PUSH1 0x40 MLOAD PUSH2 0x4E4 SWAP2 SWAP1 PUSH2 0x2CD9 JUMP JUMPDEST PUSH1 0x40 MLOAD DUP1 SWAP2 SUB SWAP1 RETURN JUMPDEST PUSH2 0x507 PUSH1 0x4 DUP1 CALLDATASIZE SUB DUP2 ADD SWAP1 PUSH2 0x502 SWAP2 SWAP1 PUSH2 0x2FDB JUMP JUMPDEST PUSH2 0x1B1C JUMP JUMPDEST PUSH1 0x40 MLOAD PUSH2 0x514 SWAP2 SWAP1 PUSH2 0x2E1F JUMP JUMPDEST PUSH1 0x40 MLOAD DUP1 SWAP2 SUB SWAP1 RETURN JUMPDEST PUSH2 0x537 PUSH1 0x4 DUP1 CALLDATASIZE SUB DUP2 ADD SWAP1 PUSH2 0x532 SWAP2 SWAP1 PUSH2 0x2FDB JUMP JUMPDEST PUSH2 0x1BC4 JUMP JUMPDEST STOP JUMPDEST PUSH0 PUSH32 0x80AC58CD00000000000000000000000000000000000000000000000000000000 PUSH28 0xFFFFFFFFFFFFFFFFFFFFFFFFFFFFFFFFFFFFFFFFFFFFFFFFFFFFFFFF NOT AND DUP3 PUSH28 0xFFFFFFFFFFFFFFFFFFFFFFFFFFFFFFFFFFFFFFFFFFFFFFFFFFFFFFFF NOT AND EQ DUP1 PUSH2 0x603 JUMPI POP PUSH32 0x5B5E139F00000000000000000000000000000000000000000000000000000000 PUSH28 0xFFFFFFFFFFFFFFFFFFFFFFFFFFFFFFFFFFFFFFFFFFFFFFFFFFFFFFFF NOT AND DUP3 PUSH28 0xFFFFFFFFFFFFFFFFFFFFFFFFFFFFFFFFFFFFFFFFFFFFFFFFFFFFFFFF NOT AND EQ JUMPDEST DUP1 PUSH2 0x613 JUMPI POP PUSH2 0x612 DUP3 PUSH2 0x1C48 JUMP JUMPDEST JUMPDEST SWAP1 POP SWAP2 SWAP1 POP JUMP JUMPDEST PUSH1 0x60 PUSH0 DUP1 SLOAD PUSH2 0x628 SWAP1 PUSH2 0x3471 JUMP JUMPDEST DUP1 PUSH1 0x1F ADD PUSH1 0x20 DUP1 SWAP2 DIV MUL PUSH1 0x20 ADD PUSH1 0x40 MLOAD SWAP1 DUP2 ADD PUSH1 0x40 MSTORE DUP1 SWAP3 SWAP2 SWAP1 DUP2 DUP2 MSTORE PUSH1 0x20 ADD DUP3 DUP1 SLOAD PUSH2 0x654 SWAP1 PUSH2 0x3471 JUMP JUMPDEST DUP1 ISZERO PUSH2 0x69F JUMPI DUP1 PUSH1 0x1F LT PUSH2 0x676 JUMPI PUSH2 0x100 DUP1 DUP4 SLOAD DIV MUL DUP4 MSTORE SWAP2 PUSH1 0x20 ADD SWAP2 PUSH2 0x69F JUMP JUMPDEST DUP3 ADD SWAP2 SWAP1 PUSH0 MSTORE PUSH1 0x20 PUSH0 KECCAK256 SWAP1 JUMPDEST DUP2 SLOAD DUP2 MSTORE SWAP1 PUSH1 0x1 ADD SWAP1 PUSH1 0x20 ADD DUP1 DUP4 GT PUSH2 0x682 JUMPI DUP3 SWAP1 SUB PUSH1 0x1F AND DUP3 ADD SWAP2 JUMPDEST POP POP POP POP POP SWAP1 POP SWAP1 JUMP JUMPDEST PUSH0 PUSH2 0x6B3 DUP3 PUSH2 0x1CB1 JUMP JUMPDEST POP PUSH2 0x6BD DUP3 PUSH2 0x1D37 JUMP JUMPDEST SWAP1 POP SWAP2 SWAP1 POP JUMP JUMPDEST PUSH2 0x6D6 DUP3 DUP3 PUSH2 0x6D1 PUSH2 0x1D70 JUMP JUMPDEST PUSH2 0x1D77 JUMP JUMPDEST POP POP JUMP JUMPDEST PUSH1 0x7 PUSH0 SWAP1 SLOAD SWAP1 PUSH2 0x100 EXP SWAP1 DIV PUSH20 0xFFFFFFFFFFFFFFFFFFFFFFFFFFFFFFFFFFFFFFFF AND DUP2 JUMP JUMPDEST PUSH0 PUSH20 0xFFFFFFFFFFFFFFFFFFFFFFFFFFFFFFFFFFFFFFFF AND DUP3 PUSH20 0xFFFFFFFFFFFFFFFFFFFFFFFFFFFFFFFFFFFFFFFF AND SUB PUSH2 0x76F JUMPI PUSH0 PUSH1 0x40 MLOAD PUSH32 0x64A0AE9200000000000000000000000000000000000000000000000000000000 DUP2 MSTORE PUSH1 0x4 ADD PUSH2 0x766 SWAP2 SWAP1 PUSH2 0x2E1F JUMP JUMPDEST PUSH1 0x40 MLOAD DUP1 SWAP2 SUB SWAP1 REVERT JUMPDEST PUSH0 PUSH2 0x782 DUP4 DUP4 PUSH2 0x77D PUSH2 0x1D70 JUMP JUMPDEST PUSH2 0x1D89 JUMP JUMPDEST SWAP1 POP DUP4 PUSH20 0xFFFFFFFFFFFFFFFFFFFFFFFFFFFFFFFFFFFFFFFF AND DUP2 PUSH20 0xFFFFFFFFFFFFFFFFFFFFFFFFFFFFFFFFFFFFFFFF AND EQ PUSH2 0x7F8 JUMPI DUP4 DUP3 DUP3 PUSH1 0x40 MLOAD PUSH32 0x64283D7B00000000000000000000000000000000000000000000000000000000 DUP2 MSTORE PUSH1 0x4 ADD PUSH2 0x7EF SWAP4 SWAP3 SWAP2 SWAP1 PUSH2 0x34A1 JUMP JUMPDEST PUSH1 0x40 MLOAD DUP1 SWAP2 SUB SWAP1 REVERT JUMPDEST POP POP POP POP JUMP JUMPDEST PUSH1 0x8 PUSH0 SWAP1 SLOAD SWAP1 PUSH2 0x100 EXP SWAP1 DIV PUSH20 0xFFFFFFFFFFFFFFFFFFFFFFFFFFFFFFFFFFFFFFFF AND DUP2 JUMP JUMPDEST CALLER PUSH1 0x7 PUSH0 SWAP1 SLOAD SWAP1 PUSH2 0x100 EXP SWAP1 DIV PUSH20 0xFFFFFFFFFFFFFFFFFFFFFFFFFFFFFFFFFFFFFFFF AND PUSH20 0xFFFFFFFFFFFFFFFFFFFFFFFFFFFFFFFFFFFFFFFF AND PUSH4 0x5939A84E DUP3 PUSH1 0x40 MLOAD DUP3 PUSH4 0xFFFFFFFF AND PUSH1 0xE0 SHL DUP2 MSTORE PUSH1 0x4 ADD PUSH2 0x87E SWAP2 SWAP1 PUSH2 0x2E1F JUMP JUMPDEST PUSH1 0x20 PUSH1 0x40 MLOAD DUP1 DUP4 SUB DUP2 DUP7 GAS STATICCALL ISZERO DUP1 ISZERO PUSH2 0x899 JUMPI RETURNDATASIZE PUSH0 DUP1 RETURNDATACOPY RETURNDATASIZE PUSH0 REVERT JUMPDEST POP POP POP POP PUSH1 0x40 MLOAD RETURNDATASIZE PUSH1 0x1F NOT PUSH1 0x1F DUP3 ADD AND DUP3 ADD DUP1 PUSH1 0x40 MSTORE POP DUP2 ADD SWAP1 PUSH2 0x8BD SWAP2 SWAP1 PUSH2 0x34EA JUMP JUMPDEST PUSH2 0x8FC JUMPI PUSH1 0x40 MLOAD PUSH32 0x8C379A000000000000000000000000000000000000000000000000000000000 DUP2 MSTORE PUSH1 0x4 ADD PUSH2 0x8F3 SWAP1 PUSH2 0x355F JUMP JUMPDEST PUSH1 0x40 MLOAD DUP1 SWAP2 SUB SWAP1 REVERT JUMPDEST PUSH0 PUSH1 0x7 PUSH0 SWAP1 SLOAD SWAP1 PUSH2 0x100 EXP SWAP1 DIV PUSH20 0xFFFFFFFFFFFFFFFFFFFFFFFFFFFFFFFFFFFFFFFF AND PUSH20 0xFFFFFFFFFFFFFFFFFFFFFFFFFFFFFFFFFFFFFFFF AND PUSH4 0x554AE567 DUP4 PUSH1 0x40 MLOAD DUP3 PUSH4 0xFFFFFFFF AND PUSH1 0xE0 SHL DUP2 MSTORE PUSH1 0x4 ADD PUSH2 0x957 SWAP2 SWAP1 PUSH2 0x2E1F JUMP JUMPDEST PUSH0 PUSH1 0x40 MLOAD DUP1 DUP4 SUB DUP2 DUP7 GAS STATICCALL ISZERO DUP1 ISZERO PUSH2 0x971 JUMPI RETURNDATASIZE PUSH0 DUP1 RETURNDATACOPY RETURNDATASIZE PUSH0 REVERT JUMPDEST POP POP POP POP PUSH1 0x40 MLOAD RETURNDATASIZE PUSH0 DUP3 RETURNDATACOPY RETURNDATASIZE PUSH1 0x1F NOT PUSH1 0x1F DUP3 ADD AND DUP3 ADD DUP1 PUSH1 0x40 MSTORE POP DUP2 ADD SWAP1 PUSH2 0x999 SWAP2 SWAP1 PUSH2 0x37E0 JUMP JUMPDEST SWAP1 POP DUP1 PUSH1 0xA0 ADD MLOAD PUSH2 0x9DF JUMPI PUSH1 0x40 MLOAD PUSH32 0x8C379A000000000000000000000000000000000000000000000000000000000 DUP2 MSTORE PUSH1 0x4 ADD PUSH2 0x9D6 SWAP1 PUSH2 0x3871 JUMP JUMPDEST PUSH1 0x40 MLOAD DUP1 SWAP2 SUB SWAP1 REVERT JUMPDEST PUSH0 PUSH1 0x7 PUSH0 SWAP1 SLOAD SWAP1 PUSH2 0x100 EXP SWAP1 DIV PUSH20 0xFFFFFFFFFFFFFFFFFFFFFFFFFFFFFFFFFFFFFFFF AND PUSH20 0xFFFFFFFFFFFFFFFFFFFFFFFFFFFFFFFFFFFFFFFF AND PUSH4 0xF09790DD DUP6 PUSH1 0x40 MLOAD DUP3 PUSH4 0xFFFFFFFF AND PUSH1 0xE0 SHL DUP2 MSTORE PUSH1 0x4 ADD PUSH2 0xA3A SWAP2 SWAP1 PUSH2 0x3015 JUMP JUMPDEST PUSH0 PUSH1 0x40 MLOAD DUP1 DUP4 SUB DUP2 DUP7 GAS STATICCALL ISZERO DUP1 ISZERO PUSH2 0xA54 JUMPI RETURNDATASIZE PUSH0 DUP1 RETURNDATACOPY RETURNDATASIZE PUSH0 REVERT JUMPDEST POP POP POP POP PUSH1 0x40 MLOAD RETURNDATASIZE PUSH0 DUP3 RETURNDATACOPY RETURNDATASIZE PUSH1 0x1F NOT PUSH1 0x1F DUP3 ADD AND DUP3 ADD DUP1 PUSH1 0x40 MSTORE POP DUP2 ADD SWAP1 PUSH2 0xA7C SWAP2 SWAP1 PUSH2 0x3972 JUMP JUMPDEST SWAP1 POP CALLER PUSH20 0xFFFFFFFFFFFFFFFFFFFFFFFFFFFFFFFFFFFFFFFF AND DUP2 PUSH1 0x40 ADD MLOAD PUSH20 0xFFFFFFFFFFFFFFFFFFFFFFFFFFFFFFFFFFFFFFFF AND EQ PUSH2 0xAF0 JUMPI PUSH1 0x40 MLOAD PUSH32 0x8C379A000000000000000000000000000000000000000000000000000000000 DUP2 MSTORE PUSH1 0x4 ADD PUSH2 0xAE7 SWAP1 PUSH2 0x3A03 JUMP JUMPDEST PUSH1 0x40 MLOAD DUP1 SWAP2 SUB SWAP1 REVERT JUMPDEST DUP1 PUSH1 0xC0 ADD MLOAD ISZERO PUSH2 0xB35 JUMPI PUSH1 0x40 MLOAD PUSH32 0x8C379A000000000000000000000000000000000000000000000000000000000 DUP2 MSTORE PUSH1 0x4 ADD PUSH2 0xB2C SWAP1 PUSH2 0x3A6B JUMP JUMPDEST PUSH1 0x40 MLOAD DUP1 SWAP2 SUB SWAP1 REVERT JUMPDEST PUSH1 0x1 DUP2 PUSH1 0xC0 ADD SWAP1 ISZERO ISZERO SWAP1 DUP2 ISZERO ISZERO DUP2 MSTORE POP POP TIMESTAMP DUP2 PUSH1 0xA0 ADD DUP2 DUP2 MSTORE POP POP PUSH1 0x7 PUSH0 SWAP1 SLOAD SWAP1 PUSH2 0x100 EXP SWAP1 DIV PUSH20 0xFFFFFFFFFFFFFFFFFFFFFFFFFFFFFFFFFFFFFFFF AND PUSH20 0xFFFFFFFFFFFFFFFFFFFFFFFFFFFFFFFFFFFFFFFF AND PUSH4 0xF47BE477 DUP3 PUSH1 0x40 MLOAD DUP3 PUSH4 0xFFFFFFFF AND PUSH1 0xE0 SHL DUP2 MSTORE PUSH1 0x4 ADD PUSH2 0xBAA SWAP2 SWAP1 PUSH2 0x3B9C JUMP JUMPDEST PUSH0 PUSH1 0x40 MLOAD DUP1 DUP4 SUB DUP2 PUSH0 DUP8 DUP1 EXTCODESIZE ISZERO DUP1 ISZERO PUSH2 0xBC1 JUMPI PUSH0 DUP1 REVERT JUMPDEST POP GAS CALL ISZERO DUP1 ISZERO PUSH2 0xBD3 JUMPI RETURNDATASIZE PUSH0 DUP1 RETURNDATACOPY RETURNDATASIZE PUSH0 REVERT JUMPDEST POP POP POP POP PUSH0 PUSH1 0x7 PUSH0 SWAP1 SLOAD SWAP1 PUSH2 0x100 EXP SWAP1 DIV PUSH20 0xFFFFFFFFFFFFFFFFFFFFFFFFFFFFFFFFFFFFFFFF AND PUSH20 0xFFFFFFFFFFFFFFFFFFFFFFFFFFFFFFFFFFFFFFFF AND PUSH4 0x554AE567 CALLER PUSH1 0x40 MLOAD DUP3 PUSH4 0xFFFFFFFF AND PUSH1 0xE0 SHL DUP2 MSTORE PUSH1 0x4 ADD PUSH2 0xC32 SWAP2 SWAP1 PUSH2 0x2E1F JUMP JUMPDEST PUSH0 PUSH1 0x40 MLOAD DUP1 DUP4 SUB DUP2 DUP7 GAS STATICCALL ISZERO DUP1 ISZERO PUSH2 0xC4C JUMPI RETURNDATASIZE PUSH0 DUP1 RETURNDATACOPY RETURNDATASIZE PUSH0 REVERT JUMPDEST POP POP POP POP PUSH1 0x40 MLOAD RETURNDATASIZE PUSH0 DUP3 RETURNDATACOPY RETURNDATASIZE PUSH1 0x1F NOT PUSH1 0x1F DUP3 ADD AND DUP3 ADD DUP1 PUSH1 0x40 MSTORE POP DUP2 ADD SWAP1 PUSH2 0xC74 SWAP2 SWAP1 PUSH2 0x37E0 JUMP JUMPDEST SWAP1 POP PUSH0 DUP2 PUSH1 0x20 ADD MLOAD SWAP1 POP PUSH0 PUSH1 0x1 DUP3 MLOAD PUSH2 0xC8D SWAP2 SWAP1 PUSH2 0x3BE9 JUMP JUMPDEST PUSH8 0xFFFFFFFFFFFFFFFF DUP2 GT ISZERO PUSH2 0xCA6 JUMPI PUSH2 0xCA5 PUSH2 0x316C JUMP JUMPDEST JUMPDEST PUSH1 0x40 MLOAD SWAP1 DUP1 DUP3 MSTORE DUP1 PUSH1 0x20 MUL PUSH1 0x20 ADD DUP3 ADD PUSH1 0x40 MSTORE DUP1 ISZERO PUSH2 0xCD4 JUMPI DUP2 PUSH1 0x20 ADD PUSH1 0x20 DUP3 MUL DUP1 CALLDATASIZE DUP4 CALLDATACOPY DUP1 DUP3 ADD SWAP2 POP POP SWAP1 POP JUMPDEST POP SWAP1 POP PUSH0 DUP1 JUMPDEST DUP4 MLOAD DUP2 LT ISZERO PUSH2 0xD50 JUMPI DUP4 DUP2 DUP2 MLOAD DUP2 LT PUSH2 0xCF6 JUMPI PUSH2 0xCF5 PUSH2 0x3C1C JUMP JUMPDEST JUMPDEST PUSH1 0x20 MUL PUSH1 0x20 ADD ADD MLOAD DUP4 DUP3 DUP2 MLOAD DUP2 LT PUSH2 0xD11 JUMPI PUSH2 0xD10 PUSH2 0x3C1C JUMP JUMPDEST JUMPDEST PUSH1 0x20 MUL PUSH1 0x20 ADD ADD DUP2 DUP2 MSTORE POP POP DUP9 DUP5 DUP3 DUP2 MLOAD DUP2 LT PUSH2 0xD31 JUMPI PUSH2 0xD30 PUSH2 0x3C1C JUMP JUMPDEST JUMPDEST PUSH1 0x20 MUL PUSH1 0x20 ADD ADD MLOAD SUB PUSH2 0xD43 JUMPI PUSH1 0x1 SWAP2 POP JUMPDEST DUP1 DUP1 PUSH1 0x1 ADD SWAP2 POP POP PUSH2 0xCDA JUMP JUMPDEST POP DUP1 PUSH2 0xD78 JUMPI DUP8 DUP3 DUP5 MLOAD DUP2 MLOAD DUP2 LT PUSH2 0xD6B JUMPI PUSH2 0xD6A PUSH2 0x3C1C JUMP JUMPDEST JUMPDEST PUSH1 0x20 MUL PUSH1 0x20 ADD ADD DUP2 DUP2 MSTORE POP POP JUMPDEST DUP2 DUP5 PUSH1 0x20 ADD DUP2 SWAP1 MSTORE POP DUP5 PUSH1 0xE0 ADD MLOAD DUP5 PUSH1 0x80 ADD DUP2 DUP2 MLOAD PUSH2 0xD97 SWAP2 SWAP1 PUSH2 0x3BE9 JUMP JUMPDEST SWAP2 POP DUP2 DUP2 MSTORE POP POP PUSH1 0x7 PUSH0 SWAP1 SLOAD SWAP1 PUSH2 0x100 EXP SWAP1 DIV PUSH20 0xFFFFFFFFFFFFFFFFFFFFFFFFFFFFFFFFFFFFFFFF AND PUSH20 0xFFFFFFFFFFFFFFFFFFFFFFFFFFFFFFFFFFFFFFFF AND PUSH4 0x84500001 DUP6 PUSH1 0x40 MLOAD DUP3 PUSH4 0xFFFFFFFF AND PUSH1 0xE0 SHL DUP2 MSTORE PUSH1 0x4 ADD PUSH2 0xDF8 SWAP2 SWAP1 PUSH2 0x3D42 JUMP JUMPDEST PUSH0 PUSH1 0x40 MLOAD DUP1 DUP4 SUB DUP2 PUSH0 DUP8 DUP1 EXTCODESIZE ISZERO DUP1 ISZERO PUSH2 0xE0F JUMPI PUSH0 DUP1 REVERT JUMPDEST POP GAS CALL ISZERO DUP1 ISZERO PUSH2 0xE21 JUMPI RETURNDATASIZE PUSH0 DUP1 RETURNDATACOPY RETURNDATASIZE PUSH0 REVERT JUMPDEST POP POP POP POP PUSH2 0xE75 CALLER DUP7 PUSH1 0xE0 ADD MLOAD PUSH1 0x8 PUSH0 SWAP1 SLOAD SWAP1 PUSH2 0x100 EXP SWAP1 DIV PUSH20 0xFFFFFFFFFFFFFFFFFFFFFFFFFFFFFFFFFFFFFFFF AND PUSH20 0xFFFFFFFFFFFFFFFFFFFFFFFFFFFFFFFFFFFFFFFF AND PUSH2 0x1F94 SWAP1 SWAP3 SWAP2 SWAP1 PUSH4 0xFFFFFFFF AND JUMP JUMPDEST POP POP POP POP POP POP POP POP JUMP JUMPDEST DUP2 DUP1 PUSH20 0xFFFFFFFFFFFFFFFFFFFFFFFFFFFFFFFFFFFFFFFF AND CALLER PUSH20 0xFFFFFFFFFFFFFFFFFFFFFFFFFFFFFFFFFFFFFFFF AND EQ DUP1 PUSH2 0xEED JUMPI POP PUSH2 0xEBE DUP2 PUSH2 0x1B1C JUMP JUMPDEST PUSH20 0xFFFFFFFFFFFFFFFFFFFFFFFFFFFFFFFFFFFFFFFF AND CALLER PUSH20 0xFFFFFFFFFFFFFFFFFFFFFFFFFFFFFFFFFFFFFFFF AND EQ JUMPDEST PUSH2 0xF2C JUMPI PUSH1 0x40 MLOAD PUSH32 0x8C379A000000000000000000000000000000000000000000000000000000000 DUP2 MSTORE PUSH1 0x4 ADD PUSH2 0xF23 SWAP1 PUSH2 0x3DD2 JUMP JUMPDEST PUSH1 0x40 MLOAD DUP1 SWAP2 SUB SWAP1 REVERT JUMPDEST PUSH0 PUSH1 0x7 PUSH0 SWAP1 SLOAD SWAP1 PUSH2 0x100 EXP SWAP1 DIV PUSH20 0xFFFFFFFFFFFFFFFFFFFFFFFFFFFFFFFFFFFFFFFF AND PUSH20 0xFFFFFFFFFFFFFFFFFFFFFFFFFFFFFFFFFFFFFFFF AND PUSH4 0x8AE4B0C DUP6 PUSH1 0x40 MLOAD DUP3 PUSH4 0xFFFFFFFF AND PUSH1 0xE0 SHL DUP2 MSTORE PUSH1 0x4 ADD PUSH2 0xF87 SWAP2 SWAP1 PUSH2 0x2E1F JUMP JUMPDEST PUSH0 PUSH1 0x40 MLOAD DUP1 DUP4 SUB DUP2 DUP7 GAS STATICCALL ISZERO DUP1 ISZERO PUSH2 0xFA1 JUMPI RETURNDATASIZE PUSH0 DUP1 RETURNDATACOPY RETURNDATASIZE PUSH0 REVERT JUMPDEST POP POP POP POP PUSH1 0x40 MLOAD RETURNDATASIZE PUSH0 DUP3 RETURNDATACOPY RETURNDATASIZE PUSH1 0x1F NOT PUSH1 0x1F DUP3 ADD AND DUP3 ADD DUP1 PUSH1 0x40 MSTORE POP DUP2 ADD SWAP1 PUSH2 0xFC9 SWAP2 SWAP1 PUSH2 0x3EBD JUMP JUMPDEST SWAP1 POP DUP3 DUP2 PUSH1 0x20 ADD SWAP1 PUSH20 0xFFFFFFFFFFFFFFFFFFFFFFFFFFFFFFFFFFFFFFFF AND SWAP1 DUP2 PUSH20 0xFFFFFFFFFFFFFFFFFFFFFFFFFFFFFFFFFFFFFFFF AND DUP2 MSTORE POP POP PUSH1 0x7 PUSH0 SWAP1 SLOAD SWAP1 PUSH2 0x100 EXP SWAP1 DIV PUSH20 0xFFFFFFFFFFFFFFFFFFFFFFFFFFFFFFFFFFFFFFFF AND PUSH20 0xFFFFFFFFFFFFFFFFFFFFFFFFFFFFFFFFFFFFFFFF AND PUSH4 0xAF947D05 DUP3 PUSH1 0x40 MLOAD DUP3 PUSH4 0xFFFFFFFF AND PUSH1 0xE0 SHL DUP2 MSTORE PUSH1 0x4 ADD PUSH2 0x105D SWAP2 SWAP1 PUSH2 0x3F9D JUMP JUMPDEST PUSH0 PUSH1 0x40 MLOAD DUP1 DUP4 SUB DUP2 PUSH0 DUP8 DUP1 EXTCODESIZE ISZERO DUP1 ISZERO PUSH2 0x1074 JUMPI PUSH0 DUP1 REVERT JUMPDEST POP GAS CALL ISZERO DUP1 ISZERO PUSH2 0x1086 JUMPI RETURNDATASIZE PUSH0 DUP1 RETURNDATACOPY RETURNDATASIZE PUSH0 REVERT JUMPDEST POP POP POP POP POP POP POP POP JUMP JUMPDEST PUSH2 0x10AA DUP4 DUP4 DUP4 PUSH1 0x40 MLOAD DUP1 PUSH1 0x20 ADD PUSH1 0x40 MSTORE DUP1 PUSH0 DUP2 MSTORE POP PUSH2 0x14DA JUMP JUMPDEST POP POP POP JUMP JUMPDEST PUSH0 PUSH2 0x10B9 DUP3 PUSH2 0x1CB1 JUMP JUMPDEST SWAP1 POP SWAP2 SWAP1 POP JUMP JUMPDEST PUSH2 0x10C8 PUSH2 0x2013 JUMP JUMPDEST DUP1 PUSH1 0x8 PUSH0 PUSH2 0x100 EXP DUP2 SLOAD DUP2 PUSH20 0xFFFFFFFFFFFFFFFFFFFFFFFFFFFFFFFFFFFFFFFF MUL NOT AND SWAP1 DUP4 PUSH20 0xFFFFFFFFFFFFFFFFFFFFFFFFFFFFFFFFFFFFFFFF AND MUL OR SWAP1 SSTORE POP POP JUMP JUMPDEST PUSH0 DUP1 PUSH20 0xFFFFFFFFFFFFFFFFFFFFFFFFFFFFFFFFFFFFFFFF AND DUP3 PUSH20 0xFFFFFFFFFFFFFFFFFFFFFFFFFFFFFFFFFFFFFFFF AND SUB PUSH2 0x117C JUMPI PUSH0 PUSH1 0x40 MLOAD PUSH32 0x89C62B6400000000000000000000000000000000000000000000000000000000 DUP2 MSTORE PUSH1 0x4 ADD PUSH2 0x1173 SWAP2 SWAP1 PUSH2 0x2E1F JUMP JUMPDEST PUSH1 0x40 MLOAD DUP1 SWAP2 SUB SWAP1 REVERT JUMPDEST PUSH1 0x3 PUSH0 DUP4 PUSH20 0xFFFFFFFFFFFFFFFFFFFFFFFFFFFFFFFFFFFFFFFF AND PUSH20 0xFFFFFFFFFFFFFFFFFFFFFFFFFFFFFFFFFFFFFFFF AND DUP2 MSTORE PUSH1 0x20 ADD SWAP1 DUP2 MSTORE PUSH1 0x20 ADD PUSH0 KECCAK256 SLOAD SWAP1 POP SWAP2 SWAP1 POP JUMP JUMPDEST PUSH2 0x11C9 PUSH2 0x2013 JUMP JUMPDEST PUSH2 0x11D2 PUSH0 PUSH2 0x209A JUMP JUMPDEST JUMP JUMPDEST PUSH0 PUSH2 0x11DE DUP6 PUSH2 0x110B JUMP JUMPDEST EQ PUSH2 0x121E JUMPI PUSH1 0x40 MLOAD PUSH32 0x8C379A000000000000000000000000000000000000000000000000000000000 DUP2 MSTORE PUSH1 0x4 ADD PUSH2 0x1215 SWAP1 PUSH2 0x4007 JUMP JUMPDEST PUSH1 0x40 MLOAD DUP1 SWAP2 SUB SWAP1 REVERT JUMPDEST PUSH2 0x128D CALLER PUSH1 0x9 PUSH0 SWAP1 SLOAD SWAP1 PUSH2 0x100 EXP SWAP1 DIV PUSH20 0xFFFFFFFFFFFFFFFFFFFFFFFFFFFFFFFFFFFFFFFF AND DUP4 PUSH1 0x8 PUSH0 SWAP1 SLOAD SWAP1 PUSH2 0x100 EXP SWAP1 DIV PUSH20 0xFFFFFFFFFFFFFFFFFFFFFFFFFFFFFFFFFFFFFFFF AND PUSH20 0xFFFFFFFFFFFFFFFFFFFFFFFFFFFFFFFFFFFFFFFF AND PUSH2 0x215D SWAP1 SWAP4 SWAP3 SWAP2 SWAP1 PUSH4 0xFFFFFFFF AND JUMP JUMPDEST PUSH0 PUSH1 0xA PUSH0 DUP2 SLOAD DUP1 SWAP3 SWAP2 SWAP1 PUSH2 0x12A0 SWAP1 PUSH2 0x4025 JUMP JUMPDEST SWAP2 SWAP1 POP SSTORE SWAP1 POP PUSH2 0x12B0 DUP6 DUP3 PUSH2 0x21DF JUMP JUMPDEST PUSH0 PUSH1 0x40 MLOAD DUP1 PUSH1 0xE0 ADD PUSH1 0x40 MSTORE DUP1 DUP8 PUSH20 0xFFFFFFFFFFFFFFFFFFFFFFFFFFFFFFFFFFFFFFFF AND DUP2 MSTORE PUSH1 0x20 ADD PUSH0 PUSH20 0xFFFFFFFFFFFFFFFFFFFFFFFFFFFFFFFFFFFFFFFF AND DUP2 MSTORE PUSH1 0x20 ADD DUP4 DUP2 MSTORE PUSH1 0x20 ADD DUP7 DUP7 DUP1 DUP1 PUSH1 0x1F ADD PUSH1 0x20 DUP1 SWAP2 DIV MUL PUSH1 0x20 ADD PUSH1 0x40 MLOAD SWAP1 DUP2 ADD PUSH1 0x40 MSTORE DUP1 SWAP4 SWAP3 SWAP2 SWAP1 DUP2 DUP2 MSTORE PUSH1 0x20 ADD DUP4 DUP4 DUP1 DUP3 DUP5 CALLDATACOPY PUSH0 DUP2 DUP5 ADD MSTORE PUSH1 0x1F NOT PUSH1 0x1F DUP3 ADD AND SWAP1 POP DUP1 DUP4 ADD SWAP3 POP POP POP POP POP POP POP DUP2 MSTORE PUSH1 0x20 ADD TIMESTAMP DUP2 MSTORE PUSH1 0x20 ADD PUSH0 DUP2 MSTORE PUSH1 0x20 ADD PUSH1 0x1 ISZERO ISZERO DUP2 MSTORE POP SWAP1 POP PUSH1 0x7 PUSH0 SWAP1 SLOAD SWAP1 PUSH2 0x100 EXP SWAP1 DIV PUSH20 0xFFFFFFFFFFFFFFFFFFFFFFFFFFFFFFFFFFFFFFFF AND PUSH20 0xFFFFFFFFFFFFFFFFFFFFFFFFFFFFFFFFFFFFFFFF AND PUSH4 0xAF947D05 DUP3 PUSH1 0x40 MLOAD DUP3 PUSH4 0xFFFFFFFF AND PUSH1 0xE0 SHL DUP2 MSTORE PUSH1 0x4 ADD PUSH2 0x13B2 SWAP2 SWAP1 PUSH2 0x3F9D JUMP JUMPDEST PUSH0 PUSH1 0x40 MLOAD DUP1 DUP4 SUB DUP2 PUSH0 DUP8 DUP1 EXTCODESIZE ISZERO DUP1 ISZERO PUSH2 0x13C9 JUMPI PUSH0 DUP1 REVERT JUMPDEST POP GAS CALL ISZERO DUP1 ISZERO PUSH2 0x13DB JUMPI RETURNDATASIZE PUSH0 DUP1 RETURNDATACOPY RETURNDATASIZE PUSH0 REVERT JUMPDEST POP POP POP POP POP POP POP POP POP POP JUMP JUMPDEST PUSH0 PUSH1 0x6 PUSH0 SWAP1 SLOAD SWAP1 PUSH2 0x100 EXP SWAP1 DIV PUSH20 0xFFFFFFFFFFFFFFFFFFFFFFFFFFFFFFFFFFFFFFFF AND SWAP1 POP SWAP1 JUMP JUMPDEST PUSH1 0x60 PUSH1 0x1 DUP1 SLOAD PUSH2 0x141E SWAP1 PUSH2 0x3471 JUMP JUMPDEST DUP1 PUSH1 0x1F ADD PUSH1 0x20 DUP1 SWAP2 DIV MUL PUSH1 0x20 ADD PUSH1 0x40 MLOAD SWAP1 DUP2 ADD PUSH1 0x40 MSTORE DUP1 SWAP3 SWAP2 SWAP1 DUP2 DUP2 MSTORE PUSH1 0x20 ADD DUP3 DUP1 SLOAD PUSH2 0x144A SWAP1 PUSH2 0x3471 JUMP JUMPDEST DUP1 ISZERO PUSH2 0x1495 JUMPI DUP1 PUSH1 0x1F LT PUSH2 0x146C JUMPI PUSH2 0x100 DUP1 DUP4 SLOAD DIV MUL DUP4 MSTORE SWAP2 PUSH1 0x20 ADD SWAP2 PUSH2 0x1495 JUMP JUMPDEST DUP3 ADD SWAP2 SWAP1 PUSH0 MSTORE PUSH1 0x20 PUSH0 KECCAK256 SWAP1 JUMPDEST DUP2 SLOAD DUP2 MSTORE SWAP1 PUSH1 0x1 ADD SWAP1 PUSH1 0x20 ADD DUP1 DUP4 GT PUSH2 0x1478 JUMPI DUP3 SWAP1 SUB PUSH1 0x1F AND DUP3 ADD SWAP2 JUMPDEST POP POP POP POP POP SWAP1 POP SWAP1 JUMP JUMPDEST PUSH1 0x9 PUSH0 SWAP1 SLOAD SWAP1 PUSH2 0x100 EXP SWAP1 DIV PUSH20 0xFFFFFFFFFFFFFFFFFFFFFFFFFFFFFFFFFFFFFFFF AND DUP2 JUMP JUMPDEST PUSH2 0x14D6 PUSH2 0x14CF PUSH2 0x1D70 JUMP JUMPDEST DUP4 DUP4 PUSH2 0x22D2 JUMP JUMPDEST POP POP JUMP JUMPDEST PUSH2 0x14E5 DUP5 DUP5 DUP5 PUSH2 0x6FF JUMP JUMPDEST PUSH2 0x14F9 PUSH2 0x14F0 PUSH2 0x1D70 JUMP JUMPDEST DUP6 DUP6 DUP6 DUP6 PUSH2 0x243B JUMP JUMPDEST POP POP POP POP JUMP JUMPDEST CALLER DUP1 PUSH20 0xFFFFFFFFFFFFFFFFFFFFFFFFFFFFFFFFFFFFFFFF AND CALLER PUSH20 0xFFFFFFFFFFFFFFFFFFFFFFFFFFFFFFFFFFFFFFFF AND EQ DUP1 PUSH2 0x156D JUMPI POP PUSH2 0x153E DUP2 PUSH2 0x1B1C JUMP JUMPDEST PUSH20 0xFFFFFFFFFFFFFFFFFFFFFFFFFFFFFFFFFFFFFFFF AND CALLER PUSH20 0xFFFFFFFFFFFFFFFFFFFFFFFFFFFFFFFFFFFFFFFF AND EQ JUMPDEST PUSH2 0x15AC JUMPI PUSH1 0x40 MLOAD PUSH32 0x8C379A000000000000000000000000000000000000000000000000000000000 DUP2 MSTORE PUSH1 0x4 ADD PUSH2 0x15A3 SWAP1 PUSH2 0x3DD2 JUMP JUMPDEST PUSH1 0x40 MLOAD DUP1 SWAP2 SUB SWAP1 REVERT JUMPDEST PUSH0 PUSH2 0x15B6 CALLER PUSH2 0x110B JUMP JUMPDEST GT PUSH2 0x15F6 JUMPI PUSH1 0x40 MLOAD PUSH32 0x8C379A000000000000000000000000000000000000000000000000000000000 DUP2 MSTORE PUSH1 0x4 ADD PUSH2 0x15ED SWAP1 PUSH2 0x40B6 JUMP JUMPDEST PUSH1 0x40 MLOAD DUP1 SWAP2 SUB SWAP1 REVERT JUMPDEST PUSH0 PUSH1 0x7 PUSH0 SWAP1 SLOAD SWAP1 PUSH2 0x100 EXP SWAP1 DIV PUSH20 0xFFFFFFFFFFFFFFFFFFFFFFFFFFFFFFFFFFFFFFFF AND PUSH20 0xFFFFFFFFFFFFFFFFFFFFFFFFFFFFFFFFFFFFFFFF AND PUSH4 0x84DC0806 PUSH1 0x40 MLOAD DUP2 PUSH4 0xFFFFFFFF AND PUSH1 0xE0 SHL DUP2 MSTORE PUSH1 0x4 ADD PUSH1 0x20 PUSH1 0x40 MLOAD DUP1 DUP4 SUB DUP2 PUSH0 DUP8 GAS CALL ISZERO DUP1 ISZERO PUSH2 0x1662 JUMPI RETURNDATASIZE PUSH0 DUP1 RETURNDATACOPY RETURNDATASIZE PUSH0 REVERT JUMPDEST POP POP POP POP PUSH1 0x40 MLOAD RETURNDATASIZE PUSH1 0x1F NOT PUSH1 0x1F DUP3 ADD AND DUP3 ADD DUP1 PUSH1 0x40 MSTORE POP DUP2 ADD SWAP1 PUSH2 0x1686 SWAP2 SWAP1 PUSH2 0x40D4 JUMP JUMPDEST SWAP1 POP PUSH0 PUSH1 0x40 MLOAD DUP1 PUSH2 0x100 ADD PUSH1 0x40 MSTORE DUP1 DUP4 DUP2 MSTORE PUSH1 0x20 ADD CALLER PUSH20 0xFFFFFFFFFFFFFFFFFFFFFFFFFFFFFFFFFFFFFFFF AND DUP2 MSTORE PUSH1 0x20 ADD DUP9 PUSH20 0xFFFFFFFFFFFFFFFFFFFFFFFFFFFFFFFFFFFFFFFF AND DUP2 MSTORE PUSH1 0x20 ADD DUP8 DUP8 DUP1 DUP1 PUSH1 0x1F ADD PUSH1 0x20 DUP1 SWAP2 DIV MUL PUSH1 0x20 ADD PUSH1 0x40 MLOAD SWAP1 DUP2 ADD PUSH1 0x40 MSTORE DUP1 SWAP4 SWAP3 SWAP2 SWAP1 DUP2 DUP2 MSTORE PUSH1 0x20 ADD DUP4 DUP4 DUP1 DUP3 DUP5 CALLDATACOPY PUSH0 DUP2 DUP5 ADD MSTORE PUSH1 0x1F NOT PUSH1 0x1F DUP3 ADD AND SWAP1 POP DUP1 DUP4 ADD SWAP3 POP POP POP POP POP POP POP DUP2 MSTORE PUSH1 0x20 ADD TIMESTAMP DUP2 MSTORE PUSH1 0x20 ADD PUSH0 DUP2 MSTORE PUSH1 0x20 ADD PUSH0 ISZERO ISZERO DUP2 MSTORE PUSH1 0x20 ADD DUP6 DUP2 MSTORE POP SWAP1 POP PUSH1 0x7 PUSH0 SWAP1 SLOAD SWAP1 PUSH2 0x100 EXP SWAP1 DIV PUSH20 0xFFFFFFFFFFFFFFFFFFFFFFFFFFFFFFFFFFFFFFFF AND PUSH20 0xFFFFFFFFFFFFFFFFFFFFFFFFFFFFFFFFFFFFFFFF AND PUSH4 0xF47BE477 DUP3 PUSH1 0x40 MLOAD DUP3 PUSH4 0xFFFFFFFF AND PUSH1 0xE0 SHL DUP2 MSTORE PUSH1 0x4 ADD PUSH2 0x1790 SWAP2 SWAP1 PUSH2 0x3B9C JUMP JUMPDEST PUSH0 PUSH1 0x40 MLOAD DUP1 DUP4 SUB DUP2 PUSH0 DUP8 DUP1 EXTCODESIZE ISZERO DUP1 ISZERO PUSH2 0x17A7 JUMPI PUSH0 DUP1 REVERT JUMPDEST POP GAS CALL ISZERO DUP1 ISZERO PUSH2 0x17B9 JUMPI RETURNDATASIZE PUSH0 DUP1 RETURNDATACOPY RETURNDATASIZE PUSH0 REVERT JUMPDEST POP POP POP POP PUSH2 0x180B CALLER ADDRESS DUP7 PUSH1 0x8 PUSH0 SWAP1 SLOAD SWAP1 PUSH2 0x100 EXP SWAP1 DIV PUSH20 0xFFFFFFFFFFFFFFFFFFFFFFFFFFFFFFFFFFFFFFFF AND PUSH20 0xFFFFFFFFFFFFFFFFFFFFFFFFFFFFFFFFFFFFFFFF AND PUSH2 0x215D SWAP1 SWAP4 SWAP3 SWAP2 SWAP1 PUSH4 0xFFFFFFFF AND JUMP JUMPDEST POP POP POP POP POP POP POP JUMP JUMPDEST PUSH1 0x60 PUSH2 0x181F DUP3 PUSH2 0x1CB1 JUMP JUMPDEST POP PUSH0 PUSH2 0x1829 PUSH2 0x25E7 JUMP JUMPDEST SWAP1 POP PUSH0 DUP2 MLOAD GT PUSH2 0x1847 JUMPI PUSH1 0x40 MLOAD DUP1 PUSH1 0x20 ADD PUSH1 0x40 MSTORE DUP1 PUSH0 DUP2 MSTORE POP PUSH2 0x1872 JUMP JUMPDEST DUP1 PUSH2 0x1851 DUP5 PUSH2 0x25FD JUMP JUMPDEST PUSH1 0x40 MLOAD PUSH1 0x20 ADD PUSH2 0x1862 SWAP3 SWAP2 SWAP1 PUSH2 0x4139 JUMP JUMPDEST PUSH1 0x40 MLOAD PUSH1 0x20 DUP2 DUP4 SUB SUB DUP2 MSTORE SWAP1 PUSH1 0x40 MSTORE JUMPDEST SWAP2 POP POP SWAP2 SWAP1 POP JUMP JUMPDEST PUSH2 0x1882 PUSH2 0x2013 JUMP JUMPDEST PUSH0 PUSH1 0x40 MLOAD DUP1 PUSH1 0xC0 ADD PUSH1 0x40 MSTORE DUP1 DUP6 PUSH20 0xFFFFFFFFFFFFFFFFFFFFFFFFFFFFFFFFFFFFFFFF AND DUP2 MSTORE PUSH1 0x20 ADD PUSH0 PUSH8 0xFFFFFFFFFFFFFFFF DUP2 GT ISZERO PUSH2 0x18C4 JUMPI PUSH2 0x18C3 PUSH2 0x316C JUMP JUMPDEST JUMPDEST PUSH1 0x40 MLOAD SWAP1 DUP1 DUP3 MSTORE DUP1 PUSH1 0x20 MUL PUSH1 0x20 ADD DUP3 ADD PUSH1 0x40 MSTORE DUP1 ISZERO PUSH2 0x18F2 JUMPI DUP2 PUSH1 0x20 ADD PUSH1 0x20 DUP3 MUL DUP1 CALLDATASIZE DUP4 CALLDATACOPY DUP1 DUP3 ADD SWAP2 POP POP SWAP1 POP JUMPDEST POP DUP2 MSTORE PUSH1 0x20 ADD DUP5 DUP5 DUP1 DUP1 PUSH1 0x1F ADD PUSH1 0x20 DUP1 SWAP2 DIV MUL PUSH1 0x20 ADD PUSH1 0x40 MLOAD SWAP1 DUP2 ADD PUSH1 0x40 MSTORE DUP1 SWAP4 SWAP3 SWAP2 SWAP1 DUP2 DUP2 MSTORE PUSH1 0x20 ADD DUP4 DUP4 DUP1 DUP3 DUP5 CALLDATACOPY PUSH0 DUP2 DUP5 ADD MSTORE PUSH1 0x1F NOT PUSH1 0x1F DUP3 ADD AND SWAP1 POP DUP1 DUP4 ADD SWAP3 POP POP POP POP POP POP POP DUP2 MSTORE PUSH1 0x20 ADD TIMESTAMP DUP2 MSTORE PUSH1 0x20 ADD PUSH0 DUP2 MSTORE PUSH1 0x20 ADD PUSH1 0x1 ISZERO ISZERO DUP2 MSTORE POP SWAP1 POP PUSH1 0x7 PUSH0 SWAP1 SLOAD SWAP1 PUSH2 0x100 EXP SWAP1 DIV PUSH20 0xFFFFFFFFFFFFFFFFFFFFFFFFFFFFFFFFFFFFFFFF AND PUSH20 0xFFFFFFFFFFFFFFFFFFFFFFFFFFFFFFFFFFFFFFFF AND PUSH4 0x84500001 DUP3 PUSH1 0x40 MLOAD DUP3 PUSH4 0xFFFFFFFF AND PUSH1 0xE0 SHL DUP2 MSTORE PUSH1 0x4 ADD PUSH2 0x19B0 SWAP2 SWAP1 PUSH2 0x3D42 JUMP JUMPDEST PUSH0 PUSH1 0x40 MLOAD DUP1 DUP4 SUB DUP2 PUSH0 DUP8 DUP1 EXTCODESIZE ISZERO DUP1 ISZERO PUSH2 0x19C7 JUMPI PUSH0 DUP1 REVERT JUMPDEST POP GAS CALL ISZERO DUP1 ISZERO PUSH2 0x19D9 JUMPI RETURNDATASIZE PUSH0 DUP1 RETURNDATACOPY RETURNDATASIZE PUSH0 REVERT JUMPDEST POP POP POP POP POP POP POP POP JUMP JUMPDEST PUSH1 0x60 PUSH0 PUSH1 0x7 PUSH0 SWAP1 SLOAD SWAP1 PUSH2 0x100 EXP SWAP1 DIV PUSH20 0xFFFFFFFFFFFFFFFFFFFFFFFFFFFFFFFFFFFFFFFF AND PUSH20 0xFFFFFFFFFFFFFFFFFFFFFFFFFFFFFFFFFFFFFFFF AND PUSH4 0x8BFEFFE5 DUP5 PUSH1 0x40 MLOAD DUP3 PUSH4 0xFFFFFFFF AND PUSH1 0xE0 SHL DUP2 MSTORE PUSH1 0x4 ADD PUSH2 0x1A40 SWAP2 SWAP1 PUSH2 0x2E1F JUMP JUMPDEST PUSH0 PUSH1 0x40 MLOAD DUP1 DUP4 SUB DUP2 DUP7 GAS STATICCALL ISZERO DUP1 ISZERO PUSH2 0x1A5A JUMPI RETURNDATASIZE PUSH0 DUP1 RETURNDATACOPY RETURNDATASIZE PUSH0 REVERT JUMPDEST POP POP POP POP PUSH1 0x40 MLOAD RETURNDATASIZE PUSH0 DUP3 RETURNDATACOPY RETURNDATASIZE PUSH1 0x1F NOT PUSH1 0x1F DUP3 ADD AND DUP3 ADD DUP1 PUSH1 0x40 MSTORE POP DUP2 ADD SWAP1 PUSH2 0x1A82 SWAP2 SWAP1 PUSH2 0x415C JUMP JUMPDEST POP SWAP1 POP DUP1 SWAP2 POP POP SWAP2 SWAP1 POP JUMP JUMPDEST PUSH0 PUSH1 0x5 PUSH0 DUP5 PUSH20 0xFFFFFFFFFFFFFFFFFFFFFFFFFFFFFFFFFFFFFFFF AND PUSH20 0xFFFFFFFFFFFFFFFFFFFFFFFFFFFFFFFFFFFFFFFF AND DUP2 MSTORE PUSH1 0x20 ADD SWAP1 DUP2 MSTORE PUSH1 0x20 ADD PUSH0 KECCAK256 PUSH0 DUP4 PUSH20 0xFFFFFFFFFFFFFFFFFFFFFFFFFFFFFFFFFFFFFFFF AND PUSH20 0xFFFFFFFFFFFFFFFFFFFFFFFFFFFFFFFFFFFFFFFF AND DUP2 MSTORE PUSH1 0x20 ADD SWAP1 DUP2 MSTORE PUSH1 0x20 ADD PUSH0 KECCAK256 PUSH0 SWAP1 SLOAD SWAP1 PUSH2 0x100 EXP SWAP1 DIV PUSH1 0xFF AND SWAP1 POP SWAP3 SWAP2 POP POP JUMP JUMPDEST PUSH0 PUSH1 0x7 PUSH0 SWAP1 SLOAD SWAP1 PUSH2 0x100 EXP SWAP1 DIV PUSH20 0xFFFFFFFFFFFFFFFFFFFFFFFFFFFFFFFFFFFFFFFF AND PUSH20 0xFFFFFFFFFFFFFFFFFFFFFFFFFFFFFFFFFFFFFFFF AND PUSH4 0x8AE4B0C DUP4 PUSH1 0x40 MLOAD DUP3 PUSH4 0xFFFFFFFF AND PUSH1 0xE0 SHL DUP2 MSTORE PUSH1 0x4 ADD PUSH2 0x1B77 SWAP2 SWAP1 PUSH2 0x2E1F JUMP JUMPDEST PUSH0 PUSH1 0x40 MLOAD DUP1 DUP4 SUB DUP2 DUP7 GAS STATICCALL ISZERO DUP1 ISZERO PUSH2 0x1B91 JUMPI RETURNDATASIZE PUSH0 DUP1 RETURNDATACOPY RETURNDATASIZE PUSH0 REVERT JUMPDEST POP POP POP POP PUSH1 0x40 MLOAD RETURNDATASIZE PUSH0 DUP3 RETURNDATACOPY RETURNDATASIZE PUSH1 0x1F NOT PUSH1 0x1F DUP3 ADD AND DUP3 ADD DUP1 PUSH1 0x40 MSTORE POP DUP2 ADD SWAP1 PUSH2 0x1BB9 SWAP2 SWAP1 PUSH2 0x3EBD JUMP JUMPDEST PUSH1 0x20 ADD MLOAD SWAP1 POP SWAP2 SWAP1 POP JUMP JUMPDEST PUSH2 0x1BCC PUSH2 0x2013 JUMP JUMPDEST PUSH0 PUSH20 0xFFFFFFFFFFFFFFFFFFFFFFFFFFFFFFFFFFFFFFFF AND DUP2 PUSH20 0xFFFFFFFFFFFFFFFFFFFFFFFFFFFFFFFFFFFFFFFF AND SUB PUSH2 0x1C3C JUMPI PUSH0 PUSH1 0x40 MLOAD PUSH32 0x1E4FBDF700000000000000000000000000000000000000000000000000000000 DUP2 MSTORE PUSH1 0x4 ADD PUSH2 0x1C33 SWAP2 SWAP1 PUSH2 0x2E1F JUMP JUMPDEST PUSH1 0x40 MLOAD DUP1 SWAP2 SUB SWAP1 REVERT JUMPDEST PUSH2 0x1C45 DUP2 PUSH2 0x209A JUMP JUMPDEST POP JUMP JUMPDEST PUSH0 PUSH32 0x1FFC9A700000000000000000000000000000000000000000000000000000000 PUSH28 0xFFFFFFFFFFFFFFFFFFFFFFFFFFFFFFFFFFFFFFFFFFFFFFFFFFFFFFFF NOT AND DUP3 PUSH28 0xFFFFFFFFFFFFFFFFFFFFFFFFFFFFFFFFFFFFFFFFFFFFFFFFFFFFFFFF NOT AND EQ SWAP1 POP SWAP2 SWAP1 POP JUMP JUMPDEST PUSH0 DUP1 PUSH2 0x1CBC DUP4 PUSH2 0x26C7 JUMP JUMPDEST SWAP1 POP PUSH0 PUSH20 0xFFFFFFFFFFFFFFFFFFFFFFFFFFFFFFFFFFFFFFFF AND DUP2 PUSH20 0xFFFFFFFFFFFFFFFFFFFFFFFFFFFFFFFFFFFFFFFF AND SUB PUSH2 0x1D2E JUMPI DUP3 PUSH1 0x40 MLOAD PUSH32 0x7E27328900000000000000000000000000000000000000000000000000000000 DUP2 MSTORE PUSH1 0x4 ADD PUSH2 0x1D25 SWAP2 SWAP1 PUSH2 0x3015 JUMP JUMPDEST PUSH1 0x40 MLOAD DUP1 SWAP2 SUB SWAP1 REVERT JUMPDEST DUP1 SWAP2 POP POP SWAP2 SWAP1 POP JUMP JUMPDEST PUSH0 PUSH1 0x4 PUSH0 DUP4 DUP2 MSTORE PUSH1 0x20 ADD SWAP1 DUP2 MSTORE PUSH1 0x20 ADD PUSH0 KECCAK256 PUSH0 SWAP1 SLOAD SWAP1 PUSH2 0x100 EXP SWAP1 DIV PUSH20 0xFFFFFFFFFFFFFFFFFFFFFFFFFFFFFFFFFFFFFFFF AND SWAP1 POP SWAP2 SWAP1 POP JUMP JUMPDEST PUSH0 CALLER SWAP1 POP SWAP1 JUMP JUMPDEST PUSH2 0x1D84 DUP4 DUP4 DUP4 PUSH1 0x1 PUSH2 0x2700 JUMP JUMPDEST POP POP POP JUMP JUMPDEST PUSH0 DUP1 PUSH2 0x1D94 DUP5 PUSH2 0x26C7 JUMP JUMPDEST SWAP1 POP PUSH0 PUSH20 0xFFFFFFFFFFFFFFFFFFFFFFFFFFFFFFFFFFFFFFFF AND DUP4 PUSH20 0xFFFFFFFFFFFFFFFFFFFFFFFFFFFFFFFFFFFFFFFF AND EQ PUSH2 0x1DD5 JUMPI PUSH2 0x1DD4 DUP2 DUP5 DUP7 PUSH2 0x28BF JUMP JUMPDEST JUMPDEST PUSH0 PUSH20 0xFFFFFFFFFFFFFFFFFFFFFFFFFFFFFFFFFFFFFFFF AND DUP2 PUSH20 0xFFFFFFFFFFFFFFFFFFFFFFFFFFFFFFFFFFFFFFFF AND EQ PUSH2 0x1E60 JUMPI PUSH2 0x1E14 PUSH0 DUP6 PUSH0 DUP1 PUSH2 0x2700 JUMP JUMPDEST PUSH1 0x1 PUSH1 0x3 PUSH0 DUP4 PUSH20 0xFFFFFFFFFFFFFFFFFFFFFFFFFFFFFFFFFFFFFFFF AND PUSH20 0xFFFFFFFFFFFFFFFFFFFFFFFFFFFFFFFFFFFFFFFF AND DUP2 MSTORE PUSH1 0x20 ADD SWAP1 DUP2 MSTORE PUSH1 0x20 ADD PUSH0 KECCAK256 PUSH0 DUP3 DUP3 SLOAD SUB SWAP3 POP POP DUP2 SWAP1 SSTORE POP JUMPDEST PUSH0 PUSH20 0xFFFFFFFFFFFFFFFFFFFFFFFFFFFFFFFFFFFFFFFF AND DUP6 PUSH20 0xFFFFFFFFFFFFFFFFFFFFFFFFFFFFFFFFFFFFFFFF AND EQ PUSH2 0x1EDF JUMPI PUSH1 0x1 PUSH1 0x3 PUSH0 DUP8 PUSH20 0xFFFFFFFFFFFFFFFFFFFFFFFFFFFFFFFFFFFFFFFF AND PUSH20 0xFFFFFFFFFFFFFFFFFFFFFFFFFFFFFFFFFFFFFFFF AND DUP2 MSTORE PUSH1 0x20 ADD SWAP1 DUP2 MSTORE PUSH1 0x20 ADD PUSH0 KECCAK256 PUSH0 DUP3 DUP3 SLOAD ADD SWAP3 POP POP DUP2 SWAP1 SSTORE POP JUMPDEST DUP5 PUSH1 0x2 PUSH0 DUP7 DUP2 MSTORE PUSH1 0x20 ADD SWAP1 DUP2 MSTORE PUSH1 0x20 ADD PUSH0 KECCAK256 PUSH0 PUSH2 0x100 EXP DUP2 SLOAD DUP2 PUSH20 0xFFFFFFFFFFFFFFFFFFFFFFFFFFFFFFFFFFFFFFFF MUL NOT AND SWAP1 DUP4 PUSH20 0xFFFFFFFFFFFFFFFFFFFFFFFFFFFFFFFFFFFFFFFF AND MUL OR SWAP1 SSTORE POP DUP4 DUP6 PUSH20 0xFFFFFFFFFFFFFFFFFFFFFFFFFFFFFFFFFFFFFFFF AND DUP3 PUSH20 0xFFFFFFFFFFFFFFFFFFFFFFFFFFFFFFFFFFFFFFFF AND PUSH32 0xDDF252AD1BE2C89B69C2B068FC378DAA952BA7F163C4A11628F55A4DF523B3EF PUSH1 0x40 MLOAD PUSH1 0x40 MLOAD DUP1 SWAP2 SUB SWAP1 LOG4 DUP1 SWAP2 POP POP SWAP4 SWAP3 POP POP POP JUMP JUMPDEST PUSH2 0x200E DUP4 DUP5 PUSH20 0xFFFFFFFFFFFFFFFFFFFFFFFFFFFFFFFFFFFFFFFF AND PUSH4 0xA9059CBB DUP6 DUP6 PUSH1 0x40 MLOAD PUSH1 0x24 ADD PUSH2 0x1FC7 SWAP3 SWAP2 SWAP1 PUSH2 0x41D2 JUMP JUMPDEST PUSH1 0x40 MLOAD PUSH1 0x20 DUP2 DUP4 SUB SUB DUP2 MSTORE SWAP1 PUSH1 0x40 MSTORE SWAP2 POP PUSH1 0xE0 SHL PUSH1 0x20 DUP3 ADD DUP1 MLOAD PUSH28 0xFFFFFFFFFFFFFFFFFFFFFFFFFFFFFFFFFFFFFFFFFFFFFFFFFFFFFFFF DUP4 DUP2 DUP4 AND OR DUP4 MSTORE POP POP POP POP PUSH2 0x2982 JUMP JUMPDEST POP POP POP JUMP JUMPDEST PUSH2 0x201B PUSH2 0x1D70 JUMP JUMPDEST PUSH20 0xFFFFFFFFFFFFFFFFFFFFFFFFFFFFFFFFFFFFFFFF AND PUSH2 0x2039 PUSH2 0x13E7 JUMP JUMPDEST PUSH20 0xFFFFFFFFFFFFFFFFFFFFFFFFFFFFFFFFFFFFFFFF AND EQ PUSH2 0x2098 JUMPI PUSH2 0x205C PUSH2 0x1D70 JUMP JUMPDEST PUSH1 0x40 MLOAD PUSH32 0x118CDAA700000000000000000000000000000000000000000000000000000000 DUP2 MSTORE PUSH1 0x4 ADD PUSH2 0x208F SWAP2 SWAP1 PUSH2 0x2E1F JUMP JUMPDEST PUSH1 0x40 MLOAD DUP1 SWAP2 SUB SWAP1 REVERT JUMPDEST JUMP JUMPDEST PUSH0 PUSH1 0x6 PUSH0 SWAP1 SLOAD SWAP1 PUSH2 0x100 EXP SWAP1 DIV PUSH20 0xFFFFFFFFFFFFFFFFFFFFFFFFFFFFFFFFFFFFFFFF AND SWAP1 POP DUP2 PUSH1 0x6 PUSH0 PUSH2 0x100 EXP DUP2 SLOAD DUP2 PUSH20 0xFFFFFFFFFFFFFFFFFFFFFFFFFFFFFFFFFFFFFFFF MUL NOT AND SWAP1 DUP4 PUSH20 0xFFFFFFFFFFFFFFFFFFFFFFFFFFFFFFFFFFFFFFFF AND MUL OR SWAP1 SSTORE POP DUP2 PUSH20 0xFFFFFFFFFFFFFFFFFFFFFFFFFFFFFFFFFFFFFFFF AND DUP2 PUSH20 0xFFFFFFFFFFFFFFFFFFFFFFFFFFFFFFFFFFFFFFFF AND PUSH32 0x8BE0079C531659141344CD1FD0A4F28419497F9722A3DAAFE3B4186F6B6457E0 PUSH1 0x40 MLOAD PUSH1 0x40 MLOAD DUP1 SWAP2 SUB SWAP1 LOG3 POP POP JUMP JUMPDEST PUSH2 0x21D9 DUP5 DUP6 PUSH20 0xFFFFFFFFFFFFFFFFFFFFFFFFFFFFFFFFFFFFFFFF AND PUSH4 0x23B872DD DUP7 DUP7 DUP7 PUSH1 0x40 MLOAD PUSH1 0x24 ADD PUSH2 0x2192 SWAP4 SWAP3 SWAP2 SWAP1 PUSH2 0x41F9 JUMP JUMPDEST PUSH1 0x40 MLOAD PUSH1 0x20 DUP2 DUP4 SUB SUB DUP2 MSTORE SWAP1 PUSH1 0x40 MSTORE SWAP2 POP PUSH1 0xE0 SHL PUSH1 0x20 DUP3 ADD DUP1 MLOAD PUSH28 0xFFFFFFFFFFFFFFFFFFFFFFFFFFFFFFFFFFFFFFFFFFFFFFFFFFFFFFFF DUP4 DUP2 DUP4 AND OR DUP4 MSTORE POP POP POP POP PUSH2 0x2982 JUMP JUMPDEST POP POP POP POP JUMP JUMPDEST PUSH0 PUSH20 0xFFFFFFFFFFFFFFFFFFFFFFFFFFFFFFFFFFFFFFFF AND DUP3 PUSH20 0xFFFFFFFFFFFFFFFFFFFFFFFFFFFFFFFFFFFFFFFF AND SUB PUSH2 0x224F JUMPI PUSH0 PUSH1 0x40 MLOAD PUSH32 0x64A0AE9200000000000000000000000000000000000000000000000000000000 DUP2 MSTORE PUSH1 0x4 ADD PUSH2 0x2246 SWAP2 SWAP1 PUSH2 0x2E1F JUMP JUMPDEST PUSH1 0x40 MLOAD DUP1 SWAP2 SUB SWAP1 REVERT JUMPDEST PUSH0 PUSH2 0x225B DUP4 DUP4 PUSH0 PUSH2 0x1D89 JUMP JUMPDEST SWAP1 POP PUSH0 PUSH20 0xFFFFFFFFFFFFFFFFFFFFFFFFFFFFFFFFFFFFFFFF AND DUP2 PUSH20 0xFFFFFFFFFFFFFFFFFFFFFFFFFFFFFFFFFFFFFFFF AND EQ PUSH2 0x22CD JUMPI PUSH0 PUSH1 0x40 MLOAD PUSH32 0x73C6AC6E00000000000000000000000000000000000000000000000000000000 DUP2 MSTORE PUSH1 0x4 ADD PUSH2 0x22C4 SWAP2 SWAP1 PUSH2 0x2E1F JUMP JUMPDEST PUSH1 0x40 MLOAD DUP1 SWAP2 SUB SWAP1 REVERT JUMPDEST POP POP POP JUMP JUMPDEST PUSH0 PUSH20 0xFFFFFFFFFFFFFFFFFFFFFFFFFFFFFFFFFFFFFFFF AND DUP3 PUSH20 0xFFFFFFFFFFFFFFFFFFFFFFFFFFFFFFFFFFFFFFFF AND SUB PUSH2 0x2342 JUMPI DUP2 PUSH1 0x40 MLOAD PUSH32 0x5B08BA1800000000000000000000000000000000000000000000000000000000 DUP2 MSTORE PUSH1 0x4 ADD PUSH2 0x2339 SWAP2 SWAP1 PUSH2 0x2E1F JUMP JUMPDEST PUSH1 0x40 MLOAD DUP1 SWAP2 SUB SWAP1 REVERT JUMPDEST DUP1 PUSH1 0x5 PUSH0 DUP6 PUSH20 0xFFFFFFFFFFFFFFFFFFFFFFFFFFFFFFFFFFFFFFFF AND PUSH20 0xFFFFFFFFFFFFFFFFFFFFFFFFFFFFFFFFFFFFFFFF AND DUP2 MSTORE PUSH1 0x20 ADD SWAP1 DUP2 MSTORE PUSH1 0x20 ADD PUSH0 KECCAK256 PUSH0 DUP5 PUSH20 0xFFFFFFFFFFFFFFFFFFFFFFFFFFFFFFFFFFFFFFFF AND PUSH20 0xFFFFFFFFFFFFFFFFFFFFFFFFFFFFFFFFFFFFFFFF AND DUP2 MSTORE PUSH1 0x20 ADD SWAP1 DUP2 MSTORE PUSH1 0x20 ADD PUSH0 KECCAK256 PUSH0 PUSH2 0x100 EXP DUP2 SLOAD DUP2 PUSH1 0xFF MUL NOT AND SWAP1 DUP4 ISZERO ISZERO MUL OR SWAP1 SSTORE POP DUP2 PUSH20 0xFFFFFFFFFFFFFFFFFFFFFFFFFFFFFFFFFFFFFFFF AND DUP4 PUSH20 0xFFFFFFFFFFFFFFFFFFFFFFFFFFFFFFFFFFFFFFFF AND PUSH32 0x17307EAB39AB6107E8899845AD3D59BD9653F200F220920489CA2B5937696C31 DUP4 PUSH1 0x40 MLOAD PUSH2 0x242E SWAP2 SWAP1 PUSH2 0x2CD9 JUMP JUMPDEST PUSH1 0x40 MLOAD DUP1 SWAP2 SUB SWAP1 LOG3 POP POP POP JUMP JUMPDEST PUSH0 DUP4 PUSH20 0xFFFFFFFFFFFFFFFFFFFFFFFFFFFFFFFFFFFFFFFF AND EXTCODESIZE GT ISZERO PUSH2 0x25E0 JUMPI DUP3 PUSH20 0xFFFFFFFFFFFFFFFFFFFFFFFFFFFFFFFFFFFFFFFF AND PUSH4 0x150B7A02 DUP7 DUP7 DUP6 DUP6 PUSH1 0x40 MLOAD DUP6 PUSH4 0xFFFFFFFF AND PUSH1 0xE0 SHL DUP2 MSTORE PUSH1 0x4 ADD PUSH2 0x2499 SWAP5 SWAP4 SWAP3 SWAP2 SWAP1 PUSH2 0x4280 JUMP JUMPDEST PUSH1 0x20 PUSH1 0x40 MLOAD DUP1 DUP4 SUB DUP2 PUSH0 DUP8 GAS CALL SWAP3 POP POP POP DUP1 ISZERO PUSH2 0x24D4 JUMPI POP PUSH1 0x40 MLOAD RETURNDATASIZE PUSH1 0x1F NOT PUSH1 0x1F DUP3 ADD AND DUP3 ADD DUP1 PUSH1 0x40 MSTORE POP DUP2 ADD SWAP1 PUSH2 0x24D1 SWAP2 SWAP1 PUSH2 0x42DE JUMP JUMPDEST PUSH1 0x1 JUMPDEST PUSH2 0x2555 JUMPI RETURNDATASIZE DUP1 PUSH0 DUP2 EQ PUSH2 0x2502 JUMPI PUSH1 0x40 MLOAD SWAP2 POP PUSH1 0x1F NOT PUSH1 0x3F RETURNDATASIZE ADD AND DUP3 ADD PUSH1 0x40 MSTORE RETURNDATASIZE DUP3 MSTORE RETURNDATASIZE PUSH0 PUSH1 0x20 DUP5 ADD RETURNDATACOPY PUSH2 0x2507 JUMP JUMPDEST PUSH1 0x60 SWAP2 POP JUMPDEST POP PUSH0 DUP2 MLOAD SUB PUSH2 0x254D JUMPI DUP4 PUSH1 0x40 MLOAD PUSH32 0x64A0AE9200000000000000000000000000000000000000000000000000000000 DUP2 MSTORE PUSH1 0x4 ADD PUSH2 0x2544 SWAP2 SWAP1 PUSH2 0x2E1F JUMP JUMPDEST PUSH1 0x40 MLOAD DUP1 SWAP2 SUB SWAP1 REVERT JUMPDEST DUP1 MLOAD DUP2 PUSH1 0x20 ADD REVERT JUMPDEST PUSH4 0x150B7A02 PUSH1 0xE0 SHL PUSH28 0xFFFFFFFFFFFFFFFFFFFFFFFFFFFFFFFFFFFFFFFFFFFFFFFFFFFFFFFF NOT AND DUP2 PUSH28 0xFFFFFFFFFFFFFFFFFFFFFFFFFFFFFFFFFFFFFFFFFFFFFFFFFFFFFFFF NOT AND EQ PUSH2 0x25DE JUMPI DUP4 PUSH1 0x40 MLOAD PUSH32 0x64A0AE9200000000000000000000000000000000000000000000000000000000 DUP2 MSTORE PUSH1 0x4 ADD PUSH2 0x25D5 SWAP2 SWAP1 PUSH2 0x2E1F JUMP JUMPDEST PUSH1 0x40 MLOAD DUP1 SWAP2 SUB SWAP1 REVERT JUMPDEST POP JUMPDEST POP POP POP POP POP JUMP JUMPDEST PUSH1 0x60 PUSH1 0x40 MLOAD DUP1 PUSH1 0x20 ADD PUSH1 0x40 MSTORE DUP1 PUSH0 DUP2 MSTORE POP SWAP1 POP SWAP1 JUMP JUMPDEST PUSH1 0x60 PUSH0 PUSH1 0x1 PUSH2 0x260B DUP5 PUSH2 0x2A1D JUMP JUMPDEST ADD SWAP1 POP PUSH0 DUP2 PUSH8 0xFFFFFFFFFFFFFFFF DUP2 GT ISZERO PUSH2 0x2629 JUMPI PUSH2 0x2628 PUSH2 0x316C JUMP JUMPDEST JUMPDEST PUSH1 0x40 MLOAD SWAP1 DUP1 DUP3 MSTORE DUP1 PUSH1 0x1F ADD PUSH1 0x1F NOT AND PUSH1 0x20 ADD DUP3 ADD PUSH1 0x40 MSTORE DUP1 ISZERO PUSH2 0x265B JUMPI DUP2 PUSH1 0x20 ADD PUSH1 0x1 DUP3 MUL DUP1 CALLDATASIZE DUP4 CALLDATACOPY DUP1 DUP3 ADD SWAP2 POP POP SWAP1 POP JUMPDEST POP SWAP1 POP PUSH0 DUP3 PUSH1 0x20 ADD DUP3 ADD SWAP1 POP JUMPDEST PUSH1 0x1 ISZERO PUSH2 0x26BC JUMPI DUP1 DUP1 PUSH1 0x1 SWAP1 SUB SWAP2 POP POP PUSH32 0x3031323334353637383961626364656600000000000000000000000000000000 PUSH1 0xA DUP7 MOD BYTE DUP2 MSTORE8 PUSH1 0xA DUP6 DUP2 PUSH2 0x26B1 JUMPI PUSH2 0x26B0 PUSH2 0x4309 JUMP JUMPDEST JUMPDEST DIV SWAP5 POP PUSH0 DUP6 SUB PUSH2 0x2668 JUMPI JUMPDEST DUP2 SWAP4 POP POP POP POP SWAP2 SWAP1 POP JUMP JUMPDEST PUSH0 PUSH1 0x2 PUSH0 DUP4 DUP2 MSTORE PUSH1 0x20 ADD SWAP1 DUP2 MSTORE PUSH1 0x20 ADD PUSH0 KECCAK256 PUSH0 SWAP1 SLOAD SWAP1 PUSH2 0x100 EXP SWAP1 DIV PUSH20 0xFFFFFFFFFFFFFFFFFFFFFFFFFFFFFFFFFFFFFFFF AND SWAP1 POP SWAP2 SWAP1 POP JUMP JUMPDEST DUP1 DUP1 PUSH2 0x2738 JUMPI POP PUSH0 PUSH20 0xFFFFFFFFFFFFFFFFFFFFFFFFFFFFFFFFFFFFFFFF AND DUP3 PUSH20 0xFFFFFFFFFFFFFFFFFFFFFFFFFFFFFFFFFFFFFFFF AND EQ ISZERO JUMPDEST ISZERO PUSH2 0x286A JUMPI PUSH0 PUSH2 0x2747 DUP5 PUSH2 0x1CB1 JUMP JUMPDEST SWAP1 POP PUSH0 PUSH20 0xFFFFFFFFFFFFFFFFFFFFFFFFFFFFFFFFFFFFFFFF AND DUP4 PUSH20 0xFFFFFFFFFFFFFFFFFFFFFFFFFFFFFFFFFFFFFFFF AND EQ ISZERO DUP1 ISZERO PUSH2 0x27B1 JUMPI POP DUP3 PUSH20 0xFFFFFFFFFFFFFFFFFFFFFFFFFFFFFFFFFFFFFFFF AND DUP2 PUSH20 0xFFFFFFFFFFFFFFFFFFFFFFFFFFFFFFFFFFFFFFFF AND EQ ISZERO JUMPDEST DUP1 ISZERO PUSH2 0x27C4 JUMPI POP PUSH2 0x27C2 DUP2 DUP5 PUSH2 0x1A8E JUMP JUMPDEST ISZERO JUMPDEST ISZERO PUSH2 0x2806 JUMPI DUP3 PUSH1 0x40 MLOAD PUSH32 0xA9FBF51F00000000000000000000000000000000000000000000000000000000 DUP2 MSTORE PUSH1 0x4 ADD PUSH2 0x27FD SWAP2 SWAP1 PUSH2 0x2E1F JUMP JUMPDEST PUSH1 0x40 MLOAD DUP1 SWAP2 SUB SWAP1 REVERT JUMPDEST DUP2 ISZERO PUSH2 0x2868 JUMPI DUP4 DUP6 PUSH20 0xFFFFFFFFFFFFFFFFFFFFFFFFFFFFFFFFFFFFFFFF AND DUP3 PUSH20 0xFFFFFFFFFFFFFFFFFFFFFFFFFFFFFFFFFFFFFFFF AND PUSH32 0x8C5BE1E5EBEC7D5BD14F71427D1E84F3DD0314C0F7B2291E5B200AC8C7C3B925 PUSH1 0x40 MLOAD PUSH1 0x40 MLOAD DUP1 SWAP2 SUB SWAP1 LOG4 JUMPDEST POP JUMPDEST DUP4 PUSH1 0x4 PUSH0 DUP6 DUP2 MSTORE PUSH1 0x20 ADD SWAP1 DUP2 MSTORE PUSH1 0x20 ADD PUSH0 KECCAK256 PUSH0 PUSH2 0x100 EXP DUP2 SLOAD DUP2 PUSH20 0xFFFFFFFFFFFFFFFFFFFFFFFFFFFFFFFFFFFFFFFF MUL NOT AND SWAP1 DUP4 PUSH20 0xFFFFFFFFFFFFFFFFFFFFFFFFFFFFFFFFFFFFFFFF AND MUL OR SWAP1 SSTORE POP POP POP POP POP JUMP JUMPDEST PUSH2 0x28CA DUP4 DUP4 DUP4 PUSH2 0x2B6E JUMP JUMPDEST PUSH2 0x297D JUMPI PUSH0 PUSH20 0xFFFFFFFFFFFFFFFFFFFFFFFFFFFFFFFFFFFFFFFF AND DUP4 PUSH20 0xFFFFFFFFFFFFFFFFFFFFFFFFFFFFFFFFFFFFFFFF AND SUB PUSH2 0x293E JUMPI DUP1 PUSH1 0x40 MLOAD PUSH32 0x7E27328900000000000000000000000000000000000000000000000000000000 DUP2 MSTORE PUSH1 0x4 ADD PUSH2 0x2935 SWAP2 SWAP1 PUSH2 0x3015 JUMP JUMPDEST PUSH1 0x40 MLOAD DUP1 SWAP2 SUB SWAP1 REVERT JUMPDEST DUP2 DUP2 PUSH1 0x40 MLOAD PUSH32 0x177E802F00000000000000000000000000000000000000000000000000000000 DUP2 MSTORE PUSH1 0x4 ADD PUSH2 0x2974 SWAP3 SWAP2 SWAP1 PUSH2 0x41D2 JUMP JUMPDEST PUSH1 0x40 MLOAD DUP1 SWAP2 SUB SWAP1 REVERT JUMPDEST POP POP POP JUMP JUMPDEST PUSH0 DUP1 PUSH1 0x20 PUSH0 DUP5 MLOAD PUSH1 0x20 DUP7 ADD PUSH0 DUP9 GAS CALL DUP1 PUSH2 0x29A1 JUMPI PUSH1 0x40 MLOAD RETURNDATASIZE PUSH0 DUP3 RETURNDATACOPY RETURNDATASIZE DUP2 REVERT JUMPDEST RETURNDATASIZE SWAP3 POP PUSH0 MLOAD SWAP2 POP POP PUSH0 DUP3 EQ PUSH2 0x29BA JUMPI PUSH1 0x1 DUP2 EQ ISZERO PUSH2 0x29D5 JUMP JUMPDEST PUSH0 DUP5 PUSH20 0xFFFFFFFFFFFFFFFFFFFFFFFFFFFFFFFFFFFFFFFF AND EXTCODESIZE EQ JUMPDEST ISZERO PUSH2 0x2A17 JUMPI DUP4 PUSH1 0x40 MLOAD PUSH32 0x5274AFE700000000000000000000000000000000000000000000000000000000 DUP2 MSTORE PUSH1 0x4 ADD PUSH2 0x2A0E SWAP2 SWAP1 PUSH2 0x2E1F JUMP JUMPDEST PUSH1 0x40 MLOAD DUP1 SWAP2 SUB SWAP1 REVERT JUMPDEST POP POP POP POP JUMP JUMPDEST PUSH0 DUP1 PUSH0 SWAP1 POP PUSH27 0x184F03E93FF9F4DAA797ED6E38ED64BF6A1F010000000000000000 DUP4 LT PUSH2 0x2A79 JUMPI PUSH27 0x184F03E93FF9F4DAA797ED6E38ED64BF6A1F010000000000000000 DUP4 DUP2 PUSH2 0x2A6F JUMPI PUSH2 0x2A6E PUSH2 0x4309 JUMP JUMPDEST JUMPDEST DIV SWAP3 POP PUSH1 0x40 DUP2 ADD SWAP1 POP JUMPDEST PUSH14 0x4EE2D6D415B85ACEF8100000000 DUP4 LT PUSH2 0x2AB6 JUMPI PUSH14 0x4EE2D6D415B85ACEF8100000000 DUP4 DUP2 PUSH2 0x2AAC JUMPI PUSH2 0x2AAB PUSH2 0x4309 JUMP JUMPDEST JUMPDEST DIV SWAP3 POP PUSH1 0x20 DUP2 ADD SWAP1 POP JUMPDEST PUSH7 0x2386F26FC10000 DUP4 LT PUSH2 0x2AE5 JUMPI PUSH7 0x2386F26FC10000 DUP4 DUP2 PUSH2 0x2ADB JUMPI PUSH2 0x2ADA PUSH2 0x4309 JUMP JUMPDEST JUMPDEST DIV SWAP3 POP PUSH1 0x10 DUP2 ADD SWAP1 POP JUMPDEST PUSH4 0x5F5E100 DUP4 LT PUSH2 0x2B0E JUMPI PUSH4 0x5F5E100 DUP4 DUP2 PUSH2 0x2B04 JUMPI PUSH2 0x2B03 PUSH2 0x4309 JUMP JUMPDEST JUMPDEST DIV SWAP3 POP PUSH1 0x8 DUP2 ADD SWAP1 POP JUMPDEST PUSH2 0x2710 DUP4 LT PUSH2 0x2B33 JUMPI PUSH2 0x2710 DUP4 DUP2 PUSH2 0x2B29 JUMPI PUSH2 0x2B28 PUSH2 0x4309 JUMP JUMPDEST JUMPDEST DIV SWAP3 POP PUSH1 0x4 DUP2 ADD SWAP1 POP JUMPDEST PUSH1 0x64 DUP4 LT PUSH2 0x2B56 JUMPI PUSH1 0x64 DUP4 DUP2 PUSH2 0x2B4C JUMPI PUSH2 0x2B4B PUSH2 0x4309 JUMP JUMPDEST JUMPDEST DIV SWAP3 POP PUSH1 0x2 DUP2 ADD SWAP1 POP JUMPDEST PUSH1 0xA DUP4 LT PUSH2 0x2B65 JUMPI PUSH1 0x1 DUP2 ADD SWAP1 POP JUMPDEST DUP1 SWAP2 POP POP SWAP2 SWAP1 POP JUMP JUMPDEST PUSH0 DUP1 PUSH20 0xFFFFFFFFFFFFFFFFFFFFFFFFFFFFFFFFFFFFFFFF AND DUP4 PUSH20 0xFFFFFFFFFFFFFFFFFFFFFFFFFFFFFFFFFFFFFFFF AND EQ ISZERO DUP1 ISZERO PUSH2 0x2C25 JUMPI POP DUP3 PUSH20 0xFFFFFFFFFFFFFFFFFFFFFFFFFFFFFFFFFFFFFFFF AND DUP5 PUSH20 0xFFFFFFFFFFFFFFFFFFFFFFFFFFFFFFFFFFFFFFFF AND EQ DUP1 PUSH2 0x2BE6 JUMPI POP PUSH2 0x2BE5 DUP5 DUP5 PUSH2 0x1A8E JUMP JUMPDEST JUMPDEST DUP1 PUSH2 0x2C24 JUMPI POP DUP3 PUSH20 0xFFFFFFFFFFFFFFFFFFFFFFFFFFFFFFFFFFFFFFFF AND PUSH2 0x2C0C DUP4 PUSH2 0x1D37 JUMP JUMPDEST PUSH20 0xFFFFFFFFFFFFFFFFFFFFFFFFFFFFFFFFFFFFFFFF AND EQ JUMPDEST JUMPDEST SWAP1 POP SWAP4 SWAP3 POP POP POP JUMP JUMPDEST PUSH0 PUSH1 0x40 MLOAD SWAP1 POP SWAP1 JUMP JUMPDEST PUSH0 DUP1 REVERT JUMPDEST PUSH0 DUP1 REVERT JUMPDEST PUSH0 PUSH32 0xFFFFFFFF00000000000000000000000000000000000000000000000000000000 DUP3 AND SWAP1 POP SWAP2 SWAP1 POP JUMP JUMPDEST PUSH2 0x2C73 DUP2 PUSH2 0x2C3F JUMP JUMPDEST DUP2 EQ PUSH2 0x2C7D JUMPI PUSH0 DUP1 REVERT JUMPDEST POP JUMP JUMPDEST PUSH0 DUP2 CALLDATALOAD SWAP1 POP PUSH2 0x2C8E DUP2 PUSH2 0x2C6A JUMP JUMPDEST SWAP3 SWAP2 POP POP JUMP JUMPDEST PUSH0 PUSH1 0x20 DUP3 DUP5 SUB SLT ISZERO PUSH2 0x2CA9 JUMPI PUSH2 0x2CA8 PUSH2 0x2C37 JUMP JUMPDEST JUMPDEST PUSH0 PUSH2 0x2CB6 DUP5 DUP3 DUP6 ADD PUSH2 0x2C80 JUMP JUMPDEST SWAP2 POP POP SWAP3 SWAP2 POP POP JUMP JUMPDEST PUSH0 DUP2 ISZERO ISZERO SWAP1 POP SWAP2 SWAP1 POP JUMP JUMPDEST PUSH2 0x2CD3 DUP2 PUSH2 0x2CBF JUMP JUMPDEST DUP3 MSTORE POP POP JUMP JUMPDEST PUSH0 PUSH1 0x20 DUP3 ADD SWAP1 POP PUSH2 0x2CEC PUSH0 DUP4 ADD DUP5 PUSH2 0x2CCA JUMP JUMPDEST SWAP3 SWAP2 POP POP JUMP JUMPDEST PUSH0 DUP2 MLOAD SWAP1 POP SWAP2 SWAP1 POP JUMP JUMPDEST PUSH0 DUP3 DUP3 MSTORE PUSH1 0x20 DUP3 ADD SWAP1 POP SWAP3 SWAP2 POP POP JUMP JUMPDEST DUP3 DUP2 DUP4 MCOPY PUSH0 DUP4 DUP4 ADD MSTORE POP POP POP JUMP JUMPDEST PUSH0 PUSH1 0x1F NOT PUSH1 0x1F DUP4 ADD AND SWAP1 POP SWAP2 SWAP1 POP JUMP JUMPDEST PUSH0 PUSH2 0x2D34 DUP3 PUSH2 0x2CF2 JUMP JUMPDEST PUSH2 0x2D3E DUP2 DUP6 PUSH2 0x2CFC JUMP JUMPDEST SWAP4 POP PUSH2 0x2D4E DUP2 DUP6 PUSH1 0x20 DUP7 ADD PUSH2 0x2D0C JUMP JUMPDEST PUSH2 0x2D57 DUP2 PUSH2 0x2D1A JUMP JUMPDEST DUP5 ADD SWAP2 POP POP SWAP3 SWAP2 POP POP JUMP JUMPDEST PUSH0 PUSH1 0x20 DUP3 ADD SWAP1 POP DUP2 DUP2 SUB PUSH0 DUP4 ADD MSTORE PUSH2 0x2D7A DUP2 DUP5 PUSH2 0x2D2A JUMP JUMPDEST SWAP1 POP SWAP3 SWAP2 POP POP JUMP JUMPDEST PUSH0 DUP2 SWAP1 POP SWAP2 SWAP1 POP JUMP JUMPDEST PUSH2 0x2D94 DUP2 PUSH2 0x2D82 JUMP JUMPDEST DUP2 EQ PUSH2 0x2D9E JUMPI PUSH0 DUP1 REVERT JUMPDEST POP JUMP JUMPDEST PUSH0 DUP2 CALLDATALOAD SWAP1 POP PUSH2 0x2DAF DUP2 PUSH2 0x2D8B JUMP JUMPDEST SWAP3 SWAP2 POP POP JUMP JUMPDEST PUSH0 PUSH1 0x20 DUP3 DUP5 SUB SLT ISZERO PUSH2 0x2DCA JUMPI PUSH2 0x2DC9 PUSH2 0x2C37 JUMP JUMPDEST JUMPDEST PUSH0 PUSH2 0x2DD7 DUP5 DUP3 DUP6 ADD PUSH2 0x2DA1 JUMP JUMPDEST SWAP2 POP POP SWAP3 SWAP2 POP POP JUMP JUMPDEST PUSH0 PUSH20 0xFFFFFFFFFFFFFFFFFFFFFFFFFFFFFFFFFFFFFFFF DUP3 AND SWAP1 POP SWAP2 SWAP1 POP JUMP JUMPDEST PUSH0 PUSH2 0x2E09 DUP3 PUSH2 0x2DE0 JUMP JUMPDEST SWAP1 POP SWAP2 SWAP1 POP JUMP JUMPDEST PUSH2 0x2E19 DUP2 PUSH2 0x2DFF JUMP JUMPDEST DUP3 MSTORE POP POP JUMP JUMPDEST PUSH0 PUSH1 0x20 DUP3 ADD SWAP1 POP PUSH2 0x2E32 PUSH0 DUP4 ADD DUP5 PUSH2 0x2E10 JUMP JUMPDEST SWAP3 SWAP2 POP POP JUMP JUMPDEST PUSH2 0x2E41 DUP2 PUSH2 0x2DFF JUMP JUMPDEST DUP2 EQ PUSH2 0x2E4B JUMPI PUSH0 DUP1 REVERT JUMPDEST POP JUMP JUMPDEST PUSH0 DUP2 CALLDATALOAD SWAP1 POP PUSH2 0x2E5C DUP2 PUSH2 0x2E38 JUMP JUMPDEST SWAP3 SWAP2 POP POP JUMP JUMPDEST PUSH0 DUP1 PUSH1 0x40 DUP4 DUP6 SUB SLT ISZERO PUSH2 0x2E78 JUMPI PUSH2 0x2E77 PUSH2 0x2C37 JUMP JUMPDEST JUMPDEST PUSH0 PUSH2 0x2E85 DUP6 DUP3 DUP7 ADD PUSH2 0x2E4E JUMP JUMPDEST SWAP3 POP POP PUSH1 0x20 PUSH2 0x2E96 DUP6 DUP3 DUP7 ADD PUSH2 0x2DA1 JUMP JUMPDEST SWAP2 POP POP SWAP3 POP SWAP3 SWAP1 POP JUMP JUMPDEST PUSH0 DUP2 SWAP1 POP SWAP2 SWAP1 POP JUMP JUMPDEST PUSH0 PUSH2 0x2EC3 PUSH2 0x2EBE PUSH2 0x2EB9 DUP5 PUSH2 0x2DE0 JUMP JUMPDEST PUSH2 0x2EA0 JUMP JUMPDEST PUSH2 0x2DE0 JUMP JUMPDEST SWAP1 POP SWAP2 SWAP1 POP JUMP JUMPDEST PUSH0 PUSH2 0x2ED4 DUP3 PUSH2 0x2EA9 JUMP JUMPDEST SWAP1 POP SWAP2 SWAP1 POP JUMP JUMPDEST PUSH0 PUSH2 0x2EE5 DUP3 PUSH2 0x2ECA JUMP JUMPDEST SWAP1 POP SWAP2 SWAP1 POP JUMP JUMPDEST PUSH2 0x2EF5 DUP2 PUSH2 0x2EDB JUMP JUMPDEST DUP3 MSTORE POP POP JUMP JUMPDEST PUSH0 PUSH1 0x20 DUP3 ADD SWAP1 POP PUSH2 0x2F0E PUSH0 DUP4 ADD DUP5 PUSH2 0x2EEC JUMP JUMPDEST SWAP3 SWAP2 POP POP JUMP JUMPDEST PUSH0 DUP1 PUSH0 PUSH1 0x60 DUP5 DUP7 SUB SLT ISZERO PUSH2 0x2F2B JUMPI PUSH2 0x2F2A PUSH2 0x2C37 JUMP JUMPDEST JUMPDEST PUSH0 PUSH2 0x2F38 DUP7 DUP3 DUP8 ADD PUSH2 0x2E4E JUMP JUMPDEST SWAP4 POP POP PUSH1 0x20 PUSH2 0x2F49 DUP7 DUP3 DUP8 ADD PUSH2 0x2E4E JUMP JUMPDEST SWAP3 POP POP PUSH1 0x40 PUSH2 0x2F5A DUP7 DUP3 DUP8 ADD PUSH2 0x2DA1 JUMP JUMPDEST SWAP2 POP POP SWAP3 POP SWAP3 POP SWAP3 JUMP JUMPDEST PUSH0 PUSH2 0x2F6E DUP3 PUSH2 0x2ECA JUMP JUMPDEST SWAP1 POP SWAP2 SWAP1 POP JUMP JUMPDEST PUSH2 0x2F7E DUP2 PUSH2 0x2F64 JUMP JUMPDEST DUP3 MSTORE POP POP JUMP JUMPDEST PUSH0 PUSH1 0x20 DUP3 ADD SWAP1 POP PUSH2 0x2F97 PUSH0 DUP4 ADD DUP5 PUSH2 0x2F75 JUMP JUMPDEST SWAP3 SWAP2 POP POP JUMP JUMPDEST PUSH0 DUP1 PUSH1 0x40 DUP4 DUP6 SUB SLT ISZERO PUSH2 0x2FB3 JUMPI PUSH2 0x2FB2 PUSH2 0x2C37 JUMP JUMPDEST JUMPDEST PUSH0 PUSH2 0x2FC0 DUP6 DUP3 DUP7 ADD PUSH2 0x2E4E JUMP JUMPDEST SWAP3 POP POP PUSH1 0x20 PUSH2 0x2FD1 DUP6 DUP3 DUP7 ADD PUSH2 0x2E4E JUMP JUMPDEST SWAP2 POP POP SWAP3 POP SWAP3 SWAP1 POP JUMP JUMPDEST PUSH0 PUSH1 0x20 DUP3 DUP5 SUB SLT ISZERO PUSH2 0x2FF0 JUMPI PUSH2 0x2FEF PUSH2 0x2C37 JUMP JUMPDEST JUMPDEST PUSH0 PUSH2 0x2FFD DUP5 DUP3 DUP6 ADD PUSH2 0x2E4E JUMP JUMPDEST SWAP2 POP POP SWAP3 SWAP2 POP POP JUMP JUMPDEST PUSH2 0x300F DUP2 PUSH2 0x2D82 JUMP JUMPDEST DUP3 MSTORE POP POP JUMP JUMPDEST PUSH0 PUSH1 0x20 DUP3 ADD SWAP1 POP PUSH2 0x3028 PUSH0 DUP4 ADD DUP5 PUSH2 0x3006 JUMP JUMPDEST SWAP3 SWAP2 POP POP JUMP JUMPDEST PUSH0 DUP1 REVERT JUMPDEST PUSH0 DUP1 REVERT JUMPDEST PUSH0 DUP1 REVERT JUMPDEST PUSH0 DUP1 DUP4 PUSH1 0x1F DUP5 ADD SLT PUSH2 0x304F JUMPI PUSH2 0x304E PUSH2 0x302E JUMP JUMPDEST JUMPDEST DUP3 CALLDATALOAD SWAP1 POP PUSH8 0xFFFFFFFFFFFFFFFF DUP2 GT ISZERO PUSH2 0x306C JUMPI PUSH2 0x306B PUSH2 0x3032 JUMP JUMPDEST JUMPDEST PUSH1 0x20 DUP4 ADD SWAP2 POP DUP4 PUSH1 0x1 DUP3 MUL DUP4 ADD GT ISZERO PUSH2 0x3088 JUMPI PUSH2 0x3087 PUSH2 0x3036 JUMP JUMPDEST JUMPDEST SWAP3 POP SWAP3 SWAP1 POP JUMP JUMPDEST PUSH0 DUP1 PUSH0 DUP1 PUSH1 0x60 DUP6 DUP8 SUB SLT ISZERO PUSH2 0x30A7 JUMPI PUSH2 0x30A6 PUSH2 0x2C37 JUMP JUMPDEST JUMPDEST PUSH0 PUSH2 0x30B4 DUP8 DUP3 DUP9 ADD PUSH2 0x2E4E JUMP JUMPDEST SWAP5 POP POP PUSH1 0x20 DUP6 ADD CALLDATALOAD PUSH8 0xFFFFFFFFFFFFFFFF DUP2 GT ISZERO PUSH2 0x30D5 JUMPI PUSH2 0x30D4 PUSH2 0x2C3B JUMP JUMPDEST JUMPDEST PUSH2 0x30E1 DUP8 DUP3 DUP9 ADD PUSH2 0x303A JUMP JUMPDEST SWAP4 POP SWAP4 POP POP PUSH1 0x40 PUSH2 0x30F4 DUP8 DUP3 DUP9 ADD PUSH2 0x2DA1 JUMP JUMPDEST SWAP2 POP POP SWAP3 SWAP6 SWAP2 SWAP5 POP SWAP3 POP JUMP JUMPDEST PUSH2 0x3109 DUP2 PUSH2 0x2CBF JUMP JUMPDEST DUP2 EQ PUSH2 0x3113 JUMPI PUSH0 DUP1 REVERT JUMPDEST POP JUMP JUMPDEST PUSH0 DUP2 CALLDATALOAD SWAP1 POP PUSH2 0x3124 DUP2 PUSH2 0x3100 JUMP JUMPDEST SWAP3 SWAP2 POP POP JUMP JUMPDEST PUSH0 DUP1 PUSH1 0x40 DUP4 DUP6 SUB SLT ISZERO PUSH2 0x3140 JUMPI PUSH2 0x313F PUSH2 0x2C37 JUMP JUMPDEST JUMPDEST PUSH0 PUSH2 0x314D DUP6 DUP3 DUP7 ADD PUSH2 0x2E4E JUMP JUMPDEST SWAP3 POP POP PUSH1 0x20 PUSH2 0x315E DUP6 DUP3 DUP7 ADD PUSH2 0x3116 JUMP JUMPDEST SWAP2 POP POP SWAP3 POP SWAP3 SWAP1 POP JUMP JUMPDEST PUSH0 DUP1 REVERT JUMPDEST PUSH32 0x4E487B7100000000000000000000000000000000000000000000000000000000 PUSH0 MSTORE PUSH1 0x41 PUSH1 0x4 MSTORE PUSH1 0x24 PUSH0 REVERT JUMPDEST PUSH2 0x31A2 DUP3 PUSH2 0x2D1A JUMP JUMPDEST DUP2 ADD DUP2 DUP2 LT PUSH8 0xFFFFFFFFFFFFFFFF DUP3 GT OR ISZERO PUSH2 0x31C1 JUMPI PUSH2 0x31C0 PUSH2 0x316C JUMP JUMPDEST JUMPDEST DUP1 PUSH1 0x40 MSTORE POP POP POP JUMP JUMPDEST PUSH0 PUSH2 0x31D3 PUSH2 0x2C2E JUMP JUMPDEST SWAP1 POP PUSH2 0x31DF DUP3 DUP3 PUSH2 0x3199 JUMP JUMPDEST SWAP2 SWAP1 POP JUMP JUMPDEST PUSH0 PUSH8 0xFFFFFFFFFFFFFFFF DUP3 GT ISZERO PUSH2 0x31FE JUMPI PUSH2 0x31FD PUSH2 0x316C JUMP JUMPDEST JUMPDEST PUSH2 0x3207 DUP3 PUSH2 0x2D1A JUMP JUMPDEST SWAP1 POP PUSH1 0x20 DUP2 ADD SWAP1 POP SWAP2 SWAP1 POP JUMP JUMPDEST DUP3 DUP2 DUP4 CALLDATACOPY PUSH0 DUP4 DUP4 ADD MSTORE POP POP POP JUMP JUMPDEST PUSH0 PUSH2 0x3234 PUSH2 0x322F DUP5 PUSH2 0x31E4 JUMP JUMPDEST PUSH2 0x31CA JUMP JUMPDEST SWAP1 POP DUP3 DUP2 MSTORE PUSH1 0x20 DUP2 ADD DUP5 DUP5 DUP5 ADD GT ISZERO PUSH2 0x3250 JUMPI PUSH2 0x324F PUSH2 0x3168 JUMP JUMPDEST JUMPDEST PUSH2 0x325B DUP5 DUP3 DUP6 PUSH2 0x3214 JUMP JUMPDEST POP SWAP4 SWAP3 POP POP POP JUMP JUMPDEST PUSH0 DUP3 PUSH1 0x1F DUP4 ADD SLT PUSH2 0x3277 JUMPI PUSH2 0x3276 PUSH2 0x302E JUMP JUMPDEST JUMPDEST DUP2 CALLDATALOAD PUSH2 0x3287 DUP5 DUP3 PUSH1 0x20 DUP7 ADD PUSH2 0x3222 JUMP JUMPDEST SWAP2 POP POP SWAP3 SWAP2 POP POP JUMP JUMPDEST PUSH0 DUP1 PUSH0 DUP1 PUSH1 0x80 DUP6 DUP8 SUB SLT ISZERO PUSH2 0x32A8 JUMPI PUSH2 0x32A7 PUSH2 0x2C37 JUMP JUMPDEST JUMPDEST PUSH0 PUSH2 0x32B5 DUP8 DUP3 DUP9 ADD PUSH2 0x2E4E JUMP JUMPDEST SWAP5 POP POP PUSH1 0x20 PUSH2 0x32C6 DUP8 DUP3 DUP9 ADD PUSH2 0x2E4E JUMP JUMPDEST SWAP4 POP POP PUSH1 0x40 PUSH2 0x32D7 DUP8 DUP3 DUP9 ADD PUSH2 0x2DA1 JUMP JUMPDEST SWAP3 POP POP PUSH1 0x60 DUP6 ADD CALLDATALOAD PUSH8 0xFFFFFFFFFFFFFFFF DUP2 GT ISZERO PUSH2 0x32F8 JUMPI PUSH2 0x32F7 PUSH2 0x2C3B JUMP JUMPDEST JUMPDEST PUSH2 0x3304 DUP8 DUP3 DUP9 ADD PUSH2 0x3263 JUMP JUMPDEST SWAP2 POP POP SWAP3 SWAP6 SWAP2 SWAP5 POP SWAP3 POP JUMP JUMPDEST PUSH0 DUP1 PUSH0 PUSH1 0x40 DUP5 DUP7 SUB SLT ISZERO PUSH2 0x3327 JUMPI PUSH2 0x3326 PUSH2 0x2C37 JUMP JUMPDEST JUMPDEST PUSH0 PUSH2 0x3334 DUP7 DUP3 DUP8 ADD PUSH2 0x2E4E JUMP JUMPDEST SWAP4 POP POP PUSH1 0x20 DUP5 ADD CALLDATALOAD PUSH8 0xFFFFFFFFFFFFFFFF DUP2 GT ISZERO PUSH2 0x3355 JUMPI PUSH2 0x3354 PUSH2 0x2C3B JUMP JUMPDEST JUMPDEST PUSH2 0x3361 DUP7 DUP3 DUP8 ADD PUSH2 0x303A JUMP JUMPDEST SWAP3 POP SWAP3 POP POP SWAP3 POP SWAP3 POP SWAP3 JUMP JUMPDEST PUSH0 DUP2 MLOAD SWAP1 POP SWAP2 SWAP1 POP JUMP JUMPDEST PUSH0 DUP3 DUP3 MSTORE PUSH1 0x20 DUP3 ADD SWAP1 POP SWAP3 SWAP2 POP POP JUMP JUMPDEST PUSH0 DUP2 SWAP1 POP PUSH1 0x20 DUP3 ADD SWAP1 POP SWAP2 SWAP1 POP JUMP JUMPDEST PUSH2 0x339F DUP2 PUSH2 0x2D82 JUMP JUMPDEST DUP3 MSTORE POP POP JUMP JUMPDEST PUSH0 PUSH2 0x33B0 DUP4 DUP4 PUSH2 0x3396 JUMP JUMPDEST PUSH1 0x20 DUP4 ADD SWAP1 POP SWAP3 SWAP2 POP POP JUMP JUMPDEST PUSH0 PUSH1 0x20 DUP3 ADD SWAP1 POP SWAP2 SWAP1 POP JUMP JUMPDEST PUSH0 PUSH2 0x33D2 DUP3 PUSH2 0x336D JUMP JUMPDEST PUSH2 0x33DC DUP2 DUP6 PUSH2 0x3377 JUMP JUMPDEST SWAP4 POP PUSH2 0x33E7 DUP4 PUSH2 0x3387 JUMP JUMPDEST DUP1 PUSH0 JUMPDEST DUP4 DUP2 LT ISZERO PUSH2 0x3417 JUMPI DUP2 MLOAD PUSH2 0x33FE DUP9 DUP3 PUSH2 0x33A5 JUMP JUMPDEST SWAP8 POP PUSH2 0x3409 DUP4 PUSH2 0x33BC JUMP JUMPDEST SWAP3 POP POP PUSH1 0x1 DUP2 ADD SWAP1 POP PUSH2 0x33EA JUMP JUMPDEST POP DUP6 SWAP4 POP POP POP POP SWAP3 SWAP2 POP POP JUMP JUMPDEST PUSH0 PUSH1 0x20 DUP3 ADD SWAP1 POP DUP2 DUP2 SUB PUSH0 DUP4 ADD MSTORE PUSH2 0x343C DUP2 DUP5 PUSH2 0x33C8 JUMP JUMPDEST SWAP1 POP SWAP3 SWAP2 POP POP JUMP JUMPDEST PUSH32 0x4E487B7100000000000000000000000000000000000000000000000000000000 PUSH0 MSTORE PUSH1 0x22 PUSH1 0x4 MSTORE PUSH1 0x24 PUSH0 REVERT JUMPDEST PUSH0 PUSH1 0x2 DUP3 DIV SWAP1 POP PUSH1 0x1 DUP3 AND DUP1 PUSH2 0x3488 JUMPI PUSH1 0x7F DUP3 AND SWAP2 POP JUMPDEST PUSH1 0x20 DUP3 LT DUP2 SUB PUSH2 0x349B JUMPI PUSH2 0x349A PUSH2 0x3444 JUMP JUMPDEST JUMPDEST POP SWAP2 SWAP1 POP JUMP JUMPDEST PUSH0 PUSH1 0x60 DUP3 ADD SWAP1 POP PUSH2 0x34B4 PUSH0 DUP4 ADD DUP7 PUSH2 0x2E10 JUMP JUMPDEST PUSH2 0x34C1 PUSH1 0x20 DUP4 ADD DUP6 PUSH2 0x3006 JUMP JUMPDEST PUSH2 0x34CE PUSH1 0x40 DUP4 ADD DUP5 PUSH2 0x2E10 JUMP JUMPDEST SWAP5 SWAP4 POP POP POP POP JUMP JUMPDEST PUSH0 DUP2 MLOAD SWAP1 POP PUSH2 0x34E4 DUP2 PUSH2 0x3100 JUMP JUMPDEST SWAP3 SWAP2 POP POP JUMP JUMPDEST PUSH0 PUSH1 0x20 DUP3 DUP5 SUB SLT ISZERO PUSH2 0x34FF JUMPI PUSH2 0x34FE PUSH2 0x2C37 JUMP JUMPDEST JUMPDEST PUSH0 PUSH2 0x350C DUP5 DUP3 DUP6 ADD PUSH2 0x34D6 JUMP JUMPDEST SWAP2 POP POP SWAP3 SWAP2 POP POP JUMP JUMPDEST PUSH32 0x4E6F742072656769737465726564206C61777965720000000000000000000000 PUSH0 DUP3 ADD MSTORE POP JUMP JUMPDEST PUSH0 PUSH2 0x3549 PUSH1 0x15 DUP4 PUSH2 0x2CFC JUMP JUMPDEST SWAP2 POP PUSH2 0x3554 DUP3 PUSH2 0x3515 JUMP JUMPDEST PUSH1 0x20 DUP3 ADD SWAP1 POP SWAP2 SWAP1 POP JUMP JUMPDEST PUSH0 PUSH1 0x20 DUP3 ADD SWAP1 POP DUP2 DUP2 SUB PUSH0 DUP4 ADD MSTORE PUSH2 0x3576 DUP2 PUSH2 0x353D JUMP JUMPDEST SWAP1 POP SWAP2 SWAP1 POP JUMP JUMPDEST PUSH0 DUP1 REVERT JUMPDEST PUSH0 DUP1 REVERT JUMPDEST PUSH0 DUP2 MLOAD SWAP1 POP PUSH2 0x3593 DUP2 PUSH2 0x2E38 JUMP JUMPDEST SWAP3 SWAP2 POP POP JUMP JUMPDEST PUSH0 PUSH8 0xFFFFFFFFFFFFFFFF DUP3 GT ISZERO PUSH2 0x35B3 JUMPI PUSH2 0x35B2 PUSH2 0x316C JUMP JUMPDEST JUMPDEST PUSH1 0x20 DUP3 MUL SWAP1 POP PUSH1 0x20 DUP2 ADD SWAP1 POP SWAP2 SWAP1 POP JUMP JUMPDEST PUSH0 DUP2 MLOAD SWAP1 POP PUSH2 0x35D2 DUP2 PUSH2 0x2D8B JUMP JUMPDEST SWAP3 SWAP2 POP POP JUMP JUMPDEST PUSH0 PUSH2 0x35EA PUSH2 0x35E5 DUP5 PUSH2 0x3599 JUMP JUMPDEST PUSH2 0x31CA JUMP JUMPDEST SWAP1 POP DUP1 DUP4 DUP3 MSTORE PUSH1 0x20 DUP3 ADD SWAP1 POP PUSH1 0x20 DUP5 MUL DUP4 ADD DUP6 DUP2 GT ISZERO PUSH2 0x360D JUMPI PUSH2 0x360C PUSH2 0x3036 JUMP JUMPDEST JUMPDEST DUP4 JUMPDEST DUP2 DUP2 LT ISZERO PUSH2 0x3636 JUMPI DUP1 PUSH2 0x3622 DUP9 DUP3 PUSH2 0x35C4 JUMP JUMPDEST DUP5 MSTORE PUSH1 0x20 DUP5 ADD SWAP4 POP POP PUSH1 0x20 DUP2 ADD SWAP1 POP PUSH2 0x360F JUMP JUMPDEST POP POP POP SWAP4 SWAP3 POP POP POP JUMP JUMPDEST PUSH0 DUP3 PUSH1 0x1F DUP4 ADD SLT PUSH2 0x3654 JUMPI PUSH2 0x3653 PUSH2 0x302E JUMP JUMPDEST JUMPDEST DUP2 MLOAD PUSH2 0x3664 DUP5 DUP3 PUSH1 0x20 DUP7 ADD PUSH2 0x35D8 JUMP JUMPDEST SWAP2 POP POP SWAP3 SWAP2 POP POP JUMP JUMPDEST PUSH0 PUSH8 0xFFFFFFFFFFFFFFFF DUP3 GT ISZERO PUSH2 0x3687 JUMPI PUSH2 0x3686 PUSH2 0x316C JUMP JUMPDEST JUMPDEST PUSH2 0x3690 DUP3 PUSH2 0x2D1A JUMP JUMPDEST SWAP1 POP PUSH1 0x20 DUP2 ADD SWAP1 POP SWAP2 SWAP1 POP JUMP JUMPDEST PUSH0 PUSH2 0x36AF PUSH2 0x36AA DUP5 PUSH2 0x366D JUMP JUMPDEST PUSH2 0x31CA JUMP JUMPDEST SWAP1 POP DUP3 DUP2 MSTORE PUSH1 0x20 DUP2 ADD DUP5 DUP5 DUP5 ADD GT ISZERO PUSH2 0x36CB JUMPI PUSH2 0x36CA PUSH2 0x3168 JUMP JUMPDEST JUMPDEST PUSH2 0x36D6 DUP5 DUP3 DUP6 PUSH2 0x2D0C JUMP JUMPDEST POP SWAP4 SWAP3 POP POP POP JUMP JUMPDEST PUSH0 DUP3 PUSH1 0x1F DUP4 ADD SLT PUSH2 0x36F2 JUMPI PUSH2 0x36F1 PUSH2 0x302E JUMP JUMPDEST JUMPDEST DUP2 MLOAD PUSH2 0x3702 DUP5 DUP3 PUSH1 0x20 DUP7 ADD PUSH2 0x369D JUMP JUMPDEST SWAP2 POP POP SWAP3 SWAP2 POP POP JUMP JUMPDEST PUSH0 PUSH1 0xC0 DUP3 DUP5 SUB SLT ISZERO PUSH2 0x3720 JUMPI PUSH2 0x371F PUSH2 0x357D JUMP JUMPDEST JUMPDEST PUSH2 0x372A PUSH1 0xC0 PUSH2 0x31CA JUMP JUMPDEST SWAP1 POP PUSH0 PUSH2 0x3739 DUP5 DUP3 DUP6 ADD PUSH2 0x3585 JUMP JUMPDEST PUSH0 DUP4 ADD MSTORE POP PUSH1 0x20 DUP3 ADD MLOAD PUSH8 0xFFFFFFFFFFFFFFFF DUP2 GT ISZERO PUSH2 0x375C JUMPI PUSH2 0x375B PUSH2 0x3581 JUMP JUMPDEST JUMPDEST PUSH2 0x3768 DUP5 DUP3 DUP6 ADD PUSH2 0x3640 JUMP JUMPDEST PUSH1 0x20 DUP4 ADD MSTORE POP PUSH1 0x40 DUP3 ADD MLOAD PUSH8 0xFFFFFFFFFFFFFFFF DUP2 GT ISZERO PUSH2 0x378C JUMPI PUSH2 0x378B PUSH2 0x3581 JUMP JUMPDEST JUMPDEST PUSH2 0x3798 DUP5 DUP3 DUP6 ADD PUSH2 0x36DE JUMP JUMPDEST PUSH1 0x40 DUP4 ADD MSTORE POP PUSH1 0x60 PUSH2 0x37AC DUP5 DUP3 DUP6 ADD PUSH2 0x35C4 JUMP JUMPDEST PUSH1 0x60 DUP4 ADD MSTORE POP PUSH1 0x80 PUSH2 0x37C0 DUP5 DUP3 DUP6 ADD PUSH2 0x35C4 JUMP JUMPDEST PUSH1 0x80 DUP4 ADD MSTORE POP PUSH1 0xA0 PUSH2 0x37D4 DUP5 DUP3 DUP6 ADD PUSH2 0x34D6 JUMP JUMPDEST PUSH1 0xA0 DUP4 ADD MSTORE POP SWAP3 SWAP2 POP POP JUMP JUMPDEST PUSH0 PUSH1 0x20 DUP3 DUP5 SUB SLT ISZERO PUSH2 0x37F5 JUMPI PUSH2 0x37F4 PUSH2 0x2C37 JUMP JUMPDEST JUMPDEST PUSH0 DUP3 ADD MLOAD PUSH8 0xFFFFFFFFFFFFFFFF DUP2 GT ISZERO PUSH2 0x3812 JUMPI PUSH2 0x3811 PUSH2 0x2C3B JUMP JUMPDEST JUMPDEST PUSH2 0x381E DUP5 DUP3 DUP6 ADD PUSH2 0x370B JUMP JUMPDEST SWAP2 POP POP SWAP3 SWAP2 POP POP JUMP JUMPDEST PUSH32 0x4C617779657220696E6163746976650000000000000000000000000000000000 PUSH0 DUP3 ADD MSTORE POP JUMP JUMPDEST PUSH0 PUSH2 0x385B PUSH1 0xF DUP4 PUSH2 0x2CFC JUMP JUMPDEST SWAP2 POP PUSH2 0x3866 DUP3 PUSH2 0x3827 JUMP JUMPDEST PUSH1 0x20 DUP3 ADD SWAP1 POP SWAP2 SWAP1 POP JUMP JUMPDEST PUSH0 PUSH1 0x20 DUP3 ADD SWAP1 POP DUP2 DUP2 SUB PUSH0 DUP4 ADD MSTORE PUSH2 0x3888 DUP2 PUSH2 0x384F JUMP JUMPDEST SWAP1 POP SWAP2 SWAP1 POP JUMP JUMPDEST PUSH0 PUSH2 0x100 DUP3 DUP5 SUB SLT ISZERO PUSH2 0x38A5 JUMPI PUSH2 0x38A4 PUSH2 0x357D JUMP JUMPDEST JUMPDEST PUSH2 0x38B0 PUSH2 0x100 PUSH2 0x31CA JUMP JUMPDEST SWAP1 POP PUSH0 PUSH2 0x38BF DUP5 DUP3 DUP6 ADD PUSH2 0x35C4 JUMP JUMPDEST PUSH0 DUP4 ADD MSTORE POP PUSH1 0x20 PUSH2 0x38D2 DUP5 DUP3 DUP6 ADD PUSH2 0x3585 JUMP JUMPDEST PUSH1 0x20 DUP4 ADD MSTORE POP PUSH1 0x40 PUSH2 0x38E6 DUP5 DUP3 DUP6 ADD PUSH2 0x3585 JUMP JUMPDEST PUSH1 0x40 DUP4 ADD MSTORE POP PUSH1 0x60 DUP3 ADD MLOAD PUSH8 0xFFFFFFFFFFFFFFFF DUP2 GT ISZERO PUSH2 0x390A JUMPI PUSH2 0x3909 PUSH2 0x3581 JUMP JUMPDEST JUMPDEST PUSH2 0x3916 DUP5 DUP3 DUP6 ADD PUSH2 0x36DE JUMP JUMPDEST PUSH1 0x60 DUP4 ADD MSTORE POP PUSH1 0x80 PUSH2 0x392A DUP5 DUP3 DUP6 ADD PUSH2 0x35C4 JUMP JUMPDEST PUSH1 0x80 DUP4 ADD MSTORE POP PUSH1 0xA0 PUSH2 0x393E DUP5 DUP3 DUP6 ADD PUSH2 0x35C4 JUMP JUMPDEST PUSH1 0xA0 DUP4 ADD MSTORE POP PUSH1 0xC0 PUSH2 0x3952 DUP5 DUP3 DUP6 ADD PUSH2 0x34D6 JUMP JUMPDEST PUSH1 0xC0 DUP4 ADD MSTORE POP PUSH1 0xE0 PUSH2 0x3966 DUP5 DUP3 DUP6 ADD PUSH2 0x35C4 JUMP JUMPDEST PUSH1 0xE0 DUP4 ADD MSTORE POP SWAP3 SWAP2 POP POP JUMP JUMPDEST PUSH0 PUSH1 0x20 DUP3 DUP5 SUB SLT ISZERO PUSH2 0x3987 JUMPI PUSH2 0x3986 PUSH2 0x2C37 JUMP JUMPDEST JUMPDEST PUSH0 DUP3 ADD MLOAD PUSH8 0xFFFFFFFFFFFFFFFF DUP2 GT ISZERO PUSH2 0x39A4 JUMPI PUSH2 0x39A3 PUSH2 0x2C3B JUMP JUMPDEST JUMPDEST PUSH2 0x39B0 DUP5 DUP3 DUP6 ADD PUSH2 0x388F JUMP JUMPDEST SWAP2 POP POP SWAP3 SWAP2 POP POP JUMP JUMPDEST PUSH32 0x43617365206E6F742061737369676E656420746F206C61777965720000000000 PUSH0 DUP3 ADD MSTORE POP JUMP JUMPDEST PUSH0 PUSH2 0x39ED PUSH1 0x1B DUP4 PUSH2 0x2CFC JUMP JUMPDEST SWAP2 POP PUSH2 0x39F8 DUP3 PUSH2 0x39B9 JUMP JUMPDEST PUSH1 0x20 DUP3 ADD SWAP1 POP SWAP2 SWAP1 POP JUMP JUMPDEST PUSH0 PUSH1 0x20 DUP3 ADD SWAP1 POP DUP2 DUP2 SUB PUSH0 DUP4 ADD MSTORE PUSH2 0x3A1A DUP2 PUSH2 0x39E1 JUMP JUMPDEST SWAP1 POP SWAP2 SWAP1 POP JUMP JUMPDEST PUSH32 0x4361736520616C7265616479207265736F6C7665640000000000000000000000 PUSH0 DUP3 ADD MSTORE POP JUMP JUMPDEST PUSH0 PUSH2 0x3A55 PUSH1 0x15 DUP4 PUSH2 0x2CFC JUMP JUMPDEST SWAP2 POP PUSH2 0x3A60 DUP3 PUSH2 0x3A21 JUMP JUMPDEST PUSH1 0x20 DUP3 ADD SWAP1 POP SWAP2 SWAP1 POP JUMP JUMPDEST PUSH0 PUSH1 0x20 DUP3 ADD SWAP1 POP DUP2 DUP2 SUB PUSH0 DUP4 ADD MSTORE PUSH2 0x3A82 DUP2 PUSH2 0x3A49 JUMP JUMPDEST SWAP1 POP SWAP2 SWAP1 POP JUMP JUMPDEST PUSH2 0x3A92 DUP2 PUSH2 0x2DFF JUMP JUMPDEST DUP3 MSTORE POP POP JUMP JUMPDEST PUSH0 DUP3 DUP3 MSTORE PUSH1 0x20 DUP3 ADD SWAP1 POP SWAP3 SWAP2 POP POP JUMP JUMPDEST PUSH0 PUSH2 0x3AB2 DUP3 PUSH2 0x2CF2 JUMP JUMPDEST PUSH2 0x3ABC DUP2 DUP6 PUSH2 0x3A98 JUMP JUMPDEST SWAP4 POP PUSH2 0x3ACC DUP2 DUP6 PUSH1 0x20 DUP7 ADD PUSH2 0x2D0C JUMP JUMPDEST PUSH2 0x3AD5 DUP2 PUSH2 0x2D1A JUMP JUMPDEST DUP5 ADD SWAP2 POP POP SWAP3 SWAP2 POP POP JUMP JUMPDEST PUSH2 0x3AE9 DUP2 PUSH2 0x2CBF JUMP JUMPDEST DUP3 MSTORE POP POP JUMP JUMPDEST PUSH0 PUSH2 0x100 DUP4 ADD PUSH0 DUP4 ADD MLOAD PUSH2 0x3B05 PUSH0 DUP7 ADD DUP3 PUSH2 0x3396 JUMP JUMPDEST POP PUSH1 0x20 DUP4 ADD MLOAD PUSH2 0x3B18 PUSH1 0x20 DUP7 ADD DUP3 PUSH2 0x3A89 JUMP JUMPDEST POP PUSH1 0x40 DUP4 ADD MLOAD PUSH2 0x3B2B PUSH1 0x40 DUP7 ADD DUP3 PUSH2 0x3A89 JUMP JUMPDEST POP PUSH1 0x60 DUP4 ADD MLOAD DUP5 DUP3 SUB PUSH1 0x60 DUP7 ADD MSTORE PUSH2 0x3B43 DUP3 DUP3 PUSH2 0x3AA8 JUMP JUMPDEST SWAP2 POP POP PUSH1 0x80 DUP4 ADD MLOAD PUSH2 0x3B58 PUSH1 0x80 DUP7 ADD DUP3 PUSH2 0x3396 JUMP JUMPDEST POP PUSH1 0xA0 DUP4 ADD MLOAD PUSH2 0x3B6B PUSH1 0xA0 DUP7 ADD DUP3 PUSH2 0x3396 JUMP JUMPDEST POP PUSH1 0xC0 DUP4 ADD MLOAD PUSH2 0x3B7E PUSH1 0xC0 DUP7 ADD DUP3 PUSH2 0x3AE0 JUMP JUMPDEST POP PUSH1 0xE0 DUP4 ADD MLOAD PUSH2 0x3B91 PUSH1 0xE0 DUP7 ADD DUP3 PUSH2 0x3396 JUMP JUMPDEST POP DUP1 SWAP2 POP POP SWAP3 SWAP2 POP POP JUMP JUMPDEST PUSH0 PUSH1 0x20 DUP3 ADD SWAP1 POP DUP2 DUP2 SUB PUSH0 DUP4 ADD MSTORE PUSH2 0x3BB4 DUP2 DUP5 PUSH2 0x3AEF JUMP JUMPDEST SWAP1 POP SWAP3 SWAP2 POP POP JUMP JUMPDEST PUSH32 0x4E487B7100000000000000000000000000000000000000000000000000000000 PUSH0 MSTORE PUSH1 0x11 PUSH1 0x4 MSTORE PUSH1 0x24 PUSH0 REVERT JUMPDEST PUSH0 PUSH2 0x3BF3 DUP3 PUSH2 0x2D82 JUMP JUMPDEST SWAP2 POP PUSH2 0x3BFE DUP4 PUSH2 0x2D82 JUMP JUMPDEST SWAP3 POP DUP3 DUP3 ADD SWAP1 POP DUP1 DUP3 GT ISZERO PUSH2 0x3C16 JUMPI PUSH2 0x3C15 PUSH2 0x3BBC JUMP JUMPDEST JUMPDEST SWAP3 SWAP2 POP POP JUMP JUMPDEST PUSH32 0x4E487B7100000000000000000000000000000000000000000000000000000000 PUSH0 MSTORE PUSH1 0x32 PUSH1 0x4 MSTORE PUSH1 0x24 PUSH0 REVERT JUMPDEST PUSH0 DUP3 DUP3 MSTORE PUSH1 0x20 DUP3 ADD SWAP1 POP SWAP3 SWAP2 POP POP JUMP JUMPDEST PUSH0 PUSH2 0x3C63 DUP3 PUSH2 0x336D JUMP JUMPDEST PUSH2 0x3C6D DUP2 DUP6 PUSH2 0x3C49 JUMP JUMPDEST SWAP4 POP PUSH2 0x3C78 DUP4 PUSH2 0x3387 JUMP JUMPDEST DUP1 PUSH0 JUMPDEST DUP4 DUP2 LT ISZERO PUSH2 0x3CA8 JUMPI DUP2 MLOAD PUSH2 0x3C8F DUP9 DUP3 PUSH2 0x33A5 JUMP JUMPDEST SWAP8 POP PUSH2 0x3C9A DUP4 PUSH2 0x33BC JUMP JUMPDEST SWAP3 POP POP PUSH1 0x1 DUP2 ADD SWAP1 POP PUSH2 0x3C7B JUMP JUMPDEST POP DUP6 SWAP4 POP POP POP POP SWAP3 SWAP2 POP POP JUMP JUMPDEST PUSH0 PUSH1 0xC0 DUP4 ADD PUSH0 DUP4 ADD MLOAD PUSH2 0x3CCA PUSH0 DUP7 ADD DUP3 PUSH2 0x3A89 JUMP JUMPDEST POP PUSH1 0x20 DUP4 ADD MLOAD DUP5 DUP3 SUB PUSH1 0x20 DUP7 ADD MSTORE PUSH2 0x3CE2 DUP3 DUP3 PUSH2 0x3C59 JUMP JUMPDEST SWAP2 POP POP PUSH1 0x40 DUP4 ADD MLOAD DUP5 DUP3 SUB PUSH1 0x40 DUP7 ADD MSTORE PUSH2 0x3CFC DUP3 DUP3 PUSH2 0x3AA8 JUMP JUMPDEST SWAP2 POP POP PUSH1 0x60 DUP4 ADD MLOAD PUSH2 0x3D11 PUSH1 0x60 DUP7 ADD DUP3 PUSH2 0x3396 JUMP JUMPDEST POP PUSH1 0x80 DUP4 ADD MLOAD PUSH2 0x3D24 PUSH1 0x80 DUP7 ADD DUP3 PUSH2 0x3396 JUMP JUMPDEST POP PUSH1 0xA0 DUP4 ADD MLOAD PUSH2 0x3D37 PUSH1 0xA0 DUP7 ADD DUP3 PUSH2 0x3AE0 JUMP JUMPDEST POP DUP1 SWAP2 POP POP SWAP3 SWAP2 POP POP JUMP JUMPDEST PUSH0 PUSH1 0x20 DUP3 ADD SWAP1 POP DUP2 DUP2 SUB PUSH0 DUP4 ADD MSTORE PUSH2 0x3D5A DUP2 DUP5 PUSH2 0x3CB5 JUMP JUMPDEST SWAP1 POP SWAP3 SWAP2 POP POP JUMP JUMPDEST PUSH32 0x556E617574686F72697A65643A204E6F74206D656D626572206F722072657072 PUSH0 DUP3 ADD MSTORE PUSH32 0x6573656E74617469766500000000000000000000000000000000000000000000 PUSH1 0x20 DUP3 ADD MSTORE POP JUMP JUMPDEST PUSH0 PUSH2 0x3DBC PUSH1 0x2A DUP4 PUSH2 0x2CFC JUMP JUMPDEST SWAP2 POP PUSH2 0x3DC7 DUP3 PUSH2 0x3D62 JUMP JUMPDEST PUSH1 0x40 DUP3 ADD SWAP1 POP SWAP2 SWAP1 POP JUMP JUMPDEST PUSH0 PUSH1 0x20 DUP3 ADD SWAP1 POP DUP2 DUP2 SUB PUSH0 DUP4 ADD MSTORE PUSH2 0x3DE9 DUP2 PUSH2 0x3DB0 JUMP JUMPDEST SWAP1 POP SWAP2 SWAP1 POP JUMP JUMPDEST PUSH0 PUSH1 0xE0 DUP3 DUP5 SUB SLT ISZERO PUSH2 0x3E05 JUMPI PUSH2 0x3E04 PUSH2 0x357D JUMP JUMPDEST JUMPDEST PUSH2 0x3E0F PUSH1 0xE0 PUSH2 0x31CA JUMP JUMPDEST SWAP1 POP PUSH0 PUSH2 0x3E1E DUP5 DUP3 DUP6 ADD PUSH2 0x3585 JUMP JUMPDEST PUSH0 DUP4 ADD MSTORE POP PUSH1 0x20 PUSH2 0x3E31 DUP5 DUP3 DUP6 ADD PUSH2 0x3585 JUMP JUMPDEST PUSH1 0x20 DUP4 ADD MSTORE POP PUSH1 0x40 PUSH2 0x3E45 DUP5 DUP3 DUP6 ADD PUSH2 0x35C4 JUMP JUMPDEST PUSH1 0x40 DUP4 ADD MSTORE POP PUSH1 0x60 DUP3 ADD MLOAD PUSH8 0xFFFFFFFFFFFFFFFF DUP2 GT ISZERO PUSH2 0x3E69 JUMPI PUSH2 0x3E68 PUSH2 0x3581 JUMP JUMPDEST JUMPDEST PUSH2 0x3E75 DUP5 DUP3 DUP6 ADD PUSH2 0x36DE JUMP JUMPDEST PUSH1 0x60 DUP4 ADD MSTORE POP PUSH1 0x80 PUSH2 0x3E89 DUP5 DUP3 DUP6 ADD PUSH2 0x35C4 JUMP JUMPDEST PUSH1 0x80 DUP4 ADD MSTORE POP PUSH1 0xA0 PUSH2 0x3E9D DUP5 DUP3 DUP6 ADD PUSH2 0x35C4 JUMP JUMPDEST PUSH1 0xA0 DUP4 ADD MSTORE POP PUSH1 0xC0 PUSH2 0x3EB1 DUP5 DUP3 DUP6 ADD PUSH2 0x34D6 JUMP JUMPDEST PUSH1 0xC0 DUP4 ADD MSTORE POP SWAP3 SWAP2 POP POP JUMP JUMPDEST PUSH0 PUSH1 0x20 DUP3 DUP5 SUB SLT ISZERO PUSH2 0x3ED2 JUMPI PUSH2 0x3ED1 PUSH2 0x2C37 JUMP JUMPDEST JUMPDEST PUSH0 DUP3 ADD MLOAD PUSH8 0xFFFFFFFFFFFFFFFF DUP2 GT ISZERO PUSH2 0x3EEF JUMPI PUSH2 0x3EEE PUSH2 0x2C3B JUMP JUMPDEST JUMPDEST PUSH2 0x3EFB DUP5 DUP3 DUP6 ADD PUSH2 0x3DF0 JUMP JUMPDEST SWAP2 POP POP SWAP3 SWAP2 POP POP JUMP JUMPDEST PUSH0 PUSH1 0xE0 DUP4 ADD PUSH0 DUP4 ADD MLOAD PUSH2 0x3F19 PUSH0 DUP7 ADD DUP3 PUSH2 0x3A89 JUMP JUMPDEST POP PUSH1 0x20 DUP4 ADD MLOAD PUSH2 0x3F2C PUSH1 0x20 DUP7 ADD DUP3 PUSH2 0x3A89 JUMP JUMPDEST POP PUSH1 0x40 DUP4 ADD MLOAD PUSH2 0x3F3F PUSH1 0x40 DUP7 ADD DUP3 PUSH2 0x3396 JUMP JUMPDEST POP PUSH1 0x60 DUP4 ADD MLOAD DUP5 DUP3 SUB PUSH1 0x60 DUP7 ADD MSTORE PUSH2 0x3F57 DUP3 DUP3 PUSH2 0x3AA8 JUMP JUMPDEST SWAP2 POP POP PUSH1 0x80 DUP4 ADD MLOAD PUSH2 0x3F6C PUSH1 0x80 DUP7 ADD DUP3 PUSH2 0x3396 JUMP JUMPDEST POP PUSH1 0xA0 DUP4 ADD MLOAD PUSH2 0x3F7F PUSH1 0xA0 DUP7 ADD DUP3 PUSH2 0x3396 JUMP JUMPDEST POP PUSH1 0xC0 DUP4 ADD MLOAD PUSH2 0x3F92 PUSH1 0xC0 DUP7 ADD DUP3 PUSH2 0x3AE0 JUMP JUMPDEST POP DUP1 SWAP2 POP POP SWAP3 SWAP2 POP POP JUMP JUMPDEST PUSH0 PUSH1 0x20 DUP3 ADD SWAP1 POP DUP2 DUP2 SUB PUSH0 DUP4 ADD MSTORE PUSH2 0x3FB5 DUP2 DUP5 PUSH2 0x3F04 JUMP JUMPDEST SWAP1 POP SWAP3 SWAP2 POP POP JUMP JUMPDEST PUSH32 0x416C726561647920686173206D656D62657273686970204E4654000000000000 PUSH0 DUP3 ADD MSTORE POP JUMP JUMPDEST PUSH0 PUSH2 0x3FF1 PUSH1 0x1A DUP4 PUSH2 0x2CFC JUMP JUMPDEST SWAP2 POP PUSH2 0x3FFC DUP3 PUSH2 0x3FBD JUMP JUMPDEST PUSH1 0x20 DUP3 ADD SWAP1 POP SWAP2 SWAP1 POP JUMP JUMPDEST PUSH0 PUSH1 0x20 DUP3 ADD SWAP1 POP DUP2 DUP2 SUB PUSH0 DUP4 ADD MSTORE PUSH2 0x401E DUP2 PUSH2 0x3FE5 JUMP JUMPDEST SWAP1 POP SWAP2 SWAP1 POP JUMP JUMPDEST PUSH0 PUSH2 0x402F DUP3 PUSH2 0x2D82 JUMP JUMPDEST SWAP2 POP PUSH32 0xFFFFFFFFFFFFFFFFFFFFFFFFFFFFFFFFFFFFFFFFFFFFFFFFFFFFFFFFFFFFFFFF DUP3 SUB PUSH2 0x4061 JUMPI PUSH2 0x4060 PUSH2 0x3BBC JUMP JUMPDEST JUMPDEST PUSH1 0x1 DUP3 ADD SWAP1 POP SWAP2 SWAP1 POP JUMP JUMPDEST PUSH32 0x4D656D62657273686970204E4654207265717569726564000000000000000000 PUSH0 DUP3 ADD MSTORE POP JUMP JUMPDEST PUSH0 PUSH2 0x40A0 PUSH1 0x17 DUP4 PUSH2 0x2CFC JUMP JUMPDEST SWAP2 POP PUSH2 0x40AB DUP3 PUSH2 0x406C JUMP JUMPDEST PUSH1 0x20 DUP3 ADD SWAP1 POP SWAP2 SWAP1 POP JUMP JUMPDEST PUSH0 PUSH1 0x20 DUP3 ADD SWAP1 POP DUP2 DUP2 SUB PUSH0 DUP4 ADD MSTORE PUSH2 0x40CD DUP2 PUSH2 0x4094 JUMP JUMPDEST SWAP1 POP SWAP2 SWAP1 POP JUMP JUMPDEST PUSH0 PUSH1 0x20 DUP3 DUP5 SUB SLT ISZERO PUSH2 0x40E9 JUMPI PUSH2 0x40E8 PUSH2 0x2C37 JUMP JUMPDEST JUMPDEST PUSH0 PUSH2 0x40F6 DUP5 DUP3 DUP6 ADD PUSH2 0x35C4 JUMP JUMPDEST SWAP2 POP POP SWAP3 SWAP2 POP POP JUMP JUMPDEST PUSH0 DUP2 SWAP1 POP SWAP3 SWAP2 POP POP JUMP JUMPDEST PUSH0 PUSH2 0x4113 DUP3 PUSH2 0x2CF2 JUMP JUMPDEST PUSH2 0x411D DUP2 DUP6 PUSH2 0x40FF JUMP JUMPDEST SWAP4 POP PUSH2 0x412D DUP2 DUP6 PUSH1 0x20 DUP7 ADD PUSH2 0x2D0C JUMP JUMPDEST DUP1 DUP5 ADD SWAP2 POP POP SWAP3 SWAP2 POP POP JUMP JUMPDEST PUSH0 PUSH2 0x4144 DUP3 DUP6 PUSH2 0x4109 JUMP JUMPDEST SWAP2 POP PUSH2 0x4150 DUP3 DUP5 PUSH2 0x4109 JUMP JUMPDEST SWAP2 POP DUP2 SWAP1 POP SWAP4 SWAP3 POP POP POP JUMP JUMPDEST PUSH0 DUP1 PUSH1 0x40 DUP4 DUP6 SUB SLT ISZERO PUSH2 0x4172 JUMPI PUSH2 0x4171 PUSH2 0x2C37 JUMP JUMPDEST JUMPDEST PUSH0 DUP4 ADD MLOAD PUSH8 0xFFFFFFFFFFFFFFFF DUP2 GT ISZERO PUSH2 0x418F JUMPI PUSH2 0x418E PUSH2 0x2C3B JUMP JUMPDEST JUMPDEST PUSH2 0x419B DUP6 DUP3 DUP7 ADD PUSH2 0x3640 JUMP JUMPDEST SWAP3 POP POP PUSH1 0x20 DUP4 ADD MLOAD PUSH8 0xFFFFFFFFFFFFFFFF DUP2 GT ISZERO PUSH2 0x41BC JUMPI PUSH2 0x41BB PUSH2 0x2C3B JUMP JUMPDEST JUMPDEST PUSH2 0x41C8 DUP6 DUP3 DUP7 ADD PUSH2 0x3640 JUMP JUMPDEST SWAP2 POP POP SWAP3 POP SWAP3 SWAP1 POP JUMP JUMPDEST PUSH0 PUSH1 0x40 DUP3 ADD SWAP1 POP PUSH2 0x41E5 PUSH0 DUP4 ADD DUP6 PUSH2 0x2E10 JUMP JUMPDEST PUSH2 0x41F2 PUSH1 0x20 DUP4 ADD DUP5 PUSH2 0x3006 JUMP JUMPDEST SWAP4 SWAP3 POP POP POP JUMP JUMPDEST PUSH0 PUSH1 0x60 DUP3 ADD SWAP1 POP PUSH2 0x420C PUSH0 DUP4 ADD DUP7 PUSH2 0x2E10 JUMP JUMPDEST PUSH2 0x4219 PUSH1 0x20 DUP4 ADD DUP6 PUSH2 0x2E10 JUMP JUMPDEST PUSH2 0x4226 PUSH1 0x40 DUP4 ADD DUP5 PUSH2 0x3006 JUMP JUMPDEST SWAP5 SWAP4 POP POP POP POP JUMP JUMPDEST PUSH0 DUP2 MLOAD SWAP1 POP SWAP2 SWAP1 POP JUMP JUMPDEST PUSH0 DUP3 DUP3 MSTORE PUSH1 0x20 DUP3 ADD SWAP1 POP SWAP3 SWAP2 POP POP JUMP JUMPDEST PUSH0 PUSH2 0x4252 DUP3 PUSH2 0x422E JUMP JUMPDEST PUSH2 0x425C DUP2 DUP6 PUSH2 0x4238 JUMP JUMPDEST SWAP4 POP PUSH2 0x426C DUP2 DUP6 PUSH1 0x20 DUP7 ADD PUSH2 0x2D0C JUMP JUMPDEST PUSH2 0x4275 DUP2 PUSH2 0x2D1A JUMP JUMPDEST DUP5 ADD SWAP2 POP POP SWAP3 SWAP2 POP POP JUMP JUMPDEST PUSH0 PUSH1 0x80 DUP3 ADD SWAP1 POP PUSH2 0x4293 PUSH0 DUP4 ADD DUP8 PUSH2 0x2E10 JUMP JUMPDEST PUSH2 0x42A0 PUSH1 0x20 DUP4 ADD DUP7 PUSH2 0x2E10 JUMP JUMPDEST PUSH2 0x42AD PUSH1 0x40 DUP4 ADD DUP6 PUSH2 0x3006 JUMP JUMPDEST DUP2 DUP2 SUB PUSH1 0x60 DUP4 ADD MSTORE PUSH2 0x42BF DUP2 DUP5 PUSH2 0x4248 JUMP JUMPDEST SWAP1 POP SWAP6 SWAP5 POP POP POP POP POP JUMP JUMPDEST PUSH0 DUP2 MLOAD SWAP1 POP PUSH2 0x42D8 DUP2 PUSH2 0x2C6A JUMP JUMPDEST SWAP3 SWAP2 POP POP JUMP JUMPDEST PUSH0 PUSH1 0x20 DUP3 DUP5 SUB SLT ISZERO PUSH2 0x42F3 JUMPI PUSH2 0x42F2 PUSH2 0x2C37 JUMP JUMPDEST JUMPDEST PUSH0 PUSH2 0x4300 DUP5 DUP3 DUP6 ADD PUSH2 0x42CA JUMP JUMPDEST SWAP2 POP POP SWAP3 SWAP2 POP POP JUMP JUMPDEST PUSH32 0x4E487B7100000000000000000000000000000000000000000000000000000000 PUSH0 MSTORE PUSH1 0x12 PUSH1 0x4 MSTORE PUSH1 0x24 PUSH0 REVERT INVALID LOG2 PUSH5 0x6970667358 0x22 SLT KECCAK256 0xB7 DUP10 0xE9 0x2B SWAP11 0x4B 0xB4 PUSH1 0x6 0xC6 MSIZE SDIV 0xDD 0x1F 0xBD PUSH1 0x3F 0xD3 PUSH18 0xF3073F38552E30806030E5142164736F6C63 NUMBER STOP ADDMOD BYTE STOP CALLER "
		},
		"gasEstimates": {
			"creation": {
				"codeDepositCost": "3452000",
				"executionCost": "infinite",
				"totalCost": "infinite"
			},
			"external": {
				"approve(address,uint256)": "infinite",
				"assignRepresentative(address,address)": "infinite",
				"balanceOf(address)": "infinite",
				"createCase(address,string,uint256)": "infinite",
				"getApproved(uint256)": "infinite",
				"getOpenCases(address)": "infinite",
				"getRepresentative(address)": "infinite",
				"isApprovedForAll(address,address)": "infinite",
				"mintMembershipNFT(address,string,uint256)": "infinite",
				"name()": "infinite",
				"owner()": "2605",
				"ownerOf(uint256)": "infinite",
				"padiWallet()": "2575",
				"paymentToken()": "infinite",
				"registerLawyer(address,string)": "infinite",
				"renounceOwnership()": "infinite",
				"resolveCase(uint256)": "infinite",
				"safeTransferFrom(address,address,uint256)": "infinite",
				"safeTransferFrom(address,address,uint256,bytes)": "infinite",
				"setApprovalForAll(address,bool)": "infinite",
				"setPaymentToken(address)": "infinite",
				"storageContract()": "infinite",
				"supportsInterface(bytes4)": "787",
				"symbol()": "infinite",
				"tokenURI(uint256)": "infinite",
				"transferFrom(address,address,uint256)": "infinite",
				"transferOwnership(address)": "infinite"
			}
		},
		"methodIdentifiers": {
			"approve(address,uint256)": "095ea7b3",
			"assignRepresentative(address,address)": "4158c1b5",
			"balanceOf(address)": "70a08231",
			"createCase(address,string,uint256)": "c02b2dd6",
			"getApproved(uint256)": "081812fc",
			"getOpenCases(address)": "e1a9abf1",
			"getRepresentative(address)": "edd501fa",
			"isApprovedForAll(address,address)": "e985e9c5",
			"mintMembershipNFT(address,string,uint256)": "8baa5d8b",
			"name()": "06fdde03",
			"owner()": "8da5cb5b",
			"ownerOf(uint256)": "6352211e",
			"padiWallet()": "99bb9350",
			"paymentToken()": "3013ce29",
			"registerLawyer(address,string)": "ca259ed2",
			"renounceOwnership()": "715018a6",
			"resolveCase(uint256)": "3d3bd488",
			"safeTransferFrom(address,address,uint256)": "42842e0e",
			"safeTransferFrom(address,address,uint256,bytes)": "b88d4fde",
			"setApprovalForAll(address,bool)": "a22cb465",
			"setPaymentToken(address)": "6a326ab1",
			"storageContract()": "11ce0267",
			"supportsInterface(bytes4)": "01ffc9a7",
			"symbol()": "95d89b41",
			"tokenURI(uint256)": "c87b56dd",
			"transferFrom(address,address,uint256)": "23b872dd",
			"transferOwnership(address)": "f2fde38b"
		}
	},
	"abi": [
		{
			"inputs": [
				{
					"internalType": "address",
					"name": "_storage",
					"type": "address"
				},
				{
					"internalType": "address",
					"name": "_paymentToken",
					"type": "address"
				},
				{
					"internalType": "address",
					"name": "_padiWallet",
					"type": "address"
				}
			],
			"stateMutability": "nonpayable",
			"type": "constructor"
		},
		{
			"inputs": [
				{
					"internalType": "address",
					"name": "sender",
					"type": "address"
				},
				{
					"internalType": "uint256",
					"name": "tokenId",
					"type": "uint256"
				},
				{
					"internalType": "address",
					"name": "owner",
					"type": "address"
				}
			],
			"name": "ERC721IncorrectOwner",
			"type": "error"
		},
		{
			"inputs": [
				{
					"internalType": "address",
					"name": "operator",
					"type": "address"
				},
				{
					"internalType": "uint256",
					"name": "tokenId",
					"type": "uint256"
				}
			],
			"name": "ERC721InsufficientApproval",
			"type": "error"
		},
		{
			"inputs": [
				{
					"internalType": "address",
					"name": "approver",
					"type": "address"
				}
			],
			"name": "ERC721InvalidApprover",
			"type": "error"
		},
		{
			"inputs": [
				{
					"internalType": "address",
					"name": "operator",
					"type": "address"
				}
			],
			"name": "ERC721InvalidOperator",
			"type": "error"
		},
		{
			"inputs": [
				{
					"internalType": "address",
					"name": "owner",
					"type": "address"
				}
			],
			"name": "ERC721InvalidOwner",
			"type": "error"
		},
		{
			"inputs": [
				{
					"internalType": "address",
					"name": "receiver",
					"type": "address"
				}
			],
			"name": "ERC721InvalidReceiver",
			"type": "error"
		},
		{
			"inputs": [
				{
					"internalType": "address",
					"name": "sender",
					"type": "address"
				}
			],
			"name": "ERC721InvalidSender",
			"type": "error"
		},
		{
			"inputs": [
				{
					"internalType": "uint256",
					"name": "tokenId",
					"type": "uint256"
				}
			],
			"name": "ERC721NonexistentToken",
			"type": "error"
		},
		{
			"inputs": [
				{
					"internalType": "address",
					"name": "owner",
					"type": "address"
				}
			],
			"name": "OwnableInvalidOwner",
			"type": "error"
		},
		{
			"inputs": [
				{
					"internalType": "address",
					"name": "account",
					"type": "address"
				}
			],
			"name": "OwnableUnauthorizedAccount",
			"type": "error"
		},
		{
			"inputs": [
				{
					"internalType": "address",
					"name": "token",
					"type": "address"
				}
			],
			"name": "SafeERC20FailedOperation",
			"type": "error"
		},
		{
			"anonymous": false,
			"inputs": [
				{
					"indexed": true,
					"internalType": "address",
					"name": "owner",
					"type": "address"
				},
				{
					"indexed": true,
					"internalType": "address",
					"name": "approved",
					"type": "address"
				},
				{
					"indexed": true,
					"internalType": "uint256",
					"name": "tokenId",
					"type": "uint256"
				}
			],
			"name": "Approval",
			"type": "event"
		},
		{
			"anonymous": false,
			"inputs": [
				{
					"indexed": true,
					"internalType": "address",
					"name": "owner",
					"type": "address"
				},
				{
					"indexed": true,
					"internalType": "address",
					"name": "operator",
					"type": "address"
				},
				{
					"indexed": false,
					"internalType": "bool",
					"name": "approved",
					"type": "bool"
				}
			],
			"name": "ApprovalForAll",
			"type": "event"
		},
		{
			"anonymous": false,
			"inputs": [
				{
					"indexed": true,
					"internalType": "address",
					"name": "previousOwner",
					"type": "address"
				},
				{
					"indexed": true,
					"internalType": "address",
					"name": "newOwner",
					"type": "address"
				}
			],
			"name": "OwnershipTransferred",
			"type": "event"
		},
		{
			"anonymous": false,
			"inputs": [
				{
					"indexed": true,
					"internalType": "address",
					"name": "from",
					"type": "address"
				},
				{
					"indexed": true,
					"internalType": "address",
					"name": "to",
					"type": "address"
				},
				{
					"indexed": true,
					"internalType": "uint256",
					"name": "tokenId",
					"type": "uint256"
				}
			],
			"name": "Transfer",
			"type": "event"
		},
		{
			"inputs": [
				{
					"internalType": "address",
					"name": "to",
					"type": "address"
				},
				{
					"internalType": "uint256",
					"name": "tokenId",
					"type": "uint256"
				}
			],
			"name": "approve",
			"outputs": [],
			"stateMutability": "nonpayable",
			"type": "function"
		},
		{
			"inputs": [
				{
					"internalType": "address",
					"name": "member",
					"type": "address"
				},
				{
					"internalType": "address",
					"name": "representative",
					"type": "address"
				}
			],
			"name": "assignRepresentative",
			"outputs": [],
			"stateMutability": "nonpayable",
			"type": "function"
		},
		{
			"inputs": [
				{
					"internalType": "address",
					"name": "owner",
					"type": "address"
				}
			],
			"name": "balanceOf",
			"outputs": [
				{
					"internalType": "uint256",
					"name": "",
					"type": "uint256"
				}
			],
			"stateMutability": "view",
			"type": "function"
		},
		{
			"inputs": [
				{
					"internalType": "address",
					"name": "lawyer",
					"type": "address"
				},
				{
					"internalType": "string",
					"name": "description",
					"type": "string"
				},
				{
					"internalType": "uint256",
					"name": "reward",
					"type": "uint256"
				}
			],
			"name": "createCase",
			"outputs": [],
			"stateMutability": "nonpayable",
			"type": "function"
		},
		{
			"inputs": [
				{
					"internalType": "uint256",
					"name": "tokenId",
					"type": "uint256"
				}
			],
			"name": "getApproved",
			"outputs": [
				{
					"internalType": "address",
					"name": "",
					"type": "address"
				}
			],
			"stateMutability": "view",
			"type": "function"
		},
		{
			"inputs": [
				{
					"internalType": "address",
					"name": "lawyer",
					"type": "address"
				}
			],
			"name": "getOpenCases",
			"outputs": [
				{
					"internalType": "uint256[]",
					"name": "",
					"type": "uint256[]"
				}
			],
			"stateMutability": "view",
			"type": "function"
		},
		{
			"inputs": [
				{
					"internalType": "address",
					"name": "member",
					"type": "address"
				}
			],
			"name": "getRepresentative",
			"outputs": [
				{
					"internalType": "address",
					"name": "",
					"type": "address"
				}
			],
			"stateMutability": "view",
			"type": "function"
		},
		{
			"inputs": [
				{
					"internalType": "address",
					"name": "owner",
					"type": "address"
				},
				{
					"internalType": "address",
					"name": "operator",
					"type": "address"
				}
			],
			"name": "isApprovedForAll",
			"outputs": [
				{
					"internalType": "bool",
					"name": "",
					"type": "bool"
				}
			],
			"stateMutability": "view",
			"type": "function"
		},
		{
			"inputs": [
				{
					"internalType": "address",
					"name": "member",
					"type": "address"
				},
				{
					"internalType": "string",
					"name": "metadataURI",
					"type": "string"
				},
				{
					"internalType": "uint256",
					"name": "paymentAmount",
					"type": "uint256"
				}
			],
			"name": "mintMembershipNFT",
			"outputs": [],
			"stateMutability": "nonpayable",
			"type": "function"
		},
		{
			"inputs": [],
			"name": "name",
			"outputs": [
				{
					"internalType": "string",
					"name": "",
					"type": "string"
				}
			],
			"stateMutability": "view",
			"type": "function"
		},
		{
			"inputs": [],
			"name": "owner",
			"outputs": [
				{
					"internalType": "address",
					"name": "",
					"type": "address"
				}
			],
			"stateMutability": "view",
			"type": "function"
		},
		{
			"inputs": [
				{
					"internalType": "uint256",
					"name": "tokenId",
					"type": "uint256"
				}
			],
			"name": "ownerOf",
			"outputs": [
				{
					"internalType": "address",
					"name": "",
					"type": "address"
				}
			],
			"stateMutability": "view",
			"type": "function"
		},
		{
			"inputs": [],
			"name": "padiWallet",
			"outputs": [
				{
					"internalType": "address",
					"name": "",
					"type": "address"
				}
			],
			"stateMutability": "view",
			"type": "function"
		},
		{
			"inputs": [],
			"name": "paymentToken",
			"outputs": [
				{
					"internalType": "contract IERC20",
					"name": "",
					"type": "address"
				}
			],
			"stateMutability": "view",
			"type": "function"
		},
		{
			"inputs": [
				{
					"internalType": "address",
					"name": "lawyer",
					"type": "address"
				},
				{
					"internalType": "string",
					"name": "profileURI",
					"type": "string"
				}
			],
			"name": "registerLawyer",
			"outputs": [],
			"stateMutability": "nonpayable",
			"type": "function"
		},
		{
			"inputs": [],
			"name": "renounceOwnership",
			"outputs": [],
			"stateMutability": "nonpayable",
			"type": "function"
		},
		{
			"inputs": [
				{
					"internalType": "uint256",
					"name": "caseId",
					"type": "uint256"
				}
			],
			"name": "resolveCase",
			"outputs": [],
			"stateMutability": "nonpayable",
			"type": "function"
		},
		{
			"inputs": [
				{
					"internalType": "address",
					"name": "from",
					"type": "address"
				},
				{
					"internalType": "address",
					"name": "to",
					"type": "address"
				},
				{
					"internalType": "uint256",
					"name": "tokenId",
					"type": "uint256"
				}
			],
			"name": "safeTransferFrom",
			"outputs": [],
			"stateMutability": "nonpayable",
			"type": "function"
		},
		{
			"inputs": [
				{
					"internalType": "address",
					"name": "from",
					"type": "address"
				},
				{
					"internalType": "address",
					"name": "to",
					"type": "address"
				},
				{
					"internalType": "uint256",
					"name": "tokenId",
					"type": "uint256"
				},
				{
					"internalType": "bytes",
					"name": "data",
					"type": "bytes"
				}
			],
			"name": "safeTransferFrom",
			"outputs": [],
			"stateMutability": "nonpayable",
			"type": "function"
		},
		{
			"inputs": [
				{
					"internalType": "address",
					"name": "operator",
					"type": "address"
				},
				{
					"internalType": "bool",
					"name": "approved",
					"type": "bool"
				}
			],
			"name": "setApprovalForAll",
			"outputs": [],
			"stateMutability": "nonpayable",
			"type": "function"
		},
		{
			"inputs": [
				{
					"internalType": "address",
					"name": "token",
					"type": "address"
				}
			],
			"name": "setPaymentToken",
			"outputs": [],
			"stateMutability": "nonpayable",
			"type": "function"
		},
		{
			"inputs": [],
			"name": "storageContract",
			"outputs": [
				{
					"internalType": "contract IPadiStorage",
					"name": "",
					"type": "address"
				}
			],
			"stateMutability": "view",
			"type": "function"
		},
		{
			"inputs": [
				{
					"internalType": "bytes4",
					"name": "interfaceId",
					"type": "bytes4"
				}
			],
			"name": "supportsInterface",
			"outputs": [
				{
					"internalType": "bool",
					"name": "",
					"type": "bool"
				}
			],
			"stateMutability": "view",
			"type": "function"
		},
		{
			"inputs": [],
			"name": "symbol",
			"outputs": [
				{
					"internalType": "string",
					"name": "",
					"type": "string"
				}
			],
			"stateMutability": "view",
			"type": "function"
		},
		{
			"inputs": [
				{
					"internalType": "uint256",
					"name": "tokenId",
					"type": "uint256"
				}
			],
			"name": "tokenURI",
			"outputs": [
				{
					"internalType": "string",
					"name": "",
					"type": "string"
				}
			],
			"stateMutability": "view",
			"type": "function"
		},
		{
			"inputs": [
				{
					"internalType": "address",
					"name": "from",
					"type": "address"
				},
				{
					"internalType": "address",
					"name": "to",
					"type": "address"
				},
				{
					"internalType": "uint256",
					"name": "tokenId",
					"type": "uint256"
				}
			],
			"name": "transferFrom",
			"outputs": [],
			"stateMutability": "nonpayable",
			"type": "function"
		},
		{
			"inputs": [
				{
					"internalType": "address",
					"name": "newOwner",
					"type": "address"
				}
			],
			"name": "transferOwnership",
			"outputs": [],
			"stateMutability": "nonpayable",
			"type": "function"
		}
	]
}